:020000040000fa
:10000000f0ff0320d582020033530300375303006f
:100010003f53030043530300475303000000000015
:100020000000000000000000000000005153030029
:100030003b530300000000005153030051530300e1
:100040005153030051530300515303005153030014
:100050005153030051530300515303005153030004
:1000600051530300515303005153030051530300f4
:1000700051530300515303005153030051530300e4
:1000800051530300515303005153030051530300d4
:1000900051530300515303005153030051530300c4
:1000a00051530300515303005153030051530300b4
:1000b0005153030051530300515303006751030090
:1000c0007151030051530300515303005153030076
:1000d0005153030051530300515303005153030084
:1000e00051530300515303000000000000000000c2
:1000f0000000000051530300c5a30100c5a3010087
:10010000c5a30100c5a30100fdd30200fdd3020079
:10011000fdd30200fdd302005153030051530300ed
:100120005153030051530300515303005153030033
:100130005153030051530300515303005153030023
:100140005153030051530300515303005153030013
:100150005153030051530300515303005153030003
:1001600051530300515303005153030051530300f3
:1001700051530300515303005153030051530300e3
:1001800051530300515303005153030051530300d3
:10019000851f0300515303005153030051530300c3
:1001a00051530300515303005153030051530300b3
:1001b00051530300515303005153030051530300a3
:1001c0005153030051530300515303005153030093
:1001d0005153030051530300515303005153030083
:1001e00051530300515303005153030011210300e5
:1001f0005153030051530300515303005153030063
:100200005153030051530300515303005153030052
:100210005153030051530300515303005153030042
:100220005153030051530300515303005153030032
:100230005153030051530300515303005153030022
:100240005153030051530300515303005153030012
:100250005153030051530300515303005153030002
:0402600051530300f3
:020000040000fa
:10026400f8b500bff8bc08bc9e467047bdf8020054
:10027400f8b500bff8bc08bc9e46704799f8020068
:020000040000fa
:080284003c0401000100000030
:020000040000fa
:10028c002de9f04f8db00f210a2032f021fa0290a7
:10029c0010f0010f40f05d85029b13f0020f40f04f
:1002ac007c850db0bde8f08fd9f8187007f11002fd
:1002bc00059213f4007f21d1fb6809933b690a93e3
:1002cc0000228df82c2006238df82d30330a43eaba
:1002dc000623adf82e300c2109a82af0dbfdc04313
:1002ec0083b2d9f8202012f0040f30d032464146a8
:1002fc00484628f037fe002840f09a8640462bf0fe
:10030c0069fa98f80ca04fea1a1a4fea8a03049378
:10031c00d9f81ca0baf80220002a00f08c86fd89be
:10032c00bb891d44baf800301d445540adb2c74bd3
:10033c00d3f800c0bcf1000f00f08086d9f828e09b
:10034c00c34b1b68039300239b4610460ee01a46d2
:10035c00314640462af09efdcde7b4f87220824229
:10036c002fd001331bb21c469c452fd9039a52f84f
:10037c002440002cf5d094f876200b2af1d094f878
:10038c0077100129edd8a16c09b18e45e9d1002a6d
:10039c00e3d0b4f87220aa42e3d1daf80010226e4e
:1003ac009142ded1216cfa689142dad1012184f8b4
:1003bc007710c4f848e0059a204630f0aefda3460d
:1003cc0022e0bbf1000f08bfa346cae7bbf1000f48
:1003dc0000f08380fb68cbf8403001218bf877105c
:1003ec00cbf848e0059a584630f097fdabf87250c0
:1003fc00baf80030abf86030baf80230abf86230c3
:10040c00dbf80030cbf81030d9f810209389049920
:10041c005b1a938198f80d40d8f80870d8f80450fe
:10042c009bf83f3013f0400f5bd19bf875306ff3a6
:10043c0000038bf875309bf87630002b69d0012bbc
:10044c0000f09e801436049aa6eb020a1ffa8afa70
:10045c00aaf1140292b2059214f0010206921abf8c
:10046c00aaf1130a1ffa8af2059a039214f0020fea
:10047c0003d0039a013292b20392dbf81c60dbf8d2
:10048c0020209642c0f0aa80dbf81810dbf814008c
:10049c00091aa6eb020aa1eb0a0a1ffa8af20492c5
:1004ac00dbf85820a5eb020a039a002a00f0a98079
:1004bc00049a002a00f0a080baf1000fc0f29680d6
:1004cc009245c0f0a780039a04998a1a8a45c0f213
:1004dc00a180924540f39e808ee06ff00e0100f0fb
:1004ec0034bc00238bf879309bf83e3013f0020fac
:1004fc009bd132f08df9bbf87020564b1b6803fb77
:10050c0002f3554aa2fb032300eb9310cbf8240013
:10051c008be714f0040f1ad114f0100f1dd114f046
:10052c00020f27d00135cbf85850404623f082fcff
:10053c00abf86a0058462ff085fc01221221584670
:10054c0005f0c8fb02238bf876300026e6e3002189
:10055c0058461af003ff0026e0e3cbf85470002253
:10056c000421584605f0b6fb002158461af0f6fe59
:10057c000026d3e3002158461af0f0fe0026cde306
:10058c0014f0040f40f0c98314f0100f00f0a08594
:10059c00dbf85460b74205d114f0020f40f05585da
:1005ac000026bbe3cbf8547001220421584605f019
:1005bc0091fbcbf854600026b0e332f029f9bbf87c
:1005cc007020244b1b6803fb02f3234aa2fb03237a
:1005dc0000eb9313cbf8243000f056bda2eb060ac7
:1005ec000af1ff3a1ffa8af2049259e703990a4674
:1005fc00514400293ff768af14f0040f1fd00026b8
:10060c008ce3baf1000f05d0baf1000ff4db049ab9
:10061c009245f1da14f0060f20d114f0100f00f00f
:10062c009083023b072b00f2cc81dfe813f029000a
:10063c003e003e003e003e00ca013e00bd010122cc
:10064c001021584605f046fb002667e3803f012049
:10065c007c3f0120843f0120d34d621014f0040f25
:10066c0008d09bf83f3043f002038bf83f304ff437
:10067c00006600e00026002158461af06ffe4de39c
:10068c00dbf85460b74205d103238bf876304ff476
:10069c0080760be0cbf8547001220421584605f00b
:1006ac0019fbcbf85460002638e30026dbf8101059
:1006bc00dbf808305a1a13d4dbf854003b1a9b1a97
:1006cc00002b1dddbbf8742002f40172042a01d149
:1006dc00012b0cd000221021584605f0fbfa1de32b
:1006ec00dbf80430dbf800001b1a1a44e4e7013095
:1006fc00cbf854009bf8753043f002038bf875303f
:10070c00dbf85430dbf80c20881a914249d2dbf824
:10071c000420dbf80010521afb1a0344d318079379
:10072c00002b07dddbf80430dbf800209b1a079a5e
:10073c009a4246d9dbf83830002b40f0a280dbf827
:10074c000c20dbf808309a4200f0d980b8f80e3053
:10075c00bbf86e209a4238bfabf86e30dbf85420f1
:10076c00b8f80e303b449b1a9bb2bbf8641031b9fd
:10077c002bb19bf83e1041f040018bf83e10abf8ca
:10078c0064309bf87630042b00f0f080062b40f0a0
:10079c001981974240f0c282002158461af0defdc2
:1007ac00bce2fb1a03440793002b07dddbf8043093
:1007bc00dbf800001b1a0798984202d99142bed070
:1007cc00b8e740f2dc53cbf8343032f021f8dbf8e8
:1007dc003420c44b1b6803fb02f3c34aa2fb032364
:1007ec0000eb9313cbf838309bf83e306ff3451386
:1007fc008bf83e30dbf80c10079b0b44cbf80c301d
:10080c00dbf8102091420ed893421cd99a1adbf8cf
:10081c0054100a44cbf85420cbf81030dbf80420e9
:10082c00934224d313e0dbf80410dbf80000091a20
:10083c000a44934207d99a1adbf854100a44cbf8ad
:10084c005420cbf81030dbf80420934205d3dbf8ae
:10085c000010511a5b1acbf80c30dbf810309342b5
:10086c0005d3dbf80010521a9a1acbf810209bf81b
:10087c007630032b02d0082b7ff461af46f00406d0
:10088c005de731f0c5ffdbf83830c31a002bfff6fb
:10089c0056afdbf834305b00b3f57a4f28bf4ff41a
:1008ac007a43cbf8343031f0b3ffdbf834208d4b86
:1008bc001b6803fb02f38c4aa2fb032300eb93138c
:1008cc00cbf83830dbf81010dbf80c20881adbf88a
:1008dc0054301b1acbf85430914207d2dbf8041079
:1008ec00dbf80000091a5b1acbf85430cbf8102057
:1008fc009bf83e3043f080038bf83e301fe79bf8ab
:10090c003f3013f0010f19d113f0400f06d19bf8b3
:10091c003e306ff341038bf83e3017e731f078ff30
:10092c00bbf870206f4b1b6803fb02f34ff47a7219
:10093c00b3fbf2f30344cbf82430e8e7dbf8543094
:10094c009f427ff403af9bf8743013f0040f3ff415
:10095c00fdae9bf83e306ff341038bf83e309bf8b5
:10096c003f306ff300038bf83f30efe6974203d034
:10097c0014f0200f35d0d1e19bf8743013f0040f34
:10098c00f6d031f045ff574b1a6841f2883303fb20
:10099c0002f34ff47a72b3fbf2f30344cbf830302a
:1009ac0005238bf87630e3e7dbf8543001339f42b4
:1009bc0001d00026b2e1002158461af0cffc0026e7
:1009cc00ace1002614f0200f40f0a8819bf87620b3
:1009dc00a2f10803dbb2012b40f2a081062a00f041
:1009ec009d81059a002a3fd0baf1000f7edd059b50
:1009fc005344049a934203dda2eb0a039bb2059382
:100a0c0098f80c301b0908eb83030893dbf81c10d7
:100a1c00dbf81830059a52440a44934280f0f48073
:100a2c005a1a0132b2eb0a0200f1df801ffa82f887
:100a3c0001240094434608a802465144484629f034
:100a4c005ffb0490059aa2eb080300949bb208aae2
:100a5c00dbf81410484629f053fb049b034498b26e
:100a6c00059b834200f0d980039bcbb19bf8763079
:100a7c00033bdbb2022b84bfdbf81c30cbf82030fd
:100a8c009bf83e3013f0100f40f0fa809bf83e308c
:100a9c0043f010038bf83e3013f0080f00f0f68093
:100aac00069b002b00f03a81dbf858300133039a97
:100abc002a44934240f03281cbf8583046f4806699
:100acc009bf83f3043f004038bf83f309bf87630b3
:100adc00023b032b00f20781dfe813f0ec00f5007a
:100aec00fe001501843f0120d34d621098f80c30a4
:100afc001b09caeb830343440893524493b2049af0
:100b0c009a4228bf1a469246dbf81c10dbf81830c4
:100b1c008a18934259d25b1a01330493bdf81080a2
:100b2c0001240094434608aa484629f0e9fa0590a6
:100b3c00aaeb080300949bb208aadbf814104846f1
:100b4c0029f0defa059a024490b2049baaeb030347
:100b5c00dbf814201344504586d1dbf8581051446f
:100b6c00cbf85810cbf81c309bf87620033ad2b255
:100b7c00022a98bf46f40076dbf85c20b2f1ff3f06
:100b8c003ff472afa2eb0a0acbf85ca0bbf868206a
:100b9c0012eb0a0224d4baf1000f3ff765af1144ef
:100bac00cbf858101344cbf81c30dbf818209342c8
:100bbc0006d9dbf81410521ad2431344cbf81c306c
:100bcc004ff0ff33cbf85c304ee7012300935346d4
:100bdc0008aa484629f094fadbf81c305344bae7cb
:100bec004ff0ff33cbf85c303ee70af1ff30dbf817
:100bfc0014209b1ac01a01230093059b08aa0144d8
:100c0c00484629f07dfa2be701230093059b08aa9f
:100c1c005144484629f074fa22e7dbf85c30b3f112
:100c2c00ff3f15d09a4519d2059a02eb0a01bbf881
:100c3c006820d018814205d88b4203d8a0eb0a0358
:100c4c009bb20593059babf86830cbf85ca00be727
:100c5c00cbf85ca0059babf8683005e7bbf86820c7
:100c6c001a4405980146514491427ff6fdae9245d7
:100c7c003ff6faaeaaeb03031844abf86800f3e6b0
:100c8c0001221021584605f025f809e7dbb243f0a4
:100c9c0008038bf83e3031f0bbfdb14b1a6864236e
:100cac0003fb02f34ff47a72b3fbf2f30344cbf879
:100cbc002c30f5e609238bf87630012211215846a9
:100ccc0005f008f82ae008238bf876309bf875308d
:100cdc0013f0010f07d021e0dbf854309f4208d00d
:100cec0006238bf8763001221021584604f0f2ffcf
:100cfc0014e000221021584604f0ecff0021584665
:100d0c001af02cfb0ae000221021584604f0e2fff6
:100d1c00002158461af022fb00e00026bbf87a208e
:100d2c00324000f08e81dbf87c40002c00f08b818f
:100d3c00dbf88030d9f82810bbf93c00a047022121
:100d4c0003e00026eae76ff00d010a22484630f076
:100d5c0087fd0a2033f026fb814600283ff49caa2d
:100d6c00b9f82c60132eeed9d9f81c8098f80c30f9
:100d7c001b09042b0bd9b6eb830f0bdbd9f82030f6
:100d8c0013f400343ff490aa6ff00e01dde76ff01e
:100d9c000d01dae76ff00d01d7e7724b1b68002be2
:100dac003ff47faa00252b46dff8bc91dff8bca1ed
:100dbc00dff8b081e6e031f02bfda36ac01a002801
:100dcc00a8bf1026f4e031f023fde36ac01a002816
:100ddc00c0f2f48094f87630052b00f08a8110264e
:100dec0087f001023146204604f074ffeee031f04a
:100dfc000ffd236bc01a0028c0f2e58001221421dc
:100e0c00204604f067ff002120461af0a7fab1e053
:100e1c0094f83e6006f001060121204624f0ebfb1d
:100e2c0094f83e3043f0010384f83e304ff4805286
:100e3c00002120462cf05cff002e40f09b8094f8a3
:100e4c003e306ff3000384f83e300a2384f876308a
:100e5c0090e031f0ddfc636ac01a0028c0f28a8091
:100e6c0094f876104b1e082b00f28280dfe803f01a
:100e7c000541556080688080700094f87830032bb1
:100e8c0040f22b81042384f87830354b1a684ff4e8
:100e9c007a7303fb02f3aafb03239b091b01236553
:100eac000221002694f87830013384f87830236dd1
:100ebc005b0023652069e268831a9bb2904204d2de
:100ecc0060682768c01b03449bb2606dc01a6065e4
:100edc00b4f864000344a4f8643022610022204674
:100eec0004f0f8fe002e45d0002120461af036fa08
:100efc0040e094f87830022b40f2f18094f83e6098
:100f0c0006f001031e46002b18bf1421002fc9d177
:100f1c000122204604f0defee4e794f87830042b3e
:100f2c0040f2df80042384f8763011210026ede7af
:100f3c0094f87830042b40f2d68014210126e5e792
:100f4c0094f87830042b40f2d08014210126dde790
:100f5c0094f87830042b40f2ca8014210126d5e78e
:100f6c00843f0120803f01207c3f0120d34d621043
:100f7c00002e5ad101352db22b46d8f800209542bf
:100f8c00bff48fa9d9f8002052f82340002cf1d0df
:100f9c0094f876300b2bedd094f83e3013f0c0065d
:100fac001abfdf091026002713f0040f7ff403afdc
:100fbc0094f83e3013f0080f7ff405af94f87630b8
:100fcc00052b3ff414af002e7ff40aaf94f83e309b
:100fdc0013f0020f7ff43daf94f83f3013f0400f45
:100fec00c8d094f87630032bc4d131f011fc636a6d
:100ffc00c01a0028bedb94f8792094f884309a4209
:10100c003ff406af02221021204604f063fe31f0bb
:10101c00fffbb4f870203b4b1b6803fb02f3aafbed
:10102c00032300eb93106062a4e7314600266de7c2
:10103c006ff0090189e66ff00e0186e66ff00e0184
:10104c0083e6022181e602217fe60135cbf8585078
:10105c00b8f80e30abf86e30abf86430404622f086
:10106c00e9feabf86a0058462ef0ecfe0122102186
:10107c00584604f02ffe03238bf876309bf83f3054
:10108c0013f0400f7ff499aa9bf83e306ff34103a5
:10109c008bf83e304ff4807640e60135cbf8585053
:1010ac00b8f80e30abf86e30abf86430404622f036
:1010bc00c1feabf86a0058462ef0c4fe0122122184
:1010cc00584604f007fe02238bf87630002625e6fe
:1010dc0014f0020fe1d1002620e60221e1e61221f4
:1010ec00dfe61021dde61121dbe61021d9e6112126
:1010fc00d7e631f08dfb236bc01a0028bff67eae0d
:08110c0010266de6843f01206e
:020000040000fa
:101114002de9f04f2ded028b9bb00f21212031f0f2
:10112400dbfa002800f007877d4b1b68002b40f397
:1011340002877c4c0026dff820929fed7b8ab9e37e
:10114400d4f8c4305d6894f8d1202ab3227c012af3
:1011540042d0022a61d1b4f93830b3f1ff3f25d02f
:101164000023724a4ff40071b4f9380030f0d1fd15
:10117400d4f8bc200221b4f938001cf085fd30b944
:10118400d4f8c4301b681b6869492846984706216f
:1011940020462cf0e5fb86e31b681b68654928465e
:1011a4009847012120462cf0dbfb7ce304f180020c
:1011b400618a012024f0c8fb2087b0f1ff3fcfd122
:1011c400d4f8c4301b681b685b4928469847012142
:1011d40020462cf0c5fb66e304f18002618a0120fd
:1011e40033f0b5ffa087b0f1ff3f0ad00023534a84
:1011f4004ff4807130f074ff032120462cf0b0fbd3
:1012040051e3d4f8c4301b681b684d4928469847fd
:10121400012120462cf0a4fb45e31b681b684949c7
:1012240028469847012120462cf09afb3be3d4f84a
:10123400c430d3f804b03b4be31adb1003ebc30216
:1012440003eb4203c3eb432303eb8343c3f1000ae1
:1012540097e0d4f8c4301b681b683b49584698474c
:10126400042120462cf07cfb1de3b4f93c0031f052
:101274008cfe18e30133c4f89430284631f096fe0e
:1012840002460b46d4e9080111f0f5fec4e9080151
:10129400002f19dba36ae26a511c8b4231d09342be
:1012a40020dc616b01f1010161632cd020e0d4f8f2
:1012b400c4301b685b68254958469847236b013b3b
:1012c400a26a1344236391e07f42a76231f0a4fa37
:1012d400c4f88c00002384f8cc30042120462cf080
:1012e4003ffbd7e75b1a226b13442363a36ae362d1
:1012f4000c3dadb2002d44d0dff858804ff4c867e0
:1013040036e0934206d1d4f8c4301b681b681049f8
:1013140058469847a36ae26a9342e9dde7e700bfcb
:10132400643f01206832012000007a44a145030093
:10133400e4cc00009ccc0000c0cc00008b45030032
:101344000ccd000030cd000048cd000068cd000079
:1013540094cd000018fc00200c3c01203a46414684
:10136400b4f93c001ff06affa5f5c865adb245b1fc
:10137400b5f5c86ff2d22a46d149b4f93c001ff042
:101384005dffb4f93c0031f0f7f905460b2878d934
:101394000c224946b4f93c001ff050ff0c287ff49e
:1013a40058afd9f800301f0e47ea03671a0202f457
:1013b4007f0217431b0a03f47f431f43a762d4f839
:1013c4009430002b7ff456af002ffff64eaf01236d
:1013d400c4f89430d4f8c4301b685b685246b949e9
:1013e40058469847a26a002a7ff461afa36ae36271
:1013f40005a9b4f93c001ef02bfdb4f93c0033f010
:10140400f1fb32f0fff8069dd4f8c4301b68628a01
:101414000292020e0192c0f3074200925f68c0f389
:101424000723c2b2a8495846b847d4f8c4301b6849
:10143400bdf8582002922a0e0192c5f30742009289
:101444005f68c5f30723eab2a0495846b847656404
:10145400bdf85830a4f8643031f0def9c4f88800df
:10146400c4f8a800a36ac4f89c30d4f89430c4f833
:101474009830236bc4f8a030b4f93c0031f085fdfa
:101484007fe7d4f894304bb994f8cf30012b40f077
:101494000a82042120462cf063fa04e231f0bcf9fc
:1014a400d4f8a830c31a22689342edd9d4f8942012
:1014b400d4f898309a4212d1d4f8c4301b681b680f
:1014c40083495846984731f0a7f9c4f88c000023a3
:1014d40084f8cc30042120462cf042fad4e70021d1
:1014e400204610f0b5fdcfe7b4f93c0031f044f9e3
:1014f40038b994f8cf304bb1092120462cf030fa9a
:10150400d1e1b4f93c0031f040fdcce105212046a5
:101514002cf026fac7e194f8cd30002b00f0bd8002
:10152400b4f93c0031f028f9002840f0be8094f86a
:10153400cc305a1c84f8cc200a2b00f2bb808021ca
:10154400b4f93c0033f090fe002800f0ac81e36a6b
:101554005b421a0e42ea0362190201f47f010a4354
:101564001b0a03f47f431343c9f800300025c9f86c
:101574000450c9f808508023c9f80c30c9f8105039
:10158400d4e9080131f044fc020e42ea006203028d
:1015940003f47f031a43030a03f47f431343c9f894
:1015a400143031f04df9d4f88c10d4f88830c91abd
:1015b400b1fbf0f31a0e42ea03621f0207f47f073d
:1015c4003a431f0a07f47f473a43c9f8182000fb3f
:1015d400131307ee103ab8ee477a27ee087a07eeaf
:1015e400900af8ee676ac7ee267a67ee887afcee10
:1015f400e77a17ee903a1a0e42ea0362190201f4ee
:101604007f010a431b0a03f47f431343c9f81c30c8
:10161400236b1a0e42ea0362190201f47f010a43a2
:101624001b0a03f47f431343c9f82030636b1a0e7b
:1016340042ea0362190201f47f010a431b0a03f41c
:101644007f431343c9f82430e36a1a0e42ea036263
:10165400190201f47f010a431b0a03f47f43134375
:10166400c9f82830c9f82c50c9f8305034224946fa
:10167400b4f93c002df088f94c273a46294605a8d0
:1016840033f0a0f93a4605a9b4f93c002df07cf9f1
:10169400b4f93c0011f0cefb05e10221204610f024
:1016a400d7fc012384f8cd303ae7b4f93c0031f09b
:1016b4006cfcf8e0092120462cf052f9f3e000bf5d
:1016c40018fc0020cccd0000a0e80100d4e8010003
:1016d400b4cd000094f8cf30012b26d0b4f93800f3
:1016e40031f099f9002800f0de803822002105a8a5
:1016f40033f068f905a9b4f9380028f024fb04f1a3
:10170400400705ad0fcd0fc70fcd0fc70fcd0fc7c6
:1017140095e8030087e80300072120462cf020f910
:10172400b4f9380030f0dffdbde0092120462cf08b
:1017340017f9b8e0d4f8c4305f68b4f9380033f06e
:10174400aaf90546002865d0a36a002b49d1bd4bf0
:10175400e31adb1003ebc30203eb4203c3eb4323a3
:1017640003eb8343d4f8c4201268d2f804805a42ad
:10177400b5493846c04731f04ff8c4f88800c4f87a
:10178400a800a36ac4f89c30b4f9380033f00afa0c
:1017940031f038ffd4f8c4301b68628a0292020e1a
:1017a4000192c0f307420092d3f80480c0f30723e8
:1017b400c2b2a6493846c047d4f8c4301b68b4f84e
:1017c4006420029294f84720019294f846200092f3
:1017d400d3f8048094f8453094f844209c49384662
:1017e400c047a36a0133a362d4f894200132c4f839
:1017f4009420e362284631f0d9fb02460b46d4e933
:10180400080111f038fcc4e90801dff848824ff4fc
:10181400c8671ce0b4f9380030f065fd20b9b4f9ac
:10182400380032f0c6fed8b130f0f6ffc4f88c00b0
:10183400082120462cf094f835e03a464146b4f9a4
:10184400380020f041fda5f5c865adb245b1b5f548
:10185400c86ff2d22a467f49b4f9380020f034fd2b
:10186400a36a63b994f8cf30012b1cd10821204618
:101874002cf076f830f0d0ffc4f88c0013e030f090
:10188400cbffd4f8a830c31a22689342ead90021c6
:10189400204610f0ddfbe5e794f8cd30c3b3092111
:1018a40020462cf05df80136d8346b4b1b68b342ec
:1018b40040f3418394f8ce30012bf4d0023b102b3b
:1018c40000f2348301a252f823f000bf4511000056
:1018d40033120000ed1400001b150000d91600009f
:1018e400391700009d18000025190000c1190000d7
:1018f400ed1900002f1c0000151d00001b1e000028
:101904000b1f0000ed1a00007b1e0000211f0000c9
:101914000221204610f09cfb012384f8cd30bee761
:10192400d4f8c4305f68237c012b29d0022b2cd03f
:10193400444be31adb1003ebc30203eb4203c3eb98
:10194400432303eb83435d42d4f8c4301b685b68d4
:101954002a4642493846984720462cf0c1fe94f85e
:10196400d130012b19d0d4f8c4301b685b682a46e7
:101974003b4938469847012120462bf0f1ff92e776
:10198400b4f93c002df0b0fad2e7b4f938002ef0e7
:101994005ffc4ff6ff732387cae794f8cf30002b20
:1019a400e1d1d4f8c4301b685b682a462d49384617
:1019b4009847022120462bf0d3ff74e7d4f8c800df
:1019c40032f095fa032808d10b2120462bf0c8ffea
:1019d40030f022ffc4f8ac0065e704f14401d4f808
:1019e400c8002df0a0fbefe7d4f8c4305d6894f88c
:1019f400cf20012a17d0d4f8c80032f078fa03288f
:101a04001bd094f8443003f0f003e02b2ed1237c58
:101a1400012b64d0237c022b7ff445af0c2120469c
:101a24002bf09eff3fe71b681b680f492846984729
:101a3400012120462bf094ff35e70022a267a4f889
:101a44007c20e4e768320120cccd0000a0e801004e
:101a5400d4e8010018fc0020643f0120f8cd000008
:101a64005cce000028ce00007cce000004f1780299
:101a740004f14401d4f8c80025f040feb8b1d4f80c
:101a8400c4301b6894f87d20039294f87c20029261
:101a940094f87b20019294f87a2000925f6894f87d
:101aa400793094f87820c0492846b847afe730f039
:101ab400b3fed4f8ac30c71a30f0c2fe00eb80009d
:101ac40087427ff6f0aed4f8c4301b681b68b74970
:101ad4002846984730f0a0fec4f8ac00e3e6102195
:101ae40020462bf03dff95e7d4f8c4305d6804f13f
:101af4004402618a012033f02ffba087b0f1ff3f3d
:101b040000f087800023aa4a4ff4807130f0e8fa8d
:101b1400e2680521b4f93c000af012f830b9d4f8af
:101b2400c4301b681b68a349284698470222062133
:101b3400b4f93c000af004f830b9d4f8c4301b6896
:101b44001b689d4928469847d4f8c810b4f93c004e
:101b54002af061fb05a9b4f93c001ef079f9bdf83f
:101b64005a30a4f87e30d4f8c4301b681b689349fb
:101b740028469847d4f8c4301b68628a029294f8c5
:101b84004720019294f8462000925f6894f845300b
:101b940094f844208a492846b847112120462bf05e
:101ba400dffe30f039fec4f888002ff07dff0546d3
:101bb4000f4633f095f979016b0141ead5625b1b5d
:101bc40062eb0702510241ead3514fea432c0a4621
:101bd4001ceb050347eb0202910141ea93614fead2
:101be400831cbceb030c61eb0201024600231cebdb
:101bf400050047eb010130f017f8d4f8843018449d
:101c0400c4f890004ff4c86255216e4832f0dafef1
:101c140049e6d4f8c4301b681b686b4928469847ca
:101c2400012120462bf09cfe3de6d4f8c4305d68cb
:101c34000022618a012032f019f96087b0f1ff3f78
:101c440051d00023614a4ff4007130f062f8d4f8a7
:101c54008030002b53d104f1440300220121b4f954
:101c64003a002cf072f84ff48063a4f87e30d4f874
:101c7400c4301b681b68514928469847d4f8c430bf
:101c84001b68628a029294f84720019294f84620d5
:101c940000925f6894f8453094f844204c492846f3
:101ca400b8470d2120462bf05bfed4f8b820032161
:101cb400b4f93a001bf0e8ff30b9d4f8c4301b681b
:101cc4001b683c4928469847b4f93a0030f00af8b2
:101cd40030f0a2fdc4f8ac004ff4c8625421394876
:101ce40032f070fedfe5d4f8c4301b681b68394954
:101cf40028469847012120462bf032fed3e504f113
:101d04008003628a0121b4f93a0020f0fdffa2e7c2
:101d140094f8cf30012b42d0d4f8c4305f68b4f9c2
:101d24003a0030f078fe002856d0b4f93a0030f08a
:101d3400dafa30f071fdc4f888002ff0b5fe0546dc
:101d44000f4633f0cdf879016b0141ead5625b1b94
:101d540062eb0702510241ead3514fea432c0a468f
:101d64001ceb050347eb0202910141ea93614fea40
:101d7400831cbceb030c61eb0201024600231ceb49
:101d8400050047eb01012ff04fffd4f884301844cd
:101d9400c4f890000e2120462bf0e2fd83e50f21cc
:101da40020462bf0ddfd7ee5dcce00009cce00005d
:101db4008b45030008cf000030cf00000845010028
:101dc40058cf000018fc00200ccd0000a1450300f2
:101dd40090cf0000c0cc000030f01efdd4f8ac3031
:101de400c51a30f02dfd00eb800085427ff65bad17
:101df400b4f93a002ef02cfa4ff6ff736387d4f847
:101e0400c4301b681b684e49384698470f2120464a
:101e14002bf0a6fd47e5204607f016ff01280bd05e
:101e240002287ff440ad0f2120462bf099fd30f0bd
:101e3400f3fcc4f88c0036e5424f00bfb4f8b05050
:101e44008db1b5f5c86f28bf4ff4c8652a46394629
:101e5400b4f93a0017f06afcb4f8b0301b1aa4f8cd
:101e6400b0308542ead9b4f93a0030f0e7fd2046b3
:101e740014f0f2f917e5227d0b21b4f93c0009f0c6
:101e84005ffe204607f0e0fe01280bd002287ff415
:101e94000aad122120462bf063fd30f0bdfcc4f8de
:101ea4008c0000e5b4f8b05015b30027dff894a017
:101eb400a846b5f5c86f28bf4ff4c86842465146d6
:101ec400b4f93c002cf060fd0744bfb22d1aadb24a
:101ed400804501d1002debd1b4f93c0010f0aaffec
:101ee40040b900221146b4f93c002df0edffdae4cc
:101ef4002f46f1e7b4f8b030df1ba4f8b0702046e9
:101f040014f0aaf9cfe4204628f072fcb4f93a00a0
:101f14002ef09ef94ff6ff736387c4e4204628f041
:101f240067fcb4f93c002cf0dfffbce4012120463f
:101f34002bf016fdb7e41bb0bdec028bbde8f08faf
:081f4400c8cf000018fc0020ca
:020000040000fa
:101f4c00383d01201c0000000000000028b10020da
:101f5c00100d000000000000ac8c002004000000fc
:101f6c0000000000e45e0020c82d0000000000000e
:101f7c00a43701200400000000000000543b0120a5
:101f8c000400000000000000142f0120400100009c
:101f9c0000000000373d012001000000000000009f
:101fac00b13d012001000000000000004033012081
:101fbc00c000000000000000b43c01200400000040
:101fcc0000000000c43d01200400000000000000df
:101fdc00264101200200000000000000d81301205f
:101fec0088050000000000002a41012002000000ca
:101ffc000000000098080120a0050000000000006f
:10200c002e4101200200000000000000380e0120cb
:10201c00a00500000000000021410120010000008b
:10202c00000000002541012001000000000000001c
:10203c00643e01200400000000000000c03e0120ae
:10204c0008000000000000003241012002000000e6
:10205c0000000000c042012004000000010000004c
:10206c0096000000e8420120020000000100000080
:10207c00060300008642012002000000010000005f
:10208c0001000000c4420120040000000100000017
:10209c00dc050000294101200100000000000000c7
:1020ac0000340120b000000000000000c83e0120f8
:1020bc00080000000000000038260120400200004b
:1020cc0000000000d03e01200c00000000000000c9
:1020dc00304101200100000000000000dc3e012026
:1020ec000400000000000000d83d012008000000a2
:1020fc00000000002d410120010000000000000044
:10210c003141012001000000000000003441012099
:10211c000100000000000000e03e0120040000006f
:10212c00000000003541012001000000000000000b
:10213c00e43e01200400000000000000983b012058
:10214c003c0000000000000000000020e45e0000e5
:10215c0000000000e83e01201c0000000000000010
:10216c0038ca0020100a000000000000364101208f
:10217c000100000000000000683e01200800000083
:10218c0000000000043f01200400000000000000db
:10219c00882101205802000000000000083f0120a7
:1021ac00080000000000000060190120d4020000ab
:1021bc00000000002241012002000000000000008d
:1021cc00103f01202400000000000000c842012044
:1021dc000400000001000000090000009a420120e8
:1021ec000200000001000000ffff0000be420120c1
:1021fc000200000001000000ffff0000de42012091
:10220c000400000001000000ff07ff07343f01201d
:10221c0008000000000000001c3901206c000000c8
:10222c00000000002c410120010000000000000013
:10223c0044410120d4000000010000007cce0200cb
:10224c000000000000000000000000000000000082
:10225c000000000000000000000000000000000072
:10226c000000000000000000000000000000000062
:10227c000000000000000000000000000000000052
:10228c000000000000000000000000000000000042
:10229c000000000000000000000000000000000032
:1022ac000000000000000000000000000000000022
:1022bc000000000000000000000000000000000012
:1022cc000000000000000000000000000000000002
:1022dc0000000000000000000000000000000000f2
:1022ec0000000000000000000000000000000000e2
:1022fc0000000000000000000000000000000000d2
:10230c0000000000000000000000000000000000c1
:10231c00ea4201200100000001000000ff00000063
:10232c003c3f01200400000000000000a837012001
:10233c008000000000000000d03a012044000000a2
:10234c0000000000374101200100000000000000e7
:10235c00403f01200400000000000000b43d0120bb
:10236c001000000000000000543001200c0100009f
:10237c0000000000443f01200400000000000000a9
:10238c00c83d01201000000000000000483f012063
:10239c000400000000000000e8390120500000009b
:1023ac0000000000b08c0020782400000000000029
:1023bc002841012001000000000000004c3f0120da
:1023cc000400000000000000b0340120a400000054
:1023dc0000000000a838012074000000000000007c
:1023ec00e03d012010000000000000006c3c0120ca
:1023fc002800000000000000f435012090000000cf
:10240c000000000024410120010000000000000039
:10241c00503f01200400000000000000943c01200b
:10242c0020000000000000002041012001000000fd
:10243c0000000000ac4201200c0000000100000074
:10244c00f4010000d00700000100000060420120f0
:10245c002600000001000000080008000200010036
:10246c0002000800000600060101540030303a302a
:10247c00343a32353a30313a30323a3031000000a9
:10248c0088420120120000000100000030303a3078
:10249c00343a32353a30313a30323a303400000086
:1024ac009c4201201000000001000000010100000e
:1024bc0001c70200c9f6020000000100dc42012045
:1024cc00020000000100000000010000883a012019
:1024dc004800000000000000b84201200600000087
:1024ec0001000000ffffffffffff0000103e012076
:1024fc00180000000000000084360120900000004d
:10250c0000000000543f01200c00000000000000ff
:10251c0068320120d8000000000000000c3c0120b3
:10252c003400000000000000603f012004000000a7
:10253c0000000000384101200100000000000000f4
:10254c00643f0120040000000000000018fc002083
:10255c004006000000000000683f01200c00000055
:10256c0000000000283e01200c00000000000000cc
:10257c00f03d012010000000000000003941012056
:10258c000100000000000000623e0120020000007b
:10259c0000000000b23d012002000000000000001d
:1025ac00743f01200400000000000000003e0120e8
:1025bc001000000000000000783f01201000000017
:1025cc000000000000410120040000000000000099
:1025dc00883f01200c000000000000003a4101205f
:1025ec000100000000000000943f012004000000e6
:1025fc0000000000703d01201800000000000000e9
:10260c00983f01200c000000000000000441012054
:10261c000200000000000000a43f012004000000a4
:10262c000000000048f40020d0070000000000006b
:10263c00a83f01201000000000000000064101200e
:10264c000200000000000000b83f0120080000005c
:10265c0000000000a03d012011000000000000005f
:10266c00183d01201f00000000000000c03f0120a9
:10267c0004000000000000000841012002000000de
:10268c0000000000c43f012010000000000000000a
:10269c000a4101200200000000000000d43f01208c
:1026ac0008000000000000000c41012002000000a6
:1026bc0000000000dc3f01201000000000000000c2
:1026cc003b4101200100000000000000cc42012031
:1026dc00040000000100000064000000184201200a
:1026ec002800000001000000bb010300d101010023
:1026fc004b020100330203007c020300dd030300e4
:10270c00de030300e0030300e1030100b322010038
:10271c00ec3f01200400000000000000d43b01202d
:10272c003800000000000000f03f01201000000005
:10273c000000000014370120900000000000000091
:10274c00081f012080020000000000000040012052
:10275c002800000000000000343e01200c000000a6
:10276c0000000000883d012018000000000000005f
:10277c00543d01201c0000000000000028400120f6
:10278c0004000000000000003c410120010000009a
:10279c00000000002c40012004000000000000009c
:1027ac00d04201200400000001000000ffffffffe9
:1027bc00304001200c00000000000000583e0120b9
:1027cc000a000000000000003c4001201c0000003a
:1027dc00000000000e41012002000000000000007b
:1027ec005840012008000000000000003d4101207d
:1027fc0001000000000000007828012034020000d5
:10280c0000000000ac2d0120680100000000000059
:10281c00b83c012060000000000000003e41012097
:10282c000100000000000000403c01202c000000d2
:10283c000000000048d40020001000000000000040
:10284c00143b01204000000000000000703e0120fd
:10285c001000000000000000604001200400000097
:10286c00000000003f4101200100000000000000ba
:10287c0048e4002000080000000000006440012033
:10288c000800000000000000ac2a012080010000bc
:10289c0000000000403e01200c0000000000000081
:1028ac0048ec00200008000000000000404101201e
:1028bc000200000000000000803e01200800000023
:1028cc00000000006c40012010000000000000001f
:1028dc004241012001000000000000006031012095
:1028ec0008010000000000007c40012008000000ee
:1028fc0000000000583b01204000000000000000d8
:10290c0054350120a000000000000000e24201202c
:10291c000200000001000000010000002c2c01202e
:10292c008001000000000000844001201c00000019
:10293c000000000010410120020000000000000017
:10294c00a0400120140000000000000043410120c1
:10295c000100000000000000d4420120040000002f
:10296c0001000000e0000001883e01203000000062
:10297c0000000000b4400120100000000000000026
:10298c0012410120040000000000000038be0020ad
:10299c00000c0000000000001641012002000000a5
:1029ac0000000000e44201200200000001000000d1
:1029bc00ffff0000c44001200800000000000000e0
:1029cc0058020120400600000000000028380120b9
:1029dc008000000000000000e64201200200000020
:1029ec000100000030c00000cc40012008000000b5
:1029fc00000000001841012002000000000000004f
:102a0c00d440012008000000000000001a41012001
:102a1c000400000000000000dc4001200400000065
:102a2c00000000001e410120020000000000000018
:102a3c00e02301205802000000000000341c01209b
:102a4c00d402000000000000e0400120080000005b
:102a5c000000000088390120600000000000000028
:102a6c00e84001200c00000000000000d8420120ca
:102a7c00040000000100000001000000f4400120ef
:102a8c000400000000000000383a01205000000053
:102a9c0000000000f84001200400000000000000cd
:102aac004042012020000000010000000100000055
:102abc000300000000000000000000000000000007
:102acc000000000000000000b83e0120b83e0120cc
:102adc000800000000000000fc4001200400000081
:102aec00000000004c3e01200c0000000000000023
:102afc00000000000000000066666666666666669a
:020000040000fa
:102b0c0030b587b0044690f99030002b40f00f811f
:102b1c000378012b04bf0023037090f8d430042bee
:102b2c0000f25784dfe813f005008b00d9002f0169
:102b3c003b0390f90830b3f1ff3f57d090f8fc20dd
:102b4c00012a22d051b229b1022a43d0ff2380f8a6
:102b5c009030dce003f01f01c3f34a1303f50200cd
:102b6c0000f580700022012303fa01f1c00132f05c
:102b7c008ff932f091fb2df093fcc4f8dc0094f843
:102b8c00fc30013384f8fc30cfe032f085fb2df0c3
:102b9c0087fcd4f8dc30984200f0c78094f90830f8
:102bac0003f01f0201219140c3f34a1303f5020005
:102bbc0000f580700a46c00132f06af932f06cfb05
:102bcc002df06efcc4f8dc0094f8fc30013384f872
:102bdc00fc30aae032f060fb2df062fcd4f8dc3063
:102bec00c31a062b94bf002501258fe090f8fc300a
:102bfc002bb1012b16d0ff2380f8903087e00023f7
:102c0c000193b44a009201220321d0f8ec0030f079
:102c1c002bfb002800f0898094f8fc30013384f8f9
:102c2c00fc3082e000230193aa4b009301231a4647
:102c3c000321d0f8ec0030f017fb054666e0d0f825
:102c4c00ec0094f8fc30042b43d8dfe813f00500bb
:102c5c00c6031300c6033300002200929e4b0121d1
:102c6c0030f0eafd002860d094f8fc30013384f891
:102c7c00fc305ae0d4f8e4309a0ac3f30913b2f5e5
:102c8c00f87f01d11b2b07d09449002027f05afe66
:102c9c00ff2384f890303ae0002200928e4b90494a
:102cac0030f0cafd002840d094f8fc30013384f891
:102cbc00fc303ae0d4f8e43003f00f0384f8fe3033
:102ccc002bbb8849002027f03dfeff2384f8903071
:102cdc001de0ff2384f8903027e090f8fc10c1f140
:102cec00220200230093804b92b2804800eb01112a
:102cfc00d4f8ec0022f06ef894f8fc500544edb2d8
:102d0c0084f8fc50222d14bf002501256db1002341
:102d1c0084f8fc3094f8d4300133dbb284f8d4302e
:102d2c00052b04bf022384f890300123237094f9ff
:102d3c009030022b00f0538394f90750c5f34a10de
:102d4c0000f5020000f58070c00132f007fb05f0c1
:102d5c001f0520fa05f515f0010f40f07683237856
:102d6c00012b04bf002323700021d4f8ec000af0df
:102d7c0039f90123237094f80431002b00f0768389
:102d8c000023237068e3d0f8ec0094f8fc302f2b70
:102d9c0000f2fe81dfe813f030003000300030002c
:102dac003000fc01fc01fc01fc01fc014a004a0062
:102dbc004a004a004a00fc01fc01fc01fc01fc0138
:102dcc0070007000700070007000fc01fc01fc01d0
:102ddc00fc01fc018b000102b0000102c6000102e3
:102dec00dc000102f2000102080130014d01710109
:102dfc009601bb01db01f2010093402305aa0521da
:102e0c00204621f02df9054600283ff47faf059ba5
:102e1c0023b10a2384f8fc30002577e734490020dd
:102e2c0027f090fdff2384f890306fe70a3bdbb26c
:102e3c0000931f2305aa0421204621f011f9054611
:102e4c0000283ff463af059b13f0100f18bf43f03d
:102e5c00e0035bb284f8f03013f1050f04db1423ac
:102e6c0084f8fc30002551e72149002027f06afd49
:102e7c00ff2384f8903049e7143bdbb200931f2307
:102e8c0005aa0821204621f0ebf8054600283ff45e
:102e9c003daf059b13f0100f18bf43f0e0035bb27e
:102eac0084f8f1301e2384f8fc3000252ee7002333
:102ebc000093094b01220f4930f0befc0546002857
:102ecc003ff424af94f8fc30013384f8fc30002537
:102edc001ce700bf1f130200b11f0300f492020095
:102eec0094000a001c93020035470300743b010058
:102efc003493020084000400d4f8e430a4f8f230d7
:102f0c0000230093bd4b0122bd4930f095fc0546d2
:102f1c0000283ff4fbae94f8fc30013384f8fc300d
:102f2c000025f3e6d4f8e430a4f8f4300023009341
:102f3c00b24b0122b34930f07ffc054600283ff428
:102f4c00e5ae94f8fc30013384f8fc300025dde666
:102f5c00d4f8e430a4f8f63000230093a74b0122f8
:102f6c00a94930f069fc054600283ff4cfae94f82f
:102f7c00fc30013384f8fc300025c7e6d4f8e4308b
:102f8c00a4f8f830002300939c4b01229f4930f0a9
:102f9c0053fc054600283ff4b9ae94f8fc300133dd
:102fac0084f8fc300025b1e6d4f8e430a4f8fa300b
:102fbc0094f9f0309bb203f1090291b203f10e02c5
:102fcc0092b2120142ea8122b4f8f23003f00f03fc
:102fdc001a43002301930093012392b28c4930f0e1
:102fec0043f9054600283ff491ae94f8fc300133c8
:102ffc0084f8fc30002589e694f9f13028339bb233
:10300c00b4f8f420c2f3090242ea832200230193ac
:10301c000093012392b27a4930f026f90546002834
:10302c003ff474ae94f8fc30013384f8fc30002586
:10303c006ce694f9f0309bb25a1d91b2b4f8f620bc
:10304c0022f47c5222f03f0242ea012212b292b2e6
:10305c0009331a43002301930093012392b2694967
:10306c0030f002f9054600283ff450ae94f8fc30dd
:10307c00013384f8fc30002548e694f9f0309bb21b
:10308c0003f1090291b2b4f8f82022f47c5222f038
:10309c003f0242ea012212b292b20e331a430023cb
:1030ac0001930093012392b2574930f0ddf80546a5
:1030bc0000283ff42bae94f8fc30013384f8fc303c
:1030cc00002523e694f9f0309bb203f1110291b282
:1030dc00b4f8fa2022f47c5222f03f0242ea012298
:1030ec0012b292b216331a430023019300930123b8
:1030fc0092b2464930f0b8f8054600283ff406aec7
:10310c0094f8fc30013384f8fc300025fee594f88b
:10311c00fe50002301930093012345f6217243f6e0
:10312c0031719d4218bf0a463a4930f09df8054668
:10313c0000283ff4ebad94f8fe30012b3ff4e6ade4
:10314c0094f8fc30013384f8fc300025dee50023d4
:10315c0002930193012300934ff440734ff4807258
:10316c002d492ff0a8fe054600283ff4cfad94f86a
:10317c00fc30013384f8fc300025c7e500230193b3
:10318c00009301237d22254930f06ef80546bde5fc
:10319c00ff2384f890300025b8e50025b6e5d0f87b
:1031ac00ec0094f8fc30092b00f20f81dfe813f0ef
:1031bc000a003c005100630076009500ac00cb0087
:1031cc00e4000101637e1bb9042384f8fc30ace5f8
:1031dc00a17d627d00230193114b0093012342eaf0
:1031ec000122104930f040f800283ff49ead94f8cd
:1031fc00fc30013384f8fc3097e500bfb11f0300ad
:10320c008a000400ad000400ae000400af0004000e
:10321c0084000400d000040088000a0039020a006f
:10322c003547030002ca0400e17d227e002301938e
:10323c008f4b0093012342ea01228e4930f014f89f
:10324c0000283ff472ad94f8fc30013384f8fc3064
:10325c006be500230193864b00930123832286495f
:10326c0030f002f800283ff460ad94f8fc300133e4
:10327c0084f8fc3059e5002301937d4b0093012326
:10328c004ff400427d492ff0efff00283ff44dad85
:10329c0094f8fc30013384f8fc3046e594f8953012
:1032ac0094f89420120442ea036294f892301a4380
:1032bc0094f89310002301936d4b0093012342ea81
:1032cc0001226f492ff0d0ff00283ff42ead94f867
:1032dc00fc30013384f8fc3027e594f8971094f80f
:1032ec00962000230193624b0093012342ea0122b2
:1032fc0064492ff0b9ff00283ff417ad94f8fc3067
:10330c00013384f8fc3010e594f8973094f896204b
:10331c00120442ea036294f894301a4394f895101c
:10332c0000230193524b0093012342ea0122564998
:10333c002ff09aff00283ff4f8ac94f8fc300133de
:10334c0084f8fc30f1e4a37e002b4ff000030193d2
:10335c00474b00934ff0010314bf102200224ff093
:10336c0001112ff081ff00283ff4dfac94f8fc3002
:10337c00013384f8fc30d8e4e17e49f2e60249f2ec
:10338c00e623002918bf1a46237f0bb142f4807242
:10339c0000230193364b0093012304212ff064ff8b
:1033ac0000283ff4c2ac94f8fc30013384f8fc30b4
:1033bc00bbe400230193354b009301230c224ff403
:1033cc0080312ff051ff0546a0e4ff2384f89030a4
:1033dc009de4ff2380f89030a7e4002596e4637efb
:1033ec00b3b9d4f8e830002b3ff4a6ac31f054ff5d
:1033fc002df056f8d4f8e830c01a04287ff69cacaf
:10340c000023c4f8e830d4f8ec0031f079fe93e4f2
:10341c0031f042ff2df044f8d4f8e030c31ab3f584
:10342c007a7fded3c4f8e0002378012b04bf00239d
:10343c00237000230093164b01221649d4f8ec009c
:10344c0030f0faf901232370cbe794f804316bb117
:10345c002378012b3ff494ac002384f80431012130
:10346c00d4f8ec0009f0befd0123237007b030bd89
:10347c003547030005ca04008700040001ca040094
:10348c00240001002500010022000100714103000d
:08349c007f2e030003ca0400a7
:020000040000fa
:1034a4005478204279746520436f756e742d6c6f67
:1034b400776572203332626974732854784f544ca0
:1034c4004f290000414f030054782042797465204d
:1034d400436f756e742d7570706572203136626934
:1034e40074732854784f5448492900004b4f030003
:1034f4005478204672616d657320772f6f20657252
:10350400726f722854784654434e542900000000c8
:1035140000000000554f030054782042726f61642c
:1035240063617374204672616d65732854784243f5
:103534004654290000000000000000005f4f030013
:103544005478204d756c746963617374204672619c
:103554006d65732854784d4654290000000000001e
:1035640000000000694f03005478205061757365b2
:10357400204672616d6573285478504654290000c2
:10358400000000000000000000000000734f030072
:1035940054782036342d62797465204672616d65e5
:1035a4007328547842465436342900000000000041
:1035b400000000007d4f030054782036352d313251
:1035c400372062797465204672616d6573285442b0
:1035d400465431323729000000000000874f0300b1
:1035e4005478203132382d32353520627974652093
:1035f4004672616d6573285442465432353529004c
:1036040000000000914f03005478203235362d35e8
:1036140031312062797465204672616d6573285476
:103624004246543531312900000000009b4f03000d
:103634005478203531322d3130323320627974653b
:10364400204672616d6573285442465431303233da
:1036540029000000a54f0300547820313032342d66
:10366400313531382062797465204672616d657335
:10367400285442465431353138290000af4f0300f5
:103684005478204672616d6573203e3d203135319a
:1036940038206279746528475442463135313829d7
:1036a40000000000b94f0300547820556e64657221
:1036b40072756e204672616d6573206e6f7420544e
:1036c400586564285478545552290000c34f0300a8
:1036d40054782053696e676c6520436f6c6c697312
:1036e400696f6e204672616d657328547853434642
:1036f40029000000cd4f0300547820322d313520ad
:10370400436f6c6c6973696f6e204672616d65738b
:103714002854784d4346290000000000d74f030089
:10372400547820313620436f6c6c6973696f6e2056
:103734004672616d65732854784543434e5429009d
:1037440000000000e14f03005478206c6174652090
:10375400436f6c6c6973696f6e204672616d65733b
:103764002854784c43434e5429000000eb4f030087
:103774005478204465666572726564204672616d92
:103784006573285478445446290000000000000062
:1037940000000000f54f0300547820436172726901
:1037a40065722053656e7365206572726f72204670
:1037b40072616d657328547843534529ff4f0300a4
:1037c4005278204279746520436f756e742d6c6f46
:1037d400776572203332626974732852784f524c81
:1037e4004f29000009500300527820427974652063
:1037f400436f756e742d7570706572203136626911
:1038040074732852784f524849290000135003001a
:103814005278204672616d657320772f6f20657230
:10382400726f722852784652434e542900000000a9
:10383400000000001d50030052782042726f616442
:1038440063617374204672616d65732852784243d4
:103854004652290000000000000000002750030029
:103864005278204d756c746963617374204672617b
:103874006d6573202852784d4652290000000000df
:1038840000000000315003005278205061757365c8
:10389400204672616d6573285278504652290000a3
:1038a4000000000000000000000000003b50030086
:1038b40052782036342d62797465204672616d65c4
:1038c4007328527842465236342900000000000022
:1038d400000000004550030052782036352d313267
:1038e400372062797465204672616d65732854428d
:1038f4004652313237290000000000004f500300c7
:103904005278203132382d32353520627974652071
:103914004672616d6573285442465232353529002a
:1039240000000000595003005278203235362d35fe
:1039340031312062797465204672616d6573285453
:103944004246523531312900000000006350030023
:103954005278203531322d3130323320627974651a
:10396400204672616d6573285442465231303233b9
:10397400290000006d500300527820313032342d7c
:10398400313531382062797465204672616d657312
:10399400285442465231353138290000775003000b
:1039a4005278204672616d6573203e3d2031353179
:1039b4003920627974657328544d5842465229005f
:1039c40000000000815003005278204672616d654a
:1039d40073203c20363420627974657328527855fc
:1039e4004652290000000000000000008b50030034
:1039f4005278204672616d6573203e20313531382e
:103a04002062797465732852784f46522900000069
:103a140000000000955003005278206572726f72a6
:103a2400204672616d6573203e2031353138206245
:103a3400797465732852784a522900009f50030014
:103a4400527820435243206572726f72204672612d
:103a54006d657328527846435345290000000000e1
:103a640000000000a95003005278204c656e677472
:103a740068206669656c64206572726f7220467294
:103a8400616d65732852784c46464529b35003004e
:103a940052782073796d626f6c206572726f722038
:103aa4004672616d657328527852534529000000af
:103ab40000000000bd500300527820616c69676efd
:103ac4006d656e74206572726f72204672616d65e9
:103ad400732852784145290000000000c7500300b4
:103ae4005278205265736f75726365204572726fe8
:103af400722028527852524529000000000000002c
:103b040000000000d15003005278206f7665727275
:103b1400756e206572726f72204672616d657328ce
:103b24005278524f4529000000000000db5003008a
:103b340052782049504864722043686b73756d2035
:103b44006572726f72204672616d6573285278498e
:103b540048434529e55003005278205443502043fc
:103b6400686b73756d206572726f72204672616d39
:103b7400657328527854434529000000ef50030030
:103b84005278205544502043686b73756d206572dc
:103b9400726f72204672616d657328527855434581
:083ba40029000000f9500300a4
:020000040000fa
:043bac00012070473d
:020000040000fa
:103bb0002de9f04fadf20c5d012973dc4ff0140bd1
:103bc000bbf5fa7f28bf4ff4fa7b2ef0e3fa00280a
:103bd00074d04ff47a7030f09fff012031f0d4f8a8
:103be000b749002026f0b4fe4ff40c720021b6a8ad
:103bf00030f0eafeb6a810f0e1ff002840f0948013
:103c00000df5367adae97689aba3d3e9002340468d
:103c100049462ef00bf806460f46c7aaa9490020d0
:103c200026f096fe0df2da22a749002026f090fe3b
:103c30000df22442a549002026f08afea44a40f253
:103c40004633404649462df0f1ff804689463c22e6
:103c50000023304639462df0e9ffcde902234ff429
:103c600061620023304639462df0e0ff10461946c8
:103c70003c2200232df0daffcde9000142464b46fd
:103c80009449002026f064fedae974679249002026
:103c900026f05efe56ea070314d04ff0010c4ff0f9
:103ca00000081ae013460a220021586830f0b4feda
:103cb0008346002884d14ff0010b86e7874926f020
:103cc00047feb2e28649002026f042fe30e000bf07
:103cd00008f10108b8f1090f1fd0c8f12000a8f1c0
:103ce000200126fa08f307fa00f0034327fa01f14e
:103cf0000b4303f00104002554ea0503e8d0794b97
:103d000053f828307849794aac4518bf0a467849b3
:103d1000284626f01dfeac46dae7c6f34122754977
:103d2000002026f015fe03e07349002026f010fe67
:103d30007249002026f00cfe38220021a8a830f09d
:103d400043fea8a817f0ccf90246002840f08f8067
:103d5000ae9caf9d9df8c032012b13d0684a6949d3
:103d6000022b18bf0a466849002026f0f1fd9df895
:103d7000d1324bb1012b3bd0644a6249022b18bfb0
:103d80000a4602e0624aeee7624a6349002026f0f2
:103d9000dffd9df8d2226149002026f0d9fde3b273
:103da0000393c4f307230293c4f307430193240e40
:103db0000094ebb2c5f307225949002026f0c8fd54
:103dc000a89ad3b20193c2f307230093c2f3074327
:103dd000120e5449002026f0bbfd9df8d0324bb1a5
:103de000012b42d0504a4749022b18bf0a4602e035
:103df0004e4acae74e4a4f49002026f0a9fd4e49d7
:103e0000002026f0a5fd4822002196a830f0dcfd18
:103e100096a81df0f3fa024670b3032847d047492d
:103e2000002026f095fd5a464549002026f090fdd9
:103e300031f058f80990002030f0a6ff4ff4c87018
:103e400030f06afebbf1000f00f0f3810023002484
:103e5000cde906344ff0ff314ff0ff32cde90412c7
:103e60001e46a246a146a046abe0364ac3e7364905
:103e7000002026f06dfdc2e7bdf858220df25a2150
:103e8000324828f005f9bdf86a229ba9304828f08d
:103e9000fff8bdf87c220df27e212e4828f0f8f8bc
:103ea000bdf88e22a4a92c4828f0f2f8bbe72b49d4
:103eb000002026f04dfdb6e700ca9a3b0000000046
:103ec00080630000b0630000c8630000e06300008e
:103ed00000a0b830f8630000206400004c630000cc
:103ee00034640000f02d03000c1b0300b4620000da
:103ef00048640000506400006864000080640000b2
:103f0000bc620000c4620000b4640000c86200002b
:103f1000b8620000dc620000cc640000e4640000d1
:103f2000fc64000030650000f062000004870000bf
:103f3000fc6200005065000068650000106600002b
:103f40003866000008630000c48a00009c65000019
:103f5000a8650000b4650000c0650000cc650000e5
:103f60002df0a4fd401b61eb07014d01430145ea23
:103f7000d0621b1a62eb0102550245ead3555f027b
:103f80002a463b1841eb0202950145ea93659f01e1
:103f9000ff1a65eb0205099a0023381845eb010169
:103fa0002df044fe21e009f1010901345b4622466f
:103fb000aa49002026f0ccfc0a202ef06bfc5c45c0
:103fc00029d02df073fd05460f464ff40c720021e9
:103fd0000aa830f0f9fc0aa810f0f0fd0028e2d1a0
:103fe000099b002bbcd10020002108f101083618e4
:103ff0004aeb010adde90423994208bf904238bf29
:10400000cde90401dde906238b4208bf8242ccd210
:10401000cde90601c9e7642404fb09f4b4fbfbf411
:104020000194cdf8009043465a468d49002026f071
:104030008ffcb8f1000f28d19df8c032022b69d156
:10404000884a8949002026f083fc8849002026f010
:104050007ffc30f047ff8246854bd3f800b0854b9c
:10406000d3f800902df022fd04900691002030f04e
:104070008bfe4ff4c87030f04ffd002425464ff4fe
:104080000c777d4edff8148256e0002542462b4621
:10409000304651462df0cafd06460f464ff47a725f
:1040a0000023dde9049a484651462df0bffd9046b5
:1040b0004ff47a720023484651462df0b7fd8146f1
:1040c0004ff47a720023dde906ab504659462df0d5
:1040d000adfd03924ff47a720023504659462df0fd
:1040e000a5fd02904ff47a720023304639462df038
:1040f0009dfd01924ff47a720023304639462df02f
:1041000095fd009043464a465c49284626f020fc2f
:1041100092e75c465a4a5b4b022c98bf1a4690e7de
:10412000a6fb0423db0803eb8303a4eb4303092b67
:104130000ed001341e2c12d03a4600210aa830f0cd
:1041400043fc0aa810f03afd0028e9d10135e7e761
:104150001e23621c4146002026f0fafbe9e74a498b
:10416000002026f0f5fb2df0a1fcbaf1000f32d0b3
:10417000049bc01a069b61eb03025401430144ea0d
:10418000d0611b1a61eb02018c0044ea93749e001b
:104190002146301842eb0101cb0043ea5073c200c4
:1041a00010461946524600232df040fd304b1f6843
:1041b000a7eb0b072f4b1968a1eb09017a180346ef
:1041c00090b1d600b6fbf0f64ff47a7404fb05f418
:1041d000b4fbf0f40be0264b1f68a7eb0b07254b55
:1041e0001968a1eb0901ca19002633463446039128
:1041f0000297019200951e222449002026f0a8fb78
:10420000334622462249002026f0a2fb2149002005
:1042100026f09efb2049002026f09afb40f2dc505d
:1042200030f07afc032030f0affd0df20c5dbde8fc
:10423000f08f00200190009003460246084926f0c6
:1042400087fb9df8c032022b05d0bbf1000f7ff435
:1042500060af0b4af5e6034af3e600bf7c66000058
:1042600094660000406300000067000010670000d3
:10427000c8400120c4400120cdcccccccc6600008d
:104280001063000028630000686700008867000072
:10429000d467000008680000446800005067000010
:020000040000fa
:1042a0002de9f04f2ded048bd1b010900c461192fa
:1042b00013930023adf87e30102120a82ef092f841
:1042c00018b100202ff0ecf940b9a149002026f0e8
:1042d0003ffb51b0bdec048bbde8f08f9d4b209aa5
:1042e0001a6000229c490df17e001cf039fb9b4bab
:1042f0001860002843d0642ca8bf6424012cb8bfe8
:10430000012412942af07aff954b18604ff6ff7340
:10431000944a1380944a13800023944a136040f215
:10432000ff7293490a8093490a80934a1380109b35
:104330004bbb884a039441f289330293d3780193ab
:1043400093780093537812788c49002026f000fb74
:104350004ff4167030f0e0fb022030f015fd814b79
:104360001a884ff6ff739a4240f0f58205230693b0
:104370004ff0040bdff820a2dff8e891b3e28049a8
:1043800026f0e6faa5e7734a109b0493129b039369
:1043900041f289330293d378019393780093537851
:1043a00012787849002026f0d3fad1e70027adf83b
:1043b00060708df86270adf85c704ff0080a8df88f
:1043c0006ea04ff009098df86f900223adf86c30a4
:1043d0001ba82af0e1ff19202ef05cfa8df860a0ee
:1043e0008df8619001238df86230674b1f60276064
:1043f00017a918a81ef064fb002840f0ba82bdf887
:104400005c3033804ff6ff72934256d044e003276e
:104410008df86c7002238df86d3008238df86e30a6
:1044200019202ef037fa39461ba828f0a3fc0346c2
:10443000002841d004238df86c3001238df86d30b5
:1044400007238df86e3019202ef024fa39461ba868
:1044500028f090fc034678b300238df86c308df87b
:104460006d308df86e3019202ef014fa39461ba8e5
:1044700028f080fc031c18bf01231de032202ef021
:1044800009fa013d1fd02368002b40f0e0813288fb
:104490004ff6ff739a4289d00023adf8603018a917
:1044a0000e2023f0e7ff034630b1bdf8602041f253
:1044b00058039a42abd0434623602368002bddd0db
:1044c000012d40f0c481274b1a884ff6ff739a42a2
:1044d00021d02e4a254b18682c4b2d49002808bfa7
:1044e0000b462c49002026f033fa462030f00cfb16
:1044f0002af084fe1590002030f03ffe0d904ff41e
:104500007a73109a03fb02f3149300230e930f9314
:104510009fed0d9b44e11e4adce74ff00109224666
:104520001ba90d982cf0eefe002837dd9df86c30ad
:10453000032bf2d003f0df03512b08bf4ff001092a
:10454000ede700bfaff300800000000000000000b6
:10455000c46701000c3f0120afc501001c3f0120d2
:10456000283f0120be4201209a420120103f012035
:10457000de420120e04201202241012018680100b2
:10458000f867010064680100083f0120b867010076
:10459000b0670100b4680100243f0120b64b1888c1
:1045a000b64b1c88a4b240f6ff75281a2ef000fd09
:1045b0000022b34b17f0ccfeaba3d3e900230ff0de
:1045c000e9fbcde90801281b2ef0f2fc0022ac4be0
:1045d00017f0befea4a3d3e900230ff0dbfbcde967
:1045e0000a01dff8cc82c3464ff0000ab0ee498ad8
:1045f000f0ee698a119bff2ba8bfff23012bb8bfe8
:1046000001230c9347e00c982ef0d2fc32463b4637
:1046100017f09efe06460f462ef0fcfb207094a37a
:10462000d3e900233046394617f092fe2ef0f2fb14
:1046300060700023a370013503340a2d24d028466e
:104640002ef0b6fcdde9082330f038fe02460b46ba
:1046500017f07efedde906230ef00ffd0022894be8
:104660000ff098fb02460b460020874930f026feeb
:1046700006460f4653ec182b2cf0ccfb0028c2d07a
:1046800057ec186bbfe700bf0af1010a0bf13c0bb6
:10469000baf10a0f0fd050462ef08afcdde90a234a
:1046a00030f00cfe02460b4617f052fecde9060133
:1046b0005c460025c3e7754b1b889bb283b1139af8
:1046c000032ab8bf0322012b13dd9342a8bf134670
:1046d000d31a03ebc303023a93fbf2f36c4a136061
:1046e0006b4b1e6800215e9dff2da8bfff2508466d
:1046f00006e00223ece7013108f13c080a2910d05a
:1047000025eae5738e4218bf0023dab2434608f16a
:104710001e049877d87783f820200333a342f8d17a
:10472000e9e71421002015f029fa0e9b13f0010f80
:104730003fd024f0dffc002838d00e9b01330e93cd
:1047400029f080fb2af05afd04460f9bc31ac72ba1
:104750001cd9494b1a88494b1b884e490d684e4954
:104760004e48002d08bf0146484805884c48076858
:1047700049484a4e002f08bf3046029001950091eb
:104780004849002026f0e4f80f9400bf4ff47a70f7
:10479000129b90fbf3f02ef07df8b9f1000f17d1ca
:1047a000109b6bb94ff000090124b8e622f07af8ab
:1047b000c3e722f077f80028bfd124f09bfcbce7c8
:1047c0002af01cfd159bc01a149b9842ead303e003
:1047d0003549002026f0bcf83449002026f0b8f80e
:1047e0004ff416720021324830f0eef81421002008
:1047f00015f0c4f91e202ef04df81421002015f0fc
:10480000bdf92c4b1b884ff6ff72934213d12a4bf4
:104810001b884ff6ff72934213d1284c20682ef06c
:1048200069fe0023236040f2dc5030f075f903206c
:1048300030f0aafa4de5adf86c301ba82bf0c0fba8
:10484000e5e7adf86c301ba82bf09cfbe5e7194bb6
:104850001a884ff6ff739a423ff45dae184a13462a
:104860003fe600bfaff300800000000000feaf4055
:104870009a9999999999e13fde420120e0420120fd
:1048800000002240000019400000f03f22410120ba
:10489000c84201202c3f0120bc670100c067010015
:1048a000143f0120f06801001c6901003c6901000f
:1048b00088210120be4201209a4201201c3f012094
:1048c000b86701004ff6ff73a9f8003032202df0d1
:1048d000e1ff069b013b06933dd0b9f800204ff65f
:1048e000ff739a4237d10024189419941a94adf8a2
:1048f0005c404ff00c088df86e800d278df86f70be
:104900000e268df870600f258df87150adf86cb0e3
:104910001ba82af041fd19202df0bcff8df8608006
:104920008df861708df862608df8635001238df809
:104930006430124b1a93caf8004017a918a816f051
:1049400099ff0028bed1bdf85c30a9f800304ff6c1
:10495000ff729342bad028202df09cff084bd3f869
:104960000080b8f1000f7ff472af0525054e1c469c
:104970008de54ff6ff7333809fe500bfb8571d00ec
:08498000103f01209a420120c2
:020000040000fa
:104988002de9f04f8db0d0f850a00a68436d846dc2
:1049980083ea040e0eea0a0e8eea040ed84bc46ca3
:1049a80023440a9213449e440aeb7e6e4e68436d7c
:1049b8008aea030707ea0e075f40d24b856d2b444e
:1049c800009633441f440eeb37578b681a468aea21
:1049d8000e053d4085ea0a05cb4b446d2344019200
:1049e80013441d4407ebf535cb681c468eea0706d1
:1049f8002e4086ea0e06c54b5344029423441e44b7
:104a080005ebb6260b691c4687ea050333407b4055
:104a1800bf4a039422449644734406eb73694a6977
:104a2800134685ea060404ea09046c40b94a04936b
:104a38001a4417443c4409eb34548b6986ea09024a
:104a480022407240b44f05931f443d442a4404eb6e
:104a5800f232cf6989ea040808ea020888ea0908f4
:104a6800ae4d06973d442e44b04402ebb8280f6a79
:104a780084ea020c0cea080c8cea040ca84d07978f
:104a88003d4409eb05039c4408eb7c6c4d6a82eac3
:104a9800080909ea0c0989ea0209a24b08952b447e
:104aa8001c44a1440ceb39598b6a88ea0c0e0eeab7
:104ab800090e8eea080e0993a3f524434f3b1a44c6
:104ac800964409ebfe3eca6a16468cea090505ead1
:104ad8000e0585ea0c05944b1344984445440eeba7
:104ae800b525d1f8308089ea0e072f4087ea0907f3
:104af8008e4b43449c44674405eb7767d1f834c038
:104b08008eea05033b4083ea0e03894a62449144d6
:104b18004b4407eb3353d1f8389085ea07041c401f
:104b28006c40844a4a449644744403ebf434d1f804
:104b38003ce087ea030222407a407f4971440d44f1
:104b48002a4404ebb22284ea020b0bea030b8bea39
:104b5800040b7a49009d29440f44bb4402ebfb6bcc
:104b680082ea0b07274057407549059d29440b44a5
:104b78001f440bebf7578bea0703134083ea0b0339
:104b880070490b9631440c44234407ebb34387ea3e
:104b9800030505ea0b057d406b490a9c21440a443c
:104ba800154403eb353583ea05023a405a40674914
:104bb800049e31448b445a4405ebf26285ea0201b3
:104bc80019406940624c099e34442744394402eb39
:104bd800f15182ea01042c4054405e4f77443b4433
:104be8001c4401ebb44481ea040313404b405a4f80
:104bf800039e37443d442b4404eb333384ea030bd0
:104c08000bea010b8bea040b544d089e35442a44e9
:104c1800934403ebfb6b83ea0b0727405f40504a42
:104c28004a4411440f440bebf7578bea07051d4024
:104c380085ea0b054b4a02990a441444254407ebbc
:104c4800b54587ea050202ea0b027a404649079e03
:104c580031440b441a4405eb323285ea02033b40e7
:104c68006b40424961448b445b4402ebf36382ea44
:104c78000301294051403e4c019e344427443944a5
:104c880003ebf15183ea010414405c40394f069e5e
:104c980037443d442c4401ebb44481ea040b0bea4d
:104ca80003054d40344f47443a44154404eb353529
:104cb800049fa7f5b822a2f2be6213448bea050b43
:104cc8005b4405eb337384ea05025a402b4f079e79
:104cd80037443944114403eb715185ea030b8beadd
:104ce800010b274a0b9f3a4414445c4401eb3444bb
:104cf80083ea01076740234a4a4415442f4443e0a6
:104d080078a46ad756b7c7e8db702024eecebdc1b9
:104d1800af0f7cf52ac68747134630a8019546fd94
:104d2800d8988069aff7448bbed75c892211906b05
:104d3800937198fd8e4379a62108b44962251ef621
:104d480040b340c0515a5e26aac7b6e95d102fd6b7
:104d58005314440281e6a1d8c8fbd3e7e6cde1218c
:104d6800d60737c3870dd5f4ed145a4505e9e3a9ed
:104d7800f8a3effcd9026f678a4c2a8d81f67187f8
:104d880022619d6d0c38e5fd04eb772781ea04026a
:104d98007a40944d009e35442b44134407eb3373fb
:104da80084ea07025a40904d039e35442944114431
:104db80003eb715187ea030b8bea010b8b4a069dc3
:104dc8002a441444a34401eb3b4b83ea010282eae0
:104dd8000b02874c099d2c4427443a440beb722262
:104de80081ea0b045440834d65442b44234402eb71
:104df80033738bea02075f407f4c0a9e3444214498
:104e08000f4403eb775782ea03057d407b49029cf8
:104e180021448b445d4407eb354583ea070b8bea55
:104e2800050b7749059c21440a44934405eb7b2be9
:104e380087ea050484ea0b04724a08990a44134471
:104e48001c440beb347485ea0b0161406e4b434400
:104e58001f44394404eb71518bea04034b406b4afd
:104e6800724415441d4401eb354584ea01026a4049
:104e7800674b019f3b449b445a4405eb722262ea0c
:104e880001036b40634f37443c44234402ebb36354
:104e980063ea050b8bea020b5f4c069f3c442144f6
:104ea8008b4403ebbb5b6bea02075f405b494944f9
:104eb8000d442f440beb774767ea030484ea0b049d
:104ec8005749049d29440a44144407ebf42464ea2e
:104ed8000b057d40534a424413441d4404ebb56519
:104ee80065ea070888ea04084f4b02990b449b447b
:104ef800d84405ebb85868ea04036b40099aa2f550
:104f08008016a6f683363e44334408eb734363eabf
:104f1800050989ea08094549009e31440c44a14421
:104f280003ebf92969ea08065e40414a07990a44f1
:104f380015442e4409ebb66666ea030181ea0901c5
:104f48003c4a72449044414406ebb15161ea090479
:104f58007440394a059d2a4413441c4401eb7444a7
:104f680064ea06054d40354b634499444d4404ebcf
:104f7800f52565ea01076740314a039b1a44164440
:104f8800374405ebb76767ea04036b402d4a0b9e6d
:104f980032441144194407ebb15161ea05067e40d9
:104fa800294a019b1a441444344401eb7444c36ce9
:104fb8003b44c36464ea07074f40244b089a1344f0
:104fc8001d442f440aeb040505ebf7250565436de1
:104fd8001c444465836d1944816500200db0bde80b
:104fe800f08f00bf44eabea4a9cfde4b604bbbf6ee
:104ff80070bcbfbec67e9b28fa27a1ea8530efd4d5
:10500800051d880439d0d4d9e599dbe6f87ca21fc0
:105018006556acc4442229f497ff2a43a72394abce
:1050280039a093fcc3595b6592cc0c8fd15d848504
:105038004f7ea86fe0e62cfe144301a3a111084e91
:10504800827e53f735f23abdbbd2d72a91d386eb8d
:020000040000fa
:10505800b14b834240f04183b04b93f90020531e7b
:10506800dbb2012b00f239832de9f04f87b0ac4b4e
:105078001b685bb1012a1ad0a94b1c68a64b1b8878
:10508800002b00f01c830025a34e7be0a54b1b687a
:1050980002a89847002800f3f58220b9029810b1b9
:1050a80005f0eaf9eee29d4b00221a70eae29e4b07
:1050b8001b68b3f1ff3fdfd19c4a002105202ef089
:1050c8007dfd994b1860b0f1ff3f2ed02df0b6fb57
:1050d80000eb800303f2e733954aa2fb03239b0905
:1050e8004ff47a7606fb03f3b3fbf0f6914b1e60a0
:1050f8000225914c04e001351034282d00f0d682a9
:105108002368002bf7d0b4f90a20002af3d02146ef
:10511800a8b22df0cbfa0028edd106f5a673b3fba3
:10512800f6f306fb03f6854b1e602ff0d1fe88b917
:1051380020f0b0fc794bff221a702ff0c9fe00282e
:1051480000f0a0822ff0befe4ff0ff327c4925f020
:10515800fbfb97e22ff0b6fe05227a4925f0f4fb17
:10516800e6e7032304222146304626f0f7fe94f8aa
:10517800433043f0800384f8433001357434318878
:105188008d424bdae06c0028f7d0636c9b69984736
:1051980094f8433013f0400fefd0636c5b69e06c18
:1051a80098470028dddb0228e7d100230293039308
:1051b8000493059340f2dc53adf81230636c1b6c1a
:1051c80002a9206d98470298e063bdf80c30a4f856
:1051d8004030bdf80e30003318bf012394f8432047
:1051e80063f3451284f84320bdf81230a4f8663002
:1051f8009df8153084f868309df8143084f86930cb
:1052080094f8423043f0400384f84230d3b203f0bc
:10521800bf0343f0800384f84330aee73f4b93f974
:105228000030012b25d0002027f07efb464b1b6861
:1052380033b9464b1a68464b1b68134300f0228269
:10524800414b1b68002b40f089804ff000083f4b12
:105258001b68002b00f091813c4b00221a60304bf8
:105268001c682d4b1b88002b00f01a811646394ffd
:10527800e8e02b4b1e68002900f027823246002503
:105288002b46012706e007fa03f005430133743281
:10529800994212d092f8430000f00c04042cf2d189
:1052a80010f0800f00f0ee8192f8420010f0400fed
:1052b800ecd007fa03f00543e8e7012202fa03f30a
:1052c800013bab4200f00182134b1b88abb10024b9
:1052d80044f24008104f0ae00323042231463846be
:1052e80026f03cfe013474363b889c4205dab6f859
:1052f800423018ea030ff5d0eee7084bff221a7088
:105308002ff0e6fd002800f0bd812ff0dbfd2a46d6
:10531800114925f019fbb5e1543d01203c4101201c
:105328002440012028400120d042012015260300f6
:10533800d34d62101c400120281f01201840012075
:10534800240d0200f40c0200104001202c40012022
:105358001440012020370120940d02000025b44b91
:105368001d602ff0bbfd04462cf09cfb06460f4643
:1053780022462b462cf056fcae4b1860ae4aa2fbd8
:10538800043292092b46304639462cf04bfcab4b85
:105398001860ab4b1b68ab4a12689b1aab4204dd22
:1053a800a74a13604ff0010851e703f24d13a44ace
:1053b8001360a54b1c68a54b1b88002b00f06c8163
:1053c8000025a24e0ee094f86a3043f0020360f321
:1053d800820360f3000384f86a300135743433883b
:1053e8009d420fda94f8423013f0400ff5d0636c09
:1053f8005b6a206d984794f86a3003f0010398427d
:10540800e1d1eae74ff0010821e74ff0010823e76f
:10541800002503e08c6238462ef04dfd636c5b6b13
:105428002a462946206d984701460028f2d1884a25
:1054380013680133136029e001367434834b1b88e9
:10544800b3422ddd94f8423013f0400ff4d0b4f895
:105458006250636c5b6d206d98470543adb22ff0c9
:1054680015ffb4f8623023ea0503a4f862302ff080
:1054780011ffb4f864302b43a4f86430636c1b6ddf
:105488002946206d984715f0160fc1d194f843307e
:1054980013f0200fd0d0636c9b6b206d9847cbe73f
:1054a8004ff0000bdff8b49109f10c07dff8b0a159
:1054b8000af10803019305e001226ff00c01284668
:1054c8002cf0d0f938462ef029fa054600284bd0a2
:1054d8006b699b891c0a44ea0324a4b2a86a866df6
:1054e8002eb1c36d22462946b0470028ead1284686
:1054f80004f082f90028e5d140f606039c420dd05d
:10550800b4f5006f07d04ff6ff739c42d4d10af16f
:105518001004022604e0019c012601e000265446fe
:105528002b6a23f47c132b62626813432b62608816
:1055380000eb4000294609eb80002ef0bcfc01235b
:1055480003fa06f616ea0b0fbcd14bea060b638882
:10555800404800eb0310038943f001030381002254
:1055680001212ef04bfaade72ff090fe394a138b4c
:1055780023f0010313832ff08dfe334b1b68334a4e
:10558800108820b3002240f286651446324e09e0a6
:105598003168013131600ee0a3f8644001327433a0
:1055a800824214d093f8421011f0400ff6d0b3f8ad
:1055b80064100d42ecd193f86a1011f0020febd091
:1055c80093f86a106ff3410183f86a10e4e7b8f1c1
:1055d800000f66d11f4d05f1300405f5247544e030
:1055e8001344a381238943f002032381002202216b
:1055f80020462ef003fa1034ac420fd02368002b5b
:10560800f9d0b4f90a20002af5d03168a3895b1ac9
:105618009bb219b20029e3dda181ece72ff036fe39
:105628000c4a138923f0020313812ff033fed1e7cc
:105638001040012004400120d34d62100040012099
:10564800184001201c40012024400120543d012025
:105658000c400120081f01200840012014370120b8
:10566800d43303001034ac4209d054f8103c34f859
:10567800082c002bf6d0002af4d09847f2e7174bf5
:105688001b6813b907b0bde8f08f00224ff4807192
:1056980013482ef0b3f9f5e7124b1b68002b7ff483
:1056a800b4ae114c114e04f51875a7e706f5a673ac
:1056b800b3fbf6f306fb03f60d4b1e60dce40d4b63
:1056c80093f90030012b7ff4aead0a4b02221a7019
:1056d800094900202cf056f9a5e57047144001202f
:1056e800181f01202c400120281f01201c400120e8
:0c56f800184001203c410120640d02001c
:020000040000fa
:105704002de9f04f8db083468a4600230893099310
:105714000a930b9343680393aa4b1968002940f337
:10572400a7829146a84b93f8ce30012b00f0a782b4
:105734000023a54d0133d8358b4200f0998295f8aa
:10574400ce20012af6d1a04beb1adb1003ebc302e7
:1057540003eb4203c3eb432303eb8343dbf8002057
:1057640054685a4299490398a047002485f8d140c7
:1057740002232b7485f8cf4041f289336b82944b1a
:10578400ab612df05df804906c6000eb80035b006e
:10579400ab6028602c75c5f8c4b0284628f0a0ff7b
:1057a400baf1010fc8bf012411dc95f8d130002be8
:1057b40000f0e581012b00f00c820db0bde8f08f04
:1057c400012385f8d1300134e4b25445edda59f8b7
:1057d400246002227f4930462ef08cfa0028efd054
:1057e40005227d4930462ef085fa0028e8d00222b1
:1057f4007a4930462ef07efa28b10522784930469f
:105804002ef078fa10b901232b74dce702227549d3
:1058140030462ef06ffa30b10522734930462ef02f
:1058240069fa00285cd101232b741c44e4b259f8b2
:10583400246030462ef04afec7b207f1ff38b04468
:105844006a4940462ef002ffb8b1694940462ef03d
:10585400fdfe00283dd14ff47a7807f1ff3cbcf1fe
:10586400000f33dd00273a464ff0010e3b46059406
:105874007146b64644460e46e3e15d4940462ef085
:10588400e5fe00285b4b0cbf4ff47a789846e4e7ba
:1058940002eb820200eb4202303adce12346059c33
:1058a40003fb07f3424501d208fb02f20892099375
:1058b400dbf80010981800904e684f49dbf804009c
:1058c400b047089b099a1344ab617ce70022134656
:1058d400eae7012208a9304621f05aff089bf3e7c2
:1058e4000222464930462ef005fa28b105224449e1
:1058f40030462ef0fff950b90134e4b2012208a970
:1059040059f8240021f044ff089bab615be70222b5
:105914003c4930462ef0eef928b105223a4930468a
:105924002ef0e8f9b8b9002385f8d1300134e4b297
:10593400042208a959f8240021f02aff089b85f8bd
:105944004430099b85f845300a9b85f846300b9b0b
:1059540085f8473037e702222c4930462ef0caf941
:1059640028b105222a4930462ef0c4f978b9013409
:10597400e4b2012208a959f8240021f009ff089b88
:10598400049a02fb03f3ab6000236b601be7022263
:10599400204930462ef0aef930b105221e4930467a
:1059a4002ef0a8f9002839d10134e4b2012208a963
:1059b40059f8240021f0ecfe089b6b600023ab60d7
:1059c40001e700bf643f012068320120a0450100c7
:1059d40080969800c4430100c8430100d4430100e9
:1059e400d8430100e0430100e4430100f043010017
:1059f400f443010040420f00f84301001444010045
:105a040018440100244401002844010034440100e6
:105a140038440100404401004444010002229949f1
:105a240030462ef067f930b10522974930462ef002
:105a340061f9002836d10134e4b259f824004378de
:105a4400782b17d0012208a921f0a2fe9df820008e
:105a54000246202820d018d9a0281ad0c0281ed148
:105a640010232b75dbf800305e682b7d8749039883
