:020000040000fa
:10000000f0ff0320cd6f0200ef3e0300f33e03003c
:10001000fb3e0300ff3e0300033f0300000000001f
:100020000000000000000000000000000d3f030081
:10003000f73e0300000000000d3f03000d3f0300ea
:100040000d3f03000d3f03000d3f03000d3f030074
:100050000d3f03000d3f03000d3f03000d3f030064
:100060000d3f03000d3f03000d3f03000d3f030054
:100070000d3f03000d3f03000d3f03000d3f030044
:100080000d3f03000d3f03000d3f03000d3f030034
:100090000d3f03000d3f03000d3f03000d3f030024
:1000a0000d3f03000d3f03000d3f03000d3f030014
:1000b0000d3f03000d3f03000d3f03000f3d030004
:1000c000193d03000d3f03000d3f03000d3f0300ea
:1000d0000d3f03000d3f03000d3f03000d3f0300e4
:1000e0000d3f03000d3f0300000000000000000072
:1000f000000000000d3f0300e1930100e1930100c7
:10010000e1930100e193010085bf020085bf020079
:1001100085bf020085bf02000d3f03000d3f0300b5
:100120000d3f03000d3f03000d3f03000d3f030093
:100130000d3f03000d3f03000d3f03000d3f030083
:100140000d3f03000d3f03000d3f03000d3f030073
:100150000d3f03000d3f03000d3f03000d3f030063
:100160000d3f03000d3f03000d3f03000d3f030053
:100170000d3f03000d3f03000d3f03000d3f030043
:100180000d3f03000d3f03000d3f03000d3f030033
:10019000210b03000d3f03000d3f03000d3f030043
:1001a0000d3f03000d3f03000d3f03000d3f030013
:1001b0000d3f03000d3f03000d3f03000d3f030003
:1001c0000d3f03000d3f03000d3f03000d3f0300f3
:1001d0000d3f03000d3f03000d3f03000d3f0300e3
:1001e0000d3f03000d3f03000d3f0300ad0c030066
:1001f0000d3f03000d3f03000d3f03000d3f0300c3
:100200000d3f03000d3f03000d3f03000d3f0300b2
:100210000d3f03000d3f03000d3f03000d3f0300a2
:100220000d3f03000d3f03000d3f03000d3f030092
:100230000d3f03000d3f03000d3f03000d3f030082
:100240000d3f03000d3f03000d3f03000d3f030072
:100250000d3f03000d3f03000d3f03000d3f030062
:040260000d3f03004b
:020000040000fa
:10026400f8b500bff8bc08bc9e467047bde4020068
:10027400f8b500bff8bc08bc9e46704799e402007c
:020000040000fa
:0802840058f300000100000026
:020000040000fa
:10028c002de9f04f8db00f210a2030f0ddff0290e8
:10029c0010f0010f40f05d85029b13f0020f40f04f
:1002ac007c850db0bde8f08fd9f8187007f11002fd
:1002bc00059213f4007f21d1fb6809933b690a93e3
:1002cc0000228df82c2006238df82d30330a43eaba
:1002dc000623adf82e300c2109a829f073fcc0437d
:1002ec0083b2d9f8202012f0040f30d032464146a8
:1002fc00484627f03ffd002840f09a8640462af0f9
:10030c006ff998f80ca04fea1a1a4fea8a03049373
:10031c00d9f81ca0baf80220002a00f08c86fd89be
:10032c00bb891d44baf800301d445540adb2c74bd3
:10033c00d3f800c0bcf1000f00f08086d9f828e09b
:10034c00c34b1b68039300239b4610460ee01a46d2
:10035c003146404629f036fccde7b4f87220824293
:10036c002fd001331bb21c469c452fd9039a52f84f
:10037c002440002cf5d094f876200b2af1d094f878
:10038c0077100129edd8a16c09b18e45e9d1002a6d
:10039c00e3d0b4f87220aa42e3d1daf80010226e4e
:1003ac009142ded1216cfa689142dad1012184f8b4
:1003bc007710c4f848e0059a20462ff0aafba34614
:1003cc0022e0bbf1000f08bfa346cae7bbf1000f48
:1003dc0000f08380fb68cbf8403001218bf877105c
:1003ec00cbf848e0059a58462ff093fbabf87250c7
:1003fc00baf80030abf86030baf80230abf86230c3
:10040c00dbf80030cbf81030d9f810209389049920
:10041c005b1a938198f80d40d8f80870d8f80450fe
:10042c009bf83f3013f0400f5bd19bf875306ff3a6
:10043c0000038bf875309bf87630002b69d0012bbc
:10044c0000f09e801436049aa6eb020a1ffa8afa70
:10045c00aaf1140292b2059214f0010206921abf8c
:10046c00aaf1130a1ffa8af2059a039214f0020fea
:10047c0003d0039a013292b20392dbf81c60dbf8d2
:10048c0020209642c0f0aa80dbf81810dbf814008c
:10049c00091aa6eb020aa1eb0a0a1ffa8af20492c5
:1004ac00dbf85820a5eb020a039a002a00f0a98079
:1004bc00049a002a00f0a080baf1000fc0f29680d6
:1004cc009245c0f0a780039a04998a1a8a45c0f213
:1004dc00a180924540f39e808ee06ff00e0100f0fb
:1004ec0034bc00238bf879309bf83e3013f0020fac
:1004fc009bd130f049ffbbf87020564b1b6803fbb7
:10050c0002f3554aa2fb032300eb9310cbf8240013
:10051c008be714f0040f1ad114f0100f1dd114f046
:10052c00020f27d00135cbf85850404622f0dafba9
:10053c00abf86a0058462ef046fa012212215846b2
:10054c0005f080fb02238bf876300026e6e30021d1
:10055c00584619f0cdfd0026e0e3cbf8547000228c
:10056c000421584605f06efb0021584619f0c0fdd9
:10057c000026d3e30021584619f0bafd0026cde33e
:10058c0014f0040f40f0c98314f0100f00f0a08594
:10059c00dbf85460b74205d114f0020f40f05585da
:1005ac000026bbe3cbf8547001220421584605f019
:1005bc0049fbcbf854600026b0e330f0e5febbf805
:1005cc007020244b1b6803fb02f3234aa2fb03237a
:1005dc0000eb9313cbf8243000f056bda2eb060ac7
:1005ec000af1ff3a1ffa8af2049259e703990a4674
:1005fc00514400293ff768af14f0040f1fd00026b8
:10060c008ce3baf1000f05d0baf1000ff4db049ab9
:10061c009245f1da14f0060f20d114f0100f00f00f
:10062c009083023b072b00f2cc81dfe813f029000a
:10063c003e003e003e003e00ca013e00bd010122cc
:10064c001021584605f0fefa002667e3fc32012023
:10065c00f832012000330120d34d621014f0040f46
:10066c0008d09bf83f3043f002038bf83f304ff437
:10067c00006600e000260021584619f039fd4de3d4
:10068c00dbf85460b74205d103238bf876304ff476
:10069c0080760be0cbf8547001220421584605f00b
:1006ac00d1facbf85460002638e30026dbf81010a2
:1006bc00dbf808305a1a13d4dbf854003b1a9b1a97
:1006cc00002b1dddbbf8742002f40172042a01d149
:1006dc00012b0cd000221021584605f0b3fa1de373
:1006ec00dbf80430dbf800001b1a1a44e4e7013095
:1006fc00cbf854009bf8753043f002038bf875303f
:10070c00dbf85430dbf80c20881a914249d2dbf824
:10071c000420dbf80010521afb1a0344d318079379
:10072c00002b07dddbf80430dbf800209b1a079a5e
:10073c009a4246d9dbf83830002b40f0a280dbf827
:10074c000c20dbf808309a4200f0d980b8f80e3053
:10075c00bbf86e209a4238bfabf86e30dbf85420f1
:10076c00b8f80e303b449b1a9bb2bbf8641031b9fd
:10077c002bb19bf83e1041f040018bf83e10abf8ca
:10078c0064309bf87630042b00f0f080062b40f0a0
:10079c001981974240f0c2820021584619f0a8fcfa
:1007ac00bce2fb1a03440793002b07dddbf8043093
:1007bc00dbf800001b1a0798984202d99142bed070
:1007cc00b8e740f2dc53cbf8343030f0ddfddbf829
:1007dc003420c44b1b6803fb02f3c34aa2fb032364
:1007ec0000eb9313cbf838309bf83e306ff3451386
:1007fc008bf83e30dbf80c10079b0b44cbf80c301d
:10080c00dbf8102091420ed893421cd99a1adbf8cf
:10081c0054100a44cbf85420cbf81030dbf80420e9
:10082c00934224d313e0dbf80410dbf80000091a20
:10083c000a44934207d99a1adbf854100a44cbf8ad
:10084c005420cbf81030dbf80420934205d3dbf8ae
:10085c000010511a5b1acbf80c30dbf810309342b5
:10086c0005d3dbf80010521a9a1acbf810209bf81b
:10087c007630032b02d0082b7ff461af46f00406d0
:10088c005de730f081fddbf83830c31a002bfff642
:10089c0056afdbf834305b00b3f57a4f28bf4ff41a
:1008ac007a43cbf8343030f06ffddbf834208d4bcd
:1008bc001b6803fb02f38c4aa2fb032300eb93138c
:1008cc00cbf83830dbf81010dbf80c20881adbf88a
:1008dc0054301b1acbf85430914207d2dbf8041079
:1008ec00dbf80000091a5b1acbf85430cbf8102057
:1008fc009bf83e3043f080038bf83e301fe79bf8ab
:10090c003f3013f0010f19d113f0400f06d19bf8b3
:10091c003e306ff341038bf83e3017e730f034fd77
:10092c00bbf870206f4b1b6803fb02f34ff47a7219
:10093c00b3fbf2f30344cbf82430e8e7dbf8543094
:10094c009f427ff403af9bf8743013f0040f3ff415
:10095c00fdae9bf83e306ff341038bf83e309bf8b5
:10096c003f306ff300038bf83f30efe6974203d034
:10097c0014f0200f35d0d1e19bf8743013f0040f34
:10098c00f6d030f001fd574b1a6841f2883303fb67
:10099c0002f34ff47a72b3fbf2f30344cbf830302a
:1009ac0005238bf87630e3e7dbf8543001339f42b4
:1009bc0001d00026b2e10021584619f099fb00261f
:1009cc00ace1002614f0200f40f0a8819bf87620b3
:1009dc00a2f10803dbb2012b40f2a081062a00f041
:1009ec009d81059a002a3fd0baf1000f7edd059b50
:1009fc005344049a934203dda2eb0a039bb2059382
:100a0c0098f80c301b0908eb83030893dbf81c10d7
:100a1c00dbf81830059a52440a44934280f0f48073
:100a2c005a1a0132b2eb0a0200f1df801ffa82f887
:100a3c0001240094434608a802465144484628f035
:100a4c002bfa0490059aa2eb080300949bb208aa17
:100a5c00dbf81410484628f01ffa049b034498b2a4
:100a6c00059b834200f0d980039bcbb19bf8763079
:100a7c00033bdbb2022b84bfdbf81c30cbf82030fd
:100a8c009bf83e3013f0100f40f0fa809bf83e308c
:100a9c0043f010038bf83e3013f0080f00f0f68093
:100aac00069b002b00f03a81dbf858300133039a97
:100abc002a44934240f03281cbf8583046f4806699
:100acc009bf83f3043f004038bf83f309bf87630b3
:100adc00023b032b00f20781dfe813f0ec00f5007a
:100aec00fe00150100330120d34d621098f80c3034
:100afc001b09caeb830343440893524493b2049af0
:100b0c009a4228bf1a469246dbf81c10dbf81830c4
:100b1c008a18934259d25b1a01330493bdf81080a2
:100b2c0001240094434608aa484628f0b5f90590dc
:100b3c00aaeb080300949bb208aadbf814104846f1
:100b4c0028f0aaf9059a024490b2049baaeb03037d
:100b5c00dbf814201344504586d1dbf8581051446f
:100b6c00cbf85810cbf81c309bf87620033ad2b255
:100b7c00022a98bf46f40076dbf85c20b2f1ff3f06
:100b8c003ff472afa2eb0a0acbf85ca0bbf868206a
:100b9c0012eb0a0224d4baf1000f3ff765af1144ef
:100bac00cbf858101344cbf81c30dbf818209342c8
:100bbc0006d9dbf81410521ad2431344cbf81c306c
:100bcc004ff0ff33cbf85c304ee7012300935346d4
:100bdc0008aa484628f060f9dbf81c305344bae701
:100bec004ff0ff33cbf85c303ee70af1ff30dbf817
:100bfc0014209b1ac01a01230093059b08aa0144d8
:100c0c00484628f049f92be701230093059b08aad5
:100c1c005144484628f040f922e7dbf85c30b3f148
:100c2c00ff3f15d09a4519d2059a02eb0a01bbf881
:100c3c006820d018814205d88b4203d8a0eb0a0358
:100c4c009bb20593059babf86830cbf85ca00be727
:100c5c00cbf85ca0059babf8683005e7bbf86820c7
:100c6c001a4405980146514491427ff6fdae9245d7
:100c7c003ff6faaeaaeb03031844abf86800f3e6b0
:100c8c0001221021584604f0ddff09e7dbb243f0e6
:100c9c0008038bf83e3030f077fbb14b1a686423b5
:100cac0003fb02f34ff47a72b3fbf2f30344cbf879
:100cbc002c30f5e609238bf87630012211215846a9
:100ccc0004f0c0ff2ae008238bf876309bf87530cf
:100cdc0013f0010f07d021e0dbf854309f4208d00d
:100cec0006238bf8763001221021584604f0aaff17
:100cfc0014e000221021584604f0a4ff00215846ad
:100d0c0019f0f6f90ae000221021584604f09aff77
:100d1c000021584619f0ecf900e00026bbf87a20c7
:100d2c00324000f08e81dbf87c40002c00f08b818f
:100d3c00dbf88030d9f82810bbf93c00a047022121
:100d4c0003e00026eae76ff00d010a2248462ff077
:100d5c0083fb0a2032f0f2f8814600283ff49caa6b
:100d6c00b9f82c60132eeed9d9f81c8098f80c30f9
:100d7c001b09042b0bd9b6eb830f0bdbd9f82030f6
:100d8c0013f400343ff490aa6ff00e01dde76ff01e
:100d9c000d01dae76ff00d01d7e7724b1b68002be2
:100dac003ff47faa00252b46dff8bc91dff8bca1ed
:100dbc00dff8b081e6e030f0e7faa36ac01a002849
:100dcc00a8bf1026f4e030f0dffae36ac01a00285e
:100ddc00c0f2f48094f87630052b00f08a8110264e
:100dec0087f001023146204604f02cffeee030f093
:100dfc00cbfa236bc01a0028c0f2e5800122142123
:100e0c00204604f01fff0021204619f071f9b1e0d3
:100e1c0094f83e6006f001060121204623f043fbc6
:100e2c0094f83e3043f0010384f83e304ff4805286
:100e3c00002120462bf0a7fd002e40f09b8094f85b
:100e4c003e306ff3000384f83e300a2384f876308a
:100e5c0090e030f099fa636ac01a0028c0f28a80d8
:100e6c0094f876104b1e082b00f28280dfe803f01a
:100e7c000541556080688080700094f87830032bb1
:100e8c0040f22b81042384f87830354b1a684ff4e8
:100e9c007a7303fb02f3aafb03239b091b01236553
:100eac000221002694f87830013384f87830236dd1
:100ebc005b0023652069e268831a9bb2904204d2de
:100ecc0060682768c01b03449bb2606dc01a6065e4
:100edc00b4f864000344a4f8643022610022204674
:100eec0004f0b0fe002e45d00021204619f000f988
:100efc0040e094f87830022b40f2f18094f83e6098
:100f0c0006f001031e46002b18bf1421002fc9d177
:100f1c000122204604f096fee4e794f87830042b86
:100f2c0040f2df80042384f8763011210026ede7af
:100f3c0094f87830042b40f2d68014210126e5e792
:100f4c0094f87830042b40f2d08014210126dde790
:100f5c0094f87830042b40f2ca8014210126d5e78e
:100f6c0000330120fc320120f8320120d34d6210f5
:100f7c00002e5ad101352db22b46d8f800209542bf
:100f8c00bff48fa9d9f8002052f82340002cf1d0df
:100f9c0094f876300b2bedd094f83e3013f0c0065d
:100fac001abfdf091026002713f0040f7ff403afdc
:100fbc0094f83e3013f0080f7ff405af94f87630b8
:100fcc00052b3ff414af002e7ff40aaf94f83e309b
:100fdc0013f0020f7ff43daf94f83f3013f0400f45
:100fec00c8d094f87630032bc4d130f0cdf9636ab5
:100ffc00c01a0028bedb94f8792094f884309a4209
:10100c003ff406af02221021204604f01bfe30f004
:10101c00bbf9b4f870203b4b1b6803fb02f3aafb33
:10102c00032300eb93106062a4e7314600266de7c2
:10103c006ff0090189e66ff00e0186e66ff00e0184
:10104c0083e6022181e602217fe60135cbf8585078
:10105c00b8f80e30abf86e30abf86430404621f087
:10106c0041feabf86a0058462df0adfc0122102170
:10107c00584604f0e7fd03238bf876309bf83f309d
:10108c0013f0400f7ff499aa9bf83e306ff34103a5
:10109c008bf83e304ff4807640e60135cbf8585053
:1010ac00b8f80e30abf86e30abf86430404621f037
:1010bc0019feabf86a0058462df085fc012212216e
:1010cc00584604f0bffd02238bf87630002625e647
:1010dc0014f0020fe1d1002620e60221e1e61221f4
:1010ec00dfe61021dde61121dbe61021d9e6112126
:1010fc00d7e630f049f9236bc01a0028bff67eae54
:08110c0010266de600330120fe
:020000040000fa
:101114002de9f04f2ded028b9bb00f21212030f0f3
:1011240097f8002800f007877d4b1b68002b40f3dd
:1011340002877c4c0026dff820929fed7b8ab9e37e
:10114400d4f8c4305d6894f8d1202ab3227c012af3
:1011540042d0022a61d1b4f93830b3f1ff3f25d02f
:101164000023724a4ff40071b4f938002ff0b5fb34
:10117400d4f8bc200221b4f938001bf0effc30b9dc
:10118400d4f8c4301b681b6869492846984706216f
:1011940020462bf059fa86e31b681b6865492846ec
:1011a4009847012120462bf04ffa7ce304f180029a
:1011b400618a012023f0ccfa2087b0f1ff3fcfd120
:1011c400d4f8c4301b681b685b4928469847012142
:1011d40020462bf039fa66e304f18002618a01208b
:1011e40032f089fda087b0f1ff3f0ad00023534ab3
:1011f4004ff480712ff042fd032120462bf024fa96
:1012040051e3d4f8c4301b681b684d4928469847fd
:10121400012120462bf018fa45e31b681b68494955
:1012240028469847012120462bf00efa3be3d4f8d8
:10123400c430d3f804b03b4be31adb1003ebc30216
:1012440003eb4203c3eb432303eb8343c3f1000ae1
:1012540097e0d4f8c4301b681b683b49584698474c
:10126400042120462bf0f0f91de3b4f93c0030f0e2
:1012740070fc18e30133c4f89430284630f07afc4b
:1012840002460b46d4e9080110f0c5ffc4e9080181
:10129400002f19dba36ae26a511c8b4231d09342be
:1012a40020dc616b01f1010161632cd020e0d4f8f2
:1012b400c4301b685b68254958469847236b013b3b
:1012c400a26a1344236391e07f42a76230f060f87e
:1012d400c4f88c00002384f8cc30042120462bf081
:1012e400b3f9d7e75b1a226b13442363a36ae3625f
:1012f4000c3dadb2002d44d0dff858804ff4c867e0
:1013040036e0934206d1d4f8c4301b681b681049f8
:1013140058469847a36ae26a9342e9dde7e700bfcb
:10132400e03201206826012000007a445331030092
:1013340040bf0000f8be00001cbf00003d310300a8
:1013440068bf00008cbf0000a4bf0000c4bf000041
:10135400f0bf000018f000200c3001203a4641464e
:10136400b4f93c001ef05afea5f5c865adb245b10e
:10137400b5f5c86ff2d22a46d149b4f93c001ef043
:101384004dfeb4f93c002ff0b3ff05460b2878d985
:101394000c224946b4f93c001ef040fe0c287ff4b0
:1013a40058afd9f800301f0e47ea03671a0202f457
:1013b4007f0217431b0a03f47f431f43a762d4f839
:1013c4009430002b7ff456af002ffff64eaf01236d
:1013d400c4f89430d4f8c4301b685b685246b949e9
:1013e40058469847a26a002a7ff461afa36ae36271
:1013f40005a9b4f93c001df01bfcb4f93c0032f023
:10140400bbf930f0e3fe069dd4f8c4301b68628a51
:101414000292020e0192c0f3074200925f68c0f389
:101424000723c2b2a8495846b847d4f8c4301b6849
:10143400bdf8582002922a0e0192c5f30742009289
:101444005f68c5f30723eab2a0495846b847656404
:10145400bdf85830a4f864302ff09affc4f888001f
:10146400c4f8a800a36ac4f89c30d4f89430c4f833
:101474009830236bc4f8a030b4f93c0030f069fb19
:101484007fe7d4f894304bb994f8cf30012b40f077
:101494000a82042120462bf0d7f804e22ff078ffcb
:1014a400d4f8a830c31a22689342edd9d4f8942012
:1014b400d4f898309a4212d1d4f8c4301b681b680f
:1014c4008349584698472ff063ffc4f88c000023e3
:1014d40084f8cc30042120462bf0b6f8d4e7002160
:1014e40020460ff057fdcfe7b4f93c002ff000ff82
:1014f40038b994f8cf304bb1092120462bf0a4f829
:10150400d1e1b4f93c0030f024fbcce105212046c4
:101514002bf09af8c7e194f8cd30002b00f0bd8091
:10152400b4f93c002ff0e4fe002840f0be8094f8ab
:10153400cc305a1c84f8cc200a2b00f2bb808021ca
:10154400b4f93c0032f05cfc002800f0ac81e36aa2
:101554005b421a0e42ea0362190201f47f010a4354
:101564001b0a03f47f431343c9f800300025c9f86c
:101574000450c9f808508023c9f80c30c9f8105039
:10158400d4e9080130f028fa020e42ea00620302ac
:1015940003f47f031a43030a03f47f431343c9f894
:1015a40014302ff009ffd4f88c10d4f88830c91afd
:1015b400b1fbf0f31a0e42ea03621f0207f47f073d
:1015c4003a431f0a07f47f473a43c9f8182000fb3f
:1015d400131307ee103ab8ee477a27ee087a07eeaf
:1015e400900af8ee676ac7ee267a67ee887afcee10
:1015f400e77a17ee903a1a0e42ea0362190201f4ee
:101604007f010a431b0a03f47f431343c9f81c30c8
:10161400236b1a0e42ea0362190201f47f010a43a2
:101624001b0a03f47f431343c9f82030636b1a0e7b
:1016340042ea0362190201f47f010a431b0a03f41c
:101644007f431343c9f82430e36a1a0e42ea036263
:10165400190201f47f010a431b0a03f47f43134375
:10166400c9f82830c9f82c50c9f8305034224946fa
:10167400b4f93c002bf0aeff4c273a46294605a8a6
:1016840031f07aff3a4605a9b4f93c002bf0a2ffe9
:10169400b4f93c0010f09efc05e1022120460ff055
:1016a40079fc012384f8cd303ae7b4f93c0030f0fa
:1016b40050faf8e0092120462af0c6fff3e000bf03
:1016c40018f0002028c0000074d70100a8d701003a
:1016d40010c0000094f8cf30012b26d0b4f93800a4
:1016e4002ff07dff002800f0de803822002105a8bd
:1016f40031f042ff05a9b4f9380027f02cfa04f1bf
:10170400400705ad0fcd0fc70fcd0fc70fcd0fc7c6
:1017140095e8030087e80300072120462af094ff98
:10172400b4f938002ff0aefbbde0092120462af0c1
:101734008bffb8e0d4f8c4305f68b4f9380031f0f6
:1017440084ff0546002865d0a36a002b49d1bd4b10
:10175400e31adb1003ebc30203eb4203c3eb4323a3
:1017640003eb8343d4f8c4201268d2f804805a42ad
:10177400b5493846c0472ff00bfec4f88800c4f8ba
:10178400a800a36ac4f89c30b4f9380031f0d4ff3f
:1017940030f01cfdd4f8c4301b68628a0292020e39
:1017a4000192c0f307420092d3f80480c0f30723e8
:1017b400c2b2a6493846c047d4f8c4301b68b4f84e
:1017c4006420029294f84720019294f846200092f3
:1017d400d3f8048094f8453094f844209c49384662
:1017e400c047a36a0133a362d4f894200132c4f839
:1017f4009420e362284630f0bdf902460b46d4e952
:10180400080110f008fdc4e90801dff848824ff42c
:10181400c8671ce0b4f938002ff034fb20b9b4f9e0
:10182400380031f09ffcd8b12ff0b2fdc4f88c0021
:10183400082120462af008ff35e03a464146b4f92b
:1018440038001ff033fca5f5c865adb245b1b5f558
:10185400c86ff2d22a467f49b4f938001ff026fc3b
:10186400a36a63b994f8cf30012b1cd10821204618
:101874002af0eafe2ff08cfdc4f88c0013e02ff060
:1018840087fdd4f8a830c31a22689342ead900210c
:1018940020460ff07ffbe5e794f8cd30c3b3092170
:1018a40020462af0d1fe0136d8346b4b1b68b34274
:1018b40040f3418394f8ce30012bf4d0023b102b3b
:1018c40000f2348301a252f823f000bf4511000056
:1018d40033120000ed1400001b150000d91600009f
:1018e400391700009d18000025190000c1190000d7
:1018f400ed1900002f1c0000151d00001b1e000028
:101904000b1f0000ed1a00007b1e0000211f0000c9
:10191400022120460ff03efb012384f8cd30bee7c0
:10192400d4f8c4305f68237c012b29d0022b2cd03f
:10193400444be31adb1003ebc30203eb4203c3eb98
:10194400432303eb83435d42d4f8c4301b685b68d4
:101954002a4642493846984720462bf09bfc94f887
:10196400d130012b19d0d4f8c4301b685b682a46e7
:101974003b4938469847012120462af065fe92e704
:10198400b4f93c002cf046f8d2e7b4f938002df055
:101994006df94ff6ff732387cae794f8cf30002b15
:1019a400e1d1d4f8c4301b685b682a462d49384617
:1019b4009847022120462af047fe74e7d4f8c8006d
:1019c40031f05ff8032808d10b2120462af03cfeb1
:1019d4002ff0defcc4f8ac0065e704f14401d4f850
:1019e400c8002cf0a0f9efe7d4f8c4305d6894f88f
:1019f400cf20012a17d0d4f8c80031f042f80328c8
:101a04001bd094f8443003f0f003e02b2ed1237c58
:101a1400012b64d0237c022b7ff445af0c2120469c
:101a24002af012fe3fe71b681b680f4928469847b7
:101a3400012120462af008fe35e70022a267a4f817
:101a44007c20e4e76826012028c0000074d7010048
:101a5400a8d7010018f00020e032012054c0000093
:101a6400b8c0000084c00000d8c0000004f17802af
:101a740004f14401d4f8c80024f048fdb8b1d4f806
:101a8400c4301b6894f87d20039294f87c20029261
:101a940094f87b20019294f87a2000925f6894f87d
:101aa400793094f87820c0492846b847afe72ff03a
:101ab4006ffcd4f8ac30c71a2ff07efc00eb80002a
:101ac40087427ff6f0aed4f8c4301b681b68b74970
:101ad400284698472ff05cfcc4f8ac00e3e61021dc
:101ae40020462af0b1fd95e7d4f8c4305d6804f1ce
:101af4004402618a012032f003f9a087b0f1ff3f6c
:101b040000f087800023aa4a4ff480712ff0b6f8c2
:101b1400e2680521b4f93c0009f0ecfa30b9d4f8d4
:101b2400c4301b681b68a349284698470222062133
:101b3400b4f93c0009f0defa30b9d4f8c4301b68bb
:101b44001b689d4928469847d4f8c810b4f93c004e
:101b540029f002fa05a9b4f93c001df069f8bdf8b2
:101b64005a30a4f87e30d4f8c4301b681b689349fb
:101b740028469847d4f8c4301b68628a029294f8c5
:101b84004720019294f8462000925f6894f845300b
:101b940094f844208a492846b847112120462af05f
:101ba40053fd2ff0f5fbc4f888002ef079fd0546af
:101bb4000f4631f05dff79016b0141ead5625b1b91
:101bc40062eb0702510241ead3514fea432c0a4621
:101bd4001ceb050347eb0202910141ea93614fead2
:101be400831cbceb030c61eb0201024600231cebdb
:101bf400050047eb01012ef0fbfdd4f884301844b6
:101c0400c4f890004ff4c86255216e4831f0b4fc1a
:101c140049e6d4f8c4301b681b686b4928469847ca
:101c2400012120462af010fd3de6d4f8c4305d6859
:101c34000022618a012030f0e3fe6087b0f1ff3fab
:101c440051d00023614a4ff400712ef046fed4f8bf
:101c54008030002b53d104f1440300220121b4f954
:101c64003a002af0bdfe4ff48063a4f87e30d4f825
:101c7400c4301b681b68514928469847d4f8c430bf
:101c84001b68628a029294f84720019294f84620d5
:101c940000925f6894f8453094f844204c492846f3
:101ca400b8470d2120462af0cffcd4f8b8200321f0
:101cb400b4f93a001af052ff30b9d4f8c4301b68b2
:101cc4001b683c4928469847b4f93a002ef0eefdcb
:101cd4002ff05efbc4f8ac004ff4c86254213948bd
:101ce40031f04afcdfe5d4f8c4301b681b6839497d
:101cf40028469847012120462af0a6fcd3e504f1a2
:101d04008003628a0121b4f93a001ff091fea2e730
:101d140094f8cf30012b42d0d4f8c4305f68b4f9c2
:101d24003a002ff05cfc002856d0b4f93a002ff0aa
:101d3400a9f82ff02dfbc4f888002ef0b1fc05465d
:101d44000f4631f095fe79016b0141ead5625b1bc8
:101d540062eb0702510241ead3514fea432c0a468f
:101d64001ceb050347eb0202910141ea93614fea40
:101d7400831cbceb030c61eb0201024600231ceb49
:101d8400050047eb01012ef033fdd4f884301844ec
:101d9400c4f890000e2120462af056fc83e50f215a
:101da40020462af051fc7ee538c10000f8c000004e
:101db4003d31030064c100008cc10000a83601005d
:101dc400b4c1000018f0002068bf000053310300c4
:101dd400ecc100001cbf00002ff0dafad4f8ac30dc
:101de400c51a2ff0e9fa00eb800085427ff65bad5f
:101df400b4f93a002cf03aff4ff6ff736387d4f836
:101e0400c4301b681b684e49384698470f2120464a
:101e14002af01afc47e5204607f0f2f901280bd016
:101e240002287ff440ad0f2120462af00dfc2ff04c
:101e3400affac4f88c0036e5424f00bfb4f8b05096
:101e44008db1b5f5c86f28bf4ff4c8652a46394629
:101e5400b4f93a0016f078fcb4f8b0301b1aa4f8c0
:101e6400b0308542ead9b4f93a002ff0cbfb2046d2
:101e740013f0c2fa17e5227d0b21b4f93c0009f0f6
:101e840039f9204607f0bcf901280bd002287ff469
:101e94000aad122120462af0d7fb2ff079fac4f8b4
:101ea4008c0000e5b4f8b05015b30027dff894a017
:101eb400a846b5f5c86f28bf4ff4c86842465146d6
:101ec400b4f93c002bf086fb0744bfb22d1aadb227
:101ed400804501d1002debd1b4f93c0010f07af823
:101ee40040b900221146b4f93c002cf0aefddae40e
:101ef4002f46f1e7b4f8b030df1ba4f8b0702046e9
:101f040013f07afacfe4204627f006fbb4f93a003e
:101f14002cf0acfe4ff6ff736387c4e4204627f031
:101f2400fbfab4f93c002bf075fdbce4012120461a
:101f34002af08afbb7e41bb0bdec028bbde8f08f3e
:081f440024c2000018f0002087
:020000040000fa
:101f4c00383101201c00000000000000ac8c002087
:101f5c000400000000000000a42b0120040000007d
:101f6c0000000000542f01200400000000000000bd
:101f7c00f43401200100000000000000b430012006
:101f8c000400000000000000d8310120080000000f
:101f9c0000000000373101200100000000000000ab
:101fac00b13101200100000000000000e5340120e7
:101fbc000100000000000000c431012004000000fa
:101fcc0000000000e63401200100000000000000c9
:101fdc00643201200400000000000000982f012052
:101fec003c0000000000000000000020e45e000047
:101ffc0000000000903201201c00000000000000d6
:10200c0038be0020100a000000000000e734012058
:10201c0001000000000000006832012008000000f0
:10202c0000000000ac3201200c0000000000000099
:10203c001c2d01206c00000000000000f034012079
:10204c00010000000000000000350120d400000059
:10205c000100000004ba02000000000000000000b3
:10206c000000000000000000000000000000000064
:10207c000000000000000000000000000000000054
:10208c000000000000000000000000000000000044
:10209c000000000000000000000000000000000034
:1020ac000000000000000000000000000000000024
:1020bc000000000000000000000000000000000014
:1020cc000000000000000000000000000000000004
:1020dc0000000000000000000000000000000000f4
:1020ec0000000000000000000000000000000000e4
:1020fc0000000000000000000000000000000000d4
:10210c0000000000000000000000000000000000c3
:10211c0000000000000000000000000000000000b3
:10212c000000000000000000a036012001000000ab
:10213c0001000000ff000000b83201200400000084
:10214c0000000000a82b012080000000000000000f
:10215c00d02e01204400000000000000e9340120d2
:10216c000100000000000000bc320120040000004f
:10217c0000000000b431012010000000000000003d
:10218c00542401200c01000000000000c03201208a
:10219c000400000000000000c83101201000000005
:1021ac0000000000c4320120040000000000000008
:1021bc00e82d01205000000000000000b08c002031
:1021cc007824000000000000ec3401200100000025
:1021dc0000000000c83201200400000000000000d4
:1021ec00b0280120a400000000000000a82c012051
:1021fc007400000000000000e0310120100000001d
:10220c00000000006c3001202800000000000000dd
:10221c00f42901209000000000000000e8340120a7
:10222c000100000000000000cc320120040000007e
:10223c00000000009430012020000000000000008d
:10224c00e434012001000000000000006836012089
:10225c000c00000001000000f4010000d007000099
:10226c00010000001c3601202600000001000000c7
:10227c000800080002000100020008000006000629
:10228c000101540030303a30343a32353a30313a78
:10229c0030323a3031000000443601201200000088
:1022ac000100000030303a30343a32353a30313aad
:1022bc0030323a3034000000583601201000000053
:1022cc00010000000101000045b40200c9e2020057
:1022dc0000000100983601200200000001000000ff
:1022ec0000010000882e01204800000000000000c2
:1022fc00743601200600000001000000ffffffff04
:10230c00ffff000010320120180000000000000048
:10231c00842a01209000000000000000d03201202f
:10232c000c0000000000000068260120d80000000e
:10233c00000000000c300120340000000000000000
:10234c00dc3201200400000000000000ea3401200f
:10235c000100000000000000e03201200400000039
:10236c000000000018f000204006000000000000f3
:10237c00e43201200c000000000000002832012093
:10238c000c00000000000000f031012010000000e3
:10239c0000000000eb3401200100000000000000f0
:1023ac00623201200200000000000000b231012066
:1023bc000200000000000000f032012004000000c8
:1023cc00000000000032012010000000000000009e
:1023dc00f43201201000000000000000c034012085
:1023ec000400000000000000043301200c00000079
:1023fc0000000000ed34012001000000000000008e
:10240c001033012004000000000000007031012096
:10241c001800000000000000143301200c00000024
:10242c0000000000c4340120020000000000000085
:10243c0020330120040000000000000048e80020c8
:10244c00d007000000000000243301201000000021
:10245c0000000000c6340120020000000000000053
:10246c00343301200800000000000000a0310120de
:10247c001100000000000000183101201f000000b6
:10248c00000000003c3301200400000000000000ac
:10249c00c83401200200000000000000403301207d
:1024ac001000000000000000ca34012002000000ef
:1024bc000000000050330120080000000000000064
:1024cc00cc34012002000000000000005833012031
:1024dc001000000000000000ee340120010000009c
:1024ec00000000007c360120040000000100000008
:1024fc0064000000d4350120280000000100000019
:10250c00bb010300d10101004b02010033020300a7
:10251c007c020300dd030300de030300e003030081
:10252c00e1030100b3220100683301200400000024
:10253c0000000000d42f0120380000000000000033
:10254c006c3301201000000000000000142b01204f
:10255c009000000000000000081301208002000021
:10256c00000000007c330120280000000000000067
:10257c00343201200c0000000000000088310120e2
:10258c001800000000000000543101201c00000065
:10259c0000000000a4330120040000000000000033
:1025ac00ef3401200100000000000000a8330120de
:1025bc000400000000000000803601200400000030
:1025cc0001000000ffffffffac3301200c000000f6
:1025dc0000000000583201200a000000000000003a
:1025ec00b83301201c00000000000000ce34012094
:1025fc000200000000000000d4330120080000009d
:10260c0000000000f1340120010000000000000077
:10261c00781c01203402000000000000ac210120d5
:10262c006801000000000000b830012060000000cc
:10263c0000000000f2340120010000000000000046
:10264c00403001202c0000000000000048c8002091
:10265c000010000000000000142f012040000000ba
:10266c00000000007032012010000000000000008b
:10267c00dc3301200400000000000000f3340120d2
:10268c00010000000000000048d8002000080000f5
:10269c0000000000e03301200800000000000000f2
:1026ac00ac1e01208001000000000000403201201f
:1026bc000c0000000000000048e0002000080000b2
:1026cc0000000000f53401200200000000000000b2
:1026dc00803201200800000000000000e8330120d7
:1026ec001000000000000000f73401200100000081
:1026fc00000000006025012008010000000000001f
:10270c00f83301200800000000000000582f0120c1
:10271c00400000000000000054290120a00000002f
:10272c0000000000fe340120020000000100000047
:10273c0001000000882d0120600000000000000056
:10274c0028b10020100d0000000000000034012012
:10275c000400000000000000e45e0020c82d000012
:10276c0000000000f834012001000000000000000f
:10277c0000280120b00000000000000004340120fb
:10278c000800000000000000381a01204002000080
:10279c00000000000c3401200800000000000000c4
:1027ac00142301204001000000000000f934012036
:1027bc00020000000000000040270120c0000000c3
:1027cc00000000001434012008000000000000008c
:1027dc00d03401200200000000000000d8070120c6
:1027ec008805000000000000d23401200200000027
:1027fc000000000098fc0020a00500000000000074
:10280c00d434012002000000000000003802012036
:10281c00a005000000000000fb34012002000000b5
:10282c00000000001c3401200c000000000000001f
:10283c00d634012002000000000000008436012084
:10284c00040000000100000096000000a1360120e9
:10285c0002000000010000000603000042360120c7
:10286c000200000001000000010000008836012079
:10287c000400000001000000dc05000028340120e9
:10288c00080000000000000058f600204006000080
:10289c0000000000282c0120800000000000000037
:1028ac0056360120020000000100000030c000007c
:1028bc00303401201000000000000000fd34012025
:1028cc0001000000000000008c3601200400000014
:1028dc0001000000e00000018815012058020000f2
:1028ec00000000004034012008000000000000003f
:1028fc00600d0120d402000000000000d83401203b
:10290c0002000000000000004834012024000000f8
:10291c0000000000903601200400000001000000bf
:10292c00090000007a3601200200000001000000be
:10293c00ffff00009a360120060000000100000095
:10294c00ffffff07ff0700006c3401201800000098
:10295c0000000000da34012002000000000000003a
:10296c00843401200c00000000000000dc34012045
:10297c00020000000000000090340120080000005c
:10298c0000000000de340120040000000000000004
:10299c00983401200400000000000000e234012003
:1029ac000200000000000000e017012058020000a7
:1029bc000000000034100120d402000000000000d0
:1029cc009c34012008000000000000002c20012095
:1029dc008001000000000000a43401201000000061
:1029ec0000000000943601200400000001000000eb
:1029fc0001000000b43401200400000000000000bd
:102a0c00382e01205000000000000000b8340120d6
:102a1c000400000000000000fc3501202000000034
:102a2c000100000001000000030000000000000095
:102a3c00000000000000000000000000000000008a
:102a4c0088320120883201200800000000000000bc
:102a5c00bc34012004000000000000004c320120b6
:102a6c000c0000000000000000000000000000004e
:020000040000fa
:102a7c0030b587b0044690f99030002b40f00f81b0
:102a8c000378012b04bf0023037090f8d430042b7f
:102a9c0000f25784dfe813f005008b00d9002f01fa
:102aac003b0390f90830b3f1ff3f57d090f8fc206e
:102abc00012a22d051b229b1022a43d0ff2380f837
:102acc009030dce003f01f01c3f34a1303f502005e
:102adc0000f580700022012303fa01f1c00130f0ef
:102aec009fff31f0a5f92cf0e9f9c4f8dc0094f85b
:102afc00fc30013384f8fc30cfe031f099f92cf044
:102b0c00ddf9d4f8dc30984200f0c78094f9083035
:102b1c0003f01f0201219140c3f34a1303f5020095
:102b2c0000f580700a46c00130f07aff31f080f970
:102b3c002cf0c4f9c4f8dc0094f8fc30013384f8b0
:102b4c00fc30aae031f074f92cf0b8f9d4f8dc3090
:102b5c00c31a062b94bf002501258fe090f8fc309a
:102b6c002bb1012b16d0ff2380f8903087e0002387
:102b7c000193b44a009201220321d0f8ec002ff00b
:102b8c0027f9002800f0898094f8fc30013384f890
:102b9c00fc3082e000230193aa4b009301231a46d8
:102bac000321d0f8ec002ff013f9054666e0d0f8bd
:102bbc00ec0094f8fc30042b43d8dfe813f005004c
:102bcc00c6031300c6033300002200929e4b012162
:102bdc002ff0fafb002860d094f8fc30013384f815
:102bec00fc305ae0d4f8e4309a0ac3f30913b2f576
:102bfc00f87f01d11b2b07d09449002026f036fd1d
:102c0c00ff2384f890303ae0002200928e4b9049da
:102c1c002ff0dafb002840d094f8fc30013384f814
:102c2c00fc303ae0d4f8e43003f00f0384f8fe30c3
:102c3c002bbb8849002026f019fdff2384f8903027
:102c4c001de0ff2384f8903027e090f8fc10c1f1d0
:102c5c00220200230093804b92b2804800eb0111ba
:102c6c00d4f8ec0020f05eff94f8fc500544edb273
:102c7c0084f8fc50222d14bf002501256db10023d2
:102c8c0084f8fc3094f8d4300133dbb284f8d430bf
:102c9c00052b04bf022384f890300123237094f990
:102cac009030022b00f0538394f90750c5f34a106f
:102cbc0000f5020000f58070c00131f02df905f02f
:102ccc001f0520fa05f515f0010f40f076832378e7
:102cdc00012b04bf002323700021d4f8ec0009f071
:102cec00affa0123237094f80431002b00f07683a3
:102cfc000023237068e3d0f8ec0094f8fc302f2b01
:102d0c0000f2fe81dfe813f03000300030003000bc
:102d1c003000fc01fc01fc01fc01fc014a004a00f2
:102d2c004a004a004a00fc01fc01fc01fc01fc01c8
:102d3c0070007000700070007000fc01fc01fc0160
:102d4c00fc01fc018b000102b0000102c600010273
:102d5c00dc000102f2000102080130014d01710199
:102d6c009601bb01db01f2010093402305aa05216a
:102d7c00204620f0cdf8054600283ff47faf059b98
:102d8c0023b10a2384f8fc30002577e7344900206e
:102d9c0026f06cfcff2384f890306fe70a3bdbb223
:102dac0000931f2305aa0421204620f0b1f8054604
:102dbc0000283ff463af059b13f0100f18bf43f0ce
:102dcc00e0035bb284f8f03013f1050f04db14233d
:102ddc0084f8fc30002551e72149002026f046fc00
:102dec00ff2384f8903049e7143bdbb200931f2398
:102dfc0005aa0821204620f08bf8054600283ff450
:102e0c003daf059b13f0100f18bf43f0e0035bb20e
:102e1c0084f8f1301e2384f8fc3000252ee70023c3
:102e2c000093094b01220f492ff0cefa05460028da
:102e3c003ff424af94f8fc30013384f8fc300025c7
:102e4c001ce700bf33b901004d0b0300847f020067
:102e5c0094000a00ac7f0200e9320300142d01003b
:102e6c00c47f020084000400d4f8e430a4f8f230eb
:102e7c0000230093bd4b0122bd492ff0a5fa054656
:102e8c0000283ff4fbae94f8fc30013384f8fc309e
:102e9c000025f3e6d4f8e430a4f8f43000230093d2
:102eac00b24b0122b3492ff08ffa054600283ff4ac
:102ebc00e5ae94f8fc30013384f8fc300025dde6f7
:102ecc00d4f8e430a4f8f63000230093a74b012289
:102edc00a9492ff079fa054600283ff4cfae94f8b3
:102eec00fc30013384f8fc300025c7e6d4f8e4301c
:102efc00a4f8f830002300939c4b01229f492ff03b
:102f0c0063fa054600283ff4b9ae94f8fc3001335f
:102f1c0084f8fc300025b1e6d4f8e430a4f8fa309b
:102f2c0094f9f0309bb203f1090291b203f10e0255
:102f3c0092b2120142ea8122b4f8f23003f00f038c
:102f4c001a43002301930093012392b28c492ef073
:102f5c003fff054600283ff491ae94f8fc30013356
:102f6c0084f8fc30002589e694f9f13028339bb2c3
:102f7c00b4f8f420c2f3090242ea8322002301933d
:102f8c000093012392b27a492ef022ff05460028c5
:102f9c003ff474ae94f8fc30013384f8fc30002517
:102fac006ce694f9f0309bb25a1d91b2b4f8f6204d
:102fbc0022f47c5222f03f0242ea012212b292b277
:102fcc0009331a43002301930093012392b26949f8
:102fdc002ef0fefe054600283ff450ae94f8fc306f
:102fec00013384f8fc30002548e694f9f0309bb2ac
:102ffc0003f1090291b2b4f8f82022f47c5222f0c9
:10300c003f0242ea012212b292b20e331a4300235b
:10301c0001930093012392b257492ef0d9fe054635
:10302c0000283ff42bae94f8fc30013384f8fc30cc
:10303c00002523e694f9f0309bb203f1110291b212
:10304c00b4f8fa2022f47c5222f03f0242ea012228
:10305c0012b292b216331a43002301930093012348
:10306c0092b246492ef0b4fe054600283ff406ae57
:10307c0094f8fc30013384f8fc300025fee594f81c
:10308c00fe50002301930093012345f6217243f671
:10309c0031719d4218bf0a463a492ef099fe0546f9
:1030ac0000283ff4ebad94f8fe30012b3ff4e6ad75
:1030bc0094f8fc30013384f8fc300025dee5002365
:1030cc0002930193012300934ff440734ff48072e9
:1030dc002d492ef0d4fc054600283ff4cfad94f8d2
:1030ec00fc30013384f8fc300025c7e50023019344
:1030fc00009301237d2225492ef06afe0546bde58d
:10310c00ff2384f890300025b8e50025b6e5d0f80b
:10311c00ec0094f8fc30092b00f20f81dfe813f07f
:10312c000a003c005100630076009500ac00cb0017
:10313c00e4000101637e1bb9042384f8fc30ace588
:10314c00a17d627d00230193114b0093012342ea80
:10315c00012210492ef03cfe00283ff49ead94f85d
:10316c00fc30013384f8fc3097e500bf4d0b0300b5
:10317c008a000400ad000400ae000400af0004009f
:10318c0084000400d000040088000a0039020a0000
:10319c00e932030002ca0400e17d227e0023019380
:1031ac008f4b0093012342ea01228e492ef010fe30
:1031bc0000283ff472ad94f8fc30013384f8fc30f5
:1031cc006be500230193864b0093012383228649f0
:1031dc002ef0fefd00283ff460ad94f8fc30013376
:1031ec0084f8fc3059e5002301937d4b00930123b7
:1031fc004ff400427d492ef0ebfd00283ff44dad1d
:10320c0094f8fc30013384f8fc3046e594f89530a2
:10321c0094f89420120442ea036294f892301a4310
:10322c0094f89310002301936d4b0093012342ea11
:10323c0001226f492ef0ccfd00283ff42ead94f8fe
:10324c00fc30013384f8fc3027e594f8971094f89f
:10325c00962000230193624b0093012342ea012242
:10326c0064492ef0b5fd00283ff417ad94f8fc30fe
:10327c00013384f8fc3010e594f8973094f89620dc
:10328c00120442ea036294f894301a4394f89510ad
:10329c0000230193524b0093012342ea0122564929
:1032ac002ef096fd00283ff4f8ac94f8fc30013376
:1032bc0084f8fc30f1e4a37e002b4ff00003019363
:1032cc00474b00934ff0010314bf102200224ff024
:1032dc0001112ef07dfd00283ff4dfac94f8fc309a
:1032ec00013384f8fc30d8e4e17e49f2e60249f27d
:1032fc00e623002918bf1a46237f0bb142f48072d3
:10330c0000230193364b0093012304212ef060fd22
:10331c0000283ff4c2ac94f8fc30013384f8fc3044
:10332c00bbe400230193354b009301230c224ff493
:10333c0080312ef04dfd0546a0e4ff2384f890303b
:10334c009de4ff2380f89030a7e4002596e4637e8b
:10335c00b3b9d4f8e830002b3ff4a6ac30f068fddc
:10336c002bf0acfdd4f8e830c01a04287ff69cace6
:10337c000023c4f8e830d4f8ec0030f095fc93e46a
:10338c0030f056fd2bf09afdd4f8e030c31ab3f5ab
:10339c007a7fded3c4f8e0002378012b04bf00232e
:1033ac00237000230093164b01221649d4f8ec002d
:1033bc002ff00af801232370cbe794f804316bb19a
:1033cc002378012b3ff494ac002384f804310121c1
:1033dc00d4f8ec0008f034ff0123237007b030bda3
:1033ec00e932030005ca04008700040001ca040086
:1033fc00240001002500010022000100092d03001a
:08340c00471a030003ca040083
:020000040000fa
:103414005478204279746520436f756e742d6c6ff7
:10342400776572203332626974732854784f544c30
:103434004f290000e93a030054782042797465204a
:10344400436f756e742d75707065722031366269c4
:1034540074732854784f544849290000f33a030000
:103464005478204672616d657320772f6f206572e2
:10347400726f722854784654434e54290000000059
:1034840000000000fd3a030054782042726f61642a
:1034940063617374204672616d6573285478424386
:1034a400465429000000000000000000073b030010
:1034b4005478204d756c746963617374204672612d
:1034c4006d65732854784d465429000000000000af
:1034d40000000000113b03005478205061757365af
:1034e400204672616d657328547850465429000053
:1034f4000000000000000000000000001b3b03006f
:1035040054782036342d62797465204672616d6575
:1035140073285478424654363429000000000000d1
:1035240000000000253b030054782036352d31324d
:10353400372062797465204672616d657328544240
:103544004654313237290000000000002f3b0300ad
:103554005478203132382d32353520627974652023
:103564004672616d657328544246543235352900dc
:1035740000000000393b03005478203235362d35e5
:1035840031312062797465204672616d6573285407
:10359400424654353131290000000000433b03000a
:1035a4005478203531322d313032332062797465cc
:1035b400204672616d65732854424654313032336b
:1035c400290000004d3b0300547820313032342d63
:1035d400313531382062797465204672616d6573c6
:1035e400285442465431353138290000573b0300f2
:1035f4005478204672616d6573203e3d203135312b
:103604003820627974652847544246313531382967
:1036140000000000613b0300547820556e6465721d
:1036240072756e204672616d6573206e6f742054de
:103634005865642854785455522900006b3b0300a4
:1036440054782053696e676c6520436f6c6c6973a2
:10365400696f6e204672616d6573285478534346d2
:1036640029000000753b0300547820322d313520a9
:10367400436f6c6c6973696f6e204672616d65731c
:103684002854784d43462900000000007f3b030086
:10369400547820313620436f6c6c6973696f6e20e7
:1036a4004672616d65732854784543434e5429002e
:1036b40000000000893b03005478206c617465208d
:1036c400436f6c6c6973696f6e204672616d6573cc
:1036d4002854784c43434e5429000000933b030084
:1036e4005478204465666572726564204672616d23
:1036f40065732854784454462900000000000000f3
:10370400000000009d3b03005478204361727269fd
:1037140065722053656e7365206572726f72204600
:1037240072616d657328547843534529a73b0300a0
:103734005278204279746520436f756e742d6c6fd6
:10374400776572203332626974732852784f524c11
:103754004f290000b13b0300527820427974652060
:10376400436f756e742d75707065722031366269a1
:1037740074732852784f524849290000bb3b030018
:103784005278204672616d657320772f6f206572c1
:10379400726f722852784652434e5429000000003a
:1037a40000000000c53b030052782042726f616440
:1037b40063617374204672616d6573285278424365
:1037c400465229000000000000000000cf3b030027
:1037d4005278204d756c746963617374204672610c
:1037e4006d6573202852784d465229000000000070
:1037f40000000000d93b03005278205061757365c6
:10380400204672616d657328527850465229000033
:10381400000000000000000000000000e33b030083
:1038240052782036342d62797465204672616d6554
:1038340073285278424652363429000000000000b2
:1038440000000000ed3b030052782036352d313264
:10385400372062797465204672616d65732854421d
:10386400465231323729000000000000f73b0300c4
:103874005278203132382d32353520627974652002
:103884004672616d657328544246523235352900bb
:1038940000000000013c03005278203235362d35fb
:1038a40031312062797465204672616d65732854e4
:1038b4004246523531312900000000000b3c030020
:1038c4005278203531322d313032332062797465ab
:1038d400204672616d65732854424652313032334a
:1038e40029000000153c0300527820313032342d79
:1038f400313531382062797465204672616d6573a3
:103904002854424652313531382900001f3c030007
:103914005278204672616d6573203e3d2031353109
:103924003920627974657328544d584246522900ef
:1039340000000000293c03005278204672616d6546
:1039440073203c203634206279746573285278558c
:10395400465229000000000000000000333c030030
:103964005278204672616d6573203e2031353138be
:103974002062797465732852784f465229000000fa
:10398400000000003d3c03005278206572726f72a3
:10399400204672616d6573203e20313531382062d6
:1039a400797465732852784a52290000473c030011
:1039b400527820435243206572726f7220467261be
:1039c4006d65732852784643534529000000000072
:1039d40000000000513c03005278204c656e67746f
:1039e40068206669656c64206572726f7220467225
:1039f400616d65732852784c464645295b3c03004b
:103a040052782073796d626f6c206572726f7220c8
:103a14004672616d6573285278525345290000003f
:103a240000000000653c0300527820616c69676ef9
:103a34006d656e74206572726f72204672616d6579
:103a44007328527841452900000000006f3c0300b0
:103a54005278205265736f75726365204572726f78
:103a640072202852785252452900000000000000bc
:103a740000000000793c03005278206f7665727272
:103a8400756e206572726f72204672616d6573285f
:103a94005278524f4529000000000000833c030087
:103aa40052782049504864722043686b73756d20c6
:103ab4006572726f72204672616d6573285278491f
:103ac400484345298d3c03005278205443502043f9
:103ad400686b73756d206572726f72204672616dca
:103ae400657328527854434529000000973c03002d
:103af4005278205544502043686b73756d2065726d
:103b0400726f72204672616d657328527855434511
:083b140029000000a13c0300a0
:020000040000fa
:043b1c0001207047cd
:020000040000fa
:103b20002de9f04fadf20c5d012973dc4ff0140b61
:103b3000bbf5fa7f28bf4ff4fa7b2df025f900285a
:103b400074d04ff47a702ff051fe01202ff0a4ffb3
:103b5000b749002025f090fd4ff40c720021b6a863
:103b60002ff00cfdb6a810f0f9f8002840f0948072
:103b70000df5367adae97689aba3d3e9002340461e
:103b800049462cf037fe06460f46c7aaa949002031
:103b900025f072fd0df2da22a749002025f06cfd18
:103ba0000df22442a549002025f066fda44a40f20a
:103bb0004633404649462cf01dfe804689463c224d
:103bc0000023304639462cf015fecde902234ff490
:103bd00061620023304639462cf00cfe104619462f
:103be0003c2200232cf006fecde9000142464b4664
:103bf0009449002025f040fddae9746792490020dd
:103c000025f03afd56ea070314d04ff0010c4ff0af
:103c100000081ae013460a22002158682ff0d6fc4b
:103c20008346002884d14ff0010b86e7874925f0b1
:103c300023fdb2e28649002025f01efd30e000bfe2
:103c400008f10108b8f1090f1fd0c8f12000a8f150
:103c5000200126fa08f307fa00f0034327fa01f1de
:103c60000b4303f00104002554ea0503e8d0794b27
:103c700053f828307849794aac4518bf0a46784944
:103c8000284625f0f9fcac46dae7c6f3412275492f
:103c9000002025f0f1fc03e07349002025f0ecfc46
:103ca0007249002025f0e8fc38220021a8a82ff056
:103cb00065fca8a816f066fb0246002840f08f803d
:103cc000ae9caf9d9df8c032012b13d0684a694964
:103cd000022b18bf0a466849002025f0cdfc9df84c
:103ce000d1324bb1012b3bd0644a6249022b18bf41
:103cf0000a4602e0624aeee7624a6349002025f084
:103d0000bbfc9df8d2226149002025f0b5fce3b24e
:103d10000393c4f307230293c4f307430193240ed0
:103d20000094ebb2c5f307225949002025f0a4fc0a
:103d3000a89ad3b20193c2f307230093c2f30743b7
:103d4000120e5449002025f097fc9df8d0324bb15b
:103d5000012b42d0504a4749022b18bf0a4602e0c5
:103d60004e4acae74e4a4f49002025f085fc4e498d
:103d7000002025f081fc4822002196a82ff0fefbb0
:103d800096a81cf099fa024670b3032847d0474919
:103d9000002025f071fc5a464549002025f06cfcb6
:103da0002ff068fe099000202ff076fe4ff4c870c7
:103db0002ff01cfdbbf1000f00f0f3810023002465
:103dc000cde906344ff0ff314ff0ff32cde9041258
:103dd0001e46a246a146a046abe0364ac3e7364996
:103de000002025f049fcc2e7bdf858220df25a2107
:103df000324827f01ff8bdf86a229ba9304827f007
:103e000019f8bdf87c220df27e212e4827f012f819
:103e1000bdf88e22a4a92c4827f00cf8bbe72b494b
:103e2000002025f029fcb6e700ca9a3b00000000fc
:103e3000f06200002063000038630000506300005f
:103e400000a0b8306863000090630000bc6200000e
:103e5000a4630000b8190300640703002462000093
:103e6000b8630000c0630000d8630000f063000086
:103e70002c620000346200002464000038620000fc
:103e8000286200004c6200003c64000054640000a2
:103e90006c640000a0640000606200000c810000ff
:103ea0006c620000c0640000d864000080650000ff
:103eb000a865000078620000cc8400000c6500005a
:103ec0001865000024650000306500003c650000b6
:103ed0002cf0e8fb401b61eb07014d01430145ea73
:103ee000d0621b1a62eb0102550245ead3555f020c
:103ef0002a463b1841eb0202950145ea93659f0172
:103f0000ff1a65eb0205099a0023381845eb0101f9
:103f10002cf070fc21e009f1010901345b462246d6
:103f2000aa49002025f0a8fb0a202df083fa5c4561
:103f300029d02cf0b7fb05460f464ff40c72002138
:103f40000aa82ff01bfb0aa80ff008ff0028e2d1f7
:103f5000099b002bbcd10020002108f10108361874
:103f60004aeb010adde90423994208bf904238bfb9
:103f7000cde90401dde906238b4208bf8242ccd2a1
:103f8000cde90601c9e7642404fb09f4b4fbfbf4a2
:103f90000194cdf8009043465a468d49002025f003
:103fa0006bfbb8f1000f28d19df8c032022b69d10c
:103fb000884a8949002025f05ffb8849002025f0c8
:103fc0005bfb2ff057fd8246854bd3f800b0854b45
:103fd000d3f800902cf066fb0490069100202ff09f
:103fe0005bfd4ff4c8702ff001fc002425464ff410
:103ff0000c777d4edff8148256e0002542462b46b2
:10400000304651462cf0f6fb06460f464ff47a72c6
:104010000023dde9049a484651462cf0ebfb90461c
:104020004ff47a720023484651462cf0e3fb814658
:104030004ff47a720023dde906ab504659462cf066
:10404000d9fb03924ff47a720023504659462cf064
:10405000d1fb02904ff47a720023304639462cf09f
:10406000c9fb01924ff47a720023304639462cf096
:10407000c1fb009043464a465c49284625f0fcfabd
:1040800092e75c465a4a5b4b022c98bf1a4690e76f
:10409000a6fb0423db0803eb8303a4eb4303092bf8
:1040a0000ed001341e2c12d03a4600210aa82ff05f
:1040b00065fa0aa80ff052fe0028e9d10135e7e7ba
:1040c0001e23621c4146002025f0d6fae9e74a4942
:1040d000002025f0d1fa2cf0e5fabaf1000f32d029
:1040e000049bc01a069b61eb03025401430144ea9e
:1040f000d0611b1a61eb02018c0044ea93749e00ac
:104100002146301842eb0101cb0043ea5073c20054
:1041100010461946524600232cf06cfb304b1f68aa
:10412000a7eb0b072f4b1968a1eb09017a1803467f
:1041300090b1d600b6fbf0f64ff47a7404fb05f4a8
:10414000b4fbf0f40be0264b1f68a7eb0b07254be5
:104150001968a1eb0901ca190026334634460391b8
:104160000297019200951e222449002025f084fa2e
:10417000334622462249002025f07efa21490020bc
:1041800025f07afa2049002025f076fa40f2dc503a
:104190002ff02cfb03202ff07ffc0df20c5dbde80f
:1041a000f08f00200190009003460246084925f058
:1041b00063fa9df8c032022b05d0bbf1000f7ff4eb
:1041c00060af0b4af5e6034af3e600bfec6500007a
:1041d00004660000b06200007066000080660000a7
:1041e0002c34012028340120cdcccccc3c660000fe
:1041f0008062000098620000d8660000f866000047
:104200004467000078670000b4670000c0660000e3
:020000040000fa
:104210002de9f04f2ded048bd1b010900c4611928a
:1042200013930023adf87e30102120a82df0eef876
:1042300018b100202ef0c6fa40b9a149002025f09f
:104240001bfa51b0bdec048bbde8f08f9d4b209a5a
:104250001a6000229c490df17e001bf0fdf99b4b7a
:104260001860002843d0642ca8bf6424012cb8bf78
:104270000124129429f0c2fd954b18604ff6ff738c
:10428000944a1380944a13800023944a136040f2a6
:10429000ff7293490a8093490a80934a1380109bc6
:1042a0004bbb884a039441f289330293d37801933c
:1042b00093780093537812788c49002025f0dcf92c
:1042c0004ff416702ff092fa02202ff0e5fb814b8d
:1042d0001a884ff6ff739a4240f0f5820523069341
:1042e0004ff0040bdff820a2dff8e891b3e2804939
:1042f00025f0c2f9a5e7734a109b0493129b039320
:1043000041f289330293d3780193937800935378e1
:1043100012787849002025f0aff9d1e70027adf8f1
:1043200060708df86270adf85c704ff0080a8df81f
:104330006ea04ff009098df86f900223adf86c3034
:104340001ba829f05bff19202df074f88df860a0f0
:104350008df8619001238df86230674b1f602760f4
:1043600017a918a81df050fd002840f0ba82bdf82a
:104370005c3033804ff6ff72934256d044e00327ff
:104380008df86c7002238df86d3008238df86e3037
:1043900019202df04ff839461ba827f0fbfe0346e5
:1043a000002841d004238df86c3001238df86d3046
:1043b00007238df86e3019202df03cf839461ba8e4
:1043c00027f0e8fe034678b300238df86c308df8b3
:1043d0006d308df86e3019202df02cf839461ba861
:1043e00027f0d8fe031c18bf01231de032202df05a
:1043f00021f8013d1fd02368002b40f0e081328876
:104400004ff6ff739a4289d00023adf8603018a9a7
:104410000e2023f057f9034630b1bdf8602041f279
:1044200058039a42abd0434623602368002bddd06b
:10443000012d40f0c481274b1a884ff6ff739a4232
:1044400021d02e4a254b18682c4b2d49002808bf37
:104450000b462c49002025f00ff946202ff0bef91d
:1044600029f0ccfc159000202ff05bfc0d904ff450
:104470007a73109a03fb02f3149300230e930f93a5
:104480009fed0d9b44e11e4adce74ff001092246f7
:104490001ba90d982bf0cafc002837dd9df86c3065
:1044a000032bf2d003f0df03512b08bf4ff00109bb
:1044b000ede700bfaff30080000000000000000047
:1044c000205b010044340120e763020054340120e2
:1044d000603401209a3601207a36012048340120c8
:1044e0009c3601209e360120d8340120745b0100e7
:1044f000545b0100c05b010040340120145b0100eb
:104500000c5b0100105c01005c340120b64b188884
:10451000b64b1c88a4b240f6ff75281a2df02cfb70
:104520000022b34b16f0e8fdaba3d3e900230ef055
:1045300001fdcde90801281b2df01efb0022ac4b2c
:1045400016f0dafda4a3d3e900230ef0f3fccde9c5
:104550000a01dff8cc82c3464ff0000ab0ee498a68
:10456000f0ee698a119bff2ba8bfff23012bb8bf78
:1045700001230c9347e00c982df0fefa32463b469f
:1045800016f0bafd06460f462df028fa207094a3c7
:10459000d3e900233046394616f0aefd2df01efa61
:1045a00060700023a370013503340a2d24d02846ff
:1045b0002df0e2fadde908232ff054fc02460b4609
:1045c00016f09afddde906230df027fe0022894b47
:1045d0000ef0b0fc02460b46002087492ff042fc4b
:1045e00006460f4653ec182b2bf010fa0028c2d0c9
:1045f00057ec186bbfe700bf0af1010a0bf13c0b47
:10460000baf10a0f0fd050462df0b6fadde90a23b1
:104610002ff028fc02460b4616f06efdcde9060190
:104620005c460025c3e7754b1b889bb283b1139a88
:10463000032ab8bf0322012b13dd9342a8bf134600
:10464000d31a03ebc303023a93fbf2f36c4a1360f1
:104650006b4b1e6800215e9dff2da8bfff250846fd
:1046600006e00223ece7013108f13c080a2910d0ea
:1046700025eae5738e4218bf0023dab2434608f1fb
:104680001e049877d87783f820200333a342f8d10b
:10469000e9e71421002014f07ffa0e9b13f0010fbc
:1046a0003fd023f0effe002838d00e9b01330e934d
:1046b00028f06cfc29f0a2fb04460f9bc31ac72b01
:1046c0001cd9494b1a88494b1b884e490d684e49e5
:1046d0004e48002d08bf0146484805884c480768e9
:1046e00049484a4e002f08bf30460290019500917c
:1046f0004849002024f0c0ff0f9400bf4ff47a70a7
:10470000129b90fbf3f02cf095feb9f1000f17d13e
:10471000109b6bb94ff000090124b8e621f0ecf9c9
:10472000c3e721f0e9f90028bfd123f0abfebce7d5
:1047300029f064fb159bc01a149b9842ead303e04e
:104740003549002024f098ff3449002024f094ffdc
:104750004ff41672002132482ef010ff1421002071
:1047600014f01afa1e202cf065fe1421002014f01b
:1047700013fa2c4b1b884ff6ff72934213d12a4b2e
:104780001b884ff6ff72934213d1284c20682df0fe
:1047900095fc0023236040f2dc502ff027f8032023
:1047a0002ff07af94de5adf86c301ba82af05efccd
:1047b000e5e7adf86c301ba82af03afce5e7194ba9
:1047c0001a884ff6ff739a423ff45dae184a1346bb
:1047d0003fe600bfaff300800000000000feaf40e6
:1047e0009a9999999999e13f9c3601209e3601202a
:1047f00000002240000019400000f03fd8340120a2
:104800009036012064340120185b01001c5b01001c
:104810004c3401204c5c0100785c0100985c010084
:10482000881501209a3601207a360120543401205f
:10483000145b01004ff6ff73a9f8003032202cf012
:10484000f9fd069b013b06933dd0b9f800204ff6d9
:10485000ff739a4237d10024189419941a94adf832
:104860005c404ff00c088df86e800d278df86f704e
:104870000e268df870600f258df87150adf86cb074
:104880001ba829f0bbfc19202cf0d4fd8df860800a
:104890008df861708df862608df8635001238df89a
:1048a0006430124b1a93caf8004017a918a816f0e2
:1048b0008bf80028bed1bdf85c30a9f800304ff667
:1048c000ff729342bad028202cf0b4fd084bd3f8e5
:1048d0000080b8f1000f7ff472af0525054e1c462d
:1048e0008de54ff6ff7333809fe500bfb8571d007d
:0848f000483401207a36012052
:020000040000fa
:1048f8002de9f04f8db0d0f850a00a68436d846d53
:1049080083ea040e0eea0a0e8eea040ed84bc46c33
:1049180023440a9213449e440aeb7e6e4e68436d0c
:104928008aea030707ea0e075f40d24b856d2b44de
:10493800009633441f440eeb37578b681a468aeab1
:104948000e053d4085ea0a05cb4b446d2344019290
:1049580013441d4407ebf535cb681c468eea070661
:104968002e4086ea0e06c54b5344029423441e4447
:1049780005ebb6260b691c4687ea050333407b40e6
:10498800bf4a039422449644734406eb73694a6908
:10499800134685ea060404ea09046c40b94a0493fc
:1049a8001a4417443c4409eb34548b6986ea0902db
:1049b80022407240b44f05931f443d442a4404ebff
:1049c800f232cf6989ea040808ea020888ea090885
:1049d800ae4d06973d442e44b04402ebb8280f6a0a
:1049e80084ea020c0cea080c8cea040ca84d079720
:1049f8003d4409eb05039c4408eb7c6c4d6a82ea54
:104a0800080909ea0c0989ea0209a24b08952b440e
:104a18001c44a1440ceb39598b6a88ea0c0e0eea47
:104a2800090e8eea080e0993a3f524434f3b1a4456
:104a3800964409ebfe3eca6a16468cea090505ea61
:104a48000e0585ea0c05944b1344984445440eeb37
:104a5800b525d1f8308089ea0e072f4087ea090783
:104a68008e4b43449c44674405eb7767d1f834c0c8
:104a78008eea05033b4083ea0e03894a6244914467
:104a88004b4407eb3353d1f8389085ea07041c40b0
:104a98006c40844a4a449644744403ebf434d1f895
:104aa8003ce087ea030222407a407f4971440d4482
:104ab8002a4404ebb22284ea020b0bea030b8beaca
:104ac800040b7a49009d29440f44bb4402ebfb6b5d
:104ad80082ea0b07274057407549059d29440b4436
:104ae8001f440bebf7578bea0703134083ea0b03ca
:104af80070490b9631440c44234407ebb34387eacf
:104b0800030505ea0b057d406b490a9c21440a44cc
:104b1800154403eb353583ea05023a405a406749a4
:104b2800049e31448b445a4405ebf26285ea020143
:104b380019406940624c099e34442744394402ebc9
:104b4800f15182ea01042c4054405e4f77443b44c3
:104b58001c4401ebb44481ea040313404b405a4f10
:104b6800039e37443d442b4404eb333384ea030b60
:104b78000bea010b8bea040b544d089e35442a447a
:104b8800934403ebfb6b83ea0b0727405f40504ad3
:104b98004a4411440f440bebf7578bea07051d40b5
:104ba80085ea0b054b4a02990a441444254407eb4d
:104bb800b54587ea050202ea0b027a404649079e94
:104bc80031440b441a4405eb323285ea02033b4078
:104bd8006b40424961448b445b4402ebf36382ead5
:104be8000301294051403e4c019e34442744394436
:104bf80003ebf15183ea010414405c40394f069eef
:104c080037443d442c4401ebb44481ea040b0beadd
:104c180003054d40344f47443a44154404eb3535b9
:104c2800049fa7f5b822a2f2be6213448bea050bd3
:104c38005b4405eb337384ea05025a402b4f079e09
:104c480037443944114403eb715185ea030b8bea6d
:104c5800010b274a0b9f3a4414445c4401eb34444b
:104c680083ea01076740234a4a4415442f4443e036
:104c780078a46ad756b7c7e8db702024eecebdc14a
:104c8800af0f7cf52ac68747134630a8019546fd25
:104c9800d8988069aff7448bbed75c892211906b96
:104ca800937198fd8e4379a62108b44962251ef6b2
:104cb80040b340c0515a5e26aac7b6e95d102fd648
:104cc8005314440281e6a1d8c8fbd3e7e6cde1211d
:104cd800d60737c3870dd5f4ed145a4505e9e3a97e
:104ce800f8a3effcd9026f678a4c2a8d81f6718789
:104cf80022619d6d0c38e5fd04eb772781ea0402fb
:104d08007a40944d009e35442b44134407eb33738b
:104d180084ea07025a40904d039e354429441144c1
:104d280003eb715187ea030b8bea010b8b4a069d53
:104d38002a441444a34401eb3b4b83ea010282ea70
:104d48000b02874c099d2c4427443a440beb7222f2
:104d580081ea0b045440834d65442b44234402eb01
:104d680033738bea02075f407f4c0a9e3444214428
:104d78000f4403eb775782ea03057d407b49029c89
:104d880021448b445d4407eb354583ea070b8beae6
:104d9800050b7749059c21440a44934405eb7b2b7a
:104da80087ea050484ea0b04724a08990a44134402
:104db8001c440beb347485ea0b0161406e4b434491
:104dc8001f44394404eb71518bea04034b406b4a8e
:104dd800724415441d4401eb354584ea01026a40da
:104de800674b019f3b449b445a4405eb722262ea9d
:104df80001036b40634f37443c44234402ebb363e5
:104e080063ea050b8bea020b5f4c069f3c44214486
:104e18008b4403ebbb5b6bea02075f405b49494489
:104e28000d442f440beb774767ea030484ea0b042d
:104e38005749049d29440a44144407ebf42464eabe
:104e48000b057d40534a424413441d4404ebb565a9
:104e580065ea070888ea04084f4b02990b449b440b
:104e6800d84405ebb85868ea04036b40099aa2f5e0
:104e78008016a6f683363e44334408eb734363ea50
:104e8800050989ea08094549009e31440c44a144b2
:104e980003ebf92969ea08065e40414a07990a4482
:104ea80015442e4409ebb66666ea030181ea090156
:104eb8003c4a72449044414406ebb15161ea09040a
:104ec8007440394a059d2a4413441c4401eb744438
:104ed80064ea06054d40354b634499444d4404eb60
:104ee800f52565ea01076740314a039b1a441644d1
:104ef800374405ebb76767ea04036b402d4a0b9efe
:104f080032441144194407ebb15161ea05067e4069
:104f1800294a019b1a441444344401eb7444c36c79
:104f28003b44c36464ea07074f40244b089a134480
:104f38001d442f440aeb040505ebf7250565436d71
:104f48001c444465836d1944816500200db0bde89b
:104f5800f08f00bf44eabea4a9cfde4b604bbbf67e
:104f680070bcbfbec67e9b28fa27a1ea8530efd465
:104f7800051d880439d0d4d9e599dbe6f87ca21f51
:104f88006556acc4442229f497ff2a43a72394ab5f
:104f980039a093fcc3595b6592cc0c8fd15d848595
:104fa8004f7ea86fe0e62cfe144301a3a111084e22
:104fb800827e53f735f23abdbbd2d72a91d386eb1e
:020000040000fa
:104fc800b14b834240f04183b04b93f90020531e0c
:104fd800dbb2012b00f239832de9f04f87b0ac4bdf
:104fe8001b685bb1012a1ad0a94b1c68a64b1b8809
:104ff800002b00f01c830025a34e7be0a54b1b680b
:1050080002a89847002800f3f58220b9029810b149
:1050180004f00cfdeee29d4b00221a70eae29e4b72
:105028001b68b3f1ff3fdfd19c4a002105202df01a
:105038008dfb994b1860b0f1ff3f2ed02cf0baf9d8
:1050480000eb800303f2e733954aa2fb03239b0995
:105058004ff47a7606fb03f3b3fbf0f6914b1e6030
:105068000225914c04e001351034282d00f0d68239
:105078002368002bf7d0b4f90a20002af3d0214680
:10508800a8b22cf0cff80028edd106f5a673b3fb33
:10509800f6f306fb03f6854b1e602ef0e1fc88b99b
:1050a8001ff0fcfb794bff221a702ef0d9fc002868
:1050b80000f0a0822ef0cefc4ff0ff327c4924f0a5
:1050c800d7fa97e22ef0c6fc05227a4924f0d0fae6
:1050d800e6e7032304222146304625f0adfd94f887
:1050e800433043f0800384f8433001357434318809
:1050f8008d424bdae06c0028f7d0636c9b699847c7
:1051080094f8433013f0400fefd0636c5b69e06ca8
:1051180098470028dddb0228e7d100230293039398
:105128000493059340f2dc53adf81230636c1b6caa
:1051380002a9206d98470298e063bdf80c30a4f8e6
:105148004030bdf80e30003318bf012394f84320d7
:1051580063f3451284f84320bdf81230a4f8663092
:105168009df8153084f868309df8143084f869305b
:1051780094f8423043f0400384f84230d3b203f04d
:10518800bf0343f0800384f84330aee73f4b93f905
:105198000030012b25d0002026f03afa464b1b6838
:1051a80033b9464b1a68464b1b68134300f02282fa
:1051b800414b1b68002b40f089804ff000083f4ba3
:1051c8001b68002b00f091813c4b00221a60304b89
:1051d8001c682d4b1b88002b00f01a811646394f8e
:1051e800e8e02b4b1e68002900f027823246002594
:1051f8002b46012706e007fa03f005430133743212
:10520800994212d092f8430000f00c04042cf2d119
:1052180010f0800f00f0ee8192f8420010f0400f7d
:10522800ecd007fa03f00543e8e7012202fa03f39a
:10523800013bab4200f00182134b1b88abb1002449
:1052480044f24008104f0ae003230422314638464e
:1052580025f0f2fc013474363b889c4205dab6f836
:10526800423018ea030ff5d0eee7084bff221a7018
:105278002ef0f6fb002800f0bd812ef0ebfb2a464d
:10528800114924f0f5f9b5e154310120ef3401203a
:10529800a0330120a4330120803601208d110300a2
:1052a800d34d621098330120281301209433012034
:1052b80004fb0100d4fa01008c330120a83301203b
:1052c80090330120202b012074fb01000025b44bf2
:1052d8001d602ef0cbfb04462bf0e0f906460f4686
:1052e80022462b462bf082faae4b1860ae4aa2fb40
:1052f800043292092b46304639462bf077faab4bed
:105308001860ab4b1b68ab4a12689b1aab4204ddb2
:10531800a74a13604ff0010851e703f24d13a44a5e
:105328001360a54b1c68a54b1b88002b00f06c81f3
:105338000025a24e0ee094f86a3043f0020360f3b1
:10534800820360f3000384f86a30013574343388cb
:105358009d420fda94f8423013f0400ff5d0636c99
:105368005b6a206d984794f86a3003f0010398420d
:10537800e1d1eae74ff0010821e74ff0010823e700
:10538800002503e08c6238462df05ffb636c5b6b95
:105398002a462946206d984701460028f2d1884ab6
:1053a80013680133136029e001367434834b1b887a
:1053b800b3422ddd94f8423013f0400ff4d0b4f826
:1053c8006250636c5b6d206d98470543adb22ef05b
:1053d80029fdb4f8623023ea0503a4f862302ef000
:1053e80025fdb4f864302b43a4f86430636c1b6d5e
:1053f8002946206d984715f0160fc1d194f843300f
:1054080013f0200fd0d0636c9b6b206d9847cbe7cf
:105418004ff0000bdff8b49109f10c07dff8b0a1e9
:105428000af10803019305e001226ff00c012846f8
:105438002bf014f838462df039f8054600284bd0e3
:105448006b699b891c0a44ea0324a4b2a86a866d86
:105458002eb1c36d22462946b0470028ead1284616
:1054680003f0a6fc0028e5d140f606039c420dd0c7
:10547800b4f5006f07d04ff6ff739c42d4d10af100
:105488001004022604e0019c012601e0002654468f
:105498002b6a23f47c132b62626813432b626088a7
:1054a80000eb4000294609eb80002df0cefa0123dd
:1054b80003fa06f616ea0b0fbcd14bea060b638813
:1054c800404800eb0310038943f0010303810022e5
:1054d80001212df05bf8ade72ef0a4fc394a138bbf
:1054e80023f0010313832ef0a1fc334b1b68334ace
:1054f800108820b3002240f286651446324e09e037
:105508003168013131600ee0a3f864400132743330
:10551800824214d093f8421011f0400ff6d0b3f83d
:1055280064100d42ecd193f86a1011f0020febd021
:1055380093f86a106ff3410183f86a10e4e7b8f151
:10554800000f66d11f4d05f1300405f5247544e0c0
:105558001344a381238943f00203238100220221fb
:1055680020462df013f81034ac420fd02368002bde
:10557800f9d0b4f90a20002af5d03168a3895b1a5a
:105588009bb219b20029e3dda181ece72ef04afcb9
:105598000c4a138923f0020313812ef047fcd1e74c
:1055a8008c33012080330120d34d62107c330120dd
:1055b8009433012098330120a03301205431012075
:1055c800883301200813012084330120142b012083
:1055d8003c1f03001034ac4209d054f8103c34f896
:1055e800082c002bf6d0002af4d09847f2e7174b86
:1055f8001b6813b907b0bde8f08f00224ff4807123
:1056080013482cf0c3fff5e7124b1b68002b7ff4ff
:10561800b4ae114c114e04f51875a7e706f5a6733c
:10562800b3fbf6f306fb03f60d4b1e60dce40d4bf3
:1056380093f90030012b7ff4aead0a4b02221a70a9
:10564800094900202af09affa5e570479033012008
:1056580018130120a83301202813012098330120b2
:0c56680094330120ef34012044fb0100ca
:020000040000fa
:105674002de9f04f8db083468a46002308930993a1
:105684000a930b9343680393aa4b1968002940f3c8
:10569400a7829146a84b93f8ce30012b00f0a78245
:1056a4000023a54d0133d8358b4200f0998295f83b
:1056b400ce20012af6d1a04beb1adb1003ebc30278
:1056c40003eb4203c3eb432303eb8343dbf80020e8
:1056d40054685a4299490398a047002485f8d14058
:1056e40002232b7485f8cf4041f289336b82944bab
:1056f400ab612bf061fe04906c6000eb80035b00f7
:10570400ab6028602c75c5f8c4b0284627f0c2fdec
:10571400baf1010fc8bf012411dc95f8d130002b78
:1057240000f0e581012b00f00c820db0bde8f08f94
:10573400012385f8d1300134e4b25445edda59f847
:10574400246002227f4930462df0b8f80028efd0bb
:1057540005227d4930462df0b1f80028e8d0022218
:105764007a4930462df0aaf828b105227849304606
:105774002df0a4f810b901232b74dce7022275493b
:1057840030462df09bf830b10522734930462df098
:1057940095f800285cd101232b741c44e4b259f819
:1057a400246030462df076fcc7b207f1ff38b044d0
:1057b4006a4940462df02efdb8b1694940462df0a6
:1057c40029fd00283dd14ff47a7807f1ff3cbcf164
:1057d400000f33dd00273a464ff0010e3b46059497
:1057e4007146b64644460e46e3e15d4940462df017
:1057f40011fd00285b4b0cbf4ff47a789846e4e720
:1058040002eb820200eb4202303adce12346059cc3
:1058140003fb07f3424501d208fb02f20892099305
:10582400dbf80010981800904e684f49dbf804002c
:10583400b047089b099a1344ab617ce700221346e6
:10584400eae7012208a9304620f0aafe089bf3e704
:105854000222464930462df031f828b10522444948
:1058640030462df02bf850b90134e4b2012208a9d6
:1058740059f8240020f094fe089bab615be70222f8
:105884003c4930462df01af828b105223a493046f1
:105894002df014f8b8b9002385f8d1300134e4b2fe
:1058a400042208a959f8240020f07afe089b85f800
:1058b4004430099b85f845300a9b85f846300b9b9c
:1058c40085f8473037e702222c4930462cf0f6ffa2
:1058d40028b105222a4930462cf0f0ff78b901346a
:1058e400e4b2012208a959f8240020f059fe089bcb
:1058f400049a02fb03f3ab6000236b601be70222f4
:10590400204930462cf0daff30b105221e493046da
:105914002cf0d4ff002839d10134e4b2012208a9c3
:1059240059f8240020f03cfe089b6b600023ab6018
:1059340001e700bfe0320120682601204037010062
:1059440080969800643501006835010074350100c3
:10595400783501008035010084350100903501005f
:105964009435010040420f0098350100b435010020
:10597400b8350100c4350100c8350100d435010033
:10598400d8350100e0350100e435010002229949cf
:1059940030462cf093ff30b10522974930462cf065
:1059a4008dff002836d10134e4b259f8240043783d
:1059b400782b17d0012208a920f0f2fd9df82000d1
:1059c4000246202820d018d9a0281ad0c0281ed1d9
:1059d40010232b75dbf800305e682b7d8749039814
:1059e400b047a8e683788df81f30c3788df81e3051
:1059f400bdf81e0029f0fef8e2e740b900232b753c
:105a0400e8e720232b75e5e708232b75e2e700235d
:105a14002b75dfe702227a4930462cf04fff28b17c
:105a24000522784930462cf049ff58b90134e4b2d4
:105a3400012208a959f8240020f0b2fd089ba5f81a
:105a4400d23078e60222704930462cf037ff28b174
:105a540005226e4930462cf031ff68b90134e4b2b6
:105a6400012208a959f8240020f09afd089b049a01
