:020000040000fa
:10000000f8ff0320892802006dd2020071d202009d
:1000100079d202007dd2020081d2020000000000ed
:100020000000000000000000000000008dd202006f
:1000300075d20200000000008dd202008dd20200b5
:100040008dd202008dd202008dd202008dd202002c
:100050008dd202008dd202008dd202008dd202001c
:100060008dd202008dd202008dd202008dd202000c
:100070008dd202008dd202008dd202008dd20200fc
:100080008dd202008dd202008dd202008dd20200ec
:100090008dd202008dd202008dd202008dd20200dc
:1000a0008dd202008dd202008dd202008dd20200cc
:1000b0008dd202008dd202008dd20200d9d0020072
:1000c000e3d002008dd202008dd202008dd2020058
:1000d0008dd202008dd202008dd202008dd202009c
:1000e0008dd202008dd2020000000000000000004e
:1000f000000000008dd202001d8901001d89010051
:100100001d8901001d8901004d5e02004d5e020047
:100110004d5e02004d5e02008dd202008dd20200c3
:100120008dd202008dd202008dd202008dd202004b
:100130008dd202008dd202008dd202008dd202003b
:100140008dd202008dd202008dd202008dd202002b
:100150008dd202008dd202008dd202008dd202001b
:100160008dd202008dd202008dd202008dd202000b
:100170008dd202008dd202008dd202008dd20200fb
:100180008dd202008dd202008dd202008dd20200eb
:1001900041a402008dd202008dd202008dd2020055
:1001a0008dd202008dd202008dd202008dd20200cb
:1001b0008dd202008dd202008dd202008dd20200bb
:1001c0008dd202008dd202008dd202008dd20200ab
:1001d0008dd202008dd202008dd202008dd202009b
:1001e0008dd202008dd202008dd2020049a50200fc
:1001f0008dd202008dd202008dd202008dd202007b
:100200008dd202008dd202008dd202008dd202006a
:100210008dd202008dd202008dd202008dd202005a
:100220008dd202008dd202008dd202008dd202004a
:100230008dd202008dd202008dd202008dd202003a
:100240008dd202008dd202008dd202008dd202002a
:100250008dd202008dd202008dd202008dd202001a
:040260008dd2020039
:020000040000fa
:10026400f8b500bff8bc08bc9e4670470182020086
:10027400f8b500bff8bc08bc9e467047dd8102009b
:020000040000fa
:08028400482601000100000002
:020000040000fa
:10028c0061646d696e00000070617373776f7264e6
:10029c000000000054656c6e6574204163636573e7
:1002ac00732041757468656e746963617465640a62
:1002bc000d00000054656c6e6574204163636573ba
:1002cc0073204465636c696e65640a0d0000000060
:1002dc005b4c4f475d20746f74616c3d25752070cd
:1002ec00656e64696e673d2575206f766572666c08
:1002fc006f77733d25752062756673697a653d2548
:10030c00750d0a005b4c4f475d20706f6f6c5f6f13
:10031c0066667365743d257520706f6f6c5f7369cd
:10032c007a653d257520282575206672616d65738b
:10033c002078202575206279746573290d0a0000d8
:10034c005b4c4f475d2072696e672062756666650f
:10035c007220636c65617265640d0a005b4e6f49b7
:10036c00505d2054583d2575202052583d25750d63
:10037c000a0000003d3d3d3d3d3d3d3d3d3d3d3d8b
:10038c003d3d3d3d3d3d3d3d3d3d3d3d3d3d3d3d91
:10039c003d3d3d3d3d3d3d3d3d3d0a0d00000000d8
:1003ac00543153205061636b657420536e696666db
:1003bc006572202d204275696c6420496e666f0a47
:1003cc000d0000004275696c642054696d6573748e
:1003dc00616d703a204a756e2032342032303236dc
:1003ec002031343a32313a34340a0d005465737486
:1003fc002067726f757020636f6d6d616e64733af8
:10040c000a0d0000202068656c7020202020202020
:10041c0020202020202020202020202020202020d0
:10042c002020202d2053686f772074686973206812
:10043c00656c700a0d000000202074696d65737482
:10044c00616d7020202020202020202020202020c2
:10045c00202020202020202d2053686f77206275cb
:10046c00696c642074696d657374616d700a0d003c
:10047c002020697064756d70203c6d6f64653e2042
:10048c002020202020202020202020202020202d53
:10049c002044756d70205258204950207061636b58
:1004ac006574732028303d6f66662c20313d657471
:1004bc0068302c20323d657468312c20333d626fde
:1004cc007468290a0d00000020206d6972726f7229
:1004dc00205b307c315d202020202020202020201b
:1004ec00202020202020202d204d6972726f722038
:1004fc0065746830285431532920525820746f2069
:10050c006574683120666f72205769726573686113
:10051c00726b0a0d0000000020207374617473204c
:10052c0020202020202020202020202020202020bf
:10053c00202020202020202d2053686f7720545815
:10054c002f525820736f66747761726520636f75d4
:10055c006e7465727320666f7220657468302061ea
:10056c006e6420657468310a0d00000020206c61f7
:10057c006e5f7265616420203c616464723e202071
:10058c0020202020202020202020202d205265619a
:10059c006420204c414e383635582072656769739b
:1005ac007465722028686578206164647265737361
:1005bc00290a0d0020206c616e5f777269746520ca
:1005cc003c616464723e203c76616c75653e202013
:1005dc002020202d205772697465204c414e3836ee
:1005ec003558207265676973746572202868657860
:1005fc0020616464722c206865782076616c756566
:10060c00290a0d00202064756d70203c61646472b1
:10061c003e203c636f756e743e20202020202020ed
:10062c002020202d2044756d70206d656d6f7279c2
:10063c00202868657820616464722c20636f756e65
:10064c0074290a0d000000002020706c63615f6e3d
:10065c006f6465205b69645d2020202020202020b1
:10066c00202020202020202d204765742f736574b6
:10067c0020504c4341206e6f646520494420286e05
:10068c006f20617267203d2073686f7720637572ed
:10069c0072656e74290a0d0020206e6f69705f738d
:1006ac00656e64203c6e3e205b6761705f6d735db0
:1006bc00202020202020202d2053656e64204e20e9
:1006cc007261772045746865726e6574206672611c
:1006dc006d65732028457468657254797065203097
:1006ec007838384235290a0d0000000020206e6f42
:1006fc0069705f73746174202020202020202020da
:10070c0020202020202020202020202d2053686f06
:10071c0077204e6f49502054582f525820636f75d4
:10072c006e746572730a0d0020206c6f67636c65c4
:10073c00617220202020202020202020202020201a
:10074c00202020202020202d20436c656172206405
:10075c0065666572726564207061636b6574206c8c
:10076c006f67206275666665720a0d0020206c6fdb
:10077c0067737461742020202020202020202020ea
:10078c0020202020202020202020202d2053686f86
:10079c0077206465666572726564206c6f67207380
:1007ac007461746973746963730a0d000a0d45787a
:1007bc00616d706c653a205465737420706c636164
:1007cc005f6e6f6465202020202020202d3e207a33
:1007dc006569677420616b7475656c6c65204e6f10
:1007ec0064652d49440a0d004578616d706c653a5d
:1007fc00205465737420706c63615f6e6f64652048
:10080c003020202020202d3e207365747a74204ed9
:10081c006f64652d49442061756620302028474d52
:10082c002f436f6f7264696e61746f72290a0d00c9
:10083c004578616d706c653a2054657374206c61f9
:10084c006e5f7265616420307830303034434130f3
:10085c00320a0d0055736167653a206c616e5f77e3
:10086c0072697465203c616464726573735f68655a
:10087c00783e203c76616c75655f6865783e0a0d44
:10088c00000000004578616d706c653a206c616efb
:10089c005f777269746520307830303034303030a6
:1008ac003020307831323334353637380a0d000089
:1008bc004552524f523a2050726576696f757320cb
:1008cc004c414e206f7065726174696f6e20737449
:1008dc00696c6c20696e2070726f67726573730a35
:1008ec000d00000055736167653a206c616e5f7294
:1008fc00656164203c616464726573735f686578dc
:10090c003e0a0d004578616d706c653a206c616e25
:10091c005f72656164203078303030343030303084
:10092c000a0d00004f4e00004f46460065746830bb
:10093c0028543153292d3e65746831206d697272cb
:10094c006f723a2025730a0d0000000020204361cd
:10095c007074757265206f6e20746865205043202a
:10096c0028657468312920696e205769726573682f
:10097c0061726b20746f20736565207468652054f8
:10098c0031532062757320747261666669633a0a2a
:10099c000d000000202052582028656e64706f698d
:1009ac006e74202d3e206272696467653a206f6612
:1009bc00666572732f7265706c6965732f41525046
:1009cc002920414e44207468652062726964676511
:1009dc002773206f776e205544502054582e0a0de3
:1009ec00000000004950204c617965722044756dff
:1009fc00702064652d6163746976617465640a0d99
:100a0c00000000004950204c617965722044756dde
:100a1c007020616374697661746564206f6e206503
:100a2c007468300a0d0000004950204c61796572e1
:100a3c002044756d702061637469766174656420ff
:100a4c006f6e20657468310a0d0000004950204c0f
:100a5c00617965722044756d70206163746976618b
:100a6c00746564206f6e206574683020616e64203c
:100a7c00657468310a0d0000506172616d657465b2
:100a8c0072206f7574206f662072616e67650a0d37
:100a9c00000000005b4e6f49505d20636f756e74f3
:100aac00206d75737420626520312e2e3130300d1f
:100abc000a0000005b4e6f49505d206761705f6dee
:100acc0073206d75737420626520302e2e3130309a
:100adc00300d0a005b4e6f49502d54585d207374d5
:100aec0061727420636f756e743d2575206761703b
:100afc005f6d733d25750d0a000000005b4e6f495c
:100b0c00502d54585d2073656e64206661696c6568
:100b1c0064206174207365713d25750d0a00000019
:100b2c005b4e6f49502d54585d2073656e74207365
:100b3c0065713d25750d0a005b504c43415d20638a
:100b4c00757272656e74206e6f64652049443a202c
:100b5c00257520284e4f44455f434e543d2575293d
:100b6c000d0a00004552524f523a204c414e206f14
:100b7c007065726174696f6e207374696c6c206936
:100b8c006e2070726f67726573730d0a000000003f
:100b9c005b504c43415d206e6f646520494420736b
:100bac00657420746f20257520284e4f44455f4393
:100bbc004e543d25752c207265673d3078253038b4
:100bcc006c58290d0a0000006574683000000000a4
:100bdc00657468310000000025733a206e6f742034
:100bec00666f756e640a0d0025732054583a206f99
:100bfc006b3d2564206572723d2564207146756cd1
:100c0c006c3d25642070656e643d25640a0d000002
:100c1c0025732052583a206f6b3d25642065727203
:100c2c003d2564206e6f627566733d25642070658a
:100c3c006e643d25640a0d0025733a20737461744b
:100c4c0073206e6f7420617661696c61626c650ae9
:100c5c000d00000020202025730a0d002530387867
:100c6c003a2000002025303278000000202020009f
:100c7c002020202573000000205b5452554e435d0c
:100c8c00000000003d3d3d3d3d3d3d3d3d3d3d3d7c
:100c9c003d3d3d3d3d3d3d3d3d3d3d3d3d3d3d3d78
:100cac003d3d3d3d3d3d3d3d3d3d0a0d200000009f
:100cbc00543153205061636b657420536e696666c2
:100ccc0065720a0d200000004c414e383635582014
:100cdc0052656164206661696c656420746f207371
:100cec00746172743a20726573756c743d25640a74
:100cfc000d0000004c414e38363558205265616469
:100d0c002074696d656f757420666f722061646400
:100d1c00723d3078253038580a0d00004c414e3861
:100d2c003635582052656164204f4b3a204164643b
:100d3c00723d3078253038582056616c75653d30e1
:100d4c0078253038580a0d004c414e38363558202d
:100d5c0052656164206661696c656420666f7220ff
:100d6c00616464723d3078253038580a0d000000fb
:100d7c004c414e383635582057726974652066617f
:100d8c00696c656420746f2073746172743a20729c
:100d9c006573756c743d25640a0d00004c414e382a
:100dac003635582057726974652074696d656f7596
:100dbc007420666f7220616464723d30782530381f
:100dcc00580a0d004c414e3836355820577269740c
:100ddc0065204f4b3a20416464723d3078253038a1
:100dec00582056616c75653d3078253038580a0da1
:100dfc00000000004c414e3836355820577269744b
:100e0c0065206661696c656420666f72206164643c
:100e1c00723d3078253038580a0d00005b4e6f4912
:100e2c00502d52585d20232575207365713d257515
:100e3c002066726f6d20253032583a253032583a80
:100e4c00253032583a253032583a253032583a2526
:100e5c00303258206c656e3d25642074733d256cd2
:100e6c006c75206d730d0a0045303a2575206c6544
:100e7c006e3d25752074733d256c6c75206d732546
:100e8c00730d0a0045313a2575206c656e3d25754c
:100e9c002074733d256c6c75206d7325730d0a00e1
:100eac0055736167653a2064756d70203c616464ac
:100ebc00726573735f6865783e203c636f756e7402
:100ecc003e0a0d004578616d706c653a2064756d55
:100edc007020307832303030303030302036340ab8
:100eec000d000000436f756e74206d757374206275
:100efc0065203e20300a0d004d656d6f72792064bf
:100f0c00756d703a203078253038582020257520a2
:100f1c0062797465730a0d003a205465737420432a
:100f2c006f6d6d616e647300546573740000000026
:100f3c0068656c70000000003a2073686f7720546d
:100f4c006573742067726f757020636f6d6d616e61
:100f5c006473000074696d657374616d70000000da
:100f6c003a2073686f77206275696c642074696dc0
:100f7c00657374616d700000697064756d7000004c
:100f8c003a2064756d7020727820697020706163ee
:100f9c006b6574732028303a6f666620313a65743d
:100fac00683020323a6574683120333a626f746865
:100fbc00290000006d6972726f7200003a206d6931
:100fcc0072726f7220657468302854315329205224
:100fdc005820746f206574683120666f72205769d1
:100fec007265736861726b20286d6972726f722002
:100ffc005b307c315d2900007374617473000000f8
:10100c003a2073686f772054582f525820636f75ad
:10101c006e7465727320666f72206574683020611f
:10102c006e642065746831006c616e5f726561641a
:10103c00000000003a2072656164204c414e383645
:10104c00355820726567697374657220286c616eff
:10105c005f72656164203c616464725f6865783eb0
:10106c00290000006c616e5f777269746500000086
:10107c003a207772697465204c414e3836355820c9
:10108c00726567697374657220286c616e5f777224
:10109c00697465203c616464725f6865783e203ccd
:1010ac0076616c75655f6865783e290064756d7056
:1010bc00000000003a2064756d70206d656d6f72d4
:1010cc0079202864756d70203c616464725f68657a
:1010dc00783e203c636f756e743e2900706c6361c2
:1010ec005f6e6f64650000003a206765742f73654e
:1010fc007420504c4341206e6f6465204944202875
:10110c00706c63615f6e6f6465205b69645d2c203d
:10111c006e6f206172673a2073686f772063757207
:10112c0072656e74290000006e6f69705f73656e76
:10113c00640000003a2073656e64204e2072617763
:10114c002045746865726e6574206672616d657396
:10115c0020627970617373696e67205443502073f9
:10116c007461636b20286e6f69705f73656e6420a9
:10117c003c6e3e205b6761705f6d735d2900000003
:10118c006e6f69705f737461740000003a2073684d
:10119c006f77204e6f49502054582f525820636f50
:1011ac00756e7465727300006c6f67636c65617249
:1011bc00000000003a20636c65617220646566650e
:1011cc0072726564207061636b6574206c6f67204c
:1011dc0062756666657200006c6f6773746174008b
:1011ec003a2073686f772064656665727265642057
:1011fc006c6f6720737461746973746963732028ee
:10120c00746f74616c2c2070656e64696e672c2031
:10121c006f766572666c6f777329000050485920a1
:10122c00436f6e643a2025732c20696e206c696eb6
:10123c00653a2025642c200d0a00000050485920e6
:10124c004173736572743a2025732c20696e206c7f
:10125c00696e653a2025642c200d0a004452565fb5
:10126c00504859206f7065726174696f6e20657299
:10127c00726f723a2025640d0a0000004452562009
:10128c0050485920696e6974206661696c65643ace
:10129c002025640d0a000000474d4143000000006a
:1012ac00436869702d5265766973696f6e00000032
:1012bc00504c43412d456e61626c6564000000002a
:1012cc00504c43412d53746174757300504c434121
:1012dc002d4e6f6465496400504c43412d4e6f6434
:1012ec0065436f756e740000504c43412d4275720e
:1012fc007374436f756e7400504c43412d4275727c
:10130c00737454696d6572005443362d4368756e61
:10131c006b53697a6500000054582d4375745468fa
:10132c00726f75676800000052582d4375745468cd
:10133c00726f75676800000050726f6d697363752a
:10134c006f757300535049204672657175656e63f5
:10135c00790000005b736b697070656420256c7597
:10136c005d0d0a002573000053657474696e672067
:10137c006661696c65642c20616464723d3078250b
:10138c00580d0a005b4442475d205f4f6e537461f9
:10139c00747573303a2030782530386c580d0a004b
:1013ac00537461747573302e5472616e736d6974fd
:1013bc002050726f746f636f6c204572726f720d78
:1013cc000a000000537461747573302e5472616e90
:1013dc00736d697420427566666572204f7665720e
:1013ec00666c6f77204572726f720d0a00000000f8
:1013fc00537461747573302e5472616e736d6974ad
:10140c002042756666657220556e646572666c6ff7
:10141c0077204572726f720d0a000000537461746c
:10142c007573302e52656365697665204275666604
:10143c006572204f766572666c6f77204572726f9d
:10144c00720d0a00537461747573302e4c6f737384
:10145c00206f66204672616d696e67204572726fef
:10146c00720d0a00537461747573302e4865616493
:10147c006572204572726f720d0a000053746174ac
:10148c007573302e526573657420436f6d706c6587
:10149c0074650d0a00000000537461747573302e6e
:1014ac0050485920496e746572727570740d0a003b
:1014bc00537461747573302e5472616e736d6974ec
:1014cc002054696d657374616d702043617074751f
:1014dc00726520417661696c61626c6520410d0a10
:1014ec0000000000537461747573302e5472616e79
:1014fc00736d69742054696d657374616d702043ec
:10150c0061707475726520417661696c61626c659d
:10151c0020420d0a00000000537461747573302e64
:10152c005472616e736d69742054696d6573746166
:10153c006d70204361707475726520417661696cc1
:10154c0061626c6520430d0a0000000053746174e5
:10155c007573302e5472616e736d697420467261ae
:10156c006d6520436865636b2053657175656e63ab
:10157c0065204572726f720d0a000000537461741d
:10158c007573302e436f6e74726f6c20446174618e
:10159c002050726f74656374696f6e204572726f40
:1015ac00720d0a00537461747573302e556e6b6e28
:1015bc006f776e204269743d2564207265672d76c5
:1015cc00616c3d307825640d0a000000436f6e6637
:1015dc006967302072656769737465722072656122
:1015ec0064206661696c65640d0a00005b444247c7
:1015fc005d205f4f6e537461747573313a2030788f
:10160c002530386c580d0a00537461747573312e83
:10161c0052585f4e6f6e5f5265636f766572616292
:10162c006c655f4572726f720d0a000053746174c1
:10163c007573312e54585f4e6f6e5f5265636f76c3
:10164c00657261626c655f4572726f720d0a0000a3
:10165c00537461747573312e46534d5f53746174ba
:10166c00655f4572726f720d0a00000053746174ed
:10167c007573312e5352414d5f4543435f45727232
:10168c006f720d0a00000000537461747573312e73
:10169c00556e646572766f6c746167650d0a000037
:1016ac00537461747573312e496e7465726e616c0e
:1016bc005f4275735f4572726f720d0a0000000015
:1016cc00537461747573312e54585f54696d65731e
:1016dc0074616d705f436170747572655f4f766590
:1016ec0072666c6f775f410d0a0000005374617471
:1016fc007573312e54585f54696d657374616d70d8
:10170c005f436170747572655f4f766572666c6f5e
:10171c00775f420d0a000000537461747573312eab
:10172c0054585f54696d657374616d705f4361707b
:10173c00747572655f4f766572666c6f775f430d7b
:10174c000a000000537461747573312e54585f5441
:10175c00696d657374616d705f43617074757265ea
:10176c005f4d69737365645f410d0a005374617456
:10177c007573312e54585f54696d657374616d7057
:10178c005f436170747572655f4d69737365645ff7
:10179c00420d0a00537461747573312e54585f54a2
:1017ac00696d657374616d705f436170747572659a
:1017bc005f4d69737365645f430d0a005374617404
:1017cc007573312e4d434c4b5f47454e5f537461df
:1017dc007475730d0a000000537461747573312ea7
:1017ec00675054505f50415f54535f45475f53748b
:1017fc00617475730d0a0000537461747573312e26
:10180c00457874656e6465645f426c6f636b5f539f
:10181c0074617475730d0a00537461747573312e91
:10182c00556e6b6e6f776e4572726f720d0a00009b
:10183c00457874426c6f636b2e5350495f457272de
:10184c005f496e740d0a0000457874426c6f636bcf
:10185c002e4d41435f424d47525f496e740d0a0055
:10186c00457874426c6f636b2e4d41435f496e74c7
:10187c000d0a0000457874426c6f636b2e484d580e
:10188c005f496e740d0a0000457874426c6f636b8f
:10189c002e47494e545f4d61736b0d0a00000000da
:1018ac00457874426c6f636b2e556e6b6e6f776ef2
:1018bc004572726f720d0a0046696e616c20736519
:1018cc007474696e67206661696c65640d0a00004a
:1018dc00496e76616c6964204d41435048592c2007
:1018ec006f75693d307825582c206d6f64656c3da3
:1018fc00307825580d0a0000496e76616c696420b9
:10190c0043686970205265766973696f6e0d0a00c1
:10191c00636869705f6572726f722120506c6561cb
:10192c00736520636f6e74616374206d6963726f8d
:10193c006368697020737570706f727420666f7253
:10194c00207265706c6163656d656e742e0d0a0096
:10195c005443364572726f725f5375636365656489
:10196c0065640d0a000000005443364572726f72b4
:10197c005f4e6f48617264776172650d0a000000fa
:10198c005443364572726f725f556e65787065633d
:10199c0074656453760d0a005443364572726f7247
:1019ac005f556e6578706563746564447645760d35
:1019bc000a0000005443364572726f725f426164d4
:1019cc00436865636b73756d0d0a000054433645af
:1019dc0072726f725f556e6578706563746564437f
:1019ec0074726c0d0a0000005443364572726f72ab
:1019fc005f4261645478446174610d0a0000000018
:101a0c005443364572726f725f53796e634c6f73c9
:101a1c00740d0a005443364572726f725f537069cd
:101a2c004572726f720d0a005443365f4572726fc5
:101a3c007220756e6b6e6f776e5f666c61673d259d
:101a4c00640d0a005b4442472d43484b35325d2000
:101a5c007473633d307825303258206c656e3d25ab
:101a6c00752063616c6c2325750d0a004c414e3852
:101a7c0036355800644d49494d2041737365727475
:101a8c003a2025732c20696e206c696e653a2025ee
:101a9c00642c200d0a000000496e76616c6964208c
:101aac0064726976657220696e7374616e63650029
:101abc00496e7374616e636520616c7265616479e3
:101acc0020696e2075736500496e76616c696420bf
:101adc0044726976657220496e7374616e63650039
:101aec005761732074686520647269766572206929
:101afc006e697469616c697a65643f00496e7661e0
:101b0c006c6964204472697665722048616e646cfd
:101b1c00650000004661696c656420746f20676520
:101b2c007420636c69656e74206d75746578206cb7
:101b3c006f636b004661696c656420746f20676528
:101b4c0074207265736f75726365206c6f636b00c4
:101b5c00496e73756666696369656e742051756547
:101b6c0075652044657074680000000025733a2583
:101b7c003032583a253032583a253032580000006d
:101b8c0030303a30343a3235000000004c414e3897
:101b9c00363578004d4348505f4c414e38363578d9
:101bac00000000003139322e3136382e302e3138cb
:101bbc00300000003235352e3235352e3235352e8b
:101bcc00300000003139322e3136382e302e3100b3
:101bdc00382e382e382e3800382e382e342e34002d
:101bec0066756c6c000000004d434850424f4152ea
:101bfc00445f43003139322e3136382e302e313895
:101c0c00310000002d7478002d7278002d690000d1
:101c1c002d2d696e6465780055736167653a20698e
:101c2c007065726673203c2d74782073697a653efa
:101c3c00203c2d72782073697a653e203c2d6920fa
:101c4c00696e6465783e0d0a000000000d0a69702b
:101c5c006572663a20496e76616c696420736573af
:101c6c0073696f6e206e756d6265722e204d696e94
:101c7c003a20302c204d61783a2025640d0a000062
:101c8c006970657266733a2030203c2073697a65fe
:101c9c00203c2036353533360d0a000069706572ec
:101cac0066733a204f4b2c20696e7374616e6365ba
:101cbc002025642074782073697a65206973202547
:101ccc00640d0a006970657266733a204f4b2c20c4
:101cdc00696e7374616e636520256420727820735d
:101cec00697a652069732025640d0a006970657234
:101cfc00666b3a205573696e6720696e646578204f
:101d0c00300d0a000d0a6970657266207365737375
:101d1c00696f6e3a206e6f742073746172746564af
:101d2c00210d0a000d0a69706572663a2074727989
:101d3c00696e6720746f2073746f702069706572a0
:101d4c006620696e7374616e63652025642e2e2e79
:101d5c000d0a000055736167653a206970657266fb
:101d6c006b203c2d6920696e6465783e0d0a00007d
:101d7c002d6100006970657266693a207573652083
:101d8c00612076616c6964204950206164647265dd
:101d9c007373210d0a0000006970657266693a2040
:101dac00556e6b6e6f776e20706172616d657465c8
:101dbc00720d0a0055736167653a20697065726629
:101dcc0069202d612061646472657373203c2d69f8
:101ddc0020696e6465783e0d0a0000000d0a69707a
:101dec00657266693a2063616e6e6f742063686118
:101dfc006e67652074686520697020616464726523
:101e0c007373207768696c652073657373696f6e83
:101e1c003a2025642072756e6e696e67210d0a007a
:101e2c006970657266693a204f4b2c20736574207b
:101e3c007468652049502061646472657373207402
:101e4c006f20696e7374616e63653a2025640d0aa8
:101e5c00000000000d0a69706572663a20416c6cd6
:101e6c0020696e7374616e63657320627573792e6d
:101e7c00205265747279206c61746572210d0a00b0
:101e8c002d7300002d2d73657276657200000000b5
:101e9c002d7500002d2d7564700000002d62000062
:101eac002d2d62616e647769647468004d000000ca
:101ebc004b0000000a476976656e20696e20425718
:101ecc003a20256c752b256c753d256c7500000032
:101edc002d7800002d2d786d697472617465000089
:101eec002d6300002d2d636c69656e74000000007d
:101efc002d7400002d2d74696d6500002d6e000091
:101f0c002d2d6e756d0000002d5300002d2d746f5e
:101f1c00730000000a476976656e20544f53207693
:101f2c00616c75652069732025642c206d54797063
:101f3c00654f66536572766963653a2564000000e7
:101f4c002d4d00002d2d6d73730000002d2d696e2d
:101f5c0074657276616c00002d7000002d2d706f11
:101f6c00727400002d6c00002d2d6c656e0000004d
:101f7c0069706572663a20546865206d696e696d8a
:101f8c00756d20646174616772616d2073697a6527
:101f9c002069732025640d0a0000000069706572c9
:101fac00663a205573696e672074686520646566af
:101fbc0061756c7420696e74657266616365210d60
:101fcc000a0000002d2d2d2d2d2d2d2d2d2d2d2ddf
:101fdc002d2d2d2d2d2d2d2d2d2d2d2d2d2d2d2d25
:101fec002d2d2d2d2d2d2d2d2d2d2d2d2d2d2d2d15
:101ffc002d2d2d2d2d2d2d2d2d2d2d2d2d0d0a0075
:10200c0069706572663a20536572766572206c69e8
:10201c007374656e696e67206f6e200055445000b6
:10202c005443500020706f72742025640d0a000018
:10203c000d0a69706572663a205374617274696e28
:10204c00672073657373696f6e20696e7374616e4c
:10205c0063652025640d0a00202020202d205b259f
:10206c00326c752d2025326c75207365635d2025cf
:10207c00336c752f2025336c75202825326c752513
:10208c0025292020202025346c75204b6270730d7f
:10209c000a000000202020202d205b302e302d2027
:1020ac00256c752e256c75207365635d2025336c4e
:1020bc00752f2025336c75202825326c7525252924
:1020cc002020202025346c75204b6270730d0a0083
:1020dc0069706572663a20696e7374616e6365200f
:1020ec00256420636f6d706c65746564202e2e2ed4
:1020fc0000000000697065726620696e7374616e11
:10210c0063652025643a20547820646f6e652e2018
:10211c00536f636b657420636c6f7365642e0d0a6b
:10212c000000000069706572663a20696e73746114
:10213c006e636520256420636f6d706c65746564d7
:10214c002e0d0a0069706572663a20536f636b65d9
:10215c00742073656e64206661696c65640d0a0099
:10216c000d0a69706572663a20696e7374616e63ec
:10217c00652025642073746172746564202e2e2e84
:10218c000d0a0000202020202d204c6f63616c2054
:10219c002025752e25752e25752e257520706f72b0
:1021ac007420257520636f6e6e656374656420778b
:1021bc006974680d0a000000202020202d20526533
:1021cc006d6f74652025752e25752e25752e25753c
:1021dc0020706f72742025750d0a000020202020bd
:1021ec002d205461726765742072617465203d20e6
:1021fc00256c64206270732c20706572696f64208a
:10220c003d20256c642e2530336c64206d732028a2
:10221c0049504720256c6420c2b573290d0a000073
:10222c00202020202d2d2d2d2d2d2d2d2d2d2d2d06
:10223c002d2d2d2d2d2d2d2d2d2d2d2d2d2d2d2dc2
:10224c002d2d2d2d2d2d2d2d2d2d2d2d2d0d0a0022
:10225c000d0a69706572663a205761726e696e6715
:10226c002c20544350207365727665722064697318
:10227c00636f6e6e65637420646574656374656406
:10228c000d0a000069706572663a204661696c65da
:10229c006420746f206765742025642062797465ee
:1022ac007320736f636b6574205458207370616373
:1022bc00650d0a0069706572663a20556e7375700b
:1022cc00706f7274656420436f6e666967757261b6
:1022dc0074696f6e0d0a000069706572663a20436e
:1022ec0072656174652054435020736f636b657421
:1022fc00206661696c65640d0a0000006970657286
:10230c00663a20536574206f6620525820627566b9
:10231c006665722073697a65206661696c65640d07
:10232c000a00000069706572663a20437265617438
:10233c00652055445020736f636b6574206661692a
:10234c006c65640d0a00000069706572663a205075
:10235c00726f746f636f6c206572726f720d0a000e
:10236c0069706572663a2055445020476574204167
:10237c0072726179204661696c65640d0a00000017
:10238c0069706572663a202d2046697273742070ec
:10239c006b74206964203d20256c64202873686f61
:1023ac00756c642062652030290d0a0069706572b5
:1023bc00663a2052656376206475706c696361744b
:1023cc00656420706b740d0a000000006970657202
:1023dc00663a2052782074696d6564206f75740daf
:1023ec000a0000000d0a69706572663a20696e7306
:1023fc0074616e63652025642073657373696f6ef9
:10240c002073746172746564202e2e2e0d0a0000e8
:10241c000d0a697065726620696e7374616e63650e
:10242c002025643a20527820646f6e652e20536ffd
:10243c00636b657420636c6f7365642e0d0a00000a
:10244c00697065726620696e7374616e63652025b0
:10245c00643a20526561647920666f7220746865f5
:10246c00206e6578742073657373696f6e2e0d0a18
:10247c0000000000697065726620696e7374616e8d
:10248c0063652025643a20636f6d706c65746564b8
:10249c002e0d0a0069706572663a20636c69656e70
:1024ac00742073657373696f6e20636c6f736564ee
:1024bc002e0d0a0069706572663a204152502075e3
:1024cc006e61626c6520746f207265736f6c7665db
:1024dc0020746865204d4143206164647265737398
:1024ec00206f662072656d6f746520736964652e4c
:1024fc000d0a0000202020202d2052656d6f746580
:10250c004e6f6465204d41433a2025782025782074
:10251c0025782025782025782025780d0a000000c4
:10252c0069706572663a20536574206f6620545842
:10253c00206275666665722073697a6520666169ca
:10254c006c65640d0a00000069706572663a205370
:10255c006574206f662054582071756575696e67b7
:10256c00206c696d6974206661696c65640d0a0084
:10257c0069706572663a20436c69656e7420636f8e
:10258c006e6e656374696e6720746f2025752e25d9
:10259c00752e25752e25752c2055445020706f7284
:1025ac00742025750d0a000069706572663a204327
:1025bc006c69656e7420636f6e6e656374696e67ab
:1025cc0020746f2025752e25752e25752e25752cbe
:1025dc002054435020706f72742025750d0a000032
:1025ec0069706572663a2054435020436c69656e7d
:1025fc007420636f6e6e656374696f6e2074696da1
:10260c00656f75740d0a00003a206970657266205a
:10261c00636f6d6d616e64730000000069706572ac
:10262c00660000003a20203c69706572663e20739b
:10263c007461727420636d640000000069706572cf
:10264c00666b00003a203c69706572666b3e206bcd
:10265c00696c6c20636d640069706572666900005a
:10266c003a203c69706572666920616464726573b6
:10267c00733e2020696e7465726661636520636dbc
:10268c006400000069706572667300003a203c6952
:10269c0070657266732074782f72782073697a650e
:1026ac003e2074782f72782073697a6520636d648c
:1026bc00000000004950763420496e69743a204677
:1026cc0061696c656420746f20696e6974616c69f2
:1026dc007a653a20256421200d0a00004950763491
:1026ec003a204661696c656420746f207265676975
:1026fc007374657220415250206e6f746966696301
:10270c006174696f6e21200d0a0000004950763407
:10271c003a2041525020656e747269657320706f57
:10272c006f6c20656d707479210d0a005443502034
:10273c004e554c4c2064796e616d696320616c6cf4
:10274c006f636174696f6e2068616e646c652f696c
:10275c006e69742064617461000000002054435061
:10276c002044796e616d696320616c6c6f63617478
:10277c00696f6e206661696c656400006d69696dd6
:10278c00206f70656e3a206661696c6564210d0a74
:10279c0000000000737461746963000064796e61f9
:1027ac006d6963006578740076616c696400000083
:1027bc00696e76616c696400737461747573000082
:1027cc007374617475733a2025640d0a000000005f
:1027dc00636c72006661696c656420746f20676558
:1027ec0074207374617473210d0a00007374617426
:1027fc00732072657475726e65643a2025640d0ad7
:10280c000000000009206661696c506b74416c6caf
:10281c006f633a2025642c206661696c4463707484
:10282c00416c6c6f633a2025642c206661696c4c9a
:10283c006f636b733a2025642c2066646246756c5a
:10284c006c3a2025640d0a0009206661696c4d61a3
:10285c00633a2025642c206661696c4d74753a20ae
:10286c0025642c206661696c53697a653a2025646d
:10287c000d0a00000920616c6c6f635061636b651d
:10288c0074733a2025642c2066726565645061630c
:10289c006b6574733a2025642c2061636b50616303
:1028ac006b6574733a2025642c2064656c617950d7
:1028bc0061636b6574733a2025640d0a0000000097
:1028cc000920706b74506f6f6c53697a653a2025d0
:1028dc00642c20706b74506f6f6c4c6f7753697aeb
:1028ec00653a2025642c20706b74506f6f6c456dad
:1028fc007074793a2025640d0a0000000920646385
:10290c007074506f6f6c53697a653a2025642c2073
:10291c0064637074506f6f6c4c6f7753697a653a5f
:10292c002025642c2064637074506f6f6c456d703f
:10293c0074793a2025640d0a000000000920706f9c
:10294c0072742025642073746174733a0d0a00004c
:10295c00090920706b747320726563656976656410
:10296c003a2025642c2064657374206d652d756385
:10297c006173743a2025642c2064657374206e6f27
:10298c00746d652d75636173743a2025642c206415
:10299c00657374206d636173743a2025640d0a00ad
:1029ac00090920706b7473207265736572766564a7
:1029bc003a2025642c206677642075636173743a21
:1029cc002025642c20667764206d636173743a2033
:1029dc0025642c20667764206469726563743a20e0
:1029ec0025640d0a000000006664620073686f774e
:1029fc000000000046444220656e74726965733aab
:102a0c002025640d0a0000000d0a09456e747279c8
:102a1c00206e756d6265723a2025640d0a00000007
:102a2c0009456e74727920646573744164643a204c
:102a3c0025730d0a000000006e6f6e65000000002b
:102a4c002c202573000000002c20706f7274202540
:102a5c007300000009456e74727920666c616773af
:102a6c003a203078253032783a2025730d0a000050
:102a7c0009456e747279206c6561726e20706f728c
:102a8c00743a2025640d0a0009456e747279206f22
:102a9c007574506f72744d61705b25645d3a2000e3
:102aac002573200009456e7472792074457870691d
:102abc0072653a203078253038780d0a0000000015
:102acc0009456e747279206677645061636b657426
:102adc00733a20256c750d0a000000007573616750
:102aec00653a2062726964676520737461747573ea
:102afc000d0a000075736167653a2062726964673c
:102b0c0065207374617473203c636c723e0d0a0013
:102b1c0075736167653a20627269646765206664e3
:102b2c00622073686f770d0a0000000061727000fc
:102b3c0055736167653a20697034206172702f6635
:102b4c0077642f7461626c6520697820636c720df8
:102b5c000a00000073756363657373004950763423
:102b6c002041525020537461743a2025730d0a0091
:102b7c00706f6f6c3a2025642c2070656e643a205f
:102b8c0025642c2074785375626d69743a20256421
:102b9c002c206677645375626d69743a2025640d38
:102bac000a0000007478536f6c7665643a202564d3
:102bbc002c20667764536f6c7665643a2025642c00
:102bcc0020746f74536f6c7665643a2025642c20e6
:102bdc00746f744661696c65643a2025640d0a0053
:102bec004661696c656400006f6e00007463702050
:102bfc00747261636520257320666f7220736f6336
:102c0c006b65743a2025642025730d0a00000000c2
:102c1c0075736167653a20746370747261636520c3
:102c2c006f6e2f6f6666206e0d0a000054435020a5
:102c3c00736f636b6574733a202564200d0a000072
:102c4c0009736b7449783a2025642c2061646454b0
:102c5c007970653a2025642c2072656d6f7465500f
:102c6c006f72743a2025642c206c6f63616c506f0a
:102c7c0072743a2025642c20666c6167733a20309c
:102c8c0078253032780d0a0009727853697a653ae2
:102c9c002025642c20747853697a653a2025642c9d
:102cac002073746174653a2025642c207278506509
:102cbc006e643a2025642c20747850656e643a203a
:102ccc0025640d0a0000000075736167653a207475
:102cdc00637020696e666f203c6e3e0d0a0000002a
:102cec0055445020736f636b6574733a20256420d0
:102cfc000d0a000009736b7449783a2025642c2066
:102d0c00616464547970653a2025642c2072656d79
:102d1c006f7465506f72743a2025642c206c6f634d
:102d2c00616c506f72743a2025642c207278517546
:102d3c0065756553697a653a2025642c207478533f
:102d4c00697a653a2025640d0a0000002725735323
:102d5c007469636b79200000257320506f7274279f
:102d6c002c2000002573204e6574272c00000000d9
:102d7c0025732041646427000920666c6167733aef
:102d8c002025730d0a00000075736167653a207584
:102d9c00647020696e666f203c6e3e0d0a00000068
:102dac00756e6b6e6f776e006d69696d3a20416e52
:102dbc006f74686572206f7065726174696f6e20d4
:102dcc006f6e676f696e672e205265747279210d74
:102ddc000a0000006d69696d2025733a20616e2030
:102dec006572726f72206f636375727265643a20dc
:102dfc002564210d0a00000055736167653a206d4a
:102e0c0069696d203c6e65746978206e3e203c616a
:102e1c00646420613e202d20536574207468652005
:102e2c006e6574776f726b20696e74657266616320
:102e3c006520696e64657820616e64205048592065
:102e4c00616464726573730d0a00000055736167e9
:102e5c00653a206d69696d203c73746172742072df
:102e6c003e203c656e6420723e202d2053657473a9
:102e7c002074686520737461727420616e642065bf
:102e8c006e6420726567697374657220286465636b
:102e9c00696d616c2920666f7220612064756d709c
:102eac00206f700d0a00000055736167653a206d44
:102ebc0069696d203c72656164207269783e202dd1
:102ecc002052656164732072656769737465722042
:102edc007269782028646563696d616c290d0a003c
:102eec0055736167653a206d69696d203c7772692d
:102efc007465207269782077646174613e202d209e
:102f0c005772697465732072656769737465722092
:102f1c007269782028646563696d616c2920776912
:102f2c0074682031362062697420646174612028d1
:102f3c00686578290d0a000055736167653a206d44
:102f4c0069696d203c64756d703e202d2044756d53
:102f5c00707320616c6c2072656769737465727331
:102f6c00205b7253746172742c2072456e645d0d1b
:102f7c000a00000055736167653a206d69696d2020
:102f8c003c73657475703e202d20506572666f72af
:102f9c006d73207468652050485920736574757082
:102fac000d0a000055736167653a206d69696d20e3
:102fbc0077726974655f736d6920726978207764c4
:102fcc00617461202d20457874656e6465642033ce
:102fdc00322062697420534d4920777269746520e0
:102fec007573696e67207269782028686578292066
:102ffc00616e6420776461746128686578290d0ab4
:10300c000000000055736167653a206d69696d2099
:10301c00726561645f736d6920726978202d20453b
:10302c007874656e64656420333220626974205351
:10303c004d492072656164207573696e67207269f1
:10304c00782028686578290d0a000000736574756e
:10305c00700000006d69696d207365747570206671
:10306c0061696c65643a202564210d0a000000003a
:10307c006d69696d20736574757020737563636514
:10308c0073733a25640d0a00726561645f736d6930
:10309c000000000077726974655f736d6900000051
:1030ac00616464006d69696d2077726974653a209a
:1030bc006d697373696e672077446174610d0a00e2
:1030cc006d69696d3a205365742041646420746f96
:1030dc003a2025640d0a00006e65746978000000c2
:1030ec006d69696d3a20496e636f72726563742005
:1030fc00496e7465726661636520696e6465780dee
:10310c000a0000006d69696d3a20536574204e65a4
:10311c0074776f726b20496e74657266616365209b
:10312c00696e64657820746f3a2025640d0a00007e
:10313c0073746172740000006d69696d3a20536597
:10314c00742053746172742052656720746f3a2036
:10315c0025640d0a00000000656e64006d69696de0
:10316c003a2053657420456e642052656720746f55
:10317c003a2025640d0a00006d69696d3a20556e80
:10318c006b6e6f776e206f7074696f6e0d0a000036
:10319c0055736167653a206d6163696e666f200dca
:1031ac000a00000045783a206d6163696e666f20f5
:1031bc000d0a0000496e746572666163653a2025dc
:1031cc0073204472697665722053746174697374e8
:1031dc006963730d0a0000000d0a2052656365696e
:1031ec00766520537461746973746963730d0a0096
:1031fc0009206e52784f6b5061636b6574733a2083
:10320c0025640d0a09206e527850656e644275660d
:10321c00666572733a2025640d0a09206e52785344
:10322c0063686564427566666572733a2025640d41
:10323c000a00000009206e52784572726f7250615c
:10324c00636b6574733a2025640d0a09206e5278fd
:10325c00467261676d656e744572726f72733a2057
:10326c0025640d0a09206e5278427566664e6f749d
:10327c00417661696c61626c653a2025640d0a00c7
:10328c000d0a205472616e736d69742053746174ed
:10329c006973746963730d0a0000000009206e5491
:1032ac00784f6b5061636b6574733a2025640d0a1b
:1032bc0009206e547850656e64427566666572734b
:1032cc003a2025640d0a09206e54784572726f728b
:1032dc005061636b6574733a2025640d0a09206e86
:1032ec005478517565756546756c6c3a2025640d7e
:1032fc000a0d0a00096e6f7420737570706f72740a
:10330c0065640d0a00000000496e746572666163a5
:10331c00653a20257320486172647761726520528a
:10332c0065676973746572205374617475730d0ae3
:10333c0000000000092025733a20307825780d0a0a
:10334c00000000006172703a2061646472657373ee
:10335c0020616c7265616479207175657565640da9
:10336c000a0000006172703a2061646472657373c4
:10337c00206e65776c79207175657565640d0a0032
:10338c006172703a2071756575652066756c6c2f6d
:10339c006572726f720d0a00556e6b6e6f776e20d0
:1033ac00696e746572666163650d0a006c6973748d
:1033bc00000000006172703a20256420736c6f74f9
:1033cc007320696e207468652063616368650d0afb
:1033dc00000000006172703a20495076342061641c
:1033ec0064726573733a2025730000002c204d41e4
:1033fc004320416464726573733a202573000000a6
:10340c002c20636f6d706c6574650d0a00000000f4
:10341c002c207065726d616e656e740d0a00000073
:10342c006172703a2049507634206164647265731d
:10343c00733a2025732c207175657565640d0a002f
:10344c00496e76616c6964204950206164647265d0
:10345c00737320737472696e67200d0a000000008c
:10346c00726571006172703a207265736f6c76656b
:10347c0064202d2049507634206164647265737326
:10348c003a2025732c204d414320416464726573ae
:10349c00733a2025730d0a0071756572790000006e
:1034ac006172703a2049507634206164647265739d
:1034bc00733a2025732c204d41432041646472657e
:1034cc0073733a2025730d0a000000006172703a84
:1034dc00206e6f207375636820656e7472790d0aa7
:1034ec000000000064656c006172703a2072656dba
:1034fc006f7665642025730d0a000000696e736594
:10350c0072740000496e76616c6964204d414320f1
:10351c006164647265737320737472696e67200dd5
:10352c000a0000006172703a204164646564204da9
:10353c004143206164647265737320257320666f48
:10354c007220257320282564290d0a006172703ab7
:10355c00204661696c656420746f20696e736572b6
:10356c0074204d41432061646472657373210d0aac
:10357c000000000055736167653a20617270206924
:10358c006e74657266616365206c6973740d0a00f4
:10359c0055736167653a2061727020696e7465724b
:1035ac0066616365207265712f71756572792f6420
:1035bc00656c2f696e73657274203c69704164642c
:1035cc00723e203c6d6163416464723e0d0a0000e2
:1035dc0045783a206172702065746830207265718c
:1035ec00203139322e3136382e312e313035200df6
:1035fc000a00000050696e673a20646f6e652e20d9
:10360c0053656e74202564207265717565737473cf
:10361c002c2072656365697665642025642072656b
:10362c00706c6965732e0d0a0000000050696e679e
:10363c002055736167653a2070696e67203c73741e
:10364c006f703e2f3c6e616d652f616464726573a3
:10365c00733e203c6920696e746572666163653ed9
:10366c00203c6e206e50696e67733e203c74206d5a
:10367c0073506572696f643e203c732073697a6580
:10368c003e0d0a0073746f700000000050696e6785
:10369c003a20636f6d6d616e6420696e2070726f7d
:1036ac0067726573732e205265747279206c617425
:1036bc0065722e0d0a00000050696e673a20486f43
:1036cc007374206e616d6520746f6f206c6f6e6704
:1036dc002e2052657472792e0d0a000050696e67a7
:1036ec003a20446174612073697a6520746f6f208d
:1036fc006269672e204d61783a2025642e20526530
:10370c007472790d0a00000050696e673a20556e8c
:10371c006b6e6f776e20706172616d657465720d82
:10372c000a00000050696e673a207265736f6c7600
:10373c00696e6720686f73743a2025730d0a000058
:10374c00556e6b6e6f776e20686561702074797042
:10375c00652e205573653a205b312c2025645d0d58
:10376c000a0000004e6f206865617020696e666ffc
:10377c002065786973747320666f72207479706534
:10378c003a202573210d0a00486561702074797008
:10379c00653a2025732e20496e697469616c20632b
:1037ac0072656174656420686561702073697a65ff
:1037bc003a2025642042797465730d0a00000000dc
:1037cc00416c6c6f6361626c6520626c6f636b2023
:1037dc00686561702073697a653a202564204279a6
:1037ec007465730d0a000000416c6c206176616990
:1037fc006c61626c6520686561702073697a653aea
:10380c002025642042797465732c206869676820d0
:10381c0077617465726d61726b3a2025640d0a00d4
:10382c004c6173742068656170206572726f723ab6
:10383c0020307825780d0a004e6f20547261636534
:10384c0020696e666f206578697374732e0d0a009b
:10385c0055736167653a202573203c696e746572f7
:10386c00666163653e203c6f6e2f6f66663e200d71
:10387c000a00000045783a20257320504943333222
:10388c00494e54206f6e200d0a000000556e6b6e71
:10389c006f776e206f7074696f6e0d0a00000000f8
:1038ac00556e6b6e6f776e207365727669636520eb
:1038bc0025730d0a00000000537461636b20757052
:1038cc00206661696c65640d0a00000053746163c5
:1038dc006b207570207375636365656465640d0a90
:1038ec000000000055736167653a20737461636b67
:1038fc00203c75702f646f776e3e203c7072657340
:10390c00657276653e0d0a0045783a2073746163e2
:10391c006b20646f776e2070726573657276650dbf
:10392c000a00000075700000537461636b20616cb9
:10393c007265616479207570210d0a005475726e80
:10394c0020537461636b20646f776e20616e64200a
:10395c007468656e207570210d0a000052657374d1
:10396c00617274696e672074686520737461636b2f
:10397c00207769746820256420696e7465726661ad
:10398c0063652873290d0a00537461636b20646f9f
:10399c00776e3a2063616e6e6f7420676574206178
:1039ac0020737461636b2068616e646c650d0a0032
:1039bc00537461636b20646f776e20646f6e650d5a
:1039cc000a00000055736167653a206966203c69fe
:1039dc006e746572666163653e203c646f776e2f12
:1039ec0075703e200d0a000045783a20696620501b
:1039fc0049433332494e5420646f776e200d0a00d0
:103a0c00556e6b6e6f776e20696e7465726661634e
:103a1c006520737065636966696564200d0a000032
:103a2c005468697320696e746572666163652061a0
:103a3c006c72656164792075700d0a004f70657247
:103a4c006174696f6e206661696c65642e204e6fbf
:103a5c0020636f6e66696775726174696f6e0d0aab
:103a6c00000000005468697320696e7465726661a9
:103a7c00636520616c726561647920646f776e0d8b
:103a8c000a00000057726f6e6720706172616d657d
:103a9c0074657220737065636966696564200d0acc
:103aac00000000004f7065726174696f6e20737551
:103abc00636365737366756c210d0a004f706572d4
:103acc006174696f6e206661696c6564210d0a0012
:103adc0055736167653a207365746d6163203c6949
:103aec006e746572666163653e203c783a783a780c
:103afc003a783a783a783e200d0a000045783a2018
:103b0c007365746d6163205049433332494e5420c0
:103b1c0061613a62623a63633a64643a65653a6633
:103b2c0066200d0a00000000617267765b325d3a18
:103b3c002025730d0a000000536574204d4143206d
:103b4c0061646472657373206661696c65640d0ae7
:103b5c00000000005365742042494f53204e616da4
:103b6c0065204f4b0d0a00005365742042494f539a
:103b7c00204e616d65206661696c65640d0a0000fc
:103b8c0055736167653a2073657462696f73203c85
:103b9c00696e746572666163653e203c782e782e82
:103bac00782e783e200d0a0045783a2073657462b1
:103bbc00696f73205049433332494e54204d43486a
:103bcc0050424f4152445f3239200d0a0000000030
:103bdc0053657420676174657761792061646472e0
:103bec00657373204f4b0d0a000000005365742061
:103bfc0067617465776179206164647265737320a1
:103c0c006661696c65640d0a00000000557361679c
:103c1c00653a207365746777203c696e74657266cb
:103c2c006163653e203c697076342f362061646494
:103c3c00726573733e203c76616c696454696d6582
:103c4c003e200d0a0000000045783a207365746729
:103c5c0077205049433332494e54203139322e317a
:103c6c0036382e302e31200d0a000000536574209a
:103c7c0069702061646472657373204f4b0d0a0088
:103c8c005365742069702061646472657373206677
:103c9c0061696c65640d0a0055736167653a207340
:103cac0065746970203c696e746572666163653e0b
:103cbc00203c697076342f362061646472657373ae
:103ccc003e203c697076346d61736b2f697076366b
:103cdc0020707265666978206c656e3e0d0a000076
:103cec0045783a20736574697020504943333249e2
:103cfc004e54203139322e3136382e302e38203277
:103d0c0035352e3235352e3235352e30200d0a0014
:103d1c004e6f207375636820696e7465726661639b
:103d2c00652069732075700d0a000000416e2061da
:103d3c006464726573732073657276696365206958
:103d4c007320616c72656164792072756e6e696e38
:103d5c00672e2053746f7020444843502c205a43d4
:103d6c004c4c2c206574632e2066697273740d0a9a
:103d7c0000000000496e76616c6964204950206d2a
:103d8c0061736b20737472696e67200d0a000000fa
:103d9c0055736167653a20736574646e7320312fb7
:103dac0032203c696e746572666163653e203c78b6
:103dbc002e782e782e783e200d0a000045783a2079
:103dcc00736574646e7320312065746830203235ed
:103ddc00352e3235352e3235352e30200d0a000079
:103dec00556e6b6e6f776e20444e5320696e646512
:103dfc00780d0a0053657420444e532025642061cd
:103e0c006464726573732025730d0a0073756363a4
:103e1c0065737366756c00006661696c656421007e
:103e2c004e6f6e650000000073657400676574006a
:103e3c0044656661756c7420696e74657266616345
:103e4c0065207365742025730d0a00004465666156
:103e5c00756c7420696e7465726661636520697334
:103e6c003a2025730d0a000055736167653a20648a
:103e7c0065666e6574207365742f676574203c6984
:103e8c006e746572666163653e0d0a0045783a2072
:103e9c006465666e65742073657420657468300d96
:103eac000a00000055500000444f574e000000001f
:103ebc004e6f742052656164790000005573616720
:103ecc00653a206e6574696e666f0d0a000000001d
:103edc0045783a206e6574696e666f0d0a000000b5
:103eec002d2d2d2d2d2d2d2d2d2d20496e746572e2
:103efc0066616365203c25732f25733e202d2d2d87
:103f0c002d2d2d2d2d2d2d200d0a0000496e7465a3
:103f1c00726661636520697320646f776e0d0a00a9
:103f2c00486f7374204e616d653a202573202d20e7
:103f3c004e424e532064697361626c6564200d0ab5
:103f4c00000000004950763420416464726573733c
:103f5c003a2025730d0a00004d61736b3a202573ce
:103f6c000d0a0000476174657761793a2025730d5d
:103f7c000a000000444e53313a2025730d0a00000c
:103f8c00444e53323a2025730d0a00004d41432014
:103f9c00416464726573733a2025730d0a00000046
:103fac0064656661756c7420495020616464726547
:103fbc00737300002573206973204f4e0d0a0000a7
:103fcc004c696e6b2069732025730d0a000000008c
:103fdc005374617475733a2025730d0a0000000048
:103fec0050696e673a2077726f6e67207265706cdd
:103ffc00792072656365697665642e204d61736bfb
:10400c003a2030782532780d0a00000050696e672e
:10401c003a207265706c795b25645d2066726f6df9
:10402c002025733a2074696d65203d2025646d73dd
:10403c000d0a00004d69696d2025733a20307825f2
:10404c003034782c206e657449783a2025642c2005
:10405c006164643a2025642c2076616c3a203078b7
:10406c00253038780d0a00004d69696d2025733aaa
:10407c002025642c206e657449783a2025642c2008
:10408c006164643a2025642c2076616c3a20307887
:10409c002534780d0a00000050696e673a20444eb2
:1040ac0053206661696c75726520666f722025738a
:1040bc000d0a00004d69696d202573206572726fc1
:1040cc00723a2025640d0a003a20737461636b20e8
:1040dc00636f6d6d616e64730000000074637069d2
:1040ec00700000004661696c656420746f20637217
:1040fc006561746520544350495020436f6d6d6168
:10410c006e64730d0a000000544350495020636fd5
:10411c006d6d616e6473207461736b207265676979
:10412c007374726174696f6e206661696c65640d7d
:10413c000a000000696e7465726e616c000000000c
:10414c00706f6f6c0000000065787465726e616c46
:10415c00000000004c6f6f736500000053747269af
:10416c00637400004e6f6e2d0000000064656600e5
:10417c006677640066696c74000000006e65746993
:10418c006e666f003a20476574206e6574776f72a7
:10419c006b20696e666f726d6174696f6e000000e2
:1041ac006465666e657400003a205365742f47652c
:1041bc00742064656661756c7420696e74657266d2
:1041cc00616365007a636c6c000000003a205475e2
:1041dc00726e205a434c4c206f6e2f6f6666000037
:1041ec00736574646e7300003a2053657420444efa
:1041fc0053206164647265737300000073657469a5
:10420c00700000003a2053657420495020616464aa
:10421c007265737320616e64206d61736b000000b6
:10422c0073657467770000003a205365742047610a
:10423c007465776179206164647265737300000042
:10424c0073657462696f73003a2053657420686fec
:10425c0073742773204e657442494f53206e616d01
:10426c00650000007365746d616300003a2053654e
:10427c0074204d41432061646472657373000000c7
:10428c00696600003a204272696e6720616e20698f
:10429c006e746572666163652075702f646f776ede
:1042ac0000000000737461636b0000003a205374cb
:1042bc0061636b207475726e206f6e2f6f66660073
:1042cc0068656170696e666f000000003a20436893
:1042dc0065636b206865617020737461747573001d
:1042ec0070696e67000000003a2050696e672061ab
:1042fc006e20495020616464726573730000000085
:10430c003a2041525020636f6d6d616e64730000f2
:10431c006d6163696e666f003a20436865636b205c
:10432c004d41432073746174697374696373000045
:10433c006d69696d000000003a204d49494d2063bc
:10434c006f6d6d616e647300756470003a20554436
:10435c005020636f6d6d616e647300007463700048
:10436c003a2054435020636f6d6d616e647300008e
:10437c007463707472616365000000003a20456ece
:10438c0061626c6520544350207472616365000057
:10439c00697034003a2049507634000062726964c6
:1043ac00676500003a20427269646765000000008e
:1043bc0025642e25642e25642e256400252e327846
:1043cc003a252e32783a252e32783a252e32783a02
:1043dc00252e32783a252e32780000006c6f77004b
:1043ec00427269646765204173736572743a202563
:1043fc00732c20696e206c696e653a2025642c2024
:10440c000d0a00005443502f495020537461636bc4
:10441c003a202573204d414320696e697469616ca3
:10442c00697a6174696f6e206661696c65640d0ae6
:10443c00000000005443502f495020537461636bab
:10444c003a202573204d4143204f70656e206661e4
:10445c00696c65640d0a00005443502f4950205379
:10446c007461636b3a204d6f64756c65206e6f3aa6
:10447c0020256420496e697469616c697a6174697c
:10448c006f6e206661696c65640d0a005443502f91
:10449c00495020537461636b3a202573204d41437e
:1044ac00206576656e74206e6f74696669636174dd
:1044bc00696f6e2073657474696e67206661696cd0
:1044cc0065640d0a000000005443502f49502053de
:1044dc007461636b3a20486561702044656c657447
:1044ec0065206661696c21204e6f20747261636572
:1044fc00206578697374730d0a0000005443502fc3
:10450c00495020537461636b3a2048656170206395
:10451c0072656174696f6e206661696c65642c20cc
:10452c00747970653a2025640d0a00005443502fad
:10453c00495020537461636b3a204e6574776f72e7
:10454c006b20636f6e66696775726174696f6e203c
:10455c00616c6c6f636174696f6e206661696c6508
:10456c00643a20256c750d0a000000005443502f4e
:10457c00495020537461636b3a205061636b6574ce
:10458c0020696e697469616c697a6174696f6e20f7
:10459c006661696c65643a20307825780d0a0000f4
:1045ac005443502f495020537461636b3a20446537
:1045bc006661756c7420466c617368204e65747707
:1045cc006f726b20636f6e66696775726174696f69
:1045dc006e206c6f6164206661696c656420256473
:1045ec000d0a00005443502f495020537461636be3
:1045fc003a204e6574776f726b20636f6e666967d5
:10460c0075726174696f6e20696e697469616c6929
:10461c007a6174696f6e206661696c65643a2025f5
:10462c00640d0a005443502f495020537461636b3e
:10463c003a204e6574776f726b20636f6e66696794
:10464c0075726174696f6e3a20416c696173657340
:10465c00206e6f7420737570706f727465643a207d
:10466c0025640d0a000000005443502f495020537c
:10467c007461636b3a204e6574776f726b20636f55
:10468c006e66696775726174696f6e3a20696e76d1
:10469c00616c696420495020616464726573733a7b
:1046ac002030782538780d0a000000002573256429
:1046bc00000000005443502f495020537461636b29
:1046cc003a20506f776572204d6f646520696e6972
:1046dc007469616c697a6174696f6e206661696c6a
:1046ec003a2025640d0a00005443502f49502053a2
:1046fc007461636b3a2044796e616d6963206d65fa
:10470c006d6f7279206973206c6f773a20256c7508
:10471c000d0a00005443502f495020537461636bb1
:10472c003a20496e697469616c697a6174696f6e5b
:10473c00206661696c6564202564202d2041626fc0
:10474c007274696e6721200d0a0000005443502fcb
:10475c00495020537461636b3a20496e69746961e6
:10476c006c697a6174696f6e2053746172746564dc
:10477c00200d0a005443502f495020537461636b31
:10478c003a204e6574776f726b20636f6e66696743
:10479c0075726174696f6e206c6f616420666169fb
:1047ac006c65643a2025640d0a0000005443502fb8
:1047bc00495020537461636b3a205469636b2072c7
:1047cc006567697374726174696f6e206661696c78
:1047dc0065643a2025640d0a000000005443502ff4
:1047ec00495020537461636b3a20496e6974696156
:1047fc006c697a6174696f6e2053595320544d5211
:10480c00206661696c65643a202564202d20416224
:10481c006f7274696e6721200d0a00005443502f8b
:10482c00495020537461636b3a20496e6974696115
:10483c006c697a6174696f6e20456e646564202db5
:10484c002073756363657373200d0a005443502ff6
:10485c00495020537461636b3a20496e74657266db
:10486c0061636520496e697469616c697a61746908
:10487c006f6e206661696c65643a2030782578200b
:10488c002d2041626f7274696e6721200d0a000041
:10489c00544350495020537461636b2041737365ca
:1048ac0072743a20696e2066696c653a2025732c07
:1048bc002066756e633a2025732c206c696e653a00
:1048cc002025642c200d0a00433a2f776f726b2f32
:1048dc006c616e383636782d746f6f6c732f666919
:1048ec00726d776172652f7431735f313030626134
:1048fc007365745f6272696467652f6669726d7740
:10490c006172652f7372632f636f6e6669672f64b4
:10491c00656661756c742f6c6962726172792f7443
:10492c00637069702f7372632f74637069705f6d3d
:10493c00616e616765722e6300000000756e6b001e
:10494c0065746800776c616e000000007070700018
:10495c0067336164700000005061636b65742041c3
:10496c00636b3a206f727068616e207061636b6567
:10497c007421200d0a0000001b5b324a1b5b333193
:10498c006d1b5b316d4d6963726f63686970205488
:10499c00656c6e65742053657276657220312e31ac
:1049ac001b5b306d0d0a4c6f67696e3a200000007e
:1049bc00546f6f206d75636820646174612e2041a3
:1049cc00626f727465640d0a000000000d0a416389
:1049dc00636573732064656e6965640d0a0d0a0066
:1049ec0050617373776f72643a20fffd2d000000e5
:1049fc000d0a4c6f6767656420696e20737563637d
:104a0c0065737366756c6c790d0a0d0a00000000f5
:104a1c000d0a2d2d2d2054656c6e657420436f6e20
:104a2c00736f6c65202d2d2d0d0a547970652068df
:104a3c00656c7020666f7220636f6d6d616e647350
:104a4c000d0a3e004661696c656420746f20636fcb
:104a5c006e6e65637420746f2074686520636f6d6f
:104a6c006d616e642070726f636573736f722e204c
:104a7c0041626f7274696e67210d0a0074656c6e09
:104a8c006574204e554c4c2064796e616d696320c1
:104a9c00616c6c6f636174696f6e2068616e646cbd
:104aac00652f696e69742064617461002074656c93
:104abc006e65742044796e616d696320616c6c6ff6
:104acc00636174696f6e206661696c6564000000d7
:104adc002074656c6e65743a2053657474696e67e6
:104aec0020545820427566666572206661696c6553
:104afc00643a2025640d0a002074656c6e65743a66
:104b0c002053657474696e6720525820427566662e
:104b1c006572206661696c65643a2025640d0a0033
:104b2c00554450204e554c4c2064796e616d696330
:104b3c0020616c6c6f636174696f6e2068616e6468
:104b4c006c6500005544502044796e616d6963209a
:104b5c00616c6c6f636174696f6e206661696c6502
:104b6c00640000000d0a2d2d2d2d2d2d2d2053759b
:104b7c0070706f7274656420636f6d6d616e64200c
:104b8c0067726f757073202d2d2d2d2d2d0000004b
:104b9c000d0a202a2a2a2000202a2a2a0000000096
:104bac000d0a2d2d2d2d2d2d2d2d2d2d20427569e0
:104bbc006c7420696e20636f6d6d616e6473202d53
:104bcc002d2d2d2d2d2d2d2d2d0000000d0a556e6a
:104bdc006b6e6f776e20636f6d6d616e64206772a4
:104bec006f75702e205472792068656c700d0a00f8
:104bfc0008200800080000001b5b2564430000002f
:104c0c001b5b2564440000000d0a202a2a2a20512f
:104c1c0075697474696e672074686520436f6d6d77
:104c2c00616e642050726f636573736f722e2042d5
:104c3c007965202a2a2a0d0a000000000d0a202a74
:104c4c002a2a2053797374656d205265626f6f74d4
:104c5c00202a2a2a0d0a000020092c004661696cc2
:104c6c00656420746f206372656174652074686577
:104c7c0020436f6e736f6c65204150490d0a000024
:104c8c00202a2a2a20436f6d6d616e642050726f4a
:104c9c00636573736f723a20506c65617365207431
:104cac0079706520696e206120636f6d6d616e6433
:104cbc002a2a2a0d0a0000000a0d20546f6f206d5d
:104ccc00616e7920617267756d656e74732e204dff
:104cdc006178696d756d2061726773207375707082
:104cec006f727465643a202564210d0a000000007f
:104cfc00202a2a2a20436f6d6d616e642050726fda
:104d0c00636573736f723a20756e6b6e6f776e207e
:104d1c00636f6d6d616e642e202a2a2a0d0a0000c5
:104d2c003e000000081b5b4b25731b5b2564440095
:104d3c00081b5b4b000000001b5b4b25731b5b25aa
:104d4c0064440000202a2a2a20436f6d6d616e6432
:104d5c002050726f636573736f722062756666653f
:104d6c00722065786365656465642e205265747283
:104d7c00792e202a2a2a0d0a00000000726573651c
:104d8c00740000003a20526573657420686f737468
:104d9c0000000000710000003a20717569742063f6
:104dac006f6d6d616e642070726f636573736f727b
:104dbc00000000003a2068656c7000001b5b41002d
:104dcc001b5b42001b5b43001b5b44001b5b317e87
:104ddc00000000001b5b347e00000000433a2f777c
:104dec006f726b2f6c616e383636782d746f6f6cfa
:104dfc00732f6c696265706d6963726f636869703b
:104e0c002f6c6962736f6d6569702f7372632f738a
:104e1c006f6d6569702d636c69656e742e6300002f
:104e2c00433a2f776f726b2f6c616e383636782d54
:104e3c00746f6f6c732f6c696265706d6963726fe0
:104e4c00636869702f6c6962736f6d6569702f731d
:104e5c0072632f736f6d6569702d67656e2e6300bd
:104e6c00433a2f776f726b2f6c616e383636782d14
:104e7c00746f6f6c732f6c696265706d6963726fa0
:104e8c00636869702f6c6962736f6d6569702f73dd
:104e9c0072632f736f6d6569702d706172732e6301
:104eac0000000000433a2f776f726b2f6c616e38e5
:104ebc003636782d746f6f6c732f6c696265706dfc
:104ecc006963726f636869702f6c6962736f6d656b
:104edc0069702f7372632f736f6d6569702d7469b0
:104eec006d65722e63000000433a2f776f726b2f43
:104efc006c616e383636782d746f6f6c732f6c69ed
:104f0c006265706d6963726f636869702f6c69623a
:104f1c00736f6d6569702f7372632f736f6d656935
:104f2c00702d7472616e736d69742e6300000000d5
:104f3c00736f6d6569705f737475623a206f757409
:104f4c00206f6620696e7465726661636520736c90
:104f5c006f74732c20696e637265617365204d41ab
:104f6c00585f4946414345530d0000004a6f696e36
:104f7c006564204d756c7469636173742067726f1e
:104f8c0075702025642e25642e25642e25642066dc
:104f9c006f72206c6f63616c2025642e25642e2546
:104fac00642e25642c20706f72742025642e0d0adb
:104fbc0000000000534f4d4549505f43425f4f7016
:104fcc00656e536f636b65743a206e6f2066726505
:104fdc00652063616c6c6261636b20736c6f742011
:104fec00666f7220706f72742025640d0a000000c9
:104ffc00534f4d4549505f43425f4f70656e536f41
:10500c00636b65743a206e6f206672656520736ff2
:10501c00636b657420736c6f740d0000534f4d45ba
:10502c0049505f43425f4f70656e536f636b65749d
:10503c003a20706c61745f7564705f6f70656e2878
:10504c00706f72743d256429206661696c65640d0e
:10505c000a000000534f4d452f4950207061727368
:10506c00696e672028706f72742025642920726520
:10507c007475726e656420307825580d0a00000036
:10508c00417373657274696f6e20696e2027257386
:10509c0027204c696e653d25750d0a0028616c6ce6
:1050ac00207a65726f29000020202020257320288b
:1050bc0025752042293a2000253032582000000066
:1050cc005b6c616e383636785d206e6f20656e6471
:1050dc00706f696e7420796574202d2072756e2046
:1050ec0027646973636f76657279272066697273ba
:1050fc00740d0a005b6c616e383636785d204f702b
:10510c00656e4770696f206661696c6564206f6eaf
:10511c0020504125303275202d2061626f727469e8
:10512c006e670d0a000000005b6c616e38363678d5
:10513c005d2072756e6e696e67206c69676874208d
:10514c00504130322f504130362f504131303a20bf
:10515c002575206c6170732c202575206d732f7351
:10516c007465700d0a0000005b6c616e3836367821
:10517c005d20646f6e652c204c454473206f666611
:10518c002e0d0a003f000000504c4341000000006f
:10519c0043534d412f434420286e6f20504c4341c4
:1051ac0021290000504c434120286e6f2066616c11
:1051bc006c6261636b2900006c696e6b207570000a
:1051cc0064697361626c6564000000006c696e6bed
:1051dc0020646f776e0000004445475241444544bb
:1051ec00202d20636865636b206c696e6b0000007a
:1051fc004c494e4b20444f574e0000004845414c03
:10520c0054485920285431532077697265206669b7
:10521c006e6529000d0a3d3d3d3d3d3d3d3d3d3d0d
:10522c003d3d3d3d3d3d20444556494345203d3d9a
:10523c003d3d3d3d3d3d3d3d3d3d3d3d3d3d0d0af5
:10524c0000000000202043686970202020202020ce
:10525c002020203a2025730d0a00000020205275d2
:10526c006e6e696e672061707020203a2025730d78
:10527c000a00000020204d61696e2061707020765c
:10528c006572203a2025730d0a000000202055700d
:10529c0074696d65202020202020203a20256c6c1c
:1052ac00756820256c6c756d20256c6c75730d0afa
:1052bc0000000000202052657365742072656173d4
:1052cc006f6e203a20000000286e6f6e65207265ac
:1052dc00706f72746564290d0a00000025732573c4
:1052ec000000000020205b5365637572697479209f
:1052fc006d6f64652025755d0d0a000020204765e3
:10530c0074537461747573206661696c65640d0afd
:10531c00000000000d0a3d3d3d3d3d3d3d3d3d3d08
:10532c003d3d3d3d3d3d20543153204e4554574f5e
:10533c00524b203d3d3d3d3d3d3d3d3d3d3d3d3d8b
:10534c003d3d3d0d0a0000002020456e64706f69e4
:10535c006e74206c696e6b3a2025730d0a00000088
:10536c0020204172626974726174696f6e20203af8
:10537c002025730d0a0000002020504c4341206e64
:10538c006f6465206964203a2025750d0a000000c1
:10539c002020456e64706f696e74204d4143203a35
:1053ac0020253032583a253032583a253032583a86
:1053bc00253032583a253032583a253032580d0ab9
:1053cc00000000002020456e64706f696e742049e7
:1053dc005076343a2025752e25752e25752e25757b
:1053ec000d0a000020204f412d5350492062726954
:1053fc006467653a2025730d0a000000202047657c
:10540c00744e6574776f726b537461747573206628
:10541c0061696c6564202872633d2564290d0a005e
:10542c000d0a3d3d3d3d3d3d3d3d3d3d3d3d3d3d03
:10543c003d3d2050485920444941474e4f53495314
:10544c00203d3d3d3d3d3d3d3d3d3d3d3d3d3d3d9d
:10545c003d0d0a004368616e6e656c300000000003
:10546c004368616e6e656c31000000004368616ecc
:10547c006e656c32000000004368616e6e656c33c3
:10548c000000000020204e6f7420696d706c656dfb
:10549c00656e74656420696e207468697320666932
:1054ac00726d776172652f636f6e666967206275c6
:1054bc00696c6420286c69676874696e6720627512
:1054cc00696c64292e0d0a002020526561644469c0
:1054dc0061676e6f73697344617461206661696c96
:1054ec006564202872633d2564290d0a00000000c4
:1054fc000d0a3d3d3d3d3d3d3d3d3d3d3d3d3d3d33
:10550c003d3d204c494e4b2050524f4245202825c2
:10551c007520726f756e642d747269707329203ddd
:10552c003d3d3d3d3d3d3d3d3d3d3d3d3d3d3d0dcf
:10553c000a0000000d202070726f62696e672025d2
:10554c00752f2575202e2e2e000000000d202070aa
:10555c00726f6265733d257520636f6d706c657439
:10556c0065643d2575206c6f73743d2575206c6fdb
:10557c0073733d25752525202020202020202020f8
:10558c00200d0a0020205254543a206d696e2025bb
:10559c00752e2530337520206176672025752e25d4
:1055ac0030337520206d61782025752e25303375ac
:1055bc00206d730d0a00000020205665726469632b
:1055cc00743a2025730d0a000d0a3d3d3d3d3d3dcd
:1055dc003d3d3d3d3d3d3d3d3d3d2042414e4457d1
:1055ec0049445448202852435020676f6f647075ab
:1055fc007429203d3d3d3d3d3d3d3d3d3d3d3d3dc9
:10560c003d3d3d0d0a0000000d20206d6561737558
:10561c0072696e672025752f2575202e2e2e0000a1
:10562c000d20202020202020202020202020202081
:10563c0020202020202020202020200d00000000f1
:10564c002020257520726f756e642d7472697073cd
:10565c0020696e202575206d7320282575206f6bb1
:10566c00292c20257520554450207061796c6f6170
:10567c006420627974657320287478202575202b3a
:10568c00207278202575290d0a0000002020526f09
:10569c00756e642d74726970732f733a20257520a2
:1056ac0020202052435020676f6f647075743a202d
:1056bc007e2575206b6269742f730d0a0000000043
:1056cc0020202873657175656e7469616c20726534
:1056dc0071756573742f7265706c7920626f756e5d
:1056ec006420627920524350206c6174656e63793a
:1056fc002c206e6f74207468650d0a0020202031f8
:10570c0030424153452d543153203130204d626984
:10571c00742f73206c696e6520726174652e290d6f
:10572c000a000000417564696f20456e64706f69f2
:10573c006e740000436f6e74726f6c20456e6470f3
:10574c006f696e74000000004c69676874696e675d
:10575c0020456e64706f696e7420284c45442f444c
:10576c006973706c617929004c696e6b2d557000f2
:10577c004c696e6b2d446f776e0000004469736149
:10578c00626c65640000000043534d412f4344009c
:10579c00504c4341206e6f2066616c6c6261636b90
:1057ac00000000005b6c616e383636785d20534f1c
:1057bc004d452f495020636c69656e74206e6f7473
:1057cc002073746172746564207965742028696e25
:1057dc00746572666163652075703f290d0a00005f
:1057ec000d0a4465766963657320617661696c6145
:1057fc00626c65203d2025750d0a00004e6f7468a3
:10580c00696e6720666f756e64202853442072752c
:10581c006e7320696e206261636b67726f756e6464
:10582c003b2072657472792073686f72746c792c7a
:10583c0020636865636b205431532f504c434129ce
:10584c002e0d0a000d0a3d3d3d3d3d3d3d3d3d3d8e
:10585c003d3d3d3d3d3d3d3d3d3d3d3d3d3d3d3d6c
:10586c003d3d3d3d3d3d3d3d3d3d3d3d3d3d3d3d5c
:10587c003d3d3d3d3d3d3d3d3d3d3d3d3d3d0d0aaf
:10588c0000000000456e64706f696e7420232564ff
:10589c0020202d202025752e25752e25752e25755d
:1058ac003a2575202028696e7374616e636520300b
:1058bc0078253034582c20617661696c61626c6596
:1058cc003d2564290d0a00003d3d3d3d3d3d3d3dde
:1058dc003d3d3d3d3d3d3d3d3d3d3d3d3d3d3d3dec
:1058ec003d3d3d3d3d3d3d3d3d3d3d3d3d3d3d3ddc
:1058fc003d3d3d3d3d3d3d3d3d3d3d3d3d3d3d3dcc
:10590c000d0a00002020557074696d653a20202026
:10591c0020202020202020202020256c6c75682041
:10592c00256c6c756d20256c6c75730d0a00000070
:10593c0020204170706c69636174696f6e3a20202d
:10594c0020202020202025730d0a00004c414e38c9
:10595c00363630004c414e38363631004c414e38dc
:10596c0036363200202043686970204964656e74b5
:10597c0069666965723a2020202025732020202d2d
:10598c003e2025730d0a000020204d61696e2056c3
:10599c00657273696f6e3a202020202020202573b9
:1059ac000d0a00002020526f6f74205665727369c7
:1059bc006f6e3a2020202020202025730d0a000035
:1059cc002020426f6f746c6f616465722056657233
:1059dc0073696f6e3a2025730d0a00002020434f27
:1059ec004d4f2056657273696f6e3a20202020202f
:1059fc0020203078253038580d0a000020205365bf
:105a0c0072766963652056657273696f6e3a2020f1
:105a1c0020203078253038580d0a000020204b65a6
:105a2c0079732056657273696f6e3a20202020209e
:105a3c00202025730d0a00002020537461727475a8
:105a4c0070496e666f726d6174696f6e3a20307852
:105a5c00253031366c6c5820285365637572697427
:105a6c0079204d6f6465202575290d0a0000000012
:105a7c002020476574537461747573206661696c7a
:105a8c006564202872633d2564290d0a000000001e
:105a9c0020204d41433a202020202020202020206f
:105aac00202020202020253032583a253032583af8
:105abc00253032583a253032583a253032583a256a
