:020000040000fa
:10000000f0ff032025b102002d9003003190030082
:10001000399003003d900300419003000000000070
:1000200000000000000000000000000049900300f4
:100030003590030000000000499003004990030040
:100040004990030049900300499003004990030040
:100050004990030049900300499003004990030030
:100060004990030049900300499003004990030020
:100070004990030049900300499003004990030010
:100080004990030049900300499003004990030000
:1000900049900300499003004990030049900300f0
:1000a00049900300499003004990030049900300e0
:1000b000499003004990030049900300338e0300e8
:1000c0003d8e0300499003004990030049900300ce
:1000d00049900300499003004990030049900300b0
:1000e0004990030049900300000000000000000058
:1000f0000000000049900300c5c80100c5c8010008
:10010000c5c80100c5c801002d0703002d07030065
:100110002d0703002d0703004990030049900300b9
:10012000499003004990030049900300499003005f
:10013000499003004990030049900300499003004f
:10014000499003004990030049900300499003003f
:10015000499003004990030049900300499003002f
:10016000499003004990030049900300499003001f
:10017000499003004990030049900300499003000f
:1001800049900300499003004990030049900300ff
:10019000615903004990030049900300499003000e
:1001a00049900300499003004990030049900300df
:1001b00049900300499003004990030049900300cf
:1001c00049900300499003004990030049900300bf
:1001d00049900300499003004990030049900300af
:1001e000499003004990030049900300455b0300d8
:1001f00049900300356903004990030049900300ca
:10020000499003004990030049900300499003007e
:10021000499003004990030049900300499003006e
:10022000499003004990030049900300499003005e
:10023000499003004990030049900300499003004e
:10024000499003004990030049900300499003003e
:10025000499003004990030049900300499003002e
:0402600049900300be
:020000040000fa
:10026400f8b500bff8bc08bc9e467047192f0300c0
:10027400f8b500bff8bc08bc9e467047f52e0300d5
:020000040000fa
:080284009c22010001000000b2
:020000040000fa
:10028c002de9f04f8db00f210a2035f04fff029071
:10029c0010f0010f40f05d85029b13f0020f40f04f
:1002ac007c850db0bde8f08fd9f8187007f11002fd
:1002bc00059213f4007f21d1fb6809933b690a93e3
:1002cc0000228df82c2006238df82d30330a43eaba
:1002dc000623adf82e300c2109a82df02dfec043bd
:1002ec0083b2d9f8202012f0040f30d032464146a8
:1002fc0048462bf05ffd002840f09a8640462ef0d1
:10030c00cdfb98f80ca04fea1a1a4fea8a03049313
:10031c00d9f81ca0baf80220002a00f08c86fd89be
:10032c00bb891d44baf800301d445540adb2c74bd3
:10033c00d3f800c0bcf1000f00f08086d9f828e09b
:10034c00c34b1b68039300239b4610460ee01a46d2
:10035c00314640462df0f0fdcde7b4f872208242d4
:10036c002fd001331bb21c469c452fd9039a52f84f
:10037c002440002cf5d094f876200b2af1d094f878
:10038c0077100129edd8a16c09b18e45e9d1002a6d
:10039c00e3d0b4f87220aa42e3d1daf80010226e4e
:1003ac009142ded1216cfa689142dad1012184f8b4
:1003bc007710c4f848e0059a204634f0f2f9a346c9
:1003cc0022e0bbf1000f08bfa346cae7bbf1000f48
:1003dc0000f08380fb68cbf8403001218bf877105c
:1003ec00cbf848e0059a584634f0dbf9abf872507c
:1003fc00baf80030abf86030baf80230abf86230c3
:10040c00dbf80030cbf81030d9f810209389049920
:10041c005b1a938198f80d40d8f80870d8f80450fe
:10042c009bf83f3013f0400f5bd19bf875306ff3a6
:10043c0000038bf875309bf87630002b69d0012bbc
:10044c0000f09e801436049aa6eb020a1ffa8afa70
:10045c00aaf1140292b2059214f0010206921abf8c
:10046c00aaf1130a1ffa8af2059a039214f0020fea
:10047c0003d0039a013292b20392dbf81c60dbf8d2
:10048c0020209642c0f0aa80dbf81810dbf814008c
:10049c00091aa6eb020aa1eb0a0a1ffa8af20492c5
:1004ac00dbf85820a5eb020a039a002a00f0a98079
:1004bc00049a002a00f0a080baf1000fc0f29680d6
:1004cc009245c0f0a780039a04998a1a8a45c0f213
:1004dc00a180924540f39e808ee06ff00e0100f0fb
:1004ec0034bc00238bf879309bf83e3013f0020fac
:1004fc009bd135f0cffebbf87020564b1b6803fb2d
:10050c0002f3554aa2fb032300eb9310cbf8240013
:10051c008be714f0040f1ad114f0100f1dd114f046
:10052c00020f27d00135cbf85850404626f052fb2d
:10053c00abf86a00584633f013f8012212215846e2
:10054c0007f07cfb02238bf876300026e6e30021d3
:10055c0058461df02bfa0026e0e3cbf8547000222d
:10056c000421584607f06afb002158461df01efa7c
:10057c000026d3e3002158461df018fa0026cde3df
:10058c0014f0040f40f0c98314f0100f00f0a08594
:10059c00dbf85460b74205d114f0020f40f05585da
:1005ac000026bbe3cbf8547001220421584607f017
:1005bc0045fbcbf854600026b0e335f06bfebbf87e
:1005cc007020244b1b6803fb02f3234aa2fb03237a
:1005dc0000eb9313cbf8243000f056bda2eb060ac7
:1005ec000af1ff3a1ffa8af2049259e703990a4674
:1005fc00514400293ff768af14f0040f1fd00026b8
:10060c008ce3baf1000f05d0baf1000ff4db049ab9
:10061c009245f1da14f0060f20d114f0100f00f00f
:10062c009083023b072b00f2cc81dfe813f029000a
:10063c003e003e003e003e00ca013e00bd010122cc
:10064c001021584607f0fafa002667e3dc41012036
:10065c00d8410120e0410120d34d621014f0040f69
:10066c0008d09bf83f3043f002038bf83f304ff437
:10067c00006600e00026002158461df097f94de376
:10068c00dbf85460b74205d103238bf876304ff476
:10069c0080760be0cbf8547001220421584607f009
:1006ac00cdfacbf85460002638e30026dbf81010a6
:1006bc00dbf808305a1a13d4dbf854003b1a9b1a97
:1006cc00002b1dddbbf8742002f40172042a01d149
:1006dc00012b0cd000221021584607f0affa1de375
:1006ec00dbf80430dbf800001b1a1a44e4e7013095
:1006fc00cbf854009bf8753043f002038bf875303f
:10070c00dbf85430dbf80c20881a914249d2dbf824
:10071c000420dbf80010521afb1a0344d318079379
:10072c00002b07dddbf80430dbf800209b1a079a5e
:10073c009a4246d9dbf83830002b40f0a280dbf827
:10074c000c20dbf808309a4200f0d980b8f80e3053
:10075c00bbf86e209a4238bfabf86e30dbf85420f1
:10076c00b8f80e303b449b1a9bb2bbf8641031b9fd
:10077c002bb19bf83e1041f040018bf83e10abf8ca
:10078c0064309bf87630042b00f0f080062b40f0a0
:10079c001981974240f0c282002158461df006f99b
:1007ac00bce2fb1a03440793002b07dddbf8043093
:1007bc00dbf800001b1a0798984202d99142bed070
:1007cc00b8e740f2dc53cbf8343035f063fddbf89e
:1007dc003420c44b1b6803fb02f3c34aa2fb032364
:1007ec0000eb9313cbf838309bf83e306ff3451386
:1007fc008bf83e30dbf80c10079b0b44cbf80c301d
:10080c00dbf8102091420ed893421cd99a1adbf8cf
:10081c0054100a44cbf85420cbf81030dbf80420e9
:10082c00934224d313e0dbf80410dbf80000091a20
:10083c000a44934207d99a1adbf854100a44cbf8ad
:10084c005420cbf81030dbf80420934205d3dbf8ae
:10085c000010511a5b1acbf80c30dbf810309342b5
:10086c0005d3dbf80010521a9a1acbf810209bf81b
:10087c007630032b02d0082b7ff461af46f00406d0
:10088c005de735f007fddbf83830c31a002bfff6b7
:10089c0056afdbf834305b00b3f57a4f28bf4ff41a
:1008ac007a43cbf8343035f0f5fcdbf834208d4b43
:1008bc001b6803fb02f38c4aa2fb032300eb93138c
:1008cc00cbf83830dbf81010dbf80c20881adbf88a
:1008dc0054301b1acbf85430914207d2dbf8041079
:1008ec00dbf80000091a5b1acbf85430cbf8102057
:1008fc009bf83e3043f080038bf83e301fe79bf8ab
:10090c003f3013f0010f19d113f0400f06d19bf8b3
:10091c003e306ff341038bf83e3017e735f0bafced
:10092c00bbf870206f4b1b6803fb02f34ff47a7219
:10093c00b3fbf2f30344cbf82430e8e7dbf8543094
:10094c009f427ff403af9bf8743013f0040f3ff415
:10095c00fdae9bf83e306ff341038bf83e309bf8b5
:10096c003f306ff300038bf83f30efe6974203d034
:10097c0014f0200f35d0d1e19bf8743013f0040f34
:10098c00f6d035f087fc574b1a6841f2883303fbdd
:10099c0002f34ff47a72b3fbf2f30344cbf830302a
:1009ac0005238bf87630e3e7dbf8543001339f42b4
:1009bc0001d00026b2e1002158461cf0f7ff0026ba
:1009cc00ace1002614f0200f40f0a8819bf87620b3
:1009dc00a2f10803dbb2012b40f2a081062a00f041
:1009ec009d81059a002a3fd0baf1000f7edd059b50
:1009fc005344049a934203dda2eb0a039bb2059382
:100a0c0098f80c301b0908eb83030893dbf81c10d7
:100a1c00dbf81830059a52440a44934280f0f48073
:100a2c005a1a0132b2eb0a0200f1df801ffa82f887
:100a3c0001240094434608a80246514448462cf031
:100a4c0001fb0490059aa2eb080300949bb208aa40
:100a5c00dbf8141048462cf0f5fa049b034498b2ca
:100a6c00059b834200f0d980039bcbb19bf8763079
:100a7c00033bdbb2022b84bfdbf81c30cbf82030fd
:100a8c009bf83e3013f0100f40f0fa809bf83e308c
:100a9c0043f010038bf83e3013f0080f00f0f68093
:100aac00069b002b00f03a81dbf858300133039a97
:100abc002a44934240f03281cbf8583046f4806699
:100acc009bf83f3043f004038bf83f309bf87630b3
:100adc00023b032b00f20781dfe813f0ec00f5007a
:100aec00fe001501e0410120d34d621098f80c3046
:100afc001b09caeb830343440893524493b2049af0
:100b0c009a4228bf1a469246dbf81c10dbf81830c4
:100b1c008a18934259d25b1a01330493bdf81080a2
:100b2c0001240094434608aa48462cf08bfa059001
:100b3c00aaeb080300949bb208aadbf814104846f1
:100b4c002cf080fa059a024490b2049baaeb0303a2
:100b5c00dbf814201344504586d1dbf8581051446f
:100b6c00cbf85810cbf81c309bf87620033ad2b255
:100b7c00022a98bf46f40076dbf85c20b2f1ff3f06
:100b8c003ff472afa2eb0a0acbf85ca0bbf868206a
:100b9c0012eb0a0224d4baf1000f3ff765af1144ef
:100bac00cbf858101344cbf81c30dbf818209342c8
:100bbc0006d9dbf81410521ad2431344cbf81c306c
:100bcc004ff0ff33cbf85c304ee7012300935346d4
:100bdc0008aa48462cf036fadbf81c305344bae726
:100bec004ff0ff33cbf85c303ee70af1ff30dbf817
:100bfc0014209b1ac01a01230093059b08aa0144d8
:100c0c0048462cf01ffa2be701230093059b08aafa
:100c1c00514448462cf016fa22e7dbf85c30b3f16d
:100c2c00ff3f15d09a4519d2059a02eb0a01bbf881
:100c3c006820d018814205d88b4203d8a0eb0a0358
:100c4c009bb20593059babf86830cbf85ca00be727
:100c5c00cbf85ca0059babf8683005e7bbf86820c7
:100c6c001a4405980146514491427ff6fdae9245d7
:100c7c003ff6faaeaaeb03031844abf86800f3e6b0
:100c8c0001221021584606f0d9ff09e7dbb243f0e8
:100c9c0008038bf83e3035f0fdfab14b1a6864232b
:100cac0003fb02f34ff47a72b3fbf2f30344cbf879
:100cbc002c30f5e609238bf87630012211215846a9
:100ccc0006f0bcff2ae008238bf876309bf87530d1
:100cdc0013f0010f07d021e0dbf854309f4208d00d
:100cec0006238bf8763001221021584606f0a6ff19
:100cfc0014e000221021584606f0a0ff00215846af
:100d0c001cf054fe0ae000221021584606f096ff13
:100d1c00002158461cf04afe00e00026bbf87a2061
:100d2c00324000f08e81dbf87c40002c00f08b818f
:100d3c00dbf88030d9f82810bbf93c00a047022121
:100d4c0003e00026eae76ff00d010a22484634f072
:100d5c00fff90a2037f03ef9814600283ff49caa9f
:100d6c00b9f82c60132eeed9d9f81c8098f80c30f9
:100d7c001b09042b0bd9b6eb830f0bdbd9f82030f6
:100d8c0013f400343ff490aa6ff00e01dde76ff01e
:100d9c000d01dae76ff00d01d7e7724b1b68002be2
:100dac003ff47faa00252b46dff8bc91dff8bca1ed
:100dbc00dff8b081e6e035f06dfaa36ac01a0028be
:100dcc00a8bf1026f4e035f065fae36ac01a0028d3
:100ddc00c0f2f48094f87630052b00f08a8110264e
:100dec0087f001023146204606f028ffeee035f090
:100dfc0051fa236bc01a0028c0f2e580012214219d
:100e0c00204606f01bff002120461cf0cffdb1e070
:100e1c0094f83e6006f001060121204627f0bbfa4b
:100e2c0094f83e3043f0010384f83e304ff4805286
:100e3c000021204630f020f9002e40f09b8094f8e1
:100e4c003e306ff3000384f83e300a2384f876308a
:100e5c0090e035f01ffa636ac01a0028c0f28a804d
:100e6c0094f876104b1e082b00f28280dfe803f01a
:100e7c000541556080688080700094f87830032bb1
:100e8c0040f22b81042384f87830354b1a684ff4e8
:100e9c007a7303fb02f3aafb03239b091b01236553
:100eac000221002694f87830013384f87830236dd1
:100ebc005b0023652069e268831a9bb2904204d2de
:100ecc0060682768c01b03449bb2606dc01a6065e4
:100edc00b4f864000344a4f8643022610022204674
:100eec0006f0acfe002e45d0002120461cf05efd25
:100efc0040e094f87830022b40f2f18094f83e6098
:100f0c0006f001031e46002b18bf1421002fc9d177
:100f1c000122204606f092fee4e794f87830042b88
:100f2c0040f2df80042384f8763011210026ede7af
:100f3c0094f87830042b40f2d68014210126e5e792
:100f4c0094f87830042b40f2d08014210126dde790
:100f5c0094f87830042b40f2ca8014210126d5e78e
:100f6c00e0410120dc410120d8410120d34d621029
:100f7c00002e5ad101352db22b46d8f800209542bf
:100f8c00bff48fa9d9f8002052f82340002cf1d0df
:100f9c0094f876300b2bedd094f83e3013f0c0065d
:100fac001abfdf091026002713f0040f7ff403afdc
:100fbc0094f83e3013f0080f7ff405af94f87630b8
:100fcc00052b3ff414af002e7ff40aaf94f83e309b
:100fdc0013f0020f7ff43daf94f83f3013f0400f45
:100fec00c8d094f87630032bc4d135f053f9636a2a
:100ffc00c01a0028bedb94f8792094f884309a4209
:10100c003ff406af02221021204606f017fe35f001
:10101c0041f9b4f870203b4b1b6803fb02f3aafbad
:10102c00032300eb93106062a4e7314600266de7c2
:10103c006ff0090189e66ff00e0186e66ff00e0184
:10104c0083e6022181e602217fe60135cbf8585078
:10105c00b8f80e30abf86e30abf86430404625f083
:10106c00b9fdabf86a00584632f07afa0122102129
:10107c00584606f0e3fd03238bf876309bf83f309f
:10108c0013f0400f7ff499aa9bf83e306ff34103a5
:10109c008bf83e304ff4807640e60135cbf8585053
:1010ac00b8f80e30abf86e30abf86430404625f033
:1010bc0091fdabf86a00584632f052fa0122122127
:1010cc00584606f0bbfd02238bf87630002625e649
:1010dc0014f0020fe1d1002620e60221e1e61221f4
:1010ec00dfe61021dde61121dbe61021d9e6112126
:1010fc00d7e635f0cff8236bc01a0028bff67eaeca
:08110c0010266de6e041012010
:020000040000fa
:101114002de9f04f2ded028b9bb00f21212035f0ee
:1011240009f8002800f007877d4b1b68002b40f36b
:1011340002877c4c0026dff820929fed7b8ab9e37e
:10114400d4f8c4305d6894f8d1202ab3227c012af3
:1011540042d0022a61d1b4f93830b3f1ff3f25d02f
:101164000023724a4ff40071b4f9380034f091fa54
:10117400d4f8bc200221b4f938001ff0adf830b91e
:10118400d4f8c4301b681b6869492846984706216f
:1011940020462ff0a9fd86e31b681b686549284695
:1011a4009847012120462ff09ffd7ce304f1800243
:1011b400618a012027f098fa2087b0f1ff3fcfd150
:1011c400d4f8c4301b681b685b4928469847012142
:1011d40020462ff089fd66e304f18002618a012034
:1011e40037f01bfea087b0f1ff3f0ad00023534a1b
:1011f4004ff4807134f078fc032120462ff074fd05
:1012040051e3d4f8c4301b681b684d4928469847fd
:10121400012120462ff068fd45e31b681b684949fe
:1012240028469847012120462ff05efd3be3d4f881
:10123400c430d3f804b03b4be31adb1003ebc30216
:1012440003eb4203c3eb432303eb8343c3f1000ae1
:1012540097e0d4f8c4301b681b683b49584698474c
:10126400042120462ff040fd1de3b4f93c0035f085
:101274002efc18e30133c4f89430284635f038fcca
:1012840002460b46d4e9080113f071ffc4e90801d2
:10129400002f19dba36ae26a511c8b4231d09342be
:1012a40020dc616b01f1010161632cd020e0d4f8f2
:1012b400c4301b685b68254958469847236b013b3b
:1012c400a26a1344236391e07f42a76234f0e6ffed
:1012d400c4f88c00002384f8cc30042120462ff07d
:1012e40003fdd7e75b1a226b13442363a36ae3620b
:1012f4000c3dadb2002d44d0dff858804ff4c867e0
:1013040036e0934206d1d4f8c4301b681b681049f8
:1013140058469847a36ae26a9342e9dde7e700bfcb
:10132400c04101208034012000007a441982030066
:1013340048eb000000eb000024eb000003820300f4
:1013440070eb000094eb0000aceb0000cceb000071
:10135400f8eb000018fc0020643e01203a464146a8
:10136400b4f93c0022f0fcfca5f5c865adb245b16a
:10137400b5f5c86ff2d22a46d149b4f93c0022f03f
:10138400effcb4f93c0034f025ff05460b2878d96e
:101394000c224946b4f93c0022f0e2fc0c287ff40c
:1013a40058afd9f800301f0e47ea03671a0202f457
:1013b4007f0217431b0a03f47f431f43a762d4f839
:1013c4009430002b7ff456af002ffff64eaf01236d
:1013d400c4f89430d4f8c4301b685b685246b949e9
:1013e40058469847a26a002a7ff461afa36ae36271
:1013f40005a9b4f93c0021f0d9f9b4f93c0037f05f
:1014040037fa35f0e1fe069dd4f8c4301b68628ad1
:101414000292020e0192c0f3074200925f68c0f389
:101424000723c2b2a8495846b847d4f8c4301b6849
:10143400bdf8582002922a0e0192c5f30742009289
:101444005f68c5f30723eab2a0495846b847656404
:10145400bdf85830a4f8643034f020ffc4f8880094
:10146400c4f8a800a36ac4f89c30d4f89430c4f833
:101474009830236bc4f8a030b4f93c0035f027fb56
:101484007fe7d4f894304bb994f8cf30012b40f077
:101494000a82042120462ff027fc04e234f0fefee9
:1014a400d4f8a830c31a22689342edd9d4f8942012
:1014b400d4f898309a4212d1d4f8c4301b681b680f
:1014c40083495846984734f0e9fec4f88c00002359
:1014d40084f8cc30042120462ff006fcd4e7002108
:1014e400204612f031fecfe7b4f93c0034f072fe2e
:1014f40038b994f8cf304bb1092120462ff0f4fbd2
:10150400d1e1b4f93c0035f0e2facce10521204602
:101514002ff0eafbc7e194f8cd30002b00f0bd803a
:10152400b4f93c0034f056fe002840f0be8094f834
:10153400cc305a1c84f8cc200a2b00f2bb808021ca
:10154400b4f93c0037f0fafc002800f0ac81e36aff
:101554005b421a0e42ea0362190201f47f010a4354
:101564001b0a03f47f431343c9f800300025c9f86c
:101574000450c9f808508023c9f80c30c9f8105039
:10158400d4e9080135f0e6f9020e42ea00620302ea
:1015940003f47f031a43030a03f47f431343c9f894
:1015a400143034f08ffed4f88c10d4f88830c91a73
:1015b400b1fbf0f31a0e42ea03621f0207f47f073d
:1015c4003a431f0a07f47f473a43c9f8182000fb3f
:1015d400131307ee103ab8ee477a27ee087a07eeaf
:1015e400900af8ee676ac7ee267a67ee887afcee10
:1015f400e77a17ee903a1a0e42ea0362190201f4ee
:101604007f010a431b0a03f47f431343c9f81c30c8
:10161400236b1a0e42ea0362190201f47f010a43a2
:101624001b0a03f47f431343c9f82030636b1a0e7b
:1016340042ea0362190201f47f010a431b0a03f41c
:101644007f431343c9f82430e36a1a0e42ea036263
:10165400190201f47f010a431b0a03f47f43134375
:10166400c9f82830c9f82c50c9f8305034224946fa
:10167400b4f93c0030f0e6fb4c273a46294605a86d
:1016840036f0e6ff3a4605a9b4f93c0030f0dafb3f
:10169400b4f93c0013f04afc05e10221204612f0a3
:1016a40053fd012384f8cd303ae7b4f93c0035f01a
:1016b4000efaf8e0092120462ff016fbf3e000bff4
:1016c40018fc002030ec0000fc0f02003010020077
:1016d40018ec000094f8cf30012b26d0b4f9380070
:1016e40034f017ff002800f0de803822002105a81e
:1016f40036f0aeff05a9b4f938002bf08afa04f1ec
:10170400400705ad0fcd0fc70fcd0fc70fcd0fc7c6
:1017140095e8030087e80300072120462ff0e4fa48
:10172400b4f9380034f0f9fabde0092120462ff06d
:10173400dbfab8e0d4f8c4305f68b4f9380036f0a6
:10174400f0ff0546002865d0a36a002b49d1bd4ba4
:10175400e31adb1003ebc30203eb4203c3eb4323a3
:1017640003eb8343d4f8c4201268d2f804805a42ad
:10177400b5493846c04734f091fdc4f88800c4f830
:10178400a800a36ac4f89c30b4f9380037f050f8c4
:1017940035f01afdd4f8c4301b68628a0292020e36
:1017a4000192c0f307420092d3f80480c0f30723e8
:1017b400c2b2a6493846c047d4f8c4301b68b4f84e
:1017c4006420029294f84720019294f846200092f3
:1017d400d3f8048094f8453094f844209c49384662
:1017e400c047a36a0133a362d4f894200132c4f839
:1017f4009420e362284635f07bf902460b46d4e98f
:10180400080113f0b4fcc4e90801dff848824ff47e
:10181400c8671ce0b4f9380034f07ffa20b9b4f991
:10182400380036f002fdd8b134f038fdc4f88c002d
:10183400082120462ff058fa35e03a464146b4f9db
:10184400380023f041fba5f5c865adb245b1b5f547
:10185400c86ff2d22a467f49b4f9380023f034fb2a
:10186400a36a63b994f8cf30012b1cd10821204618
:101874002ff03afa34f012fdc4f88c0013e034f07f
:101884000dfdd4f8a830c31a22689342ead9002186
:10189400204612f059fce5e794f8cd30c3b3092192
:1018a40020462ff021fa0136d8346b4b1b68b34223
:1018b40040f3418394f8ce30012bf4d0023b102b3b
:1018c40000f2348301a252f823f000bf4511000056
:1018d40033120000ed1400001b150000d91600009f
:1018e400391700009d18000025190000c1190000d7
:1018f400ed1900002f1c0000151d00001b1e000028
:101904000b1f0000ed1a00007b1e0000211f0000c9
:101914000221204612f018fc012384f8cd30bee7e2
:10192400d4f8c4305f68237c012b29d0022b2cd03f
:10193400444be31adb1003ebc30203eb4203c3eb98
:10194400432303eb83435d42d4f8c4301b685b68d4
:101954002a46424938469847204630f0adf894f874
:10196400d130012b19d0d4f8c4301b685b682a46e7
:101974003b4938469847012120462ff0b5f992e7b4
:10198400b4f93c0030f00efdd2e7b4f9380032f07f
:101994002bf84ff6ff732387cae794f8cf30002b58
:1019a400e1d1d4f8c4301b685b682a462d49384617
:1019b4009847022120462ff097f974e7d4f8c8001d
:1019c40036f0a1f8032808d10b2120462ff08cf91a
:1019d40034f064fcc4f8ac0065e704f14401d4f8c5
:1019e400c80030f068feefe7d4f8c4305d6894f8be
:1019f400cf20012a17d0d4f8c80036f084f8032881
:101a04001bd094f8443003f0f003e02b2ed1237c58
:101a1400012b64d0237c022b7ff445af0c2120469c
:101a24002ff062f93fe71b681b680f492846984767
:101a3400012120462ff058f935e70022a267a4f8c7
:101a44007c20e4e78034012030ec0000fc0f02002d
:101a54003010020018fc0020c04101205cec0000a2
:101a6400c0ec00008cec0000e0ec000004f1780213
:101a740004f14401d4f8c80028f066fdb8b1d4f8e4
:101a8400c4301b6894f87d20039294f87c20029261
:101a940094f87b20019294f87a2000925f6894f87d
:101aa400793094f87820c0492846b847afe734f035
:101ab400f5fbd4f8ac30c71a34f004fc00eb80001a
:101ac40087427ff6f0aed4f8c4301b681b68b74970
:101ad4002846984734f0e2fbc4f8ac00e3e6102152
:101ae40020462ff001f995e7d4f8c4305d6804f17d
:101af4004402618a012037f095f9a087b0f1ff3fd5
:101b040000f087800023aa4a4ff4807133f0ecff81
:101b1400e2680521b4f93c000bf022ff30b9d4f897
:101b2400c4301b681b68a349284698470222062133
:101b3400b4f93c000bf014ff30b9d4f8c4301b687e
:101b44001b689d4928469847d4f8c810b4f93c004e
:101b54002df0c5fc05a9b4f93c0020f027febdf822
:101b64005a30a4f87e30d4f8c4301b681b689349fb
:101b740028469847d4f8c4301b68628a029294f8c5
:101b84004720019294f8462000925f6894f845300b
:101b940094f844208a492846b847112120462ff05a
:101ba400a3f834f07bfbc4f8880033f0f5fb05465a
:101bb4000f4636f0e3ff79016b0141ead5625b1b06
:101bc40062eb0702510241ead3514fea432c0a4621
:101bd4001ceb050347eb0202910141ea93614fead2
:101be400831cbceb030c61eb0201024600231cebdb
:101bf400050047eb010133f0d7fcd4f884301844d6
:101c0400c4f890004ff4c86255216e4836f020fda8
:101c140049e6d4f8c4301b681b686b4928469847ca
:101c2400012120462ff060f83de6d4f8c4305d6809
:101c34000022618a012035f025ff6087b0f1ff3f63
:101c440051d00023614a4ff4007133f022fdd4f8df
:101c54008030002b53d104f1440300220121b4f954
:101c64003a002ff036fa4ff48063a4f87e30d4f8ab
:101c7400c4301b681b68514928469847d4f8c430bf
:101c84001b68628a029294f84720019294f84620d5
:101c940000925f6894f8453094f844204c492846f3
:101ca400b8470d2120462ff01ff8d4f8b82003219f
:101cb400b4f93a001ef010fb30b9d4f8c4301b68f4
:101cc4001b683c4928469847b4f93a0033f0cafceb
:101cd40034f0e4fac4f8ac004ff4c8625421394833
:101ce40036f0b6fcdfe5d4f8c4301b681b6839490c
:101cf40028469847012120462ef0f6ffd3e504f14b
:101d04008003628a0121b4f93a0023f02dffa2e78f
:101d140094f8cf30012b42d0d4f8c4305f68b4f9c2
:101d24003a0034f0f6fb002856d0b4f93a0033f008
:101d3400f4ff34f0b3fac4f8880033f02dfb054601
:101d44000f4636f01bff79016b0141ead5625b1b3c
:101d540062eb0702510241ead3514fea432c0a468f
:101d64001ceb050347eb0202910141ea93614fea40
:101d7400831cbceb030c61eb0201024600231ceb49
:101d8400050047eb010133f00ffcd4f8843018440c
:101d9400c4f890000e2120462ef0a6ff83e50f2103
:101da40020462ef0a1ff7ee540ed000000ed00008e
:101db400038203006ced000094ed00003c68010018
:101dc400bced000018fc002070eb00001982030039
:101dd400f4ed000024eb000034f060fad4f8ac30e9
:101de400c51a34f06ffa00eb800085427ff65badd4
:101df400b4f93a0031f0f8fd4ff6ff736387d4f875
:101e0400c4301b681b684e49384698470f2120464a
:101e14002ef06aff47e5204609f02efe01280bd07c
:101e240002287ff440ad0f2120462ef05dff34f0f0
:101e340035fac4f88c0036e5424f00bfb4f8b05010
:101e44008db1b5f5c86f28bf4ff4c8652a46394629
:101e5400b4f93a0019f0eafeb4f8b0301b1aa4f849
:101e6400b0308542ead9b4f93a0034f065fb204633
:101e740016f072fc17e5227d0b21b4f93c000bf03f
:101e84006ffd204609f0f8fd01280bd002287ff4ed
:101e94000aad122120462ef027ff34f0fff9c4f8d2
:101ea4008c0000e5b4f8b05015b30027dff894a017
:101eb400a846b5f5c86f28bf4ff4c86842465146d6
:101ec400b4f93c002ff0beff0744bfb22d1aadb2e7
:101ed400804501d1002debd1b4f93c0013f026f874
:101ee40040b900221146b4f93c0031f07bfbdae43e
:101ef4002f46f1e7b4f8b030df1ba4f8b0702046e9
:101f040016f02afccfe420462bf08cfcb4f93a00fe
:101f140031f06afd4ff6ff736387c4e420462bf06b
:101f240081fcb4f93c0030f03dfabce401212046c8
:101f34002ef0dafeb7e41bb0bdec028bbde8f08fe7
:081f44002cee000018fc002047
:020000040000fa
:101f4c004f4b20284c444f29000000002a2a2042e5
:101f5c0055434b20616374697665202d3e20737761
:101f6c006974636820746f204c444f206265666fff
:101f7c0072652044504c4c31202a2a004f53435553
:101f8c004c5033324b2028666f726365642c206191
:101f9c007070726f782900004f5343554c50333298
:101fac004b2028696e7465726e616c2c20617070a8
:101fbc00726f78202d20584f534333324b20756e5f
:101fcc00617661696c61626c652900005041535304
:101fdc0020287e3132204d487a2c202b2f2d323068
:101fec0030302070706d29004641494c00000000d3
:101ffc005041535320287e3132204d487a20707244
:10200c006573656e74290000504153532028434c6e
:10201c004b524459202b207e313932204d487a299d
:10202c00000000005041535320287e313932204d9e
:10203c00487a2070726573656e7429005041535351
:10204c0020287e3936204d487a2c206d6f6e6f74a7
:10205c006f6e6963290000005041535320284f567e
:10206c00462049535220657874656e647320746ff2
:10207c002036342d62697429000000004641494c19
:10208c0020286e6f206f766572666c6f7720736593
:10209c00656e2900504153532028485720737461b2
:1020ac00626c653b2044464c4c20647269667473c8
:1020bc002061732065787065637465642900000085
:1020cc00434845434b20286472696674206f7574cd
:1020dc007369646520657870656374656420444633
:1020ec004c4c2062616e6429000000005041535337
:1020fc00202864726966742070726573656e743b17
:10210c0020636865636b207369676e2900000000ab
:10211c007265760044535520444944202020203acf
:10212c002030782530386c580d0a0000202072655c
:10213c00766973696f6e203a20256320202028521f
:10214c0045564953494f4e206669656c64203d20c5
:10215c002575290d0a0000002020736572696573ce
:10216c002020203a202575202020206469653a2003
:10217c0025750d0a000000002020322e31392e3139
:10218c00204644504c4c206e65656473204c444f83
:10219c00203a2025730d0a002020322e31332e31a7
:1021ac00204644504c4c2066616c73652d756e6cea
:1021bc006f636b3a20726576202563206973206506
:1021cc0061726c792028412d4429202d3e20757395
:1021dc0065204c4259504153532f5755462f434c71
:1021ec004b5244592061742044504c4c3120627243
:1021fc00696e672d75700d0a000000002020322ecc
:10220c0031332e31204644504c4c2066616c736542
:10221c002d756e6c6f636b3a206e6f7420617070ed
:10222c006c696361626c6520287265762025632c6d
:10223c0020666978656420696e20462f47290d0a4f
:10224c0000000000786f736300000000756c700074
:10225c0020202a2a20584f534352445931206e656e
:10226c0076657220736574202d3e206e6f2031329e
:10227c00204d487a20636c6f636b20617420584941
:10228c004e312028636865636b2059343031202f20
:10229c00205234373120305229202a2a0d0a0000ce
:1022ac00465245514d3a206e6f20757361626c65d4
:1022bc00207265666572656e636520636c6f636b17
:1022cc00202d3e206d6561737572656d656e742091
:1022dc006661696c65640d0a00000000202064656d
:1022ec0076696174696f6e203a20252b6c642070be
:1022fc00706d2066726f6d2031322e303030204d73
:10230c00487a20202d3e202025730d0a0000000065
:10231c002020726573756c742020203a2025730d73
:10232c000a00000064706c6c00000000584f5343ae
:10233c0031206e6f74207265616479202d3e20729d
:10234c00756e20276877636c6b20786f736327201a
:10235c00666972737420286e6f203132204d487a72
:10236c0020736f75726365290d0a000044504c4c44
:10237c00312063666720203a20524546434c4b3d42
:10238c00584f5343312c204449563d25752028661f
:10239c005f7265667e256c7520487a292c204c442a
:1023ac00523d25752c204c4259504153532b5755b7
:1023bc0046202872657620412f44290d0a00000022
:1023cc0044504c4c31206c6f636b203a20434c4b87
:1023dc005244593d2564204c4f434b3d25642028e5
:1023ec007374617475733d30782530386c58290dd1
:1023fc000a00000020202a2a20434c4b524459202a
:10240c006e6576657220736574202d3e2044504ca9
:10241c004c31206e6f742072756e6e696e67202859
:10242c00726566206f7574206f662033326b2e2eaa
:10243c00332e324d487a3f20584f53433120646f2e
:10244c00776e3f29202a2a0d0a00000020204652d0
:10245c0045514d3a206e6f20757361626c65207228
:10246c0065666572656e6365202d3e2063616e6ed8
:10247c006f74206d6561737572652044504c4c31de
:10248c000d0a0000202074617267657420313932a6
:10249c002e303030204d487a2c2064657620252b48
:1024ac006c642070706d20202d3e202025730d0a49
:1024bc00000000006e6f770044504c4c312f544399
:1024cc0032206e6f74207570202d3e2072756e2038
:1024dc00276877636c6b2064706c6c27206669725c
:1024ec0073740d0a000000005443322036342d6200
:1024fc006974203a20256c6c75207469636b7320a9
:10250c00202868693d256c75206c6f3d256c7529fc
:10251c000d0a0000202074696d6520202020203acf
:10252c0020256c6c752e2530396c6c752073202829
:10253c006e6f6d696e616c203936204d487a290dad
:10254c000a00000020207261746520202020203aaf
:10255c0020256c7520487a206f76657220256c7565
:10256c00206d7320287673205359535f54494d4581
:10257c002f44464c4c2920202d3e202025730d0a3b
:10258c00000000007772617000000000544332209c
:10259c00777261702020203a206869676820776f15
:1025ac00726420256c75202d3e20256c7520202d05
:1025bc003e202025730d0a00636d700054433220b9
:1025cc006e6f74207570202d3e2072756e202768fa
:1025dc0077636c6b206e6f77272066697273740d4e
:1025ec000a0000006877636c6b20636d7020203ae2
:1025fc002077696e646f7720256c7520730d0a0047
:10260c002020485720757074696d653a20256c6cd4
:10261c00752e2530396c6c7520732028584f534318
:10262c00312d3e44504c4c312d3e544332203936e2
:10263c00204d487a290d0a002020656c6170736565
:10264c006420203a20485720256c6c75206e73202e
:10265c0020767320205359535f54494d4520256ce7
:10266c006c75206e7320202864656c746120252b9a
:10267c006c6c64206e73290d0a00000020206472bb
:10268c00696674202020203a205359535f54494dd9
:10269c004520252b6c642070706d20767320485774
:1026ac0020202d3e202025730d0a00006c647266dc
:1026bc007261630044504c4c31206e6f7420757005
:1026cc00202d3e2072756e20276877636c6b20641a
:1026dc00706c6c272066697273740d0a0000000020
:1026ec004c445246524143202020203a202564205d
:1026fc002f2033312020284649584544202d206f67
:10270c006e2d7468652d666c792074756e696e67b4
:10271c00207374616c6c732044504c4c206f6e2091
:10272c0072657620412f44290d0a000044504c4c10
:10273c00312066726571203a20256c7520487a200c
:10274c002028252b6c642070706d20767320313915
:10275c00322e303030204d487a2c20584f53433392
:10276c00324b20726566290d0a00000064697363a0
:10277c0069706c696e65203a206672657175656e5c
:10278c00637920697320636f72726563746564206a
:10279c00696e20534f46545741524520286e747031
:1027ac0020735f726174655f70706229202d2073d5
:1027bc00656520276e7470270d0a0000686f6c64c5
:1027cc0000000000686f6c643a20465245514d2061
:1027dc006e6f20584f534333324b207265666572cf
:1027ec00656e63650d0a0000706879736963616cce
:1027fc0020544332203a20256c7520487a2020281a
:10280c00252b6c642070706d2076732039362e3039
:10281c003030204d487a2c20767320584f53433358
:10282c00324b290d0a000000202074686520736f5c
:10283c00667477617265204e5450206c6f6f7020f7
:10284c00636f727265637473207468697320726548
:10285c0073696475616c20696e207468652072659b
:10286c00616420706174683b0d0a00002020626571
:10287c00747765656e2d73796e6320686f6c646f09
:10288c00766572207e3d20286c6f636b6564206fcb
:10289c0073632e647269667429207820696e74657e
:1028ac007276616c202d2073656520276e747027fd
:1028bc00202f20276e7470207761746368272e0d8b
:1028cc000a00000075736167653a206877636c6b6a
:1028dc00203c7265767c786f7363205b756c705de1
:1028ec007c64706c6c7c6e6f777c777261707c63cf
:1028fc006d70205b736563735d7c6c647266726172
:10290c00637c686f6c643e0d0a00000020207265c9
:10291c007620202020202020202d2073696c6963d4
:10292c006f6e207265766973696f6e2028445355fb
:10293c002044494429202b20726567756c61746fa3
:10294c0072202b206572726174612067617465203e
:10295c0028737465702030290d0a00002020786fd0
:10296c007363205b756c705d202d20656e61626ced
:10297c006520584f53433120283132204d487a2955
:10298c0020616e64206d65617375726520697420b9
:10299c007769746820465245514d202873746570d0
:1029ac002031293b0d0a000020202020202020204f
:1029bc002020202020202027756c702720666f7225
:1029cc006365732074686520696e7465726e616ce2
:1029dc00204f5343554c5033324b20726566657211
:1029ec00656e63650d0a0000202064706c6c2020fd
:1029fc0020202020202d206272696e6720757020a7
:102a0c0044504c4c31207e313932204d487a20666e
:102a1c00726f6d20584f534331202b204652455135
:102a2c004d20766572696679202873746570203242
:102a3c00290d0a0020206e6f7720202020202020d6
:102a4c00202d2036342d6269742054433220746951
:102a5c006d656261736520283936204d487a293ab4
:102a6c00207469636b732c206e732c206d656173fd
:102a7c0075726564207261746520287374657020aa
:102a8c0033290d0a0000000020207772617020208d
:102a9c0020202020202d20666f7263652061205439
:102aac004332206f766572666c6f772c2076657278
:102abc00696679207468652036342d6269742068e3
:102acc0069676820776f7264207469636b73202860
:102adc00737465702033290d0a0000002020636d8b
:102aec0070205b736563735d202d20636f6d706167
:102afc00726520485720636c6f636b20767320538c
:102b0c0059535f54494d452c207265706f72742077
:102b1c0072656c6174697665206472696674207084
:102b2c00706d2028737465702034290d0a00000024
:102b3c0020206c647266726163202020202d20732b
:102b4c00686f772044504c4c31204c4452465241d3
:102b5c0043202b206d656173757265642066726508
:102b6c00712028726561642d6f6e6c793b207475d1
:102b7c006e696e6720697320696e2053572920286f
:102b8c00737465702036290d0a0000002020686fd0
:102b9c006c64202020202020202d207068797369ff
:102bac0063616c205443322072617465207673200b
:102bbc00584f534333324b202b20686f6c646f7625
:102bcc006572206e6f7465202873746570203629c9
:102bdc000d0a00004255434b00000000526567751a
:102bec006c61746f7220203a2025730d0a0000006e
:102bfc004572726174612067617465202844533892
:102c0c0030303030373438293a0d0a004c444f00fc
:102c1c00584f53433120656e61626c6520285854bf
:102c2c00414c454e3d302c2058494e312f504232ac
:102c3c0032293a205244593d25640d0a0000000007
:102c4c00465245514d2072656620203a2025732c42
:102c5c00205245464e554d3d25750d0a000000008d
:102c6c00584f5343312066726571203a20256c759c
:102c7c0020487a2020287e256c752e2530336c75e3
:102c8c00204d487a290d0a0020206e6f7465202093
:102c9c002020203a20696e7465726e616c204f534f
:102cac0043554c5033324b2072656620287e2b2fb7
:102cbc002d7365766572616c20252529202d3e20ab
:102ccc0070726573656e636520636865636b206ff6
:102cdc006e6c790d0a000000584f534333324b2071
:102cec002865787465726e616c204d454d532900d2
:102cfc0044504c4c312066726571203a20256c751d
:102d0c0020487a2020287e256c752e2530336c7552
:102d1c00204d487a2925730d0a00000000000000a0
:102d2c0020205b4f5343554c5033324b2072656619
:0c2d3c002c20617070726f785d0000bf89
:020000040000fa
:102d4800903f01201c0000000000000028b1002076
:102d5800100d000000000000ac8c002004000000f2
:102d680000000000e45e0020c82d00000000000004
:102d7800bc39012004000000000000006c3d012067
:102d880004000000000000002c3101204001000078
:102d9800000000008f3f012001000000000000003b
:102da8000940012001000000000000005835012002
:102db800c0000000000000001c40012004000000ca
:102dc80000000000b44001200400000000000000e2
:102dd8008e4301200200000000000000d8130120eb
:102de8008805000000000000924301200200000056
:102df8000000000098080120a00500000000000065
:102e0800964301200200000000000000380e012057
:102e1800a0050000000000008d4301200100000013
:102e280000000000914301200100000000000000a4
:102e3800184101200c000000000000009a43012006
:102e480002000000000000008c4501200400000082
:102e58000100000096000000b245012002000000b9
:102e68000100000006030000ae430120020000003c
:102e7800010000000100000090450120040000004e
:102e880001000000dc05000095430120010000005e
:102e98000000000018360120b0000000000000000b
:102ea800244101200800000000000000382601200d
:102eb80040020000000000002c4101200c0000002e
:102ec800000000009c4301200100000000000000f9
:102ed800384101200400000000000000b840012033
:102ee80008000000000000009943012001000000d4
:102ef800000000009d4301200200000000000000c7
:102f08003c41012004000000000000009f43012014
:102f18000100000000000000404101200400000002
:102f280000000000f03d01203c000000000000000f
:102f380000000020e45e0000000000004441012081
:102f48001c0000000000000038ca0020100a000021
:102f580000000000a0430120010000000000000064
:102f6800c04001200800000000000000604101206e
:102f78000400000000000000882101205802000021
:102f8800000000006441012008000000000000006b
:102f980060190120d4020000000000008a430120cb
:102fa80002000000000000006c4101202400000025
:102fb800000000009445012004000000010000000a
:102fc8000900000052450120020000000100000035
:102fd800ffff00006645012002000000010000001c
:102fe800ffff00008a4501200200000001000000e8
:102ff800ff070000aa4501200200000001000000b0
:10300800ff070000904101200800000000000000b8
:10301800343b01206c0000000000000098430120b0
:103028000100000000000000b0430120d4000000af
:10303800010000000402030000000000000000007e
:103048000000000000000000000000000000000078
:103058000000000000000000000000000000000068
:103068000000000000000000000000000000000058
:103078000000000000000000000000000000000048
:103088000000000000000000000000000000000038
:103098000000000000000000000000000000000028
:1030a8000000000000000000000000000000000018
:1030b8000000000000000000000000000000000008
:1030c80000000000000000000000000000000000f8
:1030d80000000000000000000000000000000000e8
:1030e80000000000000000000000000000000000d8
:1030f80000000000000000000000000000000000c8
:103108000000000000000000b4450120010000009c
:1031180001000000ff0000009841012004000000a9
:1031280000000000c03901208000000000000000fd
:10313800e83c01204400000000000000a1430120f9
:1031480001000000000000009c4101200400000074
:10315800000000000c4001201000000000000000ea
:103168006c3201200c01000000000000a041012089
:1031780004000000000000002040012010000000b2
:1031880000000000a441012004000000000000002d
:10319800003c01205000000000000000b08c00201e
:1031a8007824000000000000944301200100000082
:1031b80000000000a84101200400000000000000f9
:1031c800c8360120a400000000000000c03a012019
:1031d80074000000000000003040012010000000d2
:1031e80000000000c43e012028000000000000008c
:1031f8000c380120900000000000000090430120de
:103208000100000000000000ac41012004000000a3
:1032180000000000ec3e0120240000000000000037
:103228008c430120010000000000000078450120c7
:103238000c00000001000000f4010000d0070000ad
:10324800010000002c4501202600000001000000bc
:10325800080008000200010002000800000600063d
:103268000101540030303a30343a32353a30313a8c
:1032780030323a303100000054450120120000007d
:103288000100000030303a30343a32353a30313ac1
:1032980030323a3034000000684501201000000048
:1032a800010000000101000089fa0200252d030039
:1032b80000000100a84501200200000001000000f4
:1032c80000010000ac2a01201802000000000000e4
:1032d800a03c0120480000000000000084450120b7
:1032e8000600000001000000ffffffffffff0000d5
:1032f8006040012018000000000000009c380120f8
:103308009000000000000000b04101200c00000007
:103318000000000080340120d800000000000000f8
:10332800643e01203400000000000000bc41012080
:103338000400000000000000a2430120010000007a
:1033480000000000c041012004000000000000004f
:1033580018fc00204006000000000000c4410120c5
:103368000c00000000000000784001200c00000064
:103378000000000040400120100000000000000094
:10338800a34301200100000000000000b24001201a
:1033980002000000000000000a40012002000000b6
:1033a80000000000d04101200400000000000000df
:1033b800504001201000000000000000d44101200e
:1033c8001000000000000000684301200400000015
:1033d80000000000e44101200c0000000000000093
:1033e800a44301200100000000000000f04101207a
:1033f8000400000000000000c83f01201800000081
:1034080000000000f44101200c0000000000000052
:103418006c4301200200000000000000004201206f
:10342800040000000000000048f40020d00700005d
:10343800000000000442012010000000000000000d
:103448006e43012002000000000000001442012029
:103458000800000000000000f83f012011000000f3
:1034680000000000703f01201f0000000000000065
:103478001c420120040000000000000070430120ed
:10348800020000000000000020420120100000009f
:10349800000000007243012002000000000000004c
:1034a80030420120080000000000000074430120a1
:1034b8000200000000000000384201201000000057
:1034c80000000000a54301200100000000000000ea
:1034d800984501200400000001000000640000007d
:1034e800e44401202800000001000000bb010300a3
:1034f800d10101004b020100330203007c020300ea
:10350800dd030300de030300e0030300e103010021
:10351800b32201004842012004000000000000001e
:103528002c3e012038000000000000004c42012021
:1035380010000000000000002c390120900000005d
:1035480000000000081f01208002000000000000a9
:103558005c42012028000000000000008440012097
:103568000c00000000000000e03f012018000000ef
:1035780000000000ac3f01201c000000000000001b
:10358800844201200400000000000000a64301203e
:103598000100000000000000884201200400000033
:1035a800000000009c45012004000000010000000c
:1035b800ffffffff8c4201200c000000000000000c
:1035c800a84001200a0000000000000098420120e5
:1035d8001c000000000000007643012002000000eb
:1035e80000000000b44201200800000000000000b4
:1035f800a7430120010000000000000078280120f6
:103608003402000000000000c42f012068010000ff
:1036180000000000103f01206000000000000000d2
:10362800784301200200000000000000a8430120a8
:103638000100000000000000983e01202c0000005e
:103648000000000048d40020001000000000000026
:103658002c3d01204000000000000000c84001206f
:103668001000000000000000bc420120040000001f
:1036780000000000a9430120010000000000000034
:1036880048e400200008000000000000c0420120bb
:103698000800000000000000c42c01208001000088
:1036a80000000000904001200c0000000000000015
:1036b80048ec00200008000000000000aa43012098
:1036c8000200000000000000d840012008000000af
:1036d80000000000c84201201000000000000000a7
:1036e800ac430120010000000000000078330120f5
:1036f8000801000000000000d84201200800000076
:1037080000000000703d01204000000000000000a3
:103718006c370120a000000000000000ac4501202b
:10372800020000000100000001000000442e0120fa
:103738008001000000000000e042012004000000b9
:1037480000000000b03d0120400000000000000023
:10375800e442012018000000000000007a43012024
:103768000200000000000000fc42012014000000dc
:1037780000000000ad43012001000000000000002f
:10378800a04501200400000001000000e000000145
:10379800104301200400000000000000e040012068
:1037a8003000000000000000144301201000000059
:1037b800000000007c43012004000000000000001d
:1037c80038be0020000c00000000000080430120eb
:1037d8000200000000000000ae45012002000000c9
:1037e80001000000ffff0000244301200800000042
:1037f8000000000058020120400600000000000000
:10380800403a01208000000000000000b04501207f
:10381800020000000100000030c000002c4301201d
:1038280008000000000000008243012002000000a0
:1038380000000000344301200800000000000000e0
:103848008443012004000000000000003c430120e4
:10385800040000000000000088430120020000006e
:1038680000000000e02301205802000000000000d2
:10387800341c0120d4020000000000004043012055
:103888000800000000000000a03b012060000000cc
:103898000000000048430120140000000000000060
:1038a800a445012004000000010000000100000000
:1038b8005c4301200400000000000000503c01208f
:1038c80050000000000000006043012004000000d8
:1038d800000000000c45012020000000010000004d
:1038e80001000000030000000000000000000000cc
:1038f800000000000000000000000000104101204e
:10390800104101200800000000000000644301206d
:103918000400000000000000844401206000000052
:10392800010000000100000003000000000000008a
:10393800000000000000000000000000000000007f
:103948003dff020000000000000000000000000031
:103958001990030035340300000000000000000047
:10396800000000000000000000000000000000004f
:10397800000000000000000000000000000000003f
:10398800000000009c4001200c0000000000000026
:1039980000000000000000006666666666666666ef
:020000040000fa
:1039a8002de9f04f8db001293add0d469046546857
:1039b800c649204634f084fc00285cd0c44920461f
:1039c80034f07efc002800f08180c249204634f0a3
:1039d80077fc002800f0e680bf49204634f070fcf0
:1039e800002800f05c81bd49204634f069fc0028bd
:1039f80000f05a82ba49204634f062fc049000284c
:103a080000f07482b749204634f05afc002800f0d0
:103a18002783b549204634f053fc002800f09083f2
:103a2800b249002029f0aaffb149002029f0a6ffd9
:103a3800b049002029f0a2ffaf49002029f09effdd
:103a4800ae49002029f09affad49002029f096ffe1
:103a5800ac49002029f092ffab49002029f08effe5
:103a6800aa49002029f08affa949002029f086ffe9
:103a78000db0bde8f08fa74b9c69250a05f00f062d
:103a8800a54bd3f818802246a44929f077ff06f100
:103a9800410733463a46a249002029f06fffc4f394
:103aa8000333c4f305429f49002029f067ff18f04b
:103ab800040f40f076839c4a9c49002029f05eff61
:103ac8009b49002029f05aff9a4a74e3022d07dd2a
:103ad8009949d8f8080034f0f3fb002800f07983fe
:103ae80031f018fd044602469449002029f046ffab
:103af800002c49d02ef0e8f805220121084621f0d3
:103b080047fc04460d4654ea050342d0ff238c4a7d
:103b18008c49002029f032ff8b4a00232046294691
:103b280031f040fd8046884a00232046294631f07e
:103b380039fd104619464ff47a72002331f032fdf0
:103b48000090434622468149002029f017ff804b08
:103b5800e61845f1ff374bf67e320023bb4208bf1b
:103b6800b2427c4e7c4b38bf1e467c480c22002358
:103b7800201845f1ff3125f0c7fc33460246784945
:103b8800002029f0fbfe73e77649002029f0f6feb5
:103b98006ee704220121084621f0fafb04460d468f
:103ba800714a29e331f0b6fc00285fd026f03cfecc
:103bb80004466e4b5d6d41f2df63009348f21203d9
:103bc800b6226b49002029f0d9fe009505f00103c3
:103bd80022466849002029f0d1fe002c4ad02ef058
:103be80073f805220421082021f0d2fb04460d4673
:103bf80054ea050343d0544a002331f0d3fc064667
:103c08005d4b0193504a00232046294631f0cafcf7
:103c1800104619464ff47a72002331f0c3fc009025
:103c2800334622465549002029f0a8fe544be31894
:103c3800089345f1ff330993524a0023dde908014f
:103c48008b4208bf8242504e434b38bf1e464f48f6
:103c5800c0220023201845f1ff3125f055fc3346da
:103c680002464b49002029f089fe01e7494929f01d
:103c780085fefde64849002029f080fef8e604228a
:103c88001146082021f084fb04460d4654ea05033a
:103c980040f05c834149002029f070fee8e624f0fa
:103ca8006dff00287cd02ef02ffc05460e462ef026
:103cb80069fd0446022700bf2ef064fd001bb0f525
:103cc8007a7f71d2384632f04bfbf5e71c210000b1
:103cd8005022000030230000c0240000902500007e
:103ce800c4250000b8260000c8270000d02800001e
:103cf8001829000068290000b4290000f4290000f0
:103d0800402a0000942a0000e82a00003c2b00000a
:103d1800982b0000002000410018004020210000de
:103d28003821000064210000182c0000e82b000056
:103d3800fc2b00004c1f0000582200001c2c000027
:103d4800e42c00004c2c000040420f006c2c0000ba
:103d5800bf4249ffd81f0000f41f000000e548ffdc
:103d6800e82200005c220000a41f000000100040b0
:103d780078230000cc230000282d0000fc2c000034
:103d88003f929df47e841e001420000000508ef4a3
:103d9800902400003823000000240000582400006c
:103da800c94929f0ebfd63e62ef0aefb8046894653
:103db8002ef0e8fc041b00f02782b8eb050569eb40
:103dc80006067301680143ead561401b61eb0601f1
:103dd8008b0043ea907382001946501946eb0101a3
:103de800cb0043ea5073c200104619464ff0000a50
:103df8002246534631f0d6fb07468b464fea491315
:103e08004fea481543ead866b5eb080566eb09069c
:103e1800b30043ea9573aa0012eb080543eb0906c1
:103e2800f30043ea5573ea0015461e46cdf80480b0
:103e3800cdf8009042464b46a449504629f09efdd5
:103e4800a34a16232846314631f0acfb8046894602
:103e5800602200232846314631f0a4fb98a3d3e919
:103e6800002331f09ffbcde9002342464b46994998
:103e7800504629f083fd3a46974bfb1804934bf1c3
:103e8800ff33059395480021dde90456b14208bf88
:103e9800a842934b934938bf0b4600932346924957
:103ea800002029f06bfde3e524f068fed0b18f4bcc
:103eb8001c688f4b8f4a5a611a46136913f0100f0a
:103ec800fbd1052032f04cfa884b1b688a4a8b4993
:103ed8009c4208bf0a46009222468949002029f0e0
:103ee8004dfdc5e5784929f049fdc1e5022d05dc00
:103ef80024f044fe78b34ff002080ee00a220021b5
:103f0800d8f8080034f0cafb804624f037fe10b316
:103f1800b8f1000f08bf4ff0020834f02dfe0890ea
:103f280031f010fb81468b4631f034fa06460f46d5
:103f38002ef028fc05464ff47a7404fb08f44ff081
:103f4800020a00bf2ef01efc401ba04208d25046b9
:103f580032f006faf6e76b49002029f00ffd87e5f5
:103f680031f0f0fa05468a4631f014fab5eb090348
:103f780006936aeb0b030793801b61eb0707624b01
:103f8800a0fb030103fb0711089a002331f00afb89
:103f980006468b46dde90612741a6beb020751eaf6
:103fa800020300f071817901630141ead4621b1bad
:103fb80062eb0702510241ead35158020a4603193b
:103fc80047eb0202910141ea93619801c01a61eb43
:103fd8000201dde90623001947eb010125f094faf7
:103fe8008146049042464949002029f0c7fc34a381
:103ff800d3e900232846514631f0d4facde9080127
:104008002fa3d3e900232846514631f0cbfacde956
:104018000023dde908233e49002029f0affc029483
:1040280003970096cdf804b0dde90623394900204e
:1040380029f0a4fca9f2f51240f6aa539a4206d830
:10404800354b049a3549002029f098fc10e509f60b
:104058009f791946324b334a894588bf1346f0e7a2
:1040680024f08cfdc0b12df02ffe0522042108207c
:1040780021f08ef904460d462b4b9a6cc2f304428c
:104088002a49002029f07afc54ea050308d1284976
:10409800002029f073fcebe4264929f06ffce7e4e3
:1040a8002548c0220023201845f1ff3125f02cfabd
:1040b800034622462149002029f060fce7e700bfbb
:1040c80000ca9a3b00000000c4240000f424000049
:1040d80000c00b5a202500007fac65fafe083d00a1
:1040e80048200000f41f000050250000484301202c
:1040f80000a0014100feffff6420000088200000ae
:1041080098250000c825000000ca9a3bf025000049
:104118000c26000044260000a0200000882600008d
:10412800f8200000cc20000000100040ec26000021
:1041380078270000c026000000508ef438270000c1
:1041480024f01cfd20b32df0bffd0522042108201a
:1041580021f01ef950ea01031ed0440844eac17454
:104168004d08994860220023201845f1ff3125f0b9
:10417800cbf9034622469549002029f0fffb9449d4
:10418800002029f0fbfb9349002029f0f7fb6fe49e
:10419800914929f0f3fb6be49049002029f0eefbec
:1041a80066e48f4a8f49002029f0e8fb8e490020f9
:1041b80029f0e4fb8d4a8e49002029f0dffb15f039
:1041c8000c0f3a460cbf8b498b49002029f0d6fbcf
:1041d8004ee431f09ff9044602468849002029f050
:1041e800cdfb002c3ff4d0ac04220121084621f07d
:1041f800cff804460d46824a54ea05036ed1814938
:10420800002029f0bbfb33e44fea49124fea481378
:1042180042ead865b3eb080365eb0905aa0042ea50
:104228009372990011eb080642eb0905eb0043ea8b
:104238005673f20016461d46cdf80480cdf800905e
:1042480042464b467049002029f098fb6f4a1623d6
:104258003046294631f0a6f9804689466022002377
:104268003046294631f09ef953a3d3e9002331f0b3
:1042780099f9cde9002342464b466549002029f0cb
:104288007dfb2246634b08e642466349002029f03d
:1042980075fb49a3d3e900232846514631f082f93a
:1042a8008046894644a3d3e900232846514631f085
:1042b80079f9cde9002342464b465849002029f0b8
:1042c8005dfb029403970096cdf804b0002200230a
:1042d8005349002029f052fb524bb2e6ff235249c2
:1042e800002029f04bfb514a00232046294631f093
:1042f80059f906464d4a00232046294631f052f91d
:10430800104619464ff47a72002331f04bf90090a9
:10431800334622464649002029f030fb4549002013
:1043280029f02cfb444b14eb030a45f1ff3b434aad
:1043380000235b4508bf5245414a364b38bf1a46f1
:104348004049002029f01afbfff792bb374a0023a7
:1043580031f028f906463c4b0193344a00232046a5
:10436800294631f01ff9104619464ff47a72002396
:1043780031f018f90090334622463449002029f0dc
:10438800fdfa334be3180a9345f1ff330b930ca363
:10439800d3e90023dde90a018b4208bf82422d4a96
:1043a8001c4b38bf1a462749002029f0e7fafff7c7
:1043b8005fbb00bfaff3008000ca9a3b000000005b
:1043c800fe117a0000000000002847faf4270000d8
:1043d8003428000078280000c0260000d0270000fc
:1043e800e02b0000e82b0000fc2b0000581f000009
:1043f80084210000a4210000082200001c2c0000d9
:10440800881f0000ac220000f424000000c00b5af2
:1044180020250000f41f0000f02500000c260000f5
:1044280044260000cc2000004c2c000040420f0025
:104438006c2c0000942c00003f2758ff7e841e003f
:10444800fc1f00001c2300002c2d0000fc2c000089
:08445800ff58cbf430200000f6
:020000040000fa
:1044600030b587b0044690f99030002b40f00f81b2
:104470000378012b04bf0023037090f8d430042b81
:1044800000f25784dfe813f005008b00d9002f01fc
:104490003b0390f90830b3f1ff3f57d090f8fc2070
:1044a000012a22d051b229b1022a43d0ff2380f839
:1044b0009030dce003f01f01c3f34a1303f5020060
:1044c00000f580700022012303fa01f1c00134f0ed
:1044d00033fb34f051fd2ff0b5fbc4f8dc0094f849
:1044e000fc30013384f8fc30cfe034f045fd2ff090
:1044f000a9fbd4f8dc30984200f0c78094f908306a
:1045000003f01f0201219140c3f34a1303f5020097
:1045100000f580700a46c00134f00efb34f02cfd2b
:104520002ff090fbc4f8dc0094f8fc30013384f8e1
:10453000fc30aae034f020fd2ff084fbd4f8dc300e
:10454000c31a062b94bf002501258fe090f8fc309c
:104550002bb1012b16d0ff2380f8903087e0002389
:104560000193b44a009201220321d0f8ec0032f00a
:1045700023fc002800f0898094f8fc30013384f893
:10458000fc3082e000230193aa4b009301231a46da
:104590000321d0f8ec0032f00ffc054666e0d0f8bd
:1045a000ec0094f8fc30042b43d8dfe813f005004e
:1045b000c6031300c6033300002200929e4b012164
:1045c00032f022ff002860d094f8fc30013384f8e8
:1045d000fc305ae0d4f8e4309a0ac3f30913b2f578
:1045e000f87f01d11b2b07d09449002029f0caf98c
:1045f000ff2384f890303ae0002200928e4b9049dd
:1046000032f002ff002840d094f8fc30013384f8e7
:10461000fc303ae0d4f8e43003f00f0384f8fe30c5
:104620002bbb8849002029f0adf9ff2384f8903096
:104630001de0ff2384f8903027e090f8fc10c1f1d2
:10464000220200230093804b92b2804800eb0111bc
:10465000d4f8ec0023f094fa94f8fc500544edb241
:1046600084f8fc50222d14bf002501256db10023d4
:1046700084f8fc3094f8d4300133dbb284f8d430c1
:10468000052b04bf022384f890300123237094f992
:104690009030022b00f0538394f90750c5f34a1071
:1046a00000f5020000f58070c00134f0d9fc05f07f
:1046b0001f0520fa05f515f0010f40f076832378e9
:1046c000012b04bf002323700021d4f8ec000af072
:1046d000c1fb0123237094f80431002b00f0768392
:1046e0000023237068e3d0f8ec0094f8fc302f2b03
:1046f00000f2fe81dfe813f03000300030003000bf
:104700003000fc01fc01fc01fc01fc014a004a00f4
:104710004a004a004a00fc01fc01fc01fc01fc01ca
:1047200070007000700070007000fc01fc01fc0162
:10473000fc01fc018b000102b0000102c600010275
:10474000dc000102f2000102080130014d0171019b
:104750009601bb01db01f2010093402305aa05216c
:10476000204622f053fb054600283ff47faf059b0f
:1047700023b10a2384f8fc30002577e73449002070
:1047800029f000f9ff2384f890306fe70a3bdbb291
:1047900000931f2305aa0421204622f037fb05467b
:1047a00000283ff463af059b13f0100f18bf43f0d0
:1047b000e0035bb284f8f03013f1050f04db14233f
:1047c00084f8fc30002551e72149002029f0daf86f
:1047d000ff2384f8903049e7143bdbb200931f239a
:1047e00005aa0821204622f011fb054600283ff4c7
:1047f0003daf059b13f0100f18bf43f0e0035bb211
:1048000084f8f1301e2384f8fc3000252ee70023c5
:104810000093094b01220f4932f0f6fd05460028ae
:104820003ff424af94f8fc30013384f8fc300025c9
:104830001ce700bf433e02008d59030044c1020043
:1048400094000a006cc10200c1830300a85e01004d
:1048500084c1020084000400d4f8e430a4f8f230eb
:1048600000230093bd4b0122bd4932f0cdfd05462a
:1048700000283ff4fbae94f8fc30013384f8fc30a0
:104880000025f3e6d4f8e430a4f8f43000230093d4
:10489000b24b0122b34932f0b7fd054600283ff480
:1048a000e5ae94f8fc30013384f8fc300025dde6f9
:1048b000d4f8e430a4f8f63000230093a74b01228b
:1048c000a94932f0a1fd054600283ff4cfae94f887
:1048d000fc30013384f8fc300025c7e6d4f8e4301e
:1048e000a4f8f830002300939c4b01229f4932f03a
:1048f0008bfd054600283ff4b9ae94f8fc30013337
:1049000084f8fc300025b1e6d4f8e430a4f8fa309d
:1049100094f9f0309bb203f1090291b203f10e0257
:1049200092b2120142ea8122b4f8f23003f00f038e
:104930001a43002301930093012392b28c4932f071
:104940003bfa054600283ff491ae94f8fc30013361
:1049500084f8fc30002589e694f9f13028339bb2c5
:10496000b4f8f420c2f3090242ea8322002301933f
:104970000093012392b27a4932f01efa05460028cc
:104980003ff474ae94f8fc30013384f8fc30002519
:104990006ce694f9f0309bb25a1d91b2b4f8f6204f
:1049a00022f47c5222f03f0242ea012212b292b279
:1049b00009331a43002301930093012392b26949fa
:1049c00032f0faf9054600283ff450ae94f8fc3076
:1049d000013384f8fc30002548e694f9f0309bb2ae
:1049e00003f1090291b2b4f8f82022f47c5222f0cb
:1049f0003f0242ea012212b292b20e331a4300235e
:104a000001930093012392b2574932f0d5f905463c
:104a100000283ff42bae94f8fc30013384f8fc30ce
:104a2000002523e694f9f0309bb203f1110291b214
:104a3000b4f8fa2022f47c5222f03f0242ea01222a
:104a400012b292b216331a4300230193009301234a
:104a500092b2464932f0b0f9054600283ff406ae5e
:104a600094f8fc30013384f8fc300025fee594f81e
:104a7000fe50002301930093012345f6217243f673
:104a800031719d4218bf0a463a4932f095f9054600
:104a900000283ff4ebad94f8fe30012b3ff4e6ad77
:104aa00094f8fc30013384f8fc300025dee5002367
:104ab00002930193012300934ff440734ff48072eb
:104ac0002d4931f0a0ff054600283ff4cfad94f802
:104ad000fc30013384f8fc300025c7e50023019346
:104ae000009301237d22254932f066f90546bde594
:104af000ff2384f890300025b8e50025b6e5d0f80e
:104b0000ec0094f8fc30092b00f20f81dfe813f081
:104b10000a003c005100630076009500ac00cb0019
:104b2000e4000101637e1bb9042384f8fc30ace58a
:104b3000a17d627d00230193114b0093012342ea82
:104b40000122104932f038f900283ff49ead94f864
:104b5000fc30013384f8fc3097e500bf8d59030029
:104b60008a000400ad000400ae000400af000400a1
:104b700084000400d000040088000a0039020a0002
:104b8000c183030002ca0400e17d227e0023019359
:104b90008f4b0093012342ea01228e4932f00cf937
:104ba00000283ff472ad94f8fc30013384f8fc30f7
:104bb0006be500230193864b0093012383228649f2
:104bc00032f0faf800283ff460ad94f8fc3001337d
:104bd00084f8fc3059e5002301937d4b00930123b9
:104be0004ff400427d4932f0e7f800283ff44dad24
:104bf00094f8fc30013384f8fc3046e594f89530a5
:104c000094f89420120442ea036294f892301a4312
:104c100094f89310002301936d4b0093012342ea13
:104c200001226f4932f0c8f800283ff42ead94f805
:104c3000fc30013384f8fc3027e594f8971094f8a1
:104c4000962000230193624b0093012342ea012244
:104c5000644932f0b1f800283ff417ad94f8fc3005
:104c6000013384f8fc3010e594f8973094f89620de
:104c7000120442ea036294f894301a4394f89510af
:104c800000230193524b0093012342ea012256492b
:104c900032f092f800283ff4f8ac94f8fc3001337d
:104ca00084f8fc30f1e4a37e002b4ff00003019365
:104cb000474b00934ff0010314bf102200224ff026
:104cc000011132f079f800283ff4dfac94f8fc30a1
:104cd000013384f8fc30d8e4e17e49f2e60249f27f
:104ce000e623002918bf1a46237f0bb142f48072d5
:104cf00000230193364b00930123042132f05cf82a
:104d000000283ff4c2ac94f8fc30013384f8fc3046
:104d1000bbe400230193354b009301230c224ff495
:104d2000803132f049f80546a0e4ff2384f8903042
:104d30009de4ff2380f89030a7e4002596e4637e8d
:104d4000b3b9d4f8e830002b3ff4a6ac34f014f932
:104d50002ef078ffd4f8e830c01a04287ff69cac17
:104d60000023c4f8e830d4f8ec0034f035f893e4cc
:104d700034f002f92ef066ffd4f8e030c31ab3f530
:104d80007a7fded3c4f8e0002378012b04bf002330
:104d9000237000230093164b01221649d4f8ec002f
:104da00032f032fb01232370cbe794f804316bb16e
:104db0002378012b3ff494ac002384f804310121c3
:104dc000d4f8ec000af046f80123237007b030bd98
:104dd000c183030005ca04008700040001ca04005f
:104de000240001002500010022000100a17d030034
:084df000c369030003ca0400bb
:020000040000fa
:104df8005478204279746520436f756e742d6c6ffa
:104e0800776572203332626974732854784f544c32
:104e18004f2900000d8c03005478204279746520d6
:104e2800436f756e742d75707065722031366269c6
:104e380074732854784f544849290000178c03008c
:104e48005478204672616d657320772f6f206572e4
:104e5800726f722854784654434e5429000000005b
:104e680000000000218c030054782042726f6164b6
:104e780063617374204672616d6573285478424388
:104e88004654290000000000000000002b8c03009d
:104e98005478204d756c746963617374204672612f
:104ea8006d65732854784d465429000000000000b1
:104eb80000000000358c030054782050617573653c
:104ec800204672616d657328547850465429000055
:104ed8000000000000000000000000003f8c0300fc
:104ee80054782036342d62797465204672616d6578
:104ef80073285478424654363429000000000000d4
:104f080000000000498c030054782036352d3132da
:104f1800372062797465204672616d657328544242
:104f2800465431323729000000000000538c03003a
:104f38005478203132382d32353520627974652025
:104f48004672616d657328544246543235352900de
:104f5800000000005d8c03005478203235362d3572
:104f680031312062797465204672616d6573285409
:104f7800424654353131290000000000678c030097
:104f88005478203531322d313032332062797465ce
:104f9800204672616d65732854424654313032336d
:104fa80029000000718c0300547820313032342df0
:104fb800313531382062797465204672616d6573c8
:104fc8002854424654313531382900007b8c03007f
:104fd8005478204672616d6573203e3d203135312d
:104fe800382062797465284754424631353138296a
:104ff80000000000858c0300547820556e646572ab
:1050080072756e204672616d6573206e6f742054e0
:105018005865642854785455522900008f8c030031
:1050280054782053696e676c6520436f6c6c6973a4
:10503800696f6e204672616d6573285478534346d4
:1050480029000000998c0300547820322d31352036
:10505800436f6c6c6973696f6e204672616d65731e
:105068002854784d4346290000000000a38c030013
:10507800547820313620436f6c6c6973696f6e20e9
:105088004672616d65732854784543434e54290030
:1050980000000000ad8c03005478206c617465201a
:1050a800436f6c6c6973696f6e204672616d6573ce
:1050b8002854784c43434e5429000000b78c030011
:1050c8005478204465666572726564204672616d25
:1050d80065732854784454462900000000000000f5
:1050e80000000000c18c030054782043617272698b
:1050f80065722053656e7365206572726f72204603
:1051080072616d657328547843534529cb8c03002d
:105118005278204279746520436f756e742d6c6fd8
:10512800776572203332626974732852784f524c13
:105138004f290000d58c03005278204279746520ed
:10514800436f756e742d75707065722031366269a3
:1051580074732852784f524849290000df8c0300a5
:105168005278204672616d657320772f6f206572c3
:10517800726f722852784652434e5429000000003c
:1051880000000000e98c030052782042726f6164cd
:1051980063617374204672616d6573285278424367
:1051a800465229000000000000000000f38c0300b4
:1051b8005278204d756c746963617374204672610e
:1051c8006d6573202852784d465229000000000072
:1051d80000000000fd8c0300527820506175736553
:1051e800204672616d657328527850465229000036
:1051f800000000000000000000000000078d030010
:1052080052782036342d62797465204672616d6556
:1052180073285278424652363429000000000000b4
:1052280000000000118d030052782036352d3132f0
:10523800372062797465204672616d65732854421f
:105248004652313237290000000000001b8d030050
:105258005278203132382d32353520627974652004
:105268004672616d657328544246523235352900bd
:1052780000000000258d03005278203235362d3588
:1052880031312062797465204672616d65732854e6
:105298004246523531312900000000002f8d0300ad
:1052a8005278203531322d313032332062797465ad
:1052b800204672616d65732854424652313032334c
:1052c80029000000398d0300527820313032342d06
:1052d800313531382062797465204672616d6573a5
:1052e800285442465231353138290000438d030095
:1052f8005278204672616d6573203e3d203135310c
:105308003920627974657328544d584246522900f1
:10531800000000004d8d03005278204672616d65d3
:1053280073203c203634206279746573285278558e
:10533800465229000000000000000000578d0300bd
:105348005278204672616d6573203e2031353138c0
:105358002062797465732852784f465229000000fc
:1053680000000000618d03005278206572726f7230
:10537800204672616d6573203e20313531382062d8
:10538800797465732852784a522900006b8d03009e
:10539800527820435243206572726f7220467261c0
:1053a8006d65732852784643534529000000000074
:1053b80000000000758d03005278204c656e6774fc
:1053c80068206669656c64206572726f7220467227
:1053d800616d65732852784c464645297f8d0300d8
:1053e80052782073796d626f6c206572726f7220cb
:1053f8004672616d65732852785253452900000042
:1054080000000000898d0300527820616c69676e86
:105418006d656e74206572726f72204672616d657b
:10542800732852784145290000000000938d03003d
:105438005278205265736f75726365204572726f7a
:1054480072202852785252452900000000000000be
:10545800000000009d8d03005278206f76657272ff
:10546800756e206572726f72204672616d65732861
:105478005278524f4529000000000000a78d030014
:1054880052782049504864722043686b73756d20c8
:105498006572726f72204672616d65732852784921
:1054a80048434529b18d0300527820544350204386
:1054b800686b73756d206572726f72204672616dcc
:1054c800657328527854434529000000bb8d0300ba
:1054d8005278205544502043686b73756d2065726f
:1054e800726f72204672616d657328527855434514
:0854f80029000000c58d03002e
:020000040000fa
:105500002de9f04fadf20c5d012973dc4ff0140b67
:10551000bbf5fa7f28bf4ff4fa7b30f055fb00282b
:1055200074d04ff47a7033f03df9012033f07afaf9
:10553000b749002028f026fa4ff40c720021b6a8d3
:1055400033f088f8b6a811f0d3fc002840f094801e
:105550000df5367adae97689aba3d3e90023404624
:10556000494630f023f806460f46c7aaa94900204d
:1055700028f008fa0df2da22a749002028f002faf2
:105580000df22442a549002028f0fcf9a44a40f27b
:1055900046334046494630f009f8804689463c2269
:1055a00000233046394630f001f8cde902234ff4ac
:1055b00061620023304639462ff0f8ff1046194645
:1055c0003c2200232ff0f2ffcde9000142464b467a
:1055d0009449002028f0d6f9dae97467924900204e
:1055e00028f0d0f956ea070314d04ff0010c4ff021
:1055f00000081ae013460a220021586833f052f8d6
:105600008346002884d14ff0010b86e7874928f0b4
:10561000b9f9b2e28649002028f0b4f930e000bfc1
:1056200008f10108b8f1090f1fd0c8f12000a8f156
:10563000200126fa08f307fa00f0034327fa01f1e4
:105640000b4303f00104002554ea0503e8d0794b2d
:1056500053f828307849794aac4518bf0a4678494a
:10566000284628f08ff9ac46dae7c6f3412275499f
:10567000002028f087f903e07349002028f082f920
:105680007249002028f07ef938220021a8a832f0c3
:10569000e1ffa8a818f04cf80246002840f08f80df
:1056a000ae9caf9d9df8c032012b13d0684a69496a
:1056b000022b18bf0a466849002028f063f99df8bc
:1056c000d1324bb1012b3bd0644a6249022b18bf47
:1056d0000a4602e0624aeee7624a6349002028f087
:1056e00051f99df8d2226149002028f04bf9e3b22c
:1056f0000393c4f307230293c4f307430193240ed7
:105700000094ebb2c5f307225949002028f03af97a
:10571000a89ad3b20193c2f307230093c2f30743bd
:10572000120e5449002028f02df99df8d0324bb1cb
:10573000012b42d0504a4749022b18bf0a4602e0cb
:105740004e4acae74e4a4f49002028f01bf94e49fd
:10575000002028f017f94822002196a832f07aff9d
:1057600096a81ef0ddfb024670b3032847d04749d8
:10577000002028f007f95a464549002028f002f990
:1057800033f0fef90990002033f04cf94ff4c87063
:1057900033f008f8bbf1000f00f0f3810023002480
:1057a000cde906344ff0ff314ff0ff32cde904125e
:1057b0001e46a246a146a046abe0364ac3e736499c
:1057c000002028f0dff8c2e7bdf858220df25a2178
:1057d000324829f0c1fdbdf86a229ba9304829f062
:1057e000bbfdbdf87c220df27e212e4829f0b4fdd0
:1057f000bdf88e22a4a92c4829f0aefdbbe72b49a9
:10580000002028f0bff8b6e700ca9a3b000000006d
:10581000e882000018830000308300004883000005
:1058200000a0b8306083000088830000b4820000cc
:105830009c83000010690300fc5303001c820000dd
:10584000b0830000b8830000d0830000e88300002c
:10585000248200002c8200001c84000030820000a2
:105860002082000044820000348400004c84000048
:1058700064840000988400005882000004a10000a5
:1058800064820000b8840000d084000078850000a5
:10589000a085000070820000c4a400000485000000
:1058a000108500001c85000028850000348500005c
:1058b0002ff074fd401b61eb07014d01430145eae8
:1058c000d0621b1a62eb0102550245ead3555f0212
:1058d0002a463b1841eb0202950145ea93659f0178
:1058e000ff1a65eb0205099a0023381845eb010100
:1058f0002ff05cfe21e009f1010901345b462246ec
:10590000aa49002028f03ef80a2030f02dfd5c4521
:1059100029d02ff043fd05460f464ff40c720021ad
:105920000aa832f097fe0aa811f0e2fa0028e2d1a4
:10593000099b002bbcd10020002108f1010836187a
:105940004aeb010adde90423994208bf904238bfbf
:10595000cde90401dde906238b4208bf8242ccd2a7
:10596000cde90601c9e7642404fb09f4b4fbfbf4a8
:105970000194cdf8009043465a468d49002028f006
:1059800001f8b8f1000f28d19df8c032022b69d17f
:10599000884a8949002027f0f5ff8849002027f030
:1059a000f1ff33f0edf88246854bd3f800b0854b1c
:1059b000d3f800902ff0f2fc04900691002033f011
:1059c00031f84ff4c87032f0edfe002425464ff454
:1059d0000c777d4edff8148256e0002542462b46b8
:1059e000304651462ff0e2fd06460f464ff47a72dc
:1059f0000023dde9049a484651462ff0d7fd904632
:105a00004ff47a720023484651462ff0cffd81466d
:105a10004ff47a720023dde906ab504659462ff069
:105a2000c5fd03924ff47a720023504659462ff079
:105a3000bdfd02904ff47a720023304639462ff0b4
:105a4000b5fd01924ff47a720023304639462ff0ab
:105a5000adfd009043464a465c49284627f092ff38
:105a600092e75c465a4a5b4b022c98bf1a4690e775
:105a7000a6fb0423db0803eb8303a4eb4303092bfe
:105a80000ed001341e2c12d03a4600210aa832f062
