:020000040000fa
:10000000f0ff0320519502003d720300417203008e
:10001000497203004d72030051720300000000009a
:100020000000000000000000000000005972030002
:10003000457203000000000059720300597203006a
:100040005972030059720300597203005972030078
:100050005972030059720300597203005972030068
:100060005972030059720300597203005972030058
:100070005972030059720300597203005972030048
:100080005972030059720300597203005972030038
:100090005972030059720300597203005972030028
:1000a0005972030059720300597203005972030018
:1000b0005972030059720300597203004b70030018
:1000c00055700300597203005972030059720300fe
:1000d00059720300597203005972030059720300e8
:1000e0005972030059720300000000000000000074
:1000f0000000000059720300fdae0100fdae0100da
:10010000fdae0100fdae010041eb020041eb02003b
:1001100041eb020041eb02005972030059720300e7
:100120005972030059720300597203005972030097
:100130005972030059720300597203005972030087
:100140005972030059720300597203005972030077
:100150005972030059720300597203005972030067
:100160005972030059720300597203005972030057
:100170005972030059720300597203005972030047
:100180005972030059720300597203005972030037
:10019000093c0300597203005972030059720300ad
:1001a0005972030059720300597203005972030017
:1001b0005972030059720300597203005972030007
:1001c00059720300597203005972030059720300f7
:1001d00059720300597203005972030059720300e7
:1001e000597203005972030059720300ed3d030078
:1001f00059720300597203005972030059720300c7
:1002000059720300597203005972030059720300b6
:1002100059720300597203005972030059720300a6
:100220005972030059720300597203005972030096
:100230005972030059720300597203005972030086
:100240005972030059720300597203005972030076
:100250005972030059720300597203005972030066
:0402600059720300cc
:020000040000fa
:10026400f8b500bff8bc08bc9e46704755120300a1
:10027400f8b500bff8bc08bc9e46704731120300b5
:020000040000fa
:08028400d40801000100000094
:020000040000fa
:10028c002de9f04f8db00f210a2034f0a3f8029025
:10029c0010f0010f40f05d85029b13f0020f40f04f
:1002ac007c850db0bde8f08fd9f8187007f11002fd
:1002bc00059213f4007f21d1fb6809933b690a93e3
:1002cc0000228df82c2006238df82d30330a43eaba
:1002dc000623adf82e300c2109a82cf00bf8c043e6
:1002ec0083b2d9f8202012f0040f30d032464146a8
:1002fc00484629f075ff002840f09a8640462cf0bd
:10030c00a9fd98f80ca04fea1a1a4fea8a03049335
:10031c00d9f81ca0baf80220002a00f08c86fd89be
:10032c00bb891d44baf800301d445540adb2c74bd3
:10033c00d3f800c0bcf1000f00f08086d9f828e09b
:10034c00c34b1b68039300239b4610460ee01a46d2
:10035c00314640462bf0ceffcde7b4f872208242f6
:10036c002fd001331bb21c469c452fd9039a52f84f
:10037c002440002cf5d094f876200b2af1d094f878
:10038c0077100129edd8a16c09b18e45e9d1002a6d
:10039c00e3d0b4f87220aa42e3d1daf80010226e4e
:1003ac009142ded1216cfa689142dad1012184f8b4
:1003bc007710c4f848e0059a204632f090fba3462b
:1003cc0022e0bbf1000f08bfa346cae7bbf1000f48
:1003dc0000f08380fb68cbf8403001218bf877105c
:1003ec00cbf848e0059a584632f079fbabf87250de
:1003fc00baf80030abf86030baf80230abf86230c3
:10040c00dbf80030cbf81030d9f810209389049920
:10041c005b1a938198f80d40d8f80870d8f80450fe
:10042c009bf83f3013f0400f5bd19bf875306ff3a6
:10043c0000038bf875309bf87630002b69d0012bbc
:10044c0000f09e801436049aa6eb020a1ffa8afa70
:10045c00aaf1140292b2059214f0010206921abf8c
:10046c00aaf1130a1ffa8af2059a039214f0020fea
:10047c0003d0039a013292b20392dbf81c60dbf8d2
:10048c0020209642c0f0aa80dbf81810dbf814008c
:10049c00091aa6eb020aa1eb0a0a1ffa8af20492c5
:1004ac00dbf85820a5eb020a039a002a00f0a98079
:1004bc00049a002a00f0a080baf1000fc0f29680d6
:1004cc009245c0f0a780039a04998a1a8a45c0f213
:1004dc00a180924540f39e808ee06ff00e0100f0fb
:1004ec0034bc00238bf879309bf83e3013f0020fac
:1004fc009bd134f023f8bbf87020564b1b6803fbe0
:10050c0002f3554aa2fb032300eb9310cbf8240013
:10051c008be714f0040f1ad114f0100f1dd114f046
:10052c00020f27d00135cbf85850404624f006fe78
:10053c00abf86a00584631f0b1f901221221584645
:10054c0005f010fc02238bf876300026e6e3002140
:10055c0058461bf047fd0026e0e3cbf85470002210
:10056c000421584605f0fefb002158461bf03afdcd
:10057c000026d3e3002158461bf034fd0026cde3c2
:10058c0014f0040f40f0c98314f0100f00f0a08594
:10059c00dbf85460b74205d114f0020f40f05585da
:1005ac000026bbe3cbf8547001220421584605f019
:1005bc00d9fbcbf854600026b0e333f0bfffbbf897
:1005cc007020244b1b6803fb02f3234aa2fb03237a
:1005dc0000eb9313cbf8243000f056bda2eb060ac7
:1005ec000af1ff3a1ffa8af2049259e703990a4674
:1005fc00514400293ff768af14f0040f1fd00026b8
:10060c008ce3baf1000f05d0baf1000ff4db049ab9
:10061c009245f1da14f0060f20d114f0100f00f00f
:10062c009083023b072b00f2cc81dfe813f029000a
:10063c003e003e003e003e00ca013e00bd010122cc
:10064c001021584605f08efb002667e3dc410120a3
:10065c00d8410120e0410120d34d621014f0040f69
:10066c0008d09bf83f3043f002038bf83f304ff437
:10067c00006600e00026002158461bf0b3fc4de359
:10068c00dbf85460b74205d103238bf876304ff476
:10069c0080760be0cbf8547001220421584605f00b
:1006ac0061fbcbf85460002638e30026dbf8101011
:1006bc00dbf808305a1a13d4dbf854003b1a9b1a97
:1006cc00002b1dddbbf8742002f40172042a01d149
:1006dc00012b0cd000221021584605f043fb1de3e2
:1006ec00dbf80430dbf800001b1a1a44e4e7013095
:1006fc00cbf854009bf8753043f002038bf875303f
:10070c00dbf85430dbf80c20881a914249d2dbf824
:10071c000420dbf80010521afb1a0344d318079379
:10072c00002b07dddbf80430dbf800209b1a079a5e
:10073c009a4246d9dbf83830002b40f0a280dbf827
:10074c000c20dbf808309a4200f0d980b8f80e3053
:10075c00bbf86e209a4238bfabf86e30dbf85420f1
:10076c00b8f80e303b449b1a9bb2bbf8641031b9fd
:10077c002bb19bf83e1041f040018bf83e10abf8ca
:10078c0064309bf87630042b00f0f080062b40f0a0
:10079c001981974240f0c282002158461bf022fc7e
:1007ac00bce2fb1a03440793002b07dddbf8043093
:1007bc00dbf800001b1a0798984202d99142bed070
:1007cc00b8e740f2dc53cbf8343033f0b7fedbf84b
:1007dc003420c44b1b6803fb02f3c34aa2fb032364
:1007ec0000eb9313cbf838309bf83e306ff3451386
:1007fc008bf83e30dbf80c10079b0b44cbf80c301d
:10080c00dbf8102091420ed893421cd99a1adbf8cf
:10081c0054100a44cbf85420cbf81030dbf80420e9
:10082c00934224d313e0dbf80410dbf80000091a20
:10083c000a44934207d99a1adbf854100a44cbf8ad
:10084c005420cbf81030dbf80420934205d3dbf8ae
:10085c000010511a5b1acbf80c30dbf810309342b5
:10086c0005d3dbf80010521a9a1acbf810209bf81b
:10087c007630032b02d0082b7ff461af46f00406d0
:10088c005de733f05bfedbf83830c31a002bfff664
:10089c0056afdbf834305b00b3f57a4f28bf4ff41a
:1008ac007a43cbf8343033f049fedbf834208d4bef
:1008bc001b6803fb02f38c4aa2fb032300eb93138c
:1008cc00cbf83830dbf81010dbf80c20881adbf88a
:1008dc0054301b1acbf85430914207d2dbf8041079
:1008ec00dbf80000091a5b1acbf85430cbf8102057
:1008fc009bf83e3043f080038bf83e301fe79bf8ab
:10090c003f3013f0010f19d113f0400f06d19bf8b3
:10091c003e306ff341038bf83e3017e733f00efe99
:10092c00bbf870206f4b1b6803fb02f34ff47a7219
:10093c00b3fbf2f30344cbf82430e8e7dbf8543094
:10094c009f427ff403af9bf8743013f0040f3ff415
:10095c00fdae9bf83e306ff341038bf83e309bf8b5
:10096c003f306ff300038bf83f30efe6974203d034
:10097c0014f0200f35d0d1e19bf8743013f0040f34
:10098c00f6d033f0dbfd574b1a6841f2883303fb8a
:10099c0002f34ff47a72b3fbf2f30344cbf830302a
:1009ac0005238bf87630e3e7dbf8543001339f42b4
:1009bc0001d00026b2e1002158461bf013fb0026a3
:1009cc00ace1002614f0200f40f0a8819bf87620b3
:1009dc00a2f10803dbb2012b40f2a081062a00f041
:1009ec009d81059a002a3fd0baf1000f7edd059b50
:1009fc005344049a934203dda2eb0a039bb2059382
:100a0c0098f80c301b0908eb83030893dbf81c10d7
:100a1c00dbf81830059a52440a44934280f0f48073
:100a2c005a1a0132b2eb0a0200f1df801ffa82f887
:100a3c0001240094434608a80246514448462af033
:100a4c0017fd0490059aa2eb080300949bb208aa28
:100a5c00dbf8141048462af00bfd049b034498b2b3
:100a6c00059b834200f0d980039bcbb19bf8763079
:100a7c00033bdbb2022b84bfdbf81c30cbf82030fd
:100a8c009bf83e3013f0100f40f0fa809bf83e308c
:100a9c0043f010038bf83e3013f0080f00f0f68093
:100aac00069b002b00f03a81dbf858300133039a97
:100abc002a44934240f03281cbf8583046f4806699
:100acc009bf83f3043f004038bf83f309bf87630b3
:100adc00023b032b00f20781dfe813f0ec00f5007a
:100aec00fe001501e0410120d34d621098f80c3046
:100afc001b09caeb830343440893524493b2049af0
:100b0c009a4228bf1a469246dbf81c10dbf81830c4
:100b1c008a18934259d25b1a01330493bdf81080a2
:100b2c0001240094434608aa48462af0a1fc0590eb
:100b3c00aaeb080300949bb208aadbf814104846f1
:100b4c002af096fc059a024490b2049baaeb03038c
:100b5c00dbf814201344504586d1dbf8581051446f
:100b6c00cbf85810cbf81c309bf87620033ad2b255
:100b7c00022a98bf46f40076dbf85c20b2f1ff3f06
:100b8c003ff472afa2eb0a0acbf85ca0bbf868206a
:100b9c0012eb0a0224d4baf1000f3ff765af1144ef
:100bac00cbf858101344cbf81c30dbf818209342c8
:100bbc0006d9dbf81410521ad2431344cbf81c306c
:100bcc004ff0ff33cbf85c304ee7012300935346d4
:100bdc0008aa48462af04cfcdbf81c305344bae710
:100bec004ff0ff33cbf85c303ee70af1ff30dbf817
:100bfc0014209b1ac01a01230093059b08aa0144d8
:100c0c0048462af035fc2be701230093059b08aae4
:100c1c00514448462af02cfc22e7dbf85c30b3f157
:100c2c00ff3f15d09a4519d2059a02eb0a01bbf881
:100c3c006820d018814205d88b4203d8a0eb0a0358
:100c4c009bb20593059babf86830cbf85ca00be727
:100c5c00cbf85ca0059babf8683005e7bbf86820c7
:100c6c001a4405980146514491427ff6fdae9245d7
:100c7c003ff6faaeaaeb03031844abf86800f3e6b0
:100c8c0001221021584605f06df809e7dbb243f05c
:100c9c0008038bf83e3033f051fcb14b1a686423d7
:100cac0003fb02f34ff47a72b3fbf2f30344cbf879
:100cbc002c30f5e609238bf87630012211215846a9
:100ccc0005f050f82ae008238bf876309bf8753045
:100cdc0013f0010f07d021e0dbf854309f4208d00d
:100cec0006238bf8763001221021584605f03af88d
:100cfc0014e000221021584605f034f80021584623
:100d0c001bf070f90ae000221021584605f02af871
:100d1c00002158461bf066f900e00026bbf87a204b
:100d2c00324000f08e81dbf87c40002c00f08b818f
:100d3c00dbf88030d9f82810bbf93c00a047022121
:100d4c0003e00026eae76ff00d010a22484632f074
:100d5c0083fb0a2035f062fa814600283ff49caaf6
:100d6c00b9f82c60132eeed9d9f81c8098f80c30f9
:100d7c001b09042b0bd9b6eb830f0bdbd9f82030f6
:100d8c0013f400343ff490aa6ff00e01dde76ff01e
:100d9c000d01dae76ff00d01d7e7724b1b68002be2
:100dac003ff47faa00252b46dff8bc91dff8bca1ed
:100dbc00dff8b081e6e033f0c1fba36ac01a00286b
:100dcc00a8bf1026f4e033f0b9fbe36ac01a002880
:100ddc00c0f2f48094f87630052b00f08a8110264e
:100dec0087f001023146204604f0bcffeee033f000
:100dfc00a5fb236bc01a0028c0f2e5800122142148
:100e0c00204604f0afff002120461bf0ebf8b1e0c8
:100e1c0094f83e6006f001060121204625f06ffd96
:100e2c0094f83e3043f0010384f83e304ff4805286
:100e3c00002120462ef02afb002e40f09b8094f8d7
:100e4c003e306ff3000384f83e300a2384f876308a
:100e5c0090e033f073fb636ac01a0028c0f28a80fa
:100e6c0094f876104b1e082b00f28280dfe803f01a
:100e7c000541556080688080700094f87830032bb1
:100e8c0040f22b81042384f87830354b1a684ff4e8
:100e9c007a7303fb02f3aafb03239b091b01236553
:100eac000221002694f87830013384f87830236dd1
:100ebc005b0023652069e268831a9bb2904204d2de
:100ecc0060682768c01b03449bb2606dc01a6065e4
:100edc00b4f864000344a4f8643022610022204674
:100eec0004f040ff002e45d0002120461bf07af87c
:100efc0040e094f87830022b40f2f18094f83e6098
:100f0c0006f001031e46002b18bf1421002fc9d177
:100f1c000122204604f026ffe4e794f87830042bf5
:100f2c0040f2df80042384f8763011210026ede7af
:100f3c0094f87830042b40f2d68014210126e5e792
:100f4c0094f87830042b40f2d08014210126dde790
:100f5c0094f87830042b40f2ca8014210126d5e78e
:100f6c00e0410120dc410120d8410120d34d621029
:100f7c00002e5ad101352db22b46d8f800209542bf
:100f8c00bff48fa9d9f8002052f82340002cf1d0df
:100f9c0094f876300b2bedd094f83e3013f0c0065d
:100fac001abfdf091026002713f0040f7ff403afdc
:100fbc0094f83e3013f0080f7ff405af94f87630b8
:100fcc00052b3ff414af002e7ff40aaf94f83e309b
:100fdc0013f0020f7ff43daf94f83f3013f0400f45
:100fec00c8d094f87630032bc4d133f0a7fa636ad7
:100ffc00c01a0028bedb94f8792094f884309a4209
:10100c003ff406af02221021204604f0abfe33f071
:10101c0095fab4f870203b4b1b6803fb02f3aafb58
:10102c00032300eb93106062a4e7314600266de7c2
:10103c006ff0090189e66ff00e0186e66ff00e0184
:10104c0083e6022181e602217fe60135cbf8585078
:10105c00b8f80e30abf86e30abf86430404624f084
:10106c006df8abf86a00584630f018fc01221021dc
:10107c00584604f077fe03238bf876309bf83f300c
:10108c0013f0400f7ff499aa9bf83e306ff34103a5
:10109c008bf83e304ff4807640e60135cbf8585053
:1010ac00b8f80e30abf86e30abf86430404624f034
:1010bc0045f8abf86a00584630f0f0fb01221221db
:1010cc00584604f04ffe02238bf87630002625e6b6
:1010dc0014f0020fe1d1002620e60221e1e61221f4
:1010ec00dfe61021dde61121dbe61021d9e6112126
:1010fc00d7e633f023fa236bc01a0028bff67eae76
:08110c0010266de6e041012010
:020000040000fa
:101114002de9f04f2ded028b9bb00f21212033f0f0
:101124005df9002800f007877d4b1b68002b40f316
:1011340002877c4c0026dff820929fed7b8ab9e37e
:10114400d4f8c4305d6894f8d1202ab3227c012af3
:1011540042d0022a61d1b4f93830b3f1ff3f25d02f
:101164000023724a4ff40071b4f9380032f0e5fb01
:10117400d4f8bc200221b4f938001df0c9fb30b901
:10118400d4f8c4301b681b6869492846984706216f
:1011940020462df0b3ff86e31b681b68654928468b
:1011a4009847012120462df0a9ff7ce304f1800239
:1011b400618a012025f04cfd2087b0f1ff3fcfd19b
:1011c400d4f8c4301b681b685b4928469847012142
:1011d40020462df093ff66e304f18002618a01202a
:1011e40035f027ffa087b0f1ff3f0ad00023534a10
:1011f4004ff4807132f0ccfd032120462df07effa8
:1012040051e3d4f8c4301b681b684d4928469847fd
:10121400012120462df072ff45e31b681b684949f4
:1012240028469847012120462df068ff3be3d4f877
:10123400c430d3f804b03b4be31adb1003ebc30216
:1012440003eb4203c3eb432303eb8343c3f1000ae1
:1012540097e0d4f8c4301b681b683b49584698474c
:10126400042120462df04aff1de3b4f93c0033f07d
:1012740070fd18e30133c4f89430284633f07afd46
:1012840002460b46d4e9080112f08dfac4e90801bc
:10129400002f19dba36ae26a511c8b4231d09342be
:1012a40020dc616b01f1010161632cd020e0d4f8f2
:1012b400c4301b685b68254958469847236b013b3b
:1012c400a26a1344236391e07f42a76233f03af9a0
:1012d400c4f88c00002384f8cc30042120462df07f
:1012e4000dffd7e75b1a226b13442363a36ae362ff
:1012f4000c3dadb2002d44d0dff858804ff4c867e0
:1013040036e0934206d1d4f8c4301b681b681049f8
:1013140058469847a36ae26a9342e9dde7e700bfcb
:10132400c04101208034012000007a444964030054
:1013340080d1000038d100005cd100003364030088
:10134400a8d10000ccd10000e4d1000004d20000f8
:1013540030d2000018fc0020643e01203a46414689
:10136400b4f93c0021f018f8a5f5c865adb245b153
:10137400b5f5c86ff2d22a46d149b4f93c0021f040
:101384000bf8b4f93c0033f079f805460b2878d90a
:101394000c224946b4f93c0020f0feff0c287ff4ef
:1013a40058afd9f800301f0e47ea03671a0202f457
:1013b4007f0217431b0a03f47f431f43a762d4f839
:1013c4009430002b7ff456af002ffff64eaf01236d
:1013d400c4f89430d4f8c4301b685b685246b949e9
:1013e40058469847a26a002a7ff461afa36ae36271
:1013f40005a9b4f93c001ff0f5fcb4f93c0035f044
:101404004ffb34f013f8069dd4f8c4301b68628a8d
:101414000292020e0192c0f3074200925f68c0f389
:101424000723c2b2a8495846b847d4f8c4301b6849
:10143400bdf8582002922a0e0192c5f30742009289
:101444005f68c5f30723eab2a0495846b847656404
:10145400bdf85830a4f8643033f074f8c4f8880048
:10146400c4f8a800a36ac4f89c30d4f89430c4f833
:101474009830236bc4f8a030b4f93c0033f069fc15
:101484007fe7d4f894304bb994f8cf30012b40f077
:101494000a82042120462df031fe04e233f052f892
:1014a400d4f8a830c31a22689342edd9d4f8942012
:1014b400d4f898309a4212d1d4f8c4301b681b680f
:1014c40083495846984733f03df8c4f88c0000230c
:1014d40084f8cc30042120462df010fed4e70021fe
:1014e400204611f04df9cfe7b4f93c0032f0c6ffc5
:1014f40038b994f8cf304bb1092120462df0fefdc8
:10150400d1e1b4f93c0033f024fccce105212046c0
:101514002df0f4fdc7e194f8cd30002b00f0bd8030
:10152400b4f93c0032f0aaff002840f0be8094f8e1
:10153400cc305a1c84f8cc200a2b00f2bb808021ca
:10154400b4f93c0035f006fe002800f0ac81e36af3
:101554005b421a0e42ea0362190201f47f010a4354
:101564001b0a03f47f431343c9f800300025c9f86c
:101574000450c9f808508023c9f80c30c9f8105039
:10158400d4e9080133f028fb020e42ea00620302a8
:1015940003f47f031a43030a03f47f431343c9f894
:1015a400143032f0e3ffd4f88c10d4f88830c91a20
:1015b400b1fbf0f31a0e42ea03621f0207f47f073d
:1015c4003a431f0a07f47f473a43c9f8182000fb3f
:1015d400131307ee103ab8ee477a27ee087a07eeaf
:1015e400900af8ee676ac7ee267a67ee887afcee10
:1015f400e77a17ee903a1a0e42ea0362190201f4ee
:101604007f010a431b0a03f47f431343c9f81c30c8
:10161400236b1a0e42ea0362190201f47f010a43a2
:101624001b0a03f47f431343c9f82030636b1a0e7b
:1016340042ea0362190201f47f010a431b0a03f41c
:101644007f431343c9f82430e36a1a0e42ea036263
:10165400190201f47f010a431b0a03f47f43134375
:10166400c9f82830c9f82c50c9f8305034224946fa
:10167400b4f93c002ef0cafd4c273a46294605a889
:1016840035f0fef83a4605a9b4f93c002ef0befd4b
:10169400b4f93c0011f066ff05e10221204611f087
:1016a4006ff8012384f8cd303ae7b4f93c0033f005
:1016b40050fbf8e0092120462df020fdf3e000bfa7
:1016c40018fc002068d2000034f6010068f601001e
:1016d40050d2000094f8cf30012b26d0b4f9380052
:1016e40033f06bf8002800f0de803822002105a8d2
:1016f40035f0c6f805a9b4f9380029f0a0fc04f1c6
:10170400400705ad0fcd0fc70fcd0fc70fcd0fc7c6
:1017140095e8030087e80300072120462df0eefc3e
:10172400b4f9380032f04dfcbde0092120462df01b
:10173400e5fcb8e0d4f8c4305f68b4f9380035f09b
:1017440008f90546002865d0a36a002b49d1bd4b92
:10175400e31adb1003ebc30203eb4203c3eb4323a3
:1017640003eb8343d4f8c4201268d2f804805a42ad
:10177400b5493846c04732f0e5fec4f88800c4f8dd
:10178400a800a36ac4f89c30b4f9380035f068f9ad
:1017940033f04cfed4f8c4301b68628a0292020e05
:1017a4000192c0f307420092d3f80480c0f30723e8
:1017b400c2b2a6493846c047d4f8c4301b68b4f84e
:1017c4006420029294f84720019294f846200092f3
:1017d400d3f8048094f8453094f844209c49384662
:1017e400c047a36a0133a362d4f894200132c4f839
:1017f4009420e362284633f0bdfa02460b46d4e94e
:10180400080111f0d0ffc4e90801dff848824ff461
:10181400c8671ce0b4f9380032f0d3fb20b9b4f93e
:10182400380034f01afed8b132f08cfec4f88c00c3
:10183400082120462df062fc35e03a464146b4f9d1
:10184400380021f05dfea5f5c865adb245b1b5f52a
:10185400c86ff2d22a467f49b4f9380021f050fe0d
:10186400a36a63b994f8cf30012b1cd10821204618
:101874002df044fc32f066fec4f88c0013e032f024
:1018840061fed4f8a830c31a22689342ead9002131
:10189400204610f075ffe5e794f8cd30c3b3092175
:1018a40020462df02bfc0136d8346b4b1b68b34219
:1018b40040f3418394f8ce30012bf4d0023b102b3b
:1018c40000f2348301a252f823f000bf4511000056
:1018d40033120000ed1400001b150000d91600009f
:1018e400391700009d18000025190000c1190000d7
:1018f400ed1900002f1c0000151d00001b1e000028
:101904000b1f0000ed1a00007b1e0000211f0000c9
:101914000221204610f034ff012384f8cd30bee7c5
:10192400d4f8c4305f68237c012b29d0022b2cd03f
:10193400444be31adb1003ebc30203eb4203c3eb98
:10194400432303eb83435d42d4f8c4301b685b68d4
:101954002a4642493846984720462ef0b7fa94f86a
:10196400d130012b19d0d4f8c4301b685b682a46e7
:101974003b4938469847012120462df0bffb92e7aa
:10198400b4f93c002ef0f2fed2e7b4f9380030f09e
:10199400c9f94ff6ff732387cae794f8cf30002bb9
:1019a400e1d1d4f8c4301b685b682a462d49384617
:1019b4009847022120462df0a1fb74e7d4f8c80013
:1019c40034f0c5f9032808d10b2120462df096fbed
:1019d40032f0b8fdc4f8ac0065e704f14401d4f872
:1019e400c8002ff028f8efe7d4f8c4305d6894f805
:1019f400cf20012a17d0d4f8c80034f0a8f903285e
:101a04001bd094f8443003f0f003e02b2ed1237c58
:101a1400012b64d0237c022b7ff445af0c2120469c
:101a24002df06cfb3fe71b681b680f49284698475d
:101a3400012120462df062fb35e70022a267a4f8bd
:101a44007c20e4e78034012068d2000034f60100f1
:101a540068f6010018fc0020c041012094d2000067
:101a6400f8d20000c4d2000018d3000004f17802b8
:101a740004f14401d4f8c80026f0c6ffb8b1d4f884
:101a8400c4301b6894f87d20039294f87c20029261
:101a940094f87b20019294f87a2000925f6894f87d
:101aa400793094f87820c0492846b847afe732f037
:101ab40049fdd4f8ac30c71a32f058fd00eb800071
:101ac40087427ff6f0aed4f8c4301b681b68b74970
:101ad4002846984732f036fdc4f8ac00e3e61021fe
:101ae40020462df00bfb95e7d4f8c4305d6804f173
:101af4004402618a012035f0a1faa087b0f1ff3fca
:101b040000f087800023aa4a4ff4807132f040f934
:101b1400e2680521b4f93c000af060fa30b9d4f85f
:101b2400c4301b681b68a349284698470222062133
:101b3400b4f93c000af052fa30b9d4f8c4301b6846
:101b44001b689d4928469847d4f8c810b4f93c004e
:101b54002bf0a1fe05a9b4f93c001ff043f9bdf830
:101b64005a30a4f87e30d4f8c4301b681b689349fb
:101b740028469847d4f8c4301b68628a029294f8c5
:101b84004720019294f8462000925f6894f845300b
:101b940094f844208a492846b847112120462df05c
:101ba400adfa32f0cffcc4f8880031f079fd054677
:101bb4000f4635f0fbf879016b0141ead5625b1bf6
:101bc40062eb0702510241ead3514fea432c0a4621
:101bd4001ceb050347eb0202910141ea93614fead2
:101be400831cbceb030c61eb0201024600231cebdb
:101bf400050047eb010131f02bfed4f88430184482
:101c0400c4f890004ff4c86255216e4834f038fe91
:101c140049e6d4f8c4301b681b686b4928469847ca
:101c2400012120462df06afa3de6d4f8c4305d68ff
:101c34000022618a012034f049f86087b0f1ff3f47
:101c440051d00023614a4ff4007131f076fed4f88c
:101c54008030002b53d104f1440300220121b4f954
:101c64003a002df040fc4ff48063a4f87e30d4f8a1
:101c7400c4301b681b68514928469847d4f8c430bf
:101c84001b68628a029294f84720019294f84620d5
:101c940000925f6894f8453094f844204c492846f3
:101ca400b8470d2120462df029fad4f8b820032195
:101cb400b4f93a001cf02cfe30b9d4f8c4301b68d7
:101cc4001b683c4928469847b4f93a0031f01efe97
:101cd40032f038fcc4f8ac004ff4c86254213948df
:101ce40034f0cefddfe5d4f8c4301b681b683949f5
:101cf40028469847012120462df000fad3e504f147
:101d04008003628a0121b4f93a0022f0e1f9a2e7e2
:101d140094f8cf30012b42d0d4f8c4305f68b4f9c2
:101d24003a0032f04afd002856d0b4f93a0032f0b5
:101d340048f932f007fcc4f8880031f0b1fc0546dc
:101d44000f4635f033f879016b0141ead5625b1b2c
:101d540062eb0702510241ead3514fea432c0a468f
:101d64001ceb050347eb0202910141ea93614fea40
:101d7400831cbceb030c61eb0201024600231ceb49
:101d8400050047eb010131f063fdd4f884301844b9
:101d9400c4f890000e2120462df0b0f983e50f2100
:101da40020462df0abf97ee578d3000038d300004f
:101db40033640300a4d30000ccd30000744e0100ac
:101dc400f4d3000018fc0020a8d1000049640300eb
:101dd4002cd400005cd1000032f0b4fbd4f8ac3059
:101de400c51a32f0c3fb00eb800085427ff65bad81
:101df400b4f93a002ff096ff4ff6ff736387d4f8d7
:101e0400c4301b681b684e49384698470f2120464a
:101e14002df074f947e5204608f06cf901280bd041
:101e240002287ff440ad0f2120462df067f932f0ef
:101e340089fbc4f88c0036e5424f00bfb4f8b050bb
:101e44008db1b5f5c86f28bf4ff4c8652a46394629
:101e5400b4f93a0018f006fab4f8b0301b1aa4f832
:101e6400b0308542ead9b4f93a0032f0b9fc2046e0
:101e740014f08eff17e5227d0b21b4f93c000af023
:101e8400adf8204608f036f901280bd002287ff47b
:101e94000aad122120462df031f932f053fbc4f87b
:101ea4008c0000e5b4f8b05015b30027dff894a017
:101eb400a846b5f5c86f28bf4ff4c86842465146d6
:101ec400b4f93c002ef0a2f90744bfb22d1aadb20a
:101ed400804501d1002debd1b4f93c0011f042fb57
:101ee40040b900221146b4f93c002ff019fddae4a0
:101ef4002f46f1e7b4f8b030df1ba4f8b0702046e9
:101f040014f046ffcfe4204629f0a2feb4f93a00cb
:101f14002ff008ff4ff6ff736387c4e4204629f0cf
:101f240097feb4f93c002ef021fcbce401212046cc
:101f34002df0e4f8b7e41bb0bdec028bbde8f08fe4
:081f440064d4000018fc002029
:020000040000fa
:101f4c00903f01201c0000000000000028b1002080
:101f5c00100d000000000000ac8c002004000000fc
:101f6c0000000000e45e0020c82d0000000000000e
:101f7c00bc39012004000000000000006c3d012071
:101f8c0004000000000000002c3101204001000082
:101f9c00000000008f3f0120010000000000000045
:101fac00094001200100000000000000583501200c
:101fbc00c0000000000000001c40012004000000d4
:101fcc0000000000b44001200400000000000000ec
:101fdc00824301200200000000000000d813012001
:101fec00880500000000000086430120020000006c
:101ffc000000000098080120a0050000000000006f
:10200c008a4301200200000000000000380e01206d
:10201c00a005000000000000814301200100000029
:10202c0000000000854301200100000000000000ba
:10203c00184101200c000000000000008e4301201c
:10204c000200000000000000804501200400000098
:10205c000100000096000000a645012002000000cf
:10206c000100000006030000a24301200200000052
:10207c000100000001000000844501200400000064
:10208c0001000000dc050000894301200100000074
:10209c000000000018360120b00000000000000015
:1020ac002441012008000000000000003826012017
:1020bc0040020000000000002c4101200c00000038
:1020cc00000000009043012001000000000000000f
:1020dc00384101200400000000000000b84001203d
:1020ec0008000000000000008d43012001000000ea
:1020fc0000000000914301200200000000000000dd
:10210c003c4101200400000000000000934301202a
:10211c00010000000000000040410120040000000c
:10212c0000000000f03d01203c0000000000000019
:10213c0000000020e45e000000000000444101208b
:10214c001c0000000000000038ca0020100a00002b
:10215c00000000009443012001000000000000007a
:10216c00c040012008000000000000006041012078
:10217c00040000000000000088210120580200002b
:10218c000000000064410120080000000000000075
:10219c0060190120d4020000000000007e430120e1
:1021ac0002000000000000006c410120240000002f
:1021bc000000000088450120040000000100000020
:1021cc00090000004645012002000000010000004b
:1021dc00ffff00005a450120020000000100000032
:1021ec00ffff00007e4501200200000001000000fe
:1021fc00ff0700009e4501200200000001000000c6
:10220c00ff070000904101200800000000000000c2
:10221c00343b01206c000000000000008c430120c6
:10222c000100000000000000a4430120d4000000c5
:10223c000100000018e60200000000000000000091
:10224c000000000000000000000000000000000082
:10225c000000000000000000000000000000000072
:10226c000000000000000000000000000000000062
:10227c000000000000000000000000000000000052
:10228c000000000000000000000000000000000042
:10229c000000000000000000000000000000000032
:1022ac000000000000000000000000000000000022
:1022bc000000000000000000000000000000000012
:1022cc000000000000000000000000000000000002
:1022dc0000000000000000000000000000000000f2
:1022ec0000000000000000000000000000000000e2
:1022fc0000000000000000000000000000000000d2
:10230c000000000000000000a845012001000000b2
:10231c0001000000ff0000009841012004000000b3
:10232c0000000000c0390120800000000000000007
:10233c00e83c01204400000000000000954301200f
:10234c0001000000000000009c410120040000007e
:10235c00000000000c4001201000000000000000f4
:10236c006c3201200c01000000000000a041012093
:10237c0004000000000000002040012010000000bc
:10238c0000000000a4410120040000000000000037
:10239c00003c01205000000000000000b08c002028
:1023ac007824000000000000884301200100000098
:1023bc0000000000a8410120040000000000000003
:1023cc00c8360120a400000000000000c03a012023
:1023dc0074000000000000003040012010000000dc
:1023ec0000000000c43e0120280000000000000096
:1023fc000c380120900000000000000084430120f4
:10240c000100000000000000ac41012004000000ad
:10241c0000000000ec3e0120240000000000000041
:10242c008043012001000000000000006c450120e9
:10243c000c00000001000000f4010000d0070000b7
:10244c0001000000204501202600000001000000d2
:10245c000800080002000100020008000006000647
:10246c000101540030303a30343a32353a30313a96
:10247c0030323a3031000000484501201200000093
:10248c000100000030303a30343a32353a30313acb
:10249c0030323a30340000005c450120100000005e
:1024ac00010000000101000041de02006110030088
:1024bc00000001009c45012002000000010000000a
:1024cc0000010000ac2a01201802000000000000ee
:1024dc00a03c0120480000000000000078450120cd
:1024ec000600000001000000ffffffffffff0000df
:1024fc006040012018000000000000009c38012002
:10250c009000000000000000b04101200c00000011
:10251c000000000080340120d80000000000000002
:10252c00643e01203400000000000000bc4101208a
:10253c000400000000000000964301200100000090
:10254c0000000000c0410120040000000000000059
:10255c0018fc00204006000000000000c4410120cf
:10256c000c00000000000000784001200c0000006e
:10257c00000000004040012010000000000000009e
:10258c00974301200100000000000000b240012030
:10259c0002000000000000000a40012002000000c0
:1025ac0000000000d04101200400000000000000e9
:1025bc00504001201000000000000000d441012018
:1025cc0010000000000000005c430120040000002b
:1025dc0000000000e44101200c000000000000009d
:1025ec00984301200100000000000000f041012090
:1025fc000400000000000000c83f0120180000008b
:10260c0000000000f44101200c000000000000005c
:10261c006043012002000000000000000042012085
:10262c00040000000000000048f40020d007000067
:10263c000000000004420120100000000000000017
:10264c00624301200200000000000000144201203f
:10265c000800000000000000f83f012011000000fd
:10266c0000000000703f01201f000000000000006f
:10267c001c42012004000000000000006443012003
:10268c0002000000000000002042012010000000a9
:10269c000000000066430120020000000000000062
:1026ac0030420120080000000000000068430120b7
:1026bc000200000000000000384201201000000061
:1026cc000000000099430120010000000000000000
:1026dc008c45012004000000010000006400000093
:1026ec00d84401202800000001000000bb010300b9
:1026fc00d10101004b020100330203007c020300f4
:10270c00dd030300de030300e0030300e10301002b
:10271c00b322010048420120040000000000000028
:10272c002c3e012038000000000000004c4201202b
:10273c0010000000000000002c3901209000000067
:10274c0000000000081f01208002000000000000b3
:10275c005c420120280000000000000084400120a1
:10276c000c00000000000000e03f012018000000f9
:10277c0000000000ac3f01201c0000000000000025
:10278c008442012004000000000000009a43012054
:10279c00010000000000000088420120040000003d
:1027ac000000000090450120040000000100000022
:1027bc00ffffffff8c4201200c0000000000000016
:1027cc00a84001200a0000000000000098420120ef
:1027dc001c000000000000006a4301200200000001
:1027ec0000000000b44201200800000000000000be
:1027fc009b4301200100000000000000782801200c
:10280c003402000000000000c42f01206801000009
:10281c0000000000103f01206000000000000000dc
:10282c006c43012002000000000000009c430120ca
:10283c000100000000000000983e01202c00000068
:10284c000000000048d40020001000000000000030
:10285c002c3d01204000000000000000c840012079
:10286c001000000000000000bc4201200400000029
:10287c00000000009d43012001000000000000004a
:10288c0048e400200008000000000000c0420120c5
:10289c000800000000000000c42c01208001000092
:1028ac0000000000904001200c000000000000001f
:1028bc0048ec002000080000000000009e430120ae
:1028cc000200000000000000d840012008000000b9
:1028dc0000000000c84201201000000000000000b1
:1028ec00a04301200100000000000000783301200b
:1028fc000801000000000000d84201200800000080
:10290c0000000000703d01204000000000000000ad
:10291c006c370120a000000000000000a045012041
:10292c00020000000100000001000000442e012004
:10293c008001000000000000e042012004000000c3
:10294c0000000000b03d012040000000000000002d
:10295c00e442012018000000000000006e4301203a
:10296c000200000000000000fc42012014000000e6
:10297c0000000000a1430120010000000000000045
:10298c00944501200400000001000000e00000015b
:10299c00e040012030000000000000001043012046
:1029ac001000000000000000704301200400000033
:1029bc000000000038be0020000c000000000000e9
:1029cc00744301200200000000000000a245012019
:1029dc000200000001000000ffff00002043012066
:1029ec000800000000000000580201204006000012
:1029fc0000000000403a01208000000000000000b0
:102a0c00a4450120020000000100000030c00000bd
:102a1c00284301200800000000000000764301203c
:102a2c0002000000000000003043012008000000fc
:102a3c0000000000784301200400000000000000aa
:102a4c003843012004000000000000007c430120fa
:102a5c000200000000000000e023012058020000ea
:102a6c0000000000341c0120d40200000000000013
:102a7c003c4301200800000000000000a03b0120a6
:102a8c006000000000000000444301200c00000026
:102a9c000000000098450120040000000100000027
:102aac000100000050430120040000000000000061
:102abc00503c012050000000000000005443012055
:102acc000400000000000000004501202000000070
:102adc0001000000010000000300000000000000e5
:102aec0000000000000000000000000000000000da
:102afc0010410120104101200800000000000000de
:102b0c00584301200400000000000000784401201c
:102b1c006000000001000000010000000300000044
:102b2c000000000000000000000000000000000099
:102b3c000000000051e30200000000000000000053
:102b4c000000000029720300711703000000000050
:102b5c000000000000000000000000000000000069
:102b6c000000000000000000000000000000000059
:102b7c0000000000000000009c4001200c00000040
:102b8c0000000000000000000000000066666666a1
:020000040000fa
:102b9c0030b587b0044690f99030002b40f00f818f
:102bac000378012b04bf0023037090f8d430042b5e
:102bbc0000f25784dfe813f005008b00d9002f01d9
:102bcc003b0390f90830b3f1ff3f57d090f8fc204d
:102bdc00012a22d051b229b1022a43d0ff2380f816
:102bec009030dce003f01f01c3f34a1303f502003d
:102bfc0000f580700022012303fa01f1c00134f0ca
:102c0c00adf834f0bffa2ff0b5f9c4f8dc0094f845
:102c1c00fc30013384f8fc30cfe034f0b3fa2ff001
:102c2c00a9f9d4f8dc30984200f0c78094f9083048
:102c3c0003f01f0201219140c3f34a1303f5020074
:102c4c0000f580700a46c00134f088f834f09afa26
:102c5c002ff090f9c4f8dc0094f8fc30013384f8c0
:102c6c00fc30aae034f08efa2ff084f9d4f8dc3082
:102c7c00c31a062b94bf002501258fe090f8fc3079
:102c8c002bb1012b16d0ff2380f8903087e0002366
:102c9c000193b44a009201220321d0f8ec0032f0e7
:102cac00c7f9002800f0898094f8fc30013384f8cf
:102cbc00fc3082e000230193aa4b009301231a46b7
:102ccc000321d0f8ec0032f0b3f9054666e0d0f8f9
:102cdc00ec0094f8fc30042b43d8dfe813f005002b
:102cec00c6031300c6033300002200929e4b012141
:102cfc0032f0b6fc002860d094f8fc30013384f834
:102d0c00fc305ae0d4f8e4309a0ac3f30913b2f554
:102d1c00f87f01d11b2b07d09449002029f042f8f1
:102d2c00ff2384f890303ae0002200928e4b9049b9
:102d3c0032f096fc002840d094f8fc30013384f833
:102d4c00fc303ae0d4f8e43003f00f0384f8fe30a2
:102d5c002bbb8849002029f025f8ff2384f89030fc
:102d6c001de0ff2384f8903027e090f8fc10c1f1af
:102d7c00220200230093804b92b2804800eb011199
:102d8c00d4f8ec0023f0aaf994f8fc500544edb209
:102d9c0084f8fc50222d14bf002501256db10023b1
:102dac0084f8fc3094f8d4300133dbb284f8d4309e
:102dbc00052b04bf022384f890300123237094f96f
:102dcc009030022b00f0538394f90750c5f34a104e
:102ddc0000f5020000f58070c00134f043fa05f0f4
:102dec001f0520fa05f515f0010f40f076832378c6
:102dfc00012b04bf002323700021d4f8ec000af04f
:102e0c003ffb0123237094f80431002b00f07683f0
:102e1c000023237068e3d0f8ec0094f8fc302f2bdf
:102e2c0000f2fe81dfe813f030003000300030009b
:102e3c003000fc01fc01fc01fc01fc014a004a00d1
:102e4c004a004a004a00fc01fc01fc01fc01fc01a7
:102e5c0070007000700070007000fc01fc01fc013f
:102e6c00fc01fc018b000102b0000102c600010252
:102e7c00dc000102f2000102080130014d01710178
:102e8c009601bb01db01f2010093402305aa052149
:102e9c00204622f069fa054600283ff47faf059bd7
:102eac0023b10a2384f8fc30002577e7344900204d
:102ebc0028f078ffff2384f890306fe70a3bdbb2f1
:102ecc0000931f2305aa0421204622f04dfa054643
:102edc0000283ff463af059b13f0100f18bf43f0ad
:102eec00e0035bb284f8f03013f1050f04db14231c
:102efc0084f8fc30002551e72149002028f052ffce
:102f0c00ff2384f8903049e7143bdbb200931f2376
:102f1c0005aa0821204622f027fa054600283ff48e
:102f2c003daf059b13f0100f18bf43f0e0035bb2ed
:102f3c0084f8f1301e2384f8fc3000252ee70023a2
:102f4c000093094b01220f4932f08afb05460028f9
:102f5c003ff424af94f8fc30013384f8fc300025a6
:102f6c001ce700bf7b240200353c030070a5020067
:102f7c0094000a0098a50200f1650300e0440100ea
:102f8c00b0a5020084000400d4f8e430a4f8f230b8
:102f9c0000230093bd4b0122bd4932f061fb054675
:102fac0000283ff4fbae94f8fc30013384f8fc307d
:102fbc000025f3e6d4f8e430a4f8f43000230093b1
:102fcc00b24b0122b34932f04bfb054600283ff4cb
:102fdc00e5ae94f8fc30013384f8fc300025dde6d6
:102fec00d4f8e430a4f8f63000230093a74b012268
:102ffc00a94932f035fb054600283ff4cfae94f8d2
:10300c00fc30013384f8fc300025c7e6d4f8e430fa
:10301c00a4f8f830002300939c4b01229f4932f016
:10302c001ffb054600283ff4b9ae94f8fc30013381
:10303c0084f8fc300025b1e6d4f8e430a4f8fa307a
:10304c0094f9f0309bb203f1090291b203f10e0234
:10305c0092b2120142ea8122b4f8f23003f00f036b
:10306c001a43002301930093012392b28c4931f04f
:10307c00dfff054600283ff491ae94f8fc30013395
:10308c0084f8fc30002589e694f9f13028339bb2a2
:10309c00b4f8f420c2f3090242ea8322002301931c
:1030ac000093012392b27a4931f0c2ff0546002801
:1030bc003ff474ae94f8fc30013384f8fc300025f6
:1030cc006ce694f9f0309bb25a1d91b2b4f8f6202c
:1030dc0022f47c5222f03f0242ea012212b292b256
:1030ec0009331a43002301930093012392b26949d7
:1030fc0031f09eff054600283ff450ae94f8fc30aa
:10310c00013384f8fc30002548e694f9f0309bb28a
:10311c0003f1090291b2b4f8f82022f47c5222f0a7
:10312c003f0242ea012212b292b20e331a4300233a
:10313c0001930093012392b2574931f079ff054670
:10314c0000283ff42bae94f8fc30013384f8fc30ab
:10315c00002523e694f9f0309bb203f1110291b2f1
:10316c00b4f8fa2022f47c5222f03f0242ea012207
:10317c0012b292b216331a43002301930093012327
:10318c0092b2464931f054ff054600283ff406ae92
:10319c0094f8fc30013384f8fc300025fee594f8fb
:1031ac00fe50002301930093012345f6217243f650
:1031bc0031719d4218bf0a463a4931f039ff054634
:1031cc0000283ff4ebad94f8fe30012b3ff4e6ad54
:1031dc0094f8fc30013384f8fc300025dee5002344
:1031ec0002930193012300934ff440734ff48072c8
:1031fc002d4931f044fd054600283ff4cfad94f83d
:10320c00fc30013384f8fc300025c7e50023019322
:10321c00009301237d22254931f00aff0546bde5c7
:10322c00ff2384f890300025b8e50025b6e5d0f8ea
:10323c00ec0094f8fc30092b00f20f81dfe813f05e
:10324c000a003c005100630076009500ac00cb00f6
:10325c00e4000101637e1bb9042384f8fc30ace567
:10326c00a17d627d00230193114b0093012342ea5f
:10327c000122104931f0dcfe00283ff49ead94f899
:10328c00fc30013384f8fc3097e500bf353c03007b
:10329c008a000400ad000400ae000400af0004007e
:1032ac0084000400d000040088000a0039020a00df
:1032bc00f165030002ca0400e17d227e0023019324
:1032cc008f4b0093012342ea01228e4931f0b0fe6c
:1032dc0000283ff472ad94f8fc30013384f8fc30d4
:1032ec006be500230193864b0093012383228649cf
:1032fc0031f09efe00283ff460ad94f8fc300133b1
:10330c0084f8fc3059e5002301937d4b0093012395
:10331c004ff400427d4931f08bfe00283ff44dad57
:10332c0094f8fc30013384f8fc3046e594f8953081
:10333c0094f89420120442ea036294f892301a43ef
:10334c0094f89310002301936d4b0093012342eaf0
:10335c0001226f4931f06cfe00283ff42ead94f839
:10336c00fc30013384f8fc3027e594f8971094f87e
:10337c00962000230193624b0093012342ea012221
:10338c00644931f055fe00283ff417ad94f8fc3039
:10339c00013384f8fc3010e594f8973094f89620bb
:1033ac00120442ea036294f894301a4394f895108c
:1033bc0000230193524b0093012342ea0122564908
:1033cc0031f036fe00283ff4f8ac94f8fc300133b1
:1033dc0084f8fc30f1e4a37e002b4ff00003019342
:1033ec00474b00934ff0010314bf102200224ff003
:1033fc00011131f01dfe00283ff4dfac94f8fc30d5
:10340c00013384f8fc30d8e4e17e49f2e60249f25b
:10341c00e623002918bf1a46237f0bb142f48072b1
:10342c0000230193364b00930123042131f000fe5d
:10343c0000283ff4c2ac94f8fc30013384f8fc3023
:10344c00bbe400230193354b009301230c224ff472
:10345c00803131f0edfd0546a0e4ff2384f8903077
:10346c009de4ff2380f89030a7e4002596e4637e6a
:10347c00b3b9d4f8e830002b3ff4a6ac33f082fe9d
:10348c002ef078fdd4f8e830c01a04287ff69cacf6
:10349c000023c4f8e830d4f8ec0033f0a3fd93e437
:1034ac0033f070fe2ef066fdd4f8e030c31ab3f59d
:1034bc007a7fded3c4f8e0002378012b04bf00230d
:1034cc00237000230093164b01221649d4f8ec000c
:1034dc0032f0c6f801232370cbe794f804316bb1ba
:1034ec002378012b3ff494ac002384f804310121a0
:1034fc00d4f8ec0009f0c4ff0123237007b030bdf1
:10350c00f165030005ca04008700040001ca040029
:10351c00240001002500010022000100e95f0300e6
:08352c00474c030003ca040030
:020000040000fa
:103534005478204279746520436f756e742d6c6fd6
:10354400776572203332626974732854784f544c0f
:103554004f290000256e03005478204279746520b9
:10356400436f756e742d75707065722031366269a3
:1035740074732854784f5448492900002f6e03006f
:103584005478204672616d657320772f6f206572c1
:10359400726f722854784654434e54290000000038
:1035a40000000000396e030054782042726f616499
:1035b40063617374204672616d6573285478424365
:1035c400465429000000000000000000436e030080
:1035d4005478204d756c746963617374204672610c
:1035e4006d65732854784d4654290000000000008e
:1035f400000000004d6e030054782050617573651f
:10360400204672616d657328547850465429000031
:10361400000000000000000000000000576e0300de
:1036240054782036342d62797465204672616d6554
:1036340073285478424654363429000000000000b0
:1036440000000000616e030054782036352d3132bd
:10365400372062797465204672616d65732854421f
:103664004654313237290000000000006b6e03001d
:103674005478203132382d32353520627974652002
:103684004672616d657328544246543235352900bb
:1036940000000000756e03005478203235362d3555
:1036a40031312062797465204672616d65732854e6
:1036b4004246543531312900000000007f6e03007a
:1036c4005478203531322d313032332062797465ab
:1036d400204672616d65732854424654313032334a
:1036e40029000000896e0300547820313032342dd3
:1036f400313531382062797465204672616d6573a5
:10370400285442465431353138290000936e030061
:103714005478204672616d6573203e3d2031353109
:103724003820627974652847544246313531382946
:10373400000000009d6e0300547820556e6465728d
:1037440072756e204672616d6573206e6f742054bd
:10375400586564285478545552290000a76e030014
:1037640054782053696e676c6520436f6c6c697381
:10377400696f6e204672616d6573285478534346b1
:1037840029000000b16e0300547820322d31352019
:10379400436f6c6c6973696f6e204672616d6573fb
:1037a4002854784d4346290000000000bb6e0300f6
:1037b400547820313620436f6c6c6973696f6e20c6
:1037c4004672616d65732854784543434e5429000d
:1037d40000000000c56e03005478206c61746520fd
:1037e400436f6c6c6973696f6e204672616d6573ab
:1037f4002854784c43434e5429000000cf6e0300f4
:103804005478204465666572726564204672616d01
:1038140065732854784454462900000000000000d1
:1038240000000000d96e030054782043617272696d
:1038340065722053656e7365206572726f722046df
:1038440072616d657328547843534529e36e030010
:103854005278204279746520436f756e742d6c6fb5
:10386400776572203332626974732852784f524cf0
:103874004f290000ed6e03005278204279746520d0
:10388400436f756e742d7570706572203136626980
:1038940074732852784f524849290000f76e030088
:1038a4005278204672616d657320772f6f206572a0
:1038b400726f722852784652434e54290000000019
:1038c40000000000016f030052782042726f6164af
:1038d40063617374204672616d6573285278424344
:1038e4004652290000000000000000000b6f030096
:1038f4005278204d756c74696361737420467261eb
:103904006d6573202852784d46522900000000004e
:1039140000000000156f0300527820506175736534
:10392400204672616d657328527850465229000012
:103934000000000000000000000000001f6f0300f2
:1039440052782036342d62797465204672616d6533
:103954007328527842465236342900000000000091
:1039640000000000296f030052782036352d3132d3
:10397400372062797465204672616d6573285442fc
:10398400465231323729000000000000336f030033
:103994005278203132382d323535206279746520e1
:1039a4004672616d6573285442465232353529009a
:1039b400000000003d6f03005278203235362d356b
:1039c40031312062797465204672616d65732854c3
:1039d400424652353131290000000000476f030090
:1039e4005278203531322d3130323320627974658a
:1039f400204672616d657328544246523130323329
:103a040029000000516f0300527820313032342de8
:103a1400313531382062797465204672616d657381
:103a24002854424652313531382900005b6f030077
:103a34005278204672616d6573203e3d20313531e8
:103a44003920627974657328544d584246522900ce
:103a540000000000656f03005278204672616d65b6
:103a640073203c203634206279746573285278556b
:103a74004652290000000000000000006f6f0300a0
:103a84005278204672616d6573203e20313531389d
:103a94002062797465732852784f465229000000d9
:103aa40000000000796f03005278206572726f7213
:103ab400204672616d6573203e20313531382062b5
:103ac400797465732852784a52290000836f030081
:103ad400527820435243206572726f72204672619d
:103ae4006d65732852784643534529000000000051
:103af400000000008d6f03005278204c656e6774df
:103b040068206669656c64206572726f7220467203
:103b1400616d65732852784c46464529976f0300ba
:103b240052782073796d626f6c206572726f7220a7
:103b34004672616d6573285278525345290000001e
:103b440000000000a16f0300527820616c69676e69
:103b54006d656e74206572726f72204672616d6558
:103b6400732852784145290000000000ab6f030020
:103b74005278205265736f75726365204572726f57
:103b8400722028527852524529000000000000009b
:103b940000000000b56f03005278206f76657272e2
:103ba400756e206572726f72204672616d6573283e
:103bb4005278524f4529000000000000bf6f0300f7
:103bc40052782049504864722043686b73756d20a5
:103bd4006572726f72204672616d657328527849fe
:103be40048434529c96f0300527820544350204369
:103bf400686b73756d206572726f72204672616da9
:103c0400657328527854434529000000d36f03009c
:103c14005278205544502043686b73756d2065724b
:103c2400726f72204672616d6573285278554345f0
:083c340029000000dd6f030010
:020000040000fa
:043c3c0001207047ac
:020000040000fa
:103c40002de9f04fadf20c5d012973dc4ff0140b40
:103c5000bbf5fa7f28bf4ff4fa7b30f009f9002852
:103c600074d04ff47a7032f0b5fe012032f0f2ffda
:103c7000b749002028f09cf84ff40c720021b6a838
:103c800032f000feb6a811f04ffc002840f09480fe
:103c90000df5367adae97689aba3d3e900234046fd
:103ca00049462ff0d7fd06460f46c7aaa94900206e
:103cb00028f07ef80df2da22a749002028f078f8e3
:103cc0000df22442a549002028f072f8a44a40f2df
:103cd0004633404649462ff0bdfd804689463c228a
:103ce0000023304639462ff0b5fdcde902234ff4cd
:103cf00061620023304639462ff0acfd104619466c
:103d00003c2200232ff0a6fdcde9000142464b46a0
:103d10009449002028f04cf8dae9746792490020b1
:103d200028f046f856ea070314d04ff0010c4ff084
:103d300000081ae013460a220021586832f0cafd32
:103d40008346002884d14ff0010b86e7874928f08d
:103d50002ff8b2e28649002028f02af830e000bfb0
:103d600008f10108b8f1090f1fd0c8f12000a8f12f
:103d7000200126fa08f307fa00f0034327fa01f1bd
:103d80000b4303f00104002554ea0503e8d0794b06
:103d900053f828307849794aac4518bf0a46784923
:103da000284628f005f8ac46dae7c6f34122754903
:103db000002027f0fdff03e07349002027f0f8ff03
:103dc0007249002027f0f4ff38220021a8a832f021
:103dd00059fda8a817f0c8ff0246002840f08f80c0
:103de000ae9caf9d9df8c032012b13d0684a694943
:103df000022b18bf0a466849002027f0d9ff9df81a
:103e0000d1324bb1012b3bd0644a6249022b18bf1f
:103e10000a4602e0624aeee7624a6349002027f060
:103e2000c7ff9df8d2226149002027f0c1ffe3b20d
:103e30000393c4f307230293c4f307430193240eaf
:103e40000094ebb2c5f307225949002027f0b0ffd8
:103e5000a89ad3b20193c2f307230093c2f3074396
:103e6000120e5449002027f0a3ff9df8d0324bb129
:103e7000012b42d0504a4749022b18bf0a4602e0a4
:103e80004e4acae74e4a4f49002027f091ff4e495b
:103e9000002027f08dff4822002196a832f0f2fc86
:103ea00096a81ef059fb024670b3032847d0474935
:103eb000002027f07dff5a464549002027f078ff73
:103ec00032f076ff0990002032f0c4fe4ff4c87043
:103ed00032f080fdbbf1000f00f0f38100230024dd
:103ee000cde906344ff0ff314ff0ff32cde9041237
:103ef0001e46a246a146a046abe0364ac3e7364975
:103f0000002027f055ffc2e7bdf858220df25a21d4
:103f1000324829f0fdfbbdf86a229ba9304829f000
:103f2000f7fbbdf87c220df27e212e4829f0f0fb34
:103f3000bdf88e22a4a92c4829f0eafbbbe72b4947
:103f4000002027f035ffb6e700ca9a3b00000000ca
:103f500010640000406400005864000070640000b9
:103f600000a0b83088640000b0640000dc6300008a
:103f7000c4640000b84b030004370300446300002e
:103f8000d8640000e0640000f864000010650000e0
:103f90004c63000054630000446500005863000057
:103fa000486300006c6300005c65000074650000fd
:103fb0008c650000c06500008063000094870000ed
:103fc0008c630000e0650000f8650000a06600005a
:103fd000c866000098630000548b00002c66000047
:103fe0003866000044660000506600005c66000011
:103ff0002ff058fb401b61eb07014d01430145eadf
:10400000d0621b1a62eb0102550245ead3555f02ea
:104010002a463b1841eb0202950145ea93659f0150
:10402000ff1a65eb0205099a0023381845eb0101d8
:104030002ff010fc21e009f1010901345b46224612
:10404000aa49002027f0b4fe0a2030f0e1fa5c45ce
:1040500029d02ff027fb05460f464ff40c720021a4
:104060000aa832f00ffc0aa811f05efa0028e2d18b
:10407000099b002bbcd10020002108f10108361853
:104080004aeb010adde90423994208bf904238bf98
:10409000cde90401dde906238b4208bf8242ccd280
:1040a000cde90601c9e7642404fb09f4b4fbfbf481
:1040b0000194cdf8009043465a468d49002027f0e0
:1040c00077feb8f1000f28d19df8c032022b69d1dc
:1040d000884a8949002027f06bfe8849002027f094
:1040e00067fe32f065fe8246854bd3f800b0854b03
:1040f000d3f800902ff0d6fa04900691002032f009
:10410000a9fd4ff4c87032f065fc002425464ff439
:104110000c777d4edff8148256e0002542462b4690
:10412000304651462ff096fb06460f464ff47a7202
:104130000023dde9049a484651462ff08bfb904658
:104140004ff47a720023484651462ff083fb814694
:104150004ff47a720023dde906ab504659462ff042
:1041600079fb03924ff47a720023504659462ff0a0
:1041700071fb02904ff47a720023304639462ff0db
:1041800069fb01924ff47a720023304639462ff0d2
:1041900061fb009043464a465c49284627f008feea
:1041a00092e75c465a4a5b4b022c98bf1a4690e74e
:1041b000a6fb0423db0803eb8303a4eb4303092bd7
:1041c0000ed001341e2c12d03a4600210aa832f03b
:1041d00059fb0aa811f0a8f90028e9d10135e7e751
:1041e0001e23621c4146002027f0e2fde9e74a4910
:1041f000002027f0ddfd2ff055fabaf1000f32d084
:10420000049bc01a069b61eb03025401430144ea7c
:10421000d0611b1a61eb02018c0044ea93749e008a
:104220002146301842eb0101cb0043ea5073c20033
:1042300010461946524600232ff00cfb304b1f68e6
:10424000a7eb0b072f4b1968a1eb09017a1803465e
:1042500090b1d600b6fbf0f64ff47a7404fb05f487
:10426000b4fbf0f40be0264b1f68a7eb0b07254bc4
:104270001968a1eb0901ca19002633463446039197
:104280000297019200951e222449002027f090fdfc
:10429000334622462249002027f08afd214900208a
:1042a00027f086fd2049002027f082fd40f2dc50f7
:1042b00032f090fb032032f0cdfc0df20c5dbde836
:1042c000f08f00200190009003460246084927f035
:1042d0006ffd9df8c032022b05d0bbf1000f7ff4bb
:1042e00060af0b4af5e6034af3e600bf0c67000037
:1042f00024670000d063000090670000a067000002
:104300002443012020430120cdcccccc5c670000ad
:10431000a0630000b8630000f867000018680000a0
:104320006468000098680000d4680000e06700003e
:020000040000fa
:104330002de9f04f2ded048bd1b010900c46119269
:1043400013930023adf87e30102120a82ff0b8fe83
:1043500018b1002031f0b8f840b9a149002027f089
:1043600027fd51b0bdec048bbde8f08f9d4b209a2a
:104370001a6000229c490df17e001df02ffb9b4b23
:104380001860002843d0642ca8bf6424012cb8bf57
:10439000012412942cf0bafb954b18604ff6ff7372
:1043a000944a1380944a13800023944a136040f285
:1043b000ff7293490a8093490a80934a1380109ba5
:1043c0004bbb884a039441f289330293d37801931b
:1043d00093780093537812788c49002027f0e8fcfa
:1043e0004ff4167032f0f6fa022032f033fc814bb3
:1043f0001a884ff6ff739a4240f0f5820523069320
:104400004ff0040bdff820a2dff8e891b3e2804917
:1044100027f0cefca5e7734a109b0493129b0393ed
:1044200041f289330293d3780193937800935378c0
:1044300012787849002027f0bbfcd1e70027adf8bf
:1044400060708df86270adf85c704ff0080a8df8fe
:104450006ea04ff009098df86f900223adf86c3013
:104460001ba82cf021fc192030f0d2f88df860a0a8
:104470008df8619001238df86230674b1f602760d3
:1044800017a918a81ff000fd002840f0ba82bdf857
:104490005c3033804ff6ff72934256d044e00327de
:1044a0008df86c7002238df86d3008238df86e3016
:1044b000192030f0adf839461ba82af029f8034638
:1044c000002841d004238df86c3001238df86d3025
:1044d00007238df86e30192030f09af839461ba862
:1044e0002af016f8034678b300238df86c308df867
:1044f0006d308df86e30192030f08af839461ba8df
:104500002af006f8031c18bf01231de0322030f00a
:104510007ff8013d1fd02368002b40f0e0813288f6
:104520004ff6ff739a4289d00023adf8603018a986
:104530000e2025f0ddf8034630b1bdf8602041f2d1
:1045400058039a42abd0434623602368002bddd04a
:10455000012d40f0c481274b1a884ff6ff739a4211
:1045600021d02e4a254b18682c4b2d49002808bf16
:104570000b462c49002027f01bfc462032f022fa83
:104580002cf0c4fa1590002032f069fd0d904ff424
:104590007a73109a03fb02f3149300230e930f9384
:1045a0009fed0d9b44e11e4adce74ff001092246d6
:1045b0001ba90d982ef088fc002837dd9df86c3083
:1045c000032bf2d003f0df03512b08bf4ff001099a
:1045d000ede700bfaff30080000000000000000026
:1045e000fc7201006841012037d2010078410120ae
:1045f000844101205a450120464501206c4101209b
:104600007e4501209e4501207e430120507301001c
:10461000307301009c73010064410120f0720100bd
:10462000e8720100ec73010080410120b64b18884c
:10463000b64b1c88a4b240f6ff75281a30f09cfbdc
:104640000022b34b18f0c8fcaba3d3e9002310f051
:1046500057f8cde90801281b30f08efb0022ac4b47
:1046600018f0bafca4a3d3e9002310f049f8cde96f
:104670000a01dff8cc82c3464ff0000ab0ee498a47
:10468000f0ee698a119bff2ba8bfff23012bb8bf57
:1046900001230c9347e00c9830f06efb32463b460a
:1046a00018f09afc06460f4630f098fa207094a352
:1046b000d3e900233046394618f08efc30f08efaec
:1046c00060700023a370013503340a2d24d02846de
:1046d00030f052fbdde9082332f06efd02460b4656
:1046e00018f07afcdde906230ff05ff80022894b11
:1046f00010f006f802460b460020874932f05cfdb8
:1047000006460f4653ec182b2ef066f90028c2d04f
:1047100057ec186bbfe700bf0af1010a0bf13c0b25
:10472000baf10a0f0fd0504630f026fbdde90a231c
:1047300032f042fd02460b4618f04efccde9060170
:104740005c460025c3e7754b1b889bb283b1139a67
:10475000032ab8bf0322012b13dd9342a8bf1346df
:10476000d31a03ebc303023a93fbf2f36c4a1360d0
:104770006b4b1e6800215e9dff2da8bfff250846dc
:1047800006e00223ece7013108f13c080a2910d0c9
:1047900025eae5738e4218bf0023dab2434608f1da
:1047a0001e049877d87783f820200333a342f8d1ea
:1047b000e9e71421002015f07dff0e9b13f0010f97
:1047c0003fd025f0d5fd002838d00e9b01330e9345
:1047d0002af006ff2cf09af904460f9bc31ac72b48
:1047e0001cd9494b1a88494b1b884e490d684e49c4
:1047f0004e48002d08bf0146484805884c480768c8
:1048000049484a4e002f08bf30460290019500915a
:104810004849002027f0ccfa0f9400bf4ff47a707b
:10482000129b90fbf3f02ff0f3feb9f1000f17d1bc
:10483000109b6bb94ff000090124b8e623f0b6f9dc
:10484000c3e723f0b3f90028bfd125f091fdbce701
:104850002cf05cf9159bc01a149b9842ead303e034
:104860003549002027f0a4fa3449002027f0a0faa7
:104870004ff416720021324832f004f8142100205f
:1048800015f018ff1e202ff0c3fe1421002015f094
:1048900011ff2c4b1b884ff6ff72934213d12a4b0a
:1048a0001b884ff6ff72934213d1284c206830f0da
:1048b00025fd0023236040f2dc5032f08bf803200a
:1048c00032f0c8f94de5adf86c301ba82df0e2f8d8
:1048d000e5e7adf86c301ba82df0bef8e5e7194b05
:1048e0001a884ff6ff739a423ff45dae184a13469a
:1048f0003fe600bfaff300800000000000feaf40c5
:104900009a9999999999e13f7e4501209e45012008
:1049100000002240000019400000f03f7e430120cb
:104920008845012088410120f4720100f8720100dd
:104930007041012028740100547401007474010056
:10494000882101205a450120464501207841012057
:10495000f07201004ff6ff73a9f8003032202ff0fb
:1049600057fe069b013b06933dd0b9f800204ff659
:10497000ff739a4237d10024189419941a94adf811
:104980005c404ff00c088df86e800d278df86f702d
:104990000e268df870600f258df87150adf86cb053
:1049a0001ba82cf081f919202ff032fe8df86080c1
:1049b0008df861708df862608df8635001238df879
:1049c0006430124b1a93caf8004017a918a817f0c0
:1049d00095fd0028bed1bdf85c30a9f800304ff637
:1049e000ff729342bad028202ff012fe084bd3f862
:1049f0000080b8f1000f7ff472af0525054e1c460c
:104a00008de54ff6ff7333809fe500bfb8571d005b
:084a10006c4101204645012024
:020000040000fa
:104a18002de9f04f8db0d0f850a00a68436d846d31
:104a280083ea040e0eea0a0e8eea040ed84bc46c12
:104a380023440a9213449e440aeb7e6e4e68436deb
:104a48008aea030707ea0e075f40d24b856d2b44bd
:104a5800009633441f440eeb37578b681a468aea90
:104a68000e053d4085ea0a05cb4b446d234401926f
:104a780013441d4407ebf535cb681c468eea070640
:104a88002e4086ea0e06c54b5344029423441e4426
:104a980005ebb6260b691c4687ea050333407b40c5
:104aa800bf4a039422449644734406eb73694a69e7
:104ab800134685ea060404ea09046c40b94a0493db
:104ac8001a4417443c4409eb34548b6986ea0902ba
:104ad80022407240b44f05931f443d442a4404ebde
:104ae800f232cf6989ea040808ea020888ea090864
:104af800ae4d06973d442e44b04402ebb8280f6ae9
:104b080084ea020c0cea080c8cea040ca84d0797fe
:104b18003d4409eb05039c4408eb7c6c4d6a82ea32
:104b2800080909ea0c0989ea0209a24b08952b44ed
:104b38001c44a1440ceb39598b6a88ea0c0e0eea26
:104b4800090e8eea080e0993a3f524434f3b1a4435
:104b5800964409ebfe3eca6a16468cea090505ea40
:104b68000e0585ea0c05944b1344984445440eeb16
:104b7800b525d1f8308089ea0e072f4087ea090762
:104b88008e4b43449c44674405eb7767d1f834c0a7
:104b98008eea05033b4083ea0e03894a6244914446
:104ba8004b4407eb3353d1f8389085ea07041c408f
:104bb8006c40844a4a449644744403ebf434d1f874
:104bc8003ce087ea030222407a407f4971440d4461
:104bd8002a4404ebb22284ea020b0bea030b8beaa9
:104be800040b7a49009d29440f44bb4402ebfb6b3c
:104bf80082ea0b07274057407549059d29440b4415
:104c08001f440bebf7578bea0703134083ea0b03a8
:104c180070490b9631440c44234407ebb34387eaad
:104c2800030505ea0b057d406b490a9c21440a44ab
:104c3800154403eb353583ea05023a405a40674983
:104c4800049e31448b445a4405ebf26285ea020122
:104c580019406940624c099e34442744394402eba8
:104c6800f15182ea01042c4054405e4f77443b44a2
:104c78001c4401ebb44481ea040313404b405a4fef
:104c8800039e37443d442b4404eb333384ea030b3f
:104c98000bea010b8bea040b544d089e35442a4459
:104ca800934403ebfb6b83ea0b0727405f40504ab2
:104cb8004a4411440f440bebf7578bea07051d4094
:104cc80085ea0b054b4a02990a441444254407eb2c
:104cd800b54587ea050202ea0b027a404649079e73
:104ce80031440b441a4405eb323285ea02033b4057
:104cf8006b40424961448b445b4402ebf36382eab4
:104d08000301294051403e4c019e34442744394414
:104d180003ebf15183ea010414405c40394f069ecd
:104d280037443d442c4401ebb44481ea040b0beabc
:104d380003054d40344f47443a44154404eb353598
:104d4800049fa7f5b822a2f2be6213448bea050bb2
:104d58005b4405eb337384ea05025a402b4f079ee8
:104d680037443944114403eb715185ea030b8bea4c
:104d7800010b274a0b9f3a4414445c4401eb34442a
:104d880083ea01076740234a4a4415442f4443e015
:104d980078a46ad756b7c7e8db702024eecebdc129
:104da800af0f7cf52ac68747134630a8019546fd04
:104db800d8988069aff7448bbed75c892211906b75
:104dc800937198fd8e4379a62108b44962251ef691
:104dd80040b340c0515a5e26aac7b6e95d102fd627
:104de8005314440281e6a1d8c8fbd3e7e6cde121fc
:104df800d60737c3870dd5f4ed145a4505e9e3a95d
:104e0800f8a3effcd9026f678a4c2a8d81f6718767
:104e180022619d6d0c38e5fd04eb772781ea0402d9
:104e28007a40944d009e35442b44134407eb33736a
:104e380084ea07025a40904d039e354429441144a0
:104e480003eb715187ea030b8bea010b8b4a069d32
:104e58002a441444a34401eb3b4b83ea010282ea4f
:104e68000b02874c099d2c4427443a440beb7222d1
:104e780081ea0b045440834d65442b44234402ebe0
:104e880033738bea02075f407f4c0a9e3444214407
:104e98000f4403eb775782ea03057d407b49029c68
:104ea80021448b445d4407eb354583ea070b8beac5
:104eb800050b7749059c21440a44934405eb7b2b59
:104ec80087ea050484ea0b04724a08990a441344e1
:104ed8001c440beb347485ea0b0161406e4b434470
:104ee8001f44394404eb71518bea04034b406b4a6d
:104ef800724415441d4401eb354584ea01026a40b9
:104f0800674b019f3b449b445a4405eb722262ea7b
:104f180001036b40634f37443c44234402ebb363c3
:104f280063ea050b8bea020b5f4c069f3c44214465
:104f38008b4403ebbb5b6bea02075f405b49494468
:104f48000d442f440beb774767ea030484ea0b040c
:104f58005749049d29440a44144407ebf42464ea9d
:104f68000b057d40534a424413441d4404ebb56588
:104f780065ea070888ea04084f4b02990b449b44ea
:104f8800d84405ebb85868ea04036b40099aa2f5bf
:104f98008016a6f683363e44334408eb734363ea2f
:104fa800050989ea08094549009e31440c44a14491
:104fb80003ebf92969ea08065e40414a07990a4461
:104fc80015442e4409ebb66666ea030181ea090135
:104fd8003c4a72449044414406ebb15161ea0904e9
:104fe8007440394a059d2a4413441c4401eb744417
:104ff80064ea06054d40354b634499444d4404eb3f
:10500800f52565ea01076740314a039b1a441644af
:10501800374405ebb76767ea04036b402d4a0b9edc
:1050280032441144194407ebb15161ea05067e4048
:10503800294a019b1a441444344401eb7444c36c58
:105048003b44c36464ea07074f40244b089a13445f
:105058001d442f440aeb040505ebf7250565436d50
:105068001c444465836d1944816500200db0bde87a
:10507800f08f00bf44eabea4a9cfde4b604bbbf65d
:1050880070bcbfbec67e9b28fa27a1ea8530efd444
:10509800051d880439d0d4d9e599dbe6f87ca21f30
:1050a8006556acc4442229f497ff2a43a72394ab3e
:1050b80039a093fcc3595b6592cc0c8fd15d848574
:1050c8004f7ea86fe0e62cfe144301a3a111084e01
:1050d800827e53f735f23abdbbd2d72a91d386ebfd
:020000040000fa
:1050e800b14b834240f04183b04b93f90020531eeb
:1050f800dbb2012b00f239832de9f04f87b0ac4bbe
:105108001b685bb1012a1ad0a94b1c68a64b1b88e7
:10511800002b00f01c830025a34e7be0a54b1b68e9
:1051280002a89847002800f3f58220b9029810b128
:1051380005f0ecf9eee29d4b00221a70eae29e4b74
:105148001b68b3f1ff3fdfd19c4a0021052030f0f6
:1051580057fc994b1860b0f1ff3f2ed02ff004fa9e
:1051680000eb800303f2e733954aa2fb03239b0974
:105178004ff47a7606fb03f3b3fbf0f6914b1e600f
:105188000225914c04e001351034282d00f0d68218
:105198002368002bf7d0b4f90a20002af3d021465f
:1051a800a8b22ff005f90028edd106f5a673b3fbd8
:1051b800f6f306fb03f6854b1e6031f0effd88b968
:1051c80021f0ecfd794bff221a7031f0e7fd002841
:1051d80000f0a08231f0dcfd4ff0ff327c4926f070
:1051e800e3fd97e231f0d4fd05227a4926f0dcfd93
:1051f800e6e7032304222146304628f0eff994f825
:10520800433043f0800384f84330013574343188e7
:105218008d424bdae06c0028f7d0636c9b699847a5
:1052280094f8433013f0400fefd0636c5b69e06c87
:1052380098470028dddb0228e7d100230293039377
:105248000493059340f2dc53adf81230636c1b6c89
:1052580002a9206d98470298e063bdf80c30a4f8c5
:105268004030bdf80e30003318bf012394f84320b6
:1052780063f3451284f84320bdf81230a4f8663071
:105288009df8153084f868309df8143084f869303a
:1052980094f8423043f0400384f84230d3b203f02c
:1052a800bf0343f0800384f84330aee73f4b93f9e4
:1052b8000030012b25d0002028f0d6fe464b1b6875
:1052c80033b9464b1a68464b1b68134300f02282d9
:1052d800414b1b68002b40f089804ff000083f4b82
:1052e8001b68002b00f091813c4b00221a60304b68
:1052f8001c682d4b1b88002b00f01a811646394f6d
:10530800e8e02b4b1e68002900f027823246002572
:105318002b46012706e007fa03f0054301337432f0
:10532800994212d092f8430000f00c04042cf2d1f8
:1053380010f0800f00f0ee8192f8420010f0400f5c
:10534800ecd007fa03f00543e8e7012202fa03f379
:10535800013bab4200f00182134b1b88abb1002428
:1053680044f24008104f0ae003230422314638462d
:1053780028f034f9013474363b889c4205dab6f8d3
:10538800423018ea030ff5d0eee7084bff221a70f7
:1053980031f004fd002800f0bd8131f0f9fc2a4607
:1053a800114926f001fdb5e1ac3f01209a430120e7
:1053b80080420120844201209045012019430300c6
:1053c800d34d621078420120281f01207442012029
:1053d800a01d0200701d02006c42012088420120bd
:1053e8007042012038390120101e02000025b44bfc
:1053f8001d6031f0d9fc04462ef050f906460f46e0
:1054080022462b462ef022faae4b1860ae4aa2fb7b
:10541800043292092b46304639462ef017faab4b28
:105428001860ab4b1b68ab4a12689b1aab4204dd91
:10543800a74a13604ff0010851e703f24d13a44a3d
:105448001360a54b1c68a54b1b88002b00f06c81d2
:105458000025a24e0ee094f86a3043f0020360f390
:10546800820360f3000384f86a30013574343388aa
:105478009d420fda94f8423013f0400ff5d0636c78
:105488005b6a206d984794f86a3003f001039842ec
:10549800e1d1eae74ff0010821e74ff0010823e7df
:1054a800002503e08c62384630f035fc636c5b6b9a
:1054b8002a462946206d984701460028f2d1884a95
:1054c80013680133136029e001367434834b1b8859
:1054d800b3422ddd94f8423013f0400ff4d0b4f805
:1054e8006250636c5b6d206d98470543adb231f037
:1054f80043feb4f8623023ea0503a4f8623031f0c1
:105508003ffeb4f864302b43a4f86430636c1b6d21
:105518002946206d984715f0160fc1d194f84330ed
:1055280013f0200fd0d0636c9b6b206d9847cbe7ae
:105538004ff0000bdff8b49109f10c07dff8b0a1c8
:105548000af10803019305e001226ff00c012846d7
:105558002df084ff384630f0f5f8054600284bd08a
:105568006b699b891c0a44ea0324a4b2a86a866d65
:105578002eb1c36d22462946b0470028ead12846f5
:1055880004f082f90028e5d140f606039c420dd0cc
:10559800b4f5006f07d04ff6ff739c42d4d10af1df
:1055a8001004022604e0019c012601e0002654466e
:1055b8002b6a23f47c132b62626813432b62608886
:1055c80000eb4000294609eb800030f0a4fb0123e2
:1055d80003fa06f616ea0b0fbcd14bea060b6388f2
:1055e800404800eb0310038943f0010303810022c4
:1055f800012130f017f9ade731f0befd394a138bc0
:1056080023f00103138331f0bbfd334b1b68334a8e
:10561800108820b3002240f286651446324e09e015
:105628003168013131600ee0a3f86440013274330f
:10563800824214d093f8421011f0400ff6d0b3f81c
:1056480064100d42ecd193f86a1011f0020febd000
:1056580093f86a106ff3410183f86a10e4e7b8f130
:10566800000f66d11f4d05f1300405f5247544e09f
:105678001344a381238943f00203238100220221da
:10568800204630f0cff81034ac420fd02368002bfe
:10569800f9d0b4f90a20002af5d03168a3895b1a39
:1056a8009bb219b20029e3dda181ece731f064fd7a
:1056b8000c4a138923f00203138131f061fdd1e70d
:1056c8006c42012060420120d34d62105c420120ef
:1056d800744201207842012080420120ac3f012021
:1056e80068420120081f0120644201202c39012052
:1056f800bc5103001034ac4209d054f8103c34f8c3
:10570800082c002bf6d0002af4d09847f2e7174b64
:105718001b6813b907b0bde8f08f00224ff4807101
:10572800134830f07ff8f5e7124b1b68002b7ff425
:10573800b4ae114c114e04f51875a7e706f5a6731b
:10574800b3fbf6f306fb03f60d4b1e60dce40d4bd2
:1057580093f90030012b7ff4aead0a4b02221a7088
:10576800094900202df00affa5e570477042012085
:10577800181f012088420120281f0120784201209b
:0c578800744201209a430120e01d020041
:020000040000fa
:105794002de9f04f8db083468a4600230893099380
:1057a4000a930b9343680393aa4b1968002940f3a7
:1057b400a7829146a84b93f8ce30012b00f0a78224
:1057c4000023a54d0133d8358b4200f0998295f81a
:1057d400ce20012af6d1a04beb1adb1003ebc30257
:1057e40003eb4203c3eb432303eb8343dbf80020c7
:1057f40054685a4299490398a047002485f8d14037
:1058040002232b7485f8cf4041f289336b82944b89
:10581400ab612ef0abfe04906c6000eb80035b0088
:10582400ab6028602c75c5f8c4b028462af04efb3e
:10583400baf1010fc8bf012411dc95f8d130002b57
:1058440000f0e581012b00f00c820db0bde8f08f73
:10585400012385f8d1300134e4b25445edda59f826
:10586400246002227f49304630f066f90028efd0e8
:1058740005227d49304630f05ff90028e8d0022245
:105884007a49304630f058f928b105227849304633
:1058940030f052f910b901232b74dce70222754968
:1058a400304630f049f930b105227349304630f0c2
:1058b40043f900285cd101232b741c44e4b259f849
:1058c4002460304630f03efdc7b207f1ff38b044e3
:1058d4006a49404630f00efeb8b16949404630f09e
:1058e40009fe00283dd14ff47a7807f1ff3cbcf162
:1058f400000f33dd00273a464ff0010e3b46059476
:105904007146b64644460e46e3e15d49404630f0f2
:10591400f1fd00285b4b0cbf4ff47a789846e4e71e
:1059240002eb820200eb4202303adce12346059ca2
:1059340003fb07f3424501d208fb02f208920993e4
:10594400dbf80010981800904e684f49dbf804000b
:10595400b047089b099a1344ab617ce700221346c5
:10596400eae7012208a9304623f098f8089bf3e7f8
:1059740002224649304630f0dff828b10522444976
:10598400304630f0d9f850b90134e4b2012208a904
:1059940059f8240023f082f8089bab615be70222ec
:1059a4003c49304630f0c8f828b105223a4930461f
:1059b40030f0c2f8b8b9002385f8d1300134e4b22c
:1059c400042208a959f8240023f068f8089b85f8f4
:1059d4004430099b85f845300a9b85f846300b9b7b
:1059e40085f8473037e702222c49304630f0a4f8d6
:1059f40028b105222a49304630f09ef878b901349e
:105a0400e4b2012208a959f8240023f047f8089bbe
:105a1400049a02fb03f3ab6000236b601be70222d2
:105a24002049304630f088f830b105221e4930460e
:105a340030f082f8002839d10134e4b2012208a9f7
:105a440059f8240023f02af8089b6b600023ab600c
:105a540001e700bfc0410120803401200c4f010048
:105a640080969800304d0100344d0100404d0100f6
