:020000040000fa
:10000000f0ff0320256e02000f3d0300133d0300a7
:100010001b3d03001f3d0300233d030000000000c3
:100020000000000000000000000000002d3d030063
:10003000173d0300000000002d3d03002d3d03008f
:100040002d3d03002d3d03002d3d03002d3d0300fc
:100050002d3d03002d3d03002d3d03002d3d0300ec
:100060002d3d03002d3d03002d3d03002d3d0300dc
:100070002d3d03002d3d03002d3d03002d3d0300cc
:100080002d3d03002d3d03002d3d03002d3d0300bc
:100090002d3d03002d3d03002d3d03002d3d0300ac
:1000a0002d3d03002d3d03002d3d03002d3d03009c
:1000b0002d3d03002d3d03002d3d03002f3b03008c
:1000c000393b03002d3d03002d3d03002d3d030072
:1000d0002d3d03002d3d03002d3d03002d3d03006c
:1000e0002d3d03002d3d0300000000000000000036
:1000f000000000002d3d0300a1930100a193010029
:10010000a1930100a1930100ddbd0200ddbd02004d
:10011000ddbd0200ddbd02002d3d03002d3d0300cd
:100120002d3d03002d3d03002d3d03002d3d03001b
:100130002d3d03002d3d03002d3d03002d3d03000b
:100140002d3d03002d3d03002d3d03002d3d0300fb
:100150002d3d03002d3d03002d3d03002d3d0300eb
:100160002d3d03002d3d03002d3d03002d3d0300db
:100170002d3d03002d3d03002d3d03002d3d0300cb
:100180002d3d03002d3d03002d3d03002d3d0300bb
:10019000790903002d3d03002d3d03002d3d030093
:1001a0002d3d03002d3d03002d3d03002d3d03009b
:1001b0002d3d03002d3d03002d3d03002d3d03008b
:1001c0002d3d03002d3d03002d3d03002d3d03007b
:1001d0002d3d03002d3d03002d3d03002d3d03006b
:1001e0002d3d03002d3d03002d3d0300050b0300b5
:1001f0002d3d03002d3d03002d3d03002d3d03004b
:100200002d3d03002d3d03002d3d03002d3d03003a
:100210002d3d03002d3d03002d3d03002d3d03002a
:100220002d3d03002d3d03002d3d03002d3d03001a
:100230002d3d03002d3d03002d3d03002d3d03000a
:100240002d3d03002d3d03002d3d03002d3d0300fa
:100250002d3d03002d3d03002d3d03002d3d0300ea
:040260002d3d03002d
:020000040000fa
:10026400f8b500bff8bc08bc9e46704715e3020011
:10027400f8b500bff8bc08bc9e467047f1e2020026
:020000040000fa
:0802840018f300000100000066
:020000040000fa
:10028c002de9f04f8db00f210a2030f009ff0290bc
:10029c0010f0010f40f05d85029b13f0020f40f04f
:1002ac007c850db0bde8f08fd9f8187007f11002fd
:1002bc00059213f4007f21d1fb6809933b690a93e3
:1002cc0000228df82c2006238df82d30330a43eaba
:1002dc000623adf82e300c2109a829f09ffbc04352
:1002ec0083b2d9f8202012f0040f30d032464146a8
:1002fc00484627f06bfc002840f09a8640462af0ce
:10030c009bf898f80ca04fea1a1a4fea8a03049348
:10031c00d9f81ca0baf80220002a00f08c86fd89be
:10032c00bb891d44baf800301d445540adb2c74bd3
:10033c00d3f800c0bcf1000f00f08086d9f828e09b
:10034c00c34b1b68039300239b4610460ee01a46d2
:10035c003146404629f062fbcde7b4f87220824268
:10036c002fd001331bb21c469c452fd9039a52f84f
:10037c002440002cf5d094f876200b2af1d094f878
:10038c0077100129edd8a16c09b18e45e9d1002a6d
:10039c00e3d0b4f87220aa42e3d1daf80010226e4e
:1003ac009142ded1216cfa689142dad1012184f8b4
:1003bc007710c4f848e0059a20462ff0d6faa346e9
:1003cc0022e0bbf1000f08bfa346cae7bbf1000f48
:1003dc0000f08380fb68cbf8403001218bf877105c
:1003ec00cbf848e0059a58462ff0bffaabf872509c
:1003fc00baf80030abf86030baf80230abf86230c3
:10040c00dbf80030cbf81030d9f810209389049920
:10041c005b1a938198f80d40d8f80870d8f80450fe
:10042c009bf83f3013f0400f5bd19bf875306ff3a6
:10043c0000038bf875309bf87630002b69d0012bbc
:10044c0000f09e801436049aa6eb020a1ffa8afa70
:10045c00aaf1140292b2059214f0010206921abf8c
:10046c00aaf1130a1ffa8af2059a039214f0020fea
:10047c0003d0039a013292b20392dbf81c60dbf8d2
:10048c0020209642c0f0aa80dbf81810dbf814008c
:10049c00091aa6eb020aa1eb0a0a1ffa8af20492c5
:1004ac00dbf85820a5eb020a039a002a00f0a98079
:1004bc00049a002a00f0a080baf1000fc0f29680d6
:1004cc009245c0f0a780039a04998a1a8a45c0f213
:1004dc00a180924540f39e808ee06ff00e0100f0fb
:1004ec0034bc00238bf879309bf83e3013f0020fac
:1004fc009bd130f075febbf87020564b1b6803fb8c
:10050c0002f3554aa2fb032300eb9310cbf8240013
:10051c008be714f0040f1ad114f0100f1dd114f046
:10052c00020f27d00135cbf85850404622f0bafbc9
:10053c00abf86a0058462ef072f901221221584687
:10054c0005f080fb02238bf876300026e6e30021d1
:10055c00584619f0adfd0026e0e3cbf854700022ac
:10056c000421584605f06efb0021584619f0a0fdf9
:10057c000026d3e30021584619f09afd0026cde35e
:10058c0014f0040f40f0c98314f0100f00f0a08594
:10059c00dbf85460b74205d114f0020f40f05585da
:1005ac000026bbe3cbf8547001220421584605f019
:1005bc0049fbcbf854600026b0e330f011febbf8d9
:1005cc007020244b1b6803fb02f3234aa2fb03237a
:1005dc0000eb9313cbf8243000f056bda2eb060ac7
:1005ec000af1ff3a1ffa8af2049259e703990a4674
:1005fc00514400293ff768af14f0040f1fd00026b8
:10060c008ce3baf1000f05d0baf1000ff4db049ab9
:10061c009245f1da14f0060f20d114f0100f00f00f
:10062c009083023b072b00f2cc81dfe813f029000a
:10063c003e003e003e003e00ca013e00bd010122cc
:10064c001021584605f0fefa002667e3fc32012023
:10065c00f832012000330120d34d621014f0040f46
:10066c0008d09bf83f3043f002038bf83f304ff437
:10067c00006600e000260021584619f019fd4de3f4
:10068c00dbf85460b74205d103238bf876304ff476
:10069c0080760be0cbf8547001220421584605f00b
:1006ac00d1facbf85460002638e30026dbf81010a2
:1006bc00dbf808305a1a13d4dbf854003b1a9b1a97
:1006cc00002b1dddbbf8742002f40172042a01d149
:1006dc00012b0cd000221021584605f0b3fa1de373
:1006ec00dbf80430dbf800001b1a1a44e4e7013095
:1006fc00cbf854009bf8753043f002038bf875303f
:10070c00dbf85430dbf80c20881a914249d2dbf824
:10071c000420dbf80010521afb1a0344d318079379
:10072c00002b07dddbf80430dbf800209b1a079a5e
:10073c009a4246d9dbf83830002b40f0a280dbf827
:10074c000c20dbf808309a4200f0d980b8f80e3053
:10075c00bbf86e209a4238bfabf86e30dbf85420f1
:10076c00b8f80e303b449b1a9bb2bbf8641031b9fd
:10077c002bb19bf83e1041f040018bf83e10abf8ca
:10078c0064309bf87630042b00f0f080062b40f0a0
:10079c001981974240f0c2820021584619f088fc1a
:1007ac00bce2fb1a03440793002b07dddbf8043093
:1007bc00dbf800001b1a0798984202d99142bed070
:1007cc00b8e740f2dc53cbf8343030f009fddbf8fd
:1007dc003420c44b1b6803fb02f3c34aa2fb032364
:1007ec0000eb9313cbf838309bf83e306ff3451386
:1007fc008bf83e30dbf80c10079b0b44cbf80c301d
:10080c00dbf8102091420ed893421cd99a1adbf8cf
:10081c0054100a44cbf85420cbf81030dbf80420e9
:10082c00934224d313e0dbf80410dbf80000091a20
:10083c000a44934207d99a1adbf854100a44cbf8ad
:10084c005420cbf81030dbf80420934205d3dbf8ae
:10085c000010511a5b1acbf80c30dbf810309342b5
:10086c0005d3dbf80010521a9a1acbf810209bf81b
:10087c007630032b02d0082b7ff461af46f00406d0
:10088c005de730f0adfcdbf83830c31a002bfff617
:10089c0056afdbf834305b00b3f57a4f28bf4ff41a
:1008ac007a43cbf8343030f09bfcdbf834208d4ba2
:1008bc001b6803fb02f38c4aa2fb032300eb93138c
:1008cc00cbf83830dbf81010dbf80c20881adbf88a
:1008dc0054301b1acbf85430914207d2dbf8041079
:1008ec00dbf80000091a5b1acbf85430cbf8102057
:1008fc009bf83e3043f080038bf83e301fe79bf8ab
:10090c003f3013f0010f19d113f0400f06d19bf8b3
:10091c003e306ff341038bf83e3017e730f060fc4c
:10092c00bbf870206f4b1b6803fb02f34ff47a7219
:10093c00b3fbf2f30344cbf82430e8e7dbf8543094
:10094c009f427ff403af9bf8743013f0040f3ff415
:10095c00fdae9bf83e306ff341038bf83e309bf8b5
:10096c003f306ff300038bf83f30efe6974203d034
:10097c0014f0200f35d0d1e19bf8743013f0040f34
:10098c00f6d030f02dfc574b1a6841f2883303fb3c
:10099c0002f34ff47a72b3fbf2f30344cbf830302a
:1009ac0005238bf87630e3e7dbf8543001339f42b4
:1009bc0001d00026b2e10021584619f079fb00263f
:1009cc00ace1002614f0200f40f0a8819bf87620b3
:1009dc00a2f10803dbb2012b40f2a081062a00f041
:1009ec009d81059a002a3fd0baf1000f7edd059b50
:1009fc005344049a934203dda2eb0a039bb2059382
:100a0c0098f80c301b0908eb83030893dbf81c10d7
:100a1c00dbf81830059a52440a44934280f0f48073
:100a2c005a1a0132b2eb0a0200f1df801ffa82f887
:100a3c0001240094434608a802465144484628f035
:100a4c0057f90490059aa2eb080300949bb208aaec
:100a5c00dbf81410484628f04bf9049b034498b279
:100a6c00059b834200f0d980039bcbb19bf8763079
:100a7c00033bdbb2022b84bfdbf81c30cbf82030fd
:100a8c009bf83e3013f0100f40f0fa809bf83e308c
:100a9c0043f010038bf83e3013f0080f00f0f68093
:100aac00069b002b00f03a81dbf858300133039a97
:100abc002a44934240f03281cbf8583046f4806699
:100acc009bf83f3043f004038bf83f309bf87630b3
:100adc00023b032b00f20781dfe813f0ec00f5007a
:100aec00fe00150100330120d34d621098f80c3034
:100afc001b09caeb830343440893524493b2049af0
:100b0c009a4228bf1a469246dbf81c10dbf81830c4
:100b1c008a18934259d25b1a01330493bdf81080a2
:100b2c0001240094434608aa484628f0e1f80590b1
:100b3c00aaeb080300949bb208aadbf814104846f1
:100b4c0028f0d6f8059a024490b2049baaeb030352
:100b5c00dbf814201344504586d1dbf8581051446f
:100b6c00cbf85810cbf81c309bf87620033ad2b255
:100b7c00022a98bf46f40076dbf85c20b2f1ff3f06
:100b8c003ff472afa2eb0a0acbf85ca0bbf868206a
:100b9c0012eb0a0224d4baf1000f3ff765af1144ef
:100bac00cbf858101344cbf81c30dbf818209342c8
:100bbc0006d9dbf81410521ad2431344cbf81c306c
:100bcc004ff0ff33cbf85c304ee7012300935346d4
:100bdc0008aa484628f08cf8dbf81c305344bae7d6
:100bec004ff0ff33cbf85c303ee70af1ff30dbf817
:100bfc0014209b1ac01a01230093059b08aa0144d8
:100c0c00484628f075f82be701230093059b08aaaa
:100c1c005144484628f06cf822e7dbf85c30b3f11d
:100c2c00ff3f15d09a4519d2059a02eb0a01bbf881
:100c3c006820d018814205d88b4203d8a0eb0a0358
:100c4c009bb20593059babf86830cbf85ca00be727
:100c5c00cbf85ca0059babf8683005e7bbf86820c7
:100c6c001a4405980146514491427ff6fdae9245d7
:100c7c003ff6faaeaaeb03031844abf86800f3e6b0
:100c8c0001221021584604f0ddff09e7dbb243f0e6
:100c9c0008038bf83e3030f0a3fab14b1a6864238a
:100cac0003fb02f34ff47a72b3fbf2f30344cbf879
:100cbc002c30f5e609238bf87630012211215846a9
:100ccc0004f0c0ff2ae008238bf876309bf87530cf
:100cdc0013f0010f07d021e0dbf854309f4208d00d
:100cec0006238bf8763001221021584604f0aaff17
:100cfc0014e000221021584604f0a4ff00215846ad
:100d0c0019f0d6f90ae000221021584604f09aff97
:100d1c000021584619f0ccf900e00026bbf87a20e7
:100d2c00324000f08e81dbf87c40002c00f08b818f
:100d3c00dbf88030d9f82810bbf93c00a047022121
:100d4c0003e00026eae76ff00d010a2248462ff077
:100d5c00affa0a2032f01ef8814600283ff49caa14
:100d6c00b9f82c60132eeed9d9f81c8098f80c30f9
:100d7c001b09042b0bd9b6eb830f0bdbd9f82030f6
:100d8c0013f400343ff490aa6ff00e01dde76ff01e
:100d9c000d01dae76ff00d01d7e7724b1b68002be2
:100dac003ff47faa00252b46dff8bc91dff8bca1ed
:100dbc00dff8b081e6e030f013faa36ac01a00281d
:100dcc00a8bf1026f4e030f00bfae36ac01a002832
:100ddc00c0f2f48094f87630052b00f08a8110264e
:100dec0087f001023146204604f02cffeee030f093
:100dfc00f7f9236bc01a0028c0f2e58001221421f8
:100e0c00204604f01fff0021204619f051f9b1e0f3
:100e1c0094f83e6006f001060121204623f0c7fa43
:100e2c0094f83e3043f0010384f83e304ff4805286
:100e3c00002120462bf0d3fc002e40f09b8094f830
:100e4c003e306ff3000384f83e300a2384f876308a
:100e5c0090e030f0c5f9636ac01a0028c0f28a80ad
:100e6c0094f876104b1e082b00f28280dfe803f01a
:100e7c000541556080688080700094f87830032bb1
:100e8c0040f22b81042384f87830354b1a684ff4e8
:100e9c007a7303fb02f3aafb03239b091b01236553
:100eac000221002694f87830013384f87830236dd1
:100ebc005b0023652069e268831a9bb2904204d2de
:100ecc0060682768c01b03449bb2606dc01a6065e4
:100edc00b4f864000344a4f8643022610022204674
:100eec0004f0b0fe002e45d00021204619f0e0f8a9
:100efc0040e094f87830022b40f2f18094f83e6098
:100f0c0006f001031e46002b18bf1421002fc9d177
:100f1c000122204604f096fee4e794f87830042b86
:100f2c0040f2df80042384f8763011210026ede7af
:100f3c0094f87830042b40f2d68014210126e5e792
:100f4c0094f87830042b40f2d08014210126dde790
:100f5c0094f87830042b40f2ca8014210126d5e78e
:100f6c0000330120fc320120f8320120d34d6210f5
:100f7c00002e5ad101352db22b46d8f800209542bf
:100f8c00bff48fa9d9f8002052f82340002cf1d0df
:100f9c0094f876300b2bedd094f83e3013f0c0065d
:100fac001abfdf091026002713f0040f7ff403afdc
:100fbc0094f83e3013f0080f7ff405af94f87630b8
:100fcc00052b3ff414af002e7ff40aaf94f83e309b
:100fdc0013f0020f7ff43daf94f83f3013f0400f45
:100fec00c8d094f87630032bc4d130f0f9f8636a8a
:100ffc00c01a0028bedb94f8792094f884309a4209
:10100c003ff406af02221021204604f01bfe30f004
:10101c00e7f8b4f870203b4b1b6803fb02f3aafb08
:10102c00032300eb93106062a4e7314600266de7c2
:10103c006ff0090189e66ff00e0186e66ff00e0184
:10104c0083e6022181e602217fe60135cbf8585078
:10105c00b8f80e30abf86e30abf86430404621f087
:10106c0021feabf86a0058462df0d9fb0122102165
:10107c00584604f0e7fd03238bf876309bf83f309d
:10108c0013f0400f7ff499aa9bf83e306ff34103a5
:10109c008bf83e304ff4807640e60135cbf8585053
:1010ac00b8f80e30abf86e30abf86430404621f037
:1010bc00f9fdabf86a0058462df0b1fb0122122164
:1010cc00584604f0bffd02238bf87630002625e647
:1010dc0014f0020fe1d1002620e60221e1e61221f4
:1010ec00dfe61021dde61121dbe61021d9e6112126
:1010fc00d7e630f075f8236bc01a0028bff67eae29
:08110c0010266de600330120fe
:020000040000fa
:101114002de9f04f2ded028b9bb00f2121202ff0f4
:10112400c3ff002800f007877d4b1b68002b40f3aa
:1011340002877c4c0026dff820929fed7b8ab9e37e
:10114400d4f8c4305d6894f8d1202ab3227c012af3
:1011540042d0022a61d1b4f93830b3f1ff3f25d02f
:101164000023724a4ff40071b4f938002ff0e1fa09
:10117400d4f8bc200221b4f938001bf0cffc30b9fc
:10118400d4f8c4301b681b6869492846984706216f
:1011940020462bf085f986e31b681b6865492846c1
:1011a4009847012120462bf07bf97ce304f180026f
:1011b400618a012023f0fcf92087b0f1ff3fcfd1f1
:1011c400d4f8c4301b681b685b4928469847012142
:1011d40020462bf065f966e304f18002618a012060
:1011e40032f099fca087b0f1ff3f0ad00023534aa4
:1011f4004ff480712ff06efc032120462bf050f940
:1012040051e3d4f8c4301b681b684d4928469847fd
:10121400012120462bf044f945e31b681b6849492a
:1012240028469847012120462bf03af93be3d4f8ad
:10123400c430d3f804b03b4be31adb1003ebc30216
:1012440003eb4203c3eb432303eb8343c3f1000ae1
:1012540097e0d4f8c4301b681b683b49584698474c
:10126400042120462bf01cf91de3b4f93c0030f0b6
:101274009cfb18e30133c4f89430284630f0a6fbf5
:1012840002460b46d4e9080110f0a5ffc4e90801a1
:10129400002f19dba36ae26a511c8b4231d09342be
:1012a40020dc616b01f1010161632cd020e0d4f8f2
:1012b400c4301b685b68254958469847236b013b3b
:1012c400a26a1344236391e07f42a7622ff08cff4c
:1012d400c4f88c00002384f8cc30042120462bf081
:1012e400dff8d7e75b1a226b13442363a36ae36234
:1012f4000c3dadb2002d44d0dff858804ff4c867e0
:1013040036e0934206d1d4f8c4301b681b681049f8
:1013140058469847a36ae26a9342e9dde7e700bfcb
:10132400e03201206826012000007a44ab2f03003c
:1013340040bf0000f8be00001cbf0000952f030052
:1013440068bf00008cbf0000a4bf0000c4bf000041
:10135400f0bf000018f000200c3001203a4641464e
:10136400b4f93c001ef03afea5f5c865adb245b12e
:10137400b5f5c86ff2d22a46d149b4f93c001ef043
:101384002dfeb4f93c002ff0dffe05460b2878d97a
:101394000c224946b4f93c001ef020fe0c287ff4d0
:1013a40058afd9f800301f0e47ea03671a0202f457
:1013b4007f0217431b0a03f47f431f43a762d4f839
:1013c4009430002b7ff456af002ffff64eaf01236d
:1013d400c4f89430d4f8c4301b685b685246b949e9
:1013e40058469847a26a002a7ff461afa36ae36271
:1013f40005a9b4f93c001df0fbfbb4f93c0032f044
:10140400e7f830f00ffe069dd4f8c4301b68628afa
:101414000292020e0192c0f3074200925f68c0f389
:101424000723c2b2a8495846b847d4f8c4301b6849
:10143400bdf8582002922a0e0192c5f30742009289
:101444005f68c5f30723eab2a0495846b847656404
:10145400bdf85830a4f864302ff0c6fec4f88800f4
:10146400c4f8a800a36ac4f89c30d4f89430c4f833
:101474009830236bc4f8a030b4f93c0030f095faee
:101484007fe7d4f894304bb994f8cf30012b40f077
:101494000a82042120462bf003f804e22ff0a4fe74
:1014a400d4f8a830c31a22689342edd9d4f8942012
:1014b400d4f898309a4212d1d4f8c4301b681b680f
:1014c4008349584698472ff08ffec4f88c000023b8
:1014d40084f8cc30042120462af0e2ffd4e700212e
:1014e40020460ff037fdcfe7b4f93c002ff02cfe77
:1014f40038b994f8cf304bb1092120462af0d0fff7
:10150400d1e1b4f93c0030f050facce10521204699
:101514002af0c6ffc7e194f8cd30002b00f0bd805f
:10152400b4f93c002ff010fe002840f0be8094f87f
:10153400cc305a1c84f8cc200a2b00f2bb808021ca
:10154400b4f93c0032f06cfb002800f0ac81e36a93
:101554005b421a0e42ea0362190201f47f010a4354
:101564001b0a03f47f431343c9f800300025c9f86c
:101574000450c9f808508023c9f80c30c9f8105039
:10158400d4e9080130f054f9020e42ea0062030281
:1015940003f47f031a43030a03f47f431343c9f894
:1015a40014302ff035fed4f88c10d4f88830c91ad2
:1015b400b1fbf0f31a0e42ea03621f0207f47f073d
:1015c4003a431f0a07f47f473a43c9f8182000fb3f
:1015d400131307ee103ab8ee477a27ee087a07eeaf
:1015e400900af8ee676ac7ee267a67ee887afcee10
:1015f400e77a17ee903a1a0e42ea0362190201f4ee
:101604007f010a431b0a03f47f431343c9f81c30c8
:10161400236b1a0e42ea0362190201f47f010a43a2
:101624001b0a03f47f431343c9f82030636b1a0e7b
:1016340042ea0362190201f47f010a431b0a03f41c
:101644007f431343c9f82430e36a1a0e42ea036263
:10165400190201f47f010a431b0a03f47f43134375
:10166400c9f82830c9f82c50c9f8305034224946fa
:10167400b4f93c002bf0dafe4c273a46294605a87b
:1016840031f0a6fe3a4605a9b4f93c002bf0cefe93
:10169400b4f93c0010f07efc05e1022120460ff075
:1016a40059fc012384f8cd303ae7b4f93c0030f01a
:1016b4007cf9f8e0092120462af0f2fef3e000bfad
:1016c40018f0002028c0000034d7010068d70100ba
:1016d40010c0000094f8cf30012b26d0b4f93800a4
:1016e4002ff0a9fe002800f0de803822002105a892
:1016f40031f06efe05a9b4f9380027f058f904f169
:10170400400705ad0fcd0fc70fcd0fc70fcd0fc7c6
:1017140095e8030087e80300072120462af0c0fe6d
:10172400b4f938002ff0dafabde0092120462af096
:10173400b7feb8e0d4f8c4305f68b4f9380031f0cb
:10174400b0fe0546002865d0a36a002b49d1bd4be5
:10175400e31adb1003ebc30203eb4203c3eb4323a3
:1017640003eb8343d4f8c4201268d2f804805a42ad
:10177400b5493846c0472ff037fdc4f88800c4f88f
:10178400a800a36ac4f89c30b4f9380031f000ff13
:1017940030f048fcd4f8c4301b68628a0292020e0e
:1017a4000192c0f307420092d3f80480c0f30723e8
:1017b400c2b2a6493846c047d4f8c4301b68b4f84e
:1017c4006420029294f84720019294f846200092f3
:1017d400d3f8048094f8453094f844209c49384662
:1017e400c047a36a0133a362d4f894200132c4f839
:1017f4009420e362284630f0e9f802460b46d4e927
:10180400080110f0e8fcc4e90801dff848824ff44d
:10181400c8671ce0b4f938002ff060fa20b9b4f9b5
:10182400380031f0cbfbd8b12ff0defcc4f88c00cb
:10183400082120462af034fe35e03a464146b4f900
:1018440038001ff013fca5f5c865adb245b1b5f578
:10185400c86ff2d22a467f49b4f938001ff006fc5b
:10186400a36a63b994f8cf30012b1cd10821204618
:101874002af016fe2ff0b8fcc4f88c0013e02ff009
:10188400b3fcd4f8a830c31a22689342ead90021e1
:1018940020460ff05ffbe5e794f8cd30c3b3092190
:1018a40020462af0fdfd0136d8346b4b1b68b34249
:1018b40040f3418394f8ce30012bf4d0023b102b3b
:1018c40000f2348301a252f823f000bf4511000056
:1018d40033120000ed1400001b150000d91600009f
:1018e400391700009d18000025190000c1190000d7
:1018f400ed1900002f1c0000151d00001b1e000028
:101904000b1f0000ed1a00007b1e0000211f0000c9
:10191400022120460ff01efb012384f8cd30bee7e0
:10192400d4f8c4305f68237c012b29d0022b2cd03f
:10193400444be31adb1003ebc30203eb4203c3eb98
:10194400432303eb83435d42d4f8c4301b685b68d4
:101954002a4642493846984720462bf0c7fb94f85c
:10196400d130012b19d0d4f8c4301b685b682a46e7
:101974003b4938469847012120462af091fd92e7d9
:10198400b4f93c002bf072ffd2e7b4f938002df023
:1019940099f84ff6ff732387cae794f8cf30002bea
:1019a400e1d1d4f8c4301b685b682a462d49384617
:1019b4009847022120462af073fd74e7d4f8c80042
:1019c40030f08bff032808d10b2120462af068fd54
:1019d4002ff00afcc4f8ac0065e704f14401d4f824
:1019e400c8002cf0ccf8efe7d4f8c4305d6894f864
:1019f400cf20012a17d0d4f8c80030f06eff032896
:101a04001bd094f8443003f0f003e02b2ed1237c58
:101a1400012b64d0237c022b7ff445af0c2120469c
:101a24002af03efd3fe71b681b680f49284698478c
:101a3400012120462af034fd35e70022a267a4f8ec
:101a44007c20e4e76826012028c0000034d7010088
:101a540068d7010018f00020e032012054c00000d3
:101a6400b8c0000084c00000d8c0000004f17802af
:101a740004f14401d4f8c80024f074fcb8b1d4f8db
:101a8400c4301b6894f87d20039294f87c20029261
:101a940094f87b20019294f87a2000925f6894f87d
:101aa400793094f87820c0492846b847afe72ff03a
:101ab4009bfbd4f8ac30c71a2ff0aafb00eb8000d4
:101ac40087427ff6f0aed4f8c4301b681b68b74970
:101ad400284698472ff088fbc4f8ac00e3e61021b1
:101ae40020462af0ddfc95e7d4f8c4305d6804f1a3
:101af4004402618a012032f013f8a087b0f1ff3f5d
:101b040000f087800023aa4a4ff480712ef0e2ff90
:101b1400e2680521b4f93c0009f0ecfa30b9d4f8d4
:101b2400c4301b681b68a349284698470222062133
:101b3400b4f93c0009f0defa30b9d4f8c4301b68bb
:101b44001b689d4928469847d4f8c810b4f93c004e
:101b540029f02ef905a9b4f93c001df049f8bdf8a7
:101b64005a30a4f87e30d4f8c4301b681b689349fb
:101b740028469847d4f8c4301b68628a029294f8c5
:101b84004720019294f8462000925f6894f845300b
:101b940094f844208a492846b847112120462af05f
:101ba4007ffc2ff021fbc4f888002ef0a5fc05462d
:101bb4000f4631f06dfe79016b0141ead5625b1b82
:101bc40062eb0702510241ead3514fea432c0a4621
:101bd4001ceb050347eb0202910141ea93614fead2
:101be400831cbceb030c61eb0201024600231cebdb
:101bf400050047eb01012ef027fdd4f8843018448a
:101c0400c4f890004ff4c86255216e4831f0e0fbef
:101c140049e6d4f8c4301b681b686b4928469847ca
:101c2400012120462af03cfc3de6d4f8c4305d682e
:101c34000022618a012030f00ffe6087b0f1ff3f7f
:101c440051d00023614a4ff400712ef072fdd4f894
:101c54008030002b53d104f1440300220121b4f954
:101c64003a002af0e9fd4ff48063a4f87e30d4f8fa
:101c7400c4301b681b68514928469847d4f8c430bf
:101c84001b68628a029294f84720019294f84620d5
:101c940000925f6894f8453094f844204c492846f3
:101ca400b8470d2120462af0fbfbd4f8b8200321c5
:101cb400b4f93a001af032ff30b9d4f8c4301b68d2
:101cc4001b683c4928469847b4f93a002ef01afd9f
:101cd4002ff08afac4f8ac004ff4c8625421394892
:101ce40031f076fbdfe5d4f8c4301b681b68394952
:101cf40028469847012120462af0d2fbd3e504f177
:101d04008003628a0121b4f93a001ff071fea2e750
:101d140094f8cf30012b42d0d4f8c4305f68b4f9c2
:101d24003a002ff088fb002856d0b4f93a002ef080
:101d3400d5ff2ff059fac4f888002ef0ddfb0546d4
:101d44000f4631f0a5fd79016b0141ead5625b1bb9
:101d540062eb0702510241ead3514fea432c0a468f
:101d64001ceb050347eb0202910141ea93614fea40
:101d7400831cbceb030c61eb0201024600231ceb49
:101d8400050047eb01012ef05ffcd4f884301844c1
:101d9400c4f890000e2120462af082fb83e50f212f
:101da40020462af07dfb7ee538c10000f8c0000023
:101db400952f030064c100008cc100006836010047
:101dc400b4c1000018f0002068bf0000ab2f03006e
:101dd400ecc100001cbf00002ff006fad4f8ac30b0
:101de400c51a2ff015fa00eb800085427ff65bad33
:101df400b4f93a002cf066fe4ff6ff736387d4f80b
:101e0400c4301b681b684e49384698470f2120464a
:101e14002af046fb47e5204607f0f2f901280bd0eb
:101e240002287ff440ad0f2120462af039fb2ff021
:101e3400dbf9c4f88c0036e5424f00bfb4f8b0506b
:101e44008db1b5f5c86f28bf4ff4c8652a46394629
:101e5400b4f93a0016f058fcb4f8b0301b1aa4f8e0
:101e6400b0308542ead9b4f93a002ff0f7fa2046a7
:101e740013f0a2fa17e5227d0b21b4f93c0009f016
:101e840039f9204607f0bcf901280bd002287ff469
:101e94000aad122120462af003fb2ff0a5f9c4f85d
:101ea4008c0000e5b4f8b05015b30027dff894a017
:101eb400a846b5f5c86f28bf4ff4c86842465146d6
:101ec400b4f93c002bf0b2fa0744bfb22d1aadb2fc
:101ed400804501d1002debd1b4f93c0010f05af843
:101ee40040b900221146b4f93c002cf0dafcdae4e3
:101ef4002f46f1e7b4f8b030df1ba4f8b0702046e9
:101f040013f05afacfe4204627f032fab4f93a0033
:101f14002cf0d8fd4ff6ff736387c4e4204627f006
:101f240027fab4f93c002bf0a1fcbce401212046c3
:101f34002af0b6fab7e41bb0bdec028bbde8f08f13
:081f440024c2000018f0002087
:020000040000fa
:101f4c00383101201c00000000000000ac8c002087
:101f5c000400000000000000a42b0120040000007d
:101f6c0000000000542f01200400000000000000bd
:101f7c00f43401200100000000000000b430012006
:101f8c000400000000000000d8310120080000000f
:101f9c0000000000373101200100000000000000ab
:101fac00b13101200100000000000000e5340120e7
:101fbc000100000000000000c431012004000000fa
:101fcc0000000000e63401200100000000000000c9
:101fdc00643201200400000000000000982f012052
:101fec003c0000000000000000000020e45e000047
:101ffc0000000000903201201c00000000000000d6
:10200c0038be0020100a000000000000e734012058
:10201c0001000000000000006832012008000000f0
:10202c0000000000ac3201200c0000000000000099
:10203c001c2d01206c00000000000000f034012079
:10204c00010000000000000000350120d400000059
:10205c00010000005cb8020000000000000000005d
:10206c000000000000000000000000000000000064
:10207c000000000000000000000000000000000054
:10208c000000000000000000000000000000000044
:10209c000000000000000000000000000000000034
:1020ac000000000000000000000000000000000024
:1020bc000000000000000000000000000000000014
:1020cc000000000000000000000000000000000004
:1020dc0000000000000000000000000000000000f4
:1020ec0000000000000000000000000000000000e4
:1020fc0000000000000000000000000000000000d4
:10210c0000000000000000000000000000000000c3
:10211c0000000000000000000000000000000000b3
:10212c000000000000000000a036012001000000ab
:10213c0001000000ff000000b83201200400000084
:10214c0000000000a82b012080000000000000000f
:10215c00d02e01204400000000000000e9340120d2
:10216c000100000000000000bc320120040000004f
:10217c0000000000b431012010000000000000003d
:10218c00542401200c01000000000000c03201208a
:10219c000400000000000000c83101201000000005
:1021ac0000000000c4320120040000000000000008
:1021bc00e82d01205000000000000000b08c002031
:1021cc007824000000000000ec3401200100000025
:1021dc0000000000c83201200400000000000000d4
:1021ec00b0280120a400000000000000a82c012051
:1021fc007400000000000000e0310120100000001d
:10220c00000000006c3001202800000000000000dd
:10221c00f42901209000000000000000e8340120a7
:10222c000100000000000000cc320120040000007e
:10223c00000000009430012020000000000000008d
:10224c00e434012001000000000000006836012089
:10225c000c00000001000000f4010000d007000099
:10226c00010000001c3601202600000001000000c7
:10227c000800080002000100020008000006000629
:10228c000101540030303a30343a32353a30313a78
:10229c0030323a3031000000443601201200000088
:1022ac000100000030303a30343a32353a30313aad
:1022bc0030323a3034000000583601201000000053
:1022cc0001000000010100009db2020021e10200aa
:1022dc0000000100983601200200000001000000ff
:1022ec0000010000882e01204800000000000000c2
:1022fc00743601200600000001000000ffffffff04
:10230c00ffff000010320120180000000000000048
:10231c00842a01209000000000000000d03201202f
:10232c000c0000000000000068260120d80000000e
:10233c00000000000c300120340000000000000000
:10234c00dc3201200400000000000000ea3401200f
:10235c000100000000000000e03201200400000039
:10236c000000000018f000204006000000000000f3
:10237c00e43201200c000000000000002832012093
:10238c000c00000000000000f031012010000000e3
:10239c0000000000eb3401200100000000000000f0
:1023ac00623201200200000000000000b231012066
:1023bc000200000000000000f032012004000000c8
:1023cc00000000000032012010000000000000009e
:1023dc00f43201201000000000000000c034012085
:1023ec000400000000000000043301200c00000079
:1023fc0000000000ed34012001000000000000008e
:10240c001033012004000000000000007031012096
:10241c001800000000000000143301200c00000024
:10242c0000000000c4340120020000000000000085
:10243c0020330120040000000000000048e80020c8
:10244c00d007000000000000243301201000000021
:10245c0000000000c6340120020000000000000053
:10246c00343301200800000000000000a0310120de
:10247c001100000000000000183101201f000000b6
:10248c00000000003c3301200400000000000000ac
:10249c00c83401200200000000000000403301207d
:1024ac001000000000000000ca34012002000000ef
:1024bc000000000050330120080000000000000064
:1024cc00cc34012002000000000000005833012031
:1024dc001000000000000000ee340120010000009c
:1024ec00000000007c360120040000000100000008
:1024fc0064000000d4350120280000000100000019
:10250c00bb010300d10101004b02010033020300a7
:10251c007c020300dd030300de030300e003030081
:10252c00e1030100b3220100683301200400000024
:10253c0000000000d42f0120380000000000000033
:10254c006c3301201000000000000000142b01204f
:10255c009000000000000000081301208002000021
:10256c00000000007c330120280000000000000067
:10257c00343201200c0000000000000088310120e2
:10258c001800000000000000543101201c00000065
:10259c0000000000a4330120040000000000000033
:1025ac00ef3401200100000000000000a8330120de
:1025bc000400000000000000803601200400000030
:1025cc0001000000ffffffffac3301200c000000f6
:1025dc0000000000583201200a000000000000003a
:1025ec00b83301201c00000000000000ce34012094
:1025fc000200000000000000d4330120080000009d
:10260c0000000000f1340120010000000000000077
:10261c00781c01203402000000000000ac210120d5
:10262c006801000000000000b830012060000000cc
:10263c0000000000f2340120010000000000000046
:10264c00403001202c0000000000000048c8002091
:10265c000010000000000000142f012040000000ba
:10266c00000000007032012010000000000000008b
:10267c00dc3301200400000000000000f3340120d2
:10268c00010000000000000048d8002000080000f5
:10269c0000000000e03301200800000000000000f2
:1026ac00ac1e01208001000000000000403201201f
:1026bc000c0000000000000048e0002000080000b2
:1026cc0000000000f53401200200000000000000b2
:1026dc00803201200800000000000000e8330120d7
:1026ec001000000000000000f73401200100000081
:1026fc00000000006025012008010000000000001f
:10270c00f83301200800000000000000582f0120c1
:10271c00400000000000000054290120a00000002f
:10272c0000000000fe340120020000000100000047
:10273c0001000000882d0120600000000000000056
:10274c0028b10020100d0000000000000034012012
:10275c000400000000000000e45e0020c82d000012
:10276c0000000000f834012001000000000000000f
:10277c0000280120b00000000000000004340120fb
:10278c000800000000000000381a01204002000080
:10279c00000000000c3401200800000000000000c4
:1027ac00142301204001000000000000f934012036
:1027bc00020000000000000040270120c0000000c3
:1027cc00000000001434012008000000000000008c
:1027dc00d03401200200000000000000d8070120c6
:1027ec008805000000000000d23401200200000027
:1027fc000000000098fc0020a00500000000000074
:10280c00d434012002000000000000003802012036
:10281c00a005000000000000fb34012002000000b5
:10282c00000000001c3401200c000000000000001f
:10283c00d634012002000000000000008436012084
:10284c00040000000100000096000000a1360120e9
:10285c0002000000010000000603000042360120c7
:10286c000200000001000000010000008836012079
:10287c000400000001000000dc05000028340120e9
:10288c00080000000000000058f600204006000080
:10289c0000000000282c0120800000000000000037
:1028ac0056360120020000000100000030c000007c
:1028bc00303401201000000000000000fd34012025
:1028cc0001000000000000008c3601200400000014
:1028dc0001000000e00000018815012058020000f2
:1028ec00000000004034012008000000000000003f
:1028fc00600d0120d402000000000000d83401203b
:10290c0002000000000000004834012024000000f8
:10291c0000000000903601200400000001000000bf
:10292c00090000007a3601200200000001000000be
:10293c00ffff00009a360120060000000100000095
:10294c00ffffff07ff0700006c3401201800000098
:10295c0000000000da34012002000000000000003a
:10296c00843401200c00000000000000dc34012045
:10297c00020000000000000090340120080000005c
:10298c0000000000de340120040000000000000004
:10299c00983401200400000000000000e234012003
:1029ac000200000000000000e017012058020000a7
:1029bc000000000034100120d402000000000000d0
:1029cc009c34012008000000000000002c20012095
:1029dc008001000000000000a43401201000000061
:1029ec0000000000943601200400000001000000eb
:1029fc0001000000b43401200400000000000000bd
:102a0c00382e01205000000000000000b8340120d6
:102a1c000400000000000000fc3501202000000034
:102a2c000100000001000000030000000000000095
:102a3c00000000000000000000000000000000008a
:102a4c0088320120883201200800000000000000bc
:102a5c00bc34012004000000000000004c320120b6
:102a6c000c0000000000000000000000000000004e
:020000040000fa
:102a7c0030b587b0044690f99030002b40f00f81b0
:102a8c000378012b04bf0023037090f8d430042b7f
:102a9c0000f25784dfe813f005008b00d9002f01fa
:102aac003b0390f90830b3f1ff3f57d090f8fc206e
:102abc00012a22d051b229b1022a43d0ff2380f837
:102acc009030dce003f01f01c3f34a1303f502005e
:102adc0000f580700022012303fa01f1c00130f0ef
:102aec00affe31f0b5f82cf015f9c4f8dc0094f811
:102afc00fc30013384f8fc30cfe031f0a9f82cf035
:102b0c0009f9d4f8dc30984200f0c78094f9083009
:102b1c0003f01f0201219140c3f34a1303f5020095
:102b2c0000f580700a46c00130f08afe31f090f852
:102b3c002cf0f0f8c4f8dc0094f8fc30013384f885
:102b4c00fc30aae031f084f82cf0e4f8d4f8dc3056
:102b5c00c31a062b94bf002501258fe090f8fc309a
:102b6c002bb1012b16d0ff2380f8903087e0002387
:102b7c000193b44a009201220321d0f8ec002ff00b
:102b8c0053f8002800f0898094f8fc30013384f865
:102b9c00fc3082e000230193aa4b009301231a46d8
:102bac000321d0f8ec002ff03ff8054666e0d0f892
:102bbc00ec0094f8fc30042b43d8dfe813f005004c
:102bcc00c6031300c6033300002200929e4b012162
:102bdc002ff026fb002860d094f8fc30013384f8e9
:102bec00fc305ae0d4f8e4309a0ac3f30913b2f576
:102bfc00f87f01d11b2b07d09449002026f062fcf2
:102c0c00ff2384f890303ae0002200928e4b9049da
:102c1c002ff006fb002840d094f8fc30013384f8e8
:102c2c00fc303ae0d4f8e43003f00f0384f8fe30c3
:102c3c002bbb8849002026f045fcff2384f89030fc
:102c4c001de0ff2384f8903027e090f8fc10c1f1d0
:102c5c00220200230093804b92b2804800eb0111ba
:102c6c00d4f8ec0020f0e2fe94f8fc500544edb2f0
:102c7c0084f8fc50222d14bf002501256db10023d2
:102c8c0084f8fc3094f8d4300133dbb284f8d430bf
:102c9c00052b04bf022384f890300123237094f990
:102cac009030022b00f0538394f90750c5f34a106f
:102cbc0000f5020000f58070c00131f03df805f020
:102ccc001f0520fa05f515f0010f40f076832378e7
:102cdc00012b04bf002323700021d4f8ec0009f071
:102cec00affa0123237094f80431002b00f07683a3
:102cfc000023237068e3d0f8ec0094f8fc302f2b01
:102d0c0000f2fe81dfe813f03000300030003000bc
:102d1c003000fc01fc01fc01fc01fc014a004a00f2
:102d2c004a004a004a00fc01fc01fc01fc01fc01c8
:102d3c0070007000700070007000fc01fc01fc0160
:102d4c00fc01fc018b000102b0000102c600010273
:102d5c00dc000102f2000102080130014d01710199
:102d6c009601bb01db01f2010093402305aa05216a
:102d7c00204620f051f8054600283ff47faf059b14
:102d8c0023b10a2384f8fc30002577e7344900206e
:102d9c0026f098fbff2384f890306fe70a3bdbb2f8
:102dac0000931f2305aa0421204620f035f8054680
:102dbc0000283ff463af059b13f0100f18bf43f0ce
:102dcc00e0035bb284f8f03013f1050f04db14233d
:102ddc0084f8fc30002551e72149002026f072fbd5
:102dec00ff2384f8903049e7143bdbb200931f2398
:102dfc0005aa0821204620f00ff8054600283ff4cc
:102e0c003daf059b13f0100f18bf43f0e0035bb20e
:102e1c0084f8f1301e2384f8fc3000252ee70023c3
:102e2c000093094b01220f492ff0faf905460028af
:102e3c003ff424af94f8fc30013384f8fc300025c7
:102e4c001ce700bff3b80100a5090300dc7d0200fc
:102e5c0094000a00047e020041310300d42c0100ce
:102e6c001c7e020084000400d4f8e430a4f8f23094
:102e7c0000230093bd4b0122bd492ff0d1f905462b
:102e8c0000283ff4fbae94f8fc30013384f8fc309e
:102e9c000025f3e6d4f8e430a4f8f43000230093d2
:102eac00b24b0122b3492ff0bbf9054600283ff481
:102ebc00e5ae94f8fc30013384f8fc300025dde6f7
:102ecc00d4f8e430a4f8f63000230093a74b012289
:102edc00a9492ff0a5f9054600283ff4cfae94f888
:102eec00fc30013384f8fc300025c7e6d4f8e4301c
:102efc00a4f8f830002300939c4b01229f492ff03b
:102f0c008ff9054600283ff4b9ae94f8fc30013334
:102f1c0084f8fc300025b1e6d4f8e430a4f8fa309b
:102f2c0094f9f0309bb203f1090291b203f10e0255
:102f3c0092b2120142ea8122b4f8f23003f00f038c
:102f4c001a43002301930093012392b28c492ef073
:102f5c006bfe054600283ff491ae94f8fc3001332b
:102f6c0084f8fc30002589e694f9f13028339bb2c3
:102f7c00b4f8f420c2f3090242ea8322002301933d
:102f8c000093012392b27a492ef04efe054600289a
:102f9c003ff474ae94f8fc30013384f8fc30002517
:102fac006ce694f9f0309bb25a1d91b2b4f8f6204d
:102fbc0022f47c5222f03f0242ea012212b292b277
:102fcc0009331a43002301930093012392b26949f8
:102fdc002ef02afe054600283ff450ae94f8fc3043
:102fec00013384f8fc30002548e694f9f0309bb2ac
:102ffc0003f1090291b2b4f8f82022f47c5222f0c9
:10300c003f0242ea012212b292b20e331a4300235b
:10301c0001930093012392b257492ef005fe054609
:10302c0000283ff42bae94f8fc30013384f8fc30cc
:10303c00002523e694f9f0309bb203f1110291b212
:10304c00b4f8fa2022f47c5222f03f0242ea012228
:10305c0012b292b216331a43002301930093012348
:10306c0092b246492ef0e0fd054600283ff406ae2c
:10307c0094f8fc30013384f8fc300025fee594f81c
:10308c00fe50002301930093012345f6217243f671
:10309c0031719d4218bf0a463a492ef0c5fd0546ce
:1030ac0000283ff4ebad94f8fe30012b3ff4e6ad75
:1030bc0094f8fc30013384f8fc300025dee5002365
:1030cc0002930193012300934ff440734ff48072e9
:1030dc002d492ef000fc054600283ff4cfad94f8a6
:1030ec00fc30013384f8fc300025c7e50023019344
:1030fc00009301237d2225492ef096fd0546bde562
:10310c00ff2384f890300025b8e50025b6e5d0f80b
:10311c00ec0094f8fc30092b00f20f81dfe813f07f
:10312c000a003c005100630076009500ac00cb0017
:10313c00e4000101637e1bb9042384f8fc30ace588
:10314c00a17d627d00230193114b0093012342ea80
:10315c00012210492ef068fd00283ff49ead94f832
:10316c00fc30013384f8fc3097e500bfa50903005f
:10317c008a000400ad000400ae000400af0004009f
:10318c0084000400d000040088000a0039020a0000
:10319c004131030002ca0400e17d227e0023019329
:1031ac008f4b0093012342ea01228e492ef03cfd05
:1031bc0000283ff472ad94f8fc30013384f8fc30f5
:1031cc006be500230193864b0093012383228649f0
:1031dc002ef02afd00283ff460ad94f8fc3001334a
:1031ec0084f8fc3059e5002301937d4b00930123b7
:1031fc004ff400427d492ef017fd00283ff44dadf1
:10320c0094f8fc30013384f8fc3046e594f89530a2
:10321c0094f89420120442ea036294f892301a4310
:10322c0094f89310002301936d4b0093012342ea11
:10323c0001226f492ef0f8fc00283ff42ead94f8d3
:10324c00fc30013384f8fc3027e594f8971094f89f
:10325c00962000230193624b0093012342ea012242
:10326c0064492ef0e1fc00283ff417ad94f8fc30d3
:10327c00013384f8fc3010e594f8973094f89620dc
:10328c00120442ea036294f894301a4394f89510ad
:10329c0000230193524b0093012342ea0122564929
:1032ac002ef0c2fc00283ff4f8ac94f8fc3001334b
:1032bc0084f8fc30f1e4a37e002b4ff00003019363
:1032cc00474b00934ff0010314bf102200224ff024
:1032dc0001112ef0a9fc00283ff4dfac94f8fc306f
:1032ec00013384f8fc30d8e4e17e49f2e60249f27d
:1032fc00e623002918bf1a46237f0bb142f48072d3
:10330c0000230193364b0093012304212ef08cfcf7
:10331c0000283ff4c2ac94f8fc30013384f8fc3044
:10332c00bbe400230193354b009301230c224ff493
:10333c0080312ef079fc0546a0e4ff2384f8903010
:10334c009de4ff2380f89030a7e4002596e4637e8b
:10335c00b3b9d4f8e830002b3ff4a6ac30f078fccd
:10336c002bf0d8fcd4f8e830c01a04287ff69cacbb
:10337c000023c4f8e830d4f8ec0030f0a5fb93e45b
:10338c0030f066fc2bf0c6fcd4f8e030c31ab3f571
:10339c007a7fded3c4f8e0002378012b04bf00232e
:1033ac00237000230093164b01221649d4f8ec002d
:1033bc002ef036ff01232370cbe794f804316bb168
:1033cc002378012b3ff494ac002384f804310121c1
:1033dc00d4f8ec0008f034ff0123237007b030bda3
:1033ec004131030005ca04008700040001ca04002f
:1033fc00240001002500010022000100612b0300c4
:08340c009f18030003ca04002d
:020000040000fa
:103414005478204279746520436f756e742d6c6ff7
:10342400776572203332626974732854784f544c30
:103434004f2900000939030054782042797465202b
:10344400436f756e742d75707065722031366269c4
:1034540074732854784f54484929000013390300e1
:103464005478204672616d657320772f6f206572e2
:10347400726f722854784654434e54290000000059
:10348400000000001d39030054782042726f61640b
:1034940063617374204672616d6573285478424386
:1034a40046542900000000000000000027390300f2
:1034b4005478204d756c746963617374204672612d
:1034c4006d65732854784d465429000000000000af
:1034d4000000000031390300547820506175736591
:1034e400204672616d657328547850465429000053
:1034f4000000000000000000000000003b39030051
:1035040054782036342d62797465204672616d6575
:1035140073285478424654363429000000000000d1
:10352400000000004539030054782036352d31322f
:10353400372062797465204672616d657328544240
:103544004654313237290000000000004f3903008f
:103554005478203132382d32353520627974652023
:103564004672616d657328544246543235352900dc
:1035740000000000593903005478203235362d35c7
:1035840031312062797465204672616d6573285407
:1035940042465435313129000000000063390300ec
:1035a4005478203531322d313032332062797465cc
:1035b400204672616d65732854424654313032336b
:1035c400290000006d390300547820313032342d45
:1035d400313531382062797465204672616d6573c6
:1035e40028544246543135313829000077390300d4
:1035f4005478204672616d6573203e3d203135312b
:103604003820627974652847544246313531382967
:103614000000000081390300547820556e646572ff
:1036240072756e204672616d6573206e6f742054de
:103634005865642854785455522900008b39030086
:1036440054782053696e676c6520436f6c6c6973a2
:10365400696f6e204672616d6573285478534346d2
:103664002900000095390300547820322d3135208b
:10367400436f6c6c6973696f6e204672616d65731c
:103684002854784d43462900000000009f39030068
:10369400547820313620436f6c6c6973696f6e20e7
:1036a4004672616d65732854784543434e5429002e
:1036b40000000000a93903005478206c617465206f
:1036c400436f6c6c6973696f6e204672616d6573cc
:1036d4002854784c43434e5429000000b339030066
:1036e4005478204465666572726564204672616d23
:1036f40065732854784454462900000000000000f3
:1037040000000000bd3903005478204361727269df
:1037140065722053656e7365206572726f72204600
:1037240072616d657328547843534529c739030082
:103734005278204279746520436f756e742d6c6fd6
:10374400776572203332626974732852784f524c11
:103754004f290000d1390300527820427974652042
:10376400436f756e742d75707065722031366269a1
:1037740074732852784f524849290000db390300fa
:103784005278204672616d657320772f6f206572c1
:10379400726f722852784652434e5429000000003a
:1037a40000000000e539030052782042726f616422
:1037b40063617374204672616d6573285278424365
:1037c400465229000000000000000000ef39030009
:1037d4005278204d756c746963617374204672610c
:1037e4006d6573202852784d465229000000000070
:1037f40000000000f93903005278205061757365a8
:10380400204672616d657328527850465229000033
:10381400000000000000000000000000033a030064
:1038240052782036342d62797465204672616d6554
:1038340073285278424652363429000000000000b2
:10384400000000000d3a030052782036352d313245
:10385400372062797465204672616d65732854421d
:10386400465231323729000000000000173a0300a5
:103874005278203132382d32353520627974652002
:103884004672616d657328544246523235352900bb
:1038940000000000213a03005278203235362d35dd
:1038a40031312062797465204672616d65732854e4
:1038b4004246523531312900000000002b3a030002
:1038c4005278203531322d313032332062797465ab
:1038d400204672616d65732854424652313032334a
:1038e40029000000353a0300527820313032342d5b
:1038f400313531382062797465204672616d6573a3
:103904002854424652313531382900003f3a0300e9
:103914005278204672616d6573203e3d2031353109
:103924003920627974657328544d584246522900ef
:1039340000000000493a03005278204672616d6528
:1039440073203c203634206279746573285278558c
:10395400465229000000000000000000533a030012
:103964005278204672616d6573203e2031353138be
:103974002062797465732852784f465229000000fa
:10398400000000005d3a03005278206572726f7285
:10399400204672616d6573203e20313531382062d6
:1039a400797465732852784a52290000673a0300f3
:1039b400527820435243206572726f7220467261be
:1039c4006d65732852784643534529000000000072
:1039d40000000000713a03005278204c656e677451
:1039e40068206669656c64206572726f7220467225
:1039f400616d65732852784c464645297b3a03002d
:103a040052782073796d626f6c206572726f7220c8
:103a14004672616d6573285278525345290000003f
:103a240000000000853a0300527820616c69676edb
:103a34006d656e74206572726f72204672616d6579
:103a44007328527841452900000000008f3a030092
:103a54005278205265736f75726365204572726f78
:103a640072202852785252452900000000000000bc
:103a740000000000993a03005278206f7665727254
:103a8400756e206572726f72204672616d6573285f
:103a94005278524f4529000000000000a33a030069
:103aa40052782049504864722043686b73756d20c6
:103ab4006572726f72204672616d6573285278491f
:103ac40048434529ad3a03005278205443502043db
:103ad400686b73756d206572726f72204672616dca
:103ae400657328527854434529000000b73a03000f
:103af4005278205544502043686b73756d2065726d
:103b0400726f72204672616d657328527855434511
:083b140029000000c13a030082
:020000040000fa
:043b1c0001207047cd
:020000040000fa
:103b20002de9f04fadf20c5d012973dc4ff0140b61
:103b3000bbf5fa7f28bf4ff4fa7b2df051f800282f
:103b400074d04ff47a702ff07dfd01202ff0b4fe79
:103b5000b749002025f0bcfc4ff40c720021b6a838
:103b60002ff038fcb6a810f0d9f8002840f0948067
:103b70000df5367adae97689aba3d3e9002340461e
:103b800049462cf063fd06460f46c7aaa949002006
:103b900025f09efc0df2da22a749002025f098fcc2
:103ba0000df22442a549002025f092fca44a40f2df
:103bb0004633404649462cf049fd804689463c2222
:103bc0000023304639462cf041fdcde902234ff465
:103bd00061620023304639462cf038fd1046194604
:103be0003c2200232cf032fdcde9000142464b4639
:103bf0009449002025f06cfcdae9746792490020b2
:103c000025f066fc56ea070314d04ff0010c4ff084
:103c100000081ae013460a22002158682ff002fc1f
:103c20008346002884d14ff0010b86e7874925f0b1
:103c30004ffcb2e28649002025f04afc30e000bf8c
:103c400008f10108b8f1090f1fd0c8f12000a8f150
:103c5000200126fa08f307fa00f0034327fa01f1de
:103c60000b4303f00104002554ea0503e8d0794b27
:103c700053f828307849794aac4518bf0a46784944
:103c8000284625f025fcac46dae7c6f34122754903
:103c9000002025f01dfc03e07349002025f018fcee
:103ca0007249002025f014fc38220021a8a82ff02a
:103cb00091fba8a816f046fb0246002840f08f8032
:103cc000ae9caf9d9df8c032012b13d0684a694964
:103cd000022b18bf0a466849002025f0f9fb9df821
:103ce000d1324bb1012b3bd0644a6249022b18bf41
:103cf0000a4602e0624aeee7624a6349002025f084
:103d0000e7fb9df8d2226149002025f0e1fbe3b2f8
:103d10000393c4f307230293c4f307430193240ed0
:103d20000094ebb2c5f307225949002025f0d0fbdf
:103d3000a89ad3b20193c2f307230093c2f30743b7
:103d4000120e5449002025f0c3fb9df8d0324bb130
:103d5000012b42d0504a4749022b18bf0a4602e0c5
:103d60004e4acae74e4a4f49002025f0b1fb4e4962
:103d7000002025f0adfb4822002196a82ff02afb59
:103d800096a81cf079fa024670b3032847d0474939
:103d9000002025f09dfb5a464549002025f098fb60
:103da0002ff078fd099000202ff086fd4ff4c870a9
:103db0002ff048fcbbf1000f00f0f381002300243a
:103dc000cde906344ff0ff314ff0ff32cde9041258
:103dd0001e46a246a146a046abe0364ac3e7364996
:103de000002025f075fbc2e7bdf858220df25a21dc
:103df000324826f04bffbdf86a229ba9304826f0d6
:103e000045ffbdf87c220df27e212e4826f03effb4
:103e1000bdf88e22a4a92c4826f038ffbbe72b4919
:103e2000002025f055fbb6e700ca9a3b00000000d1
:103e3000f06200002063000038630000506300005f
:103e400000a0b8306863000090630000bc6200000e
:103e5000a463000010180300bc05030024620000e6
:103e6000b8630000c0630000d8630000f063000086
:103e70002c620000346200002464000038620000fc
:103e8000286200004c6200003c64000054640000a2
:103e90006c640000a0640000606200000c810000ff
:103ea0006c620000c0640000d864000080650000ff
:103eb000a865000078620000cc8400000c6500005a
:103ec0001865000024650000306500003c650000b6
:103ed0002cf014fb401b61eb07014d01430145ea47
:103ee000d0621b1a62eb0102550245ead3555f020c
:103ef0002a463b1841eb0202950145ea93659f0172
:103f0000ff1a65eb0205099a0023381845eb0101f9
:103f10002cf09cfb21e009f1010901345b462246ab
:103f2000aa49002025f0d4fa0a202df0aff95c450b
:103f300029d02cf0e3fa05460f464ff40c7200210d
:103f40000aa82ff047fa0aa80ff0e8fe0028e2d1ed
:103f5000099b002bbcd10020002108f10108361874
:103f60004aeb010adde90423994208bf904238bfb9
:103f7000cde90401dde906238b4208bf8242ccd2a1
:103f8000cde90601c9e7642404fb09f4b4fbfbf4a2
:103f90000194cdf8009043465a468d49002025f003
:103fa00097fab8f1000f28d19df8c032022b69d1e1
:103fb000884a8949002025f08bfa8849002025f09d
:103fc00087fa2ff067fc8246854bd3f800b0854b0b
:103fd000d3f800902cf092fa0490069100202ff074
:103fe0006bfc4ff4c8702ff02dfb002425464ff4d6
:103ff0000c777d4edff8148256e0002542462b46b2
:10400000304651462cf022fb06460f464ff47a729a
:104010000023dde9049a484651462cf017fb9046f0
:104020004ff47a720023484651462cf00ffb81462c
:104030004ff47a720023dde906ab504659462cf066
:1040400005fb03924ff47a720023504659462cf038
:10405000fdfa02904ff47a720023304639462cf074
:10406000f5fa01924ff47a720023304639462cf06b
:10407000edfa009043464a465c49284625f028fa66
:1040800092e75c465a4a5b4b022c98bf1a4690e76f
:10409000a6fb0423db0803eb8303a4eb4303092bf8
:1040a0000ed001341e2c12d03a4600210aa82ff05f
:1040b00091f90aa80ff032fe0028e9d10135e7e7af
:1040c0001e23621c4146002025f002fae9e74a4916
:1040d000002025f0fdf92cf011fabaf1000f32d0d2
:1040e000049bc01a069b61eb03025401430144ea9e
:1040f000d0611b1a61eb02018c0044ea93749e00ac
:104100002146301842eb0101cb0043ea5073c20054
:1041100010461946524600232cf098fa304b1f687f
:10412000a7eb0b072f4b1968a1eb09017a1803467f
:1041300090b1d600b6fbf0f64ff47a7404fb05f4a8
:10414000b4fbf0f40be0264b1f68a7eb0b07254be5
:104150001968a1eb0901ca190026334634460391b8
:104160000297019200951e222449002025f0b0f903
:10417000334622462249002025f0aaf92149002091
:1041800025f0a6f92049002025f0a2f940f2dc50e4
:104190002ff058fa03202ff08ffb0df20c5dbde8d5
:1041a000f08f00200190009003460246084925f058
:1041b0008ff99df8c032022b05d0bbf1000f7ff4c0
:1041c00060af0b4af5e6034af3e600bfec6500007a
:1041d00004660000b06200007066000080660000a7
:1041e0002c34012028340120cdcccccc3c660000fe
:1041f0008062000098620000d8660000f866000047
:104200004467000078670000b4670000c0660000e3
:020000040000fa
:104210002de9f04f2ded048bd1b010900c4611928a
:1042200013930023adf87e30102120a82df01af84a
:1042300018b100202ef0f2f940b9a149002025f074
:1042400047f951b0bdec048bbde8f08f9d4b209a2f
:104250001a6000229c490df17e001bf0ddf99b4b9a
:104260001860002843d0642ca8bf6424012cb8bf78
:104270000124129429f0eefc954b18604ff6ff7361
:10428000944a1380944a13800023944a136040f2a6
:10429000ff7293490a8093490a80934a1380109bc6
:1042a0004bbb884a039441f289330293d37801933c
:1042b00093780093537812788c49002025f008f900
:1042c0004ff416702ff0bef902202ff0f5fa814b53
:1042d0001a884ff6ff739a4240f0f5820523069341
:1042e0004ff0040bdff820a2dff8e891b3e2804939
:1042f00025f0eef8a5e7734a109b0493129b0393f5
:1043000041f289330293d3780193937800935378e1
:1043100012787849002025f0dbf8d1e70027adf8c6
:1043200060708df86270adf85c704ff0080a8df81f
:104330006ea04ff009098df86f900223adf86c3034
:104340001ba829f087fe19202cf0a0ff8df860a093
:104350008df8619001238df86230674b1f602760f4
:1043600017a918a81df030fd002840f0ba82bdf84a
:104370005c3033804ff6ff72934256d044e00327ff
:104380008df86c7002238df86d3008238df86e3037
:1043900019202cf07bff39461ba827f027fe034687
:1043a000002841d004238df86c3001238df86d3046
:1043b00007238df86e3019202cf068ff39461ba8b2
:1043c00027f014fe034678b300238df86c308df887
:1043d0006d308df86e3019202cf058ff39461ba82f
:1043e00027f004fe031c18bf01231de032202cf02f
:1043f0004dff013d1fd02368002b40f0e081328843
:104400004ff6ff739a4289d00023adf8603018a9a7
:104410000e2023f083f8034630b1bdf8602041f24e
:1044200058039a42abd0434623602368002bddd06b
:10443000012d40f0c481274b1a884ff6ff739a4232
:1044400021d02e4a254b18682c4b2d49002808bf37
:104450000b462c49002025f03bf846202ff0eaf8c7
:1044600029f0f8fb159000202ff06bfb0d904ff416
:104470007a73109a03fb02f3149300230e930f93a5
:104480009fed0d9b44e11e4adce74ff001092246f7
:104490001ba90d982bf0f6fb002837dd9df86c303a
:1044a000032bf2d003f0df03512b08bf4ff00109bb
:1044b000ede700bfaff30080000000000000000047
:1044c000e05a0100443401203f62020054340120cc
:1044d000603401209a3601207a36012048340120c8
:1044e0009c3601209e360120d8340120345b010027
:1044f000145b0100805b010040340120d45a0100ac
:10450000cc5a0100d05b01005c340120b64b188806
:10451000b64b1c88a4b240f6ff75281a2df058fa45
:104520000022b34b16f0c8fdaba3d3e900230ef075
:10453000e1fccde90801281b2df04afa0022ac4b22
:1045400016f0bafda4a3d3e900230ef0d3fccde905
:104550000a01dff8cc82c3464ff0000ab0ee498a68
:10456000f0ee698a119bff2ba8bfff23012bb8bf78
:1045700001230c9347e00c982df02afa32463b4673
:1045800016f09afd06460f462df054f9207094a3bc
:10459000d3e900233046394616f08efd2df04af956
:1045a00060700023a370013503340a2d24d02846ff
:1045b0002df00efadde908232ff064fb02460b46ce
:1045c00016f07afddde906230df007fe0022894b87
:1045d0000ef090fc02460b46002087492ff052fb5c
:1045e00006460f4653ec182b2bf03cf90028c2d09e
:1045f00057ec186bbfe700bf0af1010a0bf13c0b47
:10460000baf10a0f0fd050462df0e2f9dde90a2386
:104610002ff038fb02460b4616f04efdcde90601a1
:104620005c460025c3e7754b1b889bb283b1139a88
:10463000032ab8bf0322012b13dd9342a8bf134600
:10464000d31a03ebc303023a93fbf2f36c4a1360f1
:104650006b4b1e6800215e9dff2da8bfff250846fd
:1046600006e00223ece7013108f13c080a2910d0ea
:1046700025eae5738e4218bf0023dab2434608f1fb
:104680001e049877d87783f820200333a342f8d10b
:10469000e9e71421002014f05ffa0e9b13f0010fdc
:1046a0003fd023f01bfe002838d00e9b01330e9321
:1046b00028f098fb29f0cefa04460f9bc31ac72bab
:1046c0001cd9494b1a88494b1b884e490d684e49e5
:1046d0004e48002d08bf0146484805884c480768e9
:1046e00049484a4e002f08bf30460290019500917c
:1046f0004849002024f0ecfe0f9400bf4ff47a707c
:10470000129b90fbf3f02cf0c1fdb9f1000f17d113
:10471000109b6bb94ff000090124b8e621f018f99d
:10472000c3e721f015f90028bfd123f0d7fdbce77e
:1047300029f090fa159bc01a149b9842ead303e023
:104740003549002024f0c4fe3449002024f0c0fe86
:104750004ff41672002132482ef03cfe1421002046
:1047600014f0faf91e202cf091fd1421002014f011
:10477000f3f92c4b1b884ff6ff72934213d12a4b4f
:104780001b884ff6ff72934213d1284c20682df0fe
:10479000c1fb0023236040f2dc502ef053ff0320c6
:1047a0002ff08af84de5adf86c301ba82af08afb93
:1047b000e5e7adf86c301ba82af066fbe5e7194b7e
:1047c0001a884ff6ff739a423ff45dae184a1346bb
:1047d0003fe600bfaff300800000000000feaf40e6
:1047e0009a9999999999e13f9c3601209e3601202a
:1047f00000002240000019400000f03fd8340120a2
:104800009036012064340120d85a0100dc5a01009e
:104810004c3401200c5c0100385c0100585c010044
:10482000881501209a3601207a360120543401205f
:10483000d45a01004ff6ff73a9f8003032202cf053
:1048400025fd069b013b06933dd0b9f800204ff6ad
:10485000ff739a4237d10024189419941a94adf832
:104860005c404ff00c088df86e800d278df86f704e
:104870000e268df870600f258df87150adf86cb074
:104880001ba829f0e7fb19202cf000fd8df86080b3
:104890008df861708df862608df8635001238df89a
:1048a0006430124b1a93caf8004017a918a816f0e2
:1048b0006bf80028bed1bdf85c30a9f800304ff687
:1048c000ff729342bad028202cf0e0fc084bd3f8ba
:1048d0000080b8f1000f7ff472af0525054e1c462d
:1048e0008de54ff6ff7333809fe500bfb8571d007d
:0848f000483401207a36012052
:020000040000fa
:1048f8002de9f04f8db0d0f850a00a68436d846d53
:1049080083ea040e0eea0a0e8eea040ed84bc46c33
:1049180023440a9213449e440aeb7e6e4e68436d0c
:104928008aea030707ea0e075f40d24b856d2b44de
:10493800009633441f440eeb37578b681a468aeab1
:104948000e053d4085ea0a05cb4b446d2344019290
:1049580013441d4407ebf535cb681c468eea070661
:104968002e4086ea0e06c54b5344029423441e4447
:1049780005ebb6260b691c4687ea050333407b40e6
:10498800bf4a039422449644734406eb73694a6908
:10499800134685ea060404ea09046c40b94a0493fc
:1049a8001a4417443c4409eb34548b6986ea0902db
:1049b80022407240b44f05931f443d442a4404ebff
:1049c800f232cf6989ea040808ea020888ea090885
:1049d800ae4d06973d442e44b04402ebb8280f6a0a
:1049e80084ea020c0cea080c8cea040ca84d079720
:1049f8003d4409eb05039c4408eb7c6c4d6a82ea54
:104a0800080909ea0c0989ea0209a24b08952b440e
:104a18001c44a1440ceb39598b6a88ea0c0e0eea47
:104a2800090e8eea080e0993a3f524434f3b1a4456
:104a3800964409ebfe3eca6a16468cea090505ea61
:104a48000e0585ea0c05944b1344984445440eeb37
:104a5800b525d1f8308089ea0e072f4087ea090783
:104a68008e4b43449c44674405eb7767d1f834c0c8
:104a78008eea05033b4083ea0e03894a6244914467
:104a88004b4407eb3353d1f8389085ea07041c40b0
:104a98006c40844a4a449644744403ebf434d1f895
:104aa8003ce087ea030222407a407f4971440d4482
:104ab8002a4404ebb22284ea020b0bea030b8beaca
:104ac800040b7a49009d29440f44bb4402ebfb6b5d
:104ad80082ea0b07274057407549059d29440b4436
:104ae8001f440bebf7578bea0703134083ea0b03ca
:104af80070490b9631440c44234407ebb34387eacf
:104b0800030505ea0b057d406b490a9c21440a44cc
:104b1800154403eb353583ea05023a405a406749a4
:104b2800049e31448b445a4405ebf26285ea020143
:104b380019406940624c099e34442744394402ebc9
:104b4800f15182ea01042c4054405e4f77443b44c3
:104b58001c4401ebb44481ea040313404b405a4f10
:104b6800039e37443d442b4404eb333384ea030b60
:104b78000bea010b8bea040b544d089e35442a447a
:104b8800934403ebfb6b83ea0b0727405f40504ad3
:104b98004a4411440f440bebf7578bea07051d40b5
:104ba80085ea0b054b4a02990a441444254407eb4d
:104bb800b54587ea050202ea0b027a404649079e94
:104bc80031440b441a4405eb323285ea02033b4078
:104bd8006b40424961448b445b4402ebf36382ead5
:104be8000301294051403e4c019e34442744394436
:104bf80003ebf15183ea010414405c40394f069eef
:104c080037443d442c4401ebb44481ea040b0beadd
:104c180003054d40344f47443a44154404eb3535b9
:104c2800049fa7f5b822a2f2be6213448bea050bd3
:104c38005b4405eb337384ea05025a402b4f079e09
:104c480037443944114403eb715185ea030b8bea6d
:104c5800010b274a0b9f3a4414445c4401eb34444b
:104c680083ea01076740234a4a4415442f4443e036
:104c780078a46ad756b7c7e8db702024eecebdc14a
:104c8800af0f7cf52ac68747134630a8019546fd25
:104c9800d8988069aff7448bbed75c892211906b96
:104ca800937198fd8e4379a62108b44962251ef6b2
:104cb80040b340c0515a5e26aac7b6e95d102fd648
:104cc8005314440281e6a1d8c8fbd3e7e6cde1211d
:104cd800d60737c3870dd5f4ed145a4505e9e3a97e
:104ce800f8a3effcd9026f678a4c2a8d81f6718789
:104cf80022619d6d0c38e5fd04eb772781ea0402fb
:104d08007a40944d009e35442b44134407eb33738b
:104d180084ea07025a40904d039e354429441144c1
:104d280003eb715187ea030b8bea010b8b4a069d53
:104d38002a441444a34401eb3b4b83ea010282ea70
:104d48000b02874c099d2c4427443a440beb7222f2
:104d580081ea0b045440834d65442b44234402eb01
:104d680033738bea02075f407f4c0a9e3444214428
:104d78000f4403eb775782ea03057d407b49029c89
:104d880021448b445d4407eb354583ea070b8beae6
:104d9800050b7749059c21440a44934405eb7b2b7a
:104da80087ea050484ea0b04724a08990a44134402
:104db8001c440beb347485ea0b0161406e4b434491
:104dc8001f44394404eb71518bea04034b406b4a8e
:104dd800724415441d4401eb354584ea01026a40da
:104de800674b019f3b449b445a4405eb722262ea9d
:104df80001036b40634f37443c44234402ebb363e5
:104e080063ea050b8bea020b5f4c069f3c44214486
:104e18008b4403ebbb5b6bea02075f405b49494489
:104e28000d442f440beb774767ea030484ea0b042d
:104e38005749049d29440a44144407ebf42464eabe
:104e48000b057d40534a424413441d4404ebb565a9
:104e580065ea070888ea04084f4b02990b449b440b
:104e6800d84405ebb85868ea04036b40099aa2f5e0
:104e78008016a6f683363e44334408eb734363ea50
:104e8800050989ea08094549009e31440c44a144b2
:104e980003ebf92969ea08065e40414a07990a4482
:104ea80015442e4409ebb66666ea030181ea090156
:104eb8003c4a72449044414406ebb15161ea09040a
:104ec8007440394a059d2a4413441c4401eb744438
:104ed80064ea06054d40354b634499444d4404eb60
:104ee800f52565ea01076740314a039b1a441644d1
:104ef800374405ebb76767ea04036b402d4a0b9efe
:104f080032441144194407ebb15161ea05067e4069
:104f1800294a019b1a441444344401eb7444c36c79
:104f28003b44c36464ea07074f40244b089a134480
:104f38001d442f440aeb040505ebf7250565436d71
:104f48001c444465836d1944816500200db0bde89b
:104f5800f08f00bf44eabea4a9cfde4b604bbbf67e
:104f680070bcbfbec67e9b28fa27a1ea8530efd465
:104f7800051d880439d0d4d9e599dbe6f87ca21f51
:104f88006556acc4442229f497ff2a43a72394ab5f
:104f980039a093fcc3595b6592cc0c8fd15d848595
:104fa8004f7ea86fe0e62cfe144301a3a111084e22
:104fb800827e53f735f23abdbbd2d72a91d386eb1e
:020000040000fa
:104fc800b14b834240f04183b04b93f90020531e0c
:104fd800dbb2012b00f239832de9f04f87b0ac4bdf
:104fe8001b685bb1012a1ad0a94b1c68a64b1b8809
:104ff800002b00f01c830025a34e7be0a54b1b680b
:1050080002a89847002800f3f58220b9029810b149
:1050180004f00cfdeee29d4b00221a70eae29e4b72
:105028001b68b3f1ff3fdfd19c4a002105202df01a
:10503800b9fa994b1860b0f1ff3f2ed02cf0e6f882
:1050480000eb800303f2e733954aa2fb03239b0995
:105058004ff47a7606fb03f3b3fbf0f6914b1e6030
:105068000225914c04e001351034282d00f0d68239
:105078002368002bf7d0b4f90a20002af3d0214680
:10508800a8b22bf0fbff0028edd106f5a673b3fb01
:10509800f6f306fb03f6854b1e602ef0f1fb88b98c
:1050a8001ff02cfb794bff221a702ef0e9fb002829
:1050b80000f0a0822ef0defb4ff0ff327c4924f096
:1050c80003fa97e22ef0d6fb05227a4924f0fcf980
:1050d800e6e7032304222146304625f0d9fc94f85c
:1050e800433043f0800384f8433001357434318809
:1050f8008d424bdae06c0028f7d0636c9b699847c7
:1051080094f8433013f0400fefd0636c5b69e06ca8
:1051180098470028dddb0228e7d100230293039398
:105128000493059340f2dc53adf81230636c1b6caa
:1051380002a9206d98470298e063bdf80c30a4f8e6
:105148004030bdf80e30003318bf012394f84320d7
:1051580063f3451284f84320bdf81230a4f8663092
:105168009df8153084f868309df8143084f869305b
:1051780094f8423043f0400384f84230d3b203f04d
:10518800bf0343f0800384f84330aee73f4b93f905
:105198000030012b25d0002026f066f9464b1b680d
:1051a80033b9464b1a68464b1b68134300f02282fa
:1051b800414b1b68002b40f089804ff000083f4ba3
:1051c8001b68002b00f091813c4b00221a60304b89
:1051d8001c682d4b1b88002b00f01a811646394f8e
:1051e800e8e02b4b1e68002900f027823246002594
:1051f8002b46012706e007fa03f005430133743212
:10520800994212d092f8430000f00c04042cf2d119
:1052180010f0800f00f0ee8192f8420010f0400f7d
:10522800ecd007fa03f00543e8e7012202fa03f39a
:10523800013bab4200f00182134b1b88abb1002449
:1052480044f24008104f0ae003230422314638464e
:1052580025f01efc013474363b889c4205dab6f80a
:10526800423018ea030ff5d0eee7084bff221a7018
:105278002ef006fb002800f0bd812ef0fbfa2a462e
:10528800114924f021f9b5e154310120ef3401200e
:10529800a0330120a433012080360120e50f03004c
:1052a800d34d621098330120281301209433012034
:1052b800c4fa010094fa01008c330120a8330120bc
:1052c80090330120202b012034fb01000025b44b32
:1052d8001d602ef0dbfa04462bf00cf906460f464b
:1052e80022462b462bf0aef9ae4b1860ae4aa2fb15
:1052f800043292092b46304639462bf0a3f9ab4bc2
:105308001860ab4b1b68ab4a12689b1aab4204ddb2
:10531800a74a13604ff0010851e703f24d13a44a5e
:105328001360a54b1c68a54b1b88002b00f06c81f3
:105338000025a24e0ee094f86a3043f0020360f3b1
:10534800820360f3000384f86a30013574343388cb
:105358009d420fda94f8423013f0400ff5d0636c99
:105368005b6a206d984794f86a3003f0010398420d
:10537800e1d1eae74ff0010821e74ff0010823e700
:10538800002503e08c6238462df08bfa636c5b6b6a
:105398002a462946206d984701460028f2d1884ab6
:1053a80013680133136029e001367434834b1b887a
:1053b800b3422ddd94f8423013f0400ff4d0b4f826
:1053c8006250636c5b6d206d98470543adb22ef05b
:1053d80039fcb4f8623023ea0503a4f862302ef0f1
:1053e80035fcb4f864302b43a4f86430636c1b6d4f
:1053f8002946206d984715f0160fc1d194f843300f
:1054080013f0200fd0d0636c9b6b206d9847cbe7cf
:105418004ff0000bdff8b49109f10c07dff8b0a1e9
:105428000af10803019305e001226ff00c012846f8
:105438002af040ff38462cf065ff054600284bd07f
:105448006b699b891c0a44ea0324a4b2a86a866d86
:105458002eb1c36d22462946b0470028ead1284616
:1054680003f0a6fc0028e5d140f606039c420dd0c7
:10547800b4f5006f07d04ff6ff739c42d4d10af100
:105488001004022604e0019c012601e0002654468f
:105498002b6a23f47c132b62626813432b626088a7
:1054a80000eb4000294609eb80002df0faf90123b2
:1054b80003fa06f616ea0b0fbcd14bea060b638813
:1054c800404800eb0310038943f0010303810022e5
:1054d80001212cf087ffade72ef0b4fb394a138b7e
:1054e80023f0010313832ef0b1fb334b1b68334abf
:1054f800108820b3002240f286651446324e09e037
:105508003168013131600ee0a3f864400132743330
:10551800824214d093f8421011f0400ff6d0b3f83d
:1055280064100d42ecd193f86a1011f0020febd021
:1055380093f86a106ff3410183f86a10e4e7b8f151
:10554800000f66d11f4d05f1300405f5247544e0c0
:105558001344a381238943f00203238100220221fb
:1055680020462cf03fff1034ac420fd02368002bac
:10557800f9d0b4f90a20002af5d03168a3895b1a5a
:105588009bb219b20029e3dda181ece72ef05afbaa
:105598000c4a138923f0020313812ef057fbd1e73d
:1055a8008c33012080330120d34d62107c330120dd
:1055b8009433012098330120a03301205431012075
:1055c800883301200813012084330120142b012083
:1055d800941d03001034ac4209d054f8103c34f840
:1055e800082c002bf6d0002af4d09847f2e7174b86
:1055f8001b6813b907b0bde8f08f00224ff4807123
:1056080013482cf0effef5e7124b1b68002b7ff4d4
:10561800b4ae114c114e04f51875a7e706f5a6733c
:10562800b3fbf6f306fb03f60d4b1e60dce40d4bf3
:1056380093f90030012b7ff4aead0a4b02221a70a9
:10564800094900202af0c6fea5e5704790330120dd
:1056580018130120a83301202813012098330120b2
:0c56680094330120ef34012004fb01000a
:020000040000fa
:105674002de9f04f8db083468a46002308930993a1
:105684000a930b9343680393aa4b1968002940f3c8
:10569400a7829146a84b93f8ce30012b00f0a78245
:1056a4000023a54d0133d8358b4200f0998295f83b
:1056b400ce20012af6d1a04beb1adb1003ebc30278
:1056c40003eb4203c3eb432303eb8343dbf80020e8
:1056d40054685a4299490398a047002485f8d14058
:1056e40002232b7485f8cf4041f289336b82944bab
:1056f400ab612bf08dfd04906c6000eb80035b00cc
:10570400ab6028602c75c5f8c4b0284627f0eefcc1
:10571400baf1010fc8bf012411dc95f8d130002b78
:1057240000f0e581012b00f00c820db0bde8f08f94
:10573400012385f8d1300134e4b25445edda59f847
:10574400246002227f4930462cf0e4ff0028efd089
:1057540005227d4930462cf0ddff0028e8d00222e6
:105764007a4930462cf0d6ff28b1052278493046d4
:105774002cf0d0ff10b901232b74dce70222754909
:1057840030462cf0c7ff30b10522734930462cf067
:10579400c1ff00285cd101232b741c44e4b259f8e6
:1057a400246030462df0a2fbc7b207f1ff38b044a5
:1057b4006a4940462df05afcb8b1694940462df07b
:1057c40055fc00283dd14ff47a7807f1ff3cbcf139
:1057d400000f33dd00273a464ff0010e3b46059497
:1057e4007146b64644460e46e3e15d4940462df017
:1057f4003dfc00285b4b0cbf4ff47a789846e4e7f5
:1058040002eb820200eb4202303adce12346059cc3
:1058140003fb07f3424501d208fb02f20892099305
:10582400dbf80010981800904e684f49dbf804002c
:10583400b047089b099a1344ab617ce700221346e6
:10584400eae7012208a9304620f0d6fd089bf3e7d9
:105854000222464930462cf05dff28b10522444916
:1058640030462cf057ff50b90134e4b2012208a9a4
:1058740059f8240020f0c0fd089bab615be70222cd
:105884003c4930462cf046ff28b105223a493046bf
:105894002cf040ffb8b9002385f8d1300134e4b2cc
:1058a400042208a959f8240020f0a6fd089b85f8d5
:1058b4004430099b85f845300a9b85f846300b9b9c
:1058c40085f8473037e702222c4930462cf022ff76
:1058d40028b105222a4930462cf01cff78b901343e
:1058e400e4b2012208a959f8240020f085fd089ba0
:1058f400049a02fb03f3ab6000236b601be70222f4
:10590400204930462cf006ff30b105221e493046ae
:105914002cf000ff002839d10134e4b2012208a997
:1059240059f8240020f068fd089b6b600023ab60ed
:1059340001e700bfe03201206826012000370100a2
:105944008096980024350100283501003435010083
:10595400383501004035010044350100503501005f
:105964005435010040420f005835010074350100e0
:105974007835010084350100883501009435010033
:1059840098350100a0350100a4350100022299498f
:1059940030462cf0bffe30b10522974930462cf03a
:1059a400b9fe002836d10134e4b259f82400437812
:1059b400782b17d0012208a920f01efd9df82000a5
:1059c4000246202820d018d9a0281ad0c0281ed1d9
:1059d40010232b75dbf800305e682b7d8749039814
:1059e400b047a8e683788df81f30c3788df81e3051
:1059f400bdf81e0029f02af8e2e740b900232b7510
:105a0400e8e720232b75e5e708232b75e2e700235d
:105a14002b75dfe702227a4930462cf07bfe28b151
:105a24000522784930462cf075fe58b90134e4b2a9
:105a3400012208a959f8240020f0defc089ba5f8ef
:105a4400d23078e60222704930462cf063fe28b149
:105a540005226e4930462cf05dfe68b90134e4b28b
:105a6400012208a959f8240020f0c6fc089b049ad6
