:020000040000fa
:10000000f0ff0320fd740200c3450300c745030051
:10001000cf450300d3450300d7450300000000008f
:10002000000000000000000000000000e1450300a7
:10003000cb45030000000000e1450300e14503005b
:10004000e1450300e1450300e1450300e14503000c
:10005000e1450300e1450300e1450300e1450300fc
:10006000e1450300e1450300e1450300e1450300ec
:10007000e1450300e1450300e1450300e1450300dc
:10008000e1450300e1450300e1450300e1450300cc
:10009000e1450300e1450300e1450300e1450300bc
:1000a000e1450300e1450300e1450300e1450300ac
:1000b000e1450300e1450300e1450300ef43030090
:1000c000f9430300e1450300e1450300e145030076
:1000d000e1450300e1450300e1450300e14503007c
:1000e000e1450300e14503000000000000000000be
:1000f00000000000e14503006596010065960100df
:1001000065960100659601007dc502007dc502006f
:100110007dc502007dc50200e1450300e145030005
:10012000e1450300e1450300e1450300e14503002b
:10013000e1450300e1450300e1450300e14503001b
:10014000e1450300e1450300e1450300e14503000b
:10015000e1450300e1450300e1450300e1450300fb
:10016000e1450300e1450300e1450300e1450300eb
:10017000e1450300e1450300e1450300e1450300db
:10018000e1450300e1450300e1450300e1450300cb
:10019000c9110300e1450300e1450300e145030007
:1001a000e1450300e1450300e1450300e1450300ab
:1001b000e1450300e1450300e1450300e14503009b
:1001c000e1450300e1450300e1450300e14503008b
:1001d000e1450300e1450300e1450300e14503007b
:1001e000e1450300e1450300e14503005513030029
:1001f000e1450300e1450300e1450300e14503005b
:10020000e1450300e1450300e1450300e14503004a
:10021000e1450300e1450300e1450300e14503003a
:10022000e1450300e1450300e1450300e14503002a
:10023000e1450300e1450300e1450300e14503001a
:10024000e1450300e1450300e1450300e14503000a
:10025000e1450300e1450300e1450300e1450300fa
:04026000e145030071
:020000040000fa
:10026400f8b500bff8bc08bc9e467047b5ea02006a
:10027400f8b500bff8bc08bc9e46704791ea02007e
:020000040000fa
:08028400dcf60000010000009f
:020000040000fa
:10028c002de9f04f8db00f210a2031f031fb029097
:10029c0010f0010f40f05d85029b13f0020f40f04f
:1002ac007c850db0bde8f08fd9f8187007f11002fd
:1002bc00059213f4007f21d1fb6809933b690a93e3
:1002cc0000228df82c2006238df82d30330a43eaba
:1002dc000623adf82e300c2109a829f00bffc043e2
:1002ec0083b2d9f8202012f0040f30d032464146a8
:1002fc00484627f0d7ff002840f09a8640462af05f
:10030c0009fc98f80ca04fea1a1a4fea8a030493d6
:10031c00d9f81ca0baf80220002a00f08c86fd89be
:10032c00bb891d44baf800301d445540adb2c74bd3
:10033c00d3f800c0bcf1000f00f08086d9f828e09b
:10034c00c34b1b68039300239b4610460ee01a46d2
:10035c003146404629f0cefecde7b4f872208242f9
:10036c002fd001331bb21c469c452fd9039a52f84f
:10037c002440002cf5d094f876200b2af1d094f878
:10038c0077100129edd8a16c09b18e45e9d1002a6d
:10039c00e3d0b4f87220aa42e3d1daf80010226e4e
:1003ac009142ded1216cfa689142dad1012184f8b4
:1003bc007710c4f848e0059a20462ff0e6fea346d5
:1003cc0022e0bbf1000f08bfa346cae7bbf1000f48
:1003dc0000f08380fb68cbf8403001218bf877105c
:1003ec00cbf848e0059a58462ff0cffeabf8725088
:1003fc00baf80030abf86030baf80230abf86230c3
:10040c00dbf80030cbf81030d9f810209389049920
:10041c005b1a938198f80d40d8f80870d8f80450fe
:10042c009bf83f3013f0400f5bd19bf875306ff3a6
:10043c0000038bf875309bf87630002b69d0012bbc
:10044c0000f09e801436049aa6eb020a1ffa8afa70
:10045c00aaf1140292b2059214f0010206921abf8c
:10046c00aaf1130a1ffa8af2059a039214f0020fea
:10047c0003d0039a013292b20392dbf81c60dbf8d2
:10048c0020209642c0f0aa80dbf81810dbf814008c
:10049c00091aa6eb020aa1eb0a0a1ffa8af20492c5
:1004ac00dbf85820a5eb020a039a002a00f0a98079
:1004bc00049a002a00f0a080baf1000fc0f29680d6
:1004cc009245c0f0a780039a04998a1a8a45c0f213
:1004dc00a180924540f39e808ee06ff00e0100f0fb
:1004ec0034bc00238bf879309bf83e3013f0020fac
:1004fc009bd131f09dfabbf87020564b1b6803fb67
:10050c0002f3554aa2fb032300eb9310cbf8240013
:10051c008be714f0040f1ad114f0100f1dd114f046
:10052c00020f27d00135cbf85850404622f072fe0e
:10053c00abf86a0058462ef082fd01221221584673
:10054c0005f0a0fb02238bf876300026e6e30021b1
:10055c00584619f0b3ff0026e0e3cbf854700022a4
:10056c000421584605f08efb0021584619f0a6ffd1
:10057c000026d3e30021584619f0a0ff0026cde356
:10058c0014f0040f40f0c98314f0100f00f0a08594
:10059c00dbf85460b74205d114f0020f40f05585da
:1005ac000026bbe3cbf8547001220421584605f019
:1005bc0069fbcbf854600026b0e331f039fabbf894
:1005cc007020244b1b6803fb02f3234aa2fb03237a
:1005dc0000eb9313cbf8243000f056bda2eb060ac7
:1005ec000af1ff3a1ffa8af2049259e703990a4674
:1005fc00514400293ff768af14f0040f1fd00026b8
:10060c008ce3baf1000f05d0baf1000ff4db049ab9
:10061c009245f1da14f0060f20d114f0100f00f00f
:10062c009083023b072b00f2cc81dfe813f029000a
:10063c003e003e003e003e00ca013e00bd010122cc
:10064c001021584605f01efb002667e304330120f9
:10065c000033012008330120d34d621014f0040f35
:10066c0008d09bf83f3043f002038bf83f304ff437
:10067c00006600e000260021584619f01fff4de3ec
:10068c00dbf85460b74205d103238bf876304ff476
:10069c0080760be0cbf8547001220421584605f00b
:1006ac00f1facbf85460002638e30026dbf8101082
:1006bc00dbf808305a1a13d4dbf854003b1a9b1a97
:1006cc00002b1dddbbf8742002f40172042a01d149
:1006dc00012b0cd000221021584605f0d3fa1de353
:1006ec00dbf80430dbf800001b1a1a44e4e7013095
:1006fc00cbf854009bf8753043f002038bf875303f
:10070c00dbf85430dbf80c20881a914249d2dbf824
:10071c000420dbf80010521afb1a0344d318079379
:10072c00002b07dddbf80430dbf800209b1a079a5e
:10073c009a4246d9dbf83830002b40f0a280dbf827
:10074c000c20dbf808309a4200f0d980b8f80e3053
:10075c00bbf86e209a4238bfabf86e30dbf85420f1
:10076c00b8f80e303b449b1a9bb2bbf8641031b9fd
:10077c002bb19bf83e1041f040018bf83e10abf8ca
:10078c0064309bf87630042b00f0f080062b40f0a0
:10079c001981974240f0c2820021584619f08efe12
:1007ac00bce2fb1a03440793002b07dddbf8043093
:1007bc00dbf800001b1a0798984202d99142bed070
:1007cc00b8e740f2dc53cbf8343031f031f9dbf8d8
:1007dc003420c44b1b6803fb02f3c34aa2fb032364
:1007ec0000eb9313cbf838309bf83e306ff3451386
:1007fc008bf83e30dbf80c10079b0b44cbf80c301d
:10080c00dbf8102091420ed893421cd99a1adbf8cf
:10081c0054100a44cbf85420cbf81030dbf80420e9
:10082c00934224d313e0dbf80410dbf80000091a20
:10083c000a44934207d99a1adbf854100a44cbf8ad
:10084c005420cbf81030dbf80420934205d3dbf8ae
:10085c000010511a5b1acbf80c30dbf810309342b5
:10086c0005d3dbf80010521a9a1acbf810209bf81b
:10087c007630032b02d0082b7ff461af46f00406d0
:10088c005de731f0d5f8dbf83830c31a002bfff6f2
:10089c0056afdbf834305b00b3f57a4f28bf4ff41a
:1008ac007a43cbf8343031f0c3f8dbf834208d4b7d
:1008bc001b6803fb02f38c4aa2fb032300eb93138c
:1008cc00cbf83830dbf81010dbf80c20881adbf88a
:1008dc0054301b1acbf85430914207d2dbf8041079
:1008ec00dbf80000091a5b1acbf85430cbf8102057
:1008fc009bf83e3043f080038bf83e301fe79bf8ab
:10090c003f3013f0010f19d113f0400f06d19bf8b3
:10091c003e306ff341038bf83e3017e731f088f827
:10092c00bbf870206f4b1b6803fb02f34ff47a7219
:10093c00b3fbf2f30344cbf82430e8e7dbf8543094
:10094c009f427ff403af9bf8743013f0040f3ff415
:10095c00fdae9bf83e306ff341038bf83e309bf8b5
:10096c003f306ff300038bf83f30efe6974203d034
:10097c0014f0200f35d0d1e19bf8743013f0040f34
:10098c00f6d031f055f8574b1a6841f2883303fb17
:10099c0002f34ff47a72b3fbf2f30344cbf830302a
:1009ac0005238bf87630e3e7dbf8543001339f42b4
:1009bc0001d00026b2e10021584619f07ffd002637
:1009cc00ace1002614f0200f40f0a8819bf87620b3
:1009dc00a2f10803dbb2012b40f2a081062a00f041
:1009ec009d81059a002a3fd0baf1000f7edd059b50
:1009fc005344049a934203dda2eb0a039bb2059382
:100a0c0098f80c301b0908eb83030893dbf81c10d7
:100a1c00dbf81830059a52440a44934280f0f48073
:100a2c005a1a0132b2eb0a0200f1df801ffa82f887
:100a3c0001240094434608a802465144484628f035
:100a4c00c3fc0490059aa2eb080300949bb208aa7d
:100a5c00dbf81410484628f0b7fc049b034498b20a
:100a6c00059b834200f0d980039bcbb19bf8763079
:100a7c00033bdbb2022b84bfdbf81c30cbf82030fd
:100a8c009bf83e3013f0100f40f0fa809bf83e308c
:100a9c0043f010038bf83e3013f0080f00f0f68093
:100aac00069b002b00f03a81dbf858300133039a97
:100abc002a44934240f03281cbf8583046f4806699
:100acc009bf83f3043f004038bf83f309bf87630b3
:100adc00023b032b00f20781dfe813f0ec00f5007a
:100aec00fe00150108330120d34d621098f80c302c
:100afc001b09caeb830343440893524493b2049af0
:100b0c009a4228bf1a469246dbf81c10dbf81830c4
:100b1c008a18934259d25b1a01330493bdf81080a2
:100b2c0001240094434608aa484628f04dfc059041
:100b3c00aaeb080300949bb208aadbf814104846f1
:100b4c0028f042fc059a024490b2049baaeb0303e2
:100b5c00dbf814201344504586d1dbf8581051446f
:100b6c00cbf85810cbf81c309bf87620033ad2b255
:100b7c00022a98bf46f40076dbf85c20b2f1ff3f06
:100b8c003ff472afa2eb0a0acbf85ca0bbf868206a
:100b9c0012eb0a0224d4baf1000f3ff765af1144ef
:100bac00cbf858101344cbf81c30dbf818209342c8
:100bbc0006d9dbf81410521ad2431344cbf81c306c
:100bcc004ff0ff33cbf85c304ee7012300935346d4
:100bdc0008aa484628f0f8fbdbf81c305344bae767
:100bec004ff0ff33cbf85c303ee70af1ff30dbf817
:100bfc0014209b1ac01a01230093059b08aa0144d8
:100c0c00484628f0e1fb2be701230093059b08aa3b
:100c1c005144484628f0d8fb22e7dbf85c30b3f1ae
:100c2c00ff3f15d09a4519d2059a02eb0a01bbf881
:100c3c006820d018814205d88b4203d8a0eb0a0358
:100c4c009bb20593059babf86830cbf85ca00be727
:100c5c00cbf85ca0059babf8683005e7bbf86820c7
:100c6c001a4405980146514491427ff6fdae9245d7
:100c7c003ff6faaeaaeb03031844abf86800f3e6b0
:100c8c0001221021584604f0fdff09e7dbb243f0c6
:100c9c0008038bf83e3030f0cbfeb14b1a6864235e
:100cac0003fb02f34ff47a72b3fbf2f30344cbf879
:100cbc002c30f5e609238bf87630012211215846a9
:100ccc0004f0e0ff2ae008238bf876309bf87530af
:100cdc0013f0010f07d021e0dbf854309f4208d00d
:100cec0006238bf8763001221021584604f0cafff7
:100cfc0014e000221021584604f0c4ff002158468d
:100d0c0019f0dcfb0ae000221021584604f0baff6f
:100d1c000021584619f0d2fb00e00026bbf87a20df
:100d2c00324000f08e81dbf87c40002c00f08b818f
:100d3c00dbf88030d9f82810bbf93c00a047022121
:100d4c0003e00026eae76ff00d010a2248462ff077
:100d5c00bffe0a2032f046fc814600283ff49caad4
:100d6c00b9f82c60132eeed9d9f81c8098f80c30f9
:100d7c001b09042b0bd9b6eb830f0bdbd9f82030f6
:100d8c0013f400343ff490aa6ff00e01dde76ff01e
:100d9c000d01dae76ff00d01d7e7724b1b68002be2
:100dac003ff47faa00252b46dff8bc91dff8bca1ed
:100dbc00dff8b081e6e030f03bfea36ac01a0028f1
:100dcc00a8bf1026f4e030f033fee36ac01a002806
:100ddc00c0f2f48094f87630052b00f08a8110264e
:100dec0087f001023146204604f04cffeee030f073
:100dfc001ffe236bc01a0028c0f2e58001221421cb
:100e0c00204604f03fff0021204619f057fbb1e0cb
:100e1c0094f83e6006f001060121204623f0dbfd2c
:100e2c0094f83e3043f0010384f83e304ff4805286
:100e3c00002120462cf0a3f8002e40f09b8094f863
:100e4c003e306ff3000384f83e300a2384f876308a
:100e5c0090e030f0edfd636ac01a0028c0f28a8081
:100e6c0094f876104b1e082b00f28280dfe803f01a
:100e7c000541556080688080700094f87830032bb1
:100e8c0040f22b81042384f87830354b1a684ff4e8
:100e9c007a7303fb02f3aafb03239b091b01236553
:100eac000221002694f87830013384f87830236dd1
:100ebc005b0023652069e268831a9bb2904204d2de
:100ecc0060682768c01b03449bb2606dc01a6065e4
:100edc00b4f864000344a4f8643022610022204674
:100eec0004f0d0fe002e45d00021204619f0e6fa81
:100efc0040e094f87830022b40f2f18094f83e6098
:100f0c0006f001031e46002b18bf1421002fc9d177
:100f1c000122204604f0b6fee4e794f87830042b66
:100f2c0040f2df80042384f8763011210026ede7af
:100f3c0094f87830042b40f2d68014210126e5e792
:100f4c0094f87830042b40f2d08014210126dde790
:100f5c0094f87830042b40f2ca8014210126d5e78e
:100f6c00083301200433012000330120d34d6210db
:100f7c00002e5ad101352db22b46d8f800209542bf
:100f8c00bff48fa9d9f8002052f82340002cf1d0df
:100f9c0094f876300b2bedd094f83e3013f0c0065d
:100fac001abfdf091026002713f0040f7ff403afdc
:100fbc0094f83e3013f0080f7ff405af94f87630b8
:100fcc00052b3ff414af002e7ff40aaf94f83e309b
:100fdc0013f0020f7ff43daf94f83f3013f0400f45
:100fec00c8d094f87630032bc4d130f021fd636a5d
:100ffc00c01a0028bedb94f8792094f884309a4209
:10100c003ff406af02221021204604f03bfe30f0e4
:10101c000ffdb4f870203b4b1b6803fb02f3aafbdb
:10102c00032300eb93106062a4e7314600266de7c2
:10103c006ff0090189e66ff00e0186e66ff00e0184
:10104c0083e6022181e602217fe60135cbf8585078
:10105c00b8f80e30abf86e30abf86430404622f086
:10106c00d9f8abf86a0058462df0e9ff012210219f
:10107c00584604f007fe03238bf876309bf83f307c
:10108c0013f0400f7ff499aa9bf83e306ff34103a5
:10109c008bf83e304ff4807640e60135cbf8585053
:1010ac00b8f80e30abf86e30abf86430404622f036
:1010bc00b1f8abf86a0058462df0c1ff012212219d
:1010cc00584604f0dffd02238bf87630002625e627
:1010dc0014f0020fe1d1002620e60221e1e61221f4
:1010ec00dfe61021dde61121dbe61021d9e6112126
:1010fc00d7e630f09dfc236bc01a0028bff67eaefd
:08110c0010266de608330120f6
:020000040000fa
:101114002de9f04f2ded028b9bb00f21212030f0f3
:10112400ebfb002800f007877d4b1b68002b40f386
:1011340002877c4c0026dff820929fed7b8ab9e37e
:10114400d4f8c4305d6894f8d1202ab3227c012af3
:1011540042d0022a61d1b4f93830b3f1ff3f25d02f
:101164000023724a4ff40071b4f938002ff009ffdc
:10117400d4f8bc200221b4f938001bf06dff30b95b
:10118400d4f8c4301b681b6869492846984706216f
:1011940020462bf055fd86e31b681b6865492846ed
:1011a4009847012120462bf04bfd7ce304f180029b
:1011b400618a012023f064fd2087b0f1ff3fcfd185
:1011c400d4f8c4301b681b685b4928469847012142
:1011d40020462bf035fd66e304f18002618a01208c
:1011e40033f0f9f8a087b0f1ff3f0ad00023534a47
:1011f4004ff4807130f096f8032120462bf020fd47
:1012040051e3d4f8c4301b681b684d4928469847fd
:10121400012120462bf014fd45e31b681b68494956
:1012240028469847012120462bf00afd3be3d4f8d9
:10123400c430d3f804b03b4be31adb1003ebc30216
:1012440003eb4203c3eb432303eb8343c3f1000ae1
:1012540097e0d4f8c4301b681b683b49584698474c
:10126400042120462bf0ecfc1de3b4f93c0030f0e3
:10127400c4ff18e30133c4f89430284630f0ceff9d
:1012840002460b46d4e9080111f045f8c4e9080107
:10129400002f19dba36ae26a511c8b4231d09342be
:1012a40020dc616b01f1010161632cd020e0d4f8f2
:1012b400c4301b685b68254958469847236b013b3b
:1012c400a26a1344236391e07f42a76230f0b4fb27
:1012d400c4f88c00002384f8cc30042120462bf081
:1012e400affcd7e75b1a226b13442363a36ae36260
:1012f4000c3dadb2002d44d0dff858804ff4c867e0
:1013040036e0934206d1d4f8c4301b681b681049f8
:1013140058469847a36ae26a9342e9dde7e700bfcb
:10132400e83201206826012000007a4413380300c3
:1013340084bf00003cbf000060bf0000fd37030015
:10134400acbf0000d0bf0000e8bf000008c0000030
:1013540034c0000018f000200c3001203a46414609
:10136400b4f93c001ff058f9a5f5c865adb245b114
:10137400b5f5c86ff2d22a46d149b4f93c001ff042
:101384004bf9b4f93c0030f007fb05460b2878d93b
:101394000c224946b4f93c001ff03ef90c287ff4b6
:1013a40058afd9f800301f0e47ea03671a0202f457
:1013b4007f0217431b0a03f47f431f43a762d4f839
:1013c4009430002b7ff456af002ffff64eaf01236d
:1013d400c4f89430d4f8c4301b685b685246b949e9
:1013e40058469847a26a002a7ff461afa36ae36271
:1013f40005a9b4f93c001df019ffb4f93c0032f022
:1014040025fd31f037fa069dd4f8c4301b68628a92
:101414000292020e0192c0f3074200925f68c0f389
:101424000723c2b2a8495846b847d4f8c4301b6849
:10143400bdf8582002922a0e0192c5f30742009289
:101444005f68c5f30723eab2a0495846b847656404
:10145400bdf85830a4f8643030f0eefac4f88800cf
:10146400c4f8a800a36ac4f89c30d4f89430c4f833
:101474009830236bc4f8a030b4f93c0030f0bdfec2
:101484007fe7d4f894304bb994f8cf30012b40f077
:101494000a82042120462bf0d3fb04e230f0ccfa7c
:1014a400d4f8a830c31a22689342edd9d4f8942012
:1014b400d4f898309a4212d1d4f8c4301b681b680f
:1014c40083495846984730f0b7fac4f88c00002393
:1014d40084f8cc30042120462bf0b2fbd4e7002161
:1014e40020460ff0d7fdcfe7b4f93c0030f054fab2
:1014f40038b994f8cf304bb1092120462bf0a0fb2a
:10150400d1e1b4f93c0030f078fecce1052120466d
:101514002bf096fbc7e194f8cd30002b00f0bd8092
:10152400b4f93c0030f038fa002840f0be8094f85a
:10153400cc305a1c84f8cc200a2b00f2bb808021ca
:10154400b4f93c0032f0ccff002800f0ac81e36a2f
:101554005b421a0e42ea0362190201f47f010a4354
:101564001b0a03f47f431343c9f800300025c9f86c
:101574000450c9f808508023c9f80c30c9f8105039
:10158400d4e9080130f07cfd020e42ea0062030255
:1015940003f47f031a43030a03f47f431343c9f894
:1015a400143030f05dfad4f88c10d4f88830c91aad
:1015b400b1fbf0f31a0e42ea03621f0207f47f073d
:1015c4003a431f0a07f47f473a43c9f8182000fb3f
:1015d400131307ee103ab8ee477a27ee087a07eeaf
:1015e400900af8ee676ac7ee267a67ee887afcee10
:1015f400e77a17ee903a1a0e42ea0362190201f4ee
:101604007f010a431b0a03f47f431343c9f81c30c8
:10161400236b1a0e42ea0362190201f47f010a43a2
:101624001b0a03f47f431343c9f82030636b1a0e7b
:1016340042ea0362190201f47f010a431b0a03f41c
:101644007f431343c9f82430e36a1a0e42ea036263
:10165400190201f47f010a431b0a03f47f43134375
:10166400c9f82830c9f82c50c9f8305034224946fa
:10167400b4f93c002cf0aafa4c273a46294605a8ae
:1016840032f0e4fa3a4605a9b4f93c002cf09efa8b
:10169400b4f93c0010f01efd05e1022120460ff0d4
:1016a400f9fc012384f8cd303ae7b4f93c0030f07a
:1016b400a4fdf8e0092120462bf0c2faf3e000bfb4
:1016c40018f000206cc0000070dc0100a4dc0100f4
:1016d40054c0000094f8cf30012b26d0b4f9380060
:1016e40030f0d1fa002800f0de803822002105a86d
:1016f40032f0acfa05a9b4f9380027f0c4fc04f1bf
:10170400400705ad0fcd0fc70fcd0fc70fcd0fc7c6
:1017140095e8030087e80300072120462bf090faa0
:10172400b4f938002ff002ffbde0092120462bf068
:1017340087fab8e0d4f8c4305f68b4f9380032f0fe
:10174400eefa0546002865d0a36a002b49d1bd4bab
:10175400e31adb1003ebc30203eb4203c3eb4323a3
:1017640003eb8343d4f8c4201268d2f804805a42ad
:10177400b5493846c04730f05ff9c4f88800c4f86a
:10178400a800a36ac4f89c30b4f9380032f03efbd8
:1017940031f070f8d4f8c4301b68628a0292020ee9
:1017a4000192c0f307420092d3f80480c0f30723e8
:1017b400c2b2a6493846c047d4f8c4301b68b4f84e
:1017c4006420029294f84720019294f846200092f3
:1017d400d3f8048094f8453094f844209c49384662
:1017e400c047a36a0133a362d4f894200132c4f839
:1017f4009420e362284630f011fd02460b46d4e9fa
:10180400080110f088fdc4e90801dff848824ff4ac
:10181400c8671ce0b4f938002ff088fe20b9b4f989
:10182400380031f0ffffd8b130f006f9c4f88c006d
:10183400082120462bf004fa35e03a464146b4f933
:1018440038001ff0c9fea5f5c865adb245b1b5f5c0
:10185400c86ff2d22a467f49b4f938001ff0bcfea3
:10186400a36a63b994f8cf30012b1cd10821204618
:101874002bf0e6f930f0e0f8c4f88c0013e030f017
:10188400dbf8d4f8a830c31a22689342ead90021bd
:1018940020460ff0fffbe5e794f8cd30c3b30921f0
:1018a40020462bf0cdf90136d8346b4b1b68b3427c
:1018b40040f3418394f8ce30012bf4d0023b102b3b
:1018c40000f2348301a252f823f000bf4511000056
:1018d40033120000ed1400001b150000d91600009f
:1018e400391700009d18000025190000c1190000d7
:1018f400ed1900002f1c0000151d00001b1e000028
:101904000b1f0000ed1a00007b1e0000211f0000c9
:10191400022120460ff0befb012384f8cd30bee740
:10192400d4f8c4305f68237c012b29d0022b2cd03f
:10193400444be31adb1003ebc30203eb4203c3eb98
:10194400432303eb83435d42d4f8c4301b685b68d4
:101954002a4642493846984720462bf097ff94f888
:10196400d130012b19d0d4f8c4301b685b682a46e7
:101974003b4938469847012120462bf061f992e70c
:10198400b4f93c002cf042fbd2e7b4f938002df056
:10199400a9fc4ff6ff732387cae794f8cf30002bd6
:1019a400e1d1d4f8c4301b685b682a462d49384617
:1019b4009847022120462bf043f974e7d4f8c80075
:1019c40031f0b3fb032808d10b2120462bf038f962
:1019d40030f032f8c4f8ac0065e704f14401d4f8ff
:1019e400c8002cf09cfcefe7d4f8c4305d6894f890
:1019f400cf20012a17d0d4f8c80031f096fb032871
:101a04001bd094f8443003f0f003e02b2ed1237c58
:101a1400012b64d0237c022b7ff445af0c2120469c
:101a24002bf00ef93fe71b681b680f4928469847bf
:101a3400012120462bf004f935e70022a267a4f81f
:101a44007c20e4e7682601206cc0000070dc010003
:101a5400a4dc010018f00020e832012098c0000046
:101a6400fcc00000c8c000001cc1000004f17802e2
:101a740004f14401d4f8c80024f0e0ffb8b1d4f86c
:101a8400c4301b6894f87d20039294f87c20029261
:101a940094f87b20019294f87a2000925f6894f87d
:101aa400793094f87820c0492846b847afe72ff03a
:101ab400c3ffd4f8ac30c71a2ff0d2ff00eb80007c
:101ac40087427ff6f0aed4f8c4301b681b68b74970
:101ad400284698472ff0b0ffc4f8ac00e3e6102185
:101ae40020462bf0adf895e7d4f8c4305d6804f1d6
:101af4004402618a012032f073fca087b0f1ff3ff9
:101b040000f087800023aa4a4ff480712ff00afc6a
:101b1400e2680521b4f93c0009f00efb30b9d4f8b1
:101b2400c4301b681b68a349284698470222062133
:101b3400b4f93c0009f000fb30b9d4f8c4301b6898
:101b44001b689d4928469847d4f8c810b4f93c004e
:101b540029f0d0fc05a9b4f93c001df067fbbdf8e1
:101b64005a30a4f87e30d4f8c4301b681b689349fb
:101b740028469847d4f8c4301b68628a029294f8c5
:101b84004720019294f8462000925f6894f845300b
:101b940094f844208a492846b847112120462bf05e
:101ba4004ff82ff049ffc4f888002ff0b5f8054628
:101bb4000f4632f0c7fa79016b0141ead5625b1b2b
:101bc40062eb0702510241ead3514fea432c0a4621
:101bd4001ceb050347eb0202910141ea93614fead2
:101be400831cbceb030c61eb0201024600231cebdb
:101bf400050047eb01012ff04ff9d4f88430184465
:101c0400c4f890004ff4c86255216e4832f01ef8b3
:101c140049e6d4f8c4301b681b686b4928469847ca
:101c2400012120462bf00cf83de6d4f8c4305d6861
:101c34000022618a012031f037fa6087b0f1ff3f5a
:101c440051d00023614a4ff400712ff09af9d4f86f
:101c54008030002b53d104f1440300220121b4f954
:101c64003a002bf0b9f94ff48063a4f87e30d4f82d
:101c7400c4301b681b68514928469847d4f8c430bf
:101c84001b68628a029294f84720019294f84620d5
:101c940000925f6894f8453094f844204c492846f3
:101ca400b8470d2120462af0cbffd4f8b8200321f1
:101cb400b4f93a001bf0d0f930b9d4f8c4301b6839
:101cc4001b683c4928469847b4f93a002ff042f97a
:101cd4002ff0b2fec4f8ac004ff4c8625421394866
:101ce40031f0b4ffdfe5d4f8c4301b681b68394910
:101cf40028469847012120462af0a2ffd3e504f1a3
:101d04008003628a0121b4f93a0020f029f9a2e79c
:101d140094f8cf30012b42d0d4f8c4305f68b4f9c2
:101d24003a002ff0b0ff002856d0b4f93a002ff053
:101d3400fdfb2ff081fec4f888002ef0edff054670
:101d44000f4632f0fff979016b0141ead5625b1b62
:101d540062eb0702510241ead3514fea432c0a468f
:101d64001ceb050347eb0202910141ea93614fea40
:101d7400831cbceb030c61eb0201024600231ceb49
:101d8400050047eb01012ff087f8d4f8843018449c
:101d9400c4f890000e2120462af052ff83e50f215b
:101da40020462af04dff7ee57cc100003cc10000c6
:101db400fd370300a8c10000d0c10000a83701000e
:101dc400f8c1000018f00020acbf00001338030075
:101dd40030c2000060bf00002ff02efed4f8ac30fb
:101de400c51a2ff03dfe00eb800085427ff65bad07
:101df400b4f93a002df076fa4ff6ff736387d4f8fe
:101e0400c4301b681b684e49384698470f2120464a
:101e14002af016ff47e5204607f012fa01280bd0f6
:101e240002287ff440ad0f2120462af009ff2ff04d
:101e340003fec4f88c0036e5424f00bfb4f8b0503e
:101e44008db1b5f5c86f28bf4ff4c8652a46394629
:101e5400b4f93a0016f0bafdb4f8b0301b1aa4f87d
:101e6400b0308542ead9b4f93a002ff01fff20467a
:101e740013f042fb17e5227d0b21b4f93c0009f075
:101e84005bf9204607f0dcf901280bd002287ff427
:101e94000aad122120462af0d3fe2ff0cdfdc4f85e
:101ea4008c0000e5b4f8b05015b30027dff894a017
:101eb400a846b5f5c86f28bf4ff4c86842465146d6
:101ec400b4f93c002bf082fe0744bfb22d1aadb228
:101ed400804501d1002debd1b4f93c0010f0faf8a3
:101ee40040b900221146b4f93c002df0eaf8dae4d6
:101ef4002f46f1e7b4f8b030df1ba4f8b0702046e9
:101f040013f0fafacfe4204627f09efdb4f93a0024
:101f14002df0e8f94ff6ff736387c4e4204627f0f9
:101f240093fdb4f93c002cf071f8bce40121204687
:101f34002af086feb7e41bb0bdec028bbde8f08f3f
:081f440068c2000018f0002043
:020000040000fa
:101f4c00383101201c00000000000000ac8c002087
:101f5c000400000000000000a42b0120040000007d
:101f6c0000000000542f01200400000000000000bd
:101f7c00043501200100000000000000b4300120f5
:101f8c000400000000000000d8310120080000000f
:101f9c0000000000373101200100000000000000ab
:101fac00b13101200100000000000000f5340120d7
:101fbc000100000000000000c431012004000000fa
:101fcc0000000000f63401200100000000000000b9
:101fdc00643201200400000000000000982f012052
:101fec003c0000000000000000000020e45e000047
:101ffc0000000000983201201c00000000000000ce
:10200c0038be0020100a000000000000f734012048
:10201c0001000000000000006832012008000000f0
:10202c0000000000b43201200c0000000000000091
:10203c001c2d01206c000000000000000035012068
:10204c00010000000000000010350120d400000049
:10205c0001000000fcbf02000000000000000000b6
:10206c000000000000000000000000000000000064
:10207c000000000000000000000000000000000054
:10208c000000000000000000000000000000000044
:10209c000000000000000000000000000000000034
:1020ac000000000000000000000000000000000024
:1020bc000000000000000000000000000000000014
:1020cc000000000000000000000000000000000004
:1020dc0000000000000000000000000000000000f4
:1020ec0000000000000000000000000000000000e4
:1020fc0000000000000000000000000000000000d4
:10210c0000000000000000000000000000000000c3
:10211c0000000000000000000000000000000000b3
:10212c000000000000000000b23601200100000099
:10213c0001000000ff000000c0320120040000007c
:10214c0000000000a82b012080000000000000000f
:10215c00d02e01204400000000000000f9340120c2
:10216c000100000000000000c43201200400000047
:10217c0000000000b431012010000000000000003d
:10218c00542401200c01000000000000c832012082
:10219c000400000000000000c83101201000000005
:1021ac0000000000cc320120040000000000000000
:1021bc00e82d01205000000000000000b08c002031
:1021cc007824000000000000fc3401200100000015
:1021dc0000000000d03201200400000000000000cc
:1021ec00b0280120a400000000000000a82c012051
:1021fc007400000000000000e0310120100000001d
:10220c00000000006c3001202800000000000000dd
:10221c00f42901209000000000000000f834012097
:10222c000100000000000000d43201200400000076
:10223c00000000009430012020000000000000008d
:10224c00f434012001000000000000007836012069
:10225c000c00000001000000f4010000d007000099
:10226c00010000002c3601202600000001000000b7
:10227c000800080002000100020008000006000629
:10228c000101540030303a30343a32353a30313a78
:10229c0030323a3031000000543601201200000078
:1022ac000100000030303a30343a32353a30313aad
:1022bc0030323a3034000000683601201000000043
:1022cc000100000001010000e1b90200c1e80200b8
:1022dc0000000100a83601200200000001000000ef
:1022ec0000010000882e01204800000000000000c2
:1022fc00843601200600000001000000fffffffff4
:10230c00ffff000010320120180000000000000048
:10231c00842a01209000000000000000d832012027
:10232c000c0000000000000068260120d80000000e
:10233c00000000000c300120340000000000000000
:10234c00e43201200400000000000000fa340120f7
:10235c000100000000000000e83201200400000031
:10236c000000000018f000204006000000000000f3
:10237c00ec3201200c00000000000000283201208b
:10238c000c00000000000000f031012010000000e3
:10239c0000000000fb3401200100000000000000e0
:1023ac00623201200200000000000000b231012066
:1023bc000200000000000000f832012004000000c0
:1023cc00000000000032012010000000000000009e
:1023dc00fc3201201000000000000000d03401206d
:1023ec0004000000000000000c3301200c00000071
:1023fc0000000000fd34012001000000000000007e
:10240c00183301200400000000000000703101208e
:10241c0018000000000000001c3301200c0000001c
:10242c0000000000d4340120020000000000000075
:10243c0028330120040000000000000048e80020c0
:10244c00d0070000000000002c3301201000000019
:10245c0000000000d6340120020000000000000043
:10246c003c3301200800000000000000a0310120d6
:10247c001100000000000000183101201f000000b6
:10248c0000000000443301200400000000000000a4
:10249c00d834012002000000000000004833012065
:1024ac001000000000000000da34012002000000df
:1024bc00000000005833012008000000000000005c
:1024cc00dc34012002000000000000006033012019
:1024dc001000000000000000fe340120010000008c
:1024ec00000000008c3601200400000001000000f8
:1024fc0064000000e4350120280000000100000009
:10250c00bb010300d10101004b02010033020300a7
:10251c007c020300dd030300de030300e003030081
:10252c00e1030100b322010070330120040000001c
:10253c0000000000d42f0120380000000000000033
:10254c00743301201000000000000000142b012047
:10255c009000000000000000081301208002000021
:10256c00000000008433012028000000000000005f
:10257c00343201200c0000000000000088310120e2
:10258c001800000000000000543101201c00000065
:10259c0000000000ac33012004000000000000002b
:1025ac00ff3401200100000000000000b0330120c6
:1025bc000400000000000000903601200400000020
:1025cc0001000000ffffffffb43301200c000000ee
:1025dc0000000000583201200a000000000000003a
:1025ec00c03301201c00000000000000de3401207c
:1025fc000200000000000000dc3301200800000095
:10260c000000000001350120010000000000000066
:10261c00781c01203402000000000000ac210120d5
:10262c006801000000000000b830012060000000cc
:10263c000000000002350120010000000000000035
:10264c00403001202c0000000000000048c8002091
:10265c000010000000000000142f012040000000ba
:10266c00000000007032012010000000000000008b
:10267c00e4330120040000000000000003350120b9
:10268c00010000000000000048d8002000080000f5
:10269c0000000000e83301200800000000000000ea
:1026ac00ac1e01208001000000000000403201201f
:1026bc000c0000000000000048e0002000080000b2
:1026cc0000000000053501200200000000000000a1
:1026dc00803201200800000000000000f0330120cf
:1026ec001000000000000000073501200100000070
:1026fc00000000006025012008010000000000001f
:10270c00003401200800000000000000582f0120b8
:10271c00400000000000000054290120a00000002f
:10272c00000000000e350120020000000100000036
:10273c0001000000882d0120600000000000000056
:10274c0028b10020100d000000000000083401200a
:10275c000400000000000000e45e0020c82d000012
:10276c0000000000083501200100000000000000fe
:10277c0000280120b0000000000000000c340120f3
:10278c000800000000000000381a01204002000080
:10279c0000000000143401200800000000000000bc
:1027ac001423012040010000000000000935012025
:1027bc00020000000000000040270120c0000000c3
:1027cc00000000001c340120080000000000000084
:1027dc00e03401200200000000000000d8070120b6
:1027ec008805000000000000e23401200200000017
:1027fc000000000098fc0020a00500000000000074
:10280c00e434012002000000000000003802012026
:10281c00a0050000000000000b35012002000000a4
:10282c0000000000243401200c0000000000000017
:10283c00e634012002000000000000009436012064
:10284c00040000000100000096000000b3360120d7
:10285c0002000000010000000603000052360120b7
:10286c000200000001000000010000009836012069
:10287c000400000001000000dc05000030340120e1
:10288c00080000000000000058f600204006000080
:10289c0000000000282c0120800000000000000037
:1028ac0066360120020000000100000030c000006c
:1028bc003834012010000000000000000d3501200c
:1028cc0001000000000000009c3601200400000004
:1028dc0001000000e00000018815012058020000f2
:1028ec000000000048340120080000000000000037
:1028fc00600d0120d402000000000000e83401202b
:10290c0002000000000000005034012024000000f0
:10291c0000000000a03601200400000001000000af
:10292c00090000008a3601200200000001000000ae
:10293c00ffff0000aa360120060000000100000085
:10294c00ffffff07ff070000743401201800000090
:10295c0000000000ea34012002000000000000002a
:10296c008c3401200c00000000000000ec3401202d
:10297c000200000000000000983401200800000054
:10298c0000000000ee3401200400000000000000f4
:10299c00a03401200400000000000000f2340120eb
:1029ac000200000000000000e017012058020000a7
:1029bc000000000034100120d402000000000000d0
:1029cc00a434012008000000000000002c2001208d
:1029dc008001000000000000ac3401200400000065
:1029ec0000000000883201200800000000000000f8
:1029fc00b03401200800000000000000b0360120b7
:102a0c000200000001000000ffff0000b8340120ac
:102a1c000c00000000000000a4360120040000009f
:102a2c000100000001000000c4340120040000007b
:102a3c0000000000382e01205000000000000000b3
:102a4c00c834012004000000000000000c360120f6
:102a5c002000000001000000010000000300000045
:102a6c00000000000000000000000000000000005a
:102a7c00000000009032012090320120080000007c
:102a8c0000000000cc340120040000000000000015
:102a9c004c3201200c00000000000000000000007f
:102aac000000000066666666666666666666666652
:020000040000fa
:102abc0030b587b0044690f99030002b40f00f8170
:102acc000378012b04bf0023037090f8d430042b3f
:102adc0000f25784dfe813f005008b00d9002f01ba
:102aec003b0390f90830b3f1ff3f57d090f8fc202e
:102afc00012a22d051b229b1022a43d0ff2380f8f7
:102b0c009030dce003f01f01c3f34a1303f502001d
:102b1c0000f580700022012303fa01f1c00131f0ad
:102b2c00e9fa31f0f5fc2cf005fdc4f8dc0094f862
:102b3c00fc30013384f8fc30cfe031f0e9fc2cf0b0
:102b4c00f9fcd4f8dc30984200f0c78094f90830d6
:102b5c0003f01f0201219140c3f34a1303f5020055
:102b6c0000f580700a46c00131f0c4fa31f0d0fc97
:102b7c002cf0e0fcc4f8dc0094f8fc30013384f851
:102b8c00fc30aae031f0c4fc2cf0d4fcd4f8dc30de
:102b9c00c31a062b94bf002501258fe090f8fc305a
:102bac002bb1012b16d0ff2380f8903087e0002347
:102bbc000193b44a009201220321d0f8ec002ff0cb
:102bcc005bfc002800f0898094f8fc30013384f819
:102bdc00fc3082e000230193aa4b009301231a4698
:102bec000321d0f8ec002ff047fc054666e0d0f846
:102bfc00ec0094f8fc30042b43d8dfe813f005000c
:102c0c00c6031300c6033300002200929e4b012121
:102c1c002ff02eff002860d094f8fc30013384f89c
:102c2c00fc305ae0d4f8e4309a0ac3f30913b2f535
:102c3c00f87f01d11b2b07d09449002026f0aeff62
:102c4c00ff2384f890303ae0002200928e4b90499a
:102c5c002ff00eff002840d094f8fc30013384f89c
:102c6c00fc303ae0d4f8e43003f00f0384f8fe3083
:102c7c002bbb8849002026f091ffff2384f890306d
:102c8c001de0ff2384f8903027e090f8fc10c1f190
:102c9c00220200230093804b92b2804800eb01117a
:102cac00d4f8ec0021f0d6f994f8fc500544edb2c0
:102cbc0084f8fc50222d14bf002501256db1002392
:102ccc0084f8fc3094f8d4300133dbb284f8d4307f
:102cdc00052b04bf022384f890300123237094f950
:102cec009030022b00f0538394f90750c5f34a102f
:102cfc0000f5020000f58070c00131f077fc05f0a2
:102d0c001f0520fa05f515f0010f40f076832378a6
:102d1c00012b04bf002323700021d4f8ec0009f030
:102d2c00b1fa0123237094f80431002b00f0768360
:102d3c000023237068e3d0f8ec0094f8fc302f2bc0
:102d4c0000f2fe81dfe813f030003000300030007c
:102d5c003000fc01fc01fc01fc01fc014a004a00b2
:102d6c004a004a004a00fc01fc01fc01fc01fc0188
:102d7c0070007000700070007000fc01fc01fc0120
:102d8c00fc01fc018b000102b0000102c600010233
:102d9c00dc000102f2000102080130014d01710159
:102dac009601bb01db01f2010093402305aa05212a
:102dbc00204620f045fb054600283ff47faf059bdd
:102dcc0023b10a2384f8fc30002577e7344900202e
:102ddc0026f0e4feff2384f890306fe70a3bdbb269
:102dec0000931f2305aa0421204620f029fb054649
:102dfc0000283ff463af059b13f0100f18bf43f08e
:102e0c00e0035bb284f8f03013f1050f04db1423fc
:102e1c0084f8fc30002551e72149002026f0befe45
:102e2c00ff2384f8903049e7143bdbb200931f2357
:102e3c0005aa0821204620f003fb054600283ff494
:102e4c003daf059b13f0100f18bf43f0e0035bb2ce
:102e5c0084f8f1301e2384f8fc3000252ee7002383
:102e6c000093094b01220f492ff002fe0546002862
:102e7c003ff424af94f8fc30013384f8fc30002587
:102e8c001ce700bf2fbe0100f5110300b484020043
:102e9c0094000a00dc840200a9390300142e0100fe
:102eac00f484020084000400d4f8e430a4f8f23076
:102ebc0000230093bd4b0122bd492ff0d9fd0546df
:102ecc0000283ff4fbae94f8fc30013384f8fc305e
:102edc000025f3e6d4f8e430a4f8f4300023009392
:102eec00b24b0122b3492ff0c3fd054600283ff435
:102efc00e5ae94f8fc30013384f8fc300025dde6b7
:102f0c00d4f8e430a4f8f63000230093a74b012248
:102f1c00a9492ff0adfd054600283ff4cfae94f83b
:102f2c00fc30013384f8fc300025c7e6d4f8e430db
:102f3c00a4f8f830002300939c4b01229f492ff0fa
:102f4c0097fd054600283ff4b9ae94f8fc300133e8
:102f5c0084f8fc300025b1e6d4f8e430a4f8fa305b
:102f6c0094f9f0309bb203f1090291b203f10e0215
:102f7c0092b2120142ea8122b4f8f23003f00f034c
:102f8c001a43002301930093012392b28c492ff032
:102f9c0073fa054600283ff491ae94f8fc300133e7
:102fac0084f8fc30002589e694f9f13028339bb283
:102fbc00b4f8f420c2f3090242ea832200230193fd
:102fcc000093012392b27a492ff056fa0546002855
:102fdc003ff474ae94f8fc30013384f8fc300025d7
:102fec006ce694f9f0309bb25a1d91b2b4f8f6200d
:102ffc0022f47c5222f03f0242ea012212b292b237
:10300c0009331a43002301930093012392b26949b7
:10301c002ff032fa054600283ff450ae94f8fc30fd
:10302c00013384f8fc30002548e694f9f0309bb26b
:10303c0003f1090291b2b4f8f82022f47c5222f088
:10304c003f0242ea012212b292b20e331a4300231b
:10305c0001930093012392b257492ff00dfa0546c4
:10306c0000283ff42bae94f8fc30013384f8fc308c
:10307c00002523e694f9f0309bb203f1110291b2d2
:10308c00b4f8fa2022f47c5222f03f0242ea0122e8
:10309c0012b292b216331a43002301930093012308
:1030ac0092b246492ff0e8f9054600283ff406aee7
:1030bc0094f8fc30013384f8fc300025fee594f8dc
:1030cc00fe50002301930093012345f6217243f631
:1030dc0031719d4218bf0a463a492ff0cdf9054689
:1030ec0000283ff4ebad94f8fe30012b3ff4e6ad35
:1030fc0094f8fc30013384f8fc300025dee5002325
:10310c0002930193012300934ff440734ff48072a8
:10311c002d492ff008f8054600283ff4cfad94f860
:10312c00fc30013384f8fc300025c7e50023019303
:10313c00009301237d2225492ff09ef90546bde51c
:10314c00ff2384f890300025b8e50025b6e5d0f8cb
:10315c00ec0094f8fc30092b00f20f81dfe813f03f
:10316c000a003c005100630076009500ac00cb00d7
:10317c00e4000101637e1bb9042384f8fc30ace548
:10318c00a17d627d00230193114b0093012342ea40
:10319c00012210492ff070f900283ff49ead94f8ed
:1031ac00fc30013384f8fc3097e500bff5110300c7
:1031bc008a000400ad000400ae000400af0004005f
:1031cc0084000400d000040088000a0039020a00c0
:1031dc00a939030002ca0400e17d227e0023019379
:1031ec008f4b0093012342ea01228e492ff044f9c0
:1031fc0000283ff472ad94f8fc30013384f8fc30b5
:10320c006be500230193864b0093012383228649af
:10321c002ff032f900283ff460ad94f8fc30013304
:10322c0084f8fc3059e5002301937d4b0093012376
:10323c004ff400427d492ff01ff900283ff44dadab
:10324c0094f8fc30013384f8fc3046e594f8953062
:10325c0094f89420120442ea036294f892301a43d0
:10326c0094f89310002301936d4b0093012342ead1
:10327c0001226f492ff000f900283ff42ead94f88d
:10328c00fc30013384f8fc3027e594f8971094f85f
:10329c00962000230193624b0093012342ea012202
:1032ac0064492ff0e9f800283ff417ad94f8fc308e
:1032bc00013384f8fc3010e594f8973094f896209c
:1032cc00120442ea036294f894301a4394f895106d
:1032dc0000230193524b0093012342ea01225649e9
:1032ec002ff0caf800283ff4f8ac94f8fc30013306
:1032fc0084f8fc30f1e4a37e002b4ff00003019323
:10330c00474b00934ff0010314bf102200224ff0e3
:10331c0001112ff0b1f800283ff4dfac94f8fc3029
:10332c00013384f8fc30d8e4e17e49f2e60249f23c
:10333c00e623002918bf1a46237f0bb142f4807292
:10334c0000230193364b0093012304212ff094f8b2
:10335c0000283ff4c2ac94f8fc30013384f8fc3004
:10336c00bbe400230193354b009301230c224ff453
:10337c0080312ff081f80546a0e4ff2384f89030cb
:10338c009de4ff2380f89030a7e4002596e4637e4b
:10339c00b3b9d4f8e830002b3ff4a6ac31f0b8f850
:1033ac002cf0c8f8d4f8e830c01a04287ff69cac8e
:1033bc000023c4f8e830d4f8ec0030f0e5ff93e4d7
:1033cc0031f0a6f82cf0b6f8d4f8e030c31ab3f507
:1033dc007a7fded3c4f8e0002378012b04bf0023ee
:1033ec00237000230093164b01221649d4f8ec00ed
:1033fc002ff03efb01232370cbe794f804316bb123
:10340c002378012b3ff494ac002384f80431012180
:10341c00d4f8ec0008f036ff0123237007b030bd60
:10342c00a939030005ca04008700040001ca04007e
:10343c00240001002500010022000100b13303002b
:08344c00ef20030003ca040095
:020000040000fa
:103454005478204279746520436f756e742d6c6fb7
:10346400776572203332626974732854784f544cf0
:103474004f290000c9410300547820427974652023
:10348400436f756e742d7570706572203136626984
:1034940074732854784f544849290000d3410300d9
:1034a4005478204672616d657320772f6f206572a2
:1034b400726f722854784654434e54290000000019
:1034c40000000000dd41030054782042726f616403
:1034d40063617374204672616d6573285478424346
:1034e400465429000000000000000000e7410300ea
:1034f4005478204d756c74696361737420467261ed
:103504006d65732854784d4654290000000000006e
:1035140000000000f1410300547820506175736588
:10352400204672616d657328547850465429000012
:10353400000000000000000000000000fb41030048
:1035440054782036342d62797465204672616d6535
:103554007328547842465436342900000000000091
:10356400000000000542030054782036352d313226
:10357400372062797465204672616d657328544200
:103584004654313237290000000000000f42030086
:103594005478203132382d323535206279746520e3
:1035a4004672616d6573285442465432353529009c
:1035b40000000000194203005478203235362d35be
:1035c40031312062797465204672616d65732854c7
:1035d40042465435313129000000000023420300e3
:1035e4005478203531322d3130323320627974658c
:1035f400204672616d65732854424654313032332b
:10360400290000002d420300547820313032342d3b
:10361400313531382062797465204672616d657385
:1036240028544246543135313829000037420300ca
:103634005478204672616d6573203e3d20313531ea
:103644003820627974652847544246313531382927
:103654000000000041420300547820556e646572f6
:1036640072756e204672616d6573206e6f7420549e
:103674005865642854785455522900004b4203007d
:1036840054782053696e676c6520436f6c6c697362
:10369400696f6e204672616d657328547853434692
:1036a4002900000055420300547820322d31352082
:1036b400436f6c6c6973696f6e204672616d6573dc
:1036c4002854784d43462900000000005f4203005f
:1036d400547820313620436f6c6c6973696f6e20a7
:1036e4004672616d65732854784543434e542900ee
:1036f40000000000694203005478206c6174652066
:10370400436f6c6c6973696f6e204672616d65738b
:103714002854784c43434e5429000000734203005c
:103724005478204465666572726564204672616de2
:1037340065732854784454462900000000000000b2
:10374400000000007d4203005478204361727269d6
:1037540065722053656e7365206572726f722046c0
:1037640072616d6573285478435345298742030079
:103774005278204279746520436f756e742d6c6f96
:10378400776572203332626974732852784f524cd1
:103794004f29000091420300527820427974652039
:1037a400436f756e742d7570706572203136626961
:1037b40074732852784f5248492900009b420300f1
:1037c4005278204672616d657320772f6f20657281
:1037d400726f722852784652434e542900000000fa
:1037e40000000000a542030052782042726f616419
:1037f40063617374204672616d6573285278424325
:10380400465229000000000000000000af420300ff
:103814005278204d756c74696361737420467261cb
:103824006d6573202852784d46522900000000002f
:1038340000000000b942030052782050617573659e
:10384400204672616d6573285278504652290000f3
:10385400000000000000000000000000c34203005c
:1038640052782036342d62797465204672616d6514
:103874007328527842465236342900000000000072
:1038840000000000cd42030052782036352d31323d
:10389400372062797465204672616d6573285442dd
:1038a400465231323729000000000000d74203009d
:1038b4005278203132382d323535206279746520c2
:1038c4004672616d6573285442465232353529007b
:1038d40000000000e14203005278203235362d35d5
:1038e40031312062797465204672616d65732854a4
:1038f400424652353131290000000000eb420300fa
:103904005278203531322d3130323320627974656a
:10391400204672616d657328544246523130323309
:1039240029000000f5420300527820313032342d52
:10393400313531382062797465204672616d657362
:10394400285442465231353138290000ff420300e1
:103954005278204672616d6573203e3d20313531c9
:103964003920627974657328544d584246522900af
:1039740000000000094303005278204672616d651f
:1039840073203c203634206279746573285278554c
:103994004652290000000000000000001343030009
:1039a4005278204672616d6573203e20313531387e
:1039b4002062797465732852784f465229000000ba
:1039c400000000001d4303005278206572726f727c
:1039d400204672616d6573203e2031353138206296
:1039e400797465732852784a5229000027430300ea
:1039f400527820435243206572726f72204672617e
:103a04006d65732852784643534529000000000031
:103a140000000000314303005278204c656e677447
:103a240068206669656c64206572726f72204672e4
:103a3400616d65732852784c464645293b43030023
:103a440052782073796d626f6c206572726f722088
:103a54004672616d657328527852534529000000ff
:103a64000000000045430300527820616c69676ed2
:103a74006d656e74206572726f72204672616d6539
:103a84007328527841452900000000004f43030089
:103a94005278205265736f75726365204572726f38
:103aa400722028527852524529000000000000007c
:103ab40000000000594303005278206f766572724b
:103ac400756e206572726f72204672616d6573281f
:103ad4005278524f45290000000000006343030060
:103ae40052782049504864722043686b73756d2086
:103af4006572726f72204672616d657328527849df
:103b0400484345296d4303005278205443502043d1
:103b1400686b73756d206572726f72204672616d89
:103b24006573285278544345290000007743030005
:103b34005278205544502043686b73756d2065722c
:103b4400726f72204672616d6573285278554345d1
:083b5400290000008143030079
:020000040000fa
:043b5c00012070478d
:020000040000fa
:103b60002de9f04fadf20c5d012973dc4ff0140b21
:103b7000bbf5fa7f28bf4ff4fa7b2df059fc0028e3
:103b800074d04ff47a7030f09bf9012030f0eefae7
:103b9000b749002026f008f84ff40c720021b6a8af
:103ba00030f056f8b6a810f059f9002840f094808b
:103bb0000df5367adae97689aba3d3e900234046de
:103bc00049462df06bf906460f46c7aaa9490020c1
:103bd00025f0eaff0df2da22a749002025f0e4ffe4
:103be0000df22442a549002025f0deffa44a40f250
:103bf0004633404649462df051f9804689463c22dd
:103c00000023304639462df049f9cde902234ff41f
:103c100061620023304639462df040f910461946be
:103c20003c2200232df03af9cde9000142464b46f3
:103c30009449002025f0b8ffdae974679249002022
:103c400025f0b2ff56ea070314d04ff0010c4ff0f5
:103c500000081ae013460a220021586830f020f8c4
:103c60008346002884d14ff0010b86e7874925f071
:103c70009bffb2e28649002025f096ff30e000bfae
:103c800008f10108b8f1090f1fd0c8f12000a8f110
:103c9000200126fa08f307fa00f0034327fa01f19e
:103ca0000b4303f00104002554ea0503e8d0794be7
:103cb00053f828307849794aac4518bf0a46784904
:103cc000284625f071ffac46dae7c6f34122754974
:103cd000002025f069ff03e07349002025f064ff10
:103ce0007249002025f060ff38220021a8a82ff09b
:103cf000afffa8a816f02cfd0246002840f08f80e8
:103d0000ae9caf9d9df8c032012b13d0684a694923
:103d1000022b18bf0a466849002025f045ff9df890
:103d2000d1324bb1012b3bd0644a6249022b18bf00
:103d30000a4602e0624aeee7624a6349002025f043
:103d400033ff9df8d2226149002025f02dffe3b218
:103d50000393c4f307230293c4f307430193240e90
:103d60000094ebb2c5f307225949002025f01cff4f
:103d7000a89ad3b20193c2f307230093c2f3074377
:103d8000120e5449002025f00fff9df8d0324bb1a0
:103d9000012b42d0504a4749022b18bf0a4602e085
:103da0004e4acae74e4a4f49002025f0fdfe4e49d3
:103db000002025f0f9fe4822002196a82ff048ffa8
:103dc00096a81cf077fd024670b3032847d04749f8
:103dd000002025f0e9fe5a464549002025f0e4fe82
:103de00030f0b2f90990002030f0c0f94ff4c870fb
:103df00030f066f8bbf1000f00f0f38100230024df
:103e0000cde906344ff0ff314ff0ff32cde9041217
:103e10001e46a246a146a046abe0364ac3e7364955
:103e2000002025f0c1fec2e7bdf858220df25a214c
:103e3000324827f0cdfabdf86a229ba9304827f016
:103e4000c7fabdf87c220df27e212e4827f0c0fa79
:103e5000bdf88e22a4a92c4827f0bafabbe72b495b
:103e6000002025f0a1feb6e700ca9a3b0000000042
:103e7000306300006063000078630000906300001e
:103e800000a0b830a8630000d0630000fc6200000e
:103e9000e463000060200300dc0d030064620000a6
:103ea000f863000000640000186400003064000043
:103eb0006c620000746200006464000078620000bc
:103ec000686200008c6200007c6400009464000062
:103ed000ac640000e0640000a06200004c810000bf
:103ee000ac6200000065000018650000c0650000bd
:103ef000e8650000b86200000c8500004c65000019
:103f00005865000064650000706500007c65000075
:103f10002cf004ff401b61eb07014d01430145ea12
:103f2000d0621b1a62eb0102550245ead3555f02cb
:103f30002a463b1841eb0202950145ea93659f0131
:103f4000ff1a65eb0205099a0023381845eb0101b9
:103f50002cf0a4ff21e009f1010901345b4622465f
:103f6000aa49002025f020fe0a202df0b7fd5c456f
:103f700029d02cf0d3fe05460f464ff40c720021d9
:103f80000aa82ff065fe0aa80ff068ff0028e2d10a
:103f9000099b002bbcd10020002108f10108361834
:103fa0004aeb010adde90423994208bf904238bf79
:103fb000cde90401dde906238b4208bf8242ccd261
:103fc000cde90601c9e7642404fb09f4b4fbfbf462
:103fd0000194cdf8009043465a468d49002025f0c3
:103fe000e3fdb8f1000f28d19df8c032022b69d152
:103ff000884a8949002025f0d7fd8849002025f00e
:10400000d3fd30f0a1f88246854bd3f800b0854b44
:10401000d3f800902cf082fe04900691002030f03e
:10402000a5f84ff4c8702ff04bff002425464ff43d
:104030000c777d4edff8148256e0002542462b4671
:10404000304651462cf02aff06460f464ff47a724e
:104050000023dde9049a484651462cf01fff9046a4
:104060004ff47a720023484651462cf017ff8146e0
:104070004ff47a720023dde906ab504659462cf026
:104080000dff03924ff47a720023504659462cf0ec
:1040900005ff02904ff47a720023304639462cf027
:1040a000fdfe01924ff47a720023304639462cf01f
:1040b000f5fe009043464a465c49284625f074fdcb
:1040c00092e75c465a4a5b4b022c98bf1a4690e72f
:1040d000a6fb0423db0803eb8303a4eb4303092bb8
:1040e0000ed001341e2c12d03a4600210aa82ff01f
:1040f000affd0aa80ff0b2fe0028e9d10135e7e7cd
:104100001e23621c4146002025f04efde9e74a4986
:10411000002025f049fd2cf001febaf1000f32d04d
:10412000049bc01a069b61eb03025401430144ea5d
:10413000d0611b1a61eb02018c0044ea93749e006b
:104140002146301842eb0101cb0043ea5073c20014
:1041500010461946524600232cf0a0fe304b1f6833
:10416000a7eb0b072f4b1968a1eb09017a1803463f
:1041700090b1d600b6fbf0f64ff47a7404fb05f468
:10418000b4fbf0f40be0264b1f68a7eb0b07254ba5
:104190001968a1eb0901ca19002633463446039178
:1041a0000297019200951e222449002025f0fcfc74
:1041b000334622462249002025f0f6fc2149002002
:1041c00025f0f2fc2049002025f0eefc40f2dc5006
:1041d0002ff076fe03202ff0c9ff0df20c5dbde835
:1041e000f08f00200190009003460246084925f018
:1041f000dbfc9df8c032022b05d0bbf1000f7ff431
:1042000060af0b4af5e6034af3e600bf2c660000f8
:1042100044660000f0620000b0660000c066000066
:104220003434012030340120cdcccccc7c6600006d
:10423000c0620000d8620000186700003867000004
:1042400084670000b8670000f467000000670000a2
:020000040000fa
:104250002de9f04f2ded048bd1b010900c4611924a
:1042600013930023adf87e30102120a82df022fcfe
:1042700018b100202ef0fafd40b9a149002025f028
:1042800093fc51b0bdec048bbde8f08f9d4b209aa0
:104290001a6000229c490df17e001bf0dbfc9b4b59
:1042a0001860002843d0642ca8bf6424012cb8bf38
:1042b000012412942af09ef8954b18604ff6ff7374
:1042c000944a1380944a13800023944a136040f266
:1042d000ff7293490a8093490a80934a1380109b86
:1042e0004bbb884a039441f289330293d3780193fc
:1042f00093780093537812788c49002025f054fc71
:104300004ff416702ff0dcfd02202ff02fff814bb1
:104310001a884ff6ff739a4240f0f5820523069300
:104320004ff0040bdff820a2dff8e891b3e28049f8
:1043300025f03afca5e7734a109b0493129b039364
:1043400041f289330293d3780193937800935378a1
:1043500012787849002025f027fcd1e70027adf836
:1043600060708df86270adf85c704ff0080a8df8df
:104370006ea04ff009098df86f900223adf86c30f4
:104380001ba82af037fa19202df0a8fb8df860a0a1
:104390008df8619001238df86230674b1f602760b4
:1043a00017a918a81df0c8ff002840f0ba82bdf870
:1043b0005c3033804ff6ff72934256d044e00327bf
:1043c0008df86c7002238df86d3008238df86e30f7
:1043d00019202df083fb39461ba828f0d7f9034696
:1043e000002841d004238df86c3001238df86d3006
:1043f00007238df86e3019202df070fb39461ba86d
:1044000028f0c4f9034678b300238df86c308df89a
:104410006d308df86e3019202df060fb39461ba8e9
:1044200028f0b4f9031c18bf01231de032202df041
:1044300055fb013d1fd02368002b40f0e0813288fe
:104440004ff6ff739a4289d00023adf8603018a967
:104450000e2023f0cffb034630b1bdf8602041f2bf
:1044600058039a42abd0434623602368002bddd02b
:10447000012d40f0c481274b1a884ff6ff739a42f2
:1044800021d02e4a254b18682c4b2d49002808bff7
:104490000b462c49002025f087fb46202ff008fd15
:1044a00029f0a8ff159000202ff0abff0d904ff4de
:1044b0007a73109a03fb02f3149300230e930f9365
:1044c0009fed0d9b44e11e4adce74ff001092246b7
:1044d0001ba90d982bf0e6ff002837dd9df86c3006
:1044e000032bf2d003f0df03512b08bf4ff001097b
:1044f000ede700bfaff30080000000000000000007
:10450000205c01004c340120176902005c3401205a
:1045100068340120aa3601208a3601205034012057
:10452000ac360120ae360120e8340120745c010075
:10453000545c0100c05c010048340120145c01009f
:104540000c5c0100105d010064340120b64b18883a
:10455000b64b1c88a4b240f6ff75281a2df060fef9
:104560000022b34b16f0aeffaba3d3e900230ef04d
:1045700061fdcde90801281b2df052fe0022ac4b55
:1045800016f0a0ffa4a3d3e900230ef053fdcde95c
:104590000a01dff8cc82c3464ff0000ab0ee498a28
:1045a000f0ee698a119bff2ba8bfff23012bb8bf38
:1045b00001230c9347e00c982df032fe32463b4627
:1045c00016f080ff06460f462df05cfd207094a388
:1045d000d3e900233046394616f074ff2df052fd22
:1045e00060700023a370013503340a2d24d02846bf
:1045f0002df016fedde908232ff0a4ff02460b463e
:1046000016f060ffdde906230df087fe0022894bde
:104610000ef010fd02460b46002087492ff092ff56
:1046200006460f4653ec182b2bf02cfd0028c2d069
:1046300057ec186bbfe700bf0af1010a0bf13c0b06
:10464000baf10a0f0fd050462df0eafddde90a233a
:104650002ff078ff02460b4616f034ffcde9060135
:104660005c460025c3e7754b1b889bb283b1139a48
:10467000032ab8bf0322012b13dd9342a8bf1346c0
:10468000d31a03ebc303023a93fbf2f36c4a1360b1
:104690006b4b1e6800215e9dff2da8bfff250846bd
:1046a00006e00223ece7013108f13c080a2910d0aa
:1046b00025eae5738e4218bf0023dab2434608f1bb
:1046c0001e049877d87783f820200333a342f8d1cb
:1046d000e9e71421002014f0a1fb0e9b13f0010f59
:1046e0003fd024f067f9002838d00e9b01330e9399
:1046f00028f048ff29f07efe04460f9bc31ac72b03
:104700001cd9494b1a88494b1b884e490d684e49a4
:104710004e48002d08bf0146484805884c480768a8
:1047200049484a4e002f08bf30460290019500913b
:104730004849002025f038fa0f9400bf4ff47a70f2
:10474000129b90fbf3f02df0c9f9b9f1000f17d1ce
:10475000109b6bb94ff000090124b8e621f064fc0e
:10476000c3e721f061fc0028bfd124f023f9bce7a6
:1047700029f040fe159bc01a149b9842ead303e02f
:104780003549002025f010fa3449002025f00cfab4
:104790004ff41672002132482ff05afa14210020eb
:1047a00014f03cfb1e202df099f91421002014f088
:1047b00035fb2c4b1b884ff6ff72934213d12a4bcb
:1047c0001b884ff6ff72934213d1284c20682df0be
:1047d000c9ff0023236040f2dc502ff071fb03205f
:1047e0002ff0c4fc4de5adf86c301ba82af07aff21
:1047f000e5e7adf86c301ba82af056ffe5e7194b4a
:104800001a884ff6ff739a423ff45dae184a13467a
:104810003fe600bfaff300800000000000feaf40a5
:104820009a9999999999e13fac360120ae360120c9
:1048300000002240000019400000f03fe834012051
:10484000a03601206c340120185c01001c5c0100c2
:10485000543401204c5d0100785d0100985d010039
:1048600088150120aa3601208a3601205c340120f7
:10487000145c01004ff6ff73a9f8003032202df0d0
:104880002df9069b013b06933dd0b9f800204ff669
:10489000ff739a4237d10024189419941a94adf8f2
:1048a0005c404ff00c088df86e800d278df86f700e
:1048b0000e268df870600f258df87150adf86cb034
:1048c0001ba829f097ff19202df008f98df86080ba
:1048d0008df861708df862608df8635001238df85a
:1048e0006430124b1a93caf8004017a918a816f0a2
:1048f00051fa0028bed1bdf85c30a9f800304ff65f
:10490000ff729342bad028202df0e8f8084bd3f874
:104910000080b8f1000f7ff472af0525054e1c46ec
:104920008de54ff6ff7333809fe500bfb8571d003c
:08493000503401208a360120f9
:020000040000fa
:104938002de9f04f8db0d0f850a00a68436d846d12
:1049480083ea040e0eea0a0e8eea040ed84bc46cf3
:1049580023440a9213449e440aeb7e6e4e68436dcc
:104968008aea030707ea0e075f40d24b856d2b449e
:10497800009633441f440eeb37578b681a468aea71
:104988000e053d4085ea0a05cb4b446d2344019250
:1049980013441d4407ebf535cb681c468eea070621
:1049a8002e4086ea0e06c54b5344029423441e4407
:1049b80005ebb6260b691c4687ea050333407b40a6
:1049c800bf4a039422449644734406eb73694a69c8
:1049d800134685ea060404ea09046c40b94a0493bc
:1049e8001a4417443c4409eb34548b6986ea09029b
:1049f80022407240b44f05931f443d442a4404ebbf
:104a0800f232cf6989ea040808ea020888ea090844
:104a1800ae4d06973d442e44b04402ebb8280f6ac9
:104a280084ea020c0cea080c8cea040ca84d0797df
:104a38003d4409eb05039c4408eb7c6c4d6a82ea13
:104a4800080909ea0c0989ea0209a24b08952b44ce
:104a58001c44a1440ceb39598b6a88ea0c0e0eea07
:104a6800090e8eea080e0993a3f524434f3b1a4416
:104a7800964409ebfe3eca6a16468cea090505ea21
:104a88000e0585ea0c05944b1344984445440eebf7
:104a9800b525d1f8308089ea0e072f4087ea090743
:104aa8008e4b43449c44674405eb7767d1f834c088
:104ab8008eea05033b4083ea0e03894a6244914427
:104ac8004b4407eb3353d1f8389085ea07041c4070
:104ad8006c40844a4a449644744403ebf434d1f855
:104ae8003ce087ea030222407a407f4971440d4442
:104af8002a4404ebb22284ea020b0bea030b8bea8a
:104b0800040b7a49009d29440f44bb4402ebfb6b1c
:104b180082ea0b07274057407549059d29440b44f5
:104b28001f440bebf7578bea0703134083ea0b0389
:104b380070490b9631440c44234407ebb34387ea8e
:104b4800030505ea0b057d406b490a9c21440a448c
:104b5800154403eb353583ea05023a405a40674964
:104b6800049e31448b445a4405ebf26285ea020103
:104b780019406940624c099e34442744394402eb89
:104b8800f15182ea01042c4054405e4f77443b4483
:104b98001c4401ebb44481ea040313404b405a4fd0
:104ba800039e37443d442b4404eb333384ea030b20
:104bb8000bea010b8bea040b544d089e35442a443a
:104bc800934403ebfb6b83ea0b0727405f40504a93
:104bd8004a4411440f440bebf7578bea07051d4075
:104be80085ea0b054b4a02990a441444254407eb0d
:104bf800b54587ea050202ea0b027a404649079e54
:104c080031440b441a4405eb323285ea02033b4037
:104c18006b40424961448b445b4402ebf36382ea94
:104c28000301294051403e4c019e344427443944f5
:104c380003ebf15183ea010414405c40394f069eae
:104c480037443d442c4401ebb44481ea040b0bea9d
:104c580003054d40344f47443a44154404eb353579
:104c6800049fa7f5b822a2f2be6213448bea050b93
:104c78005b4405eb337384ea05025a402b4f079ec9
:104c880037443944114403eb715185ea030b8bea2d
:104c9800010b274a0b9f3a4414445c4401eb34440b
:104ca80083ea01076740234a4a4415442f4443e0f6
:104cb80078a46ad756b7c7e8db702024eecebdc10a
:104cc800af0f7cf52ac68747134630a8019546fde5
:104cd800d8988069aff7448bbed75c892211906b56
:104ce800937198fd8e4379a62108b44962251ef672
:104cf80040b340c0515a5e26aac7b6e95d102fd608
:104d08005314440281e6a1d8c8fbd3e7e6cde121dc
:104d1800d60737c3870dd5f4ed145a4505e9e3a93d
:104d2800f8a3effcd9026f678a4c2a8d81f6718748
:104d380022619d6d0c38e5fd04eb772781ea0402ba
:104d48007a40944d009e35442b44134407eb33734b
:104d580084ea07025a40904d039e35442944114481
:104d680003eb715187ea030b8bea010b8b4a069d13
:104d78002a441444a34401eb3b4b83ea010282ea30
:104d88000b02874c099d2c4427443a440beb7222b2
:104d980081ea0b045440834d65442b44234402ebc1
:104da80033738bea02075f407f4c0a9e34442144e8
:104db8000f4403eb775782ea03057d407b49029c49
:104dc80021448b445d4407eb354583ea070b8beaa6
:104dd800050b7749059c21440a44934405eb7b2b3a
:104de80087ea050484ea0b04724a08990a441344c2
:104df8001c440beb347485ea0b0161406e4b434451
:104e08001f44394404eb71518bea04034b406b4a4d
:104e1800724415441d4401eb354584ea01026a4099
:104e2800674b019f3b449b445a4405eb722262ea5c
:104e380001036b40634f37443c44234402ebb363a4
:104e480063ea050b8bea020b5f4c069f3c44214446
:104e58008b4403ebbb5b6bea02075f405b49494449
:104e68000d442f440beb774767ea030484ea0b04ed
:104e78005749049d29440a44144407ebf42464ea7e
:104e88000b057d40534a424413441d4404ebb56569
:104e980065ea070888ea04084f4b02990b449b44cb
:104ea800d84405ebb85868ea04036b40099aa2f5a0
:104eb8008016a6f683363e44334408eb734363ea10
:104ec800050989ea08094549009e31440c44a14472
:104ed80003ebf92969ea08065e40414a07990a4442
:104ee80015442e4409ebb66666ea030181ea090116
:104ef8003c4a72449044414406ebb15161ea0904ca
:104f08007440394a059d2a4413441c4401eb7444f7
:104f180064ea06054d40354b634499444d4404eb1f
:104f2800f52565ea01076740314a039b1a44164490
:104f3800374405ebb76767ea04036b402d4a0b9ebd
:104f480032441144194407ebb15161ea05067e4029
:104f5800294a019b1a441444344401eb7444c36c39
:104f68003b44c36464ea07074f40244b089a134440
:104f78001d442f440aeb040505ebf7250565436d31
:104f88001c444465836d1944816500200db0bde85b
:104f9800f08f00bf44eabea4a9cfde4b604bbbf63e
:104fa80070bcbfbec67e9b28fa27a1ea8530efd425
:104fb800051d880439d0d4d9e599dbe6f87ca21f11
:104fc8006556acc4442229f497ff2a43a72394ab1f
:104fd80039a093fcc3595b6592cc0c8fd15d848555
:104fe8004f7ea86fe0e62cfe144301a3a111084ee2
:104ff800827e53f735f23abdbbd2d72a91d386ebde
:020000040000fa
:10500800b14b834240f04183b04b93f90020531ecb
:10501800dbb2012b00f239832de9f04f87b0ac4b9e
:105028001b685bb1012a1ad0a94b1c68a64b1b88c8
:10503800002b00f01c830025a34e7be0a54b1b68ca
:1050480002a89847002800f3f58220b9029810b109
:1050580004f00efdeee29d4b00221a70eae29e4b30
:105068001b68b3f1ff3fdfd19c4a002105202df0da
:10507800c1fe994b1860b0f1ff3f2ed02cf0eefc2a
:1050880000eb800303f2e733954aa2fb03239b0955
:105098004ff47a7606fb03f3b3fbf0f6914b1e60f0
:1050a8000225914c04e001351034282d00f0d682f9
:1050b8002368002bf7d0b4f90a20002af3d0214640
:1050c800a8b22cf003fc0028edd106f5a673b3fbbb
:1050d800f6f306fb03f6854b1e602ff02bf888b914
:1050e8001ff074fe794bff221a702ff023f8002866
:1050f80000f0a0822ff018f84ff0ff327c4924f01e
:105108004ffd97e22ff010f805227a4924f048fd68
:10511800e6e7032304222146304626f05bf894f89c
:10512800433043f0800384f84330013574343188c8
:105138008d424bdae06c0028f7d0636c9b69984786
:1051480094f8433013f0400fefd0636c5b69e06c68
:1051580098470028dddb0228e7d100230293039358
:105168000493059340f2dc53adf81230636c1b6c6a
:1051780002a9206d98470298e063bdf80c30a4f8a6
:105188004030bdf80e30003318bf012394f8432097
:1051980063f3451284f84320bdf81230a4f8663052
:1051a8009df8153084f868309df8143084f869301b
:1051b80094f8423043f0400384f84230d3b203f00d
:1051c800bf0343f0800384f84330aee73f4b93f9c5
:1051d8000030012b25d0002026f0e8fc464b1b6848
:1051e80033b9464b1a68464b1b68134300f02282ba
:1051f800414b1b68002b40f089804ff000083f4b63
:105208001b68002b00f091813c4b00221a60304b48
:105218001c682d4b1b88002b00f01a811646394f4d
:10522800e8e02b4b1e68002900f027823246002553
:105238002b46012706e007fa03f0054301337432d1
:10524800994212d092f8430000f00c04042cf2d1d9
:1052580010f0800f00f0ee8192f8420010f0400f3d
:10526800ecd007fa03f00543e8e7012202fa03f35a
:10527800013bab4200f00182134b1b88abb1002409
:1052880044f24008104f0ae003230422314638460e
:1052980025f0a0ff013474363b889c4205dab6f845
:1052a800423018ea030ff5d0eee7084bff221a70d8
:1052b8002ef040ff002800f0bd812ef035ff2a4671
:1052c800114924f06dfcb5e154310120ff3401206f
:1052d800a8330120ac330120903601203518030093
:1052e800d34d6210a0330120281301209c330120e4
:1052f80000010200d000020094330120b0330120e5
:1053080098330120202b0120700102000025b44ba6
:105318001d602ef015ff04462bf0fcfc06460f46d8
:1053280022462b462bf0b6fdae4b1860ae4aa2fbc8
:10533800043292092b46304639462bf0abfdab4b75
:105348001860ab4b1b68ab4a12689b1aab4204dd72
:10535800a74a13604ff0010851e703f24d13a44a1e
:105368001360a54b1c68a54b1b88002b00f06c81b3
:105378000025a24e0ee094f86a3043f0020360f371
:10538800820360f3000384f86a300135743433888b
:105398009d420fda94f8423013f0400ff5d0636c59
:1053a8005b6a206d984794f86a3003f001039842cd
:1053b800e1d1eae74ff0010821e74ff0010823e7c0
:1053c800002503e08c6238462df093fe636c5b6b1e
:1053d8002a462946206d984701460028f2d1884a76
:1053e80013680133136029e001367434834b1b883a
:1053f800b3422ddd94f8423013f0400ff4d0b4f8e6
:105408006250636c5b6d206d98470543adb22ff019
:1054180079f8b4f8623023ea0503a4f862302ff073
:1054280075f8b4f864302b43a4f86430636c1b6dd2
:105438002946206d984715f0160fc1d194f84330ce
:1054480013f0200fd0d0636c9b6b206d9847cbe78f
:105458004ff0000bdff8b49109f10c07dff8b0a1a9
:105468000af10803019305e001226ff00c012846b8
:105478002bf030fb38462df06dfb054600284bd04d
:105488006b699b891c0a44ea0324a4b2a86a866d46
:105498002eb1c36d22462946b0470028ead12846d6
:1054a80003f0a6fc0028e5d140f606039c420dd087
:1054b800b4f5006f07d04ff6ff739c42d4d10af1c0
:1054c8001004022604e0019c012601e0002654464f
:1054d8002b6a23f47c132b62626813432b62608867
:1054e80000eb4000294609eb80002df002fe012365
:1054f80003fa06f616ea0b0fbcd14bea060b6388d3
:10550800404800eb0310038943f0010303810022a4
:1055180001212df08ffbade72ef0f4ff394a138bf4
:1055280023f0010313832ef0f1ff334b1b68334a3a
:10553800108820b3002240f286651446324e09e0f6
:105548003168013131600ee0a3f8644001327433f0
:10555800824214d093f8421011f0400ff6d0b3f8fd
:1055680064100d42ecd193f86a1011f0020febd0e1
:1055780093f86a106ff3410183f86a10e4e7b8f111
:10558800000f66d11f4d05f1300405f5247544e080
:105598001344a381238943f00203238100220221bb
:1055a80020462df047fb1034ac420fd02368002b67
:1055b800f9d0b4f90a20002af5d03168a3895b1a1a
:1055c8009bb219b20029e3dda181ece72ef09aff26
:1055d8000c4a138923f0020313812ef097ffd1e7b9
:1055e8009433012088330120d34d62108433012085
:1055f8009c330120a0330120a8330120543101201d
:1056080090330120081301208c330120142b012032
:10561800e42503001034ac4209d054f8103c34f8a7
:10562800082c002bf6d0002af4d09847f2e7174b45
:105638001b6813b907b0bde8f08f00224ff48071e2
:1056480013482df0f7faf5e7124b1b68002b7ff48f
:10565800b4ae114c114e04f51875a7e706f5a673fc
:10566800b3fbf6f306fb03f60d4b1e60dce40d4bb3
:1056780093f90030012b7ff4aead0a4b02221a7069
:10568800094900202bf0b6faa5e5704798330120a8
:1056980018130120b033012028130120a033012062
:0c56a8009c330120ff340120400102006f
:020000040000fa
:1056b4002de9f04f8db083468a4600230893099361
:1056c4000a930b9343680393aa4b1968002940f388
:1056d400a7829146a84b93f8ce30012b00f0a78205
:1056e4000023a54d0133d8358b4200f0998295f8fb
:1056f400ce20012af6d1a04beb1adb1003ebc30238
:1057040003eb4203c3eb432303eb8343dbf80020a7
:1057140054685a4299490398a047002485f8d14017
:1057240002232b7485f8cf4041f289336b82944b6a
:10573400ab612cf095f904906c6000eb80035b0086
:10574400ab6028602c75c5f8c4b0284628f09ef8d4
:10575400baf1010fc8bf012411dc95f8d130002b38
:1057640000f0e581012b00f00c820db0bde8f08f54
:10577400012385f8d1300134e4b25445edda59f807
:10578400246002227f4930462df0ecfb0028efd044
:1057940005227d4930462df0e5fb0028e8d00222a1
:1057a4007a4930462df0defb28b10522784930468f
:1057b4002df0d8fb10b901232b74dce702227549c4
:1057c40030462df0cffb30b10522734930462df021
:1057d400c9fb00285cd101232b741c44e4b259f8a2
:1057e400246030462df0b6ffc7b207f1ff38b0444d
:1057f4006a4940462ef06ef8b8b1694940462ef029
:1058040069f800283dd14ff47a7807f1ff3cbcf1e8
:10581400000f33dd00273a464ff0010e3b46059456
:105824007146b64644460e46e3e15d4940462ef0d5
:1058340051f800285b4b0cbf4ff47a789846e4e7a4
:1058440002eb820200eb4202303adce12346059c83
:1058540003fb07f3424501d208fb02f208920993c5
:10586400dbf80010981800904e684f49dbf80400ec
:10587400b047089b099a1344ab617ce700221346a6
:10588400eae7012208a9304621f022f9089bf3e750
:105894000222464930462df065fb28b105224449d1
:1058a40030462df05ffb50b90134e4b2012208a95f
:1058b40059f8240021f00cf9089bab615be7022244
:1058c4003c4930462df04efb28b105223a4930467a
:1058d4002df048fbb8b9002385f8d1300134e4b287
:1058e400042208a959f8240021f0f2f8089b85f84d
:1058f4004430099b85f845300a9b85f846300b9b5c
:1059040085f8473037e702222c4930462df02afb30
:1059140028b105222a4930462df024fb78b90134f8
:10592400e4b2012208a959f8240021f0d1f8089b17
:10593400049a02fb03f3ab6000236b601be70222b3
:10594400204930462df00efb30b105221e49304669
:105954002df008fb002839d10134e4b2012208a952
:1059640059f8240021f0b4f8089b6b600023ab6065
:1059740001e700bfe8320120682601204038010019
:105984008096980064360100683601007436010080
:10599400783601008036010084360100903601001b
:1059a4009436010040420f0098360100b4360100dd
:1059b400b8360100c4360100c8360100d4360100ef
:1059c400d8360100e0360100e4360100022299498c
:1059d40030462df0c7fa30b10522974930462df0f4
:1059e400c1fa002836d10134e4b259f824004378ce
:1059f400782b17d0012208a921f06af89df820001d
:105a04000246202820d018d9a0281ad0c0281ed198
:105a140010232b75dbf800305e682b7d87490398d3
:105a2400b047a8e683788df81f30c3788df81e3010
:105a3400bdf81e0029f01afce2e740b900232b75db
:105a4400e8e720232b75e5e708232b75e2e700231d
:105a54002b75dfe702227a4930462df083fa28b10c
:105a64000522784930462df07dfa58b90134e4b264
