:020000040000fa
:10000000f0ff032065180200a3da0200a7da02005d
:10001000afda0200b3da0200b7da02000000000033
:10002000000000000000000000000000c1da020033
:10003000abda020000000000c1da0200c1da0200ff
:10004000c1da0200c1da0200c1da0200c1da02003c
:10005000c1da0200c1da0200c1da0200c1da02002c
:10006000c1da0200c1da0200c1da0200c1da02001c
:10007000c1da0200c1da0200c1da0200c1da02000c
:10008000c1da0200c1da0200c1da0200c1da0200fc
:10009000c1da0200c1da0200c1da0200c1da0200ec
:1000a000c1da0200c1da0200c1da0200c1da0200dc
:1000b000c1da0200c1da0200c1da0200d3d80200bc
:1000c000ddd80200c1da0200c1da0200c1da0200a2
:1000d000c1da0200c1da0200c1da0200c1da0200ac
:1000e000c1da0200c1da02000000000000000000d6
:1000f00000000000c1da0200956301009563010071
:100100009563010095630100016302000163020031
:100110000163020001630200c1da0200c1da0200d9
:10012000c1da0200c1da0200c1da0200c1da02005b
:10013000c1da0200c1da0200c1da0200c1da02004b
:10014000c1da0200c1da0200c1da0200c1da02003b
:10015000c1da0200c1da0200c1da0200c1da02002b
:10016000c1da0200c1da0200c1da0200c1da02001b
:10017000c1da0200c1da0200c1da0200c1da02000b
:10018000c1da0200c1da0200c1da0200c1da0200fb
:10019000fda80200c1da0200c1da0200c1da0200e1
:1001a000c1da0200c1da0200c1da0200c1da0200db
:1001b000c1da0200c1da0200c1da0200c1da0200cb
:1001c000c1da0200c1da0200c1da0200c1da0200bb
:1001d000c1da0200c1da0200c1da0200c1da0200ab
:1001e000c1da0200c1da0200c1da020089aa020003
:1001f000c1da0200c1da0200c1da0200c1da02008b
:10020000c1da0200c1da0200c1da0200c1da02007a
:10021000c1da0200c1da0200c1da0200c1da02006a
:10022000c1da0200c1da0200c1da0200c1da02005a
:10023000c1da0200c1da0200c1da0200c1da02004a
:10024000c1da0200c1da0200c1da0200c1da02003a
:10025000c1da0200c1da0200c1da0200c1da02002a
:04026000c1da0200fd
:020000040000fa
:10026400f8b500bff8bc08bc9e467047fd85020087
:10027400f8b500bff8bc08bc9e467047d98502009b
:020000040000fa
:0802840074e900000100000014
:020000040000fa
:10028c002de9f04f8db00f210a202af0cbfe029001
:10029c0010f0010f40f05d85029b13f0020f40f04f
:1002ac007c850db0bde8f08fd9f8187007f11002fd
:1002bc00059213f4007f21d1fb6809933b690a93e3
:1002cc0000228df82c2006238df82d30330a43eaba
:1002dc000623adf82e300c2109a823f0bdffc04336
:1002ec0083b2d9f8202012f0040f30d032464146a8
:1002fc00484622f003f9002840f09a86404624f044
:10030c0019fc98f80ca04fea1a1a4fea8a030493c6
:10031c00d9f81ca0baf80220002a00f08c86fd89be
:10032c00bb891d44baf800301d445540adb2c74bd3
:10033c00d3f800c0bcf1000f00f08086d9f828e09b
:10034c00c34b1b68039300239b4610460ee01a46d2
:10035c003146404623f080ffcde7b4f8722082424c
:10036c002fd001331bb21c469c452fd9039a52f84f
:10037c002440002cf5d094f876200b2af1d094f878
:10038c0077100129edd8a16c09b18e45e9d1002a6d
:10039c00e3d0b4f87220aa42e3d1daf80010226e4e
:1003ac009142ded1216cfa689142dad1012184f8b4
:1003bc007710c4f848e0059a204629f0cafaa346fb
:1003cc0022e0bbf1000f08bfa346cae7bbf1000f48
:1003dc0000f08380fb68cbf8403001218bf877105c
:1003ec00cbf848e0059a584629f0b3faabf87250ae
:1003fc00baf80030abf86030baf80230abf86230c3
:10040c00dbf80030cbf81030d9f810209389049920
:10041c005b1a938198f80d40d8f80870d8f80450fe
:10042c009bf83f3013f0400f5bd19bf875306ff3a6
:10043c0000038bf875309bf87630002b69d0012bbc
:10044c0000f09e801436049aa6eb020a1ffa8afa70
:10045c00aaf1140292b2059214f0010206921abf8c
:10046c00aaf1130a1ffa8af2059a039214f0020fea
:10047c0003d0039a013292b20392dbf81c60dbf8d2
:10048c0020209642c0f0aa80dbf81810dbf814008c
:10049c00091aa6eb020aa1eb0a0a1ffa8af20492c5
:1004ac00dbf85820a5eb020a039a002a00f0a98079
:1004bc00049a002a00f0a080baf1000fc0f29680d6
:1004cc009245c0f0a780039a04998a1a8a45c0f213
:1004dc00a180924540f39e808ee06ff00e0100f0fb
:1004ec0034bc00238bf879309bf83e3013f0020fac
:1004fc009bd12af037febbf87020564b1b6803fbd0
:10050c0002f3554aa2fb032300eb9310cbf8240013
:10051c008be714f0040f1ad114f0100f1dd114f046
:10052c00020f27d00135cbf8585040461df09efce9
:10053c00abf86a00584628f0c6fa01221221584638
:10054c0005f01efb02238bf876300026e6e3002133
:10055c00584616f0affb0026e0e3cbf854700022af
:10056c000421584605f00cfb0021584616f0a2fb5e
:10057c000026d3e30021584616f09cfb0026cde361
:10058c0014f0040f40f0c98314f0100f00f0a08594
:10059c00dbf85460b74205d114f0020f40f05585da
:1005ac000026bbe3cbf8547001220421584605f019
:1005bc00e7facbf854600026b0e32af0d3fdbbf881
:1005cc007020244b1b6803fb02f3234aa2fb03237a
:1005dc0000eb9313cbf8243000f056bda2eb060ac7
:1005ec000af1ff3a1ffa8af2049259e703990a4674
:1005fc00514400293ff768af14f0040f1fd00026b8
:10060c008ce3baf1000f05d0baf1000ff4db049ab9
:10061c009245f1da14f0060f20d114f0100f00f00f
:10062c009083023b072b00f2cc81dfe813f029000a
:10063c003e003e003e003e00ca013e00bd010122cc
:10064c001021584605f09cfa002667e3942b0120f4
:10065c00902b0120982b0120d34d621014f0040f25
:10066c0008d09bf83f3043f002038bf83f304ff437
:10067c00006600e000260021584616f01bfb4de3f7
:10068c00dbf85460b74205d103238bf876304ff476
:10069c0080760be0cbf8547001220421584605f00b
:1006ac006ffacbf85460002638e30026dbf8101004
:1006bc00dbf808305a1a13d4dbf854003b1a9b1a97
:1006cc00002b1dddbbf8742002f40172042a01d149
:1006dc00012b0cd000221021584605f051fa1de3d5
:1006ec00dbf80430dbf800001b1a1a44e4e7013095
:1006fc00cbf854009bf8753043f002038bf875303f
:10070c00dbf85430dbf80c20881a914249d2dbf824
:10071c000420dbf80010521afb1a0344d318079379
:10072c00002b07dddbf80430dbf800209b1a079a5e
:10073c009a4246d9dbf83830002b40f0a280dbf827
:10074c000c20dbf808309a4200f0d980b8f80e3053
:10075c00bbf86e209a4238bfabf86e30dbf85420f1
:10076c00b8f80e303b449b1a9bb2bbf8641031b9fd
:10077c002bb19bf83e1041f040018bf83e10abf8ca
:10078c0064309bf87630042b00f0f080062b40f0a0
:10079c001981974240f0c2820021584616f08afa1d
:1007ac00bce2fb1a03440793002b07dddbf8043093
:1007bc00dbf800001b1a0798984202d99142bed070
:1007cc00b8e740f2dc53cbf834302af0cbfcdbf842
:1007dc003420c44b1b6803fb02f3c34aa2fb032364
:1007ec0000eb9313cbf838309bf83e306ff3451386
:1007fc008bf83e30dbf80c10079b0b44cbf80c301d
:10080c00dbf8102091420ed893421cd99a1adbf8cf
:10081c0054100a44cbf85420cbf81030dbf80420e9
:10082c00934224d313e0dbf80410dbf80000091a20
:10083c000a44934207d99a1adbf854100a44cbf8ad
:10084c005420cbf81030dbf80420934205d3dbf8ae
:10085c000010511a5b1acbf80c30dbf810309342b5
:10086c0005d3dbf80010521a9a1acbf810209bf81b
:10087c007630032b02d0082b7ff461af46f00406d0
:10088c005de72af06ffcdbf83830c31a002bfff65b
:10089c0056afdbf834305b00b3f57a4f28bf4ff41a
:1008ac007a43cbf834302af05dfcdbf834208d4be6
:1008bc001b6803fb02f38c4aa2fb032300eb93138c
:1008cc00cbf83830dbf81010dbf80c20881adbf88a
:1008dc0054301b1acbf85430914207d2dbf8041079
:1008ec00dbf80000091a5b1acbf85430cbf8102057
:1008fc009bf83e3043f080038bf83e301fe79bf8ab
:10090c003f3013f0010f19d113f0400f06d19bf8b3
:10091c003e306ff341038bf83e3017e72af022fc90
:10092c00bbf870206f4b1b6803fb02f34ff47a7219
:10093c00b3fbf2f30344cbf82430e8e7dbf8543094
:10094c009f427ff403af9bf8743013f0040f3ff415
:10095c00fdae9bf83e306ff341038bf83e309bf8b5
:10096c003f306ff300038bf83f30efe6974203d034
:10097c0014f0200f35d0d1e19bf8743013f0040f34
:10098c00f6d02af0effb574b1a6841f2883303fb81
:10099c0002f34ff47a72b3fbf2f30344cbf830302a
:1009ac0005238bf87630e3e7dbf8543001339f42b4
:1009bc0001d00026b2e10021584616f07bf9002642
:1009cc00ace1002614f0200f40f0a8819bf87620b3
:1009dc00a2f10803dbb2012b40f2a081062a00f041
:1009ec009d81059a002a3fd0baf1000f7edd059b50
:1009fc005344049a934203dda2eb0a039bb2059382
:100a0c0098f80c301b0908eb83030893dbf81c10d7
:100a1c00dbf81830059a52440a44934280f0f48073
:100a2c005a1a0132b2eb0a0200f1df801ffa82f887
:100a3c0001240094434608a802465144484622f03b
:100a4c00b1fd0490059aa2eb080300949bb208aa8e
:100a5c00dbf81410484622f0a5fd049b034498b221
:100a6c00059b834200f0d980039bcbb19bf8763079
:100a7c00033bdbb2022b84bfdbf81c30cbf82030fd
:100a8c009bf83e3013f0100f40f0fa809bf83e308c
:100a9c0043f010038bf83e3013f0080f00f0f68093
:100aac00069b002b00f03a81dbf858300133039a97
:100abc002a44934240f03281cbf8583046f4806699
:100acc009bf83f3043f004038bf83f309bf87630b3
:100adc00023b032b00f20781dfe813f0ec00f5007a
:100aec00fe001501982b0120d34d621098f80c30a4
:100afc001b09caeb830343440893524493b2049af0
:100b0c009a4228bf1a469246dbf81c10dbf81830c4
:100b1c008a18934259d25b1a01330493bdf81080a2
:100b2c0001240094434608aa484622f03bfd059058
:100b3c00aaeb080300949bb208aadbf814104846f1
:100b4c0022f030fd059a024490b2049baaeb0303f9
:100b5c00dbf814201344504586d1dbf8581051446f
:100b6c00cbf85810cbf81c309bf87620033ad2b255
:100b7c00022a98bf46f40076dbf85c20b2f1ff3f06
:100b8c003ff472afa2eb0a0acbf85ca0bbf868206a
:100b9c0012eb0a0224d4baf1000f3ff765af1144ef
:100bac00cbf858101344cbf81c30dbf818209342c8
:100bbc0006d9dbf81410521ad2431344cbf81c306c
:100bcc004ff0ff33cbf85c304ee7012300935346d4
:100bdc0008aa484622f0e6fcdbf81c305344bae77e
:100bec004ff0ff33cbf85c303ee70af1ff30dbf817
:100bfc0014209b1ac01a01230093059b08aa0144d8
:100c0c00484622f0cffc2be701230093059b08aa52
:100c1c005144484622f0c6fc22e7dbf85c30b3f1c5
:100c2c00ff3f15d09a4519d2059a02eb0a01bbf881
:100c3c006820d018814205d88b4203d8a0eb0a0358
:100c4c009bb20593059babf86830cbf85ca00be727
:100c5c00cbf85ca0059babf8683005e7bbf86820c7
:100c6c001a4405980146514491427ff6fdae9245d7
:100c7c003ff6faaeaaeb03031844abf86800f3e6b0
:100c8c0001221021584604f07bff09e7dbb243f048
:100c9c0008038bf83e302af065fab14b1a686423ce
:100cac0003fb02f34ff47a72b3fbf2f30344cbf879
:100cbc002c30f5e609238bf87630012211215846a9
:100ccc0004f05eff2ae008238bf876309bf8753031
:100cdc0013f0010f07d021e0dbf854309f4208d00d
:100cec0006238bf8763001221021584604f048ff79
:100cfc0014e000221021584604f042ff002158460f
:100d0c0015f0d8ff0ae000221021584604f038fff5
:100d1c000021584615f0ceff00e00026bbf87a20e3
:100d2c00324000f08e81dbf87c40002c00f08b818f
:100d3c00dbf88030d9f82810bbf93c00a047022121
:100d4c0003e00026eae76ff00d010a22484629f07d
:100d5c0089fa0a202bf06eff814600283ff49caaea
:100d6c00b9f82c60132eeed9d9f81c8098f80c30f9
:100d7c001b09042b0bd9b6eb830f0bdbd9f82030f6
:100d8c0013f400343ff490aa6ff00e01dde76ff01e
:100d9c000d01dae76ff00d01d7e7724b1b68002be2
:100dac003ff47faa00252b46dff8bc91dff8bca1ed
:100dbc00dff8b081e6e02af0d5f9a36ac01a002862
:100dcc00a8bf1026f4e02af0cdf9e36ac01a002877
:100ddc00c0f2f48094f87630052b00f08a8110264e
:100dec0087f001023146204604f0cafeeee02af0fc
:100dfc00b9f9236bc01a0028c0f2e5800122142136
:100e0c00204604f0bdfe0021204615f053ffb1e052
:100e1c0094f83e6006f00106012120461ef0a3fa6c
:100e2c0094f83e3043f0010384f83e304ff4805286
:100e3c000021204625f0b7fe002e40f09b8094f850
:100e4c003e306ff3000384f83e300a2384f876308a
:100e5c0090e02af087f9636ac01a0028c0f28a80f1
:100e6c0094f876104b1e082b00f28280dfe803f01a
:100e7c000541556080688080700094f87830032bb1
:100e8c0040f22b81042384f87830354b1a684ff4e8
:100e9c007a7303fb02f3aafb03239b091b01236553
:100eac000221002694f87830013384f87830236dd1
:100ebc005b0023652069e268831a9bb2904204d2de
:100ecc0060682768c01b03449bb2606dc01a6065e4
:100edc00b4f864000344a4f8643022610022204674
:100eec0004f04efe002e45d00021204615f0e2fe07
:100efc0040e094f87830022b40f2f18094f83e6098
:100f0c0006f001031e46002b18bf1421002fc9d177
:100f1c000122204604f034fee4e794f87830042be8
:100f2c0040f2df80042384f8763011210026ede7af
:100f3c0094f87830042b40f2d68014210126e5e792
:100f4c0094f87830042b40f2d08014210126dde790
:100f5c0094f87830042b40f2ca8014210126d5e78e
:100f6c00982b0120942b0120902b0120d34d621043
:100f7c00002e5ad101352db22b46d8f800209542bf
:100f8c00bff48fa9d9f8002052f82340002cf1d0df
:100f9c0094f876300b2bedd094f83e3013f0c0065d
:100fac001abfdf091026002713f0040f7ff403afdc
:100fbc0094f83e3013f0080f7ff405af94f87630b8
:100fcc00052b3ff414af002e7ff40aaf94f83e309b
:100fdc0013f0020f7ff43daf94f83f3013f0400f45
:100fec00c8d094f87630032bc4d12af0bbf8636ace
:100ffc00c01a0028bedb94f8792094f884309a4209
:10100c003ff406af02221021204604f0b9fd2af06d
:10101c00a9f8b4f870203b4b1b6803fb02f3aafb46
:10102c00032300eb93106062a4e7314600266de7c2
:10103c006ff0090189e66ff00e0186e66ff00e0184
:10104c0083e6022181e602217fe60135cbf8585078
:10105c00b8f80e30abf86e30abf8643040461cf08c
:10106c0005ffabf86a00584627f02dfd0122102130
:10107c00584604f085fd03238bf876309bf83f30ff
:10108c0013f0400f7ff499aa9bf83e306ff34103a5
:10109c008bf83e304ff4807640e60135cbf8585053
:1010ac00b8f80e30abf86e30abf8643040461cf03c
:1010bc00ddfeabf86a00584627f005fd012212212f
:1010cc00584604f05dfd02238bf87630002625e6a9
:1010dc0014f0020fe1d1002620e60221e1e61221f4
:1010ec00dfe61021dde61121dbe61021d9e6112126
:1010fc00d7e62af037f8236bc01a0028bff67eae6d
:08110c0010266de6982b01206e
:020000040000fa
:101114002de9f04f2ded028b9bb00f21212029f0fa
:1011240085ff002800f007877d4b1b68002b40f3e8
:1011340002877c4c0026dff820929fed7b8ab9e37e
:10114400d4f8c4305d6894f8d1202ab3227c012af3
:1011540042d0022a61d1b4f93830b3f1ff3f25d02f
:101164000023724a4ff40071b4f9380029f0a3fa4d
:10117400d4f8bc200221b4f9380017f027fe30b9a6
:10118400d4f8c4301b681b6869492846984706216f
:10119400204625f0bdfb86e31b681b68654928468d
:1011a40098470121204625f0b3fb7ce304f180023b
:1011b400618a01201ef02cfa2087b0f1ff3fcfd1c5
:1011c400d4f8c4301b681b685b4928469847012142
:1011d400204625f09dfb66e304f18002618a01202c
:1011e4002cf06bfba087b0f1ff3f0ad00023534ad9
:1011f4004ff4807129f030fc0321204625f088fb50
:1012040051e3d4f8c4301b681b684d4928469847fd
:101214000121204625f07cfb45e31b681b684949f6
:10122400284698470121204625f072fb3be3d4f879
:10123400c430d3f804b03b4be31adb1003ebc30216
:1012440003eb4203c3eb432303eb8343c3f1000ae1
:1012540097e0d4f8c4301b681b683b49584698474c
:101264000421204625f054fb1de3b4f93c002af088
:101274005efb18e30133c4f8943028462af068fb77
:1012840002460b46d4e908010ff0b5fcc4e9080195
:10129400002f19dba36ae26a511c8b4231d09342be
:1012a40020dc616b01f1010161632cd020e0d4f8f2
:1012b400c4301b685b68254958469847236b013b3b
:1012c400a26a1344236391e07f42a76229f04eff90
:1012d400c4f88c00002384f8cc300421204625f087
:1012e40017fbd7e75b1a226b13442363a36ae362f9
:1012f4000c3dadb2002d44d0dff858804ff4c867e0
:1013040036e0934206d1d4f8c4301b681b681049f8
:1013140058469847a36ae26a9342e9dde7e700bfcb
:10132400782b0120401e012000007a44edcd0200fc
:1013340088be000040be000064be0000d7cd02009d
:10134400b0be0000d4be0000ecbe00000cbf000024
:1013540038bf000018f00020a42801203a46414676
:10136400b4f93c001af0cef9a5f5c865adb245b1a3
:10137400b5f5c86ff2d22a46d149b4f93c001af047
:10138400c1f9b4f93c0029f0a1fe05460b2878d92f
:101394000c224946b4f93c001af0b4f90c287ff445
:1013a40058afd9f800301f0e47ea03671a0202f457
:1013b4007f0217431b0a03f47f431f43a762d4f839
:1013c4009430002b7ff456af002ffff64eaf01236d
:1013d400c4f89430d4f8c4301b685b685246b949e9
:1013e40058469847a26a002a7ff461afa36ae36271
:1013f40005a9b4f93c0019f0cbf9b4f93c002bf081
:10140400dfff2af0c1fd069dd4f8c4301b68628a50
:101414000292020e0192c0f3074200925f68c0f389
:101424000723c2b2a8495846b847d4f8c4301b6849
:10143400bdf8582002922a0e0192c5f30742009289
:101444005f68c5f30723eab2a0495846b847656404
:10145400bdf85830a4f8643029f088fec4f8880038
:10146400c4f8a800a36ac4f89c30d4f89430c4f833
:101474009830236bc4f8a030b4f93c002af057fa32
:101484007fe7d4f894304bb994f8cf30012b40f077
:101494000a820421204625f03bfa04e229f066fe84
:1014a400d4f8a830c31a22689342edd9d4f8942012
:1014b400d4f898309a4212d1d4f8c4301b681b680f
:1014c40083495846984729f051fec4f88c000023fc
:1014d40084f8cc300421204625f01afad4e7002100
:1014e40020460ef099fccfe7b4f93c0029f0eefd5c
:1014f40038b994f8cf304bb10921204625f008fac9
:10150400d1e1b4f93c002af012facce105212046dd
:1015140025f0fef9c7e194f8cd30002b00f0bd8032
:10152400b4f93c0029f0d2fd002840f0be8094f8c4
:10153400cc305a1c84f8cc200a2b00f2bb808021ca
:10154400b4f93c002cf03efa002800f0ac81e36ac8
:101554005b421a0e42ea0362190201f47f010a4354
:101564001b0a03f47f431343c9f800300025c9f86c
:101574000450c9f808508023c9f80c30c9f8105039
:10158400d4e908012af016f9020e42ea00620302c5
:1015940003f47f031a43030a03f47f431343c9f894
:1015a400143029f0f7fdd4f88c10d4f88830c91a17
:1015b400b1fbf0f31a0e42ea03621f0207f47f073d
:1015c4003a431f0a07f47f473a43c9f8182000fb3f
:1015d400131307ee103ab8ee477a27ee087a07eeaf
:1015e400900af8ee676ac7ee267a67ee887afcee10
:1015f400e77a17ee903a1a0e42ea0362190201f4ee
:101604007f010a431b0a03f47f431343c9f81c30c8
:10161400236b1a0e42ea0362190201f47f010a43a2
:101624001b0a03f47f431343c9f82030636b1a0e7b
:1016340042ea0362190201f47f010a431b0a03f41c
:101644007f431343c9f82430e36a1a0e42ea036263
:10165400190201f47f010a431b0a03f47f43134375
:10166400c9f82830c9f82c50c9f8305034224946fa
:10167400b4f93c0026f072f84c273a46294605a8ee
:101684002bf0a8fd3a4605a9b4f93c0026f066f80b
:10169400b4f93c000ff08ef905e1022120460ef06a
:1016a400bbfb012384f8cd303ae7b4f93c002af0bf
:1016b4003ef9f8e00921204625f02af9f3e000bfbd
:1016c40018f0002070bf0000bc970100f0970100e3
:1016d40058bf000094f8cf30012b26d0b4f938005d
:1016e40029f06bfe002800f0de803822002105a8d6
:1016f4002bf070fd05a9b4f9380021f0b2fd04f116
:10170400400705ad0fcd0fc70fcd0fc70fcd0fc7c6
:1017140095e8030087e803000721204625f0f8f840
:10172400b4f9380029f09cfabde00921204625f0df
:10173400eff8b8e0d4f8c4305f68b4f938002bf09f
:10174400a8fd0546002865d0a36a002b49d1bd4bee
:10175400e31adb1003ebc30203eb4203c3eb4323a3
:1017640003eb8343d4f8c4201268d2f804805a42ad
:10177400b5493846c04729f0f9fcc4f88800c4f8d4
:10178400a800a36ac4f89c30b4f938002bf0f8fd23
:101794002af0fafbd4f8c4301b68628a0292020e63
:1017a4000192c0f307420092d3f80480c0f30723e8
:1017b400c2b2a6493846c047d4f8c4301b68b4f84e
:1017c4006420029294f84720019294f846200092f3
:1017d400d3f8048094f8453094f844209c49384662
:1017e400c047a36a0133a362d4f894200132c4f839
:1017f4009420e36228462af0abf802460b46d4e96b
:1018040008010ff0f8f9c4e90801dff848824ff441
:10181400c8671ce0b4f9380029f022fa20b9b4f9f9
:1018240038002bf0ecfad8b129f0a0fcc4f88c00f5
:101834000821204625f06cf835e03a464146b4f9d3
:1018440038001af047ffa5f5c865adb245b1b5f546
:10185400c86ff2d22a467f49b4f938001af03aff29
:10186400a36a63b994f8cf30012b1cd10821204618
:1018740025f04ef829f07afcc4f88c0013e029f026
:1018840075fcd4f8a830c31a22689342ead900211f
:1018940020460ef0c1fae5e794f8cd30c3b3092130
:1018a400204625f035f80136d8346b4b1b68b3421b
:1018b40040f3418394f8ce30012bf4d0023b102b3b
:1018c40000f2348301a252f823f000bf4511000056
:1018d40033120000ed1400001b150000d91600009f
:1018e400391700009d18000025190000c1190000d7
:1018f400ed1900002f1c0000151d00001b1e000028
:101904000b1f0000ed1a00007b1e0000211f0000c9
:10191400022120460ef080fa012384f8cd30bee780
:10192400d4f8c4305f68237c012b29d0022b2cd03f
:10193400444be31adb1003ebc30203eb4203c3eb98
:10194400432303eb83435d42d4f8c4301b685b68d4
:101954002a46424938469847204625f085fd94f8a2
:10196400d130012b19d0d4f8c4301b685b682a46e7
:101974003b49384698470121204624f0c9ff92e7a5
:10198400b4f93c0026f00af9d2e7b4f9380027f09c
:10199400edf94ff6ff732387cae794f8cf30002b95
:1019a400e1d1d4f8c4301b685b682a462d49384617
:1019b40098470221204624f0abff74e7d4f8c8000e
:1019c4002af0dbfe032808d10b21204624f0a0ffd7
:1019d40029f0ccfbc4f8ac0065e704f14401d4f869
:1019e400c80026f040faefe7d4f8c4305d6894f8f4
:1019f400cf20012a17d0d4f8c8002af0befe03284d
:101a04001bd094f8443003f0f003e02b2ed1237c58
:101a1400012b64d0237c022b7ff445af0c2120469c
:101a240024f076ff3fe71b681b680f492846984758
:101a34000121204624f06cff35e70022a267a4f8b8
:101a44007c20e4e7401e012070bf0000bc97010029
:101a5400f097010018f00020782b01209cbf0000b3
:101a640000c00000ccbf000020c0000004f17802d8
:101a740004f14401d4f8c8001ff024fab8b1d4f832
:101a8400c4301b6894f87d20039294f87c20029261
:101a940094f87b20019294f87a2000925f6894f87d
:101aa400793094f87820c0492846b847afe729f040
:101ab4005dfbd4f8ac30c71a29f06cfb00eb800056
:101ac40087427ff6f0aed4f8c4301b681b68b74970
:101ad4002846984729f04afbc4f8ac00e3e61021f5
:101ae400204624f015ff95e7d4f8c4305d6804f16e
:101af4004402618a01202bf0e5fea087b0f1ff3f8c
:101b040000f087800023aa4a4ff4807128f0a4ffd4
:101b1400e2680521b4f93c0009f090fa30b9d4f830
:101b2400c4301b681b68a349284698470222062133
:101b3400b4f93c0009f082fa30b9d4f8c4301b6817
:101b44001b689d4928469847d4f8c810b4f93c004e
:101b540023f0acfc05a9b4f93c0018f019febdf85b
:101b64005a30a4f87e30d4f8c4301b681b689349fb
:101b740028469847d4f8c4301b68628a029294f8c5
:101b84004720019294f8462000925f6894f845300b
:101b940094f844208a492846b8471121204624f065
:101ba400b7fe29f0e3fac4f8880028f07ffc054664
:101bb4000f462bf045fd79016b0141ead5625b1bb1
:101bc40062eb0702510241ead3514fea432c0a4621
:101bd4001ceb050347eb0202910141ea93614fead2
:101be400831cbceb030c61eb0201024600231cebdb
:101bf400050047eb010128f0e9fcd4f884301844cf
:101c0400c4f890004ff4c86255216e482bf0e2faf4
:101c140049e6d4f8c4301b681b686b4928469847ca
:101c24000121204624f074fe3de6d4f8c4305d68fa
:101c34000022618a01202af05ffd6087b0f1ff3f36
:101c440051d00023614a4ff4007128f034fdd4f8d8
:101c54008030002b53d104f1440300220121b4f954
:101c64003a0024f0cdff4ff48063a4f87e30d4f81a
:101c7400c4301b681b68514928469847d4f8c430bf
:101c84001b68628a029294f84720019294f84620d5
:101c940000925f6894f8453094f844204c492846f3
:101ca400b8470d21204624f033fed4f8b820032190
:101cb400b4f93a0017f08af830b9d4f8c4301b6884
:101cc4001b683c4928469847b4f93a0028f0dcfce4
:101cd40029f04cfac4f8ac004ff4c86254213948d6
:101ce4002bf078fadfe5d4f8c4301b681b68394957
:101cf400284698470121204624f00afed3e504f142
:101d04008003628a0121b4f93a001bf06ff8a2e75c
:101d140094f8cf30012b42d0d4f8c4305f68b4f9c2
:101d24003a0029f04afb002856d0b4f93a0028f0ca
:101d340097ff29f01bfac4f8880028f0b7fb054682
:101d44000f462bf07dfc79016b0141ead5625b1be8
:101d540062eb0702510241ead3514fea432c0a468f
:101d64001ceb050347eb0202910141ea93614fea40
:101d7400831cbceb030c61eb0201024600231ceb49
:101d8400050047eb010128f021fcd4f88430184405
:101d9400c4f890000e21204624f0bafd83e50f21fb
:101da400204624f0b5fd7ee580c0000040c0000060
:101db400d7cd0200acc00000d4c00000581c010004
:101dc400fcc0000018f00020b0be0000edcd020001
:101dd40034c1000064be000029f0c8f9d4f8ac3066
:101de400c51a29f0d7f900eb800085427ff65bad78
:101df400b4f93a0026f0baff4ff6ff736387d4f8bc
:101e0400c4301b681b684e49384698470f2120464a
:101e140024f07efd47e5204607f096f901280bd013
:101e240002287ff440ad0f21204624f071fd29f0f3
:101e34009df9c4f88c0036e5424f00bfb4f8b050a9
:101e44008db1b5f5c86f28bf4ff4c8652a46394629
:101e5400b4f93a0013f068feb4f8b0301b1aa4f8d1
:101e6400b0308542ead9b4f93a0029f0b9fa2046eb
:101e740011f0caf917e5227d0b21b4f93c0009f0f1
:101e8400ddf8204607f060f901280bd002287ff422
:101e94000aad1221204624f03bfd29f067f9c4f86d
:101ea4008c0000e5b4f8b05015b30027dff894a017
:101eb400a846b5f5c86f28bf4ff4c86842465146d6
:101ec400b4f93c0025f04afc0744bfb22d1aadb268
:101ed400804501d1002debd1b4f93c000ef06afd30
:101ee40040b900221146b4f93c0026f02efedae493
:101ef4002f46f1e7b4f8b030df1ba4f8b0702046e9
:101f040011f082f9cfe4204621f050feb4f93a00f2
:101f140026f02cff4ff6ff736387c4e4204621f0bc
:101f240045feb4f93c0025f039febce4012120460d
:101f340024f0eefcb7e41bb0bdec028bbde8f08fdf
:081f44006cc1000018f0002040
:020000040000fa
:101f4c00d02901201c00000000000000ac8c0020f7
:101f5c0004000000000000003c1e012004000000f2
:101f6c00000000003c2401200400000000000000e0
:101f7c00382d01200100000000000000ec2701209a
:101f8c000400000000000000f82a012008000000f6
:101f9c0000000000cf29012001000000000000001b
:101fac00492a01200100000000000000262d01201c
:101fbc0001000000000000004c290120040000007a
:101fcc0000000000272d012001000000000000008f
:101fdc005c2a0120040000000000000030280120d1
:101fec003c0000000000000000000020e45e000047
:101ffc0000000000f42a0120040000000000000092
:10200c00282b01201c0000000000000038be00201e
:10201c00100a000000000000292d01200100000022
:10202c0000000000002b0120080000000000000050
:10203c00442b01200c00000000000000b4250120fe
:10204c006c00000000000000342d01200100000095
:10205c0000000000402d0120d40000000100000011
:10206c00805d020000000000000000000000000085
:10207c000000000000000000000000000000000054
:10208c000000000000000000000000000000000044
:10209c000000000000000000000000000000000034
:1020ac000000000000000000000000000000000024
:1020bc000000000000000000000000000000000014
:1020cc000000000000000000000000000000000004
:1020dc0000000000000000000000000000000000f4
:1020ec0000000000000000000000000000000000e4
:1020fc0000000000000000000000000000000000d4
:10210c0000000000000000000000000000000000c3
:10211c0000000000000000000000000000000000b3
:10212c0000000000000000000000000000000000a3
:10213c0000000000e22e0120010000000100000060
:10214c00ff000000502b01200400000000000000e4
:10215c0040240120800000000000000068270120be
:10216c0044000000000000002a2d012001000000a6
:10217c0000000000542b01200400000000000000af
:10218c004c2a01201000000000000000281c012037
:10219c000c01000000000000582b0120040000007e
:1021ac0000000000602a0120100000000000000068
:1021bc005c2b0120040000000000000080260120a0
:1021cc005000000000000000b08c002078240000bb
:1021dc0000000000302d0120010000000000000074
:1021ec00602b0120040000000000000048210120a9
:1021fc00a400000000000000402501207400000035
:10220c0000000000702a01201000000000000000f7
:10221c000429012028000000000000008c2201206d
:10222c0090000000000000002c2d01200100000097
:10223c0000000000642b01200400000000000000de
:10224c002c2901202000000000000000282d012076
:10225c000100000000000000a82e01200c0000006e
:10226c0001000000f4010000d00700000100000094
:10227c005c2e012026000000010000000800080070
:10228c0002000100020008000006000601015400d3
:10229c0030303a30343a32353a30313a30323a30f2
:1022ac0031000000842e012012000000010000000b
:1022bc0030303a30343a32353a30313a30323a30d2
:1022cc0034000000982e01201000000001000000d6
:1022dc0001010000d5580200098402000000010031
:1022ec00d82e0120020000000100000000010000b7
:1022fc00202701204800000000000000b42e01201f
:10230c000600000001000000ffffffffffff0000c0
:10231c00a02a012018000000000000001c2301204e
:10232c009000000000000000682b01200c00000051
:10233c0000000000401e0120d8000000000000003a
:10234c00a42801203400000000000000742b0120a0
:10235c0004000000000000002b2d012001000000f3
:10236c0000000000782b0120040000000000000099
:10237c0018f0002040060000000000007c2b01201b
:10238c000c00000000000000b82a01200c00000026
:10239c0000000000802a0120100000000000000056
:1023ac002d2d01200100000000000000f22a012068
:1023bc0002000000000000004a2a01200200000078
:1023cc0000000000882b0120040000000000000029
:1023dc00902a012010000000000000008c2b01202e
:1023ec0010000000000000000c2d01200400000073
:1023fc00000000009c2b01200c00000000000000dd
:10240c002e2d01200100000000000000a82b01204f
:10241c000400000000000000082a01201800000041
:10242c0000000000ac2b01200c000000000000009c
:10243c00102d01200200000000000000b82b01202c
:10244c00040000000000000048e80020d007000055
:10245c0000000000bc2b0120100000000000000058
:10246c00122d01200200000000000000cc2b0120e6
:10247c000800000000000000382a012011000000b4
:10248c0000000000b02901201f0000000000000027
:10249c00d42b01200400000000000000142d0120aa
:1024ac000200000000000000d82b012010000000ea
:1024bc0000000000162d01200200000000000000aa
:1024cc00e82b01200800000000000000182d01205e
:1024dc000200000000000000f02b012010000000a2
:1024ec00000000002f2d0120010000000000000062
:1024fc00bc2e01200400000001000000640000005c
:10250c00142e01202800000001000000bb01030074
:10251c00d10101004b020100330203007c020300d5
:10252c00dd030300de030300e0030300e10301000d
:10253c00b3220100002c0120040000000000000068
:10254c006c2801203800000000000000042c012041
:10255c001000000000000000ac23012090000000df
:10256c000000000034100120800200000000000078
:10257c00142c01202800000000000000c42a0120b7
:10258c000c00000000000000202a012018000000b0
:10259c0000000000ec2901201c00000000000000dd
:1025ac003c2c01200400000000000000312d012013
:1025bc000100000000000000402c0120040000007d
:1025cc0000000000c02e01200400000001000000eb
:1025dc00ffffffff442c01200c0000000000000056
:1025ec00e82a01200a00000000000000502c012005
:1025fc001c000000000000001a2d01200200000049
:10260c00000000006c2c01200800000000000000fd
:10261c00322d012001000000000000004c170120a9
:10262c009c03000000000000502901206000000005
:10263c0000000000332d012001000000000000000c
:10264c00d82801202c0000000000000048c8002001
:10265c000010000000000000ac270120400000002a
:10266c0000000000082b01201000000000000000fa
:10267c00742c01200400000000000000352d012006
:10268c00010000000000000048d8002000080000f5
:10269c0000000000782c0120080000000000000061
:1026ac00181f0120c000000000000000d02a0120eb
:1026bc000c0000000000000048e0002000080000b2
:1026cc0000000000362d0120020000000000000078
:1026dc00182b01200800000000000000802c0120b5
:1026ec001000000000000000392d01200100000046
:1026fc0000000000341d0120080100000000000053
:10270c00902c01200800000000000000f0270120a0
:10271c004000000000000000ec210120a00000009f
:10272c0000000000822e01200200000001000000c9
:10273c0001000000202601206000000000000000c5
:10274c0028b10020100d000000000000982c012082
:10275c000400000000000000e45e0020c82d000012
:10276c00000000003a2d01200100000000000000d4
:10277c0098200120b0000000000000009c2c0120db
:10278c0008000000000000000c15012040020000b1
:10279c0000000000a42c0120080000000000000034
:1027ac00e81a012040010000000000003b2d012030
:1027bc000200000000000000d81f0120c000000033
:1027cc0000000000ac2c01200800000000000000fc
:1027dc001c2d01200200000000000000d807012081
:1027ec0088050000000000001e2d012002000000e2
:1027fc000000000098fc0020a00500000000000074
:10280c00202d0120020000000000000038020120f1
:10281c00a0050000000000003d2d0120020000007a
:10282c0000000000b42c01200c000000000000008f
:10283c00222d01200200000000000000c42e012007
:10284c00040000000100000096000000e32e0120af
:10285c00020000000100000006030000962e01207b
:10286c00020000000100000001000000c82e012041
:10287c000400000001000000dc050000c02c012059
:10288c00080000000000000058f600204006000080
:10289c0000000000c02401208000000000000000a7
:1028ac00ba2e0120020000000100000030c0000020
:1028bc003f2d01200100000000000000cc2e012063
:1028cc000400000001000000e0000001b41201202f
:1028dc005802000000000000c82c01200800000075
:1028ec0000000000600d0120d40200000000000078
:1028fc00242d01200200000000000000d02c01203b
:10290c002400000000000000d02e01200400000074
:10291c000100000009000000da2e01200800000070
:10292c0001000000ffffffffff07ff07f42c012051
:10293c000c00000000000000d42e01200400000058
:10294c000100000001000000002d01200400000027
:10295c0000000000d0260120500000000000000004
:10296c00042d012004000000000000003c2e01207a
:10297c002000000001000000010000000300000026
:10298c00000000000000000000000000000000003b
:10299c0000000000202b0120202b0120080000004b
:1029ac0000000000082d01200400000000000000c1
:1029bc00dc2a01200c0000000000000000000000d8
:1029cc000000000066666666666666666666666633
:020000040000fa
:1029dc0030b587b0044690f99030002b40f00f8151
:1029ec000378012b04bf0023037090f8d430042b20
:1029fc0000f25784dfe813f005008b00d9002f019b
:102a0c003b0390f90830b3f1ff3f57d090f8fc200e
:102a1c00012a22d051b229b1022a43d0ff2380f8d7
:102a2c009030dce003f01f01c3f34a1303f50200fe
:102a3c0000f580700022012303fa01f1c0012af095
:102a4c00d7fd2af0d7ff26f0b9fac4f8dc0094f8c9
:102a5c00fc30013384f8fc30cfe02af0cbff26f0b9
:102a6c00adfad4f8dc30984200f0c78094f9083005
:102a7c0003f01f0201219140c3f34a1303f5020036
:102a8c0000f580700a46c0012af0b2fd2af0b2ffb0
:102a9c0026f094fac4f8dc0094f8fc30013384f886
:102aac00fc30aae02af0a6ff26f088fad4f8dc3035
:102abc00c31a062b94bf002501258fe090f8fc303b
:102acc002bb1012b16d0ff2380f8903087e0002328
:102adc000193b44a009201220321d0f8ec0029f0b2
:102aec0065f8002800f0898094f8fc30013384f8f4
:102afc00fc3082e000230193aa4b009301231a4679
:102b0c000321d0f8ec0029f051f8054666e0d0f826
:102b1c00ec0094f8fc30042b43d8dfe813f00500ec
:102b2c00c6031300c6033300002200929e4b012102
:102b3c0029f028fb002860d094f8fc30013384f88d
:102b4c00fc305ae0d4f8e4309a0ac3f30913b2f516
:102b5c00f87f01d11b2b07d09449002021f0d0f82d
:102b6c00ff2384f890303ae0002200928e4b90497b
:102b7c0029f008fb002840d094f8fc30013384f88d
:102b8c00fc303ae0d4f8e43003f00f0384f8fe3064
:102b9c002bbb8849002021f0b3f8ff2384f8903038
:102bac001de0ff2384f8903027e090f8fc10c1f171
:102bbc00220200230093804b92b2804800eb01115b
:102bcc00d4f8ec001bf0bcff94f8fc500544edb2bb
:102bdc0084f8fc50222d14bf002501256db1002373
:102bec0084f8fc3094f8d4300133dbb284f8d43060
:102bfc00052b04bf022384f890300123237094f931
:102c0c009030022b00f0538394f90750c5f34a100f
:102c1c0000f5020000f58070c0012af057ff05f0a6
:102c2c001f0520fa05f515f0010f40f07683237887
:102c3c00012b04bf002323700021d4f8ec0009f011
:102c4c00a3fa0123237094f80431002b00f076834f
:102c5c000023237068e3d0f8ec0094f8fc302f2ba1
:102c6c0000f2fe81dfe813f030003000300030005d
:102c7c003000fc01fc01fc01fc01fc014a004a0093
:102c8c004a004a004a00fc01fc01fc01fc01fc0169
:102c9c0070007000700070007000fc01fc01fc0101
:102cac00fc01fc018b000102b0000102c600010214
:102cbc00dc000102f2000102080130014d0171013a
:102ccc009601bb01db01f2010093402305aa05210b
:102cdc0020461bf085f9054600283ff47faf059b85
:102cec0023b10a2384f8fc30002577e7344900200f
:102cfc0021f006f8ff2384f890306fe70a3bdbb233
:102d0c0000931f2305aa042120461bf069f90546f0
:102d1c0000283ff463af059b13f0100f18bf43f06e
:102d2c00e0035bb284f8f03013f1050f04db1423dd
:102d3c0084f8fc30002551e72149002020f0e0ff09
:102d4c00ff2384f8903049e7143bdbb200931f2338
:102d5c0005aa082120461bf043f9054600283ff43c
:102d6c003daf059b13f0100f18bf43f0e0035bb2af
:102d7c0084f8f1301e2384f8fc3000252ee7002364
:102d8c000093094b01220f4929f0fcf90546002854
:102d9c003ff424af94f8fc30013384f8fc30002568
:102dac001ce700bf2780010029a902000c270200a4
:102dbc0094000a003427020081cf0200cc140100d9
:102dcc004c27020084000400d4f8e430a4f8f2305c
:102ddc0000230093bd4b0122bd4929f0d3f90546d0
:102dec0000283ff4fbae94f8fc30013384f8fc303f
:102dfc000025f3e6d4f8e430a4f8f4300023009373
:102e0c00b24b0122b34929f0bdf9054600283ff425
:102e1c00e5ae94f8fc30013384f8fc300025dde697
:102e2c00d4f8e430a4f8f63000230093a74b012229
:102e3c00a94929f0a7f9054600283ff4cfae94f82c
:102e4c00fc30013384f8fc300025c7e6d4f8e430bc
:102e5c00a4f8f830002300939c4b01229f4929f0e1
:102e6c0091f9054600283ff4b9ae94f8fc300133d3
:102e7c0084f8fc300025b1e6d4f8e430a4f8fa303c
:102e8c0094f9f0309bb203f1090291b203f10e02f6
:102e9c0092b2120142ea8122b4f8f23003f00f032d
:102eac001a43002301930093012392b28c4928f01a
:102ebc007dfe054600283ff491ae94f8fc300133ba
:102ecc0084f8fc30002589e694f9f13028339bb264
:102edc00b4f8f420c2f3090242ea832200230193de
:102eec000093012392b27a4928f060fe054600282f
:102efc003ff474ae94f8fc30013384f8fc300025b8
:102f0c006ce694f9f0309bb25a1d91b2b4f8f620ed
:102f1c0022f47c5222f03f0242ea012212b292b217
:102f2c0009331a43002301930093012392b2694998
:102f3c0028f03cfe054600283ff450ae94f8fc30d7
:102f4c00013384f8fc30002548e694f9f0309bb24c
:102f5c0003f1090291b2b4f8f82022f47c5222f069
:102f6c003f0242ea012212b292b20e331a430023fc
:102f7c0001930093012392b2574928f017fe05469e
:102f8c0000283ff42bae94f8fc30013384f8fc306d
:102f9c00002523e694f9f0309bb203f1110291b2b3
:102fac00b4f8fa2022f47c5222f03f0242ea0122c9
:102fbc0012b292b216331a430023019300930123e9
:102fcc0092b2464928f0f2fd054600283ff406aec1
:102fdc0094f8fc30013384f8fc300025fee594f8bd
:102fec00fe50002301930093012345f6217243f612
:102ffc0031719d4218bf0a463a4928f0d7fd054663
:10300c0000283ff4ebad94f8fe30012b3ff4e6ad15
:10301c0094f8fc30013384f8fc300025dee5002305
:10302c0002930193012300934ff440734ff4807289
:10303c002d4928f012fc054600283ff4cfad94f83a
:10304c00fc30013384f8fc300025c7e500230193e4
:10305c00009301237d22254928f0a8fd0546bde5f6
:10306c00ff2384f890300025b8e50025b6e5d0f8ac
:10307c00ec0094f8fc30092b00f20f81dfe813f020
:10308c000a003c005100630076009500ac00cb00b8
:10309c00e4000101637e1bb9042384f8fc30ace529
:1030ac00a17d627d00230193114b0093012342ea21
:1030bc000122104928f07afd00283ff49ead94f8c7
:1030cc00fc30013384f8fc3097e500bf29a90200dd
:1030dc008a000400ad000400ae000400af00040040
:1030ec0084000400d000040088000a0039020a00a1
:1030fc0081cf020002ca0400e17d227e00230193ed
:10310c008f4b0093012342ea01228e4928f04efd99
:10311c0000283ff472ad94f8fc30013384f8fc3095
:10312c006be500230193864b009301238322864990
:10313c0028f03cfd00283ff460ad94f8fc300133de
:10314c0084f8fc3059e5002301937d4b0093012357
:10315c004ff400427d4928f029fd00283ff44dad85
:10316c0094f8fc30013384f8fc3046e594f8953043
:10317c0094f89420120442ea036294f892301a43b1
:10318c0094f89310002301936d4b0093012342eab2
:10319c0001226f4928f00afd00283ff42ead94f867
:1031ac00fc30013384f8fc3027e594f8971094f840
:1031bc00962000230193624b0093012342ea0122e3
:1031cc00644928f0f3fc00283ff417ad94f8fc3068
:1031dc00013384f8fc3010e594f8973094f896207d
:1031ec00120442ea036294f894301a4394f895104e
:1031fc0000230193524b0093012342ea01225649ca
:10320c0028f0d4fc00283ff4f8ac94f8fc300133df
:10321c0084f8fc30f1e4a37e002b4ff00003019303
:10322c00474b00934ff0010314bf102200224ff0c4
:10323c00011128f0bbfc00283ff4dfac94f8fc3003
:10324c00013384f8fc30d8e4e17e49f2e60249f21d
:10325c00e623002918bf1a46237f0bb142f4807273
:10326c0000230193364b00930123042128f09efc8c
:10327c0000283ff4c2ac94f8fc30013384f8fc30e5
:10328c00bbe400230193354b009301230c224ff434
:10329c00803128f08bfc0546a0e4ff2384f89030a5
:1032ac009de4ff2380f89030a7e4002596e4637e2c
:1032bc00b3b9d4f8e830002b3ff4a6ac2af09afb53
:1032cc0025f07cfed4f8e830c01a04287ff69cacbc
:1032dc000023c4f8e830d4f8ec002af0c7fa93e4e1
:1032ec002af088fb25f06afed4f8e030c31ab3f557
:1032fc007a7fded3c4f8e0002378012b04bf0023cf
:10330c00237000230093164b01221649d4f8ec00cd
:10331c0028f038ff01232370cbe794f804316bb10c
:10332c002378012b3ff494ac002384f80431012161
:10333c00d4f8ec0008f028ff0123237007b030bd4f
:10334c0081cf020005ca04008700040001ca0400f2
:10335c0024000100250001002200010001ca020026
:08336c0023b8020003ca0400ab
:020000040000fa
:103374005478204279746520436f756e742d6c6f98
:10338400776572203332626974732854784f544cd1
:103394004f290000add6020054782042797465208c
:1033a400436f756e742d7570706572203136626965
:1033b40074732854784f544849290000b7d6020042
:1033c4005478204672616d657320772f6f20657283
:1033d400726f722854784654434e542900000000fa
:1033e40000000000c1d6020054782042726f61646c
:1033f40063617374204672616d6573285478424327
:10340400465429000000000000000000cbd6020052
:103414005478204d756c74696361737420467261cd
:103424006d65732854784d4654290000000000004f
:1034340000000000d5d602005478205061757365f1
:10344400204672616d6573285478504654290000f3
:10345400000000000000000000000000dfd60200b1
:1034640054782036342d62797465204672616d6516
:103474007328547842465436342900000000000072
:1034840000000000e9d6020054782036352d313290
:10349400372062797465204672616d6573285442e1
:1034a400465431323729000000000000f3d60200f0
:1034b4005478203132382d323535206279746520c4
:1034c4004672616d6573285442465432353529007d
:1034d40000000000fdd602005478203235362d3528
:1034e40031312062797465204672616d65732854a8
:1034f40042465435313129000000000007d702004c
:103504005478203531322d3130323320627974656c
:10351400204672616d65732854424654313032330b
:103524002900000011d70200547820313032342da4
:10353400313531382062797465204672616d657366
:103544002854424654313531382900001bd7020033
:103554005478204672616d6573203e3d20313531cb
:103564003820627974652847544246313531382908
:103574000000000025d70200547820556e6465725f
:1035840072756e204672616d6573206e6f7420547f
:103594005865642854785455522900002fd70200e6
:1035a40054782053696e676c6520436f6c6c697343
:1035b400696f6e204672616d657328547853434673
:1035c4002900000039d70200547820322d313520eb
:1035d400436f6c6c6973696f6e204672616d6573bd
:1035e4002854784d434629000000000043d70200c8
:1035f400547820313620436f6c6c6973696f6e2088
:103604004672616d65732854784543434e542900ce
:10361400000000004dd702005478206c61746520ce
:10362400436f6c6c6973696f6e204672616d65736c
:103634002854784c43434e542900000057d70200c5
:103644005478204465666572726564204672616dc3
:103654006573285478445446290000000000000093
:103664000000000061d7020054782043617272693f
:1036740065722053656e7365206572726f722046a1
:1036840072616d6573285478435345296bd70200e2
:103694005278204279746520436f756e742d6c6f77
:1036a400776572203332626974732852784f524cb2
:1036b4004f29000075d702005278204279746520a2
:1036c400436f756e742d7570706572203136626942
:1036d40074732852784f5248492900007fd702005a
:1036e4005278204672616d657320772f6f20657262
:1036f400726f722852784652434e542900000000db
:103704000000000089d7020052782042726f616481
:1037140063617374204672616d6573285278424305
:1037240046522900000000000000000093d7020068
:103734005278204d756c74696361737420467261ac
:103744006d6573202852784d465229000000000010
:10375400000000009dd70200527820506175736507
:10376400204672616d6573285278504652290000d4
:10377400000000000000000000000000a7d70200c5
:1037840052782036342d62797465204672616d65f5
:103794007328527842465236342900000000000053
:1037a40000000000b1d7020052782036352d3132a6
:1037b400372062797465204672616d6573285442be
:1037c400465231323729000000000000bbd7020006
:1037d4005278203132382d323535206279746520a3
:1037e4004672616d6573285442465232353529005c
:1037f40000000000c5d702005278203235362d353e
:1038040031312062797465204672616d6573285484
:10381400424652353131290000000000cfd7020062
:103824005278203531322d3130323320627974654b
:10383400204672616d6573285442465231303233ea
:1038440029000000d9d70200527820313032342dbb
:10385400313531382062797465204672616d657343
:10386400285442465231353138290000e3d702004a
:103874005278204672616d6573203e3d20313531aa
:103884003920627974657328544d58424652290090
:1038940000000000edd702005278204672616d6589
:1038a40073203c203634206279746573285278552d
:1038b400465229000000000000000000f7d7020073
:1038c4005278204672616d6573203e20313531385f
:1038d4002062797465732852784f4652290000009b
:1038e4000000000001d802005278206572726f72e5
:1038f400204672616d6573203e2031353138206277
:10390400797465732852784a522900000bd8020052
:10391400527820435243206572726f72204672615e
:103924006d65732852784643534529000000000012
:103934000000000015d802005278204c656e6774b0
:1039440068206669656c64206572726f72204672c5
:10395400616d65732852784c464645291fd802008c
:1039640052782073796d626f6c206572726f722069
:103974004672616d657328527852534529000000e0
:103984000000000029d80200527820616c69676e3b
:103994006d656e74206572726f72204672616d651a
:1039a40073285278414529000000000033d80200f2
:1039b4005278205265736f75726365204572726f19
:1039c400722028527852524529000000000000005d
:1039d400000000003dd802005278206f76657272b4
:1039e400756e206572726f72204672616d65732800
:1039f4005278524f452900000000000047d80200c9
:103a040052782049504864722043686b73756d2066
:103a14006572726f72204672616d657328527849bf
:103a24004843452951d8020052782054435020433a
:103a3400686b73756d206572726f72204672616d6a
:103a44006573285278544345290000005bd802006e
:103a54005278205544502043686b73756d2065720d
:103a6400726f72204672616d6573285278554345b2
:083a74002900000065d80200e2
:020000040000fa
:043a7c00012070476e
:020000040000fa
:103a80002de9f04fadf20c5d012973dc4ff0140b02
:103a9000bbf5fa7f28bf4ff4fa7b27f063f80028c4
:103aa00074d04ff47a7029f0c5fc012029f0d6fdbe
:103ab000b749002020f02af94ff40c720021b6a873
:103ac00029f08afbb6a80ef027fb002840f094806e
:103ad0000df5367adae97689aba3d3e900234046bf
:103ae000494626f075fd06460f46c7aaa94900209b
:103af00020f00cf90df2da22a749002020f006f997
:103b00000df22442a549002020f000f9a44a40f219
:103b100046334046494626f05bfd804689463c22b6
:103b200000233046394626f053fdcde902234ff4f9
:103b3000616200233046394626f04afd1046194698
:103b40003c22002326f044fdcde9000142464b46cd
:103b50009449002020f0daf8dae9746792490020ed
:103b600020f0d4f856ea070314d04ff0010c4ff0c0
:103b700000081ae013460a220021586829f054fb75
:103b80008346002884d14ff0010b86e7874920f057
:103b9000bdf8b2e28649002020f0b8f830e000bf5e
:103ba00008f10108b8f1090f1fd0c8f12000a8f1f1
:103bb000200126fa08f307fa00f0034327fa01f17f
:103bc0000b4303f00104002554ea0503e8d0794bc8
:103bd00053f828307849794aac4518bf0a467849e5
:103be000284620f093f8ac46dae7c6f3412275493f
:103bf000002020f08bf803e07349002020f086f8c5
:103c00007249002020f082f838220021a8a829f06b
:103c1000e3faa8a813f098f90246002840f08f8034
:103c2000ae9caf9d9df8c032012b13d0684a694904
:103c3000022b18bf0a466849002020f067f89df85b
:103c4000d1324bb1012b3bd0644a6249022b18bfe1
:103c50000a4602e0624aeee7624a6349002020f029
:103c600055f89df8d2226149002020f04ff8e3b2c8
:103c70000393c4f307230293c4f307430193240e71
:103c80000094ebb2c5f307225949002020f03ef81a
:103c9000a89ad3b20193c2f307230093c2f3074358
:103ca000120e5449002020f031f89df8d0324bb16b
:103cb000012b42d0504a4749022b18bf0a4602e066
:103cc0004e4acae74e4a4f49002020f01ff84e499d
:103cd000002020f01bf84822002196a829f07cfa49
:103ce00096a817f0cbfe024670b3032847d0474989
:103cf000002020f00bf85a464549002020f006f835
:103d000029f0a0fc0990002029f0a8fc4ff4c8700d
:103d100029f090fbbbf1000f00f0f3810023002499
:103d2000cde906344ff0ff314ff0ff32cde90412f8
:103d30001e46a246a146a046abe0364ac3e7364936
:103d400000201ff0e3ffc2e7bdf858220df25a2110
:103d5000324821f019fbbdf86a229ba9304821f0b6
:103d600013fbbdf87c220df27e212e4821f00cfbc6
:103d7000bdf88e22a4a92c4821f006fbbbe72b49f5
:103d800000201ff0c3ffb6e700ca9a3b0000000006
:103d900000620000306200004862000060620000c3
:103da00000a0b83078620000a06200004cd301008f
:103db000b462000094b7020070a5020060610000c8
:103dc000c8620000d0620000e862000000630000ea
:103dd00068610000706100003463000074610000dd
:103de00064610000886100004c63000064630000af
:103df0007c630000b0630000a46100009c610000cf
:103e0000b0610000d06300000c640000b4640000e6
:103e1000dc640000bc610000e86300004064000056
:103e20004c6400005864000064640000706400008a
:103e300026f03efb401b61eb07014d01430145eac3
:103e4000d0621b1a62eb0102550245ead3555f02ac
:103e50002a463b1841eb0202950145ea93659f0112
:103e6000ff1a65eb0205099a0023381845eb01019a
:103e700026f0aefb21e009f1010901345b46224640
:103e8000aa4900201ff042ff0a2027f0c1f95c4533
:103e900029d026f00dfb05460f464ff40c72002189
:103ea0000aa829f099f90aa80ef036f90028e2d1fb
:103eb000099b002bbcd10020002108f10108361815
:103ec0004aeb010adde90423994208bf904238bf5a
:103ed000cde90401dde906238b4208bf8242ccd242
:103ee000cde90601c9e7642404fb09f4b4fbfbf443
:103ef0000194cdf8009043465a468d4900201ff0aa
:103f000005ffb8f1000f28d19df8c032022b69d10e
:103f1000884a894900201ff0f9fe884900201ff0d7
:103f2000f5fe29f08ffb8246854bd3f800b0854b18
:103f3000d3f8009026f0bcfa04900691002029f0f6
:103f40008dfb4ff4c87029f075fa002425464ff414
:103f50000c777d4edff8148256e0002542462b4652
:103f60003046514626f034fb06460f464ff47a722f
:103f70000023dde9049a4846514626f029fb904685
:103f80004ff47a7200234846514626f021fb8146c1
:103f90004ff47a720023dde906ab5046594626f00d
:103fa00017fb03924ff47a7200235046594626f0cd
:103fb0000ffb02904ff47a7200233046394626f008
:103fc00007fb01924ff47a7200233046394626f0ff
:103fd000fffa009043464a465c4928461ff096fe89
:103fe00092e75c465a4a5b4b022c98bf1a4690e710
:103ff000a6fb0423db0803eb8303a4eb4303092b99
:104000000ed001341e2c12d03a4600210aa829f005
:10401000e3f80aa80ef080f80028e9d10135e7e7b7
:104020001e23621c414600201ff070fee9e74a494a
:1040300000201ff06bfe26f03bfabaf1000f32d0e1
:10404000049bc01a069b61eb03025401430144ea3e
:10405000d0611b1a61eb02018c0044ea93749e004c
:104060002146301842eb0101cb0043ea5073c200f5
:10407000104619465246002326f0aafa304b1f6814
:10408000a7eb0b072f4b1968a1eb09017a18034620
:1040900090b1d600b6fbf0f64ff47a7404fb05f449
:1040a000b4fbf0f40be0264b1f68a7eb0b07254b86
:1040b0001968a1eb0901ca19002633463446039159
:1040c0000297019200951e22244900201ff01efe37
:1040d00033462246224900201ff018fe21490020c5
:1040e0001ff014fe204900201ff010fe40f2dc50ab
:1040f00029f0a0f9032029f0b1fa0df20c5dbde81a
:10410000f08f0020019000900346024608491ff0fe
:10411000fdfd9df8c032022b05d0bbf1000f7ff4ee
:1041200060af0b4af5e6034af3e600bf20650000e6
:1041300038650000f4610000a4650000b46500006b
:10414000c42c0120c02c0120cdcccccc706500004b
:10415000c4610000dc6100000c6600002c660000f9
:1041600078660000ac660000e8660000f4650000b8
:020000040000fa
:104170002de9f04f8db0d0f850a00a68436d846de2
:1041800083ea040e0eea0a0e8eea040ed84bc46cc3
:1041900023440a9213449e440aeb7e6e4e68436d9c
:1041a0008aea030707ea0e075f40d24b856d2b446e
:1041b000009633441f440eeb37578b681a468aea41
:1041c0000e053d4085ea0a05cb4b446d2344019220
:1041d00013441d4407ebf535cb681c468eea0706f1
:1041e0002e4086ea0e06c54b5344029423441e44d7
:1041f00005ebb6260b691c4687ea050333407b4076
:10420000bf4a039422449644734406eb73694a6997
:10421000134685ea060404ea09046c40b94a04938b
:104220001a4417443c4409eb34548b6986ea09026a
:1042300022407240b44f05931f443d442a4404eb8e
:10424000f232cf6989ea040808ea020888ea090814
:10425000ae4d06973d442e44b04402ebb8280f6a99
:1042600084ea020c0cea080c8cea040ca84d0797af
:104270003d4409eb05039c4408eb7c6c4d6a82eae3
:10428000080909ea0c0989ea0209a24b08952b449e
:104290001c44a1440ceb39598b6a88ea0c0e0eead7
:1042a000090e8eea080e0993a3f524434f3b1a44e6
:1042b000964409ebfe3eca6a16468cea090505eaf1
:1042c0000e0585ea0c05944b1344984445440eebc7
:1042d000b525d1f8308089ea0e072f4087ea090713
:1042e0008e4b43449c44674405eb7767d1f834c058
:1042f0008eea05033b4083ea0e03894a62449144f7
:104300004b4407eb3353d1f8389085ea07041c403f
:104310006c40844a4a449644744403ebf434d1f824
:104320003ce087ea030222407a407f4971440d4411
:104330002a4404ebb22284ea020b0bea030b8bea59
:10434000040b7a49009d29440f44bb4402ebfb6bec
:1043500082ea0b07274057407549059d29440b44c5
:104360001f440bebf7578bea0703134083ea0b0359
:1043700070490b9631440c44234407ebb34387ea5e
:10438000030505ea0b057d406b490a9c21440a445c
:10439000154403eb353583ea05023a405a40674934
:1043a000049e31448b445a4405ebf26285ea0201d3
:1043b00019406940624c099e34442744394402eb59
:1043c000f15182ea01042c4054405e4f77443b4453
:1043d0001c4401ebb44481ea040313404b405a4fa0
:1043e000039e37443d442b4404eb333384ea030bf0
:1043f0000bea010b8bea040b544d089e35442a440a
:10440000934403ebfb6b83ea0b0727405f40504a62
:104410004a4411440f440bebf7578bea07051d4044
:1044200085ea0b054b4a02990a441444254407ebdc
:10443000b54587ea050202ea0b027a404649079e23
:1044400031440b441a4405eb323285ea02033b4007
:104450006b40424961448b445b4402ebf36382ea64
:104460000301294051403e4c019e344427443944c5
:1044700003ebf15183ea010414405c40394f069e7e
:1044800037443d442c4401ebb44481ea040b0bea6d
:1044900003054d40344f47443a44154404eb353549
:1044a000049fa7f5b822a2f2be6213448bea050b63
:1044b0005b4405eb337384ea05025a402b4f079e99
:1044c00037443944114403eb715185ea030b8beafd
:1044d000010b274a0b9f3a4414445c4401eb3444db
:1044e00083ea01076740234a4a4415442f4443e0c6
:1044f00078a46ad756b7c7e8db702024eecebdc1da
:10450000af0f7cf52ac68747134630a8019546fdb4
:10451000d8988069aff7448bbed75c892211906b25
:10452000937198fd8e4379a62108b44962251ef641
:1045300040b340c0515a5e26aac7b6e95d102fd6d7
:104540005314440281e6a1d8c8fbd3e7e6cde121ac
:10455000d60737c3870dd5f4ed145a4505e9e3a90d
:10456000f8a3effcd9026f678a4c2a8d81f6718718
:1045700022619d6d0c38e5fd04eb772781ea04028a
:104580007a40944d009e35442b44134407eb33731b
:1045900084ea07025a40904d039e35442944114451
:1045a00003eb715187ea030b8bea010b8b4a069de3
:1045b0002a441444a34401eb3b4b83ea010282ea00
:1045c0000b02874c099d2c4427443a440beb722282
:1045d00081ea0b045440834d65442b44234402eb91
:1045e00033738bea02075f407f4c0a9e34442144b8
:1045f0000f4403eb775782ea03057d407b49029c19
:1046000021448b445d4407eb354583ea070b8bea75
:10461000050b7749059c21440a44934405eb7b2b09
:1046200087ea050484ea0b04724a08990a44134491
:104630001c440beb347485ea0b0161406e4b434420
:104640001f44394404eb71518bea04034b406b4a1d
:10465000724415441d4401eb354584ea01026a4069
:10466000674b019f3b449b445a4405eb722262ea2c
:1046700001036b40634f37443c44234402ebb36374
:1046800063ea050b8bea020b5f4c069f3c44214416
:104690008b4403ebbb5b6bea02075f405b49494419
:1046a0000d442f440beb774767ea030484ea0b04bd
:1046b0005749049d29440a44144407ebf42464ea4e
:1046c0000b057d40534a424413441d4404ebb56539
:1046d00065ea070888ea04084f4b02990b449b449b
:1046e000d84405ebb85868ea04036b40099aa2f570
:1046f0008016a6f683363e44334408eb734363eae0
:10470000050989ea08094549009e31440c44a14441
:1047100003ebf92969ea08065e40414a07990a4411
:1047200015442e4409ebb66666ea030181ea0901e5
:104730003c4a72449044414406ebb15161ea090499
:104740007440394a059d2a4413441c4401eb7444c7
:1047500064ea06054d40354b634499444d4404ebef
:10476000f52565ea01076740314a039b1a44164460
:10477000374405ebb76767ea04036b402d4a0b9e8d
:1047800032441144194407ebb15161ea05067e40f9
:10479000294a019b1a441444344401eb7444c36c09
:1047a0003b44c36464ea07074f40244b089a134410
:1047b0001d442f440aeb040505ebf7250565436d01
:1047c0001c444465836d1944816500200db0bde82b
:1047d000f08f00bf44eabea4a9cfde4b604bbbf60e
:1047e00070bcbfbec67e9b28fa27a1ea8530efd4f5
:1047f000051d880439d0d4d9e599dbe6f87ca21fe1
:104800006556acc4442229f497ff2a43a72394abee
:1048100039a093fcc3595b6592cc0c8fd15d848524
:104820004f7ea86fe0e62cfe144301a3a111084eb1
:10483000827e53f735f23abdbbd2d72a91d386ebad
:020000040000fa
:104840002de9f04f2ded048bd1b006900c4611925e
:1048500015930023adf87e30102120a826f0c4fc6b
:1048600018b1002027f08cfe40b9b14900201ff09c
:104870004dfa51b0bdec048bbde8f08fad4b209ae2
:104880001a600022ac490df17e0016f021fcab4b02
:10489000186000283fd0642ca8bf6424012cb8bf46
:1048a00001242646149423f049fba54b1860a54d1e
:1048b0004ff6ff742c80a44b1c800020a34b186083
:1048c00040f2ff73a24a1380a24a1380a24b1880c1
:1048d000984a069b0493039641f289330293d37856
:1048e000019393780093537812789c491ff00efa45
:1048f0004ff4167028f09efd022028f0affe2b88a2
:10490000a34240f0bd82052308934ff0040bdff86b
:1049100068a2a9467ce292491ff0f8f9a9e70027ae
:10492000adf860708df86270adf85c704ff0080af9
:104930008df86ea04ff009098df86f900223adf845
:104940006c301ba823f0fafc192026f061fc8df8ce
:1049500060a08df8619001238df86230814b1f605b
:10496000276017a918a818f02dfc002840f09582a0
:10497000bdf85c3033804ff6ff72934256d044e06e
:1049800003278df86c7002238df86d3008238df8a5
:104990006e30192026f03cfc39461ba821f08cfd16
:1049a0000346002841d004238df86c3001238df894
:1049b0006d3007238df86e30192026f029fc39461a
:1049c0001ba821f079fd034678b300238df86c30e5
:1049d0008df86d308df86e30192026f019fc3946af
:1049e0001ba821f069fd031c18bf01231de0322024
:1049f00026f00efc013d1fd02368002b40f0eb8118
:104a000032884ff6ff739a4289d00023adf86030a8
:104a100018a90e201df05cfa034630b1bdf86020e5
:104a200041f258039a42abd0434623602368002bdf
:104a3000ddd0012d40f0cf81424b18884ff6ff7139
:104a4000494a4a4b884218bf1a46404b1868474ba0
:104a50004549002808bf0b46454900201ff056f97c
:104a6000462028f0dffc23f069fa1390002028f09c
:104a70003aff0e904ff47a73069a03fb02f21292f9
:104a800000230f9310939fed269b45e14ff0010902
:104a900022461ba90e9825f0e9f800280add9df8aa
:104aa0006c30032bf2d003f0df03512b08bf4ff023
:104ab0000109ede7264b1888264b1c88a4b240f666
:104ac000ff75281a26f046ff00222a4b12f0baff83
:104ad00015a3d3e900230cf009fecde90801281b3a
:104ae00026f038ff0022234b12f0acff0ea3d3e9cf
:104af00000230cf0fbfdcde90a01dff88080c346fe
:104b00004ff0000ab0ee498af0ee698a119bff2b44
:104b1000a8bfff23012bb8bf01230d9377e000bf8f
:104b200000000000000000000000000000feaf4098
:104b3000b05c0100cc2c01203f120200dc2c0120d3
:104b4000e82c0120dc2e0120da2e0120d02c0120bf
:104b5000de2e0120e02e0120242d0120045d010025
:104b6000e45c0100c82c01209c5c0100a45c0100f5
:104b7000545d010000002240e42c0120b412012009
:104b80000d9826f0e7fe32463b4612f05bff0646e4
:104b90000f4626f011fe2070d8a3d3e9002330463b
:104ba000394612f04fff26f007fe60700023a37015
:104bb000013503340a2d23d0284626f0cbfedde94b
:104bc000082328f029ff02460b4612f03bffdde9df
:104bd00006230cf012f80022b34b0cf087fd0246be
:104be0000b460020b14928f017ff06460f4653ec4c
:104bf000182b24f02bfe0028c2d057ec186bbfe70f
:104c00000af1010a0bf13c0bbaf10a0f0fd0504622
:104c100026f0a0fedde90a2328f0fefe02460b4640
:104c200012f010ffcde906015c460025c4e7a04b59
:104c30001b889bb283b1159a032ab8bf0322012bac
:104c400013dd9342a8bf1346d31a03ebc303023a02
:104c500093fbf2f3974a1360964b1e6800215e9d0a
:104c6000ff2da8bfff25084606e00223ece701312f
:104c700008f13c080a2910d025eae5738e4218bfd6
:104c80000023dab2434608f11e049877d87783f8f8
:104c9000202003339c42f8d1e9e71421002011f0d1
:104ca0006bf90f9b13f0010f44d01df0afff0028ec
:104cb0003dd00f9b01330f9322f0a0fa23f03ef971
:104cc0000446109bc31ac72b1cd97b4b1a887b4bfd
:104cd0001b887b490d687b497b48002d08bf014636
:104ce00073480588794807687648774e002f08bfd3
:104cf0003046029001950091754900201ff006f89a
:104d0000109400bf4ff47a70149b90fbf3f026f0e0
:104d10007ffab9f1000f14d123f010f9139bc01ad8
:104d2000129b984211d24ff000090124b0e61bf00b
:104d3000a5fcbee71bf0a2fc0028bad11df066ff5f
:104d4000b7e7644900201ef0e1ff634900201ef030
:104d5000ddff4ff416720021604828f03dfa14215f
:104d6000002011f009f91e2026f052fa142100202b
:104d700011f002f95a4b1b884ff6ff72934213d180
:104d8000584b1b884ff6ff72934213d1564c206844
:104d900027f082f80023236040f2dc5028f04afb21
:104da000032028f05bfc64e5adf86c301ba824f010
:104db000bff9e5e7adf86c301ba824f09bf9e5e7f7
:104dc000474b1a884ff6ff739a4201d0474a0ce0ce
:104dd000474a464b40e6424b1a884ff6ff739a42c9
:104de00002d0424a134637e6414a404b34e64ff67a
:104df000ff73a9f80030322026f00afa089b013b25
:104e000008933dd0b9f800204ff6ff739a4237d18e
:104e10000024189419941a94adf85c404ff00c08d3
:104e20008df86e800d278df86f700e268df87060ee
:104e30000f258df87150adf86cb01ba823f07efae9
:104e4000192026f0e5f98df860808df861708df8f5
:104e500062608df8635001238df86430254b1a93fe
:104e6000caf8004017a918a812f0eefa0028bed11f
:104e7000bdf85c30a9f800304ff6ff729342bad00b
:104e8000282026f0c5f91c4bd3f80080b8f1000f9c
:104e900096d10525134e1c46b2e54ff6ff733380bd
:104ea000c4e500bfaff30080000019400000f03ff0
:104eb000242d0120d02e0120de2e0120e02e012005
:104ec000ec2c0120a85c0100ac5c0100d42c01207a
:104ed000905d0100bc5d0100dc5d0100b4120120a9
:104ee000dc2e0120da2e0120dc2c0120a45c010044
:104ef0009c5c0100b8571d00d02c01209a9999990b
:044f00009999e13f5b
:020000040000fa
:104f0400b14b834240f04183b04b93f90020531ed0
:104f1400dbb2012b00f239832de9f04f87b0ac4ba3
:104f24001b685bb1012a1ad0a94b1c68a64b1b88cd
:104f3400002b00f01c830025a34e7be0a54b1b68cf
:104f440002a89847002800f3f58220b9029810b10e
:104f540004f012fdeee29d4b00221a70eae29e4b31
:104f64001b68b3f1ff3fdfd19c4a0021052027f0e5
:104f7400cdfa994b1860b0f1ff3f2ed026f00af914
:104f840000eb800303f2e733954aa2fb03239b095a
:104f94004ff47a7606fb03f3b3fbf0f6914b1e60f5
:104fa4000225914c04e001351034282d00f0d682fe
:104fb4002368002bf7d0b4f90a20002af3d0214645
:104fc400a8b226f01ff80028edd106f5a673b3fbae
:104fd400f6f306fb03f6854b1e6028f02bfb88b91d
:104fe4001af0befb794bff221a7028f023fb00282d
:104ff40000f0a08228f018fb4ff0ff327c491ef02d
:1050040083fe97e228f010fb05227a491ef07cfe0d
:10501400e6e7032304222146304620f0b9f894f849
:10502400433043f0800384f84330013574343188cd
:105034008d424bdae06c0028f7d0636c9b6998478b
:1050440094f8433013f0400fefd0636c5b69e06c6d
:1050540098470028dddb0228e7d10023029303935d
:105064000493059340f2dc53adf81230636c1b6c6f
:1050740002a9206d98470298e063bdf80c30a4f8ab
:105084004030bdf80e30003318bf012394f843209c
:1050940063f3451284f84320bdf81230a4f8663057
:1050a4009df8153084f868309df8143084f8693020
:1050b40094f8423043f0400384f84230d3b203f012
:1050c400bf0343f0800384f84330aee73f4b93f9ca
:1050d4000030012b25d0002020f0e4fc464b1b6857
:1050e40033b9464b1a68464b1b68134300f02282bf
:1050f400414b1b68002b40f089804ff000083f4b68
:105104001b68002b00f091813c4b00221a60304b4d
:105114001c682d4b1b88002b00f01a811646394f52
:10512400e8e02b4b1e68002900f027823246002558
:105134002b46012706e007fa03f0054301337432d6
:10514400994212d092f8430000f00c04042cf2d1de
:1051540010f0800f00f0ee8192f8420010f0400f42
:10516400ecd007fa03f00543e8e7012202fa03f35f
:10517400013bab4200f00182134b1b88abb100240e
:1051840044f24008104f0ae0032304223146384613
:105194001ff0feff013474363b889c4205dab6f8f2
:1051a400423018ea030ff5d0eee7084bff221a70dd
:1051b40028f040fa002800f0bd8128f035fa2a468c
:1051c40011491ef0a1fdb5e1ec290120312d01208a
:1051d400382c01203c2c0120c02e012069af020094
:1051e400d34d6210302c0120541001202c2c0120ae
:1051f40094b4010064b40100242c0120402c01204b
:10520400282c0120b823012004b501000025b44b4b
:105214001d6028f015fa044625f048f906460f46a5
:1052240022462b4625f0d2f9ae4b1860ae4aa2fbbb
:10523400043292092b463046394625f0c7f9ab4b68
:105244001860ab4b1b68ab4a12689b1aab4204dd77
:10525400a74a13604ff0010851e703f24d13a44a23
:105264001360a54b1c68a54b1b88002b00f06c81b8
:105274000025a24e0ee094f86a3043f0020360f376
:10528400820360f3000384f86a3001357434338890
:105294009d420fda94f8423013f0400ff5d0636c5e
:1052a4005b6a206d984794f86a3003f001039842d2
:1052b400e1d1eae74ff0010821e74ff0010823e7c5
:1052c400002503e08c62384627f03dfa636c5b6b83
:1052d4002a462946206d984701460028f2d1884a7b
:1052e40013680133136029e001367434834b1b883f
:1052f400b3422ddd94f8423013f0400ff4d0b4f8eb
:105304006250636c5b6d206d98470543adb228f025
:105314006dfbb4f8623023ea0503a4f8623028f088
:1053240069fbb4f864302b43a4f86430636c1b6de0
:105334002946206d984715f0160fc1d194f84330d3
:1053440013f0200fd0d0636c9b6b206d9847cbe794
:105354004ff0000bdff8b49109f10c07dff8b0a1ae
:105364000af10803019305e001226ff00c012846bd
:1053740024f07cff384626f079ff054600284bd000
:105384006b699b891c0a44ea0324a4b2a86a866d4b
:105394002eb1c36d22462946b0470028ead12846db
:1053a40003f086fa0028e5d140f606039c420dd0ae
:1053b400b4f5006f07d04ff6ff739c42d4d10af1c5
:1053c4001004022604e0019c012601e00026544654
:1053d4002b6a23f47c132b62626813432b6260886c
:1053e40000eb4000294609eb800027f0acf90123cb
:1053f40003fa06f616ea0b0fbcd14bea060b6388d8
:10540400404800eb0310038943f0010303810022a9
:10541400012126f09bffade728f0e8fa394a138b07
:1054240023f00103138328f0e5fa334b1b68334a56
:10543400108820b3002240f286651446324e09e0fb
:105444003168013131600ee0a3f8644001327433f5
:10545400824214d093f8421011f0400ff6d0b3f802
:1054640064100d42ecd193f86a1011f0020febd0e6
:1054740093f86a106ff3410183f86a10e4e7b8f116
:10548400000f66d11f4d05f1300405f5247544e085
:105494001344a381238943f00203238100220221c0
:1054a400204626f053ff1034ac420fd02368002b63
:1054b400f9d0b4f90a20002af5d03168a3895b1a1f
:1054c4009bb219b20029e3dda181ece728f08efa42
:1054d4000c4a138923f00203138128f08bfad1e7d5
:1054e400242c0120182c0120d34d6210142c0120ef
:1054f4002c2c0120302c0120382c0120ec290120f7
:10550400202c0120341001201c2c0120ac2301206c
:1055140018bd02001034ac4209d054f8103c34f8e1
:10552400082c002bf6d0002af4d09847f2e7174b4a
:105534001b6813b907b0bde8f08f00224ff48071e7
:10554400134826f003fff5e7124b1b68002b7ff48a
:10555400b4ae114c114e04f51875a7e706f5a67301
:10556400b3fbf6f306fb03f60d4b1e60dce40d4bb8
:1055740093f90030012b7ff4aead0a4b02221a706e
:105584000949002024f002ffa5e57047282c0120da
:1055940044100120402c012054100120302c012003
:0c55a4002c2c0120312d0120d4b401007a
:020000040000fa
:1055b0002de9f04f8db083468a4600230893099366
:1055c0000a930b9343680393aa4b1968002940f38d
:1055d000a7829146a84b93f8ce30012b00f0a7820a
:1055e0000023a54d0133d8358b4200f0998295f800
:1055f000ce20012af6d1a04beb1adb1003ebc3023d
:1056000003eb4203c3eb432303eb8343dbf80020ac
:1056100054685a4299490398a047002485f8d1401c
:1056200002232b7485f8cf4041f289336b82944b6f
:10563000ab6125f0b1fd04906c6000eb80035b0072
:10564000ab6028602c75c5f8c4b0284621f00eff69
:10565000baf1010fc8bf012411dc95f8d130002b3d
:1056600000f0e581012b00f00c820db0bde8f08f59
:10567000012385f8d1300134e4b25445edda59f80c
:10568000246002227f49304626f096ff0028efd0a2
:1056900005227d49304626f08fff0028e8d00222ff
:1056a0007a49304626f088ff28b1052278493046ed
:1056b00026f082ff10b901232b74dce70222754922
:1056c000304626f079ff30b105227349304626f086
:1056d00073ff00285cd101232b741c44e4b259f8f9
:1056e0002460304627f030fbc7b207f1ff38b044e2
:1056f0006a49404627f0ddfbb8b16949404627f0ca
:10570000d8fb00283dd14ff47a7807f1ff3cbcf17b
:10571000000f33dd00273a464ff0010e3b4605945b
:105720007146b64644460e46e3e15d49404627f0e1
:10573000c0fb00285b4b0cbf4ff47a789846e4e737
:1057400002eb820200eb4202303adce12346059c88
:1057500003fb07f3424501d208fb02f208920993ca
:10576000dbf80010981800904e684f49dbf80400f1
:10577000b047089b099a1344ab617ce700221346ab
:10578000eae7012208a930461bf0e8fb089bf3e793
:1057900002224649304626f00fff28b1052244492f
:1057a000304626f009ff50b90134e4b2012208a9bd
:1057b00059f824001bf0d2fb089bab615be7022287
:1057c0003c49304626f0f8fe28b105223a493046d9
:1057d00026f0f2feb8b9002385f8d1300134e4b2e6
:1057e000042208a959f824001bf0b8fb089b85f88f
:1057f0004430099b85f845300a9b85f846300b9b61
:1058000085f8473037e702222c49304626f0d4fe8f
:1058100028b105222a49304626f0cefe78b9013457
:10582000e4b2012208a959f824001bf097fb089b59
:10583000049a02fb03f3ab6000236b601be70222b8
:105840002049304626f0b8fe30b105221e493046c8
:1058500026f0b2fe002839d10134e4b2012208a9b1
:1058600059f824001bf07afb089b6b600023ab60a7
:1058700001e700bf782b0120401e0120f01c010031
:1058800080969800141b0100181b0100241b0100c6
:10589000281b0100301b0100341b0100401b0100cc
:1058a000441b010040420f00481b0100641b010023
:1058b000681b0100741b0100781b0100841b0100a0
:1058c000881b0100901b0100941b010002229949d2
:1058d000304626f071fe30b105229749304626f059
:1058e0006bfe002836d10134e4b259f82400437825
:1058f000782b17d0012208a91bf030fb9df820005f
:105900000246202820d018d9a0281ad0c0281ed19d
:1059100010232b75dbf800305e682b7d87490398d8
:10592000b047a8e683788df81f30c3788df81e3015
:10593000bdf81e0023f0e0f9e2e740b900232b7523
:10594000e8e720232b75e5e708232b75e2e7002322
:105950002b75dfe702227a49304626f02dfe28b16a
:1059600005227849304626f027fe58b90134e4b2c2
:10597000012208a959f824001bf0f0fa089ba5f8a9
:10598000d23078e602227049304626f015fe28b162
:1059900005226e49304626f00ffe68b90134e4b2a4
:1059a000012208a959f824001bf0d8fa089b049a90
:1059b00002fb03f32b605ee602226549304626f0c7
:1059c000fbfd28b106226349304626f0f5fd50b9ab
:1059d0000134e4b2012208a959f824001bf0befaf0
:1059e000089b6b8247e602225b49304626f0e4fdc5
:1059f00038b105225949304626f0defd00287ff4f3
:105a00003aae0134e4b2012208a959f824001bf08f
:105a1000a5fa089b332b01d9eb602ce6d5f8c430ee
:105a20001b685b6834224e49039898471de60021a5
:105a300005f1800025f030fec5f8c80098b12b7c38
:105a4000022b1bd0012b0cbfaa890022454b03fb64
:105a500002f3aa69b3fbf2f3c5f884300a212846a1
:105a600020f058ff01e6dbf800301b683e49039840
:105a7000984727f0a5fdc5f8c800e0e7b5f8d220a3
