:020000040000fa
:10000000f0ff03201db6020025950300299503008b
:100010003195030035950300399503000000000079
:1000200000000000000000000000000041950300f7
:100030002d95030000000000419503004195030049
:10004000419503004195030041950300419503004c
:10005000419503004195030041950300419503003c
:10006000419503004195030041950300419503002c
:10007000419503004195030041950300419503001c
:10008000419503004195030041950300419503000c
:1000900041950300419503004195030041950300fc
:1000a00041950300419503004195030041950300ec
:1000b0004195030041950300419503002f930300f0
:1000c00039930300419503004195030041950300d6
:1000d00041950300419503004195030041950300bc
:1000e000419503004195030000000000000000005e
:1000f0000000000041950300b5cd0100b5cd010021
:10010000b5cd0100b5cd0100250c0300250c030081
:10011000250c0300250c03004195030041950300c5
:10012000419503004195030041950300419503006b
:10013000419503004195030041950300419503005b
:10014000419503004195030041950300419503004b
:10015000419503004195030041950300419503003b
:10016000419503004195030041950300419503002b
:10017000419503004195030041950300419503001b
:10018000419503004195030041950300419503000b
:100190005d5e030041950300419503004195030016
:1001a00041950300419503004195030041950300eb
:1001b00041950300419503004195030041950300db
:1001c00041950300419503004195030041950300cb
:1001d00041950300419503004195030041950300bb
:1001e00041950300419503004195030041600300e0
:1001f00041950300316e03004195030041950300d2
:10020000419503004195030041950300419503008a
:10021000419503004195030041950300419503007a
:10022000419503004195030041950300419503006a
:10023000419503004195030041950300419503005a
:10024000419503004195030041950300419503004a
:10025000419503004195030041950300419503003a
:0402600041950300c1
:020000040000fa
:10026400f8b500bff8bc08bc9e46704715340300bf
:10027400f8b500bff8bc08bc9e467047f1330300d4
:020000040000fa
:080284008c27010001000000bd
:020000040000fa
:10028c004f4b20284c444f29000000002a2a2042c2
:10029c0055434b20616374697665202d3e2073773e
:1002ac006974636820746f204c444f206265666fdc
:1002bc0072652044504c4c31202a2a004f53435530
:1002cc004c5033324b2028666f726365642c20616e
:1002dc007070726f782900004f5343554c50333275
:1002ec004b2028696e7465726e616c2c2061707085
:1002fc00726f78202d20584f534333324b20756e3c
:10030c00617661696c61626c6529000050415353e0
:10031c0020287e3132204d487a2c202b2f2d323044
:10032c0030302070706d29004641494c00000000af
:10033c005041535320287e3132204d487a20707220
:10034c006573656e74290000504153532028434c4b
:10035c004b524459202b207e313932204d487a297a
:10036c00000000005041535320287e313932204d7b
:10037c00487a2070726573656e742900504153532e
:10038c0020287e3936204d487a2c206d6f6e6f7484
:10039c006f6e6963290000005041535320284f565b
:1003ac00462049535220657874656e647320746fcf
:1003bc002036342d62697429000000004641494cf6
:1003cc0020286e6f206f766572666c6f7720736570
:1003dc00656e29005041535320284857207374618f
:1003ec00626c653b2044464c4c20647269667473a5
:1003fc002061732065787065637465642900000062
:10040c00434845434b20286472696674206f7574a9
:10041c00736964652065787065637465642044460f
:10042c004c4c2062616e6429000000005041535313
:10043c00202864726966742070726573656e743bf3
:10044c0020636865636b207369676e290000000088
:10045c006e6f202874696d656f757429000000003b
:10046c0059455300544f47474c4544206279204529
:10047c0056535953202d20436f6d706172652d3e7c
:10048c0045565359532d3e4750494f206368616977
:10049c006e204f4b000000002a2a206e6f20746fd4
:1004ac0067676c65202d20636865636b2045565328
:1004bc0059532f504f525420776972696e67202a16
:1004cc002a000000726576004453552044494420ac
:1004dc002020203a2030782530386c580d0a000046
:1004ec0020207265766973696f6e203a202563202f
:1004fc002020285245564953494f4e206669656c59
:10050c0064203d202575290d0a000000202073650c
:10051c00726965732020203a2025752020202064e4
:10052c0069653a2025750d0a000000002020322e46
:10053c0031392e31204644504c4c206e6565647325
:10054c00204c444f203a2025730d0a002020322ed7
:10055c0031332e31204644504c4c2066616c73650f
:10056c002d756e6c6f636b3a207265762025632057
:10057c006973206561726c792028412d4429202de6
:10058c003e20757365204c4259504153532f57559b
:10059c00462f434c4b5244592061742044504c4cd0
:1005ac0031206272696e672d75700d0a00000000b3
:1005bc002020322e31332e31204644504c4c2066b4
:1005cc00616c73652d756e6c6f636b3a206e6f7416
:1005dc00206170706c696361626c6520287265764d
:1005ec002025632c20666978656420696e20462f6f
:1005fc0047290d0a00000000786f736300000000ab
:10060c00756c700020202a2a20584f5343524459ad
:10061c0031206e6576657220736574202d3e206ed8
:10062c006f203132204d487a20636c6f636b2061f0
:10063c00742058494e312028636865636b20593407
:10064c003031202f205234373120305229202a2aa1
:10065c000d0a0000465245514d3a206e6f207573bd
:10066c0061626c65207265666572656e6365206398
:10067c006c6f636b202d3e206d6561737572656dbb
:10068c00656e74206661696c65640d0a000000007b
:10069c002020646576696174696f6e203a20252b81
:1006ac006c642070706d2066726f6d2031322e304c
:1006bc003030204d487a20202d3e202025730d0a05
:1006cc00000000002020726573756c742020203aa5
:1006dc002025730d0a00000064706c6c0000000093
:1006ec00584f534331206e6f7420726561647920ca
:1006fc002d3e2072756e20276877636c6b20786fa7
:10070c0073632720666972737420286e6f203132f0
:10071c00204d487a20736f75726365290d0a0000ad
:10072c0044504c4c312063666720203a2052454699
:10073c00434c4b3d584f5343312c204449563d2597
:10074c00752028665f7265667e256c7520487a294f
:10075c002c204c44523d25752c204c425950415371
:10076c00532b575546202872657620412f44290d6e
:10077c000a00000044504c4c31206c6f636b203ae3
:10078c0020434c4b5244593d2564204c4f434b3d28
:10079c00256420287374617475733d307825303866
:1007ac006c58290d0a00000020202a2a20434c4bab
:1007bc00524459206e6576657220736574202d3e07
:1007cc002044504c4c31206e6f742072756e6e69e3
:1007dc006e672028726566206f7574206f662033f3
:1007ec00326b2e2e332e324d487a3f20584f5343c6
:1007fc003120646f776e3f29202a2a0d0a000000f1
:10080c002020465245514d3a206e6f20757361621f
:10081c006c65207265666572656e6365202d3e2081
:10082c0063616e6e6f74206d6561737572652044c3
:10083c00504c4c310d0a00002020746172676574b5
:10084c00203139322e303030204d487a2c206465de
:10085c007620252b6c642070706d20202d3e20207e
:10086c0025730d0a000000006e6f770044504c4c4d
:10087c00312f544332206e6f74207570202d3e2022
:10088c0072756e20276877636c6b2064706c6c27b4
:10089c002066697273740d0a000000005443322004
:1008ac0036342d626974203a20256c6c752074697d
:1008bc00636b7320202868693d256c75206c6f3d37
:1008cc00256c75290d0a0000202074696d652020a7
:1008dc002020203a20256c6c752e2530396c6c75d7
:1008ec00207320286e6f6d696e616c203936204d37
:1008fc00487a290d0a0000002020726174652020be
:10090c002020203a20256c7520487a206f7665725d
:10091c0020256c75206d7320287673205359535ff6
:10092c0054494d452f44464c4c2920202d3e202027
:10093c0025730d0a00000000777261700000000042
:10094c0054433220777261702020203a2068696706
:10095c006820776f726420256c75202d3e20256ce5
:10096c007520202d3e202025730d0a00636d70002c
:10097c00544332206e6f74207570202d3e2072759a
:10098c006e20276877636c6b206e6f772720666903
:10099c007273740d0a0000006877636c6b20636dd2
:1009ac007020203a2077696e646f7720256c752053
:1009bc00730d0a002020485720757074696d653ad4
:1009cc0020256c6c752e2530396c6c7520732028a5
:1009dc00584f5343312d3e44504c4c312d3e5443d3
:1009ec0032203936204d487a290d0a002020656cba
:1009fc00617073656420203a20485720256c6c7513
:100a0c00206e732020767320205359535f54494d28
:100a1c004520256c6c75206e7320202864656c74e1
:100a2c006120252b6c6c64206e73290d0a0000006c
:100a3c0020206472696674202020203a2053595378
:100a4c005f54494d4520252b6c642070706d2076c9
:100a5c007320485720202d3e202025730d0a0000be
:100a6c006c6472667261630044504c4c31206e6f42
:100a7c0074207570202d3e2072756e202768776368
:100a8c006c6b2064706c6c272066697273740d0a31
:100a9c00000000004c445246524143202020203a92
:100aac00202564202f2033312020284649584544e6
:100abc00202d206f6e2d7468652d666c79207475f1
:100acc006e696e67207374616c6c732044504c4c6f
:100adc00206f6e2072657620412f44290d0a00008c
:100aec0044504c4c312066726571203a20256c754f
:100afc0020487a202028252b6c642070706d20767d
:100b0c0073203139322e303030204d487a2c205819
:100b1c004f534333324b20726566290d0a00000097
:100b2c006469736369706c696e65203a20667265de
:100b3c007175656e637920697320636f727265637a
:100b4c0074656420696e20534f46545741524520ba
:100b5c00286e747020735f726174655f70706229a7
:100b6c00202d2073656520276e7470270d0a0000f8
:100b7c00686f6c6400000000686f6c643a20465229
:100b8c0045514d206e6f20584f534333324b2072da
:100b9c0065666572656e63650d0a00007068797331
:100bac006963616c20544332203a20256c752048cf
:100bbc007a202028252b6c642070706d2076732091
:100bcc0039362e303030204d487a2c207673205810
:100bdc004f534333324b290d0a0000002020746818
:100bec006520736f667477617265204e5450206c6b
:100bfc006f6f7020636f72726563747320746869b1
:100c0c007320726573696475616c20696e207468f9
:100c1c0065207265616420706174683b0d0a000088
:100c2c0020206265747765656e2d73796e6320681c
:100c3c006f6c646f766572207e3d20286c6f636be1
:100c4c006564206f73632e64726966742920782042
:100c5c00696e74657276616c202d20736565202732
:100c6c006e747027202f20276e7470207761746348
:100c7c0068272e0d0a0000006576740044504c4c19
:100c8c00312f544332206e6f74207570202d3e200e
:100c9c0072756e20276877636c6b206e6f772720d8
:100cac0066697273740d0a0061726d65643a205046
:100cbc002563257520746f67676c657320617420dc
:100ccc004343303d256c752028696e207e256c755c
:100cdc00206d73203d206e657874204e5450207327
:100cec0065636f6e64290d0a000000002020726598
:100cfc0067733a205443322e45564354524c3d3080
:100d0c007825303458202045565359532e434825c6
:100d1c00753d30782530386c582020555345522578
:100d2c00753d30782530386c5820205025632e4581
:100d3c00564354524c3d30782530386c580d0a00cf
:100d4c0020204d4330206d61746368203a20257358
:100d5c000d0a000020205025632575204f55542086
:100d6c00203a202575202d3e20257520202d3e2053
:100d7c002025730d0a00000020206e6578743a203f
:100d8c0073636f7065205025632575207673205032
:100d9c00432d50505320746f20766572696679200c
:100dac0074686520696e7374616e7420282b2f2d06
:100dbc00207573290d0a000075736167653a206808
:100dcc0077636c6b203c7265767c786f7363205b09
:100ddc00756c705d7c64706c6c7c6e6f777c7772fc
:100dec0061707c636d70205b736563735d7c6c6498
:100dfc0072667261637c686f6c647c657674205b70
:100e0c0070696e5d3e0d0a002020726576202020f0
:100e1c0020202020202d2073696c69636f6e207256
:100e2c0065766973696f6e20284453552044494494
:100e3c0029202b20726567756c61746f72202b20d2
:100e4c0065727261746120676174652028737465c2
:100e5c00702030290d0a00002020786f7363205b0e
:100e6c00756c705d202d20656e61626c6520584f2d
:100e7c0053433120283132204d487a2920616e6449
:100e8c00206d65617375726520697420776974686b
:100e9c0020465245514d2028737465702031293bf2
:100eac000d0a00002020202020202020202020209f
:100ebc0020202027756c702720666f726365732065
:100ecc0074686520696e7465726e616c204f534353
:100edc00554c5033324b207265666572656e636596
:100eec000d0a0000202064706c6c20202020202033
:100efc00202d206272696e672075702044504c4c16
:100f0c0031207e313932204d487a2066726f6d2047
:100f1c00584f534331202b20465245514d20766576
:100f2c00726966792028737465702032290d0a0065
:100f3c0020206e6f7720202020202020202d20368e
:100f4c00342d626974205443322074696d6562617a
:100f5c00736520283936204d487a293a2074696304
:100f6c006b732c206e732c206d65617375726564c8
:100f7c0020726174652028737465702033290d0a02
:100f8c00000000002020777261702020202020209b
:100f9c00202d20666f726365206120544332206fd0
:100fac00766572666c6f772c20766572696679202f
:100fbc007468652036342d6269742068696768200e
:100fcc00776f7264207469636b7320287374657017
:100fdc002033290d0a0000002020636d70205b7304
:100fec006563735d202d20636f6d706172652048a1
:100ffc005720636c6f636b207673205359535f5487
:10100c00494d452c207265706f72742072656c614d
:10101c00746976652064726966742070706d20281e
:10102c00737465702034290d0a00000020206c6454
:10103c007266726163202020202d2073686f7720e8
:10104c0044504c4c31204c445246524143202b20ae
:10105c006d656173757265642066726571202872a6
:10106c006561642d6f6e6c793b2074756e696e676b
:10107c0020697320696e205357292028737465707a
:10108c002036290d0a0000002020686f6c64202097
:10109c0020202020202d20706879736963616c20da
:1010ac00544332207261746520767320584f534339
:1010bc0033324b202b20686f6c646f766572206e18
:1010cc006f74652028737465702036290d0a000032
:1010dc002020657674205b70696e5d20202d206168
:1010ec00726d20612048572d74696d6564204750de
:1010fc00494f206564676520617420746865206eb3
:10110c00657874204e5450207365636f6e6420288c
:10111c0064656661756c74205042313729202873e0
:10112c007465702037290d0a000000004255434bae
:10113c0000000000526567756c61746f7220203a74
:10114c002025730d0a0000004572726174612067de
:10115c0061746520284453383030303037343829a6
:10116c003a0d0a004c444f00584f53433120656ee2
:10117c0061626c6520285854414c454e3d302c2002
:10118c0058494e312f50423232293a205244593d5f
:10119c0025640d0a000000006261642070696e20f5
:1011ac0027257327202875736520652e672e205000
:1011bc00423137290d0a0000465245514d207265c7
:1011cc006620203a2025732c205245464e554d3d25
:1011dc0025750d0a00000000584f534331206672ec
:1011ec006571203a20256c7520487a2020287e25b0
:1011fc006c752e2530336c75204d487a290d0a00fc
:10120c0020206e6f746520202020203a20696e7497
:10121c0065726e616c204f5343554c5033324b20ea
:10122c0072656620287e2b2f2d7365766572616c36
:10123c0020252529202d3e2070726573656e63650f
:10124c0020636865636b206f6e6c790d0a0000007b
:10125c00584f534333324b202865787465726e6156
:10126c006c204d454d53290044504c4c3120667236
:10127c006571203a20256c7520487a2020287e251f
:10128c006c752e2530336c75204d487a2925730ddd
:10129c000a0000000000000020205b4f5343554c17
:1012ac005033324b207265662c20617070726f78ef
:0412bc005d0000bf12
:020000040000fa
:1012c0002de9f04f8db00f210a2035f0b3f90290cf
:1012d00010f0010f40f05d85029b13f0020f40f00b
:1012e0007c850db0bde8f08fd9f8187007f11002b9
:1012f000059213f4007f21d1fb6809933b690a939f
:1013000000228df82c2006238df82d30330a43ea75
:101310000623adf82e300c2109a82df08ff8c0431c
:1013200083b2d9f8202012f0040f30d03246414663
:1013300048462af0c1ff002840f09a8640462df02a
:101340002ffe98f80ca04fea1a1a4fea8a0304936a
:10135000d9f81ca0baf80220002a00f08c86fd897a
:10136000bb891d44baf800301d445540adb2c74b8f
:10137000d3f800c0bcf1000f00f08086d9f828e057
:10138000c34b1b68039300239b4610460ee01a468e
:10139000314640462df052f8cde7b4f87220824233
:1013a0002fd001331bb21c469c452fd9039a52f80b
:1013b0002440002cf5d094f876200b2af1d094f834
:1013c00077100129edd8a16c09b18e45e9d1002a29
:1013d000e3d0b4f87220aa42e3d1daf80010226e0a
:1013e0009142ded1216cfa689142dad1012184f870
:1013f0007710c4f848e0059a204633f056fca3461f
:1014000022e0bbf1000f08bfa346cae7bbf1000f03
:1014100000f08380fb68cbf8403001218bf8771017
:10142000cbf848e0059a584633f03ffcabf87250d1
:10143000baf80030abf86030baf80230abf862307e
:10144000dbf80030cbf81030d9f8102093890499dc
:101450005b1a938198f80d40d8f80870d8f80450ba
:101460009bf83f3013f0400f5bd19bf875306ff362
:1014700000038bf875309bf87630002b69d0012b78
:1014800000f09e801436049aa6eb020a1ffa8afa2c
:10149000aaf1140292b2059214f0010206921abf48
:1014a000aaf1130a1ffa8af2059a039214f0020fa6
:1014b00003d0039a013292b20392dbf81c60dbf88e
:1014c00020209642c0f0aa80dbf81810dbf8140048
:1014d000091aa6eb020aa1eb0a0a1ffa8af2049281
:1014e000dbf85820a5eb020a039a002a00f0a98035
:1014f000049a002a00f0a080baf1000fc0f2968092
:101500009245c0f0a780039a04998a1a8a45c0f2ce
:10151000a180924540f39e808ee06ff00e0100f0b6
:1015200034bc00238bf879309bf83e3013f0020f67
:101530009bd135f033f9bbf87020564b1b6803fb89
:1015400002f3554aa2fb032300eb9310cbf82400cf
:101550008be714f0040f1ad114f0100f1dd114f002
:10156000020f27d00135cbf85850404625f0b0fd8a
:10157000abf86a00584632f077fa01221221584639
:1015800006f0dafd02238bf876300026e6e3002130
:1015900058461cf089fc0026e0e3cbf8547000228a
:1015a0000421584606f0c8fd002158461cf07cfc7a
:1015b0000026d3e3002158461cf076fc0026cde33c
:1015c00014f0040f40f0c98314f0100f00f0a08550
:1015d000dbf85460b74205d114f0020f40f0558596
:1015e0000026bbe3cbf8547001220421584606f0d4
:1015f000a3fdcbf854600026b0e335f0cff8bbf87c
:101600007020244b1b6803fb02f3234aa2fb032335
:1016100000eb9313cbf8243000f056bda2eb060a82
:101620000af1ff3a1ffa8af2049259e703990a462f
:10163000514400293ff768af14f0040f1fd0002673
:101640008ce3baf1000f05d0baf1000ff4db049a75
:101650009245f1da14f0060f20d114f0100f00f0cb
:101660009083023b072b00f2cc81dfe813f02900c6
:101670003e003e003e003e00ca013e00bd01012288
:101680001021584606f058fd002667e3dc41012092
:10169000d8410120e0410120d34d621014f0040f25
:1016a00008d09bf83f3043f002038bf83f304ff4f3
:1016b000006600e00026002158461cf0f5fb4de3d3
:1016c000dbf85460b74205d103238bf876304ff432
:1016d00080760be0cbf8547001220421584606f0c6
:1016e0002bfdcbf85460002638e30026dbf8101001
:1016f000dbf808305a1a13d4dbf854003b1a9b1a53
:10170000002b1dddbbf8742002f40172042a01d104
:10171000012b0cd000221021584606f00dfd1de3d0
:10172000dbf80430dbf800001b1a1a44e4e7013050
:10173000cbf854009bf8753043f002038bf87530fa
:10174000dbf85430dbf80c20881a914249d2dbf8e0
:101750000420dbf80010521afb1a0344d318079335
:10176000002b07dddbf80430dbf800209b1a079a1a
:101770009a4246d9dbf83830002b40f0a280dbf8e3
:101780000c20dbf808309a4200f0d980b8f80e300f
:10179000bbf86e209a4238bfabf86e30dbf85420ad
:1017a000b8f80e303b449b1a9bb2bbf8641031b9b9
:1017b0002bb19bf83e1041f040018bf83e10abf886
:1017c00064309bf87630042b00f0f080062b40f05c
:1017d0001981974240f0c282002158461cf064fbf8
:1017e000bce2fb1a03440793002b07dddbf804304f
:1017f000dbf800001b1a0798984202d99142bed02c
:10180000b8e740f2dc53cbf8343034f0c7ffdbf8f4
:101810003420c44b1b6803fb02f3c34aa2fb03231f
:1018200000eb9313cbf838309bf83e306ff3451341
:101830008bf83e30dbf80c10079b0b44cbf80c30d8
:10184000dbf8102091420ed893421cd99a1adbf88b
:1018500054100a44cbf85420cbf81030dbf80420a5
:10186000934224d313e0dbf80410dbf80000091adc
:101870000a44934207d99a1adbf854100a44cbf869
:101880005420cbf81030dbf80420934205d3dbf86a
:101890000010511a5b1acbf80c30dbf81030934271
:1018a00005d3dbf80010521a9a1acbf810209bf8d7
:1018b0007630032b02d0082b7ff461af46f004068c
:1018c0005de734f06bffdbf83830c31a002bfff60e
:1018d00056afdbf834305b00b3f57a4f28bf4ff4d6
:1018e0007a43cbf8343034f059ffdbf834208d4b99
:1018f0001b6803fb02f38c4aa2fb032300eb931348
:10190000cbf83830dbf81010dbf80c20881adbf845
:1019100054301b1acbf85430914207d2dbf8041034
:10192000dbf80000091a5b1acbf85430cbf8102012
:101930009bf83e3043f080038bf83e301fe79bf866
:101940003f3013f0010f19d113f0400f06d19bf86f
:101950003e306ff341038bf83e3017e734f01eff43
:10196000bbf870206f4b1b6803fb02f34ff47a72d5
:10197000b3fbf2f30344cbf82430e8e7dbf8543050
:101980009f427ff403af9bf8743013f0040f3ff4d1
:10199000fdae9bf83e306ff341038bf83e309bf871
:1019a0003f306ff300038bf83f30efe6974203d0f0
:1019b00014f0200f35d0d1e19bf8743013f0040ff0
:1019c000f6d034f0ebfe574b1a6841f2883303fb34
:1019d00002f34ff47a72b3fbf2f30344cbf83030e6
:1019e00005238bf87630e3e7dbf8543001339f4270
:1019f00001d00026b2e1002158461cf055fa00261d
:101a0000ace1002614f0200f40f0a8819bf876206e
:101a1000a2f10803dbb2012b40f2a081062a00f0fc
:101a20009d81059a002a3fd0baf1000f7edd059b0b
:101a30005344049a934203dda2eb0a039bb205933d
:101a400098f80c301b0908eb83030893dbf81c1093
:101a5000dbf81830059a52440a44934280f0f4802f
:101a60005a1a0132b2eb0a0200f1df801ffa82f843
:101a700001240094434608a80246514448462bf0ee
:101a800063fd0490059aa2eb080300949bb208aa98
:101a9000dbf8141048462bf057fd049b034498b222
:101aa000059b834200f0d980039bcbb19bf8763035
:101ab000033bdbb2022b84bfdbf81c30cbf82030b9
:101ac0009bf83e3013f0100f40f0fa809bf83e3048
:101ad00043f010038bf83e3013f0080f00f0f6804f
:101ae000069b002b00f03a81dbf858300133039a53
:101af0002a44934240f03281cbf8583046f4806655
:101b00009bf83f3043f004038bf83f309bf876306e
:101b1000023b032b00f20781dfe813f0ec00f50035
:101b2000fe001501e0410120d34d621098f80c3001
:101b30001b09caeb830343440893524493b2049aab
:101b40009a4228bf1a469246dbf81c10dbf8183080
:101b50008a18934259d25b1a01330493bdf810805e
:101b600001240094434608aa48462bf0edfc05905a
:101b7000aaeb080300949bb208aadbf814104846ad
:101b80002bf0e2fc059a024490b2049baaeb0303fb
:101b9000dbf814201344504586d1dbf8581051442b
:101ba000cbf85810cbf81c309bf87620033ad2b211
:101bb000022a98bf46f40076dbf85c20b2f1ff3fc2
:101bc0003ff472afa2eb0a0acbf85ca0bbf8682026
:101bd00012eb0a0224d4baf1000f3ff765af1144ab
:101be000cbf858101344cbf81c30dbf81820934284
:101bf00006d9dbf81410521ad2431344cbf81c3028
:101c00004ff0ff33cbf85c304ee70123009353468f
:101c100008aa48462bf098fcdbf81c305344bae77e
:101c20004ff0ff33cbf85c303ee70af1ff30dbf8d2
:101c300014209b1ac01a01230093059b08aa014493
:101c400048462bf081fc2be701230093059b08aa53
:101c5000514448462bf078fc22e7dbf85c30b3f1c6
:101c6000ff3f15d09a4519d2059a02eb0a01bbf83d
:101c70006820d018814205d88b4203d8a0eb0a0314
:101c80009bb20593059babf86830cbf85ca00be7e3
:101c9000cbf85ca0059babf8683005e7bbf8682083
:101ca0001a4405980146514491427ff6fdae924593
:101cb0003ff6faaeaaeb03031844abf86800f3e66c
:101cc00001221021584606f037fa09e7dbb243f04b
:101cd00008038bf83e3034f061fdb14b1a68642381
:101ce00003fb02f34ff47a72b3fbf2f30344cbf835
:101cf0002c30f5e609238bf8763001221121584665
:101d000006f01afa2ae008238bf876309bf8753033
:101d100013f0010f07d021e0dbf854309f4208d0c8
:101d200006238bf8763001221021584606f004fa7b
:101d300014e000221021584606f0fef90021584612
:101d40001cf0b2f80ae000221021584606f0f4f91f
:101d5000002158461cf0a8f800e00026bbf87a20c5
:101d6000324000f08e81dbf87c40002c00f08b814b
:101d7000dbf88030d9f82810bbf93c00a0470221dd
:101d800003e00026eae76ff00d010a22484633f02f
:101d900063fc0a2036f0a2fb814600283ff49caa8f
:101da000b9f82c60132eeed9d9f81c8098f80c30b5
:101db0001b09042b0bd9b6eb830f0bdbd9f82030b2
:101dc00013f400343ff490aa6ff00e01dde76ff0da
:101dd0000d01dae76ff00d01d7e7724b1b68002b9e
:101de0003ff47faa00252b46dff8bc91dff8bca1a9
:101df000dff8b081e6e034f0d1fca36ac01a002815
:101e0000a8bf1026f4e034f0c9fce36ac01a002829
:101e1000c0f2f48094f87630052b00f08a81102609
:101e200087f001023146204606f086f9eee034f0f4
:101e3000b5fc236bc01a0028c0f2e58001221421f2
:101e4000204606f079f9002120461cf02df8b1e07b
:101e500094f83e6006f001060121204626f071fd4f
:101e600094f83e3043f0010384f83e304ff4805242
:101e7000002120462ff082fb002e40f09b8094f83a
:101e80003e306ff3000384f83e300a2384f8763046
:101e900090e034f083fc636ac01a0028c0f28a80a4
:101ea00094f876104b1e082b00f28280dfe803f0d6
:101eb0000541556080688080700094f87830032b6d
:101ec00040f22b81042384f87830354b1a684ff4a4
:101ed0007a7303fb02f3aafb03239b091b0123650f
:101ee0000221002694f87830013384f87830236d8d
:101ef0005b0023652069e268831a9bb2904204d29a
:101f000060682768c01b03449bb2606dc01a60659f
:101f1000b4f864000344a4f864302261002220462f
:101f200006f00af9002e45d0002120461bf0bcff28
:101f300040e094f87830022b40f2f18094f83e6053
:101f400006f001031e46002b18bf1421002fc9d133
:101f50000122204606f0f0f8e4e794f87830042bec
:101f600040f2df80042384f8763011210026ede76b
:101f700094f87830042b40f2d68014210126e5e74e
:101f800094f87830042b40f2d08014210126dde74c
:101f900094f87830042b40f2ca8014210126d5e74a
:101fa000e0410120dc410120d8410120d34d6210e5
:101fb000002e5ad101352db22b46d8f8002095427b
:101fc000bff48fa9d9f8002052f82340002cf1d09b
:101fd00094f876300b2bedd094f83e3013f0c00619
:101fe0001abfdf091026002713f0040f7ff403af98
:101ff00094f83e3013f0080f7ff405af94f8763074
:10200000052b3ff414af002e7ff40aaf94f83e3056
:1020100013f0020f7ff43daf94f83f3013f0400f00
:10202000c8d094f87630032bc4d134f0b7fb636a80
:10203000c01a0028bedb94f8792094f884309a42c4
:102040003ff406af02221021204606f075f834f066
:10205000a5fbb4f870203b4b1b6803fb02f3aafb03
:10206000032300eb93106062a4e7314600266de77e
:102070006ff0090189e66ff00e0186e66ff00e0140
:1020800083e6022181e602217fe60135cbf8585034
:10209000b8f80e30abf86e30abf86430404625f03f
:1020a00017f8abf86a00584631f0defc0122102127
:1020b000584606f041f803238bf876309bf83f3002
:1020c00013f0400f7ff499aa9bf83e306ff3410361
:1020d0008bf83e304ff4807640e60135cbf858500f
:1020e000b8f80e30abf86e30abf86430404624f0f0
:1020f000efffabf86a00584631f0b6fc012212211e
:10210000584606f019f802238bf87630002625e6ab
:1021100014f0020fe1d1002620e60221e1e61221af
:10212000dfe61021dde61121dbe61021d9e61121e1
:10213000d7e634f033fb236bc01a0028bff67eae1f
:0821400010266de6e0410120cc
:020000040000fa
:102148002de9f04f2ded028b9bb00f21212034f0ab
:102158006dfa002800f007877d4b1b68002b40f3c1
:1021680002877c4c0026dff820929fed7b8ab9e33a
:10217800d4f8c4305d6894f8d1202ab3227c012aaf
:1021880042d0022a61d1b4f93830b3f1ff3f25d0eb
:102198000023724a4ff40071b4f9380033f0f5fcab
:1021a800d4f8bc200221b4f938001ef00bfb30b97a
:1021b800d4f8c4301b681b6869492846984706212b
:1021c80020462ff00bf886e31b681b6865492846f4
:1021d8009847012120462ff001f87ce304f18002a2
:1021e800618a012026f04efd2087b0f1ff3fcfd154
:1021f800d4f8c4301b681b685b49284698470121fe
:1022080020462ef0ebff66e304f18002618a01208c
:1022180037f07ff8a087b0f1ff3f0ad00023534a78
:102228004ff4807133f0dcfe032120462ef0d6fff8
:1022380051e3d4f8c4301b681b684d4928469847b9
:10224800012120462ef0caff45e31b681b68494957
:1022580028469847012120462ef0c0ff3be3d4f8da
:10226800c430d3f804b03b4be31adb1003ebc302d2
:1022780003eb4203c3eb432303eb8343c3f1000a9d
:1022880097e0d4f8c4301b681b683b495846984708
:10229800042120462ef0a2ff1de3b4f93c0034f0df
:1022a80092fe18e30133c4f89430284634f09cfebb
:1022b80002460b46d4e9080113f0cff9c4e9080136
:1022c800002f19dba36ae26a511c8b4231d093427a
:1022d80020dc616b01f1010161632cd020e0d4f8ae
:1022e800c4301b685b68254958469847236b013bf7
:1022f800a26a1344236391e07f42a76234f04afa4a
:10230800c4f88c00002384f8cc30042120462ef039
:1023180065ffd7e75b1a226b13442363a36ae36262
:102328000c3dadb2002d44d0dff858804ff4c8679b
:1023380036e0934206d1d4f8c4301b681b681049b4
:1023480058469847a36ae26a9342e9dde7e700bf87
:10235800c04101208034012000007a441587030021
:1023680038f00000f0ef000014f00000ff860300d2
:1023780060f0000084f000009cf00000bcf0000059
:10238800e8f0000018fc0020643e01203a4641466f
:10239800b4f93c0021f05affa5f5c865adb245b1c6
:1023a800b5f5c86ff2d22a46d149b4f93c0021f0fc
:1023b8004dffb4f93c0034f089f905460b2878d96b
:1023c8000c224946b4f93c0021f040ff0c287ff468
:1023d80058afd9f800301f0e47ea03671a0202f413
:1023e8007f0217431b0a03f47f431f43a762d4f8f5
:1023f8009430002b7ff456af002ffff64eaf012329
:10240800c4f89430d4f8c4301b685b685246b949a4
:1024180058469847a26a002a7ff461afa36ae3622c
:1024280005a9b4f93c0020f037fcb4f93c0036f0bb
:102438009bfc35f045f9069dd4f8c4301b68628ac8
:102448000292020e0192c0f3074200925f68c0f345
:102458000723c2b2a8495846b847d4f8c4301b6805
:10246800bdf8582002922a0e0192c5f30742009245
:102478005f68c5f30723eab2a0495846b8476564c0
:10248800bdf85830a4f8643034f084f9c4f88800f2
:10249800c4f8a800a36ac4f89c30d4f89430c4f8ef
:1024a8009830236bc4f8a030b4f93c0034f08bfdad
:1024b8007fe7d4f894304bb994f8cf30012b40f033
:1024c8000a82042120462ef089fe04e234f062f9e3
:1024d800d4f8a830c31a22689342edd9d4f89420ce
:1024e800d4f898309a4212d1d4f8c4301b681b68cb
:1024f80083495846984734f04df9c4f88c000023b6
:1025080084f8cc30042120462ef068fed4e7002160
:10251800204612f08ff8cfe7b4f93c0034f0d6f833
:1025280038b994f8cf304bb1092120462ef056fe29
:10253800d1e1b4f93c0034f046fdcce10521204658
:102548002ef04cfec7e194f8cd30002b00f0bd8092
:10255800b4f93c0034f0baf8002840f0be8094f892
:10256800cc305a1c84f8cc200a2b00f2bb80802186
:10257800b4f93c0036f05eff002800f0ac81e36a55
:102588005b421a0e42ea0362190201f47f010a4310
:102598001b0a03f47f431343c9f800300025c9f828
:1025a8000450c9f808508023c9f80c30c9f81050f5
:1025b800d4e9080134f04afc020e42ea0062030240
:1025c80003f47f031a43030a03f47f431343c9f850
:1025d800143034f0f3f8d4f88c10d4f88830c91ad1
:1025e800b1fbf0f31a0e42ea03621f0207f47f07f9
:1025f8003a431f0a07f47f473a43c9f8182000fbfb
:10260800131307ee103ab8ee477a27ee087a07ee6a
:10261800900af8ee676ac7ee267a67ee887afceecb
:10262800e77a17ee903a1a0e42ea0362190201f4a9
:102638007f010a431b0a03f47f431343c9f81c3084
:10264800236b1a0e42ea0362190201f47f010a435e
:102658001b0a03f47f431343c9f82030636b1a0e37
:1026680042ea0362190201f47f010a431b0a03f4d8
:102678007f431343c9f82430e36a1a0e42ea03621f
:10268800190201f47f010a431b0a03f47f43134331
:10269800c9f82830c9f82c50c9f8305034224946b6
:1026a800b4f93c002ff048fe4c273a46294605a8c5
:1026b80036f04afa3a4605a9b4f93c002ff03cfe38
:1026c800b4f93c0012f0a8fe05e10221204611f001
:1026d800b1ff012384f8cd303ae7b4f93c0034f077
:1026e80072fcf8e0092120462ef078fdf3e000bfe7
:1026f80018fc002020f10000ec1402002015020054
:1027080008f1000094f8cf30012b26d0b4f9380036
:1027180034f07bf9002800f0de803822002105a87b
:1027280036f012fa05a9b4f938002af0ecfc04f1e5
:10273800400705ad0fcd0fc70fcd0fc70fcd0fc782
:1027480095e8030087e80300072120462ef046fda0
:10275800b4f9380033f05dfdbde0092120462ef0c4
:102768003dfdb8e0d4f8c4305f68b4f9380036f0fd
:1027780054fa0546002865d0a36a002b49d1bd4b01
:10278800e31adb1003ebc30203eb4203c3eb43235f
:1027980003eb8343d4f8c4201268d2f804805a4269
:1027a800b5493846c04733f0f5ffc4f88800c4f887
:1027b800a800a36ac4f89c30b4f9380036f0b4fa1b
:1027c80034f07effd4f8c4301b68628a0292020e8d
:1027d8000192c0f307420092d3f80480c0f30723a4
:1027e800c2b2a6493846c047d4f8c4301b68b4f80a
:1027f8006420029294f84720019294f846200092af
:10280800d3f8048094f8453094f844209c4938461d
:10281800c047a36a0133a362d4f894200132c4f8f4
:102828009420e362284634f0dffb02460b46d4e9e5
:10283800080112f012ffc4e90801dff848824ff4da
:10284800c8671ce0b4f9380033f0e3fc20b9b4f9e8
:10285800380035f066ffd8b133f09cffc4f88c001f
:10286800082120462ef0bafc35e03a464146b4f934
:10287800380022f09ffda5f5c865adb245b1b5f5a4
:10288800c86ff2d22a467f49b4f9380022f092fd87
:10289800a36a63b994f8cf30012b1cd108212046d4
:1028a8002ef09cfc33f076ffc4f88c0013e033f074
:1028b80071ffd4f8a830c31a22689342ead90021dc
:1028c800204611f0b7fee5e794f8cd30c3b30921ef
:1028d80020462ef083fc0136d8346b4b1b68b3427c
:1028e80040f3418394f8ce30012bf4d0023b102bf7
:1028f80000f2348301a252f823f000bf79210000ce
:1029080067220000212500004f2500000d27000048
:102918006d270000d128000059290000f529000082
:10292800212a0000632c0000492d00004f2e0000d2
:102938003f2f0000212b0000af2e0000552f000074
:102948000221204611f076fe012384f8cd30bee73f
:10295800d4f8c4305f68237c012b29d0022b2cd0fb
:10296800444be31adb1003ebc30203eb4203c3eb54
:10297800432303eb83435d42d4f8c4301b685b6890
:102988002a4642493846984720462ff00ffb94f8cc
:10299800d130012b19d0d4f8c4301b685b682a46a3
:1029a8003b4938469847012120462ef017fc92e70c
:1029b800b4f93c002ff070ffd2e7b4f9380031f0d9
:1029c8008ffa4ff6ff732387cae794f8cf30002bae
:1029d800e1d1d4f8c4301b685b682a462d493846d3
:1029e8009847022120462ef0f9fb74e7d4f8c80076
:1029f80035f005fb032808d10b2120462ef0eefb0d
:102a080033f0c8fec4f8ac0065e704f14401d4f81b
:102a1800c80030f0eef8efe7d4f8c4305d6894f8f9
:102a2800cf20012a17d0d4f8c80035f0e8fa0328d7
:102a38001bd094f8443003f0f003e02b2ed1237c14
:102a4800012b64d0237c022b7ff445af0c21204658
:102a58002ef0c4fb3fe71b681b680f4928469847c0
:102a6800012120462ef0bafb35e70022a267a4f820
:102a78007c20e4e78034012020f10000ec140200ff
:102a88002015020018fc0020c04101204cf1000074
:102a9800b0f100007cf10000d0f1000004f17802f0
:102aa80004f14401d4f8c80027f0c8ffb8b1d4f83d
:102ab800c4301b6894f87d20039294f87c2002921d
:102ac80094f87b20019294f87a2000925f6894f839
:102ad800793094f87820c0492846b847afe733f0f2
:102ae80059fed4f8ac30c71a33f068fe00eb80000a
:102af80087427ff6f0aed4f8c4301b681b68b7492c
:102b08002846984733f046fec4f8ac00e3e61021a7
:102b180020462ef063fb95e7d4f8c4305d6804f1d5
:102b28004402618a012036f0f9fba087b0f1ff3f2b
:102b380000f087800023aa4a4ff4807133f050fade
:102b4800e2680521b4f93c000bf080f930b9d4f8fb
:102b5800c4301b681b68a3492846984702220621ef
:102b6800b4f93c000bf072f930b9d4f8c4301b68e2
:102b78001b689d4928469847d4f8c810b4f93c000a
:102b88002cf027ff05a9b4f93c0020f085f8bdf822
:102b98005a30a4f87e30d4f8c4301b681b689349b7
:102ba80028469847d4f8c4301b68628a029294f881
:102bb8004720019294f8462000925f6894f84530c7
:102bc80094f844208a492846b847112120462ef017
:102bd80005fb33f0dffdc4f8880032f059fe0546e6
:102be8000f4636f047fa79016b0141ead5625b1b63
:102bf80062eb0702510241ead3514fea432c0a46dd
:102c08001ceb050347eb0202910141ea93614fea8d
:102c1800831cbceb030c61eb0201024600231ceb96
:102c2800050047eb010132f03bffd4f8843018442b
:102c3800c4f890004ff4c86255216e4835f084ffff
:102c480049e6d4f8c4301b681b686b492846984786
:102c5800012120462ef0c2fa3de6d4f8c4305d6862
:102c68000022618a012035f089f96087b0f1ff3fc1
:102c780051d00023614a4ff4007132f086ffd4f836
:102c88008030002b53d104f1440300220121b4f910
:102c98003a002ef098fc4ff48063a4f87e30d4f804
:102ca800c4301b681b68514928469847d4f8c4307b
:102cb8001b68628a029294f84720019294f8462091
:102cc80000925f6894f8453094f844204c492846af
:102cd800b8470d2120462ef081fad4f8b8200321f8
:102ce800b4f93a001df06efd30b9d4f8c4301b6851
:102cf8001b683c4928469847b4f93a0032f02eff41
:102d080033f048fdc4f8ac004ff4c8625421394888
:102d180035f01affdfe5d4f8c4301b681b68394961
:102d280028469847012120462ef058fad3e504f1a9
:102d38008003628a0121b4f93a0023f08bf9a2e7f3
:102d480094f8cf30012b42d0d4f8c4305f68b4f97e
:102d58003a0033f05afe002856d0b4f93a0033f05e
:102d680058fa33f017fdc4f8880032f091fd054693
:102d78000f4636f07ff979016b0141ead5625b1b9a
:102d880062eb0702510241ead3514fea432c0a464b
:102d98001ceb050347eb0202910141ea93614feafc
:102da800831cbceb030c61eb0201024600231ceb05
:102db800050047eb010132f073fed4f88430184463
:102dc800c4f890000e2120462ef008fa83e50f2162
:102dd80020462ef003fa7ee530f20000f0f1000004
:102de800ff8603005cf2000084f200002c6d0100f5
:102df800acf2000018fc002060f00000158703000a
:102e0800e4f2000014f0000033f0c4fcd4f8ac3055
:102e1800c51a33f0d3fc00eb800085427ff65bad2a
:102e2800b4f93a0031f05cf84ff6ff736387d4f8d1
:102e3800c4301b681b684e49384698470f21204606
:102e48002ef0ccf947e5204609f08cf801280bd084
:102e580002287ff440ad0f2120462ef0bff933f051
:102e680099fcc4f88c0036e5424f00bfb4f8b05066
:102e78008db1b5f5c86f28bf4ff4c8652a463946e5
:102e8800b4f93a0019f048f9b4f8b0301b1aa4f8ac
:102e9800b0308542ead9b4f93a0033f0c9fd20468a
:102ea80015f0d0fe17e5227d0b21b4f93c000af09d
:102eb800cdff204609f056f801280bd002287ff4f0
:102ec8000aad122120462ef089f933f063fcc4f8cc
:102ed8008c0000e5b4f8b05015b30027dff894a0d3
:102ee800a846b5f5c86f28bf4ff4c8684246514692
:102ef800b4f93c002ff020fa0744bfb22d1aadb246
:102f0800804501d1002debd1b4f93c0012f084fad0
:102f180040b900221146b4f93c0030f0dffddae494
:102f28002f46f1e7b4f8b030df1ba4f8b0702046a4
:102f380015f088fecfe420462af0eefeb4f93a00f8
:102f480030f0ceff4ff6ff736387c4e420462af0c3
:102f5800e3feb4f93c002ff09ffcbce401212046bd
:102f68002ef03cf9b7e41bb0bdec028bbde8f08f46
:082f78001cf3000018fc00200e
:020000040000fa
:102f80002de9f04f91b0012941dd0f46904656687a
:102f9000c249304635f016fc002867d0c04930469b
:102fa00035f010fc002800f08d80be49304635f029
:102fb00009fc002800f0f480bb49304635f002fce3
:102fc000002800f0d981b949304635f0fbfb0028d4
:102fd00000f06c82b649304635f0f4fb06900028cc
:102fe00000f08682b349304635f0ecfb002800f053
:102ff0003983b149304635f0e5fb002800f0a48361
:10300000ae49304635f0defb002800f0ce83ac49f7
:1030100000202af033ffab4900202af02fffaa49f5
:1030200000202af02bffa94900202af027ffa849f9
:1030300000202af023ffa74900202af01fffa649fd
:1030400000202af01bffa54900202af017ffa44901
:1030500000202af013ffa34900202af00fffa24905
:1030600000202af00bff11b0bde8f08f9f4b9c6948
:10307000250a05f00f069e4bd3f8188022469d497d
:103080002af0fcfe06f1410733463a469a490020f1
:103090002af0f4fec4f30333c4f305429749002039
:1030a0002af0ecfe18f0040f40f06084944a954931
:1030b00000202af0e3fe944900202af0dffe934a24
:1030c00000f05ebc022f07dd9149d8f8080035f00a
:1030d00079fb002800f0638432f09efc044602462f
:1030e0008c4900202af0cafe002c4ad02ff06cf840
:1030f00005220121084622f0c7fb04460d4654ea8a
:10310000050343d0ff23844a844900202af0b6fef9
:10311000834a00232046294632f0c6fc0646804af0
:1031200000232046294632f0bffc104619464ff4d2
:103130007a72002332f0b8fc009033462246794977
:1031400000202af09bfe784b14eb030a45f1ff3b6d
:103150004bf67e3200235b4508bf5245734e744bdd
:1031600038bf1e4673480c220023201845f1ff315a
:1031700026f04afc334602466f4900202af07efec4
:1031800071e76e4900202af079fe6ce704220121e4
:10319000084622f079fb04460d46694a00f012bc4d
:1031a00032f03afc00285fd027f0befd0446654ba4
:1031b0005d6d41f2df63009348f21203b62262496b
:1031c00000202af05bfe009505f0010322465f49ce
:1031d00000202af053fe002c4ad02ef0f5ff0522e5
:1031e0000421082022f050fb04460d4654ea050352
:1031f00043d04b4a002332f057fc0646544b019310
:10320000474a00232046294632f04efc1046194614
:103210004ff47a72002332f047fc00903346224686
:103220004c4900202af02afe4b4be3180c9345f141
:10323000ff330d93494a0023dde90c018b4208bf9f
:103240008242474e3a4b38bf1e464648c0220023b2
:10325000201845f1ff3126f0d7fb3346024642499c
:1032600000202af00bfefee640492af007fefae6af
:103270003f4900202af002fef5e60422114608200c
:1032800022f002fb04460d4654ea050340f0c184d7
:10329000384900202af0f2fde5e600bfd004000026
:1032a00004060000e4060000740800004409000061
:1032b000780900006c0a00007c0b0000840c000000
:1032c000c40d0000140e0000640e0000b00e0000db
:1032d000f00e00003c0f0000900f0000e40f000013
:1032e0003810000094100000dc10000000200041a5
:1032f00000180040d4040000ec0400001805000091
:103300007011000040110000541100008c020000f8
:103310000c060000741100005c120000c4110000d3
:1033200040420f00e4110000bf4249ff18030000b3
:103330003403000000e548ff9c0600001006000072
:10334000e4020000001000402c070000800700008d
:10335000a0120000741200003f929df47e841e00b3
:103360005403000000508ef444080000ec060000f6
:10337000b40700000c08000024f0daff90b12ff031
:1033800043fb05460e462ff0a1fc0446022700bf72
:103390002ff09cfc001bb0f57a7f07d2384633f043
:1033a00061faf5e7ca492af069fd5ce62ff02cfbcb
:1033b000804689462ff08afc041b00f00d83b8eb91
:1033c000050569eb06067301680143ead561401bf8
:1033d00061eb06018b0043ea907382001946501995
:1033e00046eb0101cb0043ea5073c2001046194678
:1033f0004ff0000a2246534632f056fb07468b46f2
:103400004fea49134fea481543ead866b5eb080579
:1034100066eb0906b30043ea9573aa0012eb0805b0
:1034200043eb0906f30043ea5573ea0015461e46ce
:10343000cdf80480cdf8009042464b46a549504651
:103440002af01cfda44a16232846314632f02cfbf4
:1034500080468946602200232846314632f024fb0c
:1034600099a3d3e9002332f01ffbcde900234246a4
:103470004b469a4950462af001fd3a46984bfb18b4
:103480000a934bf1ff330b9396480021dde90a566e
:10349000b14208bfa842944b944938bf0b460093f1
:1034a0002346934900202af0e9fcdce524f040ffa4
:1034b000d0b1904b1c68904b904a5a611a461369e0
:1034c00013f0100ffbd1052033f0ccf9894b1b68aa
:1034d0008b4a8c499c4208bf0a46009222468a4980
:1034e00000202af0cbfcbee579492af0c7fcbae5fa
:1034f000022f05dc24f01cff78b34ff002080ee029
:103500000a220021d8f8080035f04afb804624f052
:103510000fff10b3b8f1000f08bf4ff0020835f0ed
:10352000adfd0a9032f090fa81468b4632f0b4f944
:1035300006460f462ff0cafb05464ff47a7404fb8b
:1035400008f44ff0020a00bf2ff0c0fb401ba0425e
:1035500008d2504633f086f9f6e76c4900202af08d
:103560008dfc80e532f070fa05468a4632f094f917
:10357000b5eb090308936aeb0b030993801b61eb1e
:103580000707634ba0fb030103fb07110a9a002303
:1035900032f08afa06468b46dde90812741a6beba4
:1035a000020751ea020300f09b827901630141eabc
:1035b000d4621b1b62eb0702510241ead35158024d
:1035c0000a46031947eb0202910141ea936198010f
:1035d000c01a61eb0201dde90823001947eb010184
:1035e00026f012fa8146069042464a4900202af007
:1035f00045fc35a3d3e900232846514632f054fa5e
:10360000cde90a0130a3d3e900232846514632f020
:103610004bfacde90023dde90a233f4900202af0d7
:103620002dfc029403970096cdf804b0dde9082341
:103630003a4900202af022fca9f2f51240f6aa53da
:103640009a4206d8364b069a364900202af016fcd4
:1036500009e509f69f791946334b344a894588bff5
:103660001346f0e724f064fec0b12ef0adfd052254
:103670000421082022f008f904460d462c4b9a6cd0
:10368000c2f304422b4900202af0f8fb54ea050358
:1036900008d1294900202af0f1fbe4e427492af067
:1036a000edfbe0e42648c0220023201845f1ff315d
:1036b00026f0aaf903462246224900202af0defb22
:1036c000e7e700bfaff3008000ca9a3b00000000ac
:1036d00078080000a808000000c00b5ad4080000b9
:1036e0007fac65fafe083d0088030000340300004b
:1036f000040900004843012000a0014100feffff33
:10370000a4030000c80300004c0900007c0900006d
:1037100000ca9a3ba4090000c0090000f809000093
:10372000e00300003c0a0000380400000c04000024
:1037300000100040a00a00002c0b0000740a0000da
:1037400000508ef4ec0a000024f0f2fd20b32ef0bd
:103750003bfd05220421082022f096f850ea0103df
:103760001ed0440844eac1744d08bf4860220023bb
:10377000201845f1ff3126f047f903462246bb49a0
:1037800000202af07bfbba4900202af077fbb949d8
:1037900000202af073fb66e4b7492af06ffb62e46d
:1037a000b64900202af06afb5de424f0c1fdb0b107
:1037b000022f2edd18f1080f00f0d280d8f8080093
:1037c000002800f0d080037803f0df03502b0ad0ec
:1037d000d8f80820aa4900202af050fb43e4a94960
:1037e0002af04cfb3fe44678a6f16103dbb2032be1
:1037f00009d8203ef6b202302ff08bfa07461f2878
:10380000e6d8413e07e0a6f14103dbb2032bdfd847
:10381000f1e7112701262cf023fb804689462ff083
:10382000f3f882468ca3d3e900234046494632f0a0
:103830003bf995498c1a63eb430589a1d1e9000155
:10384000a94208bfa04203d390498c1a63eb4305f9
:10385000201945eb0501001945eb01014b0143ea35
:10386000d0634201104619464ff47a72002332f0b9
:103870001bf98244864a936943f0900393610122c5
:1038800002fa07f94feac61808f1824808f500481d
:10389000c8f80890fbb243f0e003c8f82c307d4b29
:1038a000c3f824214ff414721a62022032f0daffb6
:1038b000c8f81490d8f8103023fa07f808f0010877
:1038c000754b10229a72c3f81ca01a46136913f0a4
:1038d000400ffbd106f141095ffa89f96f4a0023d5
:1038e0002046294632f0e0f804460190cdf800a0c9
:1038f0003b464a466a4900202af0c0fa664bda88fd
:10390000a3f54043196ad3f82401f30103f182437c
:1039100003f50043db6a0493cdf80c900290012379
:103920000193009100235f4918462af0a7fa2ff06f
:10393000cdf9054604f59674dff85ca14ff0020b53
:103940002ff0c4f9401b844240f2ff809af80a30fd
:1039500013f0100f40f0ee80584632f083ffefe78f
:103960001127012657e71127012654e74e4a4f49f0
:1039700000202af083fa4e4900202af07ffa4d4aaf
:103980004d4900202af07afa15f00c0f3a460cbf88
:103990004a494b4900202af071fafff764bb32f024
:1039a0003bf804460246474900202af067fa002cfb
:1039b0003ff4e7ab04220121084621f065ff0446ed
:1039c0000d46414a54ea050340f0e8803f49002093
:1039d0002af054fafff747bb4fea49124fea48135f
:1039e00042ead865b3eb080365eb0905aa0042ea91
:1039f0009372990011eb080642eb0905eb0043eacc
:103a00005673f20016461d46cdf80480cdf800909e
:103a100042464b462e4900202af030fa2d4a162302
:103a20003046294632f040f880468946602200231d
:103a30003046294632f038f807a3d3e9002332f0a4
:103a400033f8cde9002342464b46234900202af0b3
:103a500015fa2246214b22e500ca9a3b00000000dd
:103a6000ffe0f50500000000002847faa80b000061
:103a7000e80b00002c0c0000740a0000840b00000e
:103a8000a4110000880c000000ca9a3b009435770e
:103a90000008004000e0004100a0014140420f004a
:103aa000b40c0000f80c00003811000040110000b8
:103ab000541100009802000038050000580500006d
:103ac000bc05000074110000c80200006006000080
:103ad000a808000000c00b5ad408000034030000fe
:103ae0004246694900202af0c9f963a3d3e90023bb
:103af0002846514631f0d8ff804689465ea3d3e977
:103b000000232846514631f0cfffcde9002342463d
:103b10004b465e4900202af0b1f9029403970096c3
:103b2000cdf804b000220023594900202af0a6f95c
:103b3000584b88e5f60106f1824606f500463469e1
:103b4000fc4004f00104544a09e0f60106f1824603
:103b500006f500463469fc4004f001044f4a504920
:103b600000202af08bf94f4b4f4aa04508bf13465f
:103b700002930194cdf800803b464a464b49002011
:103b80002af07cf93b464a46494900202af076f95a
:103b9000484b0022c3f82421fff765baff234649aa
:103ba00000202af06bf9454a00232046294631f0cf
:103bb0007bff0646414a00232046294631f074ff28
:103bc000104619464ff47a72002331f06dff0090d1
:103bd000334622463a4900202af050f9394900205c
:103be0002af04cf9384be318069345f1ff3307935d
:103bf000364a0023dde906018b4208bf8242344a7f
:103c0000344b38bf1a46344900202af037f9fff701
:103c10002aba2a4a002331f047ff06462f4b019368
:103c2000264a00232046294631f03eff1046194619
:103c30004ff47a72002331f037ff0090334622466a
:103c4000274900202af01af9264be3180e9345f174
:103c5000ff330f930aa3d3e90023dde90e018b4262
:103c600008bf8242204a1b4b38bf1a461a4900201f
:103c70002af004f9fff7f7b900ca9a3b00000000e8
:103c8000fe117a0000000000a4090000c009000035
:103c9000f80900000c0400006c0400005c04000043
:103ca0004c0d000070040000a4040000600d000032
:103cb000840d000000e00041c411000040420f00ec
:103cc000e41100000c1200003f2758ff7e841e0004
:103cd0003c03000034030000d0060000a4120000e2
:0c3ce00074120000ff58cbf470030000c9
:020000040000fa
:103cec00903f01201c0000000000000028b10020c3
:103cfc00100d000000000000ac8c0020040000003f
:103d0c0000000000e45e0020c82d00000000000050
:103d1c00bc39012004000000000000006c3d0120b3
:103d2c0004000000000000002c31012040010000c4
:103d3c00000000008f3f0120010000000000000087
:103d4c00094001200100000000000000583501204e
:103d5c00c0000000000000001c4001200400000016
:103d6c0000000000b440012004000000000000002e
:103d7c008e4301200200000000000000d813012037
:103d8c0088050000000000009243012002000000a2
:103d9c000000000098080120a005000000000000b1
:103dac00964301200200000000000000380e0120a4
:103dbc00a0050000000000008d4301200100000060
:103dcc0000000000914301200100000000000000f1
:103ddc00184101200c000000000000009a43012053
:103dec0002000000000000008c45012004000000cf
:103dfc000100000096000000b24501200200000006
:103e0c000100000006030000ae4301200200000088
:103e1c00010000000100000090450120040000009a
:103e2c0001000000dc0500009543012001000000aa
:103e3c000000000018360120b00000000000000057
:103e4c002441012008000000000000003826012059
:103e5c0040020000000000002c4101200c0000007a
:103e6c00000000009c430120010000000000000045
:103e7c00384101200400000000000000b84001207f
:103e8c000800000000000000994301200100000020
:103e9c00000000009d430120020000000000000013
:103eac003c41012004000000000000009f43012061
:103ebc00010000000000000040410120040000004f
:103ecc0000000000f03d01203c000000000000005c
:103edc0000000020e45e00000000000044410120ce
:103eec001c0000000000000038ca0020100a00006e
:103efc0000000000a04301200100000000000000b1
:103f0c00c0400120080000000000000060410120ba
:103f1c00040000000000000088210120580200006d
:103f2c0000000000644101200800000000000000b7
:103f3c0060190120d4020000000000008a43012017
:103f4c0002000000000000006c4101202400000071
:103f5c000000000094450120040000000100000056
:103f6c000900000052450120020000000100000081
:103f7c00ffff000066450120020000000100000068
:103f8c00ffff00008a450120020000000100000034
:103f9c00ff070000aa4501200200000001000000fc
:103fac00ff07000090410120080000000000000005
:103fbc00343b01206c0000000000000098430120fd
:103fcc000100000000000000b0430120d4000000fc
:103fdc0001000000fc0603000000000000000000cf
:103fec0000000000000000000000000000000000c5
:103ffc0000000000000000000000000000000000b5
:10400c0000000000000000000000000000000000a4
:10401c000000000000000000000000000000000094
:10402c000000000000000000000000000000000084
:10403c000000000000000000000000000000000074
:10404c000000000000000000000000000000000064
:10405c000000000000000000000000000000000054
:10406c000000000000000000000000000000000044
:10407c000000000000000000000000000000000034
:10408c000000000000000000000000000000000024
:10409c000000000000000000000000000000000014
:1040ac000000000000000000b445012001000000e9
:1040bc0001000000ff0000009841012004000000f6
:1040cc0000000000c039012080000000000000004a
:1040dc00e83c01204400000000000000a143012046
:1040ec0001000000000000009c41012004000000c1
:1040fc00000000000c400120100000000000000037
:10410c006c3201200c01000000000000a0410120d5
:10411c0004000000000000002040012010000000fe
:10412c0000000000a4410120040000000000000079
:10413c00003c01205000000000000000b08c00206a
:10414c0078240000000000009443012001000000ce
:10415c0000000000a8410120040000000000000045
:10416c00c8360120a400000000000000c03a012065
:10417c00740000000000000030400120100000001e
:10418c0000000000c43e01202800000000000000d8
:10419c000c3801209000000000000000904301202a
:1041ac000100000000000000ac41012004000000f0
:1041bc0000000000ec3e0120240000000000000084
:1041cc008c43012001000000000000007845012014
:1041dc000c00000001000000f4010000d0070000fa
:1041ec00010000002c450120260000000100000009
:1041fc00080008000200010002000800000600068a
:10420c000101540030303a30343a32353a30313ad8
:10421c0030323a30310000005445012012000000c9
:10422c000100000030303a30343a32353a30313a0d
:10423c0030323a3034000000684501201000000094
:10424c00010000000101000081ff02002132030087
:10425c0000000100a8450120020000000100000040
:10426c0000010000ac2a0120180200000000000030
:10427c00a03c012048000000000000008445012003
:10428c000600000001000000ffffffffffff000021
:10429c006040012018000000000000009c38012044
:1042ac009000000000000000b04101200c00000054
:1042bc000000000080340120d80000000000000045
:1042cc00643e01203400000000000000bc410120cd
:1042dc000400000000000000a243012001000000c7
:1042ec0000000000c041012004000000000000009c
:1042fc0018fc00204006000000000000c441012012
:10430c000c00000000000000784001200c000000b0
:10431c0000000000404001201000000000000000e0
:10432c00a34301200100000000000000b240012066
:10433c0002000000000000000a4001200200000002
:10434c0000000000d041012004000000000000002b
:10435c00504001201000000000000000d44101205a
:10436c001000000000000000684301200400000061
:10437c0000000000e44101200c00000000000000df
:10438c00a44301200100000000000000f0410120c6
:10439c000400000000000000c83f012018000000cd
:1043ac0000000000f44101200c000000000000009f
:1043bc006c430120020000000000000000420120bc
:1043cc00040000000000000048f40020d0070000aa
:1043dc00000000000442012010000000000000005a
:1043ec006e43012002000000000000001442012076
:1043fc000800000000000000f83f01201100000040
:10440c0000000000703f01201f00000000000000b1
:10441c001c42012004000000000000007043012039
:10442c0002000000000000002042012010000000eb
:10443c000000000072430120020000000000000098
:10444c0030420120080000000000000074430120ed
:10445c0002000000000000003842012010000000a3
:10446c0000000000a5430120010000000000000036
:10447c0098450120040000000100000064000000c9
:10448c00e44401202800000001000000bb010300ef
:10449c00d10101004b020100330203007c02030036
:1044ac00dd030300de030300e0030300e10301006e
:1044bc00b32201004842012004000000000000006b
:1044cc002c3e012038000000000000004c4201206e
:1044dc0010000000000000002c39012090000000aa
:1044ec0000000000081f01208002000000000000f6
:1044fc005c420120280000000000000084400120e4
:10450c000c00000000000000e03f0120180000003b
:10451c0000000000ac3f01201c0000000000000067
:10452c00844201200400000000000000a64301208a
:10453c00010000000000000088420120040000007f
:10454c00000000009c450120040000000100000058
:10455c00ffffffff8c4201200c0000000000000058
:10456c00a84001200a000000000000009842012031
:10457c001c00000000000000764301200200000037
:10458c0000000000b4420120080000000000000000
:10459c00a743012001000000000000007828012042
:1045ac003402000000000000c42f0120680100004c
:1045bc0000000000103f012060000000000000001f
:1045cc00784301200200000000000000a8430120f5
:1045dc000100000000000000983e01202c000000ab
:1045ec000000000048d40020001000000000000073
:1045fc002c3d01204000000000000000c8400120bc
:10460c001000000000000000bc420120040000006b
:10461c0000000000a9430120010000000000000080
:10462c0048e400200008000000000000c042012007
:10463c000800000000000000c42c012080010000d4
:10464c0000000000904001200c0000000000000061
:10465c0048ec00200008000000000000aa430120e4
:10466c000200000000000000d840012008000000fb
:10467c0000000000c84201201000000000000000f3
:10468c00ac43012001000000000000007833012041
:10469c000801000000000000d842012008000000c2
:1046ac0000000000703d01204000000000000000f0
:1046bc006c370120a000000000000000ac45012078
:1046cc00020000000100000001000000442e012047
:1046dc008001000000000000e04201200400000006
:1046ec0000000000b03d0120400000000000000070
:1046fc00e442012018000000000000007a43012071
:10470c000200000000000000fc4201201400000028
:10471c0000000000ad43012001000000000000007b
:10472c00a04501200400000001000000e000000191
:10473c00104301200400000000000000e0400120b4
:10474c0030000000000000001443012010000000a5
:10475c00000000007c430120040000000000000069
:10476c0038be0020000c0000000000008043012037
:10477c000200000000000000ae4501200200000015
:10478c0001000000ffff000024430120080000008e
:10479c00000000005802012040060000000000004c
:1047ac00403a01208000000000000000b0450120cc
:1047bc00020000000100000030c000002c4301206a
:1047cc0008000000000000008243012002000000ed
:1047dc00000000003443012008000000000000002d
:1047ec008443012004000000000000003c43012031
:1047fc0004000000000000008843012002000000bb
:10480c0000000000e023012058020000000000001e
:10481c00341c0120d40200000000000040430120a1
:10482c000800000000000000a03b01206000000018
:10483c0000000000484301201400000000000000ac
:10484c00a44501200400000001000000010000004c
:10485c005c4301200400000000000000503c0120db
:10486c005000000000000000604301200400000024
:10487c00000000000c450120200000000100000099
:10488c000100000003000000000000000000000018
:10489c00000000000000000000000000104101209a
:1048ac0010410120080000000000000064430120ba
:1048bc00040000000000000084440120600000009f
:1048cc0001000000010000000300000000000000d7
:1048dc0000000000000000000000000000000000cc
:1048ec003504030000000000000000000000000080
:1048fc001595030031390300000000000000000092
:10490c00000000000000000000000000000000009b
:10491c00000000000000000000000000000000008b
:10492c00000000009c4001200c0000000000000072
:10493c00000000000000000066666666666666663b
:020000040000fa
:10494c0030b587b0044690f99030002b40f00f81c1
:10495c000378012b04bf0023037090f8d430042b90
:10496c0000f25784dfe813f005008b00d9002f010b
:10497c003b0390f90830b3f1ff3f57d090f8fc207f
:10498c00012a22d051b229b1022a43d0ff2380f848
:10499c009030dce003f01f01c3f34a1303f502006f
:1049ac0000f580700022012303fa01f1c00134f0fc
:1049bc003bfb34f059fd2ff0bdfbc4f8dc0094f840
:1049cc00fc30013384f8fc30cfe034f04dfd2ff097
:1049dc00b1fbd4f8dc30984200f0c78094f9083071
:1049ec0003f01f0201219140c3f34a1303f50200a7
:1049fc0000f580700a46c00134f016fb34f034fd2b
:104a0c002ff098fbc4f8dc0094f8fc30013384f8e8
:104a1c00fc30aae034f028fd2ff08cfbd4f8dc300d
:104a2c00c31a062b94bf002501258fe090f8fc30ab
:104a3c002bb1012b16d0ff2380f8903087e0002398
:104a4c000193b44a009201220321d0f8ec0032f019
:104a5c002bfc002800f0898094f8fc30013384f89a
:104a6c00fc3082e000230193aa4b009301231a46e9
:104a7c000321d0f8ec0032f017fc054666e0d0f8c4
:104a8c00ec0094f8fc30042b43d8dfe813f005005d
:104a9c00c6031300c6033300002200929e4b012173
:104aac0032f02aff002860d094f8fc30013384f8ef
:104abc00fc305ae0d4f8e4309a0ac3f30913b2f587
:104acc00f87f01d11b2b07d09449002029f0d0f995
:104adc00ff2384f890303ae0002200928e4b9049ec
:104aec0032f00aff002840d094f8fc30013384f8ef
:104afc00fc303ae0d4f8e43003f00f0384f8fe30d5
:104b0c002bbb8849002029f0b3f9ff2384f890309f
:104b1c001de0ff2384f8903027e090f8fc10c1f1e1
:104b2c00220200230093804b92b2804800eb0111cb
:104b3c00d4f8ec0023f096fa94f8fc500544edb24e
:104b4c0084f8fc50222d14bf002501256db10023e3
:104b5c0084f8fc3094f8d4300133dbb284f8d430d0
:104b6c00052b04bf022384f890300123237094f9a1
:104b7c009030022b00f0538394f90750c5f34a1080
:104b8c0000f5020000f58070c00134f0dffc05f088
:104b9c001f0520fa05f515f0010f40f076832378f8
:104bac00012b04bf002323700021d4f8ec000af081
:104bbc00c3fb0123237094f80431002b00f076839f
:104bcc000023237068e3d0f8ec0094f8fc302f2b12
:104bdc0000f2fe81dfe813f03000300030003000ce
:104bec003000fc01fc01fc01fc01fc014a004a0004
:104bfc004a004a004a00fc01fc01fc01fc01fc01da
:104c0c0070007000700070007000fc01fc01fc0171
:104c1c00fc01fc018b000102b0000102c600010284
:104c2c00dc000102f2000102080130014d017101aa
:104c3c009601bb01db01f2010093402305aa05217b
:104c4c00204622f055fb054600283ff47faf059b1c
:104c5c0023b10a2384f8fc30002577e7344900207f
:104c6c0029f006f9ff2384f890306fe70a3bdbb29a
:104c7c0000931f2305aa0421204622f039fb054688
:104c8c0000283ff463af059b13f0100f18bf43f0df
:104c9c00e0035bb284f8f03013f1050f04db14234e
:104cac0084f8fc30002551e72149002029f0e0f878
:104cbc00ff2384f8903049e7143bdbb200931f23a9
:104ccc0005aa0821204622f013fb054600283ff4d4
:104cdc003daf059b13f0100f18bf43f0e0035bb220
:104cec0084f8f1301e2384f8fc3000252ee70023d5
:104cfc000093094b01220f4932f0fefd05460028b6
:104d0c003ff424af94f8fc30013384f8fc300025d8
:104d1c001ce700bf33430200895e03003cc602005f
:104d2c0094000a0064c60200bd8803009863010069
:104d3c007cc6020084000400d4f8e430a4f8f230fd
:104d4c0000230093bd4b0122bd4932f0d5fd054631
:104d5c0000283ff4fbae94f8fc30013384f8fc30af
:104d6c000025f3e6d4f8e430a4f8f43000230093e3
:104d7c00b24b0122b34932f0bffd054600283ff487
:104d8c00e5ae94f8fc30013384f8fc300025dde608
:104d9c00d4f8e430a4f8f63000230093a74b01229a
:104dac00a94932f0a9fd054600283ff4cfae94f88e
:104dbc00fc30013384f8fc300025c7e6d4f8e4302d
:104dcc00a4f8f830002300939c4b01229f4932f049
:104ddc0093fd054600283ff4b9ae94f8fc3001333e
:104dec0084f8fc300025b1e6d4f8e430a4f8fa30ad
:104dfc0094f9f0309bb203f1090291b203f10e0267
:104e0c0092b2120142ea8122b4f8f23003f00f039d
:104e1c001a43002301930093012392b28c4932f080
:104e2c0043fa054600283ff491ae94f8fc30013368
:104e3c0084f8fc30002589e694f9f13028339bb2d4
:104e4c00b4f8f420c2f3090242ea8322002301934e
:104e5c000093012392b27a4932f026fa05460028d3
:104e6c003ff474ae94f8fc30013384f8fc30002528
:104e7c006ce694f9f0309bb25a1d91b2b4f8f6205e
:104e8c0022f47c5222f03f0242ea012212b292b288
:104e9c0009331a43002301930093012392b2694909
:104eac0032f002fa054600283ff450ae94f8fc307c
:104ebc00013384f8fc30002548e694f9f0309bb2bd
:104ecc0003f1090291b2b4f8f82022f47c5222f0da
:104edc003f0242ea012212b292b20e331a4300236d
:104eec0001930093012392b2574932f0ddf9054644
:104efc0000283ff42bae94f8fc30013384f8fc30de
:104f0c00002523e694f9f0309bb203f1110291b223
:104f1c00b4f8fa2022f47c5222f03f0242ea012239
:104f2c0012b292b216331a43002301930093012359
:104f3c0092b2464932f0b8f9054600283ff406ae65
:104f4c0094f8fc30013384f8fc300025fee594f82d
:104f5c00fe50002301930093012345f6217243f682
:104f6c0031719d4218bf0a463a4932f09df9054607
:104f7c0000283ff4ebad94f8fe30012b3ff4e6ad86
:104f8c0094f8fc30013384f8fc300025dee5002376
:104f9c0002930193012300934ff440734ff48072fa
:104fac002d4931f0a8ff054600283ff4cfad94f809
:104fbc00fc30013384f8fc300025c7e50023019355
:104fcc00009301237d22254932f06ef90546bde59b
:104fdc00ff2384f890300025b8e50025b6e5d0f81d
:104fec00ec0094f8fc30092b00f20f81dfe813f091
:104ffc000a003c005100630076009500ac00cb0029
:10500c00e4000101637e1bb9042384f8fc30ace599
:10501c00a17d627d00230193114b0093012342ea91
:10502c000122104932f040f900283ff49ead94f86b
:10503c00fc30013384f8fc3097e500bf895e030037
:10504c008a000400ad000400ae000400af000400b0
:10505c0084000400d000040088000a0039020a0011
:10506c00bd88030002ca0400e17d227e0023019367
:10507c008f4b0093012342ea01228e4932f014f93e
:10508c0000283ff472ad94f8fc30013384f8fc3006
:10509c006be500230193864b009301238322864901
:1050ac0032f002f900283ff460ad94f8fc30013383
:1050bc0084f8fc3059e5002301937d4b00930123c8
:1050cc004ff400427d4932f0eff800283ff44dad2b
:1050dc0094f8fc30013384f8fc3046e594f89530b4
:1050ec0094f89420120442ea036294f892301a4322
:1050fc0094f89310002301936d4b0093012342ea23
:10510c0001226f4932f0d0f800283ff42ead94f80c
:10511c00fc30013384f8fc3027e594f8971094f8b0
:10512c00962000230193624b0093012342ea012253
:10513c00644932f0b9f800283ff417ad94f8fc300c
:10514c00013384f8fc3010e594f8973094f89620ed
:10515c00120442ea036294f894301a4394f89510be
:10516c0000230193524b0093012342ea012256493a
:10517c0032f09af800283ff4f8ac94f8fc30013384
:10518c0084f8fc30f1e4a37e002b4ff00003019374
:10519c00474b00934ff0010314bf102200224ff035
:1051ac00011132f081f800283ff4dfac94f8fc30a8
:1051bc00013384f8fc30d8e4e17e49f2e60249f28e
:1051cc00e623002918bf1a46237f0bb142f48072e4
:1051dc0000230193364b00930123042132f064f831
:1051ec0000283ff4c2ac94f8fc30013384f8fc3056
:1051fc00bbe400230193354b009301230c224ff4a5
:10520c00803132f051f80546a0e4ff2384f8903049
:10521c009de4ff2380f89030a7e4002596e4637e9c
:10522c00b3b9d4f8e830002b3ff4a6ac34f01cf939
:10523c002ef080ffd4f8e830c01a04287ff69cac1e
:10524c000023c4f8e830d4f8ec0034f03df893e4d3
:10525c0034f00af92ef06effd4f8e030c31ab3f52f
:10526c007a7fded3c4f8e0002378012b04bf00233f
:10527c00237000230093164b01221649d4f8ec003e
:10528c0032f03afb01232370cbe794f804316bb175
:10529c002378012b3ff494ac002384f804310121d2
:1052ac00d4f8ec000af048f80123237007b030bda5
:1052bc00bd88030005ca04008700040001ca04006d
:1052cc002400010025000100220001009d82030042
:0852dc00bf6e030003ca0400c9
:020000040000fa
:1052e4005478204279746520436f756e742d6c6f09
:1052f400776572203332626974732854784f544c42
:105304004f290000099103005478204279746520e4
:10531400436f756e742d75707065722031366269d5
:1053240074732854784f544849290000139103009a
:105334005478204672616d657320772f6f206572f3
:10534400726f722854784654434e5429000000006a
:10535400000000001d91030054782042726f6164c4
:1053640063617374204672616d6573285478424397
:1053740046542900000000000000000027910300ab
:105384005478204d756c746963617374204672613e
:105394006d65732854784d465429000000000000c0
:1053a400000000003191030054782050617573654a
:1053b400204672616d657328547850465429000064
:1053c4000000000000000000000000003b9103000a
:1053d40054782036342d62797465204672616d6587
:1053e40073285478424654363429000000000000e3
:1053f400000000004591030054782036352d3132e9
:10540400372062797465204672616d657328544251
:105414004654313237290000000000004f91030048
:105424005478203132382d32353520627974652034
:105434004672616d657328544246543235352900ed
:1054440000000000599103005478203235362d3580
:1054540031312062797465204672616d6573285418
:1054640042465435313129000000000063910300a5
:105474005478203531322d313032332062797465dd
:10548400204672616d65732854424654313032337c
:10549400290000006d910300547820313032342dfe
:1054a400313531382062797465204672616d6573d7
:1054b400285442465431353138290000779103008d
:1054c4005478204672616d6573203e3d203135313c
:1054d4003820627974652847544246313531382979
:1054e4000000000081910300547820556e646572b9
:1054f40072756e204672616d6573206e6f742054f0
:105504005865642854785455522900008b9103003f
:1055140054782053696e676c6520436f6c6c6973b3
:10552400696f6e204672616d6573285478534346e3
:105534002900000095910300547820322d31352044
:10554400436f6c6c6973696f6e204672616d65732d
:105554002854784d43462900000000009f91030021
:10556400547820313620436f6c6c6973696f6e20f8
:105574004672616d65732854784543434e5429003f
:1055840000000000a99103005478206c6174652028
:10559400436f6c6c6973696f6e204672616d6573dd
:1055a4002854784c43434e5429000000b39103001f
:1055b4005478204465666572726564204672616d34
:1055c4006573285478445446290000000000000004
:1055d40000000000bd910300547820436172726999
:1055e40065722053656e7365206572726f72204612
:1055f40072616d657328547843534529c79103003c
:105604005278204279746520436f756e742d6c6fe7
:10561400776572203332626974732852784f524c22
:105624004f290000d19103005278204279746520fb
:10563400436f756e742d75707065722031366269b2
:1056440074732852784f524849290000db910300b3
:105654005278204672616d657320772f6f206572d2
:10566400726f722852784652434e5429000000004b
:1056740000000000e591030052782042726f6164db
:1056840063617374204672616d6573285278424376
:10569400465229000000000000000000ef910300c2
:1056a4005278204d756c746963617374204672611d
:1056b4006d6573202852784d465229000000000081
:1056c40000000000f9910300527820506175736561
:1056d400204672616d657328527850465229000045
:1056e400000000000000000000000000039203001e
:1056f40052782036342d62797465204672616d6566
:1057040073285278424652363429000000000000c3
:10571400000000000d92030052782036352d3132fe
:10572400372062797465204672616d65732854422e
:10573400465231323729000000000000179203005e
:105744005278203132382d32353520627974652013
:105754004672616d657328544246523235352900cc
:1057640000000000219203005278203235362d3596
:1057740031312062797465204672616d65732854f5
:105784004246523531312900000000002b920300bb
:105794005278203531322d313032332062797465bc
:1057a400204672616d65732854424652313032335b
:1057b4002900000035920300527820313032342d14
:1057c400313531382062797465204672616d6573b4
:1057d4002854424652313531382900003f920300a3
:1057e4005278204672616d6573203e3d203135311b
:1057f4003920627974657328544d58424652290001
:1058040000000000499203005278204672616d65e1
:1058140073203c203634206279746573285278559d
:1058240046522900000000000000000053920300cb
:105834005278204672616d6573203e2031353138cf
:105844002062797465732852784f4652290000000b
:10585400000000005d9203005278206572726f723e
:10586400204672616d6573203e20313531382062e7
:10587400797465732852784a5229000067920300ac
:10588400527820435243206572726f7220467261cf
:105894006d65732852784643534529000000000083
:1058a40000000000719203005278204c656e67740a
:1058b40068206669656c64206572726f7220467236
:1058c400616d65732852784c464645297b920300e6
:1058d40052782073796d626f6c206572726f7220da
:1058e4004672616d65732852785253452900000051
:1058f4000000000085920300527820616c69676e95
:105904006d656e74206572726f72204672616d658a
:105914007328527841452900000000008f9203004b
:105924005278205265736f75726365204572726f89
:1059340072202852785252452900000000000000cd
:1059440000000000999203005278206f766572720d
:10595400756e206572726f72204672616d65732870
:105964005278524f4529000000000000a392030022
:1059740052782049504864722043686b73756d20d7
:105984006572726f72204672616d65732852784930
:1059940048434529ad920300527820544350204394
:1059a400686b73756d206572726f72204672616ddb
:1059b400657328527854434529000000b7920300c8
:1059c4005278205544502043686b73756d2065727e
:1059d400726f72204672616d657328527855434523
:0859e40029000000c19203003c
:020000040000fa
:0459ec0001207047df
:020000040000fa
:1059f0002de9f04fadf20c5d012973dc4ff0140b73
:105a0000bbf5fa7f28bf4ff4fa7b30f05bfb002830
:105a100074d04ff47a7033f043f9012033f080faf8
:105a2000b749002028f02afa4ff40c720021b6a8da
:105a300033f08ef8b6a811f0d3fc002840f0948023
:105a40000df5367adae97689aba3d3e9002340462f
:105a5000494630f029f806460f46c7aaa949002052
:105a600028f00cfa0df2da22a749002028f006faf5
:105a70000df22442a549002028f000faa44a40f281
