:020000040000fa
:10000000f0ff032065470200b3110300b71103009e
:10001000bf110300c3110300c7110300000000005b
:10002000000000000000000000000000d1110300eb
:10003000bb11030000000000d1110300d111030027
:10004000d1110300d1110300d1110300d11103001c
:10005000d1110300d1110300d1110300d11103000c
:10006000d1110300d1110300d1110300d1110300fc
:10007000d1110300d1110300d1110300d1110300ec
:10008000d1110300d1110300d1110300d1110300dc
:10009000d1110300d1110300d1110300d1110300cc
:1000a000d1110300d1110300d1110300d1110300bc
:1000b000d1110300d1110300d1110300e30f03009c
:1000c000ed0f0300d1110300d1110300d111030082
:1000d000d1110300d1110300d1110300d11103008c
:1000e000d1110300d1110300000000000000000046
:1000f00000000000d1110300858d0100858d0100f5
:10010000858d0100858d0100bd940200bd94020023
:10011000bd940200bd940200d1110300d11103006f
:10012000d1110300d1110300d1110300d11103003b
:10013000d1110300d1110300d1110300d11103002b
:10014000d1110300d1110300d1110300d11103001b
:10015000d1110300d1110300d1110300d11103000b
:10016000d1110300d1110300d1110300d1110300fb
:10017000d1110300d1110300d1110300d1110300eb
:10018000d1110300d1110300d1110300d1110300db
:1001900061dd0200d1110300d1110300d111030070
:1001a000d1110300d1110300d1110300d1110300bb
:1001b000d1110300d1110300d1110300d1110300ab
:1001c000d1110300d1110300d1110300d11103009b
:1001d000d1110300d1110300d1110300d11103008b
:1001e000d1110300d1110300d1110300edde020093
:1001f000d1110300d1110300d1110300d11103006b
:10020000d1110300d1110300d1110300d11103005a
:10021000d1110300d1110300d1110300d11103004a
:10022000d1110300d1110300d1110300d11103003a
:10023000d1110300d1110300d1110300d11103002a
:10024000d1110300d1110300d1110300d11103001a
:10025000d1110300d1110300d1110300d11103000a
:04026000d1110300b5
:020000040000fa
:10026400f8b500bff8bc08bc9e467047ddb8020074
:10027400f8b500bff8bc08bc9e467047b9b8020088
:020000040000fa
:08028400180d0100010000004b
:020000040000fa
:10028c002de9f04f8db00f210a202ef03bf9029092
:10029c0010f0010f40f05d85029b13f0020f40f04f
:1002ac007c850db0bde8f08fd9f8187007f11002fd
:1002bc00059213f4007f21d1fb6809933b690a93e3
:1002cc0000228df82c2006238df82d30330a43eaba
:1002dc000623adf82e300c2109a827f041f8c043b5
:1002ec0083b2d9f8202012f0040f30d032464146a8
:1002fc00484625f00ff9002840f09a86404627f032
:10030c009dfc98f80ca04fea1a1a4fea8a03049342
:10031c00d9f81ca0baf80220002a00f08c86fd89be
:10032c00bb891d44baf800301d445540adb2c74bd3
:10033c00d3f800c0bcf1000f00f08086d9f828e09b
:10034c00c34b1b68039300239b4610460ee01a46d2
:10035c003146404627f004f8cde7b4f872208242cb
:10036c002fd001331bb21c469c452fd9039a52f84f
:10037c002440002cf5d094f876200b2af1d094f878
:10038c0077100129edd8a16c09b18e45e9d1002a6d
:10039c00e3d0b4f87220aa42e3d1daf80010226e4e
:1003ac009142ded1216cfa689142dad1012184f8b4
:1003bc007710c4f848e0059a20462cf0cafca346f6
:1003cc0022e0bbf1000f08bfa346cae7bbf1000f48
:1003dc0000f08380fb68cbf8403001218bf877105c
:1003ec00cbf848e0059a58462cf0b3fcabf87250a9
:1003fc00baf80030abf86030baf80230abf86230c3
:10040c00dbf80030cbf81030d9f810209389049920
:10041c005b1a938198f80d40d8f80870d8f80450fe
:10042c009bf83f3013f0400f5bd19bf875306ff3a6
:10043c0000038bf875309bf87630002b69d0012bbc
:10044c0000f09e801436049aa6eb020a1ffa8afa70
:10045c00aaf1140292b2059214f0010206921abf8c
:10046c00aaf1130a1ffa8af2059a039214f0020fea
:10047c0003d0039a013292b20392dbf81c60dbf8d2
:10048c0020209642c0f0aa80dbf81810dbf814008c
:10049c00091aa6eb020aa1eb0a0a1ffa8af20492c5
:1004ac00dbf85820a5eb020a039a002a00f0a98079
:1004bc00049a002a00f0a080baf1000fc0f29680d6
:1004cc009245c0f0a780039a04998a1a8a45c0f213
:1004dc00a180924540f39e808ee06ff00e0100f0fb
:1004ec0034bc00238bf879309bf83e3013f0020fac
:1004fc009bd12ef0a7f8bbf87020564b1b6803fb62
:10050c0002f3554aa2fb032300eb9310cbf8240013
:10051c008be714f0040f1ad114f0100f1dd114f046
:10052c00020f27d00135cbf85850404620f02efb57
:10053c00abf86a0058462bf036fc012212215846c3
:10054c0007f026fc02238bf876300026e6e3002128
:10055c00584619f0a7f80026e0e3cbf854700022b7
:10056c000421584607f014fc0021584619f09af85b
:10057c000026d3e30021584619f094f80026cde369
:10058c0014f0040f40f0c98314f0100f00f0a08594
:10059c00dbf85460b74205d114f0020f40f05585da
:1005ac000026bbe3cbf8547001220421584607f017
:1005bc00effbcbf854600026b0e32ef043f8bbf809
:1005cc007020244b1b6803fb02f3234aa2fb03237a
:1005dc0000eb9313cbf8243000f056bda2eb060ac7
:1005ec000af1ff3a1ffa8af2049259e703990a4674
:1005fc00514400293ff768af14f0040f1fd00026b8
:10060c008ce3baf1000f05d0baf1000ff4db049ab9
:10061c009245f1da14f0060f20d114f0100f00f00f
:10062c009083023b072b00f2cc81dfe813f029000a
:10063c003e003e003e003e00ca013e00bd010122cc
:10064c001021584607f0a4fb002667e36030012018
:10065c005c30012064300120d34d621014f0040f83
:10066c0008d09bf83f3043f002038bf83f304ff437
:10067c00006600e000260021584619f013f84de3ff
:10068c00dbf85460b74205d103238bf876304ff476
:10069c0080760be0cbf8547001220421584607f009
:1006ac0077fbcbf85460002638e30026dbf81010fb
:1006bc00dbf808305a1a13d4dbf854003b1a9b1a97
:1006cc00002b1dddbbf8742002f40172042a01d149
:1006dc00012b0cd000221021584607f059fb1de3ca
:1006ec00dbf80430dbf800001b1a1a44e4e7013095
:1006fc00cbf854009bf8753043f002038bf875303f
:10070c00dbf85430dbf80c20881a914249d2dbf824
:10071c000420dbf80010521afb1a0344d318079379
:10072c00002b07dddbf80430dbf800209b1a079a5e
:10073c009a4246d9dbf83830002b40f0a280dbf827
:10074c000c20dbf808309a4200f0d980b8f80e3053
:10075c00bbf86e209a4238bfabf86e30dbf85420f1
:10076c00b8f80e303b449b1a9bb2bbf8641031b9fd
:10077c002bb19bf83e1041f040018bf83e10abf8ca
:10078c0064309bf87630042b00f0f080062b40f0a0
:10079c001981974240f0c2820021584618f082ff1e
:1007ac00bce2fb1a03440793002b07dddbf8043093
:1007bc00dbf800001b1a0798984202d99142bed070
:1007cc00b8e740f2dc53cbf834302df03bffdbf8cc
:1007dc003420c44b1b6803fb02f3c34aa2fb032364
:1007ec0000eb9313cbf838309bf83e306ff3451386
:1007fc008bf83e30dbf80c10079b0b44cbf80c301d
:10080c00dbf8102091420ed893421cd99a1adbf8cf
:10081c0054100a44cbf85420cbf81030dbf80420e9
:10082c00934224d313e0dbf80410dbf80000091a20
:10083c000a44934207d99a1adbf854100a44cbf8ad
:10084c005420cbf81030dbf80420934205d3dbf8ae
:10085c000010511a5b1acbf80c30dbf810309342b5
:10086c0005d3dbf80010521a9a1acbf810209bf81b
:10087c007630032b02d0082b7ff461af46f00406d0
:10088c005de72df0dffedbf83830c31a002bfff6e6
:10089c0056afdbf834305b00b3f57a4f28bf4ff41a
:1008ac007a43cbf834302df0cdfedbf834208d4b71
:1008bc001b6803fb02f38c4aa2fb032300eb93138c
:1008cc00cbf83830dbf81010dbf80c20881adbf88a
:1008dc0054301b1acbf85430914207d2dbf8041079
:1008ec00dbf80000091a5b1acbf85430cbf8102057
:1008fc009bf83e3043f080038bf83e301fe79bf8ab
:10090c003f3013f0010f19d113f0400f06d19bf8b3
:10091c003e306ff341038bf83e3017e72df092fe1b
:10092c00bbf870206f4b1b6803fb02f34ff47a7219
:10093c00b3fbf2f30344cbf82430e8e7dbf8543094
:10094c009f427ff403af9bf8743013f0040f3ff415
:10095c00fdae9bf83e306ff341038bf83e309bf8b5
:10096c003f306ff300038bf83f30efe6974203d034
:10097c0014f0200f35d0d1e19bf8743013f0040f34
:10098c00f6d02df05ffe574b1a6841f2883303fb0b
:10099c0002f34ff47a72b3fbf2f30344cbf830302a
:1009ac0005238bf87630e3e7dbf8543001339f42b4
:1009bc0001d00026b2e10021584618f073fe002643
:1009cc00ace1002614f0200f40f0a8819bf87620b3
:1009dc00a2f10803dbb2012b40f2a081062a00f041
:1009ec009d81059a002a3fd0baf1000f7edd059b50
:1009fc005344049a934203dda2eb0a039bb2059382
:100a0c0098f80c301b0908eb83030893dbf81c10d7
:100a1c00dbf81830059a52440a44934280f0f48073
:100a2c005a1a0132b2eb0a0200f1df801ffa82f887
:100a3c0001240094434608a802465144484625f038
:100a4c00fbfd0490059aa2eb080300949bb208aa44
:100a5c00dbf81410484625f0effd049b034498b2d4
:100a6c00059b834200f0d980039bcbb19bf8763079
:100a7c00033bdbb2022b84bfdbf81c30cbf82030fd
:100a8c009bf83e3013f0100f40f0fa809bf83e308c
:100a9c0043f010038bf83e3013f0080f00f0f68093
:100aac00069b002b00f03a81dbf858300133039a97
:100abc002a44934240f03281cbf8583046f4806699
:100acc009bf83f3043f004038bf83f309bf87630b3
:100adc00023b032b00f20781dfe813f0ec00f5007a
:100aec00fe00150164300120d34d621098f80c30d3
:100afc001b09caeb830343440893524493b2049af0
:100b0c009a4228bf1a469246dbf81c10dbf81830c4
:100b1c008a18934259d25b1a01330493bdf81080a2
:100b2c0001240094434608aa484625f085fd05900b
:100b3c00aaeb080300949bb208aadbf814104846f1
:100b4c0025f07afd059a024490b2049baaeb0303ac
:100b5c00dbf814201344504586d1dbf8581051446f
:100b6c00cbf85810cbf81c309bf87620033ad2b255
:100b7c00022a98bf46f40076dbf85c20b2f1ff3f06
:100b8c003ff472afa2eb0a0acbf85ca0bbf868206a
:100b9c0012eb0a0224d4baf1000f3ff765af1144ef
:100bac00cbf858101344cbf81c30dbf818209342c8
:100bbc0006d9dbf81410521ad2431344cbf81c306c
:100bcc004ff0ff33cbf85c304ee7012300935346d4
:100bdc0008aa484625f030fddbf81c305344bae730
:100bec004ff0ff33cbf85c303ee70af1ff30dbf817
:100bfc0014209b1ac01a01230093059b08aa0144d8
:100c0c00484625f019fd2be701230093059b08aa04
:100c1c005144484625f010fd22e7dbf85c30b3f177
:100c2c00ff3f15d09a4519d2059a02eb0a01bbf881
:100c3c006820d018814205d88b4203d8a0eb0a0358
:100c4c009bb20593059babf86830cbf85ca00be727
:100c5c00cbf85ca0059babf8683005e7bbf86820c7
:100c6c001a4405980146514491427ff6fdae9245d7
:100c7c003ff6faaeaaeb03031844abf86800f3e6b0
:100c8c0001221021584607f083f809e7dbb243f044
:100c9c0008038bf83e302df0d5fcb14b1a68642359
:100cac0003fb02f34ff47a72b3fbf2f30344cbf879
:100cbc002c30f5e609238bf87630012211215846a9
:100ccc0007f066f82ae008238bf876309bf875302d
:100cdc0013f0010f07d021e0dbf854309f4208d00d
:100cec0006238bf8763001221021584607f050f875
:100cfc0014e000221021584607f04af8002158460b
:100d0c0018f0d0fc0ae000221021584607f040f8f9
:100d1c000021584618f0c6fc00e00026bbf87a20eb
:100d2c00324000f08e81dbf87c40002c00f08b818f
:100d3c00dbf88030d9f82810bbf93c00a047022121
:100d4c0003e00026eae76ff00d010a2248462cf07a
:100d5c00a3fc0a202ff082fa814600283ff49caabb
:100d6c00b9f82c60132eeed9d9f81c8098f80c30f9
:100d7c001b09042b0bd9b6eb830f0bdbd9f82030f6
:100d8c0013f400343ff490aa6ff00e01dde76ff01e
:100d9c000d01dae76ff00d01d7e7724b1b68002be2
:100dac003ff47faa00252b46dff8bc91dff8bca1ed
:100dbc00dff8b081e6e02df045fca36ac01a0028ec
:100dcc00a8bf1026f4e02df03dfce36ac01a002801
:100ddc00c0f2f48094f87630052b00f08a8110264e
:100dec0087f001023146204606f0d2ffeee02df0ee
:100dfc0029fc236bc01a0028c0f2e58001221421c3
:100e0c00204606f0c5ff0021204618f04bfcb1e04f
:100e1c0094f83e6006f001060121204621f08bf982
:100e2c0094f83e3043f0010384f83e304ff4805286
:100e3c000021204628f095ff002e40f09b8094f86e
:100e4c003e306ff3000384f83e300a2384f876308a
:100e5c0090e02df0f7fb636ac01a0028c0f28a807c
:100e6c0094f876104b1e082b00f28280dfe803f01a
:100e7c000541556080688080700094f87830032bb1
:100e8c0040f22b81042384f87830354b1a684ff4e8
:100e9c007a7303fb02f3aafb03239b091b01236553
:100eac000221002694f87830013384f87830236dd1
:100ebc005b0023652069e268831a9bb2904204d2de
:100ecc0060682768c01b03449bb2606dc01a6065e4
:100edc00b4f864000344a4f8643022610022204674
:100eec0006f056ff002e45d00021204618f0dafb04
:100efc0040e094f87830022b40f2f18094f83e6098
:100f0c0006f001031e46002b18bf1421002fc9d177
:100f1c000122204606f03cffe4e794f87830042bdd
:100f2c0040f2df80042384f8763011210026ede7af
:100f3c0094f87830042b40f2d68014210126e5e792
:100f4c0094f87830042b40f2d08014210126dde790
:100f5c0094f87830042b40f2ca8014210126d5e78e
:100f6c0064300120603001205c300120d34d6210d0
:100f7c00002e5ad101352db22b46d8f800209542bf
:100f8c00bff48fa9d9f8002052f82340002cf1d0df
:100f9c0094f876300b2bedd094f83e3013f0c0065d
:100fac001abfdf091026002713f0040f7ff403afdc
:100fbc0094f83e3013f0080f7ff405af94f87630b8
:100fcc00052b3ff414af002e7ff40aaf94f83e309b
:100fdc0013f0020f7ff43daf94f83f3013f0400f45
:100fec00c8d094f87630032bc4d12df02bfb636a58
:100ffc00c01a0028bedb94f8792094f884309a4209
:10100c003ff406af02221021204606f0c1fe2df05f
:10101c0019fbb4f870203b4b1b6803fb02f3aafbd3
:10102c00032300eb93106062a4e7314600266de7c2
:10103c006ff0090189e66ff00e0186e66ff00e0184
:10104c0083e6022181e602217fe60135cbf8585078
:10105c00b8f80e30abf86e30abf8643040461ff089
:10106c0095fdabf86a0058462af09dfe012210212e
:10107c00584606f08dfe03238bf876309bf83f30f4
:10108c0013f0400f7ff499aa9bf83e306ff34103a5
:10109c008bf83e304ff4807640e60135cbf8585053
:1010ac00b8f80e30abf86e30abf8643040461ff039
:1010bc006dfdabf86a0058462af075fe012212212c
:1010cc00584606f065fe02238bf87630002625e69e
:1010dc0014f0020fe1d1002620e60221e1e61221f4
:1010ec00dfe61021dde61121dbe61021d9e6112126
:1010fc00d7e62df0a7fa236bc01a0028bff67eaef8
:08110c0010266de6643001209d
:020000040000fa
:101114002de9f04f2ded028b9bb00f2121202df0f6
:10112400f5f9002800f007877d4b1b68002b40f37e
:1011340002877c4c0026dff820929fed7b8ab9e37e
:10114400d4f8c4305d6894f8d1202ab3227c012af3
:1011540042d0022a61d1b4f93830b3f1ff3f25d02f
:101164000023724a4ff40071b4f938002cf0d5fc16
:10117400d4f8bc200221b4f938001af0b7fb30b916
:10118400d4f8c4301b681b6869492846984706216f
:10119400204628f09bfc86e31b681b6865492846ab
:1011a40098470121204628f091fc7ce304f1800259
:1011b400618a012021f0c0f82087b0f1ff3fcfd130
:1011c400d4f8c4301b681b685b4928469847012142
:1011d400204628f07bfc66e304f18002618a01204a
:1011e4002ff0f3fea087b0f1ff3f0ad00023534a4b
:1011f4004ff480712cf062fe0321204628f066fc37
:1012040051e3d4f8c4301b681b684d4928469847fd
:101214000121204628f05afc45e31b681b68494914
:10122400284698470121204628f050fc3be3d4f897
:10123400c430d3f804b03b4be31adb1003ebc30216
:1012440003eb4203c3eb432303eb8343c3f1000ae1
:1012540097e0d4f8c4301b681b683b49584698474c
:101264000421204628f032fc1de3b4f93c002df0a3
:1012740018fe18e30133c4f8943028462df022fefa
:1012840002460b46d4e9080112f0f3f8c4e9080158
:10129400002f19dba36ae26a511c8b4231d09342be
:1012a40020dc616b01f1010161632cd020e0d4f8f2
:1012b400c4301b685b68254958469847236b013b3b
:1012c400a26a1344236391e07f42a7622df0bef922
:1012d400c4f88c00002384f8cc300421204628f084
:1012e400f5fbd7e75b1a226b13442363a36ae3621b
:1012f4000c3dadb2002d44d0dff858804ff4c867e0
:1013040036e0934206d1d4f8c4301b681b681049f8
:1013140058469847a36ae26a9342e9dde7e700bfcb
:10132400443001204020012000007a445d04030081
:101334001ce20000d4e10000f8e1000047040300cf
:1013440044e2000068e2000080e20000a0e2000045
:10135400cce2000018f20020b02c01203a464146ad
:10136400b4f93c001df062f8a5f5c865adb245b10d
:10137400b5f5c86ff2d22a46d149b4f93c001df044
:1013840055f8b4f93c002df011f905460b2878d92d
:101394000c224946b4f93c001df048f80c287ff4af
:1013a40058afd9f800301f0e47ea03671a0202f457
:1013b4007f0217431b0a03f47f431f43a762d4f839
:1013c4009430002b7ff456af002ffff64eaf01236d
:1013d400c4f89430d4f8c4301b685b685246b949e9
:1013e40058469847a26a002a7ff461afa36ae36271
:1013f40005a9b4f93c001cf05ff8b4f93c002ff0e7
:1014040049fb2ef0abf8069dd4f8c4301b68628a01
:101414000292020e0192c0f3074200925f68c0f389
:101424000723c2b2a8495846b847d4f8c4301b6849
:10143400bdf8582002922a0e0192c5f30742009289
:101444005f68c5f30723eab2a0495846b847656404
:10145400bdf85830a4f864302df0f8f8c4f88800ca
:10146400c4f8a800a36ac4f89c30d4f89430c4f833
:101474009830236bc4f8a030b4f93c002df011fd72
:101484007fe7d4f894304bb994f8cf30012b40f077
:101494000a820421204628f019fb04e22df0d6f834
:1014a400d4f8a830c31a22689342edd9d4f8942012
:1014b400d4f898309a4212d1d4f8c4301b681b680f
:1014c4008349584698472df0c1f8c4f88c0000238e
:1014d40084f8cc300421204628f0f8fad4e700211f
:1014e400204610f0b5ffcfe7b4f93c002df05ef8cc
:1014f40038b994f8cf304bb10921204628f0e6fae8
:10150400d1e1b4f93c002df0ccfccce1052120461e
:1015140028f0dcfac7e194f8cd30002b00f0bd8050
:10152400b4f93c002df042f8002840f0be8094f855
:10153400cc305a1c84f8cc200a2b00f2bb808021ca
:10154400b4f93c002ff0c6fd002800f0ac81e36a3a
:101554005b421a0e42ea0362190201f47f010a4354
:101564001b0a03f47f431343c9f800300025c9f86c
:101574000450c9f808508023c9f80c30c9f8105039
:10158400d4e908012df0d0fb020e42ea0062030206
:1015940003f47f031a43030a03f47f431343c9f894
:1015a40014302df067f8d4f88c10d4f88830c91aa8
:1015b400b1fbf0f31a0e42ea03621f0207f47f073d
:1015c4003a431f0a07f47f473a43c9f8182000fb3f
:1015d400131307ee103ab8ee477a27ee087a07eeaf
:1015e400900af8ee676ac7ee267a67ee887afcee10
:1015f400e77a17ee903a1a0e42ea0362190201f4ee
:101604007f010a431b0a03f47f431343c9f81c30c8
:10161400236b1a0e42ea0362190201f47f010a43a2
:101624001b0a03f47f431343c9f82030636b1a0e7b
:1016340042ea0362190201f47f010a431b0a03f41c
:101644007f431343c9f82430e36a1a0e42ea036263
:10165400190201f47f010a431b0a03f47f43134375
:10166400c9f82830c9f82c50c9f8305034224946fa
:10167400b4f93c0029f078f94c273a46294605a8e4
:101684002ff012f93a4605a9b4f93c0029f06cf997
:10169400b4f93c0011f0ccfd05e10221204610f024
:1016a400d7fe012384f8cd303ae7b4f93c002df09d
:1016b400f8fbf8e00921204628f008faf3e000bf1f
:1016c40018f2002004e30000dcc2010010c3010092
:1016d400ece2000094f8cf30012b26d0b4f93800a6
:1016e4002df0eff8002800f0de803822002105a854
:1016f4002ff0daf805a9b4f9380024f0fcfd04f160
:10170400400705ad0fcd0fc70fcd0fc70fcd0fc7c6
:1017140095e8030087e803000721204628f0d6f95e
:10172400b4f938002cf0e4fcbde00921204628f08f
:10173400cdf9b8e0d4f8c4305f68b4f938002ff0bc
:1017440012f90546002865d0a36a002b49d1bd4b88
:10175400e31adb1003ebc30203eb4203c3eb4323a3
:1017640003eb8343d4f8c4201268d2f804805a42ad
:10177400b5493846c0472cf069ffc4f88800c4f85e
:10178400a800a36ac4f89c30b4f938002ff062f9b9
:101794002df0e4fed4f8c4301b68628a0292020e73
:1017a4000192c0f307420092d3f80480c0f30723e8
:1017b400c2b2a6493846c047d4f8c4301b68b4f84e
:1017c4006420029294f84720019294f846200092f3
:1017d400d3f8048094f8453094f844209c49384662
:1017e400c047a36a0133a362d4f894200132c4f839
:1017f4009420e36228462df065fb02460b46d4e9ab
:10180400080111f036fec4e90801dff848824ff4fc
:10181400c8671ce0b4f938002cf06afc20b9b4f9ac
:1018240038002ef024fed8b12cf010ffc4f88c0040
:101834000821204628f04af935e03a464146b4f9f1
:1018440038001df0d7fda5f5c865adb245b1b5f5b5
:10185400c86ff2d22a467f49b4f938001df0cafd98
:10186400a36a63b994f8cf30012b1cd10821204618
:1018740028f02cf92cf0eafec4f88c0013e02cf0cc
:10188400e5fed4f8a830c31a22689342ead90021ad
:10189400204610f0ddfde5e794f8cd30c3b309210f
:1018a400204628f013f90136d8346b4b1b68b34239
:1018b40040f3418394f8ce30012bf4d0023b102b3b
:1018c40000f2348301a252f823f000bf4511000056
:1018d40033120000ed1400001b150000d91600009f
:1018e400391700009d18000025190000c1190000d7
:1018f400ed1900002f1c0000151d00001b1e000028
:101904000b1f0000ed1a00007b1e0000211f0000c9
:101914000221204610f09cfd012384f8cd30bee75f
:10192400d4f8c4305f68237c012b29d0022b2cd03f
:10193400444be31adb1003ebc30203eb4203c3eb98
:10194400432303eb83435d42d4f8c4301b685b68d4
:101954002a46424938469847204628f08bfe94f898
:10196400d130012b19d0d4f8c4301b685b682a46e7
:101974003b49384698470121204628f0a7f892e7ca
:10198400b4f93c0029f058fad2e7b4f938002af047
:101994005dfb4ff6ff732387cae794f8cf30002b23
:1019a400e1d1d4f8c4301b685b682a462d49384617
:1019b40098470221204628f089f874e7d4f8c80033
:1019c4002ef0eff9032808d10b21204628f07ef8e9
:1019d4002cf03cfec4f8ac0065e704f14401d4f8f3
:1019e400c80029f08efbefe7d4f8c4305d6894f8a2
:1019f400cf20012a17d0d4f8c8002ef0d2f903283a
:101a04001bd094f8443003f0f003e02b2ed1237c58
:101a1400012b64d0237c022b7ff445af0c2120469c
:101a240028f054f83fe71b681b680f49284698477d
:101a34000121204628f04af835e70022a267a4f8dd
:101a44007c20e4e74020012004e30000dcc2010024
:101a540010c3010018f200204430012030e30000dc
:101a640094e3000060e30000b4e3000004f17802b2
:101a740004f14401d4f8c80022f0a4f9b8b1d4f8b0
:101a8400c4301b6894f87d20039294f87c20029261
:101a940094f87b20019294f87a2000925f6894f87d
:101aa400793094f87820c0492846b847afe72cf03d
:101ab400cdfdd4f8ac30c71a2cf0dcfd00eb80006f
:101ac40087427ff6f0aed4f8c4301b681b68b74970
:101ad400284698472cf0bafdc4f8ac00e3e6102180
:101ae400204627f0f3ff95e7d4f8c4305d6804f18d
:101af4004402618a01202ff06dfaa087b0f1ff3f04
:101b040000f087800023aa4a4ff480712cf0d6f9a4
:101b1400e2680521b4f93c000bf05afc30b9d4f862
:101b2400c4301b681b68a349284698470222062133
:101b3400b4f93c000bf04cfc30b9d4f8c4301b6849
:101b44001b689d4928469847d4f8c810b4f93c004e
:101b540026f030fd05a9b4f93c001bf0adfcbdf83e
:101b64005a30a4f87e30d4f8c4301b681b689349fb
:101b740028469847d4f8c4301b68628a029294f8c5
:101b84004720019294f8462000925f6894f845300b
:101b940094f844208a492846b8471121204627f062
:101ba40095ff2cf053fdc4f888002bf099fe0546f0
:101bb4000f462ff0b5f879016b0141ead5625b1b42
:101bc40062eb0702510241ead3514fea432c0a4621
:101bd4001ceb050347eb0202910141ea93614fead2
:101be400831cbceb030c61eb0201024600231cebdb
:101bf400050047eb01012bf01bffd4f88430184497
:101c0400c4f890004ff4c86255216e482ef04cfe83
:101c140049e6d4f8c4301b681b686b4928469847ca
:101c24000121204627f052ff3de6d4f8c4305d6818
:101c34000022618a01202ef073f86087b0f1ff3f23
:101c440051d00023614a4ff400712bf066ffd4f8a1
:101c54008030002b53d104f1440300220121b4f954
:101c64003a0028f0abf84ff48063a4f87e30d4f83f
:101c7400c4301b681b68514928469847d4f8c430bf
:101c84001b68628a029294f84720019294f84620d5
:101c940000925f6894f8453094f844204c492846f3
:101ca400b8470d21204627f011ffd4f8b8200321ae
:101cb400b4f93a0019f01afe30b9d4f8c4301b68ec
:101cc4001b683c4928469847b4f93a002bf00effac
:101cd4002cf0bcfcc4f8ac004ff4c8625421394861
:101ce4002ef0e2fddfe5d4f8c4301b681b683949e7
:101cf400284698470121204627f0e8fed3e504f161
:101d04008003628a0121b4f93a001df0fffea2e7c4
:101d140094f8cf30012b42d0d4f8c4305f68b4f9c2
:101d24003a002cf0cefd002856d0b4f93a002cf03d
:101d3400dff92cf08bfcc4f888002bf0d1fd0546ac
:101d44000f462ef0edff79016b0141ead5625b1b72
:101d540062eb0702510241ead3514fea432c0a468f
:101d64001ceb050347eb0202910141ea93614fea40
:101d7400831cbceb030c61eb0201024600231ceb49
:101d8400050047eb01012bf053fed4f884301844ce
:101d9400c4f890000e21204627f098fe83e50f2119
:101da400204627f093fe7ee514e40000d4e300000f
:101db4004704030040e4000068e40000a842010076
:101dc40090e4000018f2002044e200005d040300e7
:101dd400c8e40000f8e100002cf038fcd4f8ac3082
:101de400c51a2cf047fc00eb800085427ff65bad02
:101df400b4f93a002af02af94ff6ff736387d4f84e
:101e0400c4301b681b684e49384698470f2120464a
:101e140027f05cfe47e5204609f06afd01280bd057
:101e240002287ff440ad0f21204627f04ffe2cf00e
:101e34000dfcc4f88c0036e5424f00bfb4f8b05036
:101e44008db1b5f5c86f28bf4ff4c8652a46394629
:101e5400b4f93a0016f060fbb4f8b0301b1aa4f8d9
:101e6400b0308542ead9b4f93a002cf03dfd204661
:101e740013f0f2fd17e5227d0b21b4f93c000bf0c1
:101e8400a7fa204609f034fd01280bd002287ff47c
:101e94000aad1221204627f019fe2cf0d7fbc4f816
:101ea4008c0000e5b4f8b05015b30027dff894a017
:101eb400a846b5f5c86f28bf4ff4c86842465146d6
:101ec400b4f93c0028f050fd0744bfb22d1aadb25e
:101ed400804501d1002debd1b4f93c0011f0a8f9f3
:101ee40040b900221146b4f93c0029f09effdae41f
:101ef4002f46f1e7b4f8b030df1ba4f8b0702046e9
:101f040013f0aafdcfe4204624f09afeb4f93a0077
:101f14002af09cf84ff6ff736387c4e4204624f04c
:101f24008ffeb4f93c0028f087ffbce40121204671
:101f340027f0ccfdb7e41bb0bdec028bbde8f08ffd
:081f440000e5000018f2002086
:020000040000fa
:101f4c00f82d01201c00000000000000ac8c0020cb
:101f5c0004000000000000003c20012004000000f0
:101f6c00000000008c240120040000000000000090
:101f7c003432012001000000000000007c2f012001
:101f8c000400000000000000a82e01200800000042
:101f9c0000000000f72d01200100000000000000ef
:101fac00852e0120010000000000000025320120d8
:101fbc000100000000000000e82f012004000000d8
:101fcc00000000002632012001000000000000008b
:101fdc00ec2f01200400000000000000002c012068
:101fec003c0000000000000000000020e45e000047
:101ffc0000000000f02f012008000000000000008d
:10200c00273201200100000000000000802f012079
:10201c001000000000000000f82f01201800000044
:10202c000000000038be0020100c00000000000072
:10203c0090240120980000000000000029320120ab
:10204c000100000000000000902f0120080000009b
:10205c0000000000103001200c0000000000000007
:10206c00cc2801206c000000000000003032012060
:10207c00010000000000000050320120d4000000dc
:10208c00010000003c8f0200000000000000000076
:10209c000000000000000000000000000000000034
:1020ac000000000000000000000000000000000024
:1020bc000000000000000000000000000000000014
:1020cc000000000000000000000000000000000004
:1020dc0000000000000000000000000000000000f4
:1020ec0000000000000000000000000000000000e4
:1020fc0000000000000000000000000000000000d4
:10210c0000000000000000000000000000000000c3
:10211c0000000000000000000000000000000000b3
:10212c0000000000000000000000000000000000a3
:10213c000000000000000000000000000000000093
:10214c000000000000000000000000000000000083
:10215c00000000000000000010340120010000000d
:10216c0001000000ff0000001c30012004000000f2
:10217c0000000000d82601208000000000000000b4
:10218c003c2b012044000000000000002a320120fa
:10219c0001000000000000002030012004000000bd
:1021ac0000000000882e012010000000000000003c
:1021bc00281e01200c01000000000000243001202a
:1021cc000400000000000000982e01201000000008
:1021dc000000000028300120040000000000000076
:1021ec00542a01205000000000000000b08c002098
:1021fc0078240000000000002c32012001000000b7
:10220c00000000002c300120040000000000000041
:10221c0048230120a40000000000000058280120e1
:10222c007400000000000000b02e0120100000001f
:10223c0000000000102d012028000000000000000c
:10224c002825012090000000000000002832012009
:10225c0001000000000000003030012004000000ec
:10226c0000000000382d01202000000000000000bc
:10227c00243201200100000000000000b8330120ce
:10228c000c00000001000000f4010000d007000069
:10229c00010000006c33012026000000010000004a
:1022ac0008000800020001000200080000060006f9
:1022bc000101540030303a30343a32353a30313a48
:1022cc0030323a303100000094330120120000000b
:1022dc000100000030303a30343a32353a30313a7d
:1022ec0030323a3034000000a833012010000000d6
:1022fc000100000001010000dd890200e9b60200c6
:10230c000000010008340120020000000100000060
:10231c0000010000f42a0120480000000000000029
:10232c00e03301200600000001000000ffffffff6a
:10233c00ffff0000102f012018000000000000001b
:10234c00b82501209000000000000000343001206e
:10235c000c0000000000000040200120d80000000c
:10236c0000000000b02c0120340000000000000030
:10237c004030012004000000000000002b3201203e
:10238c0001000000000000004430012004000000a7
:10239c000000000018f200204006000000000000c1
:1023ac00483001200c00000000000000282f012004
:1023bc000c00000000000000c02e012010000000e6
:1023cc00000000002d320120010000000000000080
:1023dc00522a012002000000000000007a2f012088
:1023ec000200000000000000543001200400000036
:1023fc0000000000d02e01201000000000000000a2
:10240c00583001201000000000000000e62f0120d1
:10241c000200000000000000862e012002000000d7
:10242c0000000000683001200c00000000000000db
:10243c002e32012001000000000000007430012049
:10244c000400000000000000302e012018000000e5
:10245c0000000000783001200c000000000000009b
:10246c000c3201200200000000000000843001202a
:10247c00040000000000000048ea0020d007000023
:10248c000000000088300120100000000000000057
:10249c000e320120020000000000000098300120e4
:1024ac000800000000000000742e01201100000044
:1024bc0000000000d82d01201f00000000000000cb
:1024cc00a0300120040000000000000010320120a8
:1024dc000200000000000000a430012010000000e9
:1024ec000000000012320120020000000000000079
:1024fc00b43001200800000000000000143201205c
:10250c000200000000000000bc30012010000000a0
:10251c00000000002f32012001000000000000002c
:10252c00c43301200400000001000000640000001e
:10253c00243301202800000001000000bb0103002f
:10254c00d10101004b020100330203007c020300a5
:10255c00dd030300de030300e0030300e1030100dd
:10256c00b3220100cc300120040000000000000068
:10257c00782c01203800000000000000d030012031
:10258c001000000000000000482601209000000010
:10259c000000000034120120800200000000000046
:1025ac00e03001202800000000000000342f012042
:1025bc000c00000000000000482e01201800000054
:1025cc0000000000142e01201c0000000000000080
:1025dc00083101200400000000000000313201200d
:1025ec0001000000000000000c310120040000007c
:1025fc0000000000e833012004000000010000008e
:10260c00ffffffff103101200c0000000000000054
:10261c00702f01200a000000000000001c31012076
:10262c001c00000000000000163201200200000017
:10263c0000000000383101200800000000000000fc
:10264c003232012001000000000000004c19012072
:10265c009c03000000000000582d012060000000c9
:10266c0000000000333201200100000000000000d7
:10267c00e42c01202c0000000000000048ca0020bf
:10268c000010000000000000802b01204000000022
:10269c0000000000982f0120100000000000000036
:1026ac004031012004000000000000003532012000
:1026bc00010000000000000048da002000080000c3
:1026cc000000000044310120080000000000000060
:1026dc0018210120c000000000000000402f012044
:1026ec000c0000000000000048e200200008000080
:1026fc000000000036320120020000000000000043
:10270c00a82f012008000000000000004c3101201f
:10271c001000000000000000383201200100000011
:10272c0000000000341f0120080100000000000020
:10273c005c3101200800000000000000c02b0120cb
:10274c004000000000000000ec230120a00000006d
:10275c00000000004e3201200200000001000000c9
:10276c00010000003829012060000000000000007a
:10277c00643101200800000000000000b02f01208f
:10278c00100000000000000039320120020000009f
:10279c00000000006c31012004000000000000006b
:1027ac00602e012014000000000000003b320120cc
:1027bc000100000000000000703101200400000046
:1027cc0000000000c02f01200800000000000000e5
:1027dc00e02e012010000000000000004c2f012012
:1027ec000c00000000000000c82f012008000000b1
:1027fc0000000000f02e012010000000000000007e
:10280c00582f01200c00000000000000d02f0120e8
:10281c0008000000000000003c3201200200000013
:10282c00000000005827012080000000000000007c
:10283c00002f012010000000000000007431012066
:10284c0004000000000000003e32012003000000e4
:10285c0000000000ec330120040000000100000027
:10286c00ffffffffc833012018000000010000002b
:10287c00000000000000f03f000000000000f03fee
:10288c00000000000000f03fb82d012020000000e7
:10289c000000000041320120010000000000000097
:1028ac00f82901205a0000000000000042320120eb
:1028bc000100000000000000783101200800000039
:1028cc000000000043320120020000000000000064
:1028dc0018320120020000000000000045320120e7
:1028ec000100000000000000e02f012006000000a5
:1028fc000000000046320120010000000000000032
:10290c008031012004000000000000003c2c01205c
:10291c003c00000000000000843101201000000089
:10292c000000000047320120010000000000000000
:10293c00943101200400000000000000f03301205d
:10294c0004000000010000007d0000009829012017
:10295c00600000000000000028b10020100d0000f5
:10296c00000000009831012004000000000000006d
:10297c00e45e0020c82d0000000000004832012059
:10298c00010000000000000098220120b0000000af
:10299c00000000009c310120080000000000000035
:1029ac000c1701204002000000000000a43101209f
:1029bc000800000000000000e81c0120400100009d
:1029cc00000000004932012002000000000000005d
:1029dc00d8210120c000000000000000ac31012013
:1029ec0008000000000000001a3201200200000064
:1029fc0000000000d809012088050000000000003c
:102a0c001c320120020000000000000098fe002093
:102a1c00a0050000000000001e3201200200000092
:102a2c000000000038040120a00500000000000098
:102a3c004b3201200200000000000000b4310120e4
:102a4c000c000000000000002032012002000000f9
:102a5c0000000000f433012004000000010000001d
:102a6c00960000001134012002000000010000005b
:102a7c000603000092330120020000000100000058
:102a8c0001000000f83301200400000001000000e8
:102a9c00dc050000c031012008000000000000002f
:102aac0058f800204006000000000000d827012044
:102abc008000000000000000a6330120020000008e
:102acc000100000030c000004d3201200100000068
:102adc0000000000fc330120040000000100000095
:102aec00e0000001b41401205802000000000000b6
:102afc00c83101200800000000000000600f012018
:102b0c00d40200000000000022320120020000006c
:102b1c0000000000d0310120240000000000000063
:102b2c000034012004000000010000000900000036
:102b3c00e63301200200000001000000ffff00004e
:102b4c000a3401200600000001000000ffffff070f
:102b5c00ff070000f43101200c0000000000000011
:102b6c0004340120040000000100000001000000fa
:102b7c00003201200400000000000000a42a012003
:102b8c00500000000000000004320120040000008e
:102b9c00000000004c330120200000000100000068
:102bac000100000003000000000000000000000015
:102bbc00000000000000000000000000d82f0120e1
:102bcc00d82f01200800000000000000083201206e
:102bdc000400000000000000642f01200c00000025
:102bec000000000000000000000000006666666641
:020000040000fa
:102bfc00f0b583b0a24a136801331360a14b1b7864
:102c0c001b2b00f24e85dfe813f028001c004b0054
:102c1c009200a200e3000d019c01b801d801f4015f
:102c2c001402260242020003fe0317047f049504db
:102c3c00d504ff041d0529033c0372039103a4036f
:102c4c00dc03914b1b7853b98d4b1a688f4b1b6867
:102c5c00d31a8f4909688b421cd203b0f0bd0024f3
:102c6c00894b1c708b49204624f094f8882322460b
:102c7c008949204624f08ef823464ff2107287497a
:102c8c00204624f087f81e2322468549204624f04e
:102c9c0081f8d9e77d4b1a607a4b02221a70dce777
:102cac00804b1b78002bd8d17f4c3c220021204636
:102cbc002df0f6fd204625f0ffff0222e2734ff4c3
:102ccc0030532382794b197884f82210597884f880
:102cdc002310997884f82410ff2184f82510fe2104
:102cec0084f82610d97884f82710197984f82810dc
:102cfc005b7984f829304ff4807363856c4b1988a9
:102d0c000b0243ea1123a3851023a3732275082316
:102d1c006375fd2384f82f3084f82e200023654a38
:102d2c001370654a1360574b11221a7095e7634b69
:102d3c0000221a70012162482bf0ceff18b9514bba
:102d4c0001221a7089e74f4b04221a7085e75b4bfe
:102d5c001b788bb9584a136801331360c72b7ff665
:102d6c007caf5849002024f015f8534b00221a6010
:102d7c00444b01221a7070e74f4b00221a60524be1
:102d8c001b6813f0800f10d14a4a13780133dbb261
:102d9c001370042b18d9464b1a884c49002023f089
:102dac00f9ff384b01221a7057e7414b1a884849f2
:102dbc00002023f0efff00233e4a13703e4a1360bd
:102dcc00304b05221a7048e72e4b03221a7044e749
:102ddc0000202df025fc044688b1354b1b8802469b
:102dec003c49002023f0d6ff3b4b1c600023314aaa
:102dfc001370314a1360234b07221a702de72f4ba7
:102e0c0000221a70012108202bf066ff30b93349db
:102e1c0023f0c0ff1b4b01221a701ee7194b062230
:102e2c001a701ae700202df0fbfb0446a8b9234bbf
:102e3c001b78002b58d1204a136801331360c72b21
:102e4c007ff60baf2649002023f0a4ff1a4b00227b
:102e5c001a600c4b01221a70ffe6154b1b880246b8
:102e6c002049002023f096ff1b4b1c600023114ac5
:102e7c001370114a1360034b07221a70ede600bf62
:102e8c008831012046320120433201207c3101205f
:102e9c00f0330120d84700000c48000034480000f3
:102eac005c480000473201203c2c0120e02f01201f
:102ebc001832012044320120943101204232012089
:102ecc00400004008448000078310120d048000004
:102edc00b0480000fc480000803101202849000067
:102eec0084490000504900000020ac4b1860ac4ce9
:102efc002268ac4b1b88ac4923f04cff236813f4bd
:102f0c00e06f13d1a94a13780133dbb21370042b91
:102f1c0013d9a44b1a88a649002023f03bffa34bde
:102f2c0000221a70a34b01221a7096e62268a24b5b
:102f3c001a60a04b07221a708fe69e4b05221a705e
:102f4c008be69d4b1b6813f4007f10d103f4806358
:102f5c00002b0cbf10201420984b00221a7001215a
:102f6c002bf0bafe28b9934b01221a7075e6122089
:102f7c00f2e7904b08221a706fe6904b1b788bb9d6
:102f8c00864a136801331360c72b7ff666ae8c49f3
:102f9c00002023f0fffe814b00221a60854b01229a
:102fac001a705ae67d4b00221a607d4b1a68854bcd
:102fbc001a60804b09221a704fe67f4b1b6813f482
:102fcc00007f10d103f48063002b0cbf112015205f
:102fdc007a4b00221a7001212bf07efe28b9754b1a
:102fec0001221a7039e61320f2e7724b0a221a708a
:102ffc0033e6724b1b788bb9684a13680133136044
:10300c00c72b7ff62aae7049002023f0c3fe634b1a
:10301c0000221a60674b01221a701ee65f4b0022d9
:10302c001a605f4b1a68694b1a60624b0b221a705c
:10303c0013e6624b00221a7001225f4b19680820bc
:10304c002bf028fb18b95b4b01221a7005e6594b83
:10305c000c221a7001e6594b1b788bb94f4a136836
:10306c0001331360c72b7ff6f8ad5949002023f0cc
:10307c0091fe4a4b00221a604e4b01221a70ece56d
:10308c00464b00221a604b4b0d221a70e5e54f4b54
:10309c001b6803f5ef5502354a4a16684d4a9542ae
:1030ac0002d94d4d1d4401364c4c5a273a4600214d
:1030bc0020462df0f5fb204625f0fefd1823a373ca
:1030cc000223e3734ff49842228208226275fd2298
:1030dc0084f82f2084f82e30414b1a7884f8222063
:1030ec005a7884f823209a7884f82420ff2284f8d4
:1030fc002520fe2284f82620da7884f827201a79f5
:10310c0084f828205b7984f829304ff48073638528
:10311c00244b1a88130243ea1223a385002020862d
:10312c00330643ea1663320a02f47f421343320237
:10313c0002f47f021343c4f832302b0643ea1563c2
:10314c002a0a02f47f4213432a0202f47f02134339
:10315c00c4f836304ff4407363874ff4e053a387c1
:10316c0084f83e00802384f83f30c22384f840303a
:10317c00012384f843301b4a137001901a4b0093bf
:10318c0003463a46214624f0f1fc78bb154b00224d
:10319c001a70084b01221a705fe500bf94310120b0
:1031ac007831012018320120b0490000443201204e
:1031bc00dc490000463201208031012042320120de
:1031cc00044a000090310120304a00008c3101206b
:1031dc005c4a000000ca9a3be25365c4f8290120fe
:1031ec00e02f0120473201203d0d030000953346ae
:1031fc009e4a12889e49002023f0ccfd9d4b002254
:10320c001a609d4b0e221a7027e59c4b1b78b3b1ac
:10321c00984a136801331360b3f5fa7ffff41dadc0
:10322c00924b1a889649002023f0b4fd0023934a50
:10323c001370904a1360904b01221a700de58d4b60
:10324c0000221a60894a1388013313808d4a13684f
:10325c0001331360884b01221a70fee48a4b002262
:10326c001a70012104202bf037fd30b9874923f067
:10327c0091fd814b01221a70efe47f4b17221a70db
:10328c00ebe4814b1b788bb97a4a136801331360da
:10329c00c72b7ff6e2ac7e49002023f07bfd754bfb
:1032ac0000221a60744b01221a70d6e40025714b6f
:1032bc001d60784b1c6844f0c0041a68234676499c
:1032cc00284623f067fd704b1d7001222146042017
:1032dc002bf0e0f938b97149284623f05bfd664bb9
:1032ec0001221a70b9e4644b18221a70b5e4664bcb
:1032fc001b788bb95f4a136801331360c72b7ff6b9
:10330c00acac6749002023f045fd5a4b00221a60f3
:10331c00594b01221a70a0e40020564b18606149e9
:10332c0023f038fd544b19221a7096e4564b0022a8
:10333c001a7001215c482bf0cffc30b95b4923f0ab
:10334c0029fd4d4b01221a7087e44b4b1a221a703f
:10335c0083e44d4b1b788bb9464a136801331360d9
:10336c00c72b7ff67aac5249002023f013fd414b5a
:10337c0000221a60404b01221a706ee400253d4b6e
:10338c001d60444b1c6824f4407444f480741a6827
:10339c0023464849284623f0fdfc3b4b1d70012277
:1033ac00214641482bf076f938b94349284623f099
:1033bc00f1fc314b01221a704fe42f4b1b221a7077
:1033cc004be4314b1b788bb92a4a136801331360d9
:1033dc00c72b7ff642ac3949002023f0dbfc254b90
:1033ec0000221a60244b01221a7036e40024214b6f
:1033fc001c603349204623f0cdfc324b1c701e4b15
:10340c000f221a7029e42f4b1b7801222e4951f8f8
:10341c0023102e4850f823002bf03cf940b9294bcf
:10342c001a782b4923f0b6fc134b01221a7014e4c2
:10343c00114b10221a7010e4134b1b78002b4bd13c
:10344c000c4a136801331360c72b7ff606ac1d4b77
:10345c001a782049002023f09dfc064b00221a60ac
:10346c00054b01221a70fff7f8bb00bf1832012080
:10347c00844a000094310120463201204732012059
:10348c00a84a00008431012042320120e04a0000a9
:10349c000c4b000078310120384b0000644b0000cd
:1034ac00904b0000bc4b000088000a00d84b000079
:1034bc00044c0000304c00005c4c0000884c0000b8
:1034cc00b44c000045320120ccf30200acf30200f6
:1034dc00f44c00001c4d0000744b00221a60744a1e
:1034ec0013780133dbb21370072b04d8714b0f2206
:1034fc001a70fff7b2bb7049002023f04bfc6d4be8
:10350c0001221a70fff7a9bb6c4b00221a70012222
:10351c0002216b482bf0bef838b96a4923f03afc0b
:10352c00644b01221a70fff798bb624b12221a707f
:10353c00fff793bb614b1b7893b95c4a136801335b
:10354c001360c72b7ff689ab5f49002023f022fc68
:10355c00564b00221a60574b01221a70fff77dbba5
:10356c000020524b18600123584a1370534a1070b4
:10357c000190574a00923c22564924f0f7fa38b988
:10358c00524b00221a704b4b01221a70fff765bb8d
:10359c00514a136801331360504b1a88504900206c
:1035ac0023f0f8fb414b00221a60424b13221a7095
:1035bc00fff753bb454b1b78bbb13c4a1368013337
:1035cc001360b3f5fa7ffff448ab444b1a884549b6
:1035dc00002023f0dffb00233c4a1370334a1360b6
:1035ec00344b01221a70fff738bb00202f4b1860a8
:1035fc003d4b1870394b1a883c4923f0cbfb2d4bb3
:10360c0005221a70fff729bb2c4b00221a70284b8d
:10361c001b780122364951f82310364850f8230004
:10362c002bf038f848b9224b1a78334923f0b2fb07
:10363c00204b00221a70fff710bb1e4b15221a707c
:10364c00fff70bbb1d4b1b789bb9184a1368013352
:10365c001360c72b7ff601ab154b1a782749002056
:10366c0023f098fb0023114a1360124a1370fff7e2
:10367c00f4ba0e4b00221a600d4a13780133dbb2f8
:10368c001370072b04d80b4b14221a70fff7e5baf2
:10369c001b49002023f07efb064b00221a70fff71b
:1036ac00dcba044b01221a70fff7d7ba943101200f
:1036bc004532012046320120504d0000423201209b
:1036cc0040000400844d0000a44d0000473201204e
:1036dc003d0d03003c2c01208431012018320120c7
:1036ec00cc4d0000004e000044320120344e00004e
:1036fc00b82d01208cf30200584e0000844e0000bf
:04370c00b84e0000b3
:020000040000fa
:1037100030b587b0044690f99030002b40f00f810f
:103720000378012b04bf0023037090f8d430042bde
:1037300000f25784dfe813f005008b00d9002f0159
:103740003b0390f90830b3f1ff3f57d090f8fc20cd
:10375000012a22d051b229b1022a43d0ff2380f896
:103760009030dce003f01f01c3f34a1303f50200bd
:1037700000f580700022012303fa01f1c0012df051
:10378000adfa2df0c5fc28f08ffdc4f8dc0094f8ec
:10379000fc30013384f8fc30cfe02df0b9fc28f088
:1037a00083fdd4f8dc30984200f0c78094f90830eb
:1037b00003f01f0201219140c3f34a1303f50200f5
:1037c00000f580700a46c0012df088fa2df0a0fcab
:1037d00028f06afdc4f8dc0094f8fc30013384f86a
:1037e000fc30aae02df094fc28f05efdd4f8dc302b
:1037f000c31a062b94bf002501258fe090f8fc30fa
:103800002bb1012b16d0ff2380f8903087e00023e6
:103810000193b44a009201220321d0f8ec002bf06e
:1038200085fc002800f0898094f8fc30013384f88e
:10383000fc3082e000230193aa4b009301231a4637
:103840000321d0f8ec002bf071fc054666e0d0f8bf
:10385000ec0094f8fc30042b43d8dfe813f00500ab
:10386000c6031300c6033300002200929e4b0121c1
:103870002bf086ff002860d094f8fc30013384f8e8
:10388000fc305ae0d4f8e4309a0ac3f30913b2f5d5
:10389000f87f01d11b2b07d09449002023f080fa38
:1038a000ff2384f890303ae0002200928e4b90493a
:1038b0002bf066ff002840d094f8fc30013384f8e8
:1038c000fc303ae0d4f8e43003f00f0384f8fe3023
:1038d0002bbb8849002023f063faff2384f8903043
:1038e0001de0ff2384f8903027e090f8fc10c1f130
:1038f000220200230093804b92b2804800eb01111a
:10390000d4f8ec001ef00af894f8fc500544edb22f
:1039100084f8fc50222d14bf002501256db1002331
:1039200084f8fc3094f8d4300133dbb284f8d4301e
:10393000052b04bf022384f890300123237094f9ef
:103940009030022b00f0538394f90750c5f34a10ce
:1039500000f5020000f58070c0012df045fc05f077
:103960001f0520fa05f515f0010f40f07683237846
:10397000012b04bf002323700021d4f8ec000af0cf
:10398000d3fd0123237094f80431002b00f07683db
:103990000023237068e3d0f8ec0094f8fc302f2b60
:1039a00000f2fe81dfe813f030003000300030001c
:1039b0003000fc01fc01fc01fc01fc014a004a0052
:1039c0004a004a004a00fc01fc01fc01fc01fc0128
:1039d00070007000700070007000fc01fc01fc01c0
:1039e000fc01fc018b000102b0000102c6000102d3
:1039f000dc000102f2000102080130014d017101f9
:103a00009601bb01db01f2010093402305aa0521c9
:103a100020461df07bf9054600283ff47faf059b4b
:103a200023b10a2384f8fc30002577e734490020cd
:103a300023f0b6f9ff2384f890306fe70a3bdbb23e
:103a400000931f2305aa042120461df05ff90546b7
:103a500000283ff463af059b13f0100f18bf43f02d
:103a6000e0035bb284f8f03013f1050f04db14239c
:103a700084f8fc30002551e72149002023f090f91b
:103a8000ff2384f8903049e7143bdbb200931f23f7
:103a900005aa082120461df039f9054600283ff403
:103aa0003daf059b13f0100f18bf43f0e0035bb26e
:103ab00084f8f1301e2384f8fc3000252ee7002323
:103ac0000093094b01220f492bf05afe05460028ae
:103ad0003ff424af94f8fc30013384f8fc30002527
:103ae0001ce700bf47ab01008ddd02002457020038
:103af00094000a004c570200190603001c3b010009
:103b00006457020084000400d4f8e430a4f8f230d2
:103b100000230093bd4b0122bd492bf031fe054629
:103b200000283ff4fbae94f8fc30013384f8fc30fd
:103b30000025f3e6d4f8e430a4f8f4300023009331
:103b4000b24b0122b3492bf01bfe054600283ff47f
:103b5000e5ae94f8fc30013384f8fc300025dde656
:103b6000d4f8e430a4f8f63000230093a74b0122e8
:103b7000a9492bf005fe054600283ff4cfae94f886
:103b8000fc30013384f8fc300025c7e6d4f8e4307b
:103b9000a4f8f830002300939c4b01229f492bf09e
:103ba000effd054600283ff4b9ae94f8fc30013330
:103bb00084f8fc300025b1e6d4f8e430a4f8fa30fb
:103bc00094f9f0309bb203f1090291b203f10e02b5
:103bd00092b2120142ea8122b4f8f23003f00f03ec
:103be0001a43002301930093012392b28c492bf0d6
:103bf0009dfa054600283ff491ae94f8fc3001335d
:103c000084f8fc30002589e694f9f13028339bb222
:103c1000b4f8f420c2f3090242ea8322002301939c
:103c20000093012392b27a492bf080fa05460028ce
:103c30003ff474ae94f8fc30013384f8fc30002576
:103c40006ce694f9f0309bb25a1d91b2b4f8f620ac
:103c500022f47c5222f03f0242ea012212b292b2d6
:103c600009331a43002301930093012392b2694957
:103c70002bf05cfa054600283ff450ae94f8fc3077
:103c8000013384f8fc30002548e694f9f0309bb20b
:103c900003f1090291b2b4f8f82022f47c5222f028
:103ca0003f0242ea012212b292b20e331a430023bb
:103cb00001930093012392b257492bf037fa05463e
:103cc00000283ff42bae94f8fc30013384f8fc302c
:103cd000002523e694f9f0309bb203f1110291b272
:103ce000b4f8fa2022f47c5222f03f0242ea012288
:103cf00012b292b216331a430023019300930123a8
:103d000092b246492bf012fa054600283ff406ae5f
:103d100094f8fc30013384f8fc300025fee594f87b
:103d2000fe50002301930093012345f6217243f6d0
:103d300031719d4218bf0a463a492bf0f7f9054602
:103d400000283ff4ebad94f8fe30012b3ff4e6add4
:103d500094f8fc30013384f8fc300025dee50023c4
:103d600002930193012300934ff440734ff4807248
:103d70002d492bf032f8054600283ff4cfad94f8da
:103d8000fc30013384f8fc300025c7e500230193a3
:103d9000009301237d2225492bf0c8f90546bde596
:103da000ff2384f890300025b8e50025b6e5d0f86b
:103db000ec0094f8fc30092b00f20f81dfe813f0df
:103dc0000a003c005100630076009500ac00cb0077
:103dd000e4000101637e1bb9042384f8fc30ace5e8
:103de000a17d627d00230193114b0093012342eae0
:103df000012210492bf09af900283ff49ead94f867
:103e0000fc30013384f8fc3097e500bf8ddd020003
:103e10008a000400ad000400ae000400af000400fe
:103e200084000400d000040088000a0039020a005f
:103e30001906030002ca0400e17d227e00230193db
:103e40008f4b0093012342ea01228e492bf06ef939
:103e500000283ff472ad94f8fc30013384f8fc3054
:103e60006be500230193864b00930123832286494f
:103e70002bf05cf900283ff460ad94f8fc3001337e
:103e800084f8fc3059e5002301937d4b0093012316
:103e90004ff400427d492bf049f900283ff44dad25
:103ea00094f8fc30013384f8fc3046e594f8953002
:103eb00094f89420120442ea036294f892301a4370
:103ec00094f89310002301936d4b0093012342ea71
:103ed00001226f492bf02af900283ff42ead94f807
:103ee000fc30013384f8fc3027e594f8971094f8ff
:103ef000962000230193624b0093012342ea0122a2
:103f000064492bf013f900283ff417ad94f8fc3006
:103f1000013384f8fc3010e594f8973094f896203b
:103f2000120442ea036294f894301a4394f895100c
:103f300000230193524b0093012342ea0122564988
:103f40002bf0f4f800283ff4f8ac94f8fc3001337f
:103f500084f8fc30f1e4a37e002b4ff000030193c2
:103f6000474b00934ff0010314bf102200224ff083
:103f700001112bf0dbf800283ff4dfac94f8fc30a3
:103f8000013384f8fc30d8e4e17e49f2e60249f2dc
:103f9000e623002918bf1a46237f0bb142f4807232
:103fa00000230193364b0093012304212bf0bef82c
:103fb00000283ff4c2ac94f8fc30013384f8fc30a4
:103fc000bbe400230193354b009301230c224ff4f3
:103fd00080312bf0abf80546a0e4ff2384f8903045
:103fe0009de4ff2380f89030a7e4002596e4637eeb
:103ff000b3b9d4f8e830002b3ff4a6ac2df088f824
:1040000028f052f9d4f8e830c01a04287ff69caca6
:104010000023c4f8e830d4f8ec002cf0b5ff93e4aa
:104020002df076f828f040f9d4f8e030c31ab3f553
:104030007a7fded3c4f8e0002378012b04bf00238d
:10404000237000230093164b01221649d4f8ec008c
:104050002bf096fb01232370cbe794f804316bb16e
:104060002378012b3ff494ac002384f80431012120
:10407000d4f8ec000af058fa0123237007b030bde1
:104080001906030005ca04008700040001ca0400e1
:104090002400010025000100220001002900030086
:0840a00097ed020003ca0400c1
:020000040000fa
:1040a8002de9f04f2ded028b85b01c46837b03f084
:1040b8000f03082b08d01546002b00f03d8305b0f0
:1040c800bdec028bbde8f08f838d1a0242ea132201
:1040d80092b2ad4b1b68002bc0f22981ab4909781d
:1040e800002900f02481934240f00f810133a84a4f
:1040f80082fb0312d118da17c2ebe132c2eb02429b
:104108009b1aa14a1360a14b00221a70028ea14c7f
:10411800130243ea12232380d0f832301a0642ea07
:104128001362190a01f47f410a431b0203f47f0357
:104138001a436260d0f83630190641ea13611d0a45
:1041480005f47f4529431b0203f47f030b43a36057
:10415800d0f81650d0f81a1028ba09ba090c41ea52
:104168000041000c216160618b490968002940f019
:10417800ee808a4b1b7843b1894b1b782bb9894b4e
:1041880002221a70864b01221a70824e30462af09b
:1041980093fd04468a4606f130002af08dfd054657
:1041a8008b46f36c4bb106f148002af085fd7e4b37
:1041b800281a6beb010118605960764bdb6943b133
:1041c8007a482af079fd7a4b201a6aeb01011860c7
:1041d8005960704e06f1480706f1300cbce80f0034
:1041e8000fc79ce8030087e8030006f118070fce05
:1041f8000fc796e8030087e803006b4bd3e9006715
:1042080056ea070300f01b81694bd3e9000150ea25
:10421800010300f01481674b1b78013bdbb2012bd3
:1042280029d924f002fecde902013046394624f0ae
:10423800fcfd02460b46dde902010ff07bfd064658
:104248000f465d49c1e9006749a3d3e90023d1e9d5
:10425800000128f0dbfc50b147a3d3e900235649fd
:10426800d1e9000128f0eefc002840f0bd80534958
:10427800002022f091fd524a136801331360b5eb18
:1042880004086beb0a094f4ac2e90089d2e90045e4
:10429800d2e90001002871f10002c0f2cc804a4a3c
:1042a800c2e90001434a1278002a00f0cd80012ab1
:1042b80000f00581444bd3e90023002b08bfb2f17d
:1042c800804fc0f01e813b4b00221a7003243f4fe1
:1042d80015463f4e3946284612f0baf93146284667
:1042e80012f0b6f9013cf5d110243a4d9fed248b1c
:1042f8002846b0ee480af0ee680a20f075fa013c4c
:10430800f6d12f4b00221a60d9e63349002022f05b
:1043180043fd1d4b4ff0ff321a601e4a0023136302
:10432800536313879364d364a2f85030c7e6511cd3
:10433800174b83fb01030b44db13c3eb0343cb1a7b
:1043480011490b602549002022f026fdb7e62449d3
:104358000a604b60134b01221a702249002022f098
:104368001bfd0d4b00221a6003e700bfaff300806e
:10437800560e2db29defef3fd578e9263108f03f74
:10438800000000000000f03fec3301203e32012025
:104398000180008038290120703101203d32012040
:1043a8004032012039320120b02f0120502901204c
:1043b800b82f01203f320120c8330120e445010015
:1043c80074310120c02f0120d02f0120e02e0120c0
:1043d800f02e0120002f01206845010090450100c2
:1043e800602e0120bc4501009fedb32bb64b93ed29
:1043f800001b47ec106b25f0b3ffb44b83ed000bab
:10440800b34bd3e9000124f010fd06460f46b14b2b
:10441800d3e9000124f009fd02460b46304639462f
:104428000ff088fc41ec100bab4820f0ddf9ab4bea
:1044380083ed000b1fe7404261eb41012fe7a849dc
:10444800002022f0a9fc3ae60f2b7ff638ae0022b6
:10445800a44ba249d1e9000116f080f806460f46a0
:104468002af060fcc5b228462bf0e0fb02460b465a
:10447800304639462cf058fe00229b4b16f06ef859
:104488002af050fcc0f30f2444ea0064974b9c6068
:10449800dd60974b03221a7023462a46954900206f
:1044a80022f07afc944b1d60944b1c600123944ac3
:1044b8001370944a1370944b00221a60ffe5934bd3
:1044c800d3e900237ea1d1e90001994208bf9042b7
:1044d80003d28f4b01221a60f1e58e4bd3e90045d8
:1044e8008a4bd3e90001cde9000122468a49002020
:1044f80022f052fc824b02221a70824b01221a705f
:10450800dde5ee43f60f814bd3e90023002b08bf0e
:10451800b2f1807f51d27d4bd3e90023002b08bf35
:104528005b2a68d2794bd3e90023002b08bf332ad2
:10453800c0f08e80794c2146002012f089f80025c1
:10454800a5602146284612f083f8a5602146284632
:1045580012f07ef8a5606f4bd3e900347049184615
:1045680012f076f86f4981ed000b00220023d1e9a3
:10457800000128f067fba84214bf01232b4683f0f3
:104588000103dcb2674bd3e9000126f035fa034694
:1045980004b9434243eac474544a1461544a042196
:1045a8001170574a032111705a4ad2e90001024694
:1045b8005d49002022f0f0fb81e5564bd3e900234a
:1045c800524cd4e90001cde900015849002022f0fd
:1045d800e3fb6ff07f420023c4e90023d4e9002302
:1045e80042eac672414b1a61414b04221a70444b8d
:1045f80002221a7063e5474bd3e90045434bd3e9e0
:104608000001cde9000122464949002022f0c4fbff
:104618000325dff80c810024404f4146204612f064
:1046280017f83946204612f013f8c8f80840bc605d
:10463800013df2d1354bd3e9002342eac6722b4b38
:104648001a612b4b04221a702d4b02221a7036e580
:10465800304bd3e900343149184611f0f9ff31499c
:1046680081ed000b00220023d1e9000128f0eafacd
:10467800002814bf0123002383f00103dcb2294b77
:10468800d3e9000126f0b8f9034604b9434243eae6
:10469800c474164a1461042215490a7018490a702c
:1046a8001c4ad2e9000102462249002022f074fb8c
:1046b80005e500bfaff30080000000000000e03f08
:1046c80000e1f50500000000c8330120d8330120bf
:1046d800b82f0120b02f0120002f0120d033012056
:1046e800044601000000444000007041602e012093
:1046f8003932012008460100683101206431012067
:104708003f3201203d32012074310120d02f012099
:1047180070310120c02f012040460100f02e0120f9
:10472800e02e0120c82f0120d04601007446010068
:10473800a0460100f0460100838d1a0242ea1322c6
:1047480092b21e4b1b68002b0bdbd11a0029b8bf95
:1047580049420a290bdc934225d1194b01221a70d0
:1047680010e0164b1a60164b00221a70a7e4154980
:10477800002022f011fb17f013fe114b1b78002bc1
:104788003ff49dacdff844c00cf148060cf130074b
:104798000fcf0fc697e8030086e80300ccf8345023
:1047a800ccf838408be4002005490870064922f00f
:1047b800f3fa024b4ff0ff321a60dee7ec330120c8
:1047c8003e320120104701004447010038290120ea
:020000040000fa
:1047d8005b5054502d474d5d2054582d4d617463e6
:1047e80068207265672064756d7020286c61737429
:1047f800207772697474656e2076616c75657329ab
:104808003a0d0a00202054584d43544c202030784b
:104818002530386c58202054584d50415448203089
:10482800782530386c580d0a0000000020205458b4
:104838004d5041544c2030782530386c5820205445
:10484800584d4d534b482030782530386c580d0a58
:1048580000000000202054584d4d534b4c20307818
:104868002530386c58202054584d4c4f4320203068
:10487800782530386c580d0a000000005b50545001
:104888002d474d5d20574149545f54584d43544c72
:104898002063622074696d656f75742c207265746d
:1048a80072790d0a000000005b5054502d474d5d91
:1048b800205458504d444554206f6b2c2053796e2a
:1048c80063202325750d0a005b5054502d474d5d1c
:1048d800205458504d4445542074696d656f757463
:1048e8002061667465722053796e63202325750de7
:1048f8000a0000005b5054502d474d5d205454531e
:10490800434141207669612043423d307825303863
:104918006c582c2053796e63202325750d0a0000ee
:104928005b5054502d474d5d20524541445f5354d0
:104938004154555330206661696c65642c2072655a
:104948007472790d0a0000005b5054502d474d5d7c
:1049580020545453434141207669612043422069e1
:104968006e20574149543d30782530386c582c20fa
:1049780053796e63202325750d0a00005b5054504f
:104988002d474d5d20574149545f53544154555369
:10499800302063622074696d656f75742c207265b0
:1049a8007472790d0a0000005b5054502d474d5d1c
:1049b80020535441545553303d30782530386c5885
:1049c8002061667465722053796e63202325750d06
:1049d8000a0000005b5054502d474d5d205454533d
:1049e8004341206e6f74207365742061667465722c
:1049f8002053796e63202325750d0a005b505450af
:104a08002d474d5d20574149545f54545343415fee
:104a1800482063622074696d656f75742c20726517
:104a28007472790d0a0000005b5054502d474d5d9b
:104a380020574149545f54545343415f4c206362ab
:104a48002074696d656f75742c2072657472790da8
:104a58000a0000005b5054502d474d5d20574149d6
:104a6800545f434c4541522063622074696d656f01
:104a780075742c2072657472790d0a005b5054505d
:104a88002d474d5d204655202325752074313d2541
:104a98006c7573202530396c756e730d0a00000033
:104aa8005b5054502d474d5d20574149545f464f48
:104ab8004c4c4f5755505f54585f444f4e452074e7
:104ac800696d656f7574206166746572204655203e
:104ad8002325750d0a0000005b5054502d474d5d8d
:104ae80020524d575f434f4e464947305f5245412c
:104af80044206661696c65642c2072657472790d56
:104b08000a0000005b5054502d474d5d20524d5710
:104b18005f434f4e464947305f574149545f5245be
:104b280041442074696d656f75740d0a00000000ba
:104b38005b5054502d474d5d20434f4e46494730fa
:104b480020524d573a2030782530386c58202d3e69
:104b58002030782530386c580d0a00005b505450ce
:104b68002d474d5d20524d575f434f4e46494730c4
:104b7800207772697465206661696c65642c20729f
:104b8800657472790d0a00005b5054502d474d5dd5
:104b980020524d575f434f4e464947305f57414972
:104ba800545f57524954452074696d656f75740d8b
:104bb8000a0000005b5054502d474d5d20434f4e76
:104bc8004649473020524d5720646f6e650d0a00e4
:104bd8005b5054502d474d5d20524d575f50414416
:104be8004354524c5f52454144206661696c656488
:104bf8002c2072657472790d0a0000005b505450c5
:104c08002d474d5d20524d575f5041444354524cff
:104c18005f574149545f524541442074696d656f3f
:104c280075740d0a000000005b5054502d474d5d0f
:104c3800205041444354524c20524d573a2030782a
:104c48002530386c58202d3e2030782530386c5867
:104c58000d0a00005b5054502d474d5d20524d57b2
:104c68005f5041444354524c207772697465206602
:104c780061696c65642c2072657472790d0a000094
:104c88005b5054502d474d5d20524d575f50414465
:104c98004354524c5f574149545f57524954452039
:104ca80074696d656f75740d0a0000005b5054508f
:104cb8002d474d5d205041444354524c20524d578e
:104cc80020646f6e6520e280942073746172746949
:104cd8006e67206e6f726d616c20696e69742073e7
:104ce800657175656e63650d0a0000005b50545070
:104cf8002d474d5d20494e49545f57524954452030
:104d08006661696c65642061742073746570202520
:104d1800750d0a005b5054502d474d5d2057414991
:104d2800545f494e49545f575249544520636220a5
:104d380074696d656f757420617420737465702073
:104d480025750d0a000000005b5054502d474d5d3d
:104d580020496e697420636f6d706c65746520e21c
:104d6800809420616c6c20726567697374657273d6
:104d7800207772697474656e0d0a00005b50545098
:104d88002d474d5d2057524954455f54584d435463
:104d98004c206661696c65640d0a00005b505450d4
:104da8002d474d5d20574149545f57524954455f3f
:104db80054584d43544c2063622074696d656f7577
:104dc800740d0a005b5054502d474d5d2053796e89
:104dd80063202325752073656e742c2077616974b0
:104de800696e6720666f7220545820646f6e652e56
:104df8002e2e0d0a000000005b5054502d474d5dcb
:104e080020574149545f53594e435f54585f444fac
:104e18004e452074696d656f75742061667465729e
:104e28002053796e63202325750d0a005b5054507a
:104e38002d474d5d2053796e6320232575205458e6
:104e480020636f6e6669726d65640d0a000000006c
:104e58005b5054502d474d5d204445494e49545fa1
:104e68005752495445206661696c65642061742015
:104e7800737465702025750d0a0000005b5054504e
:104e88002d474d5d20574149545f4445494e49548b
:104e98005f57524954452063622074696d656f7588
:104ea8007420617420737465702025750d0a0000e4
:104eb8005b5054502d474d5d204465696e697420e0
:104ec800636f6d706c65746520e280942054582d72
:104ed8004d617463682f5453552f505053206469a3
:0c4ee8007361726d65640d0a000000bf6c
:020000040000fa
:104ef4005478204279746520436f756e742d6c6ffd
:104f0400776572203332626974732854784f544c35
:104f14004f290000bd0d03005478204279746520a8
:104f2400436f756e742d75707065722031366269c9
:104f340074732854784f544849290000c70d03005e
:104f44005478204672616d657320772f6f206572e7
:104f5400726f722854784654434e5429000000005e
:104f640000000000d10d030054782042726f616488
:104f740063617374204672616d657328547842438b
:104f8400465429000000000000000000db0d03006f
:104f94005478204d756c7469636173742046726132
:104fa4006d65732854784d465429000000000000b4
:104fb40000000000e50d030054782050617573650e
:104fc400204672616d657328547850465429000058
:104fd400000000000000000000000000ef0d0300ce
:104fe40054782036342d62797465204672616d657b
:104ff40073285478424654363429000000000000d7
:1050040000000000f90d030054782036352d3132ac
:10501400372062797465204672616d657328544245
:10502400465431323729000000000000030e03000b
:105034005478203132382d32353520627974652028
:105044004672616d657328544246543235352900e1
:10505400000000000d0e03005478203235362d3543
:1050640031312062797465204672616d657328540c
:10507400424654353131290000000000170e030068
:105084005478203531322d313032332062797465d1
:10509400204672616d657328544246543130323370
:1050a40029000000210e0300547820313032342dc1
:1050b400313531382062797465204672616d6573cb
:1050c4002854424654313531382900002b0e030050
:1050d4005478204672616d6573203e3d2031353130
:1050e400382062797465284754424631353138296d
:1050f40000000000350e0300547820556e6465727c
:1051040072756e204672616d6573206e6f742054e3
:105114005865642854785455522900003f0e030002
:1051240054782053696e676c6520436f6c6c6973a7
:10513400696f6e204672616d6573285478534346d7
:1051440029000000490e0300547820322d31352007
:10515400436f6c6c6973696f6e204672616d657321
:105164002854784d4346290000000000530e0300e4
:10517400547820313620436f6c6c6973696f6e20ec
:105184004672616d65732854784543434e54290033
:10519400000000005d0e03005478206c61746520eb
:1051a400436f6c6c6973696f6e204672616d6573d1
:1051b4002854784c43434e5429000000670e0300e2
:1051c4005478204465666572726564204672616d28
:1051d40065732854784454462900000000000000f8
:1051e40000000000710e030054782043617272695c
:1051f40065722053656e7365206572726f72204606
:1052040072616d6573285478435345297b0e0300fe
:105214005278204279746520436f756e742d6c6fdb
:10522400776572203332626974732852784f524c16
:105234004f290000850e03005278204279746520be
:10524400436f756e742d75707065722031366269a6
:1052540074732852784f5248492900008f0e030076
:105264005278204672616d657320772f6f206572c6
:10527400726f722852784652434e5429000000003f
:1052840000000000990e030052782042726f61649e
:1052940063617374204672616d657328527842436a
:1052a400465229000000000000000000a30e030085
:1052b4005278204d756c7469636173742046726111
:1052c4006d6573202852784d465229000000000075
:1052d40000000000ad0e0300527820506175736524
:1052e400204672616d657328527850465229000039
:1052f400000000000000000000000000b70e0300e2
:1053040052782036342d62797465204672616d6559
:1053140073285278424652363429000000000000b7
:1053240000000000c10e030052782036352d3132c2
:10533400372062797465204672616d657328544222
:10534400465231323729000000000000cb0e030022
:105354005278203132382d32353520627974652007
:105364004672616d657328544246523235352900c0
:1053740000000000d50e03005278203235362d355a
:1053840031312062797465204672616d65732854e9
:10539400424652353131290000000000df0e03007f
:1053a4005278203531322d313032332062797465b0
:1053b400204672616d65732854424652313032334f
:1053c40029000000e90e0300527820313032342dd8
:1053d400313531382062797465204672616d6573a8
:1053e400285442465231353138290000f30e030067
:1053f4005278204672616d6573203e3d203135310f
:105404003920627974657328544d584246522900f4
:1054140000000000fd0e03005278204672616d65a5
:1054240073203c2036342062797465732852785591
:10543400465229000000000000000000070f03008e
:105444005278204672616d6573203e2031353138c3
:105454002062797465732852784f465229000000ff
:1054640000000000110f03005278206572726f7201
:10547400204672616d6573203e20313531382062db
:10548400797465732852784a522900001b0f03006f
:10549400527820435243206572726f7220467261c3
:1054a4006d65732852784643534529000000000077
:1054b40000000000250f03005278204c656e6774cd
:1054c40068206669656c64206572726f722046722a
:1054d400616d65732852784c464645292f0f0300a9
:1054e40052782073796d626f6c206572726f7220ce
:1054f4004672616d65732852785253452900000045
:1055040000000000390f0300527820616c69676e57
:105514006d656e74206572726f72204672616d657e
:10552400732852784145290000000000430f03000e
:105534005278205265736f75726365204572726f7d
:1055440072202852785252452900000000000000c1
:10555400000000004d0f03005278206f76657272d0
:10556400756e206572726f72204672616d65732864
:105574005278524f4529000000000000570f0300e5
:1055840052782049504864722043686b73756d20cb
:105594006572726f72204672616d65732852784924
:1055a40048434529610f0300527820544350204357
:1055b400686b73756d206572726f72204672616dcf
:1055c4006573285278544345290000006b0f03008b
:1055d4005278205544502043686b73756d20657272
:1055e400726f72204672616d657328527855434517
:0855f40029000000750f0300ff
:020000040000fa
:0455fc0001207047d3
:020000040000fa
:105600002de9f04fadf20c5d012973dc4ff0140b66
:10561000bbf5fa7f28bf4ff4fa7b28f0ebfc00289b
:1056200074d04ff47a702bf06ffa01202bf09efbb0
:10563000b749002021f0b4fb4ff40c720021b6a84a
:105640002bf034f9b6a80ff08ff9002840f09480c1
:105650000df5367adae97689aba3d3e90023404623
:10566000494628f0e7f906460f46c7aaa94900208f
:1056700021f096fb0df2da22a749002021f090fbe1
:105680000df22442a549002021f08afba44a40f2f1
:1056900046334046494628f0cdf9804689463c22ab
:1056a00000233046394628f0c5f9cde902234ff4ee
:1056b000616200233046394628f0bcf9104619468d
:1056c0003c22002328f0b6f9cde9000142464b46c2
:1056d0009449002021f064fbdae9746792490020c4
:1056e00021f05efb56ea070314d04ff0010c4ff097
:1056f00000081ae013460a22002158682bf0fef831
:105700008346002884d14ff0010b86e7874921f0ba
:1057100047fbb2e28649002021f042fb30e000bfa7
:1057200008f10108b8f1090f1fd0c8f12000a8f155
:10573000200126fa08f307fa00f0034327fa01f1e3
:105740000b4303f00104002554ea0503e8d0794b2c
:1057500053f828307849794aac4518bf0a46784949
:10576000284621f01dfbac46dae7c6f34122754915
:10577000002021f015fb03e07349002021f010fb0d
:105780007249002021f00cfb38220021a8a82bf040
:105790008df8a8a814f0d0f80246002840f08f80b9
:1057a000ae9caf9d9df8c032012b13d0684a694969
:1057b000022b18bf0a466849002021f0f1fa9df833
:1057c000d1324bb1012b3bd0644a6249022b18bf46
:1057d0000a4602e0624aeee7624a6349002021f08d
:1057e000dffa9df8d2226149002021f0d9fae3b214
:1057f0000393c4f307230293c4f307430193240ed6
:105800000094ebb2c5f307225949002021f0c8faf1
:10581000a89ad3b20193c2f307230093c2f30743bc
:10582000120e5449002021f0bbfa9df8d0324bb142
:10583000012b42d0504a4749022b18bf0a4602e0ca
:105840004e4acae74e4a4f49002021f0a9fa4e4974
:10585000002021f0a5fa4822002196a82bf026f876
:1058600096a818f031ff024670b3032847d0474985
:10587000002021f095fa5a464549002021f090fa7f
:105880002bf050fa099000202bf070fa4ff4c870fa
:105890002bf03af9bbf1000f00f0f3810023002454
:1058a000cde906344ff0ff314ff0ff32cde904125d
:1058b0001e46a246a146a046abe0364ac3e736499b
:1058c000002021f06dfac2e7bdf858220df25a21ee
:1058d000324822f0ddfdbdf86a229ba9304822f053
:1058e000d7fdbdf87c220df27e212e4822f0d0fd9e
:1058f000bdf88e22a4a92c4822f0cafdbbe72b4993
:10590000002021f04dfab6e700ca9a3b00000000e3
:10591000108400004084000058840000708400005f
:1059200000a0b83088840000b08400006c00020041
:10593000c484000008ed0200d4d902007083000086
:10594000d8840000e0840000f88400001085000086
:105950007883000080830000448500008483000079
:1059600074830000988300005c850000748500004b
:105970008c850000c0850000b4830000ac8300006b
:10598000c0830000e08500001c860000c486000083
:10599000ec860000cc830000f885000050860000f3
:1059a0005c86000068860000748600008086000027
:1059b00027f098ff401b61eb07014d01430145eac9
:1059c000d0621b1a62eb0102550245ead3555f0211
:1059d0002a463b1841eb0202950145ea93659f0177
:1059e000ff1a65eb0205099a0023381845eb0101ff
:1059f00028f020f821e009f1010901345b46224634
:105a0000aa49002021f0ccf90a2028f085fe5c4547
:105a100029d027f067ff05460f464ff40c7200218e
:105a20000aa82af043ff0aa80ef09eff0028e2d140
:105a3000099b002bbcd10020002108f10108361879
:105a40004aeb010adde90423994208bf904238bfbe
:105a5000cde90401dde906238b4208bf8242ccd2a6
:105a6000cde90601c9e7642404fb09f4b4fbfbf4a7
:105a70000194cdf8009043465a468d49002021f00c
