:020000040000fa
:10000000f0ff032001ad0200998b03009d8b0300dc
:10001000a58b0300a98b0300ad8b0300000000003b
:10002000000000000000000000000000b58b03008d
:10003000a18b030000000000b58b0300b58b03000b
:10004000b58b0300b58b0300b58b0300b58b0300a4
:10005000b58b0300b58b0300b58b0300b58b030094
:10006000b58b0300b58b0300b58b0300b58b030084
:10007000b58b0300b58b0300b58b0300b58b030074
:10008000b58b0300b58b0300b58b0300b58b030064
:10009000b58b0300b58b0300b58b0300b58b030054
:1000a000b58b0300b58b0300b58b0300b58b030044
:1000b000b58b0300b58b0300b58b0300a789030044
:1000c000b1890300b58b0300b58b0300b58b03002a
:1000d000b58b0300b58b0300b58b0300b58b030014
:1000e000b58b0300b58b030000000000000000008a
:1000f00000000000b58b03009dc401009dc40100f9
:100100009dc401009dc40100f5020300f502030037
:10011000f5020300f5020300b58b0300b58b030065
:10012000b58b0300b58b0300b58b0300b58b0300c3
:10013000b58b0300b58b0300b58b0300b58b0300b3
:10014000b58b0300b58b0300b58b0300b58b0300a3
:10015000b58b0300b58b0300b58b0300b58b030093
:10016000b58b0300b58b0300b58b0300b58b030083
:10017000b58b0300b58b0300b58b0300b58b030073
:10018000b58b0300b58b0300b58b0300b58b030063
:10019000f9540300b58b0300b58b0300b58b030046
:1001a000b58b0300b58b0300b58b0300b58b030043
:1001b000b58b0300b58b0300b58b0300b58b030033
:1001c000b58b0300b58b0300b58b0300b58b030023
:1001d000b58b0300b58b0300b58b0300b58b030013
:1001e000b58b0300b58b0300b58b0300dd56030010
:1001f000b58b0300cd640300b58b0300b58b030002
:10020000b58b0300b58b0300b58b0300b58b0300e2
:10021000b58b0300b58b0300b58b0300b58b0300d2
:10022000b58b0300b58b0300b58b0300b58b0300c2
:10023000b58b0300b58b0300b58b0300b58b0300b2
:10024000b58b0300b58b0300b58b0300b58b0300a2
:10025000b58b0300b58b0300b58b0300b58b030092
:04026000b58b030057
:020000040000fa
:10026400f8b500bff8bc08bc9e467047ad2a030031
:10027400f8b500bff8bc08bc9e467047892a030045
:020000040000fa
:08028400741e010001000000de
:020000040000fa
:10028c002de9f04f8db00f210a2035f01bfd0290a7
:10029c0010f0010f40f05d85029b13f0020f40f04f
:1002ac007c850db0bde8f08fd9f8187007f11002fd
:1002bc00059213f4007f21d1fb6809933b690a93e3
:1002cc0000228df82c2006238df82d30330a43eaba
:1002dc000623adf82e300c2109a82df01bfcc043d1
:1002ec0083b2d9f8202012f0040f30d032464146a8
:1002fc0048462bf04dfb002840f09a8640462ef0e5
:10030c0083f998f80ca04fea1a1a4fea8a0304935f
:10031c00d9f81ca0baf80220002a00f08c86fd89be
:10032c00bb891d44baf800301d445540adb2c74bd3
:10033c00d3f800c0bcf1000f00f08086d9f828e09b
:10034c00c34b1b68039300239b4610460ee01a46d2
:10035c00314640462df0defbcde7b4f872208242e8
:10036c002fd001331bb21c469c452fd9039a52f84f
:10037c002440002cf5d094f876200b2af1d094f878
:10038c0077100129edd8a16c09b18e45e9d1002a6d
:10039c00e3d0b4f87220aa42e3d1daf80010226e4e
:1003ac009142ded1216cfa689142dad1012184f8b4
:1003bc007710c4f848e0059a204633f0bcffa346fa
:1003cc0022e0bbf1000f08bfa346cae7bbf1000f48
:1003dc0000f08380fb68cbf8403001218bf877105c
:1003ec00cbf848e0059a584633f0a5ffabf87250ad
:1003fc00baf80030abf86030baf80230abf86230c3
:10040c00dbf80030cbf81030d9f810209389049920
:10041c005b1a938198f80d40d8f80870d8f80450fe
:10042c009bf83f3013f0400f5bd19bf875306ff3a6
:10043c0000038bf875309bf87630002b69d0012bbc
:10044c0000f09e801436049aa6eb020a1ffa8afa70
:10045c00aaf1140292b2059214f0010206921abf8c
:10046c00aaf1130a1ffa8af2059a039214f0020fea
:10047c0003d0039a013292b20392dbf81c60dbf8d2
:10048c0020209642c0f0aa80dbf81810dbf814008c
:10049c00091aa6eb020aa1eb0a0a1ffa8af20492c5
:1004ac00dbf85820a5eb020a039a002a00f0a98079
:1004bc00049a002a00f0a080baf1000fc0f29680d6
:1004cc009245c0f0a780039a04998a1a8a45c0f213
:1004dc00a180924540f39e808ee06ff00e0100f0fb
:1004ec0034bc00238bf879309bf83e3013f0020fac
:1004fc009bd135f09bfcbbf87020564b1b6803fb63
:10050c0002f3554aa2fb032300eb9310cbf8240013
:10051c008be714f0040f1ad114f0100f1dd114f046
:10052c00020f27d00135cbf85850404626f03ef943
:10053c00abf86a00584632f0ddfd01221221584614
:10054c0006f0a4fe02238bf876300026e6e30021a9
:10055c0058461df017f80026e0e3cbf85470002243
:10056c000421584606f092fe002158461df00af868
:10057c000026d3e3002158461df004f80026cde3f5
:10058c0014f0040f40f0c98314f0100f00f0a08594
:10059c00dbf85460b74205d114f0020f40f05585da
:1005ac000026bbe3cbf8547001220421584606f018
:1005bc006dfecbf854600026b0e335f037fcbbf889
:1005cc007020244b1b6803fb02f3234aa2fb03237a
:1005dc0000eb9313cbf8243000f056bda2eb060ac7
:1005ec000af1ff3a1ffa8af2049259e703990a4674
:1005fc00514400293ff768af14f0040f1fd00026b8
:10060c008ce3baf1000f05d0baf1000ff4db049ab9
:10061c009245f1da14f0060f20d114f0100f00f00f
:10062c009083023b072b00f2cc81dfe813f029000a
:10063c003e003e003e003e00ca013e00bd010122cc
:10064c001021584606f022fe002667e3dc4101200b
:10065c00d8410120e0410120d34d621014f0040f69
:10066c0008d09bf83f3043f002038bf83f304ff437
:10067c00006600e00026002158461cf083ff4de385
:10068c00dbf85460b74205d103238bf876304ff476
:10069c0080760be0cbf8547001220421584606f00a
:1006ac00f5fdcbf85460002638e30026dbf810107b
:1006bc00dbf808305a1a13d4dbf854003b1a9b1a97
:1006cc00002b1dddbbf8742002f40172042a01d149
:1006dc00012b0cd000221021584606f0d7fd1de34b
:1006ec00dbf80430dbf800001b1a1a44e4e7013095
:1006fc00cbf854009bf8753043f002038bf875303f
:10070c00dbf85430dbf80c20881a914249d2dbf824
:10071c000420dbf80010521afb1a0344d318079379
:10072c00002b07dddbf80430dbf800209b1a079a5e
:10073c009a4246d9dbf83830002b40f0a280dbf827
:10074c000c20dbf808309a4200f0d980b8f80e3053
:10075c00bbf86e209a4238bfabf86e30dbf85420f1
:10076c00b8f80e303b449b1a9bb2bbf8641031b9fd
:10077c002bb19bf83e1041f040018bf83e10abf8ca
:10078c0064309bf87630042b00f0f080062b40f0a0
:10079c001981974240f0c282002158461cf0f2feab
:1007ac00bce2fb1a03440793002b07dddbf8043093
:1007bc00dbf800001b1a0798984202d99142bed070
:1007cc00b8e740f2dc53cbf8343035f02ffbdbf8d4
:1007dc003420c44b1b6803fb02f3c34aa2fb032364
:1007ec0000eb9313cbf838309bf83e306ff3451386
:1007fc008bf83e30dbf80c10079b0b44cbf80c301d
:10080c00dbf8102091420ed893421cd99a1adbf8cf
:10081c0054100a44cbf85420cbf81030dbf80420e9
:10082c00934224d313e0dbf80410dbf80000091a20
:10083c000a44934207d99a1adbf854100a44cbf8ad
:10084c005420cbf81030dbf80420934205d3dbf8ae
:10085c000010511a5b1acbf80c30dbf810309342b5
:10086c0005d3dbf80010521a9a1acbf810209bf81b
:10087c007630032b02d0082b7ff461af46f00406d0
:10088c005de735f0d3fadbf83830c31a002bfff6ee
:10089c0056afdbf834305b00b3f57a4f28bf4ff41a
:1008ac007a43cbf8343035f0c1fadbf834208d4b79
:1008bc001b6803fb02f38c4aa2fb032300eb93138c
:1008cc00cbf83830dbf81010dbf80c20881adbf88a
:1008dc0054301b1acbf85430914207d2dbf8041079
:1008ec00dbf80000091a5b1acbf85430cbf8102057
:1008fc009bf83e3043f080038bf83e301fe79bf8ab
:10090c003f3013f0010f19d113f0400f06d19bf8b3
:10091c003e306ff341038bf83e3017e735f086fa23
:10092c00bbf870206f4b1b6803fb02f34ff47a7219
:10093c00b3fbf2f30344cbf82430e8e7dbf8543094
:10094c009f427ff403af9bf8743013f0040f3ff415
:10095c00fdae9bf83e306ff341038bf83e309bf8b5
:10096c003f306ff300038bf83f30efe6974203d034
:10097c0014f0200f35d0d1e19bf8743013f0040f34
:10098c00f6d035f053fa574b1a6841f2883303fb13
:10099c0002f34ff47a72b3fbf2f30344cbf830302a
:1009ac0005238bf87630e3e7dbf8543001339f42b4
:1009bc0001d00026b2e1002158461cf0e3fd0026d0
:1009cc00ace1002614f0200f40f0a8819bf87620b3
:1009dc00a2f10803dbb2012b40f2a081062a00f041
:1009ec009d81059a002a3fd0baf1000f7edd059b50
:1009fc005344049a934203dda2eb0a039bb2059382
:100a0c0098f80c301b0908eb83030893dbf81c10d7
:100a1c00dbf81830059a52440a44934280f0f48073
:100a2c005a1a0132b2eb0a0200f1df801ffa82f887
:100a3c0001240094434608a80246514448462cf031
:100a4c00eff80490059aa2eb080300949bb208aa55
:100a5c00dbf8141048462cf0e3f8049b034498b2de
:100a6c00059b834200f0d980039bcbb19bf8763079
:100a7c00033bdbb2022b84bfdbf81c30cbf82030fd
:100a8c009bf83e3013f0100f40f0fa809bf83e308c
:100a9c0043f010038bf83e3013f0080f00f0f68093
:100aac00069b002b00f03a81dbf858300133039a97
:100abc002a44934240f03281cbf8583046f4806699
:100acc009bf83f3043f004038bf83f309bf87630b3
:100adc00023b032b00f20781dfe813f0ec00f5007a
:100aec00fe001501e0410120d34d621098f80c3046
:100afc001b09caeb830343440893524493b2049af0
:100b0c009a4228bf1a469246dbf81c10dbf81830c4
:100b1c008a18934259d25b1a01330493bdf81080a2
:100b2c0001240094434608aa48462cf079f8059015
:100b3c00aaeb080300949bb208aadbf814104846f1
:100b4c002cf06ef8059a024490b2049baaeb0303b6
:100b5c00dbf814201344504586d1dbf8581051446f
:100b6c00cbf85810cbf81c309bf87620033ad2b255
:100b7c00022a98bf46f40076dbf85c20b2f1ff3f06
:100b8c003ff472afa2eb0a0acbf85ca0bbf868206a
:100b9c0012eb0a0224d4baf1000f3ff765af1144ef
:100bac00cbf858101344cbf81c30dbf818209342c8
:100bbc0006d9dbf81410521ad2431344cbf81c306c
:100bcc004ff0ff33cbf85c304ee7012300935346d4
:100bdc0008aa48462cf024f8dbf81c305344bae73a
:100bec004ff0ff33cbf85c303ee70af1ff30dbf817
:100bfc0014209b1ac01a01230093059b08aa0144d8
:100c0c0048462cf00df82be701230093059b08aa0e
:100c1c00514448462cf004f822e7dbf85c30b3f181
:100c2c00ff3f15d09a4519d2059a02eb0a01bbf881
:100c3c006820d018814205d88b4203d8a0eb0a0358
:100c4c009bb20593059babf86830cbf85ca00be727
:100c5c00cbf85ca0059babf8683005e7bbf86820c7
:100c6c001a4405980146514491427ff6fdae9245d7
:100c7c003ff6faaeaaeb03031844abf86800f3e6b0
:100c8c0001221021584606f001fb09e7dbb243f0c4
:100c9c0008038bf83e3035f0c9f8b14b1a68642361
:100cac0003fb02f34ff47a72b3fbf2f30344cbf879
:100cbc002c30f5e609238bf87630012211215846a9
:100ccc0006f0e4fa2ae008238bf876309bf87530ae
:100cdc0013f0010f07d021e0dbf854309f4208d00d
:100cec0006238bf8763001221021584606f0cefaf6
:100cfc0014e000221021584606f0c8fa002158468c
:100d0c001cf040fc0ae000221021584606f0befa06
:100d1c00002158461cf036fc00e00026bbf87a2077
:100d2c00324000f08e81dbf87c40002c00f08b818f
:100d3c00dbf88030d9f82810bbf93c00a047022121
:100d4c0003e00026eae76ff00d010a22484633f073
:100d5c00e3ff0a2036f00aff814600283ff49caae4
:100d6c00b9f82c60132eeed9d9f81c8098f80c30f9
:100d7c001b09042b0bd9b6eb830f0bdbd9f82030f6
:100d8c0013f400343ff490aa6ff00e01dde76ff01e
:100d9c000d01dae76ff00d01d7e7724b1b68002be2
:100dac003ff47faa00252b46dff8bc91dff8bca1ed
:100dbc00dff8b081e6e035f039f8a36ac01a0028f4
:100dcc00a8bf1026f4e035f031f8e36ac01a002809
:100ddc00c0f2f48094f87630052b00f08a8110264e
:100dec0087f001023146204606f050faeee035f06d
:100dfc001df8236bc01a0028c0f2e58001221421d3
:100e0c00204606f043fa002120461cf0bbfbb1e063
:100e1c0094f83e6006f001060121204627f0fdf80b
:100e2c0094f83e3043f0010384f83e304ff4805286
:100e3c00002120462ff030ff002e40f09b8094f8cc
:100e4c003e306ff3000384f83e300a2384f876308a
:100e5c0090e034f0ebff636ac01a0028c0f28a807d
:100e6c0094f876104b1e082b00f28280dfe803f01a
:100e7c000541556080688080700094f87830032bb1
:100e8c0040f22b81042384f87830354b1a684ff4e8
:100e9c007a7303fb02f3aafb03239b091b01236553
:100eac000221002694f87830013384f87830236dd1
:100ebc005b0023652069e268831a9bb2904204d2de
:100ecc0060682768c01b03449bb2606dc01a6065e4
:100edc00b4f864000344a4f8643022610022204674
:100eec0006f0d4f9002e45d0002120461cf04afb18
:100efc0040e094f87830022b40f2f18094f83e6098
:100f0c0006f001031e46002b18bf1421002fc9d177
:100f1c000122204606f0baf9e4e794f87830042b65
:100f2c0040f2df80042384f8763011210026ede7af
:100f3c0094f87830042b40f2d68014210126e5e792
:100f4c0094f87830042b40f2d08014210126dde790
:100f5c0094f87830042b40f2ca8014210126d5e78e
:100f6c00e0410120dc410120d8410120d34d621029
:100f7c00002e5ad101352db22b46d8f800209542bf
:100f8c00bff48fa9d9f8002052f82340002cf1d0df
:100f9c0094f876300b2bedd094f83e3013f0c0065d
:100fac001abfdf091026002713f0040f7ff403afdc
:100fbc0094f83e3013f0080f7ff405af94f87630b8
:100fcc00052b3ff414af002e7ff40aaf94f83e309b
:100fdc0013f0020f7ff43daf94f83f3013f0400f45
:100fec00c8d094f87630032bc4d134f01fff636a59
:100ffc00c01a0028bedb94f8792094f884309a4209
:10100c003ff406af02221021204606f03ff934f0df
:10101c000dffb4f870203b4b1b6803fb02f3aafbdb
:10102c00032300eb93106062a4e7314600266de7c2
:10103c006ff0090189e66ff00e0186e66ff00e0184
:10104c0083e6022181e602217fe60135cbf8585078
:10105c00b8f80e30abf86e30abf86430404625f083
:10106c00a5fbabf86a00584632f044f80122102177
:10107c00584606f00bf903238bf876309bf83f307b
:10108c0013f0400f7ff499aa9bf83e306ff34103a5
:10109c008bf83e304ff4807640e60135cbf8585053
:1010ac00b8f80e30abf86e30abf86430404625f033
:1010bc007dfbabf86a00584632f01cf80122122175
:1010cc00584606f0e3f802238bf87630002625e626
:1010dc0014f0020fe1d1002620e60221e1e61221f4
:1010ec00dfe61021dde61121dbe61021d9e6112126
:1010fc00d7e634f09bfe236bc01a0028bff67eaef9
:08110c0010266de6e041012010
:020000040000fa
:101114002de9f04f2ded028b9bb00f21212034f0ef
:10112400d5fd002800f007877d4b1b68002b40f39a
:1011340002877c4c0026dff820929fed7b8ab9e37e
:10114400d4f8c4305d6894f8d1202ab3227c012af3
:1011540042d0022a61d1b4f93830b3f1ff3f25d02f
:101164000023724a4ff40071b4f9380034f05df88a
:10117400d4f8bc200221b4f938001ef099fe30b92d
:10118400d4f8c4301b681b6869492846984706216f
:1011940020462ff0b9fb86e31b681b686549284687
:1011a4009847012120462ff0affb7ce304f1800235
:1011b400618a012027f0daf82087b0f1ff3fcfd110
:1011c400d4f8c4301b681b685b4928469847012142
:1011d40020462ff099fb66e304f18002618a012026
:1011e40037f0d5fba087b0f1ff3f0ad00023534a64
:1011f4004ff4807134f044fa032120462ff084fb2d
:1012040051e3d4f8c4301b681b684d4928469847fd
:10121400012120462ff078fb45e31b681b684949f0
:1012240028469847012120462ff06efb3be3d4f873
:10123400c430d3f804b03b4be31adb1003ebc30216
:1012440003eb4203c3eb432303eb8343c3f1000ae1
:1012540097e0d4f8c4301b681b683b49584698474c
:10126400042120462ff050fb1de3b4f93c0035f077
:10127400faf918e30133c4f89430284635f004fa37
:1012840002460b46d4e9080113f05dfdc4e90801e8
:10129400002f19dba36ae26a511c8b4231d09342be
:1012a40020dc616b01f1010161632cd020e0d4f8f2
:1012b400c4301b685b68254958469847236b013b3b
:1012c400a26a1344236391e07f42a76234f0b2fd23
:1012d400c4f88c00002384f8cc30042120462ff07d
:1012e40013fbd7e75b1a226b13442363a36ae362fd
:1012f4000c3dadb2002d44d0dff858804ff4c867e0
:1013040036e0934206d1d4f8c4301b681b681049f8
:1013140058469847a36ae26a9342e9dde7e700bfcb
:10132400c04101208034012000007a44997d0300eb
:101334001ce70000d4e60000f8e60000837d03000b
:1013440044e7000068e7000080e70000a0e7000031
:10135400cce7000018fc0020643e01203a464146d8
:10136400b4f93c0022f0e8faa5f5c865adb245b180
:10137400b5f5c86ff2d22a46d149b4f93c0022f03f
:10138400dbfab4f93c0034f0f1fc05460b2878d9bb
:101394000c224946b4f93c0022f0cefa0c287ff422
:1013a40058afd9f800301f0e47ea03671a0202f457
:1013b4007f0217431b0a03f47f431f43a762d4f839
:1013c4009430002b7ff456af002ffff64eaf01236d
:1013d400c4f89430d4f8c4301b685b685246b949e9
:1013e40058469847a26a002a7ff461afa36ae36271
:1013f40005a9b4f93c0020f0c5ffb4f93c0036f06f
:10140400f7ff35f0adfc069dd4f8c4301b68628a42
:101414000292020e0192c0f3074200925f68c0f389
:101424000723c2b2a8495846b847d4f8c4301b6849
:10143400bdf8582002922a0e0192c5f30742009289
:101444005f68c5f30723eab2a0495846b847656404
:10145400bdf85830a4f8643034f0ecfcc4f88800cb
:10146400c4f8a800a36ac4f89c30d4f89430c4f833
:101474009830236bc4f8a030b4f93c0035f0f3f88d
:101484007fe7d4f894304bb994f8cf30012b40f077
:101494000a82042120462ff037fa04e234f0cafc11
:1014a400d4f8a830c31a22689342edd9d4f8942012
:1014b400d4f898309a4212d1d4f8c4301b681b680f
:1014c40083495846984734f0b5fcc4f88c0000238f
:1014d40084f8cc30042120462ff016fad4e70021fa
:1014e400204612f01dfccfe7b4f93c0034f03efc7a
:1014f40038b994f8cf304bb1092120462ff004fac3
:10150400d1e1b4f93c0035f0aef8cce10521204638
:101514002ff0faf9c7e194f8cd30002b00f0bd802c
:10152400b4f93c0034f022fc002840f0be8094f86a
:10153400cc305a1c84f8cc200a2b00f2bb808021ca
:10154400b4f93c0037f0b4fa002800f0ac81e36a47
:101554005b421a0e42ea0362190201f47f010a4354
:101564001b0a03f47f431343c9f800300025c9f86c
:101574000450c9f808508023c9f80c30c9f8105039
:10158400d4e9080134f0b2ff020e42ea0062030219
:1015940003f47f031a43030a03f47f431343c9f894
:1015a400143034f05bfcd4f88c10d4f88830c91aa9
:1015b400b1fbf0f31a0e42ea03621f0207f47f073d
:1015c4003a431f0a07f47f473a43c9f8182000fb3f
:1015d400131307ee103ab8ee477a27ee087a07eeaf
:1015e400900af8ee676ac7ee267a67ee887afcee10
:1015f400e77a17ee903a1a0e42ea0362190201f4ee
:101604007f010a431b0a03f47f431343c9f81c30c8
:10161400236b1a0e42ea0362190201f47f010a43a2
:101624001b0a03f47f431343c9f82030636b1a0e7b
:1016340042ea0362190201f47f010a431b0a03f41c
:101644007f431343c9f82430e36a1a0e42ea036263
:10165400190201f47f010a431b0a03f47f43134375
:10166400c9f82830c9f82c50c9f8305034224946fa
:10167400b4f93c0030f0f6f94c273a46294605a85f
:1016840036f0a6fd3a4605a9b4f93c0030f0eaf973
:10169400b4f93c0013f036fa05e10221204612f0b9
:1016a4003ffb012384f8cd303ae7b4f93c0034f031
:1016b400dafff8e0092120462ff026f9f3e000bf15
:1016c40018fc002004e80000d40b0200080c0200ff
:1016d400ece7000094f8cf30012b26d0b4f93800a1
:1016e40034f0e3fc002800f0de803822002105a855
:1016f40036f06efd05a9b4f938002bf078f804f142
:10170400400705ad0fcd0fc70fcd0fc70fcd0fc7c6
:1017140095e8030087e80300072120462ff0f4f83a
:10172400b4f9380034f0c5f8bde0092120462ff0a3
:10173400ebf8b8e0d4f8c4305f68b4f9380036f098
:10174400b0fd0546002865d0a36a002b49d1bd4be6
:10175400e31adb1003ebc30203eb4203c3eb4323a3
:1017640003eb8343d4f8c4201268d2f804805a42ad
:10177400b5493846c04734f05dfbc4f88800c4f866
:10178400a800a36ac4f89c30b4f9380036f010feff
:1017940035f0e6fad4f8c4301b68628a0292020e6d
:1017a4000192c0f307420092d3f80480c0f30723e8
:1017b400c2b2a6493846c047d4f8c4301b68b4f84e
:1017c4006420029294f84720019294f846200092f3
:1017d400d3f8048094f8453094f844209c49384662
:1017e400c047a36a0133a362d4f894200132c4f839
:1017f4009420e362284634f047ff02460b46d4e9be
:10180400080113f0a0fac4e90801dff848824ff494
:10181400c8671ce0b4f9380034f04bf820b9b4f9c7
:10182400380036f0c2fad8b134f004fbc4f88c00a6
:10183400082120462ff068f835e03a464146b4f9cd
:10184400380023f097f9a5f5c865adb245b1b5f5f3
:10185400c86ff2d22a467f49b4f9380023f08af9d6
:10186400a36a63b994f8cf30012b1cd10821204618
:101874002ff04af834f0defac4f88c0013e034f0a8
:10188400d9fad4f8a830c31a22689342ead90021bd
:10189400204612f045fae5e794f8cd30c3b30921a8
:1018a40020462ff031f80136d8346b4b1b68b34215
:1018b40040f3418394f8ce30012bf4d0023b102b3b
:1018c40000f2348301a252f823f000bf4511000056
:1018d40033120000ed1400001b150000d91600009f
:1018e400391700009d18000025190000c1190000d7
:1018f400ed1900002f1c0000151d00001b1e000028
:101904000b1f0000ed1a00007b1e0000211f0000c9
:101914000221204612f004fa012384f8cd30bee7f8
:10192400d4f8c4305f68237c012b29d0022b2cd03f
:10193400444be31adb1003ebc30203eb4203c3eb98
:10194400432303eb83435d42d4f8c4301b685b68d4
:101954002a4642493846984720462ff0bdfe94f85f
:10196400d130012b19d0d4f8c4301b685b682a46e7
:101974003b4938469847012120462ef0c5ff92e79f
:10198400b4f93c0030f01efbd2e7b4f9380031f072
:10199400f5fd4ff6ff732387cae794f8cf30002b89
:1019a400e1d1d4f8c4301b685b682a462d49384617
:1019b4009847022120462ef0a7ff74e7d4f8c80008
:1019c40035f06dfe032808d10b2120462ef09cff34
:1019d40034f030fac4f8ac0065e704f14401d4f8fb
:1019e400c80030f054fcefe7d4f8c4305d6894f8d4
:1019f400cf20012a17d0d4f8c80035f050fe0328b0
:101a04001bd094f8443003f0f003e02b2ed1237c58
:101a1400012b64d0237c022b7ff445af0c2120469c
:101a24002ef072ff3fe71b681b680f492846984752
:101a3400012120462ef068ff35e70022a267a4f8b2
:101a44007c20e4e78034012004e80000d40b020089
:101a5400080c020018fc0020c041012030e80000fe
:101a640094e8000060e80000b4e8000004f17802a3
:101a740004f14401d4f8c80028f054fbb8b1d4f8f8
:101a8400c4301b6894f87d20039294f87c20029261
:101a940094f87b20019294f87a2000925f6894f87d
:101aa400793094f87820c0492846b847afe734f035
:101ab400c1f9d4f8ac30c71a34f0d0f900eb800087
:101ac40087427ff6f0aed4f8c4301b681b68b74970
:101ad4002846984734f0aef9c4f8ac00e3e6102188
:101ae40020462ef011ff95e7d4f8c4305d6804f168
:101af4004402618a012036f04fffa087b0f1ff3f16
:101b040000f087800023aa4a4ff4807133f0b8fdb7
:101b1400e2680521b4f93c000bf020fd30b9d4f89b
:101b2400c4301b681b68a349284698470222062133
:101b3400b4f93c000bf012fd30b9d4f8c4301b6882
:101b44001b689d4928469847d4f8c810b4f93c004e
:101b54002df07bfa05a9b4f93c0020f013fcbdf884
:101b64005a30a4f87e30d4f8c4301b681b689349fb
:101b740028469847d4f8c4301b68628a029294f8c5
:101b84004720019294f8462000925f6894f845300b
:101b940094f844208a492846b847112120462ef05b
:101ba400b3fe34f047f9c4f8880033f0d9f9054698
:101bb4000f4636f0a3fd79016b0141ead5625b1b48
:101bc40062eb0702510241ead3514fea432c0a4621
:101bd4001ceb050347eb0202910141ea93614fead2
:101be400831cbceb030c61eb0201024600231cebdb
:101bf400050047eb010133f0a3fad4f8843018440c
:101c0400c4f890004ff4c86255216e4836f0e0faeb
:101c140049e6d4f8c4301b681b686b4928469847ca
:101c2400012120462ef070fe3de6d4f8c4305d68f4
:101c34000022618a012035f0f1fc6087b0f1ff3f9a
:101c440051d00023614a4ff4007133f0eefad4f816
:101c54008030002b53d104f1440300220121b4f954
:101c64003a002ff046f84ff48063a4f87e30d4f89d
:101c7400c4301b681b68514928469847d4f8c430bf
:101c84001b68628a029294f84720019294f84620d5
:101c940000925f6894f8453094f844204c492846f3
:101ca400b8470d2120462ef02ffed4f8b82003218a
:101cb400b4f93a001ef0fcf830b9d4f8c4301b680b
:101cc4001b683c4928469847b4f93a0033f096fa21
:101cd40034f0b0f8c4f8ac004ff4c8625421394869
:101ce40036f076fadfe5d4f8c4301b681b6839494e
:101cf40028469847012120462ef006fed3e504f13c
:101d04008003628a0121b4f93a0023f019fda2e7a5
:101d140094f8cf30012b42d0d4f8c4305f68b4f9c2
:101d24003a0034f0c2f9002856d0b4f93a0033f03e
:101d3400c0fd34f07ff8c4f8880033f011f905468b
:101d44000f4636f0dbfc79016b0141ead5625b1b7f
:101d540062eb0702510241ead3514fea432c0a468f
:101d64001ceb050347eb0202910141ea93614fea40
:101d7400831cbceb030c61eb0201024600231ceb49
:101d8400050047eb010133f0dbf9d4f88430184443
:101d9400c4f890000e2120462ef0b6fd83e50f21f5
:101da40020462ef0b1fd7ee514e90000d4e80000e1
:101db400837d030040e9000068e900001464010029
:101dc40090e9000018fc002044e70000997d03001e
:101dd400c8e90000f8e6000034f02cf8d4f8ac3080
:101de400c51a34f03bf800eb800085427ff65bad0a
:101df400b4f93a0031f0c2fb4ff6ff736387d4f8ad
:101e0400c4301b681b684e49384698470f2120464a
:101e14002ef07afd47e5204609f02cfc01280bd072
:101e240002287ff440ad0f2120462ef06dfd34f0e2
:101e340001f8c4f88c0036e5424f00bfb4f8b05046
:101e44008db1b5f5c86f28bf4ff4c8652a46394629
:101e5400b4f93a0019f0d6fcb4f8b0301b1aa4f85f
:101e6400b0308542ead9b4f93a0034f031f9204669
:101e740016f05efa17e5227d0b21b4f93c000bf055
:101e84006dfb204609f0f6fb01280bd002287ff4f5
:101e94000aad122120462ef037fd33f0cbffc4f8f3
:101ea4008c0000e5b4f8b05015b30027dff894a017
:101eb400a846b5f5c86f28bf4ff4c86842465146d6
:101ec400b4f93c002ff0cefd0744bfb22d1aadb2d9
:101ed400804501d1002debd1b4f93c0012f012fe83
:101ee40040b900221146b4f93c0031f045f9dae476
:101ef4002f46f1e7b4f8b030df1ba4f8b0702046e9
:101f040016f016facfe420462bf07afab4f93a0028
:101f140031f034fb4ff6ff736387c4e420462bf0a3
:101f24006ffab4f93c0030f04df8bce401212046ce
:101f34002ef0eafcb7e41bb0bdec028bbde8f08fd9
:081f440000ea000018fc002077
:020000040000fa
:101f4c00903f01201c0000000000000028b1002080
:101f5c00100d000000000000ac8c002004000000fc
:101f6c0000000000e45e0020c82d0000000000000e
:101f7c00bc39012004000000000000006c3d012071
:101f8c0004000000000000002c3101204001000082
:101f9c00000000008f3f0120010000000000000045
:101fac00094001200100000000000000583501200c
:101fbc00c0000000000000001c40012004000000d4
:101fcc0000000000b44001200400000000000000ec
:101fdc008a4301200200000000000000d8130120f9
:101fec0088050000000000008e4301200200000064
:101ffc000000000098080120a0050000000000006f
:10200c00924301200200000000000000380e012065
:10201c00a005000000000000894301200100000021
:10202c00000000008d4301200100000000000000b2
:10203c00184101200c000000000000009643012014
:10204c000200000000000000884501200400000090
:10205c000100000096000000ae45012002000000c7
:10206c000100000006030000aa430120020000004a
:10207c0001000000010000008c450120040000005c
:10208c0001000000dc05000091430120010000006c
:10209c000000000018360120b00000000000000015
:1020ac002441012008000000000000003826012017
:1020bc0040020000000000002c4101200c00000038
:1020cc000000000098430120010000000000000007
:1020dc00384101200400000000000000b84001203d
:1020ec0008000000000000009543012001000000e2
:1020fc0000000000994301200200000000000000d5
:10210c003c41012004000000000000009b43012022
:10211c00010000000000000040410120040000000c
:10212c0000000000f03d01203c0000000000000019
:10213c0000000020e45e000000000000444101208b
:10214c001c0000000000000038ca0020100a00002b
:10215c00000000009c430120010000000000000072
:10216c00c040012008000000000000006041012078
:10217c00040000000000000088210120580200002b
:10218c000000000064410120080000000000000075
:10219c0060190120d40200000000000086430120d9
:1021ac0002000000000000006c410120240000002f
:1021bc000000000090450120040000000100000018
:1021cc00090000004e450120020000000100000043
:1021dc00ffff00006245012002000000010000002a
:1021ec00ffff0000864501200200000001000000f6
:1021fc00ff070000a64501200200000001000000be
:10220c00ff070000904101200800000000000000c2
:10221c00343b01206c0000000000000094430120be
:10222c000100000000000000ac430120d4000000bd
:10223c0001000000ccfd02000000000000000000c6
:10224c000000000000000000000000000000000082
:10225c000000000000000000000000000000000072
:10226c000000000000000000000000000000000062
:10227c000000000000000000000000000000000052
:10228c000000000000000000000000000000000042
:10229c000000000000000000000000000000000032
:1022ac000000000000000000000000000000000022
:1022bc000000000000000000000000000000000012
:1022cc000000000000000000000000000000000002
:1022dc0000000000000000000000000000000000f2
:1022ec0000000000000000000000000000000000e2
:1022fc0000000000000000000000000000000000d2
:10230c000000000000000000b045012001000000aa
:10231c0001000000ff0000009841012004000000b3
:10232c0000000000c0390120800000000000000007
:10233c00e83c012044000000000000009d43012007
:10234c0001000000000000009c410120040000007e
:10235c00000000000c4001201000000000000000f4
:10236c006c3201200c01000000000000a041012093
:10237c0004000000000000002040012010000000bc
:10238c0000000000a4410120040000000000000037
:10239c00003c01205000000000000000b08c002028
:1023ac007824000000000000904301200100000090
:1023bc0000000000a8410120040000000000000003
:1023cc00c8360120a400000000000000c03a012023
:1023dc0074000000000000003040012010000000dc
:1023ec0000000000c43e0120280000000000000096
:1023fc000c38012090000000000000008c430120ec
:10240c000100000000000000ac41012004000000ad
:10241c0000000000ec3e0120240000000000000041
:10242c0088430120010000000000000074450120d9
:10243c000c00000001000000f4010000d0070000b7
:10244c0001000000284501202600000001000000ca
:10245c000800080002000100020008000006000647
:10246c000101540030303a30343a32353a30313a96
:10247c0030323a303100000050450120120000008b
:10248c000100000030303a30343a32353a30313acb
:10249c0030323a3034000000644501201000000056
:1024ac000100000001010000f5f50200b92803004d
:1024bc0000000100a4450120020000000100000002
:1024cc0000010000ac2a01201802000000000000ee
:1024dc00a03c0120480000000000000080450120c5
:1024ec000600000001000000ffffffffffff0000df
:1024fc006040012018000000000000009c38012002
:10250c009000000000000000b04101200c00000011
:10251c000000000080340120d80000000000000002
:10252c00643e01203400000000000000bc4101208a
:10253c0004000000000000009e4301200100000088
:10254c0000000000c0410120040000000000000059
:10255c0018fc00204006000000000000c4410120cf
:10256c000c00000000000000784001200c0000006e
:10257c00000000004040012010000000000000009e
:10258c009f4301200100000000000000b240012028
:10259c0002000000000000000a40012002000000c0
:1025ac0000000000d04101200400000000000000e9
:1025bc00504001201000000000000000d441012018
:1025cc001000000000000000644301200400000023
:1025dc0000000000e44101200c000000000000009d
:1025ec00a04301200100000000000000f041012088
:1025fc000400000000000000c83f0120180000008b
:10260c0000000000f44101200c000000000000005c
:10261c00684301200200000000000000004201207d
:10262c00040000000000000048f40020d007000067
:10263c000000000004420120100000000000000017
:10264c006a43012002000000000000001442012037
:10265c000800000000000000f83f012011000000fd
:10266c0000000000703f01201f000000000000006f
:10267c001c42012004000000000000006c430120fb
:10268c0002000000000000002042012010000000a9
:10269c00000000006e43012002000000000000005a
:1026ac0030420120080000000000000070430120af
:1026bc000200000000000000384201201000000061
:1026cc0000000000a14301200100000000000000f8
:1026dc00944501200400000001000000640000008b
:1026ec00e04401202800000001000000bb010300b1
:1026fc00d10101004b020100330203007c020300f4
:10270c00dd030300de030300e0030300e10301002b
:10271c00b322010048420120040000000000000028
:10272c002c3e012038000000000000004c4201202b
:10273c0010000000000000002c3901209000000067
:10274c0000000000081f01208002000000000000b3
:10275c005c420120280000000000000084400120a1
:10276c000c00000000000000e03f012018000000f9
:10277c0000000000ac3f01201c0000000000000025
:10278c00844201200400000000000000a24301204c
:10279c00010000000000000088420120040000003d
:1027ac00000000009845012004000000010000001a
:1027bc00ffffffff8c4201200c0000000000000016
:1027cc00a84001200a0000000000000098420120ef
:1027dc001c000000000000007243012002000000f9
:1027ec0000000000b44201200800000000000000be
:1027fc00a343012001000000000000007828012004
:10280c003402000000000000c42f01206801000009
:10281c0000000000103f01206000000000000000dc
:10282c00744301200200000000000000a4430120ba
:10283c000100000000000000983e01202c00000068
:10284c000000000048d40020001000000000000030
:10285c002c3d01204000000000000000c840012079
:10286c001000000000000000bc4201200400000029
:10287c0000000000a5430120010000000000000042
:10288c0048e400200008000000000000c0420120c5
:10289c000800000000000000c42c01208001000092
:1028ac0000000000904001200c000000000000001f
:1028bc0048ec00200008000000000000a6430120a6
:1028cc000200000000000000d840012008000000b9
:1028dc0000000000c84201201000000000000000b1
:1028ec00a843012001000000000000007833012003
:1028fc000801000000000000d84201200800000080
:10290c0000000000703d01204000000000000000ad
:10291c006c370120a000000000000000a845012039
:10292c00020000000100000001000000442e012004
:10293c008001000000000000e042012004000000c3
:10294c0000000000b03d012040000000000000002d
:10295c00e442012018000000000000007643012032
:10296c000200000000000000fc42012014000000e6
:10297c0000000000a943012001000000000000003d
:10298c009c4501200400000001000000e000000153
:10299c00e040012030000000000000001043012046
:1029ac00100000000000000078430120040000002b
:1029bc000000000038be0020000c000000000000e9
:1029cc007c4301200200000000000000aa45012009
:1029dc000200000001000000ffff00002043012066
:1029ec000800000000000000580201204006000012
:1029fc0000000000403a01208000000000000000b0
:102a0c00ac450120020000000100000030c00000b5
:102a1c002843012008000000000000007e43012034
:102a2c0002000000000000003043012008000000fc
:102a3c0000000000804301200400000000000000a2
:102a4c0038430120040000000000000084430120f2
:102a5c000200000000000000e023012058020000ea
:102a6c0000000000341c0120d40200000000000013
:102a7c003c4301200800000000000000a03b0120a6
:102a8c00600000000000000044430120140000001e
:102a9c0000000000a045012004000000010000001f
:102aac000100000058430120040000000000000059
:102abc00503c012050000000000000005c4301204d
:102acc000400000000000000084501202000000068
:102adc0001000000010000000300000000000000e5
:102aec0000000000000000000000000000000000da
:102afc0010410120104101200800000000000000de
:102b0c00604301200400000000000000804401200c
:102b1c006000000001000000010000000300000044
:102b2c000000000000000000000000000000000099
:102b3c000000000005fb0200000000000000000087
:102b4c0000000000858b0300c92f0300000000006b
:102b5c000000000000000000000000000000000069
:102b6c000000000000000000000000000000000059
:102b7c0000000000000000009c4001200c00000040
:102b8c0000000000000000000000000066666666a1
:020000040000fa
:102b9c004f4b20284c444f29000000002a2a204289
:102bac0055434b20616374697665202d3e20737705
:102bbc006974636820746f204c444f206265666fa3
:102bcc0072652044504c4c31202a2a004f534355f7
:102bdc004c5033324b2028666f726365642c206135
:102bec007070726f782900004f5343554c5033323c
:102bfc004b2028696e7465726e616c2c206170704c
:102c0c00726f78202d20584f534333324b20756e02
:102c1c00617661696c61626c6529000050415353a7
:102c2c0020287e3132204d487a2c202b2f2d32300b
:102c3c0030302070706d29004641494c0000000076
:102c4c005041535320287e3132204d487a207072e7
:102c5c006573656e74290000504153532028434c12
:102c6c004b524459202b207e313932204d487a2941
:102c7c00000000005041535320287e313932204d42
:102c8c00487a2070726573656e74290050415353f5
:102c9c0020287e3936204d487a2c206d6f6e6f744b
:102cac006f6e6963290000005041535320284f5622
:102cbc00462049535220657874656e647320746f96
:102ccc002036342d62697429000000004641494cbd
:102cdc0020286e6f206f766572666c6f7720736537
:102cec00656e290050415353202848572073746156
:102cfc00626c653b2044464c4c206472696674736c
:102d0c002061732065787065637465642900000028
:102d1c00434845434b20286472696674206f757470
:102d2c0073696465206578706563746564204446d6
:102d3c004c4c2062616e64290000000050415353da
:102d4c00202864726966742070726573656e743bba
:102d5c0020636865636b207369676e29000000004f
:102d6c007265760044535520444944202020203a73
:102d7c002030782530386c580d0a00002020726500
:102d8c00766973696f6e203a2025632020202852c3
:102d9c0045564953494f4e206669656c64203d2069
:102dac002575290d0a000000202073657269657372
:102dbc002020203a202575202020206469653a20a7
:102dcc0025750d0a000000002020322e31392e31dd
:102ddc00204644504c4c206e65656473204c444f27
:102dec00203a2025730d0a002020322e31332e314b
:102dfc00204644504c4c2066616c73652d756e6c8e
:102e0c006f636b3a207265762025632069732065a9
:102e1c0061726c792028412d4429202d3e20757338
:102e2c0065204c4259504153532f5755462f434c14
:102e3c004b5244592061742044504c4c31206272e6
:102e4c00696e672d75700d0a000000002020322e6f
:102e5c0031332e31204644504c4c2066616c7365e6
:102e6c002d756e6c6f636b3a206e6f742061707091
:102e7c006c696361626c6520287265762025632c11
:102e8c0020666978656420696e20462f47290d0af3
:102e9c0000000000786f736300000000756c700018
:102eac0020202a2a20584f534352445931206e6512
:102ebc0076657220736574202d3e206e6f20313242
:102ecc00204d487a20636c6f636b206174205849e5
:102edc004e312028636865636b2059343031202fc4
:102eec00205234373120305229202a2a0d0a000072
:102efc00465245514d3a206e6f20757361626c6578
:102f0c00207265666572656e636520636c6f636bba
:102f1c00202d3e206d6561737572656d656e742034
:102f2c006661696c65640d0a000000002020646510
:102f3c0076696174696f6e203a20252b6c64207061
:102f4c00706d2066726f6d2031322e303030204d16
:102f5c00487a20202d3e202025730d0a0000000009
:102f6c002020726573756c742020203a2025730d17
:102f7c000a00000064706c6c00000000584f534352
:102f8c0031206e6f74207265616479202d3e207241
:102f9c00756e20276877636c6b20786f73632720be
:102fac00666972737420286e6f203132204d487a16
:102fbc0020736f75726365290d0a000044504c4ce8
:102fcc00312063666720203a20524546434c4b3de6
:102fdc00584f5343312c204449563d2575202866c3
:102fec005f7265667e256c7520487a292c204c44ce
:102ffc00523d25752c204c42595041535320287278
:10300c00657620412f44290d0a00000044504c4c99
:10301c0031206c6f636b203a20434c4b5244593d2a
:10302c002564204c4f434b3d2564202873746174f8
:10303c0075733d30782530386c58290d0a00000026
:10304c0020202a2a20434c4b524459206e65766529
:10305c007220736574202d3e2044504c4c31206ef0
:10306c006f742072756e6e696e67202872656620ab
:10307c006f7574206f662033326b2e2e332e324dcb
:10308c00487a3f20584f53433120646f776e3f2965
:10309c00202a2a0d0a0000002020465245514d3aa4
:1030ac00206e6f20757361626c6520726566657247
:1030bc00656e6365202d3e2063616e6e6f74206dae
:1030cc006561737572652044504c4c310d0a0000db
:1030dc002020746172676574203139322e303030a3
:1030ec00204d487a2c2064657620252b6c6420704a
:1030fc00706d20202d3e202025730d0a000000004d
:10310c006e6f770044504c4c312f544332206e6f0d
:10311c0074207570202d3e2072756e2027687763a1
:10312c006c6b2064706c6c272066697273740d0a6a
:10313c00000000005443322036342d626974203a6a
:10314c0020256c6c75207469636b7320202868696a
:10315c003d256c75206c6f3d256c75290d0a0000a2
:10316c00202074696d6520202020203a20256c6c6d
:10317c00752e2530396c6c75207320286e6f6d6937
:10318c006e616c203936204d487a290d0a000000fa
:10319c0020207261746520202020203a20256c7537
:1031ac0020487a206f76657220256c75206d73200f
:1031bc00287673205359535f54494d452f44464c40
:1031cc004c2920202d3e202025730d0a00000000e4
:1031dc007772617000000000544332207772617086
:1031ec002020203a206869676820776f7264202558
:1031fc006c75202d3e20256c7520202d3e20202521
:10320c00730d0a00636d7000544332206e6f74208e
:10321c007570202d3e2072756e20276877636c6b5d
:10322c00206e6f77272066697273740d0a00000098
:10323c006877636c6b20636d7020203a2077696e21
:10324c00646f7720256c7520730d0a002020485779
:10325c0020757074696d653a20256c6c752e25305f
:10326c00396c6c7520732028584f5343312d3e44d4
:10327c00504c4c312d3e544332203936204d487a37
:10328c00290d0a002020656c617073656420203a5a
:10329c0020485720256c6c75206e73202076732087
:1032ac00205359535f54494d4520256c6c75206e45
:1032bc007320202864656c746120252b6c6c642051
:1032cc006e73290d0a000000202064726966742058
:1032dc002020203a205359535f54494d4520252b2b
:1032ec006c642070706d20767320485720202d3e22
:1032fc00202025730d0a000075736167653a2068fc
:10330c0077636c6b203c7265767c786f7363205ba3
:10331c00756c705d7c64706c6c7c6e6f777c777296
:10332c0061707c636d70205b736563735d3e0d0a29
:10333c000000000020207265762020202020202014
:10334c00202d2073696c69636f6e207265766973ca
:10335c00696f6e20284453552044494429202b2062
:10336c00726567756c61746f72202b206572726167
:10337c00746120676174652028737465702030292e
:10338c000d0a00002020786f7363205b756c705df4
:10339c00202d20656e61626c6520584f534331209f
:1033ac00283132204d487a2920616e64206d656188
:1033bc00737572652069742077697468204652456c
:1033cc00514d2028737465702031293b0d0a000083
:1033dc0020202020202020202020202020202027da
:1033ec00756c702720666f72636573207468652036
:1033fc00696e7465726e616c204f5343554c50333b
:10340c00324b207265666572656e63650d0a00004d
:10341c00202064706c6c202020202020202d206225
:10342c0072696e672075702044504c4c31207e318f
:10343c003932204d487a2066726f6d20584f5343b5
:10344c0031202b20465245514d20766572696679a4
:10345c002028737465702032290d0a0020206e6fad
:10346c007720202020202020202d2036342d62692a
:10347c0074205443322074696d6562617365202831
:10348c003936204d487a293a207469636b732c20a5
:10349c006e732c206d656173757265642072617436
:1034ac00652028737465702033290d0a0000000014
:1034bc00202077726170202020202020202d206673
:1034cc006f726365206120544332206f766572669b
:1034dc006c6f772c2076657269667920746865202c
:1034ec0036342d626974206869676820776f72645e
:1034fc00207469636b732028737465702033290df5
:10350c000a0000002020636d70205b736563735d9f
:10351c00202d20636f6d7061726520485720636c9d
:10352c006f636b207673205359535f54494d452c70
:10353c00207265706f72742072656c617469766547
:10354c002064726966742070706d202873746570c5
:10355c002034290d0a0000004255434b00000000a6
:10356c00526567756c61746f7220203a2025730d5b
:10357c000a000000457272617461206761746520f5
:10358c002844533830303030373438293a0d0a005b
:10359c004c444f00584f53433120656e61626c654b
:1035ac0020285854414c454e3d302c2058494e3122
:1035bc002f50423232293a205244593d25640d0a8b
:1035cc0000000000465245514d2072656620203a9d
:1035dc002025732c205245464e554d3d25750d0a20
:1035ec0000000000584f5343312066726571203a39
:1035fc0020256c7520487a2020287e256c752e2578
:10360c0030336c75204d487a290d0a0020206e6fde
:10361c00746520202020203a20696e7465726e61da
:10362c006c204f5343554c5033324b2072656620ff
:10363c00287e2b2f2d7365766572616c20252529cc
:10364c00202d3e2070726573656e6365206368651e
:10365c00636b206f6e6c790d0a000000584f53435a
:10366c0033324b202865787465726e616c204d4541
:10367c004d53290044504c4c312066726571203af0
:10368c0020256c7520487a2020287e256c752e25e7
:10369c0030336c75204d487a2925730d0a000000d3
:1036ac0020205b4f5343554c5033324b2072656690
:1036bc002c20617070726f785d000000000000bffc
:020000040000fa
:0436cc000120704722
:020000040000fa
:1036d0002de9f04f8fb001292bdd0d46904654683f
:1036e000bc49204634f0b0fb002845d0ba492046fa
:1036f00034f0aafb00286ad0b849204634f0a4fb75
:10370000002800f0d080b649204634f09dfb002808
:1037100000f04681b349204634f096fb002800f0c3
:103720003d82b149204634f08ffb0490002800f020
:103730005782ae49002029f013ffad49002029f03f
:103740000fffac49002029f00bffab49002029f006
:1037500007ffaa49002029f003ffa949002029f00a
:10376000fffea849002029f0fbfea749002029f010
:10377000f7fe0fb0bde8f08fa44b9c69250a05f059
:103780000f06a34bd3f818802246a24929f0e8fe81
:1037900006f1410733463a469f49002029f0e0fef2
:1037a000c4f30333c4f305429c49002029f0d8fe3a
:1037b00018f0040f40f0f482994a9a49002029f049
:1037c000cffe9949002029f0cbfe984af2e2022d63
:1037d00007dd9749d8f8080034f036fb002800f0e0
:1037e000f78231f07ffc044602469249002029f01e
:1037f000b7fe002c49d02ef07bf8052201210846a7
:1038000020f046fd04460d4654ea050342d0ff234e
:10381000894a8a49002029f0a3fe894a00232046cc
:10382000294631f08ffc8046854a002320462946f0
:1038300031f088fc104619464ff47a72002331f0bb
:1038400081fc0090434622467e49002029f088fef4
:103850007d4be61845f1ff374bf67e320023bb4225
:1038600008bfb242794e7a4b38bf1e4679480c22c7
:103870000023201845f1ff3125f038fc334602467d
:103880007549002029f06cfe73e77449002029f087
:1038900067fe6ee704220121084620f0f9fc044689
:1038a0000d466f4aa7e231f01dfc00285fd026f0dc
:1038b000adfd04466b4b5d6d41f2df63009348f252
:1038c0001203b6226849002029f04afe009505f04f
:1038d000010322466549002029f042fe002c4ad00f
:1038e0002ef006f805220421082020f0d1fc044621
:1038f0000d4654ea050343d0514a002331f022fc1f
:1039000006465b4b01934e4a00232046294631f080
:1039100019fc104619464ff47a72002331f012fc5c
:103920000090334622465349002029f019fe524b9d
:10393000e3180a9345f1ff330b93504a0023dde966
:103940000a018b4208bf82424d4e414b38bf1e4692
:103950004c48c0220023201845f1ff3125f0c6fb5a
:10396000334602464849002029f0fafd01e747495d
:1039700029f0f6fdfde64649002029f0f1fdf8e6c4
:1039800004221146082020f083fc04460d4654ea28
:10399000050340f02b833f49002029f0e1fde8e6d4
:1039a00024f040fa90b130f08bff05460e462ef021
:1039b000d9fc0446022700bf2ef0d4fc001bb0f552
:1039c0007a7f6bd2384632f09bfaf5e7324929f01c
:1039d000c7fdcee66c2d0000a02e0000802f000059
:1039e0000c310000dc310000103200000433000014
:1039f0004033000090330000dc3300001c34000032
:103a000068340000bc340000103500000020004184
:103a100000180040702d0000882d0000b42d00001b
:103a20009c3500006c350000803500009c2b0000a8
:103a3000a82e0000a035000068360000d035000038
:103a400040420f00f0350000bf4249ff282c000023
:103a5000442c000000e548ff382f0000ac2e000089
:103a6000f42b000000100040c82f000018300000a8
:103a7000c8360000803600003f929df47e841e0010
:103a8000642c000000508ef4dc300000882f000011
:103a90004c300000a43000001031000030f010ff66
:103aa000804689462ef05efc041b00f0f781b8ebdf
:103ab000050569eb06067301680143ead561401b01
:103ac00061eb06018b0043ea90738200194650199e
:103ad00046eb0101cb0043ea5073c2001046194681
:103ae0004ff0000a2246534631f02cfb07468b4626
:103af0004fea49134fea481543ead866b5eb080583
:103b000066eb0906b30043ea9573aa0012eb0805b9
:103b100043eb0906f30043ea5573ea0015461e46d7
:103b2000cdf80480cdf8009042464b46ba49504645
:103b300029f016fdb94a16232846314631f002fb1a
:103b400080468946602200232846314631f0fafa41
:103b5000ada3d3e9002331f0f5facde900234246c5
:103b60004b46af49504629f0fbfc3a46ad4bfb189b
:103b700004934bf1ff330593ab480021dde9045674
:103b8000b14208bfa842a94ba94938bf0b460093d0
:103b90002346a849002029f0e3fceae524f042f995
:103ba000d0b1a54b1c68a54ba54a5a611a461369aa
:103bb00013f0100ffbd1052032f0a2f99e4b1b68c9
:103bc000a04aa1499c4208bf0a46009222469f494a
:103bd000002029f0c5fccce59d4929f0c1fcc8e5d1
:103be000022d37dc24f01ef9002843d04ff00208e4
:103bf00034f086fd089030f063fe4b01440143ea47
:103c0000d065241a65eb0105ab0043ea9473a2006a
:103c100014461d460c220023201845eb010131f00b
:103c200091fa0746894631f09df904460d462ef07b
:103c300099fb82464ff47a7606fb08f64ff0020baa
:103c40002ef090fba0eb0a00b04218d2584632f09a
:103c500057f9f5e70a220021d8f8080034f0e2fa13
:103c6000804624f0dff828b1b8f1000f08bf4ff00c
:103c70000208bde77749002029f072fc79e530f0b1
:103c80001ffe4e01430146ead0621b1a62eb01029d
:103c9000960046ea93764fea830c1ceb000046eb55
:103ca00001010c2200230a900d9131f04bfa0646d7
:103cb0008b4631f057f9f31b06936beb090307931f
:103cc000001b61eb0505644ba0fb030103fb051121
:103cd000089a002331f036fa05468a46dde90612d5
:103ce0006c1a13466aeb02070a46134300f016816a
:103cf0007901630141ead4621b1b62eb07025102a6
:103d000041ead35158020a46031947eb02029101d6
:103d100041ea93619801c01a61eb0201dde90623d3
:103d2000001947eb010125f0e1f981460490424674
:103d30004a49002029f014fc35a3d3e900230a984e
:103d40000d9931f0fff9cde908012fa3d3e9002344
:103d50003046594631f0f6f9cde90023dde9082374
:103d60003f49002029f0fcfb029403970095cdf811
:103d700004a0dde906233b49002029f0f1fba9f26c
:103d8000f51240f6aa539a4201d8374befe009f6f4
:103d90009f791946354b364a894588bf1346e6e078
:103da000344a3549002029f0dbfb3449002029f052
:103db000d7fb334a3349002029f0d2fb15f00c0f12
:103dc0003a460cbf30493149002029f0c9fbd0e404
:103dd00031f088f9044602462d49002029f0c0fb45
:103de000002c3ff452ad04220121084620f050fa85
:103df00004460d46274a54ea050340f0bf80264991
:103e0000002029f0adfbb4e400ca9a3b000000009a
:103e1000007841cb020000004031000000c00b5a86
:103e20006c3100007fac65fafe083d00982c000064
:103e3000442c00009c3100004443012000a00141bb
:103e400000feffffb42c0000d82c0000e43100007d
:103e5000103100001432000000ca9a3b3c320000ce
:103e60005832000090320000f02c0000482d000075
:103e70001c2d0000643500006c350000803500000a
:103e8000a82b0000d42d0000f42d0000582e0000b7
:103e9000a0350000d82b0000fc2e00004fea49128c
:103ea0004fea481342ead865b3eb080365eb09050e
:103eb000aa0042ea9372990011eb080642eb090549
:103ec000eb0043ea5673f20016461d46cdf8048017
:103ed000cdf8009042464b466549002029f040fb52
:103ee000644a16233046294631f02cf9804689462b
:103ef000602200233046294631f024f956a3d3e945
:103f0000002331f01ff9cde9002342464b465a49c0
:103f1000002029f025fb2246584b38e642465849f6
:103f2000002029f01dfb4ea3d3e900230a980d9928
:103f300031f008f98046894647a3d3e9002330468b
:103f4000594631f0fff8cde9002342464b464d4932
:103f5000002029f005fb029403970095cdf804a0fa
:103f6000002200234849002029f0fafa474b049a1e
:103f70004749002029f0f4fafff7fbbbff2345492e
:103f8000002029f0edfa444a00232046294631f06a
:103f9000d9f80646404a00232046294631f0d2f897
:103fa000104619464ff47a72002331f0cbf8009096
:103fb000334622463949002029f0d2fa38490020f8
:103fc00029f0cefa374b14eb030a45f1ff3b364a92
:103fd00000235b4508bf5245344a284b38bf1a4678
:103fe0003349002029f0bcfafff7c3bb2a4a00235b
:103ff00031f0a8f806462f4b0193274a00232046ac
:10400000294631f09ff8104619464ff47a72002382
:1040100031f098f80090334622462749002029f0d5
:104020009ffa264be318089345f1ff3309930ea33b
:10403000d3e90023dde908018b4208bf8242204a10
:104040000e4b38bf1a461a49002029f089fafff7ab
:1040500090bb00bfaff3008000ca9a3b0000000095
:10406000007841cb02000000fe117a000000000041
:104070004031000000c00b5a6c310000442c00009d
:104080003c32000058320000903200001c2d00002d
:10409000d4320000d035000040420f00f03500005f
:1040a000183600003f2758ff7e841e004c2c00006d
:1040b0006c2f0000ac36000080360000ff58cbf4b7
:0440c000802c000050
:020000040000fa
:1040c40030b587b0044690f99030002b40f00f8152
:1040d4000378012b04bf0023037090f8d430042b21
:1040e40000f25784dfe813f005008b00d9002f019c
:1040f4003b0390f90830b3f1ff3f57d090f8fc2010
:10410400012a22d051b229b1022a43d0ff2380f8d8
:104114009030dce003f01f01c3f34a1303f50200ff
:1041240000f580700022012303fa01f1c00134f08c
:10413400c1fa34f0d9fc2ff04dfbc4f8dc0094f83c
:10414400fc30013384f8fc30cfe034f0cdfc2ff0a8
:1041540041fbd4f8dc30984200f0c78094f9083071
:1041640003f01f0201219140c3f34a1303f5020037
:1041740000f580700a46c00134f09cfa34f0b4fcb7
:104184002ff028fbc4f8dc0094f8fc30013384f8e9
:10419400fc30aae034f0a8fc2ff01cfbd4f8dc308f
:1041a400c31a062b94bf002501258fe090f8fc303c
:1041b4002bb1012b16d0ff2380f8903087e0002329
:1041c4000193b44a009201220321d0f8ec0032f0aa
:1041d400bdfb002800f0898094f8fc30013384f89a
:1041e400fc3082e000230193aa4b009301231a467a
:1041f4000321d0f8ec0032f0a9fb054666e0d0f8c4
:10420400ec0094f8fc30042b43d8dfe813f00500ed
:10421400c6031300c6033300002200929e4b012103
:1042240032f0bcfe002860d094f8fc30013384f8ee
:10423400fc305ae0d4f8e4309a0ac3f30913b2f517
:10424400f87f01d11b2b07d09449002029f086f96f
:10425400ff2384f890303ae0002200928e4b90497c
:1042640032f09cfe002840d094f8fc30013384f8ee
:10427400fc303ae0d4f8e43003f00f0384f8fe3065
:104284002bbb8849002029f069f9ff2384f890307a
:104294001de0ff2384f8903027e090f8fc10c1f172
:1042a400220200230093804b92b2804800eb01115c
:1042b400d4f8ec0023f04efa94f8fc500544edb227
:1042c40084f8fc50222d14bf002501256db1002374
:1042d40084f8fc3094f8d4300133dbb284f8d43061
:1042e400052b04bf022384f890300123237094f932
:1042f4009030022b00f0538394f90750c5f34a1011
:1043040000f5020000f58070c00134f05dfc05f09a
:104314001f0520fa05f515f0010f40f07683237888
:10432400012b04bf002323700021d4f8ec000af011
:1043340079fb0123237094f80431002b00f0768379
:104344000023237068e3d0f8ec0094f8fc302f2ba2
:1043540000f2fe81dfe813f030003000300030005e
:104364003000fc01fc01fc01fc01fc014a004a0094
:104374004a004a004a00fc01fc01fc01fc01fc016a
:1043840070007000700070007000fc01fc01fc0102
:10439400fc01fc018b000102b0000102c600010215
:1043a400dc000102f2000102080130014d0171013b
:1043b4009601bb01db01f2010093402305aa05210c
:1043c400204622f00dfb054600283ff47faf059bf5
:1043d40023b10a2384f8fc30002577e73449002010
:1043e40029f0bcf8ff2384f890306fe70a3bdbb276
:1043f40000931f2305aa0421204622f0f1fa054662
:1044040000283ff463af059b13f0100f18bf43f06f
:10441400e0035bb284f8f03013f1050f04db1423de
:1044240084f8fc30002551e72149002029f096f852
:10443400ff2384f8903049e7143bdbb200931f2339
:1044440005aa0821204622f0cbfa054600283ff4ad
:104454003daf059b13f0100f18bf43f0e0035bb2b0
:1044640084f8f1301e2384f8fc3000252ee7002365
:104474000093094b01220f4932f090fd05460028b4
:104484003ff424af94f8fc30013384f8fc30002569
:104494001ce700bf1b3a02002555030020bd0200a3
:1044a40094000a0048bd0200417f0300805a0100c5
:1044b40060bd020084000400d4f8e430a4f8f230b3
:1044c40000230093bd4b0122bd4932f067fd054630
:1044d40000283ff4fbae94f8fc30013384f8fc3040
:1044e4000025f3e6d4f8e430a4f8f4300023009374
:1044f400b24b0122b34932f051fd054600283ff486
:10450400e5ae94f8fc30013384f8fc300025dde698
:10451400d4f8e430a4f8f63000230093a74b01222a
:10452400a94932f03bfd054600283ff4cfae94f88c
:10453400fc30013384f8fc300025c7e6d4f8e430bd
:10454400a4f8f830002300939c4b01229f4932f0d9
:1045540025fd054600283ff4b9ae94f8fc3001333c
:1045640084f8fc300025b1e6d4f8e430a4f8fa303d
:1045740094f9f0309bb203f1090291b203f10e02f7
:1045840092b2120142ea8122b4f8f23003f00f032e
:104594001a43002301930093012392b28c4932f011
:1045a400d5f9054600283ff491ae94f8fc30013368
:1045b40084f8fc30002589e694f9f13028339bb265
:1045c400b4f8f420c2f3090242ea832200230193df
:1045d4000093012392b27a4932f0b8f905460028d3
:1045e4003ff474ae94f8fc30013384f8fc300025b9
:1045f4006ce694f9f0309bb25a1d91b2b4f8f620ef
:1046040022f47c5222f03f0242ea012212b292b218
:1046140009331a43002301930093012392b2694999
:1046240032f094f9054600283ff450ae94f8fc307b
:10463400013384f8fc30002548e694f9f0309bb24d
:1046440003f1090291b2b4f8f82022f47c5222f06a
:104654003f0242ea012212b292b20e331a430023fd
:1046640001930093012392b2574932f06ff9054642
:1046740000283ff42bae94f8fc30013384f8fc306e
:10468400002523e694f9f0309bb203f1110291b2b4
:10469400b4f8fa2022f47c5222f03f0242ea0122ca
:1046a40012b292b216331a430023019300930123ea
:1046b40092b2464932f04af9054600283ff406ae64
:1046c40094f8fc30013384f8fc300025fee594f8be
:1046d400fe50002301930093012345f6217243f613
:1046e40031719d4218bf0a463a4932f02ff9054606
:1046f40000283ff4ebad94f8fe30012b3ff4e6ad17
:1047040094f8fc30013384f8fc300025dee5002306
:1047140002930193012300934ff440734ff480728a
:104724002d4931f03aff054600283ff4cfad94f807
:10473400fc30013384f8fc300025c7e500230193e5
:10474400009301237d22254932f000f90546bde599
:10475400ff2384f890300025b8e50025b6e5d0f8ad
:10476400ec0094f8fc30092b00f20f81dfe813f021
:104774000a003c005100630076009500ac00cb00b9
:10478400e4000101637e1bb9042384f8fc30ace52a
:10479400a17d627d00230193114b0093012342ea22
:1047a4000122104932f0d2f800283ff49ead94f86b
:1047b400fc30013384f8fc3097e500bf2555030035
:1047c4008a000400ad000400ae000400af00040041
:1047d40084000400d000040088000a0039020a00a2
:1047e400417f030002ca0400e17d227e002301937d
:1047f4008f4b0093012342ea01228e4932f0a6f83e
:1048040000283ff472ad94f8fc30013384f8fc3096
:104814006be500230193864b009301238322864991
:1048240032f094f800283ff460ad94f8fc30013382
:1048340084f8fc3059e5002301937d4b0093012358
:104844004ff400427d4932f081f800283ff44dad29
:1048540094f8fc30013384f8fc3046e594f8953044
:1048640094f89420120442ea036294f892301a43b2
:1048740094f89310002301936d4b0093012342eab3
:1048840001226f4932f062f800283ff42ead94f80b
:10489400fc30013384f8fc3027e594f8971094f841
:1048a400962000230193624b0093012342ea0122e4
:1048b400644932f04bf800283ff417ad94f8fc300b
:1048c400013384f8fc3010e594f8973094f896207e
:1048d400120442ea036294f894301a4394f895104f
:1048e40000230193524b0093012342ea01225649cb
:1048f40032f02cf800283ff4f8ac94f8fc30013383
:1049040084f8fc30f1e4a37e002b4ff00003019304
:10491400474b00934ff0010314bf102200224ff0c5
:10492400011132f013f800283ff4dfac94f8fc30a6
:10493400013384f8fc30d8e4e17e49f2e60249f21e
:10494400e623002918bf1a46237f0bb142f4807274
:1049540000230193364b00930123042131f0f6ff29
:1049640000283ff4c2ac94f8fc30013384f8fc30e6
:10497400bbe400230193354b009301230c224ff435
:10498400803131f0e3ff0546a0e4ff2384f8903042
:104994009de4ff2380f89030a7e4002596e4637e2d
:1049a400b3b9d4f8e830002b3ff4a6ac34f09cf84b
:1049b4002ef010ffd4f8e830c01a04287ff69cac1f
:1049c4000023c4f8e830d4f8ec0033f0bdff93e4de
:1049d40034f08af82ef0fefed4f8e030c31ab3f5b2
:1049e4007a7fded3c4f8e0002378012b04bf0023d0
:1049f400237000230093164b01221649d4f8ec00cf
:104a040032f0ccfa01232370cbe794f804316bb174
:104a14002378012b3ff494ac002384f80431012162
:104a2400d4f8ec0009f0feff0123237007b030bd79
:104a3400417f030005ca04008700040001ca040082
:104a4400240001002500010022000100397903003f
:084a54005b65030003ca0400c6
:020000040000fa
:104a5c005478204279746520436f756e742d6c6f99
:104a6c00776572203332626974732854784f544cd2
:104a7c004f29000081870300547820427974652007
:104a8c00436f756e742d7570706572203136626966
:104a9c0074732854784f5448492900008b870300bd
:104aac005478204672616d657320772f6f20657284
:104abc00726f722854784654434e542900000000fb
:104acc00000000009587030054782042726f6164e7
:104adc0063617374204672616d6573285478424328
:104aec004654290000000000000000009f870300ce
:104afc005478204d756c74696361737420467261cf
:104b0c006d65732854784d46542900000000000050
:104b1c0000000000a987030054782050617573656c
:104b2c00204672616d6573285478504654290000f4
:104b3c00000000000000000000000000b38703002c
:104b4c0054782036342d62797465204672616d6517
:104b5c007328547842465436342900000000000073
:104b6c0000000000bd87030054782036352d31320b
:104b7c00372062797465204672616d6573285442e2
:104b8c00465431323729000000000000c78703006b
:104b9c005478203132382d323535206279746520c5
:104bac004672616d6573285442465432353529007e
:104bbc0000000000d18703005478203235362d35a3
:104bcc0031312062797465204672616d65732854a9
:104bdc00424654353131290000000000db870300c8
:104bec005478203531322d3130323320627974656e
:104bfc00204672616d65732854424654313032330d
:104c0c0029000000e5870300547820313032342d20
:104c1c00313531382062797465204672616d657367
:104c2c00285442465431353138290000ef870300af
:104c3c005478204672616d6573203e3d20313531cc
:104c4c003820627974652847544246313531382909
:104c5c0000000000f9870300547820556e646572db
:104c6c0072756e204672616d6573206e6f74205480
:104c7c005865642854785455522900000388030061
:104c8c0054782053696e676c6520436f6c6c697344
:104c9c00696f6e204672616d657328547853434674
:104cac00290000000d880300547820322d31352066
:104cbc00436f6c6c6973696f6e204672616d6573be
:104ccc002854784d43462900000000001788030043
:104cdc00547820313620436f6c6c6973696f6e2089
:104cec004672616d65732854784543434e542900d0
:104cfc0000000000218803005478206c617465204a
:104d0c00436f6c6c6973696f6e204672616d65736d
:104d1c002854784c43434e54290000002b88030040
:104d2c005478204465666572726564204672616dc4
:104d3c006573285478445446290000000000000094
:104d4c0000000000358803005478204361727269ba
:104d5c0065722053656e7365206572726f722046a2
:104d6c0072616d6573285478435345293f8803005d
:104d7c005278204279746520436f756e742d6c6f78
:104d8c00776572203332626974732852784f524cb3
:104d9c004f2900004988030052782042797465201d
:104dac00436f756e742d7570706572203136626943
:104dbc0074732852784f52484929000053880300d5
:104dcc005278204672616d657320772f6f20657263
:104ddc00726f722852784652434e542900000000dc
:104dec00000000005d88030052782042726f6164fd
:104dfc0063617374204672616d6573285278424307
:104e0c0046522900000000000000000067880300e3
:104e1c005278204d756c74696361737420467261ad
:104e2c006d6573202852784d465229000000000011
:104e3c000000000071880300527820506175736582
:104e4c00204672616d6573285278504652290000d5
:104e5c000000000000000000000000007b88030040
:104e6c0052782036342d62797465204672616d65f6
:104e7c007328527842465236342900000000000054
:104e8c00000000008588030052782036352d313221
:104e9c00372062797465204672616d6573285442bf
:104eac004652313237290000000000008f88030081
:104ebc005278203132382d323535206279746520a4
:104ecc004672616d6573285442465232353529005d
:104edc0000000000998803005278203235362d35b9
:104eec0031312062797465204672616d6573285486
:104efc00424652353131290000000000a3880300de
:104f0c005278203531322d3130323320627974654c
:104f1c00204672616d6573285442465231303233eb
:104f2c0029000000ad880300527820313032342d36
:104f3c00313531382062797465204672616d657344
:104f4c00285442465231353138290000b7880300c5
:104f5c005278204672616d6573203e3d20313531ab
:104f6c003920627974657328544d58424652290091
:104f7c0000000000c18803005278204672616d6504
:104f8c0073203c203634206279746573285278552e
:104f9c00465229000000000000000000cb880300ee
:104fac005278204672616d6573203e203135313860
:104fbc002062797465732852784f4652290000009c
:104fcc0000000000d58803005278206572726f7261
:104fdc00204672616d6573203e2031353138206278
:104fec00797465732852784a52290000df880300cf
:104ffc00527820435243206572726f722046726160
:10500c006d65732852784643534529000000000013
:10501c0000000000e98803005278204c656e67742c
:10502c0068206669656c64206572726f72204672c6
:10503c00616d65732852784c46464529f388030008
:10504c0052782073796d626f6c206572726f72206a
:10505c004672616d657328527852534529000000e1
:10506c0000000000fd880300527820616c69676eb7
:10507c006d656e74206572726f72204672616d651b
:10508c00732852784145290000000000078903006d
:10509c005278205265736f75726365204572726f1a
:1050ac00722028527852524529000000000000005e
:1050bc0000000000118903005278206f766572722f
:1050cc00756e206572726f72204672616d65732801
:1050dc005278524f45290000000000001b89030044
:1050ec0052782049504864722043686b73756d2068
:1050fc006572726f72204672616d657328527849c1
:10510c0048434529258903005278205443502043b5
:10511c00686b73756d206572726f72204672616d6b
:10512c006573285278544345290000002f890300e9
:10513c005278205544502043686b73756d2065720e
:10514c00726f72204672616d6573285278554345b3
:08515c0029000000398903005d
:020000040000fa
:045164000020704770
:020000040000fa
:105168002de9f04fadf20c5d012973dc4ff0140b03
:10517800bbf5fa7f28bf4ff4fa7b30f0edfa002830
:1051880074d04ff47a7033f0c9f8012033f006fa7e
:10519800b749002028f0e0f94ff40c720021b6a8b6
:1051a80033f014f8b6a811f08bfc002840f0948076
:1051b8000df5367adae97689aba3d3e900234046c0
:1051c80049462ff0bbff06460f46c7aaa94900204b
:1051d80028f0c2f90df2da22a749002028f0bcf91c
:1051e8000df22442a549002028f0b6f9a44a40f25d
:1051f8004633404649462ff0a1ff804689463c2267
:105208000023304639462ff099ffcde902234ff4a9
:1052180061620023304639462ff090ff1046194648
:105228003c2200232ff08affcde9000142464b467d
:105238009449002028f090f9dae97467924900202f
:1052480028f08af956ea070314d04ff0010c4ff002
:1052580000081ae013460a220021586832f0deffdf
:105268008346002884d14ff0010b86e7874928f050
:1052780073f9b2e28649002028f06ef930e000bfe9
:1052880008f10108b8f1090f1fd0c8f12000a8f1f2
:10529800200126fa08f307fa00f0034327fa01f180
:1052a8000b4303f00104002554ea0503e8d0794bc9
:1052b80053f828307849794aac4518bf0a467849e6
:1052c800284628f049f9ac46dae7c6f34122754981
:1052d800002028f041f903e07349002028f03cf948
:1052e8007249002028f038f938220021a8a832f0a5
:1052f8006dffa8a818f004f80246002840f08f8037
:10530800ae9caf9d9df8c032012b13d0684a694905
:10531800022b18bf0a466849002028f01df99df89d
:10532800d1324bb1012b3bd0644a6249022b18bfe2
:105338000a4602e0624aeee7624a6349002028f022
:105348000bf99df8d2226149002028f005f9e3b253
:105358000393c4f307230293c4f307430193240e72
:105368000094ebb2c5f307225949002028f0f4f85d
:10537800a89ad3b20193c2f307230093c2f3074359
:10538800120e5449002028f0e7f89df8d0324bb1ae
:10539800012b42d0504a4749022b18bf0a4602e067
:1053a8004e4acae74e4a4f49002028f0d5f84e49e0
:1053b800002028f0d1f84822002196a832f006fff4
:1053c80096a81ef095fb024670b3032847d04749bc
:1053d800002028f0c1f85a464549002028f0bcf8ba
:1053e80033f08af90990002033f0d8f84ff4c870e8
:1053f80032f094ffbbf1000f00f0f381002300248a
:10540800cde906344ff0ff314ff0ff32cde90412f9
:105418001e46a246a146a046abe0364ac3e7364937
:10542800002028f099f8c2e7bdf858220df25a2159
:10543800324829f043fdbdf86a229ba9304829f07b
:105448003dfdbdf87c220df27e212e4829f036fd67
:10545800bdf88e22a4a92c4829f030fdbbe72b49c2
:10546800002028f079f8b6e700ca9a3b000000004f
:10547800f87e0000287f0000407f0000587f000071
:1054880000a0b830707f0000987f0000c47e000044
:10549800ac7f0000a8640300c44f03002c7e00000a
:1054a800c07f0000c87f0000e07f0000f87f000098
:1054b800347e00003c7e00002c800000407e00000e
:1054c800307e0000547e0000448000005c800000b4
:1054d80074800000a8800000687e0000149d000011
:1054e800747e0000c8800000e08000008881000011
:1054f800b0810000807e0000d4a00000148100006c
:10550800208100002c8100003881000044810000c7
:105518002ff024fd401b61eb07014d01430145ead3
:10552800d0621b1a62eb0102550245ead3555f02ad
:105538002a463b1841eb0202950145ea93659f0113
:10554800ff1a65eb0205099a0023381845eb01019b
:105558002ff0f4fd21e009f1010901345b462246f0
:10556800aa49002027f0f8ff0a2030f0c5fc5c4566
:1055780029d02ff0f3fc05460f464ff40c7200219a
:105588000aa832f023fe0aa811f09afa0028e2d1fc
:10559800099b002bbcd10020002108f10108361816
:1055a8004aeb010adde90423994208bf904238bf5b
:1055b800cde90401dde906238b4208bf8242ccd243
:1055c800cde90601c9e7642404fb09f4b4fbfbf444
:1055d8000194cdf8009043465a468d49002027f0a3
:1055e800bbffb8f1000f28d19df8c032022b69d15a
:1055f800884a8949002027f0afff8849002027f012
:10560800abff33f079f88246854bd3f800b0854b71
:10561800d3f800902ff0a2fc04900691002032f0fd
:10562800bdff4ff4c87032f079fe002425464ff4d0
:105638000c777d4edff8148256e0002542462b4653
:10564800304651462ff07afd06460f464ff47a72df
:105658000023dde9049a484651462ff06ffd904635
:105668004ff47a720023484651462ff067fd814671
:105678004ff47a720023dde906ab504659462ff005
:105688005dfd03924ff47a720023504659462ff07d
:1056980055fd02904ff47a720023304639462ff0b8
:1056a8004dfd01924ff47a720023304639462ff0af
:1056b80045fd009043464a465c49284627f04cff82
:1056c80092e75c465a4a5b4b022c98bf1a4690e711
:1056d800a6fb0423db0803eb8303a4eb4303092b9a
:1056e8000ed001341e2c12d03a4600210aa832f0fe
:1056f8006dfd0aa811f0e4f90028e9d10135e7e7c2
:105708001e23621c4146002027f026ffe9e74a498c
:10571800002027f021ff2ff021fcbaf1000f32d032
:10572800049bc01a069b61eb03025401430144ea3f
:10573800d0611b1a61eb02018c0044ea93749e004d
:105748002146301842eb0101cb0043ea5073c200f6
:1057580010461946524600232ff0f0fc304b1f68c4
:10576800a7eb0b072f4b1968a1eb09017a18034621
:1057780090b1d600b6fbf0f64ff47a7404fb05f44a
:10578800b4fbf0f40be0264b1f68a7eb0b07254b87
:105798001968a1eb0901ca1900263346344603915a
:1057a8000297019200951e222449002027f0d4fe7a
:1057b800334622462249002027f0cefe2149002008
:1057c80027f0cafe2049002027f0c6fe40f2dc5030
:1057d80032f0a4fd032032f0e1fe0df20c5dbde8cd
:1057e800f08f00200190009003460246084927f0f8
:1057f800b3fe9df8c032022b05d0bbf1000f7ff439
:1058080060af0b4af5e6034af3e600bff4810000f7
:105818000c820000b87e00007882000088820000b8
:105828002443012020430120cdcccccc448200006d
:10583800887e0000a07e0000e08200000083000057
:105848004c83000080830000bc830000c8820000f5
:020000040000fa
:105858002de9f04f2ded048bd1b010900c4611922c
:1058680013930023adf87e30102120a830f09cf867
:1058780018b1002031f0befa40b9a149002027f044
:105888006bfe51b0bdec048bbde8f08f9d4b209aa8
:105898001a6000229c490df17e001df06bfb9b4baa
:1058a8001860002843d0642ca8bf6424012cb8bf1a
:1058b800012412942cf052fd954b18604ff6ff739b
:1058c800944a1380944a13800023944a136040f248
:1058d800ff7293490a8093490a80934a1380109b68
:1058e8004bbb884a039441f289330293d3780193de
:1058f80093780093537812788c49002027f02cfe77
:105908004ff4167032f00afd022032f047fe814b48
:105918001a884ff6ff739a4240f0f58205230693e2
:105928004ff0040bdff820a2dff8e891b3e28049da
:1059380027f012fea5e7734a109b0493129b03936a
:1059480041f289330293d378019393780093537883
:1059580012787849002027f0fffdd1e70027adf83d
:1059680060708df86270adf85c704ff0080a8df8c1
:105978006ea04ff009098df86f900223adf86c30d6
:105988001ba82cf0b9fd192030f0b6fa8df860a0ec
:105998008df8619001238df86230674b1f60276096
:1059a80017a918a81ff0a4fd002840f0ba82bdf876
:1059b8005c3033804ff6ff72934256d044e00327a1
:1059c8008df86c7002238df86d3008238df86e30d9
:1059d800192030f091fa39461ba82af06ff90346ce
:1059e800002841d004238df86c3001238df86d30e8
:1059f80007238df86e30192030f07efa39461ba83f
:105a08002af05cf9034678b300238df86c308df8e2
:105a18006d308df86e30192030f06efa39461ba8bb
:105a28002af04cf9031c18bf01231de0322030f086
:105a380063fa013d1fd02368002b40f0e0813288d3
:105a48004ff6ff739a4289d00023adf8603018a949
:105a58000e2025f021fa034630b1bdf8602041f24e
:105a680058039a42abd0434623602368002bddd00d
