:020000040000fa
:10000000f0ff0320edbd02006d9d0300719d030014
:10001000799d03007d9d0300819d03000000000089
:10002000000000000000000000000000899d0300a7
:10003000759d030000000000899d0300899d030059
:10004000899d0300899d0300899d0300899d03000c
:10005000899d0300899d0300899d0300899d0300fc
:10006000899d0300899d0300899d0300899d0300ec
:10007000899d0300899d0300899d0300899d0300dc
:10008000899d0300899d0300899d0300899d0300cc
:10009000899d0300899d0300899d0300899d0300bc
:1000a000899d0300899d0300899d0300899d0300ac
:1000b000899d0300899d0300899d03007b9b0300ac
:1000c000859b0300899d0300899d0300899d030092
:1000d000899d0300899d0300899d0300899d03007c
:1000e000899d0300899d03000000000000000000be
:1000f00000000000899d030085d5010085d5010021
:1001000085d5010085d50100f5130300f513030023
:10011000f5130300f5130300899d0300899d030077
:10012000899d0300899d0300899d0300899d03002b
:10013000899d0300899d0300899d0300899d03001b
:10014000899d0300899d0300899d0300899d03000b
:10015000899d0300899d0300899d0300899d0300fb
:10016000899d0300899d0300899d0300899d0300eb
:10017000899d0300899d0300899d0300899d0300db
:10018000899d0300899d0300899d0300899d0300cb
:10019000cd660300899d0300899d0300899d0300ae
:1001a000899d0300899d0300899d0300899d0300ab
:1001b000899d0300899d0300899d0300899d03009b
:1001c000899d0300899d0300899d0300899d03008b
:1001d000899d0300899d0300899d0300899d03007b
:1001e000899d0300899d0300899d0300b168030078
:1001f000899d030079320300899d0300899d0300d6
:10020000899d0300899d0300899d0300899d03004a
:10021000899d0300899d0300899d0300899d03003a
:10022000899d0300899d0300899d0300899d03002a
:10023000899d0300899d0300899d0300899d03001a
:10024000899d0300899d0300899d0300899d03000a
:10025000899d0300899d0300899d0300899d0300fa
:04026000899d030071
:020000040000fa
:10026400f8b500bff8bc08bc9e467047853c030047
:10027400f8b500bff8bc08bc9e467047613c03005b
:020000040000fa
:080284005c2f010001000000e5
:020000040000fa
:10028c004f4b20284c444f29000000002a2a2042c2
:10029c0055434b20616374697665202d3e2073773e
:1002ac006974636820746f204c444f206265666fdc
:1002bc0072652044504c4c31202a2a004f53435530
:1002cc004c5033324b2028666f726365642c20616e
:1002dc007070726f782900004f5343554c50333275
:1002ec004b2028696e7465726e616c2c2061707085
:1002fc00726f78202d20584f534333324b20756e3c
:10030c00617661696c61626c6529000050415353e0
:10031c0020287e3132204d487a2c202b2f2d323044
:10032c0030302070706d29004641494c00000000af
:10033c005041535320287e3132204d487a20707220
:10034c006573656e74290000504153532028434c4b
:10035c004b524459202b207e313932204d487a297a
:10036c00000000005041535320287e313932204d7b
:10037c00487a2070726573656e742900504153532e
:10038c0020287e3936204d487a2c206d6f6e6f7484
:10039c006f6e6963290000005041535320284f565b
:1003ac00462049535220657874656e647320746fcf
:1003bc002036342d62697429000000004641494cf6
:1003cc0020286e6f206f766572666c6f7720736570
:1003dc00656e29005041535320284857207374618f
:1003ec00626c653b2044464c4c20647269667473a5
:1003fc002061732065787065637465642900000062
:10040c00434845434b20286472696674206f7574a9
:10041c00736964652065787065637465642044460f
:10042c004c4c2062616e6429000000005041535313
:10043c00202864726966742070726573656e743bf3
:10044c0020636865636b207369676e290000000088
:10045c006e6f202874696d656f757429000000003b
:10046c0059455300544f47474c4544206279204529
:10047c0056535953202d20436f6d706172652d3e7c
:10048c0045565359532d3e4750494f206368616977
:10049c006e204f4b000000002a2a206e6f20746fd4
:1004ac0067676c65202d20636865636b2045565328
:1004bc0059532f504f525420776972696e67202a16
:1004cc002a0000004f4b00004641494c45440000b7
:1004dc0050415353202823636f6e76203d3d2023db
:1004ec007472696767657273290000005041535339
:1004fc00202850505320746f67676c696e672c20ee
:10050c007374696c6c2072756e6e696e672900006d
:10051c00636865636b000000726576004453552078
:10052c00444944202020203a2030782530386c581b
:10053c000d0a000020207265766973696f6e203a8f
:10054c00202563202020285245564953494f4e20e0
:10055c006669656c64203d202575290d0a00000034
:10056c0020207365726965732020203a2025752040
:10057c002020206469653a2025750d0a00000000d2
:10058c002020322e31392e31204644504c4c206ed6
:10059c0065656473204c444f203a2025730d0a0086
:1005ac002020322e31332e31204644504c4c2066c4
:1005bc00616c73652d756e6c6f636b3a207265762a
:1005cc00202563206973206561726c792028412d88
:1005dc004429202d3e20757365204c4259504153bf
:1005ec00532f5755462f434c4b524459206174207e
:1005fc0044504c4c31206272696e672d75700d0a37
:10060c00000000002020322e31332e312046445081
:10061c004c4c2066616c73652d756e6c6f636b3a18
:10062c00206e6f74206170706c696361626c652000
:10063c00287265762025632c2066697865642069ac
:10064c006e20462f47290d0a00000000786f736357
:10065c0000000000756c700020202a2a20584f538f
:10066c004352445931206e6576657220736574204f
:10067c002d3e206e6f203132204d487a20636c6ff6
:10068c00636b2061742058494e3120286368656380
:10069c006b2059343031202f2052343731203052d6
:1006ac0029202a2a0d0a0000465245514d3a206e47
:1006bc006f20757361626c65207265666572656e1c
:1006cc00636520636c6f636b202d3e206d656173d9
:1006dc007572656d656e74206661696c65640d0a72
:1006ec00000000002020646576696174696f6e20db
:1006fc003a20252b6c642070706d2066726f6d2013
:10070c0031322e303030204d487a20202d3e2020a2
:10071c0025730d0a000000002020726573756c743f
:10072c002020203a2025730d0a00000064706c6ca8
:10073c0000000000584f534331206e6f74207265d7
:10074c00616479202d3e2072756e20276877636c6a
:10075c006b20786f73632720666972737420286e20
:10076c006f203132204d487a20736f757263652982
:10077c000d0a000044504c4c312063666720203a2f
:10078c0020524546434c4b3d584f5343312c20444b
:10079c0049563d25752028665f7265667e256c7509
:1007ac0020487a292c204c44523d25752c204c4253
:1007bc0059504153532b575546202872657620418a
:1007cc002f44290d0a00000044504c4c31206c6f12
:1007dc00636b203a20434c4b5244593d2564204cca
:1007ec004f434b3d256420287374617475733d3001
:1007fc00782530386c58290d0a00000020202a2a50
:10080c0020434c4b524459206e65766572207365bb
:10081c0074202d3e2044504c4c31206e6f7420724d
:10082c00756e6e696e672028726566206f75742010
:10083c006f662033326b2e2e332e324d487a3f208a
:10084c00584f53433120646f776e3f29202a2a0d6d
:10085c000a0000002020465245514d3a206e6f2070
:10086c00757361626c65207265666572656e636531
:10087c00202d3e2063616e6e6f74206d6561737503
:10088c0072652044504c4c310d0a000020207461dc
:10089c0072676574203139322e303030204d487af1
:1008ac002c2064657620252b6c642070706d2020c4
:1008bc002d3e202025730d0a000000006e6f77007e
:1008cc0044504c4c312f544332206e6f7420757051
:1008dc00202d3e2072756e20276877636c6b206428
:1008ec00706c6c272066697273740d0a000000002e
:1008fc005443322036342d626974203a20256c6cb6
:10090c0075207469636b7320202868693d256c75ac
:10091c00206c6f3d256c75290d0a00002020746930
:10092c006d6520202020203a20256c6c752e2530fa
:10093c00396c6c75207320286e6f6d696e616c203c
:10094c003936204d487a290d0a00000020207261aa
:10095c00746520202020203a20256c7520487a20b0
:10096c006f76657220256c75206d73202876732048
:10097c005359535f54494d452f44464c4c29202024
:10098c002d3e202025730d0a000000007772617047
:10099c000000000054433220777261702020203a0e
:1009ac00206869676820776f726420256c75202d2c
:1009bc003e20256c7520202d3e202025730d0a002d
:1009cc00636d7000544332206e6f74207570202d4f
:1009dc003e2072756e20276877636c6b206e6f7784
:1009ec00272066697273740d0a0000006877636cc7
:1009fc006b20636d7020203a2077696e646f7720ce
:100a0c00256c7520730d0a002020485720757074d2
:100a1c00696d653a20256c6c752e2530396c6c75ba
:100a2c0020732028584f5343312d3e44504c4c31a9
:100a3c002d3e544332203936204d487a290d0a0078
:100a4c002020656c617073656420203a2048572023
:100a5c00256c6c75206e73202076732020535953af
:100a6c005f54494d4520256c6c75206e73202028f1
:100a7c0064656c746120252b6c6c64206e73290d7d
:100a8c000a00000020206472696674202020203a3d
:100a9c00205359535f54494d4520252b6c642070cd
:100aac00706d20767320485720202d3e2020257312
:100abc000d0a00006c6472667261630044504c4c09
:100acc0031206e6f74207570202d3e2072756e2053
:100adc00276877636c6b2064706c6c272066697276
:100aec0073740d0a000000004c44524652414320de
:100afc002020203a202564202f2033312020284626
:100b0c0049584544202d206f6e2d7468652d666cf8
:100b1c00792074756e696e67207374616c6c7320c8
:100b2c0044504c4c206f6e2072657620412f442926
:100b3c000d0a000044504c4c312066726571203a0d
:100b4c0020256c7520487a202028252b6c64207079
:100b5c00706d207673203139322e303030204d4874
:100b6c007a2c20584f534333324b20726566290d33
:100b7c000a0000006469736369706c696e65203ae1
:100b8c00206672657175656e637920697320636f79
:100b9c007272656374656420696e20534f465457b6
:100bac0041524520286e747020735f726174655fca
:100bbc0070706229202d2073656520276e74702754
:100bcc000d0a0000686f6c6400000000686f6c64b4
:100bdc003a20465245514d206e6f20584f534333a7
:100bec00324b207265666572656e63650d0a000096
:100bfc00706879736963616c20544332203a202504
:100c0c006c7520487a202028252b6c642070706d20
:100c1c002076732039362e303030204d487a2c20f7
:100c2c00767320584f534333324b290d0a00000082
:100c3c00202074686520736f667477617265204e2e
:100c4c005450206c6f6f7020636f72726563747395
:100c5c00207468697320726573696475616c2069ae
:100c6c006e20746865207265616420706174683be5
:100c7c000d0a000020206265747765656e2d73790e
:100c8c006e6320686f6c646f766572207e3d2028e1
:100c9c006c6f636b6564206f73632e64726966742a
:100cac0029207820696e74657276616c202d207312
:100cbc00656520276e747027202f20276e74702096
:100ccc007761746368272e0d0a0000006576740046
:100cdc0044504c4c312f544332206e6f742075703d
:100cec00202d3e2072756e20276877636c6b206e0a
:100cfc006f77272066697273740d0a006261642035
:100d0c0070696e2027257327202875736520652e42
:100d1c00672e2050423137290d0a000061726d6533
:100d2c00643a20502563257520746f67676c657372
:100d3c00206174204343303d256c752028696e205a
:100d4c007e256c75206d73203d206e657874204e69
:100d5c005450207365636f6e64290d0a0000000007
:100d6c002020726567733a205443322e4556435403
:100d7c00524c3d3078253034582020455653595329
:100d8c002e434825753d30782530386c5820205539
:100d9c0053455225753d30782530386c58202050fd
:100dac0025632e45564354524c3d30782530386cd3
:100dbc00580d0a0020204d4330206d61746368206b
:100dcc003a2025730d0a000020205025632575203c
:100ddc004f555420203a202575202d3e2025752076
:100dec00202d3e202025730d0a00000020206e656a
:100dfc0078743a2073636f706520502563257520d5
:100e0c0076732050432d50505320746f20766572aa
:100e1c006966792074686520696e7374616e7420dc
:100e2c00282b2f2d207573290d0a00006164630097
:100e3c005443322f414443206e6f742075700d0a59
:100e4c000000000020204144432073656c662d7423
:100e5c00657374202853572074726967676572290b
:100e6c003a202573202028726573756c743d2575a6
:100e7c00290d0a002020646961673a20544332200e
:100e8c004d4330206d6174636865733d25642c207f
:100e9c0045565359532e434825753d3078253038e7
:100eac006c58205553455225753d30782530386c9b
:100ebc0058204144432e45564354524c3d307825de
:100ecc003032580d0a0000004144432074726967a7
:100edc006765723a20256420544332206576656e2e
:100eec007473202d3e20256420636f6e76657273bb
:100efc00696f6e732020286c617374207265737532
:100f0c006c743d25752f343039352920202d3e2029
:100f1c002025730d0a0000002020656163682063a2
:100f2c006f6e76657273696f6e2077617320737460
:100f3c00617274656420627920746865204857205a
:100f4c00636f6d706172652d3e45565359532d3e3e
:100f5c0041444320706174682c206e6f7420746857
:100f6c0065204350550d0a00707073006f66660063
:100f7c006f6e0000505053206f66660d0a00000023
:100f8c00505053206f6e2050256325753a206564b0
:100f9c006765206576657279207365636f6e642c66
:100fac002066697273742065646765206f6e2074a7
:100fbc006865206e657874204e5450207365636f9d
:100fcc006e642e0d0a000000202076657269667929
:100fdc003a20256c7520656467657320696e203234
:100fec002e35207320287e312f7320657870656331
:100ffc007465642920202d3e202025730d0a0000e5
:10100c00202073636f7065205025632575207673df
:10101c002050432d505053202872756e206c616ef9
:10102c00383636782d6e747073796e6320736f203a
:10103c00746865207365636f6e64203d2050432097
:10104c007365636f6e64292e20276877636c6b2041
:10105c00707073206f66662720746f2073746f70c6
:10106c002e0d0a0075736167653a206877636c6ba7
:10107c00203c7265767c786f73635b756c705d7cfd
:10108c0064706c6c7c6e6f777c777261707c636d56
:10109c00705b735d7c6c6472667261637c686f6c90
:1010ac00647c6576745b70696e5d7c6164635b6e99
:1010bc005d7c7070735b70696e5d206f6e7c6f66ab
:1010cc00663e0d0a0000000020207265762020206c
:1010dc0020202020202d2073696c69636f6e207294
:1010ec0065766973696f6e202844535520444944d2
:1010fc0029202b20726567756c61746f72202b2010
:10110c0065727261746120676174652028737465ff
:10111c00702030290d0a00002020786f7363205b4b
:10112c00756c705d202d20656e61626c6520584f6a
:10113c0053433120283132204d487a2920616e6486
:10114c00206d6561737572652069742077697468a8
:10115c0020465245514d2028737465702031293b2f
:10116c000d0a0000202020202020202020202020dc
:10117c0020202027756c702720666f7263657320a2
:10118c0074686520696e7465726e616c204f534390
:10119c00554c5033324b207265666572656e6365d3
:1011ac000d0a0000202064706c6c20202020202070
:1011bc00202d206272696e672075702044504c4c53
:1011cc0031207e313932204d487a2066726f6d2085
:1011dc00584f534331202b20465245514d207665b4
:1011ec00726966792028737465702032290d0a00a3
:1011fc0020206e6f7720202020202020202d2036cc
:10120c00342d626974205443322074696d656261b7
:10121c00736520283936204d487a293a2074696341
:10122c006b732c206e732c206d6561737572656405
:10123c0020726174652028737465702033290d0a3f
:10124c0000000000202077726170202020202020d8
:10125c00202d20666f726365206120544332206f0d
:10126c00766572666c6f772c20766572696679206c
:10127c007468652036342d6269742068696768204b
:10128c00776f7264207469636b7320287374657054
:10129c002033290d0a0000002020636d70205b7341
:1012ac006563735d202d20636f6d706172652048de
:1012bc005720636c6f636b207673205359535f54c4
:1012cc00494d452c207265706f72742072656c618b
:1012dc00746976652064726966742070706d20285c
:1012ec00737465702034290d0a00000020206c6492
:1012fc007266726163202020202d2073686f772026
:10130c0044504c4c31204c445246524143202b20eb
:10131c006d656173757265642066726571202872e3
:10132c006561642d6f6e6c793b2074756e696e67a8
:10133c0020697320696e20535729202873746570b7
:10134c002036290d0a0000002020686f6c642020d4
:10135c0020202020202d20706879736963616c2017
:10136c00544332207261746520767320584f534376
:10137c0033324b202b20686f6c646f766572206e55
:10138c006f74652028737465702036290d0a00006f
:10139c002020657674205b70696e5d20202d2061a5
:1013ac00726d20612048572d74696d65642047501b
:1013bc00494f206564676520617420746865206ef0
:1013cc00657874204e5450207365636f6e642028ca
:1013dc0064656661756c742050423137292028731e
:1013ec007465702037290d0a00000000202061640c
:1013fc0063205b6e5d202020202d206669726520a5
:10140c006e20544332206576656e7473202d3e2019
:10141c00414443302053544152542c20636f756e19
:10142c007420636f6e76657273696f6e73202873a8
:10143c007465702038290d0a00000000202070709f
:10144c0073205b70696e5d206f6e7c6f6666202dfd
:10145c0020636f6e74696e756f75732031205050f8
:10146c00532065646765206f6e20746865204e5448
:10147c0050207365636f6e64202864656661756cbb
:10148c007420504231372920287374657020392913
:10149c000d0a00004255434b000000005265677571
:1014ac006c61746f7220203a2025730d0a000000c5
:1014bc0045727261746120676174652028445338e9
:1014cc0030303030373438293a0d0a004c444f0054
:1014dc00584f53433120656e61626c652028585417
:1014ec00414c454e3d302c2058494e312f50423204
:1014fc0032293a205244593d25640d0a000000005f
:10150c00465245514d2072656620203a2025732c99
:10151c00205245464e554d3d25750d0a00000000e4
:10152c00584f5343312066726571203a20256c75f3
:10153c0020487a2020287e256c752e2530336c753a
:10154c00204d487a290d0a0020206e6f74652020ea
:10155c002020203a20696e7465726e616c204f53a6
:10156c0043554c5033324b2072656620287e2b2f0e
:10157c002d7365766572616c20252529202d3e2002
:10158c0070726573656e636520636865636b206f4d
:10159c006e6c790d0a000000584f534333324b20c8
:1015ac002865787465726e616c204d454d53290029
:1015bc0044504c4c312066726571203a20256c7574
:1015cc0020487a2020287e256c752e2530336c75aa
:1015dc00204d487a2925730d0a00000020205b4f0e
:1015ec005343554c5033324b207265662c2061703e
:0c15fc0070726f785d000000000000bffe
:020000040000fa
:101608002de9f04f95b0012950dd0d461646546876
:10161800c549204637f0f8fc00287ed0c34920464b
:1016280037f0f2fc002800f0a480c149204637f0ca
:10163800ebfc002800f00a81be49204637f0e4fca4
:10164800002800f0f581bc49204637f0ddfc002871
:1016580000f08782b949204637f0d6fc069000286a
:1016680000f0a182b649204637f0cefc002800f0f1
:101678005083b449204637f0c7fc002800f0b583f2
:10168800b149204637f0c0fc002800f0df83af499d
:10169800204637f0b9fc8146002800f0a184ac4907
:1016a800204637f0b1fc002800f0d185a949002078
:1016b8002cf0c8ffa84900202cf0c4ffa74900203f
:1016c8002cf0c0ffa64900202cf0bcffa549002043
:1016d8002cf0b8ffa44900202cf0b4ffa349002047
:1016e8002cf0b0ffa24900202cf0acffa14900204b
:1016f8002cf0a8ffa04900202cf0a4ff9f4900204f
:101708002cf0a0ff9e4900202cf09cff9d49002052
:101718002cf098ff15b0bde8f08f9b4b9c69250a0b
:1017280005f00f06994bd3f81880224698492cf0fb
:1017380089ff06f1410733463a46964900202cf0c6
:1017480081ffc4f30333c4f30542934900202cf00e
:1017580079ff18f0040f40f09d86904a90490020c8
:101768002cf070ff8f4900202cf06cff8e4a00f09f
:101778009bbe022d06dd8d49b06837f045fc002878
:1017880000f0a18634f07cfd04460246884900201a
:101798002cf058ff002c4ad031f024f90522012101
:1017a800084624f055fc04460d4654ea050343d088
:1017b800ff23804a804900202cf044ff7f4a002301
:1017c8002046294634f0a4fd06467c4a00232046dc
:1017d800294634f09dfd104619464ff47a720023cd
:1017e80034f096fd009033462246754900202cf0cf
:1017f80029ff744b14eb030a45f1ff3b4bf67e328d
:1018080000235b4508bf52456f4e704b38bf1e46dc
:101818006f480c220023201845f1ff3128f0d8fc2e
:10182800334602466b4900202cf00cff72e76a49e8
:1018380000202cf007ff6de704220121084624f060
:1018480007fc04460d46654a00f050be34f018fd0a
:10185800002860d029f04cfe0446614b5d6d41f2d2
:10186800df63009348f21203b6225e4900202cf091
:10187800e9fe009505f0010322465b4900202cf0a3
:10188800e1fe002c4bd031f0adf8052204210820f0
:1018980024f0defb04460d4654ea050300f0b88048
:1018a800464a002334f034fd0646504b0193434a20
:1018b80000232046294634f02bfd104619464ff4e4
:1018c8007a72002334f024fd0090334622464849ba
:1018d80000202cf0b7fe474be318109345f1ff3377
:1018e8001193454a0023dde910018b4208bf82426b
:1018f800424e364b38bf1e464148c02200232018ae
:1019080045f1ff3128f064fc334602463d4900208a
:101918002cf098fefee63c492cf094fefae63b4992
:1019280000202cf08ffef5e6240500005806000084
:1019380038070000c808000098090000cc0900001a
:10194800c00a0000d00b0000d80c0000380e0000c0
:10195800740f000070100000d41000002411000063
:1019680070110000b0110000fc11000050120000be
:10197800a4120000f8120000541300009c13000089
:10198800f81300004814000000200041001800402f
:1019980028050000400500006c050000d814000070
:1019a800a8140000bc1400008c02000060060000af
:1019b800dc140000a41500000c15000040420f00c4
:1019c8002c150000bf4249ff180300003403000033
:1019d80000e548fff006000064060000e40200008d
:1019e8000010004080070000d40700000416000023
:1019f800bc1500003f929df47e841e005403000035
:101a080000508ef498080000400700000808000005
:101a180004221146082024f01bfb04460d4654ea14
:101a2800050340f05486cc4900202cf00bfe71e6eb
:101a380027f062f840b131f0f7fb05460e4631f069
:101a480079fd0446022706e0c4492cf0fbfd61e657
:101a5800384635f03bfb31f06dfd001bb0f57a7f61
:101a6800f6d331f0e1fb8046894631f063fd041b73
:101a780000f04685b8eb050569eb060673016801b9
:101a880043ead561401b61eb06018b0043ea907382
:101a980082001946501946eb0101cb0043ea507306
:101aa800c200104619464ff0000a2246534634f049
:101ab8002ffc07468b464fea49134fea481543ea7d
:101ac800d866b5eb080566eb0906b30043ea9573db
:101ad800aa0012eb080543eb0906f30043ea557325
:101ae800ea0015461e46cdf80480cdf8009042461f
:101af8004b469b4950462cf0a5fd9a4a162328468a
:101b0800314634f005fc8046894660220023284689
:101b1800314634f0fdfb8ea3d3e9002334f0f8fb03
:101b2800cde9002342464b468f4950462cf08afdaa
:101b38003a468e4bfb180c934bf1ff330d938c48b0
:101b48000021dde90c56b14208bfa842894b8a49f9
:101b580038bf0b4600932346884900202cf072fdbd
:101b6800d8e526f0c9ffd0b1854b1c68854b864a5d
:101b78005a611a46136913f0100ffbd1052035f08e
:101b8800a5fa7f4b1b68814a81499c4208bf0a46d7
:101b9800009222467f4900202cf054fdbae56f4997
:101ba8002cf050fdb6e5022d05dc26f0a5ff70b33c
:101bb8004ff002080de00a220021b06837f012fc4d
:101bc800804626f099ff10b3b8f1000f08bf4ff018
:101bd800020837f075fe0a9034f06afb81468b469e
:101be80034f08efa06460f4631f0a4fc05464ff451
:101bf8007a7404fb08f44ff0020a00bf31f09afc33
:101c0800401ba04208d2504635f060faf6e7624918
:101c180000202cf017fd7de534f04afb05468a4686
:101c280034f06efab5eb090308936aeb0b030993da
:101c3800801b61eb0707594ba0fb030103fb07114e
:101c48000a9a002334f064fb06468b46dde9081245
:101c5800741a6beb020751ea020300f092847901cf
:101c6800630141ead4621b1b62eb0702510241ea9d
:101c7800d35158020a46031947eb0202910141ea7f
:101c880093619801c01a61eb0201dde9082300198c
:101c980047eb010128f09cfa8146069042464049ec
:101ca80000202cf0cffc2aa3d3e900232846514674
:101cb80034f02efbcde90a0125a3d3e900232846f9
:101cc800514634f025fbcde90023dde90a233549e7
:101cd80000202cf0b7fc029403970096cdf804b0ce
:101ce800dde90823304900202cf0acfca9f2f512fc
:101cf80040f6aa539a4202d82c4b00f06bbc09f666
:101d08009f7919462a4b2b4a894588bf134600f00c
:101d180061bc26f0f1fe002854d030f063fe0522a5
:101d28000421082024f094f904460d46224b9a6cad
:101d3800c2f30442214900202cf084fc54ea050334
:101d480044d11f4900202cf07dfce3e4aff3008070
:101d580000ca9a3b0000000060080000cc080000a0
:101d6800fc08000000c00b5a280900007fac65fa87
:101d7800fe083d00880300003403000058090000f5
:101d88005043012000a0014100feffffa403000012
:101d9800c8030000a0090000d009000000ca9a3b4f
:101da800f8090000140a00004c0a0000e0030000d3
:101db800380400000c04000000100040f40a000081
:101dc800800b0000c2492cf03dfca3e4c148c022ae
:101dd8000023201845f1ff3128f0faf9034622467e
:101de800bd4900202cf02efcabe726f085fe20b381
:101df80030f0f8fd05220421082024f029f950eae2
:101e080001031ed0440844eac1744d08b348602257
:101e18000023201845f1ff3128f0daf9034622465d
:101e2800af4900202cf00efcae4900202cf00afc33
:101e3800ad4900202cf006fc6ce4a5492cf002fc0e
:101e480068e4aa4900202cf0fdfb63e426f054fe68
:101e5800002800f0ba800123129311231393022d56
:101e68000bdd16f1080f08d0b06830b113aa12a91b
:101e78002ff0ecfe002800f0ad802ef0d5fb0446d4
:101e88000d4631f0d1f907468da3d3e9002320464a
:101e9800294634f03dfa9649b1eb020863eb430951
:101ea80089a1d1e90001494508bf404504d39149ba
:101eb800b1eb020863eb430918eb080049eb090191
:101ec80010eb080041eb09014b0143ead0634201e2
:101ed800104619464ff47a72002334f019fa074471
:101ee800854a936943f090039361139b012505fa92
:101ef80003f1824c129a04ebc2129160dbb243f0f8
:101f0800e003d3627e4bc3f824514ff414721a6273
:101f1800022035f0dbf8ddf84ca0129e05fa0af530
:101f280004ebc6146561256925fa0af505f0010573
:101f3800744b10229a72df611a46136913f0400f2e
:101f4800fbd1714a00234046494634f0e1f9044682
:101f580006f14102019000975346d2b26b49002026
:101f68002cf070fb674bda88a3f54043186ad3f866
:101f78002461129bd90101f1824101f50041c96a2e
:101f880004914133dbb2039302960123019300903d
:101f980000235f4918462cf055fb31f0cbfa064672
:101fa80004f59674574f4ff0020800bf31f0c2fa9b
:101fb800801b844240f22283bb7a13f0100f40f05a
:101fc8001083404635f082f8f0e752492cf03afb8e
:101fd800fff7a0bbb26850492cf034fbfff79abb5f
:101fe800022d00f3a180824626f086fd002800f02d
:101ff800a2804a4b1b68002b44d1494b4122c3f8ad
:1020080020211a46d2f8203113f0400ffad03a4b6b
:102018001a6a42f080021a629a6942f080029a6152
:10202800404b01221a801a46136b13f0010ffbd1a3
:102038004ff080131b68da0002f4e062190901f01e
:1020480070010a43c3f382031a43364ba3f84820ae
:102058004ff480621a800022da800821d9720321a5
:10206800197241f61a0199809a7202229a7040f206
:1020780002421a801a46136b13f0020ffbd1274b4a
:1020880001221a60baf1000fd8bf4ff0050a254b9c
:10209800012283f82e2002221a7531f04bfa0446e9
:1020a800204d012631f046fa001b632849d895f8df
:1020b8002e3013f0010f44d1304635f007f8f1e720
:1020c80000ca9a3b00000000ffe0f5050000000090
:1020d800c80a000000508ef4400b0000002847faa0
:1020e800fc0b00003c0c0000800c0000d80b00002a
:1020f80000ca9a3b009435770008004000800041f0
:1021080000e0004100a0014140420f00280d0000fe
:102118006c0d0000dc0c0000080d00004843012095
:10212800001c0040001c00430a220021b06837f060
:1021380063f9824658e7ac4900202cf083fafff790
:10214800e9baaa4b93f82e1001f00101b3f8403018
:10215800a748a84a002918bf0246a74900202cf022
:1021680071faa64b0220c3f8fc014ff414729a626c
:1021780034f0acffbaf1000f3eddc846cb46002371
:1021880006939a4d9e4c15e0a37a13f0100f18bfd2
:1021980009f1010995f82e3013f0010f06d00bf163
:1021a800010bb5f840309bb2069300bf08f1010857
:1021b800d04524d031f038f800f5ea2000f5407019
:1021c800012385f82e301023a372e061236913f0f0
:1021d800400ffbd131f0aef90746012631f0aaf9dc
:1021e800c01b6328d0d895f82e3013f0010fcbd13f
:1021f800304634f06bfff1e7cb46002306937f4c63
:10220800a36ad4f8fc21794989780391029237228c
:102218000192009301234a467a4900202cf012fad1
:102228000023c4f8fc31784b784ada4518bf1346c6
:102238000193069b00935b465246754900202cf09b
:1022480001fa744900202cf0fdf9fff763ba26f073
:1022580053fc70b10123129311231393022d2add2d
:10226800341d043e06eb85054ff001086a4fc14650
:102278000de06a492cf0e6f9fff74cba13aa12a947
:1022880030462ff0e3fc00e08046a5420fd054f81a
:10229800046f3946304636f0b7fe0028f4d060495e
:1022a800304636f0b1fe0028e8d1c846ede7b8f16f
:1022b800000f00f081805b4a936943f090039361bb
:1022c800139b012404fa03f1574d129a05ebc2122d
:1022d8009160dbb243f0e003d362484bc3f824417a
:1022e8004ff414721a62022034f0f0fe139b9c40e3
:1022f800129b05ebc3156c612ef096f906460f4646
:1023080030f092ff044634a3d3e90023304639461f
:1023180033f0feff4549891a0a9163eb43010b919b
:102328002fa1d1e90001dde90a56b14208bfa84250
:1023380005d33f498a1a0a9263eb43030b93304d46
:102348001023ab72dde90a67b01947eb0701801962
:102358003b4641eb03035b0143ead063420110466d
:1023680019464ff47a72002333f0d2ff2044e86113
:102378002b461d6915f04005fbd12e4b01221a6032
:102388001f4b10225a72129a4132139bd2b22a4919
:1023980000202cf057f9129bdb0103f1824303f56f
:1023a80000431e69139bde4006f0010631f0c2f8b7
:1023b8000746dff8748052e000201e4b1860104b6f
:1023c80010221a72a3f54043c3f824011b492cf0cc
:1023d80039f9fff79fb900bf00ca9a3b0000000017
:1023e800ffe0f505000000003c0e0000001c004363
:1023f800d0040000d4040000500e000000e00041aa
:1024080000a00141800e0000dc040000340300003d
:10241800d40e0000240f0000780f0000dc0c000030
:102428007c0f0000000800400080004100ca9a3b71
:10243800009435774c4301208c0f0000800f00007a
:10244800129b08ebc3131c69139bdc4004f00104c6
:10245800b44218bf0135142034f038fe264631f056
:1024680069f8c01b40f6c3139842e9d9b64ab74b7e
:10247800012d88bf13462a46b54900202cf0e2f802
:10248800129a4132139bd2b2b24900202cf0daf8ea
:10249800fff740b9b04ab14900202cf0d3f8b04951
:1024a80000202cf0cff8af4aaf4900202cf0caf832
:1024b80015f00c0f3a460cbfac49ad4900202cf082
:1024c800c1f8fff727b933f0dbfe04460246a949f5
:1024d80000202cf0b7f8002c3ff4a9a90422012110
:1024e800084623f0b5fd04460d46a34a54ea050301
:1024f80040f0b280a14900202cf0a4f8fff70ab9f7
:102508004fea49124fea481342ead865b3eb080389
:1025180065eb0905aa0042ea9372990011eb0806d7
:1025280042eb0905eb0043ea5673f20016461d46d6
:10253800cdf80480cdf8009042464b4690490020e3
:102548002cf080f88f4a16233046294633f0e0fef7
:1025580080468946602200233046294633f0d8fe5b
:1025680075a3d3e9002333f0d3fecde90023424617
:102578004b46854900202cf065f82246834bfff72f
:10258800e9ba4246824900202cf05cf86aa3d3e9f4
:1025980000232846514633f0bbfe8046894666a391
:1025a800d3e900232846514633f0b2fecde9002393
:1025b80042464b46774900202cf044f80294039792
:1025c8000096cdf804b000220023734900202cf0b7
:1025d80039f8724b069a724900202cf033f8fff74d
:1025e80099b8129bdb0103f1824303f500431c6990
:1025f800139bdc4004f001046a4a0be0129bdb01e8
:1026080003f1824303f500431c69139bdc4004f08b
:102618000104654a654900202cf014f8129a4132e9
:10262800634b6449a54208bf0b4602930194009589
:10263800139bd2b2604900202cf004f8129a413260
:10264800139bd2b25d4900202bf0fcff5c4b0022ab
:10265800c3f82421fff75eb8ff235a4900202bf066
:10266800f1ff594a00232046294633f051fe064619
:10267800554a00232046294633f04afe104619469b
:102688004ff47a72002333f043fe0090334622461b
:102698004e4900202bf0d6ff4d4900202bf0d2ffe9
:1026a8004c4be318069345f1ff3307934a4a00233e
:1026b800dde906018b4208bf8242484a334b38bfe6
:1026c8001a46474900202bf0bdfffff723b83e4ac2
:1026d800002333f01dfe0646424b01933a4a00237d
:1026e8002046294633f014fe104619464ff47a72f4
:1026f800002333f00dfe0090334622463a4900206d
:102708002bf0a0ff394be3180e9345f1ff330f93dd
:102718000ba3d3e90023dde90e018b4208bf8242f7
:10272800334a1a4b38bf1a462d4900202bf08aff2e
:10273800fef7f0bfaff3008000ca9a3b000000002c
:10274800fe117a0000000000f80400001c050000db
:10275800d40f00000c100000a0140000a814000002
:10276800bc140000980200008c050000ac050000b5
:1027780010060000dc140000c8020000b4060000c7
:10278800fc08000000c00b5a2809000034030000b0
:10279800f8090000140a00004c0a00000c040000ac
:1027a800900a00006c0400005c040000c00d0000ea
:1027b80070040000a4040000d40d0000f80d00000f
:1027c80000e000410c15000040420f002c150000ed
:1027d800541500003f2758ff7e841e003c0300006c
:1027e80024070000e8150000bc150000ff58cbf4d2
:0427f800700300006a
:020000040000fa
:1027fc002de9f04f8db00f210a2034f04dfb0290e3
:10280c0010f0010f40f05d85029b13f0020f40f0b9
:10281c007c850db0bde8f08fd9f8187007f1100267
:10282c00059213f4007f21d1fb6809933b690a934d
:10283c0000228df82c2006238df82d30330a43ea24
:10284c000623adf82e300c2109a82cf0d9f9c04381
:10285c0083b2d9f8202012f0040f30d03246414612
:10286c0048462af00bf9002840f09a8640462cf096
:10287c0079ff98f80ca04fea1a1a4fea8a030493ce
:10288c00d9f81ca0baf80220002a00f08c86fd8929
:10289c00bb891d44baf800301d445540adb2c74b3e
:1028ac00d3f800c0bcf1000f00f08086d9f828e006
:1028bc00c34b1b68039300239b4610460ee01a463d
:1028cc00314640462cf09cf9cde7b4f87220824298
:1028dc002fd001331bb21c469c452fd9039a52f8ba
:1028ec002440002cf5d094f876200b2af1d094f8e3
:1028fc0077100129edd8a16c09b18e45e9d1002ad8
:10290c00e3d0b4f87220aa42e3d1daf80010226eb8
:10291c009142ded1216cfa689142dad1012184f81e
:10292c007710c4f848e0059a204632f0f0fda34633
:10293c0022e0bbf1000f08bfa346cae7bbf1000fb2
:10294c0000f08380fb68cbf8403001218bf87710c6
:10295c00cbf848e0059a584632f0d9fdabf87250e6
:10296c00baf80030abf86030baf80230abf862302d
:10297c00dbf80030cbf81030d9f81020938904998b
:10298c005b1a938198f80d40d8f80870d8f8045069
:10299c009bf83f3013f0400f5bd19bf875306ff311
:1029ac0000038bf875309bf87630002b69d0012b27
:1029bc0000f09e801436049aa6eb020a1ffa8afadb
:1029cc00aaf1140292b2059214f0010206921abff7
:1029dc00aaf1130a1ffa8af2059a039214f0020f55
:1029ec0003d0039a013292b20392dbf81c60dbf83d
:1029fc0020209642c0f0aa80dbf81810dbf81400f7
:102a0c00091aa6eb020aa1eb0a0a1ffa8af204922f
:102a1c00dbf85820a5eb020a039a002a00f0a980e3
:102a2c00049a002a00f0a080baf1000fc0f2968040
:102a3c009245c0f0a780039a04998a1a8a45c0f27d
:102a4c00a180924540f39e808ee06ff00e0100f065
:102a5c0034bc00238bf879309bf83e3013f0020f16
:102a6c009bd134f0cdfabbf87020564b1b6803fb9e
:102a7c0002f3554aa2fb032300eb9310cbf824007e
:102a8c008be714f0040f1ad114f0100f1dd114f0b1
:102a9c00020f27d00135cbf85850404624f0fafeef
:102aac00abf86a00584631f011fc0122122158464d
:102abc0005f024ff02238bf876300026e6e3002194
:102acc0058461bf0d3fd0026e0e3cbf854700022ef
:102adc000421584605f012ff002158461bf0c6fd94
:102aec000026d3e3002158461bf0c0fd0026cde3a1
:102afc0014f0040f40f0c98314f0100f00f0a085ff
:102b0c00dbf85460b74205d114f0020f40f0558544
:102b1c000026bbe3cbf8547001220421584605f083
:102b2c00edfecbf854600026b0e334f069fabbf844
:102b3c007020244b1b6803fb02f3234aa2fb0323e4
:102b4c0000eb9313cbf8243000f056bda2eb060a31
:102b5c000af1ff3a1ffa8af2049259e703990a46de
:102b6c00514400293ff768af14f0040f1fd0002622
:102b7c008ce3baf1000f05d0baf1000ff4db049a24
:102b8c009245f1da14f0060f20d114f0100f00f07a
:102b9c009083023b072b00f2cc81dfe813f0290075
:102bac003e003e003e003e00ca013e00bd01012237
:102bbc001021584605f0a2fe002667e3dc410120f7
:102bcc00d8410120e0410120d34d621014f0040fd4
:102bdc0008d09bf83f3043f002038bf83f304ff4a2
:102bec00006600e00026002158461bf03ffd4de337
:102bfc00dbf85460b74205d103238bf876304ff4e1
:102c0c0080760be0cbf8547001220421584605f075
:102c1c0075fecbf85460002638e30026dbf8101064
:102c2c00dbf808305a1a13d4dbf854003b1a9b1a01
:102c3c00002b1dddbbf8742002f40172042a01d1b3
:102c4c00012b0cd000221021584605f057fe1de335
:102c5c00dbf80430dbf800001b1a1a44e4e70130ff
:102c6c00cbf854009bf8753043f002038bf87530a9
:102c7c00dbf85430dbf80c20881a914249d2dbf88f
:102c8c000420dbf80010521afb1a0344d3180793e4
:102c9c00002b07dddbf80430dbf800209b1a079ac9
:102cac009a4246d9dbf83830002b40f0a280dbf892
:102cbc000c20dbf808309a4200f0d980b8f80e30be
:102ccc00bbf86e209a4238bfabf86e30dbf854205c
:102cdc00b8f80e303b449b1a9bb2bbf8641031b968
:102cec002bb19bf83e1041f040018bf83e10abf835
:102cfc0064309bf87630042b00f0f080062b40f00b
:102d0c001981974240f0c282002158461bf0aefc5c
:102d1c00bce2fb1a03440793002b07dddbf80430fd
:102d2c00dbf800001b1a0798984202d99142bed0da
:102d3c00b8e740f2dc53cbf8343034f061f9dbf80f
:102d4c003420c44b1b6803fb02f3c34aa2fb0323ce
:102d5c0000eb9313cbf838309bf83e306ff34513f0
:102d6c008bf83e30dbf80c10079b0b44cbf80c3087
:102d7c00dbf8102091420ed893421cd99a1adbf83a
:102d8c0054100a44cbf85420cbf81030dbf8042054
:102d9c00934224d313e0dbf80410dbf80000091a8b
:102dac000a44934207d99a1adbf854100a44cbf818
:102dbc005420cbf81030dbf80420934205d3dbf819
:102dcc000010511a5b1acbf80c30dbf81030934220
:102ddc0005d3dbf80010521a9a1acbf810209bf886
:102dec007630032b02d0082b7ff461af46f004063b
:102dfc005de734f005f9dbf83830c31a002bfff629
:102e0c0056afdbf834305b00b3f57a4f28bf4ff484
:102e1c007a43cbf8343034f0f3f8dbf834208d4bb4
:102e2c001b6803fb02f38c4aa2fb032300eb9313f6
:102e3c00cbf83830dbf81010dbf80c20881adbf8f4
:102e4c0054301b1acbf85430914207d2dbf80410e3
:102e5c00dbf80000091a5b1acbf85430cbf81020c1
:102e6c009bf83e3043f080038bf83e301fe79bf815
:102e7c003f3013f0010f19d113f0400f06d19bf81e
:102e8c003e306ff341038bf83e3017e734f0b8f85f
:102e9c00bbf870206f4b1b6803fb02f34ff47a7284
:102eac00b3fbf2f30344cbf82430e8e7dbf85430ff
:102ebc009f427ff403af9bf8743013f0040f3ff480
:102ecc00fdae9bf83e306ff341038bf83e309bf820
:102edc003f306ff300038bf83f30efe6974203d09f
:102eec0014f0200f35d0d1e19bf8743013f0040f9f
:102efc00f6d034f085f8574b1a6841f2883303fb4f
:102f0c0002f34ff47a72b3fbf2f30344cbf8303094
:102f1c0005238bf87630e3e7dbf8543001339f421e
:102f2c0001d00026b2e1002158461bf09ffb002681
:102f3c00ace1002614f0200f40f0a8819bf876201d
:102f4c00a2f10803dbb2012b40f2a081062a00f0ab
:102f5c009d81059a002a3fd0baf1000f7edd059bba
:102f6c005344049a934203dda2eb0a039bb20593ec
:102f7c0098f80c301b0908eb83030893dbf81c1042
:102f8c00dbf81830059a52440a44934280f0f480de
:102f9c005a1a0132b2eb0a0200f1df801ffa82f8f2
:102fac0001240094434608a80246514448462af09e
:102fbc00adfe0490059aa2eb080300949bb208aafc
:102fcc00dbf8141048462af0a1fe049b034498b287
:102fdc00059b834200f0d980039bcbb19bf87630e4
:102fec00033bdbb2022b84bfdbf81c30cbf8203068
:102ffc009bf83e3013f0100f40f0fa809bf83e30f7
:10300c0043f010038bf83e3013f0080f00f0f680fd
:10301c00069b002b00f03a81dbf858300133039a01
:10302c002a44934240f03281cbf8583046f4806603
:10303c009bf83f3043f004038bf83f309bf876301d
:10304c00023b032b00f20781dfe813f0ec00f500e4
:10305c00fe001501e0410120d34d621098f80c30b0
:10306c001b09caeb830343440893524493b2049a5a
:10307c009a4228bf1a469246dbf81c10dbf818302f
:10308c008a18934259d25b1a01330493bdf810800d
:10309c0001240094434608aa48462af037fe0590be
:1030ac00aaeb080300949bb208aadbf8141048465c
:1030bc002af02cfe059a024490b2049baaeb03035f
:1030cc00dbf814201344504586d1dbf858105144da
:1030dc00cbf85810cbf81c309bf87620033ad2b2c0
:1030ec00022a98bf46f40076dbf85c20b2f1ff3f71
:1030fc003ff472afa2eb0a0acbf85ca0bbf86820d5
:10310c0012eb0a0224d4baf1000f3ff765af114459
:10311c00cbf858101344cbf81c30dbf81820934232
:10312c0006d9dbf81410521ad2431344cbf81c30d6
:10313c004ff0ff33cbf85c304ee70123009353463e
:10314c0008aa48462af0e2fddbf81c305344bae7e3
:10315c004ff0ff33cbf85c303ee70af1ff30dbf881
:10316c0014209b1ac01a01230093059b08aa014442
:10317c0048462af0cbfd2be701230093059b08aab8
:10318c00514448462af0c2fd22e7dbf85c30b3f12b
:10319c00ff3f15d09a4519d2059a02eb0a01bbf8ec
:1031ac006820d018814205d88b4203d8a0eb0a03c3
:1031bc009bb20593059babf86830cbf85ca00be792
:1031cc00cbf85ca0059babf8683005e7bbf8682032
:1031dc001a4405980146514491427ff6fdae924542
:1031ec003ff6faaeaaeb03031844abf86800f3e61b
:1031fc0001221021584605f081fb09e7dbb243f0b0
:10320c0008038bf83e3033f0fbfeb14b1a68642395
:10321c0003fb02f34ff47a72b3fbf2f30344cbf8e3
:10322c002c30f5e609238bf8763001221121584613
:10323c0005f064fb2ae008238bf876309bf8753098
:10324c0013f0010f07d021e0dbf854309f4208d077
:10325c0006238bf8763001221021584605f04efbe0
:10326c0014e000221021584605f048fb0021584676
:10327c001bf0fcf90ae000221021584605f03efb39
:10328c00002158461bf0f2f900e00026bbf87a202a
:10329c00324000f08e81dbf87c40002c00f08b81fa
:1032ac00dbf88030d9f82810bbf93c00a04702218c
:1032bc0003e00026eae76ff00d010a22484632f0df
:1032cc00fdfd0a2035f02afd814600283ff49caa1a
:1032dc00b9f82c60132eeed9d9f81c8098f80c3064
:1032ec001b09042b0bd9b6eb830f0bdbd9f8203061
:1032fc0013f400343ff490aa6ff00e01dde76ff089
:10330c000d01dae76ff00d01d7e7724b1b68002b4c
:10331c003ff47faa00252b46dff8bc91dff8bca157
:10332c00dff8b081e6e033f06bfea36ac01a002828
:10333c00a8bf1026f4e033f063fee36ac01a00283d
:10334c00c0f2f48094f87630052b00f08a811026b8
:10335c0087f001023146204605f0d0faeee033f05a
:10336c004ffe236bc01a0028c0f2e5800122142105
:10337c00204605f0c3fa002120461bf077f9b1e096
:10338c0094f83e6006f001060121204625f0bbfeb4
:10339c0094f83e3043f0010384f83e304ff48052f1
:1033ac00002120462ef0f6fc002e40f09b8094f875
:1033bc003e306ff3000384f83e300a2384f87630f5
:1033cc0090e033f01dfe636ac01a0028c0f28a80b8
:1033dc0094f876104b1e082b00f28280dfe803f085
:1033ec000541556080688080700094f87830032b1c
:1033fc0040f22b81042384f87830354b1a684ff453
:10340c007a7303fb02f3aafb03239b091b012365bd
:10341c000221002694f87830013384f87830236d3b
:10342c005b0023652069e268831a9bb2904204d248
:10343c0060682768c01b03449bb2606dc01a60654e
:10344c00b4f864000344a4f86430226100222046de
:10345c0005f054fa002e45d0002120461bf006f949
:10346c0040e094f87830022b40f2f18094f83e6002
:10347c0006f001031e46002b18bf1421002fc9d1e2
:10348c000122204605f03afae4e794f87830042b50
:10349c0040f2df80042384f8763011210026ede71a
:1034ac0094f87830042b40f2d68014210126e5e7fd
:1034bc0094f87830042b40f2d08014210126dde7fb
:1034cc0094f87830042b40f2ca8014210126d5e7f9
:1034dc00e0410120dc410120d8410120d34d621094
:1034ec00002e5ad101352db22b46d8f8002095422a
:1034fc00bff48fa9d9f8002052f82340002cf1d04a
:10350c0094f876300b2bedd094f83e3013f0c006c7
:10351c001abfdf091026002713f0040f7ff403af46
:10352c0094f83e3013f0080f7ff405af94f8763022
:10353c00052b3ff414af002e7ff40aaf94f83e3005
:10354c0013f0020f7ff43daf94f83f3013f0400faf
:10355c00c8d094f87630032bc4d133f051fd636a94
:10356c00c01a0028bedb94f8792094f884309a4273
:10357c003ff406af02221021204605f0bff933f0cc
:10358c003ffdb4f870203b4b1b6803fb02f3aafb16
:10359c00032300eb93106062a4e7314600266de72d
:1035ac006ff0090189e66ff00e0186e66ff00e01ef
:1035bc0083e6022181e602217fe60135cbf85850e3
:1035cc00b8f80e30abf86e30abf86430404624f0ef
:1035dc0061f9abf86a00584630f078fe01221021f0
:1035ec00584605f08bf903238bf876309bf83f3067
:1035fc0013f0400f7ff499aa9bf83e306ff3410310
:10360c008bf83e304ff4807640e60135cbf85850bd
:10361c00b8f80e30abf86e30abf86430404624f09e
:10362c0039f9abf86a00584630f050fe01221221ed
:10363c00584605f063f902238bf87630002625e610
:10364c0014f0020fe1d1002620e60221e1e612215e
:10365c00dfe61021dde61121dbe61021d9e6112190
:10366c00d7e633f0cdfc236bc01a0028bff67eae34
:08367c0010266de6e04101207b
:020000040000fa
:103684002de9f04f2ded028b9bb00f21212033f05b
:1036940007fc002800f007877d4b1b68002b40f3d4
:1036a40002877c4c0026dff820929fed7b8ab9e3e9
:1036b400d4f8c4305d6894f8d1202ab3227c012a5e
:1036c40042d0022a61d1b4f93830b3f1ff3f25d09a
:1036d4000023724a4ff40071b4f9380032f08ffebf
:1036e400d4f8bc200221b4f938001df055fc30b9df
:1036f400d4f8c4301b681b686949284698470621da
:1037040020462ef055f986e31b681b686549284658
:103714009847012120462ef04bf97ce304f1800206
:10372400618a012025f098fe2087b0f1ff3fcfd1b8
:10373400d4f8c4301b681b685b49284698470121ac
:1037440020462ef035f966e304f18002618a0120f7
:1037540036f007faa087b0f1ff3f0ad00023534a9e
:103764004ff4807133f076f8032120462ef020f9cf
:1037740051e3d4f8c4301b681b684d492846984768
:10378400012120462ef014f945e31b681b684949c2
:1037940028469847012120462ef00af93be3d4f845
:1037a400c430d3f804b03b4be31adb1003ebc30281
:1037b40003eb4203c3eb432303eb8343c3f1000a4c
:1037c40097e0d4f8c4301b681b683b4958469847b7
:1037d400042120462ef0ecf81de3b4f93c0034f04b
:1037e4001af818e30133c4f89430284634f024f866
:1037f40002460b46d4e9080112f019fbc4e908019a
:10380400002f19dba36ae26a511c8b4231d0934228
:1038140020dc616b01f1010161632cd020e0d4f85c
:10382400c4301b685b68254958469847236b013ba5
:10383400a26a1344236391e07f42a76233f0e4fb5e
:10384400c4f88c00002384f8cc30042120462ef0e8
:10385400aff8d7e75b1a226b13442363a36ae362ce
:103864000c3dadb2002d44d0dff858804ff4c8674a
:1038740036e0934206d1d4f8c4301b681b68104963
:1038840058469847a36ae26a9342e9dde7e700bf36
:10389400c04101208034012000007a44618f03007c
:1038a40008f80000c0f70000e4f700004b8f0300a5
:1038b40030f8000054f800006cf800008cf80000a8
:1038c400b8f8000018fc0020643e01203a46414646
:1038d400b4f93c0021f0a4f8a5f5c865adb245b132
:1038e400b5f5c86ff2d22a46d149b4f93c0021f0ab
:1038f40097f8b4f93c0033f023fb05460b2878d93c
:103904000c224946b4f93c0021f08af80c287ff4d3
:1039140058afd9f800301f0e47ea03671a0202f4c1
:103924007f0217431b0a03f47f431f43a762d4f8a3
:103934009430002b7ff456af002ffff64eaf0123d7
:10394400c4f89430d4f8c4301b685b685246b94953
:1039540058469847a26a002a7ff461afa36ae362db
:1039640005a9b4f93c001ff081fdb4f93c0035f021
:1039740023fe34f0cdfa069dd4f8c4301b68628a65
:103984000292020e0192c0f3074200925f68c0f3f4
:103994000723c2b2a8495846b847d4f8c4301b68b4
:1039a400bdf8582002922a0e0192c5f307420092f4
:1039b4005f68c5f30723eab2a0495846b84765646f
:1039c400bdf85830a4f8643033f01efbc4f8880006
:1039d400c4f8a800a36ac4f89c30d4f89430c4f89e
:1039e4009830236bc4f8a030b4f93c0033f013ffd3
:1039f4007fe7d4f894304bb994f8cf30012b40f0e2
:103a04000a82042120462df0d3ff04e233f0fcfaad
:103a1400d4f8a830c31a22689342edd9d4f894207c
:103a2400d4f898309a4212d1d4f8c4301b681b6879
:103a340083495846984733f0e7fac4f88c000023ca
:103a440084f8cc30042120462df0b2ffd4e70021c5
:103a5400204611f0d9f9cfe7b4f93c0033f070fafd
:103a640038b994f8cf304bb1092120462df0a0ff8e
:103a7400d1e1b4f93c0033f0cefecce1052120467f
:103a84002df096ffc7e194f8cd30002b00f0bd80f7
:103a9400b4f93c0033f054fa002840f0be8094f8a6
:103aa400cc305a1c84f8cc200a2b00f2bb80802135
:103ab400b4f93c0036f0e6f8002800f0ac81e36a83
:103ac4005b421a0e42ea0362190201f47f010a43bf
:103ad4001b0a03f47f431343c9f800300025c9f8d7
:103ae4000450c9f808508023c9f80c30c9f81050a4
:103af400d4e9080133f0d2fd020e42ea0062030267
:103b040003f47f031a43030a03f47f431343c9f8fe
:103b1400143033f08dfad4f88c10d4f88830c91ae4
:103b2400b1fbf0f31a0e42ea03621f0207f47f07a7
:103b34003a431f0a07f47f473a43c9f8182000fba9
:103b4400131307ee103ab8ee477a27ee087a07ee19
:103b5400900af8ee676ac7ee267a67ee887afcee7a
:103b6400e77a17ee903a1a0e42ea0362190201f458
:103b74007f010a431b0a03f47f431343c9f81c3033
:103b8400236b1a0e42ea0362190201f47f010a430d
:103b94001b0a03f47f431343c9f82030636b1a0ee6
:103ba40042ea0362190201f47f010a431b0a03f487
:103bb4007f431343c9f82430e36a1a0e42ea0362ce
:103bc400190201f47f010a431b0a03f47f431343e0
:103bd400c9f82830c9f82c50c9f830503422494665
:103be400b4f93c002ef0bcff4c273a46294605a800
:103bf40035f0d2fb3a4605a9b4f93c002ef0b0ffeb
:103c0400b4f93c0011f0f2ff05e10221204611f065
:103c1400fbf8012384f8cd303ae7b4f93c0033f0e3
:103c2400fafdf8e0092120462df0c2fef3e000bfc2
:103c340018fc0020f0f80000bc1c0200f01c02007c
:103c4400d8f8000094f8cf30012b26d0b4f938000e
:103c540033f015fb002800f0de803822002105a88f
:103c640035f09afb05a9b4f9380029f036fe04f1c1
:103c7400400705ad0fcd0fc70fcd0fc70fcd0fc731
:103c840095e8030087e80300072120462df090fe05
:103c9400b4f9380032f0f7febde0092120462df0da
:103ca40087feb8e0d4f8c4305f68b4f9380035f062
:103cb400dcfb0546002865d0a36a002b49d1bd4b27
:103cc400e31adb1003ebc30203eb4203c3eb43230e
:103cd40003eb8343d4f8c4201268d2f804805a4218
:103ce400b5493846c04733f08ff9c4f88800c4f8a2
:103cf400a800a36ac4f89c30b4f9380035f03cfc41
:103d040034f006f9d4f8c4301b68628a0292020eb9
:103d14000192c0f307420092d3f80480c0f3072352
:103d2400c2b2a6493846c047d4f8c4301b68b4f8b8
:103d34006420029294f84720019294f8462000925d
:103d4400d3f8048094f8453094f844209c493846cc
:103d5400c047a36a0133a362d4f894200132c4f8a3
:103d64009420e362284633f067fd02460b46d4e90b
:103d7400080112f05cf8c4e90801dff848824ff446
:103d8400c8671ce0b4f9380032f07dfe20b9b4f9fc
:103d9400380035f0eef8d8b133f036f9c4f88c00b9
:103da400082120462df004fe35e03a464146b4f998
:103db400380021f0e9fea5f5c865adb245b1b5f509
:103dc400c86ff2d22a467f49b4f9380021f0dcfeec
:103dd400a36a63b994f8cf30012b1cd10821204683
:103de4002df0e6fd33f010f9c4f88c0013e033f045
:103df4000bf9d4f8a830c31a22689342ead90021f7
:103e0400204611f001f8e5e794f8cd30c3b3092159
:103e140020462df0cdfd0136d8346b4b1b68b342e0
:103e240040f3418394f8ce30012bf4d0023b102ba5
:103e340000f2348301a252f823f000bfb53600002b
:103e4400a33700005d3a00008b3a0000493c0000b3
:103e5400a93c00000d3e0000953e0000313f0000eb
:103e64005d3f00009f410000854200008b4300003d
:103e74007b4400005d400000eb43000091440000df
:103e84000221204610f0c0ff012384f8cd30bee7a4
:103e9400d4f8c4305f68237c012b29d0022b2cd0aa
:103ea400444be31adb1003ebc30203eb4203c3eb03
:103eb400432303eb83435d42d4f8c4301b685b683f
:103ec4002a4642493846984720462ef083fc94f807
:103ed400d130012b19d0d4f8c4301b685b682a4652
:103ee4003b4938469847012120462df061fd92e771
:103ef400b4f93c002ff0e4f8d2e7b4f9380030f01c
:103f040029fc4ff6ff732387cae794f8cf30002bc0
:103f1400e1d1d4f8c4301b685b682a462d49384681
:103f24009847022120462df043fd74e7d4f8c800d9
:103f340034f08dfc032808d10b2120462df038fde8
:103f440033f062f8c4f8ac0065e704f14401d4f836
:103f5400c8002ff088faefe7d4f8c4305d6894f80d
:103f6400cf20012a17d0d4f8c80034f070fc0328fd
:103f74001bd094f8443003f0f003e02b2ed1237cc3
:103f8400012b64d0237c022b7ff445af0c21204607
:103f94002df00efd3fe71b681b680f492846984724
:103fa400012120462df004fd35e70022a267a4f884
:103fb4007c20e4e780340120f0f80000bc1c0200ff
:103fc400f01c020018fc0020c04101201cf9000074
:103fd40080f900004cf90000a0f9000004f1780217
:103fe40004f14401d4f8c80027f012f9b8b1d4f8a8
:103ff400c4301b6894f87d20039294f87c200292cc
:1040040094f87b20019294f87a2000925f6894f8e7
:10401400793094f87820c0492846b847afe732f0a1
:10402400f3ffd4f8ac30c71a33f002f800eb800089
:1040340087427ff6f0aed4f8c4301b681b68b749da
:104044002846984732f0e0ffc4f8ac00e3e61021bc
:1040540020462df0adfc95e7d4f8c4305d6804f13a
:104064004402618a012035f081fda087b0f1ff3f51
:1040740000f087800023aa4a4ff4807132f0eafbf3
:10408400e2680521b4f93c000af0cafa30b9d4f860
:10409400c4301b681b68a34928469847022206219e
:1040a400b4f93c000af0bcfa30b9d4f8c4301b6847
:1040b4001b689d4928469847d4f8c810b4f93c00b9
:1040c4002cf071f805a9b4f93c001ff0cff9bdf844
:1040d4005a30a4f87e30d4f8c4301b681b68934966
:1040e40028469847d4f8c4301b68628a029294f830
:1040f4004720019294f8462000925f6894f8453076
:1041040094f844208a492846b847112120462df0c6
:104114004ffc32f079ffc4f8880031f0f3ff054614
:104124000f4635f0cffb79016b0141ead5625b1b89
:1041340062eb0702510241ead3514fea432c0a468b
:104144001ceb050347eb0202910141ea93614fea3c
:10415400831cbceb030c61eb0201024600231ceb45
:10416400050047eb010132f0d5f8d4f88430184447
:10417400c4f890004ff4c86255216e4835f00cf92c
:1041840049e6d4f8c4301b681b686b492846984735
:10419400012120462df00cfc3de6d4f8c4305d68c6
:1041a4000022618a012034f011fb6087b0f1ff3fe7
:1041b40051d00023614a4ff4007132f020f9d4f851
:1041c4008030002b53d104f1440300220121b4f9bf
:1041d4003a002df00cfe4ff48063a4f87e30d4f83e
:1041e400c4301b681b68514928469847d4f8c4302a
:1041f4001b68628a029294f84720019294f8462040
:1042040000925f6894f8453094f844204c4928465d
:10421400b8470d2120462df0cbfbd4f8b82003215c
:10422400b4f93a001cf0b8fe30b9d4f8c4301b68b5
:104234001b683c4928469847b4f93a0032f0c8f85c
:1042440032f0e2fec4f8ac004ff4c862542139489d
:1042540035f0a2f8dfe5d4f8c4301b681b6839498f
:1042640028469847012120462df0a2fbd3e504f10e
:104274008003628a0121b4f93a0022f0d5faa2e758
:1042840094f8cf30012b42d0d4f8c4305f68b4f92d
:104294003a0032f0f4ff002856d0b4f93a0032f074
:1042a400f2fb32f0b1fec4f8880031f02bff054672
:1042b4000f4635f007fb79016b0141ead5625b1bc0
:1042c40062eb0702510241ead3514fea432c0a46fa
:1042d4001ceb050347eb0202910141ea93614feaab
:1042e400831cbceb030c61eb0201024600231cebb4
:1042f400050047eb010132f00df8d4f8843018447e
:10430400c4f890000e2120462df052fb83e50f21c6
:1043140020462df04dfb7ee500fa0000c0f90000b8
:104324004b8f03002cfa000054fa0000fc740100c7
:104334007cfa000018fc002030f80000618f0300b4
:10434400b4fa0000e4f7000032f05efed4f8ac30ba
:10435400c51a32f06dfe00eb800085427ff65bad3e
:10436400b4f93a0030f0f6f94ff6ff736387d4f8e6
:10437400c4301b681b684e49384698470f212046b5
:104384002df016fb47e5204608f0d6f901280bd09e
:1043940002287ff440ad0f2120462df009fb32f0b6
:1043a40033fec4f88c0036e5424f00bfb4f8b05079
:1043b4008db1b5f5c86f28bf4ff4c8652a46394694
:1043c400b4f93a0018f092fab4f8b0301b1aa4f811
:1043d400b0308542ead9b4f93a0032f063ff20469e
:1043e40015f01af817e5227d0b21b4f93c000af008
:1043f40017f9204608f0a0f901280bd002287ff411
:104404000aad122120462df0d3fa32f0fdfdc4f896
:104414008c0000e5b4f8b05015b30027dff894a081
:10442400a846b5f5c86f28bf4ff4c8684246514640
:10443400b4f93c002ef094fb0744bfb22d1aadb280
:10444400804501d1002debd1b4f93c0011f0cefb35
:1044540040b900221146b4f93c002ff079ffdae4a8
:104464002f46f1e7b4f8b030df1ba4f8b070204653
:1044740014f0d2ffcfe420462af038f8b4f93a0019
:1044840030f068f94ff6ff736387c4e420462af0de
:104494002df8b4f93c002ef013febce401212046b3
:1044a4002df086fab7e41bb0bdec028bbde8f08fab
:0844b400ecfa000018fc0020e6
:020000040000fa
:1044bc00903f01201c0000000000000028b10020eb
:1044cc00100d000000000000ac8c00200400000067
:1044dc0000000000e45e0020c82d00000000000079
:1044ec00bc39012004000000000000006c3d0120dc
:1044fc0004000000000000002c31012040010000ed
:10450c00000000008f3f01200100000000000000af
:10451c000940012001000000000000005835012076
:10452c00c0000000000000001c400120040000003e
:10453c0000000000b4400120040000000000000056
:10454c00964301200200000000000000d813012057
:10455c0088050000000000009a43012002000000c2
:10456c000000000098080120a005000000000000d9
:10457c009e4301200200000000000000380e0120c4
:10458c00a005000000000000954301200100000080
:10459c000000000099430120010000000000000011
:1045ac00184101200c00000000000000a243012073
:1045bc0002000000000000009445012004000000ef
:1045cc000100000096000000ba4501200200000026
:1045dc000100000006030000b643012002000000a9
:1045ec0001000000010000009845012004000000bb
:1045fc0001000000dc0500009d43012001000000cb
:10460c000000000018360120b0000000000000007f
:10461c002441012008000000000000003826012081
:10462c0040020000000000002c4101200c000000a2
:10463c0000000000a4430120010000000000000065
:10464c00384101200400000000000000b8400120a7
:10465c000800000000000000a14301200100000040
:10466c0000000000a5430120020000000000000033
:10467c003c4101200400000000000000a743012081
:10468c000100000000000000404101200400000077
:10469c0000000000f03d01203c0000000000000084
:1046ac0000000020e45e00000000000044410120f6
:1046bc001c0000000000000038ca0020100a000096
:1046cc0000000000a84301200100000000000000d1
:1046dc00c0400120080000000000000060410120e3
:1046ec000400000000000000882101205802000096
:1046fc0000000000644101200800000000000000e0
:10470c0060190120d4020000000000009243012037
:10471c0002000000000000006c4101202400000099
:10472c00000000009c450120040000000100000076
:10473c00090000005a4501200200000001000000a1
:10474c00ffff00006e450120020000000100000088
:10475c00ffff000092450120020000000100000054
:10476c00ff070000b245012002000000010000001c
:10477c00ff0700009041012008000000000000002d
:10478c00343b01206c00000000000000a04301201d
:10479c000100000000000000b8430120d40000001c
:1047ac0001000000cc0e030000000000000000001f
:1047bc0000000000000000000000000000000000ed
:1047cc0000000000000000000000000000000000dd
:1047dc0000000000000000000000000000000000cd
:1047ec0000000000000000000000000000000000bd
:1047fc0000000000000000000000000000000000ad
:10480c00000000000000000000000000000000009c
:10481c00000000000000000000000000000000008c
:10482c00000000000000000000000000000000007c
:10483c00000000000000000000000000000000006c
:10484c00000000000000000000000000000000005c
:10485c00000000000000000000000000000000004c
:10486c00000000000000000000000000000000003c
:10487c000000000000000000bc4501200100000009
:10488c0001000000ff00000098410120040000001e
:10489c0000000000c0390120800000000000000072
:1048ac00e83c01204400000000000000a943012066
:1048bc0001000000000000009c41012004000000e9
:1048cc00000000000c40012010000000000000005f
:1048dc006c3201200c01000000000000a0410120fe
:1048ec000400000000000000204001201000000027
:1048fc0000000000a44101200400000000000000a2
:10490c00003c01205000000000000000b08c002092
:10491c0078240000000000009c43012001000000ee
:10492c0000000000a841012004000000000000006d
:10493c00c8360120a400000000000000c03a01208d
:10494c007400000000000000304001201000000046
:10495c0000000000c43e0120280000000000000000
:10496c000c3801209000000000000000984301204a
:10497c000100000000000000ac4101200400000018
:10498c0000000000ec3e01202400000000000000ac
:10499c00944301200100000000000000804501202c
:1049ac000c00000001000000f4010000d007000022
:1049bc000100000034450120260000000100000029
:1049cc0008000800020001000200080000060006b2
:1049dc000101540030303a30343a32353a30313a01
:1049ec0030323a30310000005c45012012000000ea
:1049fc000100000030303a30343a32353a30313a36
:104a0c0030323a30340000007045012010000000b4
:104a1c00010000000101000051070300913a03005e
:104a2c0000000100b0450120020000000100000060
:104a3c0000010000ac2a0120180200000000000058
:104a4c00a03c012048000000000000008c45012023
:104a5c000600000001000000ffffffffffff000049
:104a6c006040012018000000000000009c3801206c
:104a7c009000000000000000b04101200c0000007c
:104a8c000000000080340120d8000000000000006d
:104a9c00643e01203400000000000000bc410120f5
:104aac000400000000000000aa43012001000000e7
:104abc0000000000c04101200400000000000000c4
:104acc0018fc00204006000000000000c44101203a
:104adc000c00000000000000784001200c000000d9
:104aec000000000040400120100000000000000009
:104afc00ab4301200100000000000000b240012087
:104b0c0002000000000000000a400120020000002a
:104b1c0000000000d0410120040000000000000053
:104b2c00504001201000000000000000d441012082
:104b3c001000000000000000704301200400000081
:104b4c0000000000e44101200c0000000000000007
:104b5c00ac4301200100000000000000f0410120e6
:104b6c000400000000000000c83f012018000000f5
:104b7c0000000000f44101200c00000000000000c7
:104b8c0074430120020000000000000000420120dc
:104b9c00040000000000000048f40020d0070000d2
:104bac000000000004420120100000000000000082
:104bbc007643012002000000000000001442012096
:104bcc000800000000000000f83f01201100000068
:104bdc0000000000703f01201f00000000000000da
:104bec001c4201200400000000000000784301205a
:104bfc000200000000000000204201201000000014
:104c0c00000000007a4301200200000000000000b8
:104c1c003042012008000000000000007c4301200d
:104c2c0002000000000000003842012010000000cb
:104c3c0000000000ad430120010000000000000056
:104c4c00a0450120040000000100000064000000e9
:104c5c00ec4401202800000001000000bb0103000f
:104c6c00d10101004b020100330203007c0203005e
:104c7c00dd030300de030300e0030300e103010096
:104c8c00b322010048420120040000000000000093
:104c9c002c3e012038000000000000004c42012096
:104cac0010000000000000002c39012090000000d2
:104cbc0000000000081f012080020000000000001e
:104ccc005c4201202800000000000000844001200c
:104cdc000c00000000000000e03f01201800000064
:104cec0000000000ac3f01201c0000000000000090
:104cfc00844201200400000000000000ae430120ab
:104d0c0001000000000000008842012004000000a7
:104d1c0000000000a4450120040000000100000078
:104d2c00ffffffff8c4201200c0000000000000080
:104d3c00a84001200a000000000000009842012059
:104d4c001c000000000000007e4301200200000057
:104d5c0000000000b4420120080000000000000028
:104d6c00af43012001000000000000007828012062
:104d7c003402000000000000c42f01206801000074
:104d8c0000000000103f0120600000000000000047
:104d9c00804301200200000000000000b04301200d
:104dac000100000000000000983e01202c000000d3
:104dbc000000000048d4002000100000000000009b
:104dcc002c3d01204000000000000000c8400120e4
:104ddc001000000000000000bc4201200400000094
:104dec0000000000b14301200100000000000000a1
:104dfc0048e400200008000000000000c042012030
:104e0c000800000000000000c42c012080010000fc
:104e1c0000000000904001200c0000000000000089
:104e2c0048ec00200008000000000000b243012004
:104e3c000200000000000000d84001200800000023
:104e4c0000000000c842012010000000000000001b
:104e5c00b443012001000000000000007833012061
:104e6c000801000000000000d842012008000000ea
:104e7c0000000000703d0120400000000000000018
:104e8c006c370120a000000000000000b445012098
:104e9c00020000000100000001000000442e01206f
:104eac008001000000000000e0420120040000002e
:104ebc0000000000b03d0120400000000000000098
:104ecc00e442012018000000000000008243012091
:104edc000200000000000000fc4201201400000051
:104eec0000000000b543012001000000000000009c
:104efc00a84501200400000001000000e0000001b2
:104f0c00104301200400000000000000e0400120dc
:104f1c0030000000000000001443012010000000cd
:104f2c000000000084430120040000000000000089
:104f3c0038be0020000c0000000000008843012057
:104f4c000200000000000000b64501200200000035
:104f5c0001000000ffff00002443012008000000b6
:104f6c000000000058020120400600000000000074
:104f7c00403a01208000000000000000b8450120ec
:104f8c00020000000100000030c000002c43012092
:104f9c0008000000000000008a430120020000000d
:104fac000000000034430120080000000000000055
:104fbc008c43012004000000000000003c43012051
:104fcc0004000000000000009043012002000000db
:104fdc0000000000e0230120580200000000000047
:104fec00341c0120d40200000000000040430120ca
:104ffc000800000000000000a03b01206000000041
:10500c0000000000484301201c00000000000000cc
:10501c00ac4501200400000001000000010000006c
:10502c00644301200400000000000000503c0120fb
:10503c005000000000000000684301200400000044
:10504c0000000000144501202000000001000000b9
:10505c000100000003000000000000000000000040
:10506c0000000000000000000000000010410120c2
:10507c001041012008000000000000006c430120da
:10508c0004000000000000008c44012060000000bf
:10509c0001000000010000000300000000000000ff
:1050ac0000000000000000000000000000000000f4
:1050bc00050c0300000000000000000000000000d0
:1050cc00619d0300a14103000000000000000000ee
:1050dc0000000000000000000000000000000000c4
:1050ec0000000000000000000000000000000000b4
:1050fc00000000009c4001200c000000000000009b
:10510c000000000000000000666666666666666663
:020000040000fa
:10511c0030b587b0044690f99030002b40f00f81e9
:10512c000378012b04bf0023037090f8d430042bb8
:10513c0000f25784dfe813f005008b00d9002f0133
:10514c003b0390f90830b3f1ff3f57d090f8fc20a7
:10515c00012a22d051b229b1022a43d0ff2380f870
:10516c009030dce003f01f01c3f34a1303f5020097
:10517c0000f580700022012303fa01f1c00134f024
:10518c0079fb34f097fd2ff00dfcc4f8dc0094f89b
:10519c00fc30013384f8fc30cfe034f08bfd2ff081
:1051ac0001fcd4f8dc30984200f0c78094f9083048
:1051bc0003f01f0201219140c3f34a1303f50200cf
:1051cc0000f580700a46c00134f054fb34f072fdd7
:1051dc002ff0e8fbc4f8dc0094f8fc30013384f8c1
:1051ec00fc30aae034f066fd2ff0dcfbd4f8dc30a8
:1051fc00c31a062b94bf002501258fe090f8fc30d4
:10520c002bb1012b16d0ff2380f8903087e00023c0
:10521c000193b44a009201220321d0f8ec0032f041
:10522c0069fc002800f0898094f8fc30013384f884
:10523c00fc3082e000230193aa4b009301231a4611
:10524c000321d0f8ec0032f055fc054666e0d0f8ae
:10525c00ec0094f8fc30042b43d8dfe813f0050085
:10526c00c6031300c6033300002200929e4b01219b
:10527c0032f068ff002860d094f8fc30013384f8d9
:10528c00fc305ae0d4f8e4309a0ac3f30913b2f5af
:10529c00f87f01d11b2b07d09449002029f0d0f9bd
:1052ac00ff2384f890303ae0002200928e4b904914
:1052bc0032f048ff002840d094f8fc30013384f8d9
:1052cc00fc303ae0d4f8e43003f00f0384f8fe30fd
:1052dc002bbb8849002029f0b3f9ff2384f89030c8
:1052ec001de0ff2384f8903027e090f8fc10c1f10a
:1052fc00220200230093804b92b2804800eb0111f4
:10530c00d4f8ec0023f096fa94f8fc500544edb276
:10531c0084f8fc50222d14bf002501256db100230b
:10532c0084f8fc3094f8d4300133dbb284f8d430f8
:10533c00052b04bf022384f890300123237094f9c9
:10534c009030022b00f0538394f90750c5f34a10a8
:10535c0000f5020000f58070c00134f01bfd05f073
:10536c001f0520fa05f515f0010f40f07683237820
:10537c00012b04bf002323700021d4f8ec000af0a9
:10538c00c3fb0123237094f80431002b00f07683c7
:10539c000023237068e3d0f8ec0094f8fc302f2b3a
:1053ac0000f2fe81dfe813f03000300030003000f6
:1053bc003000fc01fc01fc01fc01fc014a004a002c
:1053cc004a004a004a00fc01fc01fc01fc01fc0102
:1053dc0070007000700070007000fc01fc01fc019a
:1053ec00fc01fc018b000102b0000102c6000102ad
:1053fc00dc000102f2000102080130014d017101d3
:10540c009601bb01db01f2010093402305aa0521a3
:10541c00204622f055fb054600283ff47faf059b44
:10542c0023b10a2384f8fc30002577e734490020a7
:10543c0029f006f9ff2384f890306fe70a3bdbb2c2
:10544c0000931f2305aa0421204622f039fb0546b0
:10545c0000283ff463af059b13f0100f18bf43f007
:10546c00e0035bb284f8f03013f1050f04db142376
:10547c0084f8fc30002551e72149002029f0e0f8a0
:10548c00ff2384f8903049e7143bdbb200931f23d1
:10549c0005aa0821204622f013fb054600283ff4fc
:1054ac003daf059b13f0100f18bf43f0e0035bb248
:1054bc0084f8f1301e2384f8fc3000252ee70023fd
:1054cc000093094b01220f4932f03cfe054600289f
:1054dc003ff424af94f8fc30013384f8fc30002501
:1054ec001ce700bf034b0200f96603000cce020060
:1054fc0094000a0034ce020009910300686b01008d
:10550c004cce020084000400d4f8e430a4f8f2304d
:10551c0000230093bd4b0122bd4932f013fe05461a
:10552c0000283ff4fbae94f8fc30013384f8fc30d7
:10553c000025f3e6d4f8e430a4f8f430002300930b
:10554c00b24b0122b34932f0fdfd054600283ff471
:10555c00e5ae94f8fc30013384f8fc300025dde630
:10556c00d4f8e430a4f8f63000230093a74b0122c2
:10557c00a94932f0e7fd054600283ff4cfae94f878
:10558c00fc30013384f8fc300025c7e6d4f8e43055
:10559c00a4f8f830002300939c4b01229f4932f071
:1055ac00d1fd054600283ff4b9ae94f8fc30013328
:1055bc0084f8fc300025b1e6d4f8e430a4f8fa30d5
:1055cc0094f9f0309bb203f1090291b203f10e028f
:1055dc0092b2120142ea8122b4f8f23003f00f03c6
:1055ec001a43002301930093012392b28c4932f0a9
:1055fc0081fa054600283ff491ae94f8fc30013353
:10560c0084f8fc30002589e694f9f13028339bb2fc
:10561c00b4f8f420c2f3090242ea83220023019376
:10562c000093012392b27a4932f064fa05460028bd
:10563c003ff474ae94f8fc30013384f8fc30002550
:10564c006ce694f9f0309bb25a1d91b2b4f8f62086
:10565c0022f47c5222f03f0242ea012212b292b2b0
:10566c0009331a43002301930093012392b2694931
:10567c0032f040fa054600283ff450ae94f8fc3066
:10568c00013384f8fc30002548e694f9f0309bb2e5
:10569c0003f1090291b2b4f8f82022f47c5222f002
:1056ac003f0242ea012212b292b20e331a43002395
:1056bc0001930093012392b2574932f01bfa05462d
:1056cc0000283ff42bae94f8fc30013384f8fc3006
:1056dc00002523e694f9f0309bb203f1110291b24c
:1056ec00b4f8fa2022f47c5222f03f0242ea012262
:1056fc0012b292b216331a43002301930093012382
:10570c0092b2464932f0f6f9054600283ff406ae4f
:10571c0094f8fc30013384f8fc300025fee594f855
:10572c00fe50002301930093012345f6217243f6aa
:10573c0031719d4218bf0a463a4932f0dbf90546f1
:10574c0000283ff4ebad94f8fe30012b3ff4e6adae
:10575c0094f8fc30013384f8fc300025dee500239e
:10576c0002930193012300934ff440734ff4807222
:10577c002d4931f0e6ff054600283ff4cfad94f8f3
:10578c00fc30013384f8fc300025c7e5002301937d
:10579c00009301237d22254932f0acf90546bde585
:1057ac00ff2384f890300025b8e50025b6e5d0f845
:1057bc00ec0094f8fc30092b00f20f81dfe813f0b9
:1057cc000a003c005100630076009500ac00cb0051
:1057dc00e4000101637e1bb9042384f8fc30ace5c2
:1057ec00a17d627d00230193114b0093012342eaba
:1057fc000122104932f07ef900283ff49ead94f856
:10580c00fc30013384f8fc3097e500bff9660300e7
:10581c008a000400ad000400ae000400af000400d8
:10582c0084000400d000040088000a0039020a0039
:10583c000991030002ca0400e17d227e002301933a
:10584c008f4b0093012342ea01228e4932f052f928
:10585c0000283ff472ad94f8fc30013384f8fc302e
:10586c006be500230193864b009301238322864929
:10587c0032f040f900283ff460ad94f8fc3001336d
:10588c0084f8fc3059e5002301937d4b00930123f0
:10589c004ff400427d4932f02df900283ff44dad14
:1058ac0094f8fc30013384f8fc3046e594f89530dc
:1058bc0094f89420120442ea036294f892301a434a
:1058cc0094f89310002301936d4b0093012342ea4b
:1058dc0001226f4932f00ef900283ff42ead94f8f6
:1058ec00fc30013384f8fc3027e594f8971094f8d9
:1058fc00962000230193624b0093012342ea01227c
:10590c00644932f0f7f800283ff417ad94f8fc30f6
:10591c00013384f8fc3010e594f8973094f8962015
:10592c00120442ea036294f894301a4394f89510e6
:10593c0000230193524b0093012342ea0122564962
:10594c0032f0d8f800283ff4f8ac94f8fc3001336e
:10595c0084f8fc30f1e4a37e002b4ff0000301939c
:10596c00474b00934ff0010314bf102200224ff05d
:10597c00011132f0bff800283ff4dfac94f8fc3092
:10598c00013384f8fc30d8e4e17e49f2e60249f2b6
:10599c00e623002918bf1a46237f0bb142f480720c
:1059ac0000230193364b00930123042132f0a2f81b
:1059bc0000283ff4c2ac94f8fc30013384f8fc307e
:1059cc00bbe400230193354b009301230c224ff4cd
:1059dc00803132f08ff80546a0e4ff2384f8903034
:1059ec009de4ff2380f89030a7e4002596e4637ec5
:1059fc00b3b9d4f8e830002b3ff4a6ac34f05af924
:105a0c002ef0d0ffd4f8e830c01a04287ff69cacf6
:105a1c000023c4f8e830d4f8ec0034f07bf893e4bd
:105a2c0034f048f92ef0beffd4f8e030c31ab3f5c9
:105a3c007a7fded3c4f8e0002378012b04bf002367
:105a4c00237000230093164b01221649d4f8ec0066
:105a5c0032f078fb01232370cbe794f804316bb15f
:105a6c002378012b3ff494ac002384f804310121fa
:105a7c00d4f8ec000af048f80123237007b030bdcd
:105a8c000991030005ca04008700040001ca040040
